{
	"testLibrary.sol": {
		"Pool": {
			"abi": [
				{
					"inputs": [],
					"name": "getter",
					"outputs": [
						{
							"internalType": "bytes32",
							"name": "",
							"type": "bytes32"
						}
					],
					"stateMutability": "view",
					"type": "function"
				}
			],
			"devdoc": {
				"kind": "dev",
				"methods": {},
				"version": 1
			},
			"evm": {
				"assembly": "    /* \"testLibrary.sol\":119:247  contract Pool {... */\n  mstore(0x40, 0x80)\n  callvalue\n  dup1\n  iszero\n  tag_1\n  jumpi\n  0x00\n  dup1\n  revert\ntag_1:\n  pop\n  dataSize(sub_0)\n  dup1\n  dataOffset(sub_0)\n  0x00\n  codecopy\n  0x00\n  return\nstop\n\nsub_0: assembly {\n        /* \"testLibrary.sol\":119:247  contract Pool {... */\n      mstore(0x40, 0x80)\n      callvalue\n      dup1\n      iszero\n      tag_1\n      jumpi\n      0x00\n      dup1\n      revert\n    tag_1:\n      pop\n      jumpi(tag_2, lt(calldatasize, 0x04))\n      shr(0xe0, calldataload(0x00))\n      dup1\n      0x993a04b7\n      eq\n      tag_3\n      jumpi\n    tag_2:\n      0x00\n      dup1\n      revert\n        /* \"testLibrary.sol\":146:242  function getter() public view returns (bytes32) {... */\n    tag_3:\n      tag_4\n      tag_5\n      jump\t// in\n    tag_4:\n      mload(0x40)\n      tag_6\n      swap2\n      swap1\n      tag_7\n      jump\t// in\n    tag_6:\n      mload(0x40)\n      dup1\n      swap2\n      sub\n      swap1\n      return\n    tag_5:\n        /* \"testLibrary.sol\":185:192  bytes32 */\n      0x00\n        /* \"testLibrary.sol\":68:93  keccak256(\"MONITOR_ROLE\") */\n      0x8227712ef8ad39d0f26f06731ef0df8665eb7ada7f41b1ee089adf3c238862a2\n        /* \"testLibrary.sol\":205:234  return PoolLogic.MONITOR_ROLE */\n      swap1\n      pop\n        /* \"testLibrary.sol\":146:242  function getter() public view returns (bytes32) {... */\n      swap1\n      jump\t// out\n        /* \"#utility.yul\":7:84   */\n    tag_9:\n        /* \"#utility.yul\":44:51   */\n      0x00\n        /* \"#utility.yul\":73:78   */\n      dup2\n        /* \"#utility.yul\":62:78   */\n      swap1\n      pop\n        /* \"#utility.yul\":7:84   */\n      swap2\n      swap1\n      pop\n      jump\t// out\n        /* \"#utility.yul\":90:208   */\n    tag_10:\n        /* \"#utility.yul\":177:201   */\n      tag_14\n        /* \"#utility.yul\":195:200   */\n      dup2\n        /* \"#utility.yul\":177:201   */\n      tag_9\n      jump\t// in\n    tag_14:\n        /* \"#utility.yul\":172:175   */\n      dup3\n        /* \"#utility.yul\":165:202   */\n      mstore\n        /* \"#utility.yul\":90:208   */\n      pop\n      pop\n      jump\t// out\n        /* \"#utility.yul\":214:436   */\n    tag_7:\n        /* \"#utility.yul\":307:311   */\n      0x00\n        /* \"#utility.yul\":345:347   */\n      0x20\n        /* \"#utility.yul\":334:343   */\n      dup3\n        /* \"#utility.yul\":330:348   */\n      add\n        /* \"#utility.yul\":322:348   */\n      swap1\n      pop\n        /* \"#utility.yul\":358:429   */\n      tag_16\n        /* \"#utility.yul\":426:427   */\n      0x00\n        /* \"#utility.yul\":415:424   */\n      dup4\n        /* \"#utility.yul\":411:428   */\n      add\n        /* \"#utility.yul\":402:408   */\n      dup5\n        /* \"#utility.yul\":358:429   */\n      tag_10\n      jump\t// in\n    tag_16:\n        /* \"#utility.yul\":214:436   */\n      swap3\n      swap2\n      pop\n      pop\n      jump\t// out\n\n    auxdata: 0xa26469706673582212203a2cf0cbf8bd1a2250397ad1f82c3d59c64bb297426860dd879a439e1cab885364736f6c63430008160033\n}\n",
				"bytecode": {
					"linkReferences": {},
					"object": "608060405234801561000f575f80fd5b5060ce8061001c5f395ff3fe6080604052348015600e575f80fd5b50600436106026575f3560e01c8063993a04b714602a575b5f80fd5b60306044565b604051603b91906081565b60405180910390f35b5f7f8227712ef8ad39d0f26f06731ef0df8665eb7ada7f41b1ee089adf3c238862a2905090565b5f819050919050565b607b81606b565b82525050565b5f60208201905060925f8301846074565b9291505056fea26469706673582212203a2cf0cbf8bd1a2250397ad1f82c3d59c64bb297426860dd879a439e1cab885364736f6c63430008160033",
					"opcodes": "PUSH1 0x80 PUSH1 0x40 MSTORE CALLVALUE DUP1 ISZERO PUSH2 0xF JUMPI PUSH0 DUP1 REVERT JUMPDEST POP PUSH1 0xCE DUP1 PUSH2 0x1C PUSH0 CODECOPY PUSH0 RETURN INVALID PUSH1 0x80 PUSH1 0x40 MSTORE CALLVALUE DUP1 ISZERO PUSH1 0xE JUMPI PUSH0 DUP1 REVERT JUMPDEST POP PUSH1 0x4 CALLDATASIZE LT PUSH1 0x26 JUMPI PUSH0 CALLDATALOAD PUSH1 0xE0 SHR DUP1 PUSH4 0x993A04B7 EQ PUSH1 0x2A JUMPI JUMPDEST PUSH0 DUP1 REVERT JUMPDEST PUSH1 0x30 PUSH1 0x44 JUMP JUMPDEST PUSH1 0x40 MLOAD PUSH1 0x3B SWAP2 SWAP1 PUSH1 0x81 JUMP JUMPDEST PUSH1 0x40 MLOAD DUP1 SWAP2 SUB SWAP1 RETURN JUMPDEST PUSH0 PUSH32 0x8227712EF8AD39D0F26F06731EF0DF8665EB7ADA7F41B1EE089ADF3C238862A2 SWAP1 POP SWAP1 JUMP JUMPDEST PUSH0 DUP2 SWAP1 POP SWAP2 SWAP1 POP JUMP JUMPDEST PUSH1 0x7B DUP2 PUSH1 0x6B JUMP JUMPDEST DUP3 MSTORE POP POP JUMP JUMPDEST PUSH0 PUSH1 0x20 DUP3 ADD SWAP1 POP PUSH1 0x92 PUSH0 DUP4 ADD DUP5 PUSH1 0x74 JUMP JUMPDEST SWAP3 SWAP2 POP POP JUMP INVALID LOG2 PUSH5 0x6970667358 0x22 SLT KECCAK256 GASPRICE 0x2C CREATE 0xCB 0xF8 0xBD BYTE 0x22 POP CODECOPY PUSH27 0xD1F82C3D59C64BB297426860DD879A439E1CAB885364736F6C6343 STOP ADDMOD AND STOP CALLER "
				},
				"gasEstimates": {
					"creation": {
						"codeDepositCost": "41200",
						"executionCost": "91",
						"totalCost": "41291"
					},
					"external": {
						"getter()": "310"
					}
				},
				"methodIdentifiers": {
					"getter()": "993a04b7"
				}
			},
			"storageLayout": {
				"storage": [],
				"types": null
			},
			"userdoc": {
				"kind": "user",
				"methods": {},
				"version": 1
			}
		}
	}
}