{
	"testLibrary.sol": {
		"PoolLogic": {
			"abi": [
				{
					"inputs": [],
					"name": "MONITOR_ROLE",
					"outputs": [
						{
							"internalType": "bytes32",
							"name": "",
							"type": "bytes32"
						}
					],
					"stateMutability": "view",
					"type": "function"
				}
			],
			"devdoc": {
				"kind": "dev",
				"methods": {},
				"version": 1
			},
			"evm": {
				"assembly": "    /* \"testLibrary.sol\":2:115  library PoolLogic {... */\n  dataSize(sub_0)\n  dataOffset(sub_0)\n  0x0b\n  dup3\n  dup3\n  dup3\n  codecopy\n  dup1\n  mload\n  0x00\n  byte\n  0x73\n  eq\n  tag_1\n  jumpi\n  mstore(0x00, 0x4e487b7100000000000000000000000000000000000000000000000000000000)\n  mstore(0x04, 0x00)\n  revert(0x00, 0x24)\ntag_1:\n  mstore(0x00, address)\n  0x73\n  dup2\n  mstore8\n  dup3\n  dup2\n  return\nstop\n\nsub_0: assembly {\n        /* \"testLibrary.sol\":2:115  library PoolLogic {... */\n      eq(address, deployTimeAddress())\n      mstore(0x40, 0x80)\n      jumpi(tag_1, lt(calldatasize, 0x04))\n      shr(0xe0, calldataload(0x00))\n      dup1\n      0x4d9b47e2\n      eq\n      tag_2\n      jumpi\n    tag_1:\n      0x00\n      dup1\n      revert\n        /* \"testLibrary.sol\":29:93  bytes32 public constant MONITOR_ROLE = keccak256(\"MONITOR_ROLE\") */\n    tag_2:\n      tag_3\n      tag_4\n      jump\t// in\n    tag_3:\n      mload(0x40)\n      tag_5\n      swap2\n      swap1\n      tag_6\n      jump\t// in\n    tag_5:\n      mload(0x40)\n      dup1\n      swap2\n      sub\n      swap1\n      return\n    tag_4:\n        /* \"testLibrary.sol\":68:93  keccak256(\"MONITOR_ROLE\") */\n      0x8227712ef8ad39d0f26f06731ef0df8665eb7ada7f41b1ee089adf3c238862a2\n        /* \"testLibrary.sol\":29:93  bytes32 public constant MONITOR_ROLE = keccak256(\"MONITOR_ROLE\") */\n      dup2\n      jump\t// out\n        /* \"#utility.yul\":7:84   */\n    tag_7:\n        /* \"#utility.yul\":44:51   */\n      0x00\n        /* \"#utility.yul\":73:78   */\n      dup2\n        /* \"#utility.yul\":62:78   */\n      swap1\n      pop\n        /* \"#utility.yul\":7:84   */\n      swap2\n      swap1\n      pop\n      jump\t// out\n        /* \"#utility.yul\":90:216   */\n    tag_8:\n        /* \"#utility.yul\":185:209   */\n      tag_12\n        /* \"#utility.yul\":203:208   */\n      dup2\n        /* \"#utility.yul\":185:209   */\n      tag_7\n      jump\t// in\n    tag_12:\n        /* \"#utility.yul\":180:183   */\n      dup3\n        /* \"#utility.yul\":173:210   */\n      mstore\n        /* \"#utility.yul\":90:216   */\n      pop\n      pop\n      jump\t// out\n        /* \"#utility.yul\":222:460   */\n    tag_6:\n        /* \"#utility.yul\":323:327   */\n      0x00\n        /* \"#utility.yul\":361:363   */\n      0x20\n        /* \"#utility.yul\":350:359   */\n      dup3\n        /* \"#utility.yul\":346:364   */\n      add\n        /* \"#utility.yul\":338:364   */\n      swap1\n      pop\n        /* \"#utility.yul\":374:453   */\n      tag_14\n        /* \"#utility.yul\":450:451   */\n      0x00\n        /* \"#utility.yul\":439:448   */\n      dup4\n        /* \"#utility.yul\":435:452   */\n      add\n        /* \"#utility.yul\":426:432   */\n      dup5\n        /* \"#utility.yul\":374:453   */\n      tag_8\n      jump\t// in\n    tag_14:\n        /* \"#utility.yul\":222:460   */\n      swap3\n      swap2\n      pop\n      pop\n      jump\t// out\n\n    auxdata: 0xa264697066735822122070b3bf953d64bc04b8617e5ca38efed02355ac910613fc84e8b8ffd1df882f9564736f6c63430008160033\n}\n",
				"bytecode": {
					"linkReferences": {},
					"object": "60d761004d600b8282823980515f1a607314610041577f4e487b71000000000000000000000000000000000000000000000000000000005f525f60045260245ffd5b305f52607381538281f3fe73000000000000000000000000000000000000000030146080604052600436106032575f3560e01c80634d9b47e2146036575b5f80fd5b603c6050565b60405160479190608a565b60405180910390f35b7f8227712ef8ad39d0f26f06731ef0df8665eb7ada7f41b1ee089adf3c238862a281565b5f819050919050565b6084816074565b82525050565b5f602082019050609b5f830184607d565b9291505056fea264697066735822122070b3bf953d64bc04b8617e5ca38efed02355ac910613fc84e8b8ffd1df882f9564736f6c63430008160033",
					"opcodes": "PUSH1 0xD7 PUSH2 0x4D PUSH1 0xB DUP3 DUP3 DUP3 CODECOPY DUP1 MLOAD PUSH0 BYTE PUSH1 0x73 EQ PUSH2 0x41 JUMPI PUSH32 0x4E487B7100000000000000000000000000000000000000000000000000000000 PUSH0 MSTORE PUSH0 PUSH1 0x4 MSTORE PUSH1 0x24 PUSH0 REVERT JUMPDEST ADDRESS PUSH0 MSTORE PUSH1 0x73 DUP2 MSTORE8 DUP3 DUP2 RETURN INVALID PUSH20 0x0 ADDRESS EQ PUSH1 0x80 PUSH1 0x40 MSTORE PUSH1 0x4 CALLDATASIZE LT PUSH1 0x32 JUMPI PUSH0 CALLDATALOAD PUSH1 0xE0 SHR DUP1 PUSH4 0x4D9B47E2 EQ PUSH1 0x36 JUMPI JUMPDEST PUSH0 DUP1 REVERT JUMPDEST PUSH1 0x3C PUSH1 0x50 JUMP JUMPDEST PUSH1 0x40 MLOAD PUSH1 0x47 SWAP2 SWAP1 PUSH1 0x8A JUMP JUMPDEST PUSH1 0x40 MLOAD DUP1 SWAP2 SUB SWAP1 RETURN JUMPDEST PUSH32 0x8227712EF8AD39D0F26F06731EF0DF8665EB7ADA7F41B1EE089ADF3C238862A2 DUP2 JUMP JUMPDEST PUSH0 DUP2 SWAP1 POP SWAP2 SWAP1 POP JUMP JUMPDEST PUSH1 0x84 DUP2 PUSH1 0x74 JUMP JUMPDEST DUP3 MSTORE POP POP JUMP JUMPDEST PUSH0 PUSH1 0x20 DUP3 ADD SWAP1 POP PUSH1 0x9B PUSH0 DUP4 ADD DUP5 PUSH1 0x7D JUMP JUMPDEST SWAP3 SWAP2 POP POP JUMP INVALID LOG2 PUSH5 0x6970667358 0x22 SLT KECCAK256 PUSH17 0xB3BF953D64BC04B8617E5CA38EFED02355 0xAC SWAP2 MOD SGT 0xFC DUP5 0xE8 0xB8 SELFDESTRUCT 0xD1 0xDF DUP9 0x2F SWAP6 PUSH5 0x736F6C6343 STOP ADDMOD AND STOP CALLER "
				},
				"gasEstimates": {
					"creation": {
						"codeDepositCost": "43000",
						"executionCost": "119",
						"totalCost": "43119"
					},
					"external": {
						"MONITOR_ROLE()": "287"
					}
				},
				"methodIdentifiers": {
					"MONITOR_ROLE()": "4d9b47e2"
				}
			},
			"storageLayout": {
				"storage": [],
				"types": null
			},
			"userdoc": {
				"kind": "user",
				"methods": {},
				"version": 1
			}
		}
	}
}