{
	"testOverflow.sol": {
		"A": {
			"abi": [
				{
					"inputs": [
						{
							"internalType": "uint256",
							"name": "distributionStartTime",
							"type": "uint256"
						},
						{
							"internalType": "uint256",
							"name": "distributionEndTime",
							"type": "uint256"
						},
						{
							"internalType": "uint256",
							"name": "emissionPerSecond",
							"type": "uint256"
						}
					],
					"name": "test",
					"outputs": [
						{
							"internalType": "uint256",
							"name": "",
							"type": "uint256"
						}
					],
					"stateMutability": "nonpayable",
					"type": "function"
				},
				{
					"inputs": [],
					"name": "test2",
					"outputs": [
						{
							"internalType": "int256",
							"name": "",
							"type": "int256"
						}
					],
					"stateMutability": "pure",
					"type": "function"
				}
			],
			"devdoc": {
				"kind": "dev",
				"methods": {},
				"version": 1
			},
			"evm": {
				"assembly": "    /* \"testOverflow.sol\":68:415  contract A {... */\n  mstore(0x40, 0x80)\n  callvalue\n  dup1\n  iszero\n  tag_1\n  jumpi\n  0x00\n  dup1\n  revert\ntag_1:\n  pop\n  dataSize(sub_0)\n  dup1\n  dataOffset(sub_0)\n  0x00\n  codecopy\n  0x00\n  return\nstop\n\nsub_0: assembly {\n        /* \"testOverflow.sol\":68:415  contract A {... */\n      mstore(0x40, 0x80)\n      callvalue\n      dup1\n      iszero\n      tag_1\n      jumpi\n      0x00\n      dup1\n      revert\n    tag_1:\n      pop\n      jumpi(tag_2, lt(calldatasize, 0x04))\n      shr(0xe0, calldataload(0x00))\n      dup1\n      0x61805cc3\n      eq\n      tag_3\n      jumpi\n      dup1\n      0x66e41cb7\n      eq\n      tag_4\n      jumpi\n    tag_2:\n      0x00\n      dup1\n      revert\n        /* \"testOverflow.sol\":90:313  function test(uint256 distributionStartTime, uint256 distributionEndTime, uint256 emissionPerSecond) public returns(uint256) {... */\n    tag_3:\n      tag_5\n      0x04\n      dup1\n      calldatasize\n      sub\n      dup2\n      add\n      swap1\n      tag_6\n      swap2\n      swap1\n      tag_7\n      jump\t// in\n    tag_6:\n      tag_8\n      jump\t// in\n    tag_5:\n      mload(0x40)\n      tag_9\n      swap2\n      swap1\n      tag_10\n      jump\t// in\n    tag_9:\n      mload(0x40)\n      dup1\n      swap2\n      sub\n      swap1\n      return\n        /* \"testOverflow.sol\":323:412  function test2() external pure returns(int256) {... */\n    tag_4:\n      tag_11\n      tag_12\n      jump\t// in\n    tag_11:\n      mload(0x40)\n      tag_13\n      swap2\n      swap1\n      tag_14\n      jump\t// in\n    tag_13:\n      mload(0x40)\n      dup1\n      swap2\n      sub\n      swap1\n      return\n        /* \"testOverflow.sol\":90:313  function test(uint256 distributionStartTime, uint256 distributionEndTime, uint256 emissionPerSecond) public returns(uint256) {... */\n    tag_8:\n        /* \"testOverflow.sol\":206:213  uint256 */\n      0x00\n        /* \"testOverflow.sol\":226:237  uint256 mul */\n      dup1\n        /* \"testOverflow.sol\":288:305  emissionPerSecond */\n      dup3\n        /* \"testOverflow.sol\":263:284  distributionStartTime */\n      dup6\n        /* \"testOverflow.sol\":241:260  distributionEndTime */\n      dup6\n        /* \"testOverflow.sol\":241:284  distributionEndTime - distributionStartTime */\n      tag_16\n      swap2\n      swap1\n      tag_17\n      jump\t// in\n    tag_16:\n        /* \"testOverflow.sol\":240:305  (distributionEndTime - distributionStartTime) * emissionPerSecond */\n      tag_18\n      swap2\n      swap1\n      tag_19\n      jump\t// in\n    tag_18:\n        /* \"testOverflow.sol\":226:305  uint256 mul = (distributionEndTime - distributionStartTime) * emissionPerSecond */\n      swap1\n      pop\n        /* \"testOverflow.sol\":215:313  {... */\n      pop\n        /* \"testOverflow.sol\":90:313  function test(uint256 distributionStartTime, uint256 distributionEndTime, uint256 emissionPerSecond) public returns(uint256) {... */\n      swap4\n      swap3\n      pop\n      pop\n      pop\n      jump\t// out\n        /* \"testOverflow.sol\":323:412  function test2() external pure returns(int256) {... */\n    tag_12:\n        /* \"testOverflow.sol\":362:368  int256 */\n      0x00\n        /* \"testOverflow.sol\":388:404  type(int256).max */\n      0x7fffffffffffffffffffffffffffffffffffffffffffffffffffffffffffffff\n        /* \"testOverflow.sol\":381:404  return type(int256).max */\n      swap1\n      pop\n        /* \"testOverflow.sol\":323:412  function test2() external pure returns(int256) {... */\n      swap1\n      jump\t// out\n        /* \"#utility.yul\":88:205   */\n    tag_22:\n        /* \"#utility.yul\":197:198   */\n      0x00\n        /* \"#utility.yul\":194:195   */\n      dup1\n        /* \"#utility.yul\":187:199   */\n      revert\n        /* \"#utility.yul\":334:411   */\n    tag_24:\n        /* \"#utility.yul\":371:378   */\n      0x00\n        /* \"#utility.yul\":400:405   */\n      dup2\n        /* \"#utility.yul\":389:405   */\n      swap1\n      pop\n        /* \"#utility.yul\":334:411   */\n      swap2\n      swap1\n      pop\n      jump\t// out\n        /* \"#utility.yul\":417:539   */\n    tag_25:\n        /* \"#utility.yul\":490:514   */\n      tag_37\n        /* \"#utility.yul\":508:513   */\n      dup2\n        /* \"#utility.yul\":490:514   */\n      tag_24\n      jump\t// in\n    tag_37:\n        /* \"#utility.yul\":483:488   */\n      dup2\n        /* \"#utility.yul\":480:515   */\n      eq\n        /* \"#utility.yul\":470:533   */\n      tag_38\n      jumpi\n        /* \"#utility.yul\":529:530   */\n      0x00\n        /* \"#utility.yul\":526:527   */\n      dup1\n        /* \"#utility.yul\":519:531   */\n      revert\n        /* \"#utility.yul\":470:533   */\n    tag_38:\n        /* \"#utility.yul\":417:539   */\n      pop\n      jump\t// out\n        /* \"#utility.yul\":545:684   */\n    tag_26:\n        /* \"#utility.yul\":591:596   */\n      0x00\n        /* \"#utility.yul\":629:635   */\n      dup2\n        /* \"#utility.yul\":616:636   */\n      calldataload\n        /* \"#utility.yul\":607:636   */\n      swap1\n      pop\n        /* \"#utility.yul\":645:678   */\n      tag_40\n        /* \"#utility.yul\":672:677   */\n      dup2\n        /* \"#utility.yul\":645:678   */\n      tag_25\n      jump\t// in\n    tag_40:\n        /* \"#utility.yul\":545:684   */\n      swap3\n      swap2\n      pop\n      pop\n      jump\t// out\n        /* \"#utility.yul\":690:1309   */\n    tag_7:\n        /* \"#utility.yul\":767:773   */\n      0x00\n        /* \"#utility.yul\":775:781   */\n      dup1\n        /* \"#utility.yul\":783:789   */\n      0x00\n        /* \"#utility.yul\":832:834   */\n      0x60\n        /* \"#utility.yul\":820:829   */\n      dup5\n        /* \"#utility.yul\":811:818   */\n      dup7\n        /* \"#utility.yul\":807:830   */\n      sub\n        /* \"#utility.yul\":803:835   */\n      slt\n        /* \"#utility.yul\":800:919   */\n      iszero\n      tag_42\n      jumpi\n        /* \"#utility.yul\":838:917   */\n      tag_43\n      tag_22\n      jump\t// in\n    tag_43:\n        /* \"#utility.yul\":800:919   */\n    tag_42:\n        /* \"#utility.yul\":958:959   */\n      0x00\n        /* \"#utility.yul\":983:1036   */\n      tag_44\n        /* \"#utility.yul\":1028:1035   */\n      dup7\n        /* \"#utility.yul\":1019:1025   */\n      dup3\n        /* \"#utility.yul\":1008:1017   */\n      dup8\n        /* \"#utility.yul\":1004:1026   */\n      add\n        /* \"#utility.yul\":983:1036   */\n      tag_26\n      jump\t// in\n    tag_44:\n        /* \"#utility.yul\":973:1036   */\n      swap4\n      pop\n        /* \"#utility.yul\":929:1046   */\n      pop\n        /* \"#utility.yul\":1085:1087   */\n      0x20\n        /* \"#utility.yul\":1111:1164   */\n      tag_45\n        /* \"#utility.yul\":1156:1163   */\n      dup7\n        /* \"#utility.yul\":1147:1153   */\n      dup3\n        /* \"#utility.yul\":1136:1145   */\n      dup8\n        /* \"#utility.yul\":1132:1154   */\n      add\n        /* \"#utility.yul\":1111:1164   */\n      tag_26\n      jump\t// in\n    tag_45:\n        /* \"#utility.yul\":1101:1164   */\n      swap3\n      pop\n        /* \"#utility.yul\":1056:1174   */\n      pop\n        /* \"#utility.yul\":1213:1215   */\n      0x40\n        /* \"#utility.yul\":1239:1292   */\n      tag_46\n        /* \"#utility.yul\":1284:1291   */\n      dup7\n        /* \"#utility.yul\":1275:1281   */\n      dup3\n        /* \"#utility.yul\":1264:1273   */\n      dup8\n        /* \"#utility.yul\":1260:1282   */\n      add\n        /* \"#utility.yul\":1239:1292   */\n      tag_26\n      jump\t// in\n    tag_46:\n        /* \"#utility.yul\":1229:1292   */\n      swap2\n      pop\n        /* \"#utility.yul\":1184:1302   */\n      pop\n        /* \"#utility.yul\":690:1309   */\n      swap3\n      pop\n      swap3\n      pop\n      swap3\n      jump\t// out\n        /* \"#utility.yul\":1315:1433   */\n    tag_27:\n        /* \"#utility.yul\":1402:1426   */\n      tag_48\n        /* \"#utility.yul\":1420:1425   */\n      dup2\n        /* \"#utility.yul\":1402:1426   */\n      tag_24\n      jump\t// in\n    tag_48:\n        /* \"#utility.yul\":1397:1400   */\n      dup3\n        /* \"#utility.yul\":1390:1427   */\n      mstore\n        /* \"#utility.yul\":1315:1433   */\n      pop\n      pop\n      jump\t// out\n        /* \"#utility.yul\":1439:1661   */\n    tag_10:\n        /* \"#utility.yul\":1532:1536   */\n      0x00\n        /* \"#utility.yul\":1570:1572   */\n      0x20\n        /* \"#utility.yul\":1559:1568   */\n      dup3\n        /* \"#utility.yul\":1555:1573   */\n      add\n        /* \"#utility.yul\":1547:1573   */\n      swap1\n      pop\n        /* \"#utility.yul\":1583:1654   */\n      tag_50\n        /* \"#utility.yul\":1651:1652   */\n      0x00\n        /* \"#utility.yul\":1640:1649   */\n      dup4\n        /* \"#utility.yul\":1636:1653   */\n      add\n        /* \"#utility.yul\":1627:1633   */\n      dup5\n        /* \"#utility.yul\":1583:1654   */\n      tag_27\n      jump\t// in\n    tag_50:\n        /* \"#utility.yul\":1439:1661   */\n      swap3\n      swap2\n      pop\n      pop\n      jump\t// out\n        /* \"#utility.yul\":1667:1743   */\n    tag_28:\n        /* \"#utility.yul\":1703:1710   */\n      0x00\n        /* \"#utility.yul\":1732:1737   */\n      dup2\n        /* \"#utility.yul\":1721:1737   */\n      swap1\n      pop\n        /* \"#utility.yul\":1667:1743   */\n      swap2\n      swap1\n      pop\n      jump\t// out\n        /* \"#utility.yul\":1749:1864   */\n    tag_29:\n        /* \"#utility.yul\":1834:1857   */\n      tag_53\n        /* \"#utility.yul\":1851:1856   */\n      dup2\n        /* \"#utility.yul\":1834:1857   */\n      tag_28\n      jump\t// in\n    tag_53:\n        /* \"#utility.yul\":1829:1832   */\n      dup3\n        /* \"#utility.yul\":1822:1858   */\n      mstore\n        /* \"#utility.yul\":1749:1864   */\n      pop\n      pop\n      jump\t// out\n        /* \"#utility.yul\":1870:2088   */\n    tag_14:\n        /* \"#utility.yul\":1961:1965   */\n      0x00\n        /* \"#utility.yul\":1999:2001   */\n      0x20\n        /* \"#utility.yul\":1988:1997   */\n      dup3\n        /* \"#utility.yul\":1984:2002   */\n      add\n        /* \"#utility.yul\":1976:2002   */\n      swap1\n      pop\n        /* \"#utility.yul\":2012:2081   */\n      tag_55\n        /* \"#utility.yul\":2078:2079   */\n      0x00\n        /* \"#utility.yul\":2067:2076   */\n      dup4\n        /* \"#utility.yul\":2063:2080   */\n      add\n        /* \"#utility.yul\":2054:2060   */\n      dup5\n        /* \"#utility.yul\":2012:2081   */\n      tag_29\n      jump\t// in\n    tag_55:\n        /* \"#utility.yul\":1870:2088   */\n      swap3\n      swap2\n      pop\n      pop\n      jump\t// out\n        /* \"#utility.yul\":2094:2274   */\n    tag_30:\n        /* \"#utility.yul\":2142:2219   */\n      0x4e487b7100000000000000000000000000000000000000000000000000000000\n        /* \"#utility.yul\":2139:2140   */\n      0x00\n        /* \"#utility.yul\":2132:2220   */\n      mstore\n        /* \"#utility.yul\":2239:2243   */\n      0x11\n        /* \"#utility.yul\":2236:2237   */\n      0x04\n        /* \"#utility.yul\":2229:2244   */\n      mstore\n        /* \"#utility.yul\":2263:2267   */\n      0x24\n        /* \"#utility.yul\":2260:2261   */\n      0x00\n        /* \"#utility.yul\":2253:2268   */\n      revert\n        /* \"#utility.yul\":2280:2474   */\n    tag_17:\n        /* \"#utility.yul\":2320:2324   */\n      0x00\n        /* \"#utility.yul\":2340:2360   */\n      tag_58\n        /* \"#utility.yul\":2358:2359   */\n      dup3\n        /* \"#utility.yul\":2340:2360   */\n      tag_24\n      jump\t// in\n    tag_58:\n        /* \"#utility.yul\":2335:2360   */\n      swap2\n      pop\n        /* \"#utility.yul\":2374:2394   */\n      tag_59\n        /* \"#utility.yul\":2392:2393   */\n      dup4\n        /* \"#utility.yul\":2374:2394   */\n      tag_24\n      jump\t// in\n    tag_59:\n        /* \"#utility.yul\":2369:2394   */\n      swap3\n      pop\n        /* \"#utility.yul\":2418:2419   */\n      dup3\n        /* \"#utility.yul\":2415:2416   */\n      dup3\n        /* \"#utility.yul\":2411:2420   */\n      sub\n        /* \"#utility.yul\":2403:2420   */\n      swap1\n      pop\n        /* \"#utility.yul\":2442:2443   */\n      dup2\n        /* \"#utility.yul\":2436:2440   */\n      dup2\n        /* \"#utility.yul\":2433:2444   */\n      gt\n        /* \"#utility.yul\":2430:2467   */\n      iszero\n      tag_60\n      jumpi\n        /* \"#utility.yul\":2447:2465   */\n      tag_61\n      tag_30\n      jump\t// in\n    tag_61:\n        /* \"#utility.yul\":2430:2467   */\n    tag_60:\n        /* \"#utility.yul\":2280:2474   */\n      swap3\n      swap2\n      pop\n      pop\n      jump\t// out\n        /* \"#utility.yul\":2480:2890   */\n    tag_19:\n        /* \"#utility.yul\":2520:2527   */\n      0x00\n        /* \"#utility.yul\":2543:2563   */\n      tag_63\n        /* \"#utility.yul\":2561:2562   */\n      dup3\n        /* \"#utility.yul\":2543:2563   */\n      tag_24\n      jump\t// in\n    tag_63:\n        /* \"#utility.yul\":2538:2563   */\n      swap2\n      pop\n        /* \"#utility.yul\":2577:2597   */\n      tag_64\n        /* \"#utility.yul\":2595:2596   */\n      dup4\n        /* \"#utility.yul\":2577:2597   */\n      tag_24\n      jump\t// in\n    tag_64:\n        /* \"#utility.yul\":2572:2597   */\n      swap3\n      pop\n        /* \"#utility.yul\":2632:2633   */\n      dup3\n        /* \"#utility.yul\":2629:2630   */\n      dup3\n        /* \"#utility.yul\":2625:2634   */\n      mul\n        /* \"#utility.yul\":2654:2684   */\n      tag_65\n        /* \"#utility.yul\":2672:2683   */\n      dup2\n        /* \"#utility.yul\":2654:2684   */\n      tag_24\n      jump\t// in\n    tag_65:\n        /* \"#utility.yul\":2643:2684   */\n      swap2\n      pop\n        /* \"#utility.yul\":2833:2834   */\n      dup3\n        /* \"#utility.yul\":2824:2831   */\n      dup3\n        /* \"#utility.yul\":2820:2835   */\n      div\n        /* \"#utility.yul\":2817:2818   */\n      dup5\n        /* \"#utility.yul\":2814:2836   */\n      eq\n        /* \"#utility.yul\":2794:2795   */\n      dup4\n        /* \"#utility.yul\":2787:2796   */\n      iszero\n        /* \"#utility.yul\":2767:2850   */\n      or\n        /* \"#utility.yul\":2744:2883   */\n      tag_66\n      jumpi\n        /* \"#utility.yul\":2863:2881   */\n      tag_67\n      tag_30\n      jump\t// in\n    tag_67:\n        /* \"#utility.yul\":2744:2883   */\n    tag_66:\n        /* \"#utility.yul\":2528:2890   */\n      pop\n        /* \"#utility.yul\":2480:2890   */\n      swap3\n      swap2\n      pop\n      pop\n      jump\t// out\n\n    auxdata: 0xa264697066735822122040c474940c22210a78794f03c39b03478d8014fa2f7ed221d5090cbdfcd4b1a364736f6c634300081a0033\n}\n",
				"bytecode": {
					"linkReferences": {},
					"object": "6080604052348015600e575f80fd5b506102878061001c5f395ff3fe608060405234801561000f575f80fd5b5060043610610034575f3560e01c806361805cc31461003857806366e41cb714610068575b5f80fd5b610052600480360381019061004d9190610107565b610086565b60405161005f9190610166565b60405180910390f35b6100706100a9565b60405161007d9190610197565b60405180910390f35b5f8082858561009591906101dd565b61009f9190610210565b9050509392505050565b5f7f7fffffffffffffffffffffffffffffffffffffffffffffffffffffffffffffff905090565b5f80fd5b5f819050919050565b6100e6816100d4565b81146100f0575f80fd5b50565b5f81359050610101816100dd565b92915050565b5f805f6060848603121561011e5761011d6100d0565b5b5f61012b868287016100f3565b935050602061013c868287016100f3565b925050604061014d868287016100f3565b9150509250925092565b610160816100d4565b82525050565b5f6020820190506101795f830184610157565b92915050565b5f819050919050565b6101918161017f565b82525050565b5f6020820190506101aa5f830184610188565b92915050565b7f4e487b71000000000000000000000000000000000000000000000000000000005f52601160045260245ffd5b5f6101e7826100d4565b91506101f2836100d4565b925082820390508181111561020a576102096101b0565b5b92915050565b5f61021a826100d4565b9150610225836100d4565b9250828202610233816100d4565b9150828204841483151761024a576102496101b0565b5b509291505056fea264697066735822122040c474940c22210a78794f03c39b03478d8014fa2f7ed221d5090cbdfcd4b1a364736f6c634300081a0033",
					"opcodes": "PUSH1 0x80 PUSH1 0x40 MSTORE CALLVALUE DUP1 ISZERO PUSH1 0xE JUMPI PUSH0 DUP1 REVERT JUMPDEST POP PUSH2 0x287 DUP1 PUSH2 0x1C PUSH0 CODECOPY PUSH0 RETURN INVALID PUSH1 0x80 PUSH1 0x40 MSTORE CALLVALUE DUP1 ISZERO PUSH2 0xF JUMPI PUSH0 DUP1 REVERT JUMPDEST POP PUSH1 0x4 CALLDATASIZE LT PUSH2 0x34 JUMPI PUSH0 CALLDATALOAD PUSH1 0xE0 SHR DUP1 PUSH4 0x61805CC3 EQ PUSH2 0x38 JUMPI DUP1 PUSH4 0x66E41CB7 EQ PUSH2 0x68 JUMPI JUMPDEST PUSH0 DUP1 REVERT JUMPDEST PUSH2 0x52 PUSH1 0x4 DUP1 CALLDATASIZE SUB DUP2 ADD SWAP1 PUSH2 0x4D SWAP2 SWAP1 PUSH2 0x107 JUMP JUMPDEST PUSH2 0x86 JUMP JUMPDEST PUSH1 0x40 MLOAD PUSH2 0x5F SWAP2 SWAP1 PUSH2 0x166 JUMP JUMPDEST PUSH1 0x40 MLOAD DUP1 SWAP2 SUB SWAP1 RETURN JUMPDEST PUSH2 0x70 PUSH2 0xA9 JUMP JUMPDEST PUSH1 0x40 MLOAD PUSH2 0x7D SWAP2 SWAP1 PUSH2 0x197 JUMP JUMPDEST PUSH1 0x40 MLOAD DUP1 SWAP2 SUB SWAP1 RETURN JUMPDEST PUSH0 DUP1 DUP3 DUP6 DUP6 PUSH2 0x95 SWAP2 SWAP1 PUSH2 0x1DD JUMP JUMPDEST PUSH2 0x9F SWAP2 SWAP1 PUSH2 0x210 JUMP JUMPDEST SWAP1 POP POP SWAP4 SWAP3 POP POP POP JUMP JUMPDEST PUSH0 PUSH32 0x7FFFFFFFFFFFFFFFFFFFFFFFFFFFFFFFFFFFFFFFFFFFFFFFFFFFFFFFFFFFFFFF SWAP1 POP SWAP1 JUMP JUMPDEST PUSH0 DUP1 REVERT JUMPDEST PUSH0 DUP2 SWAP1 POP SWAP2 SWAP1 POP JUMP JUMPDEST PUSH2 0xE6 DUP2 PUSH2 0xD4 JUMP JUMPDEST DUP2 EQ PUSH2 0xF0 JUMPI PUSH0 DUP1 REVERT JUMPDEST POP JUMP JUMPDEST PUSH0 DUP2 CALLDATALOAD SWAP1 POP PUSH2 0x101 DUP2 PUSH2 0xDD JUMP JUMPDEST SWAP3 SWAP2 POP POP JUMP JUMPDEST PUSH0 DUP1 PUSH0 PUSH1 0x60 DUP5 DUP7 SUB SLT ISZERO PUSH2 0x11E JUMPI PUSH2 0x11D PUSH2 0xD0 JUMP JUMPDEST JUMPDEST PUSH0 PUSH2 0x12B DUP7 DUP3 DUP8 ADD PUSH2 0xF3 JUMP JUMPDEST SWAP4 POP POP PUSH1 0x20 PUSH2 0x13C DUP7 DUP3 DUP8 ADD PUSH2 0xF3 JUMP JUMPDEST SWAP3 POP POP PUSH1 0x40 PUSH2 0x14D DUP7 DUP3 DUP8 ADD PUSH2 0xF3 JUMP JUMPDEST SWAP2 POP POP SWAP3 POP SWAP3 POP SWAP3 JUMP JUMPDEST PUSH2 0x160 DUP2 PUSH2 0xD4 JUMP JUMPDEST DUP3 MSTORE POP POP JUMP JUMPDEST PUSH0 PUSH1 0x20 DUP3 ADD SWAP1 POP PUSH2 0x179 PUSH0 DUP4 ADD DUP5 PUSH2 0x157 JUMP JUMPDEST SWAP3 SWAP2 POP POP JUMP JUMPDEST PUSH0 DUP2 SWAP1 POP SWAP2 SWAP1 POP JUMP JUMPDEST PUSH2 0x191 DUP2 PUSH2 0x17F JUMP JUMPDEST DUP3 MSTORE POP POP JUMP JUMPDEST PUSH0 PUSH1 0x20 DUP3 ADD SWAP1 POP PUSH2 0x1AA PUSH0 DUP4 ADD DUP5 PUSH2 0x188 JUMP JUMPDEST SWAP3 SWAP2 POP POP JUMP JUMPDEST PUSH32 0x4E487B7100000000000000000000000000000000000000000000000000000000 PUSH0 MSTORE PUSH1 0x11 PUSH1 0x4 MSTORE PUSH1 0x24 PUSH0 REVERT JUMPDEST PUSH0 PUSH2 0x1E7 DUP3 PUSH2 0xD4 JUMP JUMPDEST SWAP2 POP PUSH2 0x1F2 DUP4 PUSH2 0xD4 JUMP JUMPDEST SWAP3 POP DUP3 DUP3 SUB SWAP1 POP DUP2 DUP2 GT ISZERO PUSH2 0x20A JUMPI PUSH2 0x209 PUSH2 0x1B0 JUMP JUMPDEST JUMPDEST SWAP3 SWAP2 POP POP JUMP JUMPDEST PUSH0 PUSH2 0x21A DUP3 PUSH2 0xD4 JUMP JUMPDEST SWAP2 POP PUSH2 0x225 DUP4 PUSH2 0xD4 JUMP JUMPDEST SWAP3 POP DUP3 DUP3 MUL PUSH2 0x233 DUP2 PUSH2 0xD4 JUMP JUMPDEST SWAP2 POP DUP3 DUP3 DIV DUP5 EQ DUP4 ISZERO OR PUSH2 0x24A JUMPI PUSH2 0x249 PUSH2 0x1B0 JUMP JUMPDEST JUMPDEST POP SWAP3 SWAP2 POP POP JUMP INVALID LOG2 PUSH5 0x6970667358 0x22 SLT KECCAK256 BLOCKHASH 0xC4 PUSH21 0x940C22210A78794F03C39B03478D8014FA2F7ED221 0xD5 MULMOD 0xC 0xBD 0xFC 0xD4 0xB1 LOG3 PUSH5 0x736F6C6343 STOP ADDMOD BYTE STOP CALLER "
				},
				"gasEstimates": {
					"creation": {
						"codeDepositCost": "129400",
						"executionCost": "175",
						"totalCost": "129575"
					},
					"external": {
						"test(uint256,uint256,uint256)": "infinite",
						"test2()": "332"
					}
				},
				"methodIdentifiers": {
					"test(uint256,uint256,uint256)": "61805cc3",
					"test2()": "66e41cb7"
				}
			},
			"storageLayout": {
				"storage": [],
				"types": null
			},
			"userdoc": {
				"kind": "user",
				"methods": {},
				"version": 1
			}
		}
	}
}