{
	"TESTrOUTER.sol": {
		"Router": {
			"abi": [
				{
					"inputs": [
						{
							"internalType": "bytes[]",
							"name": "calls",
							"type": "bytes[]"
						}
					],
					"name": "batch",
					"outputs": [
						{
							"internalType": "bytes[]",
							"name": "results",
							"type": "bytes[]"
						}
					],
					"stateMutability": "payable",
					"type": "function"
				},
				{
					"inputs": [],
					"name": "num",
					"outputs": [
						{
							"internalType": "uint256",
							"name": "",
							"type": "uint256"
						}
					],
					"stateMutability": "view",
					"type": "function"
				},
				{
					"inputs": [],
					"name": "pool",
					"outputs": [
						{
							"internalType": "contract Pool",
							"name": "",
							"type": "address"
						}
					],
					"stateMutability": "view",
					"type": "function"
				},
				{
					"inputs": [
						{
							"internalType": "address",
							"name": "pool_",
							"type": "address"
						}
					],
					"name": "setPool",
					"outputs": [],
					"stateMutability": "nonpayable",
					"type": "function"
				},
				{
					"inputs": [
						{
							"internalType": "uint256",
							"name": "_num",
							"type": "uint256"
						}
					],
					"name": "setVars",
					"outputs": [],
					"stateMutability": "payable",
					"type": "function"
				},
				{
					"inputs": [
						{
							"internalType": "uint256",
							"name": "_num",
							"type": "uint256"
						}
					],
					"name": "test",
					"outputs": [],
					"stateMutability": "nonpayable",
					"type": "function"
				},
				{
					"inputs": [
						{
							"internalType": "uint256",
							"name": "_num",
							"type": "uint256"
						}
					],
					"name": "test2WBatch",
					"outputs": [],
					"stateMutability": "nonpayable",
					"type": "function"
				}
			],
			"devdoc": {
				"kind": "dev",
				"methods": {
					"batch(bytes[])": {
						"details": "Allows batched call to self (this contract).",
						"params": {
							"calls": "An array of inputs for each call."
						}
					}
				},
				"version": 1
			},
			"evm": {
				"assembly": "    /* \"TESTrOUTER.sol\":68:2134  contract Router {... */\n  mstore(0x40, 0x80)\n  callvalue\n  dup1\n  iszero\n  tag_1\n  jumpi\n  0x00\n  dup1\n  revert\ntag_1:\n  pop\n  dataSize(sub_0)\n  dup1\n  dataOffset(sub_0)\n  0x00\n  codecopy\n  0x00\n  return\nstop\n\nsub_0: assembly {\n        /* \"TESTrOUTER.sol\":68:2134  contract Router {... */\n      mstore(0x40, 0x80)\n      jumpi(tag_1, lt(calldatasize, 0x04))\n      shr(0xe0, calldataload(0x00))\n      dup1\n      0x4437152a\n      gt\n      tag_9\n      jumpi\n      dup1\n      0x4437152a\n      eq\n      tag_5\n      jumpi\n      dup1\n      0x4e70b1dc\n      eq\n      tag_6\n      jumpi\n      dup1\n      0x6466414b\n      eq\n      tag_7\n      jumpi\n      dup1\n      0x6e91f185\n      eq\n      tag_8\n      jumpi\n      jump(tag_1)\n    tag_9:\n      dup1\n      0x16f0115b\n      eq\n      tag_2\n      jumpi\n      dup1\n      0x1e897afb\n      eq\n      tag_3\n      jumpi\n      dup1\n      0x29e99f07\n      eq\n      tag_4\n      jumpi\n    tag_1:\n      0x00\n      dup1\n      revert\n        /* \"TESTrOUTER.sol\":115:131  Pool public pool */\n    tag_2:\n      callvalue\n      dup1\n      iszero\n      tag_10\n      jumpi\n      0x00\n      dup1\n      revert\n    tag_10:\n      pop\n      tag_11\n      tag_12\n      jump\t// in\n    tag_11:\n      mload(0x40)\n      tag_13\n      swap2\n      swap1\n      tag_14\n      jump\t// in\n    tag_13:\n      mload(0x40)\n      dup1\n      swap2\n      sub\n      swap1\n      return\n        /* \"TESTrOUTER.sol\":951:1342  function batch(bytes[] memory calls) public payable returns(bytes[] memory results) {... */\n    tag_3:\n      tag_15\n      0x04\n      dup1\n      calldatasize\n      sub\n      dup2\n      add\n      swap1\n      tag_16\n      swap2\n      swap1\n      tag_17\n      jump\t// in\n    tag_16:\n      tag_18\n      jump\t// in\n    tag_15:\n      mload(0x40)\n      tag_19\n      swap2\n      swap1\n      tag_20\n      jump\t// in\n    tag_19:\n      mload(0x40)\n      dup1\n      swap2\n      sub\n      swap1\n      return\n        /* \"TESTrOUTER.sol\":1352:1624  function test(uint _num) public {... */\n    tag_4:\n      callvalue\n      dup1\n      iszero\n      tag_21\n      jumpi\n      0x00\n      dup1\n      revert\n    tag_21:\n      pop\n      tag_22\n      0x04\n      dup1\n      calldatasize\n      sub\n      dup2\n      add\n      swap1\n      tag_23\n      swap2\n      swap1\n      tag_24\n      jump\t// in\n    tag_23:\n      tag_25\n      jump\t// in\n    tag_22:\n      stop\n        /* \"TESTrOUTER.sol\":2055:2131  function setPool(address pool_) public {... */\n    tag_5:\n      callvalue\n      dup1\n      iszero\n      tag_26\n      jumpi\n      0x00\n      dup1\n      revert\n    tag_26:\n      pop\n      tag_27\n      0x04\n      dup1\n      calldatasize\n      sub\n      dup2\n      add\n      swap1\n      tag_28\n      swap2\n      swap1\n      tag_29\n      jump\t// in\n    tag_28:\n      tag_30\n      jump\t// in\n    tag_27:\n      stop\n        /* \"TESTrOUTER.sol\":93:108  uint public num */\n    tag_6:\n      callvalue\n      dup1\n      iszero\n      tag_31\n      jumpi\n      0x00\n      dup1\n      revert\n    tag_31:\n      pop\n      tag_32\n      tag_33\n      jump\t// in\n    tag_32:\n      mload(0x40)\n      tag_34\n      swap2\n      swap1\n      tag_35\n      jump\t// in\n    tag_34:\n      mload(0x40)\n      dup1\n      swap2\n      sub\n      swap1\n      return\n        /* \"TESTrOUTER.sol\":1965:2047  function setVars(uint _num) external payable {... */\n    tag_7:\n      tag_36\n      0x04\n      dup1\n      calldatasize\n      sub\n      dup2\n      add\n      swap1\n      tag_37\n      swap2\n      swap1\n      tag_24\n      jump\t// in\n    tag_37:\n      tag_38\n      jump\t// in\n    tag_36:\n      stop\n        /* \"TESTrOUTER.sol\":1668:1955  function test2WBatch(uint _num) public {... */\n    tag_8:\n      callvalue\n      dup1\n      iszero\n      tag_39\n      jumpi\n      0x00\n      dup1\n      revert\n    tag_39:\n      pop\n      tag_40\n      0x04\n      dup1\n      calldatasize\n      sub\n      dup2\n      add\n      swap1\n      tag_41\n      swap2\n      swap1\n      tag_24\n      jump\t// in\n    tag_41:\n      tag_42\n      jump\t// in\n    tag_40:\n      stop\n        /* \"TESTrOUTER.sol\":115:131  Pool public pool */\n    tag_12:\n      0x01\n      0x00\n      swap1\n      sload\n      swap1\n      0x0100\n      exp\n      swap1\n      div\n      0xffffffffffffffffffffffffffffffffffffffff\n      and\n      dup2\n      jump\t// out\n        /* \"TESTrOUTER.sol\":951:1342  function batch(bytes[] memory calls) public payable returns(bytes[] memory results) {... */\n    tag_18:\n        /* \"TESTrOUTER.sol\":1011:1033  bytes[] memory results */\n      0x60\n        /* \"TESTrOUTER.sol\":1070:1075  calls */\n      dup2\n        /* \"TESTrOUTER.sol\":1070:1082  calls.length */\n      mload\n        /* \"TESTrOUTER.sol\":1058:1083  new bytes[](calls.length) */\n      0xffffffffffffffff\n      dup2\n      gt\n      iszero\n      tag_44\n      jumpi\n      tag_45\n      tag_46\n      jump\t// in\n    tag_45:\n    tag_44:\n      mload(0x40)\n      swap1\n      dup1\n      dup3\n      mstore\n      dup1\n      0x20\n      mul\n      0x20\n      add\n      dup3\n      add\n      0x40\n      mstore\n      dup1\n      iszero\n      tag_47\n      jumpi\n      dup2\n      0x20\n      add\n    tag_48:\n      0x60\n      dup2\n      mstore\n      0x20\n      add\n      swap1\n      0x01\n      swap1\n      sub\n      swap1\n      dup2\n      tag_48\n      jumpi\n      swap1\n      pop\n    tag_47:\n      pop\n        /* \"TESTrOUTER.sol\":1048:1083  results = new bytes[](calls.length) */\n      swap1\n      pop\n        /* \"TESTrOUTER.sol\":1101:1110  uint256 i */\n      0x00\n        /* \"TESTrOUTER.sol\":1096:1333  for (uint256 i; i < calls.length; i++) {... */\n    tag_49:\n        /* \"TESTrOUTER.sol\":1116:1121  calls */\n      dup3\n        /* \"TESTrOUTER.sol\":1116:1128  calls.length */\n      mload\n        /* \"TESTrOUTER.sol\":1112:1113  i */\n      dup2\n        /* \"TESTrOUTER.sol\":1112:1128  i < calls.length */\n      lt\n        /* \"TESTrOUTER.sol\":1096:1333  for (uint256 i; i < calls.length; i++) {... */\n      iszero\n      tag_50\n      jumpi\n        /* \"TESTrOUTER.sol\":1153:1165  bool success */\n      0x00\n        /* \"TESTrOUTER.sol\":1167:1186  bytes memory result */\n      dup1\n        /* \"TESTrOUTER.sol\":1198:1202  this */\n      address\n        /* \"TESTrOUTER.sol\":1190:1216  address(this).delegatecall */\n      0xffffffffffffffffffffffffffffffffffffffff\n      and\n        /* \"TESTrOUTER.sol\":1217:1222  calls */\n      dup6\n        /* \"TESTrOUTER.sol\":1223:1224  i */\n      dup5\n        /* \"TESTrOUTER.sol\":1217:1225  calls[i] */\n      dup2\n      mload\n      dup2\n      lt\n      tag_52\n      jumpi\n      tag_53\n      tag_54\n      jump\t// in\n    tag_53:\n    tag_52:\n      0x20\n      mul\n      0x20\n      add\n      add\n      mload\n        /* \"TESTrOUTER.sol\":1190:1226  address(this).delegatecall(calls[i]) */\n      mload(0x40)\n      tag_55\n      swap2\n      swap1\n      tag_56\n      jump\t// in\n    tag_55:\n      0x00\n      mload(0x40)\n      dup1\n      dup4\n      sub\n      dup2\n      dup6\n      gas\n      delegatecall\n      swap2\n      pop\n      pop\n      returndatasize\n      dup1\n      0x00\n      dup2\n      eq\n      tag_59\n      jumpi\n      mload(0x40)\n      swap2\n      pop\n      and(add(returndatasize, 0x3f), not(0x1f))\n      dup3\n      add\n      0x40\n      mstore\n      returndatasize\n      dup3\n      mstore\n      returndatasize\n      0x00\n      0x20\n      dup5\n      add\n      returndatacopy\n      jump(tag_58)\n    tag_59:\n      0x60\n      swap2\n      pop\n    tag_58:\n      pop\n        /* \"TESTrOUTER.sol\":1152:1226  (bool success, bytes memory result) = address(this).delegatecall(calls[i]) */\n      swap2\n      pop\n      swap2\n      pop\n        /* \"TESTrOUTER.sol\":1248:1255  success */\n      dup2\n        /* \"TESTrOUTER.sol\":1243:1285  if (!success) revert(getRevertMsg(result)) */\n      tag_60\n      jumpi\n        /* \"TESTrOUTER.sol\":1264:1284  getRevertMsg(result) */\n      tag_61\n        /* \"TESTrOUTER.sol\":1277:1283  result */\n      dup2\n        /* \"TESTrOUTER.sol\":1264:1276  getRevertMsg */\n      tag_62\n        /* \"TESTrOUTER.sol\":1264:1284  getRevertMsg(result) */\n      jump\t// in\n    tag_61:\n        /* \"TESTrOUTER.sol\":1257:1285  revert(getRevertMsg(result)) */\n      mload(0x40)\n      0x08c379a000000000000000000000000000000000000000000000000000000000\n      dup2\n      mstore\n      0x04\n      add\n      tag_63\n      swap2\n      swap1\n      tag_64\n      jump\t// in\n    tag_63:\n      mload(0x40)\n      dup1\n      swap2\n      sub\n      swap1\n      revert\n        /* \"TESTrOUTER.sol\":1243:1285  if (!success) revert(getRevertMsg(result)) */\n    tag_60:\n        /* \"TESTrOUTER.sol\":1315:1321  result */\n      dup1\n        /* \"TESTrOUTER.sol\":1302:1309  results */\n      dup5\n        /* \"TESTrOUTER.sol\":1310:1311  i */\n      dup5\n        /* \"TESTrOUTER.sol\":1302:1312  results[i] */\n      dup2\n      mload\n      dup2\n      lt\n      tag_65\n      jumpi\n      tag_66\n      tag_54\n      jump\t// in\n    tag_66:\n    tag_65:\n      0x20\n      mul\n      0x20\n      add\n      add\n        /* \"TESTrOUTER.sol\":1302:1321  results[i] = result */\n      dup2\n      swap1\n      mstore\n      pop\n        /* \"TESTrOUTER.sol\":1135:1333  {... */\n      pop\n      pop\n        /* \"TESTrOUTER.sol\":1130:1133  i++ */\n      dup1\n      dup1\n      0x01\n      add\n      swap2\n      pop\n      pop\n        /* \"TESTrOUTER.sol\":1096:1333  for (uint256 i; i < calls.length; i++) {... */\n      jump(tag_49)\n    tag_50:\n      pop\n        /* \"TESTrOUTER.sol\":951:1342  function batch(bytes[] memory calls) public payable returns(bytes[] memory results) {... */\n      swap2\n      swap1\n      pop\n      jump\t// out\n        /* \"TESTrOUTER.sol\":1352:1624  function test(uint _num) public {... */\n    tag_25:\n        /* \"TESTrOUTER.sol\":1397:1417  bytes memory payload */\n      0x00\n        /* \"TESTrOUTER.sol\":1464:1468  _num */\n      dup2\n        /* \"TESTrOUTER.sol\":1420:1469  abi.encodeWithSignature(\"setVars(uint256)\", _num) */\n      add(0x24, mload(0x40))\n      tag_68\n      swap2\n      swap1\n      tag_35\n      jump\t// in\n    tag_68:\n      mload(0x40)\n      0x20\n      dup2\n      dup4\n      sub\n      sub\n      dup2\n      mstore\n      swap1\n      0x40\n      mstore\n      and(not(0xffffffffffffffffffffffffffffffffffffffffffffffffffffffff), 0x6466414b00000000000000000000000000000000000000000000000000000000)\n      0x20\n      dup3\n      add\n      dup1\n      mload\n      0xffffffffffffffffffffffffffffffffffffffffffffffffffffffff\n      dup4\n      dup2\n      dup4\n      and\n      or\n      dup4\n      mstore\n      pop\n      pop\n      pop\n      pop\n        /* \"TESTrOUTER.sol\":1397:1469  bytes memory payload = abi.encodeWithSignature(\"setVars(uint256)\", _num) */\n      swap1\n      pop\n        /* \"TESTrOUTER.sol\":1491:1503  bool success */\n      0x00\n        /* \"TESTrOUTER.sol\":1505:1524  bytes memory result */\n      dup1\n        /* \"TESTrOUTER.sol\":1536:1540  this */\n      address\n        /* \"TESTrOUTER.sol\":1528:1554  address(this).delegatecall */\n      0xffffffffffffffffffffffffffffffffffffffff\n      and\n        /* \"TESTrOUTER.sol\":1555:1562  payload */\n      dup4\n        /* \"TESTrOUTER.sol\":1528:1563  address(this).delegatecall(payload) */\n      mload(0x40)\n      tag_69\n      swap2\n      swap1\n      tag_56\n      jump\t// in\n    tag_69:\n      0x00\n      mload(0x40)\n      dup1\n      dup4\n      sub\n      dup2\n      dup6\n      gas\n      delegatecall\n      swap2\n      pop\n      pop\n      returndatasize\n      dup1\n      0x00\n      dup2\n      eq\n      tag_72\n      jumpi\n      mload(0x40)\n      swap2\n      pop\n      and(add(returndatasize, 0x3f), not(0x1f))\n      dup3\n      add\n      0x40\n      mstore\n      returndatasize\n      dup3\n      mstore\n      returndatasize\n      0x00\n      0x20\n      dup5\n      add\n      returndatacopy\n      jump(tag_71)\n    tag_72:\n      0x60\n      swap2\n      pop\n    tag_71:\n      pop\n        /* \"TESTrOUTER.sol\":1490:1563  (bool success, bytes memory result) = address(this).delegatecall(payload) */\n      swap2\n      pop\n      swap2\n      pop\n        /* \"TESTrOUTER.sol\":1579:1586  success */\n      dup2\n        /* \"TESTrOUTER.sol\":1574:1616  if (!success) revert(getRevertMsg(result)) */\n      tag_73\n      jumpi\n        /* \"TESTrOUTER.sol\":1595:1615  getRevertMsg(result) */\n      tag_74\n        /* \"TESTrOUTER.sol\":1608:1614  result */\n      dup2\n        /* \"TESTrOUTER.sol\":1595:1607  getRevertMsg */\n      tag_62\n        /* \"TESTrOUTER.sol\":1595:1615  getRevertMsg(result) */\n      jump\t// in\n    tag_74:\n        /* \"TESTrOUTER.sol\":1588:1616  revert(getRevertMsg(result)) */\n      mload(0x40)\n      0x08c379a000000000000000000000000000000000000000000000000000000000\n      dup2\n      mstore\n      0x04\n      add\n      tag_75\n      swap2\n      swap1\n      tag_64\n      jump\t// in\n    tag_75:\n      mload(0x40)\n      dup1\n      swap2\n      sub\n      swap1\n      revert\n        /* \"TESTrOUTER.sol\":1574:1616  if (!success) revert(getRevertMsg(result)) */\n    tag_73:\n        /* \"TESTrOUTER.sol\":1384:1624  {... */\n      pop\n      pop\n      pop\n        /* \"TESTrOUTER.sol\":1352:1624  function test(uint _num) public {... */\n      pop\n      jump\t// out\n        /* \"TESTrOUTER.sol\":2055:2131  function setPool(address pool_) public {... */\n    tag_30:\n        /* \"TESTrOUTER.sol\":2117:2122  pool_ */\n      dup1\n        /* \"TESTrOUTER.sol\":2105:2109  pool */\n      0x01\n      0x00\n        /* \"TESTrOUTER.sol\":2105:2123  pool = Pool(pool_) */\n      0x0100\n      exp\n      dup2\n      sload\n      dup2\n      0xffffffffffffffffffffffffffffffffffffffff\n      mul\n      not\n      and\n      swap1\n      dup4\n      0xffffffffffffffffffffffffffffffffffffffff\n      and\n      mul\n      or\n      swap1\n      sstore\n      pop\n        /* \"TESTrOUTER.sol\":2055:2131  function setPool(address pool_) public {... */\n      pop\n      jump\t// out\n        /* \"TESTrOUTER.sol\":93:108  uint public num */\n    tag_33:\n      sload(0x00)\n      dup2\n      jump\t// out\n        /* \"TESTrOUTER.sol\":1965:2047  function setVars(uint _num) external payable {... */\n    tag_38:\n        /* \"TESTrOUTER.sol\":2021:2025  pool */\n      0x01\n      0x00\n      swap1\n      sload\n      swap1\n      0x0100\n      exp\n      swap1\n      div\n      0xffffffffffffffffffffffffffffffffffffffff\n      and\n        /* \"TESTrOUTER.sol\":2021:2033  pool.setVars */\n      0xffffffffffffffffffffffffffffffffffffffff\n      and\n      0x6466414b\n        /* \"TESTrOUTER.sol\":2034:2038  _num */\n      dup3\n        /* \"TESTrOUTER.sol\":2021:2039  pool.setVars(_num) */\n      mload(0x40)\n      dup3\n      0xffffffff\n      and\n      0xe0\n      shl\n      dup2\n      mstore\n      0x04\n      add\n      tag_78\n      swap2\n      swap1\n      tag_35\n      jump\t// in\n    tag_78:\n      0x00\n      mload(0x40)\n      dup1\n      dup4\n      sub\n      dup2\n      0x00\n      dup8\n      dup1\n      extcodesize\n      iszero\n      dup1\n      iszero\n      tag_79\n      jumpi\n      0x00\n      dup1\n      revert\n    tag_79:\n      pop\n      gas\n      call\n      iszero\n      dup1\n      iszero\n      tag_81\n      jumpi\n      returndatasize\n      0x00\n      dup1\n      returndatacopy\n      revert(0x00, returndatasize)\n    tag_81:\n      pop\n      pop\n      pop\n      pop\n        /* \"TESTrOUTER.sol\":1965:2047  function setVars(uint _num) external payable {... */\n      pop\n      jump\t// out\n        /* \"TESTrOUTER.sol\":1668:1955  function test2WBatch(uint _num) public {... */\n    tag_42:\n        /* \"TESTrOUTER.sol\":1720:1740  bytes memory payload */\n      0x00\n        /* \"TESTrOUTER.sol\":1787:1791  _num */\n      dup2\n        /* \"TESTrOUTER.sol\":1743:1792  abi.encodeWithSignature(\"setVars(uint256)\", _num) */\n      add(0x24, mload(0x40))\n      tag_83\n      swap2\n      swap1\n      tag_35\n      jump\t// in\n    tag_83:\n      mload(0x40)\n      0x20\n      dup2\n      dup4\n      sub\n      sub\n      dup2\n      mstore\n      swap1\n      0x40\n      mstore\n      and(not(0xffffffffffffffffffffffffffffffffffffffffffffffffffffffff), 0x6466414b00000000000000000000000000000000000000000000000000000000)\n      0x20\n      dup3\n      add\n      dup1\n      mload\n      0xffffffffffffffffffffffffffffffffffffffffffffffffffffffff\n      dup4\n      dup2\n      dup4\n      and\n      or\n      dup4\n      mstore\n      pop\n      pop\n      pop\n      pop\n        /* \"TESTrOUTER.sol\":1720:1792  bytes memory payload = abi.encodeWithSignature(\"setVars(uint256)\", _num) */\n      swap1\n      pop\n        /* \"TESTrOUTER.sol\":1813:1836  bytes[] memory allCalls */\n      0x00\n        /* \"TESTrOUTER.sol\":1851:1852  2 */\n      0x02\n        /* \"TESTrOUTER.sol\":1839:1853  new bytes[](2) */\n      0xffffffffffffffff\n      dup2\n      gt\n      iszero\n      tag_84\n      jumpi\n      tag_85\n      tag_46\n      jump\t// in\n    tag_85:\n    tag_84:\n      mload(0x40)\n      swap1\n      dup1\n      dup3\n      mstore\n      dup1\n      0x20\n      mul\n      0x20\n      add\n      dup3\n      add\n      0x40\n      mstore\n      dup1\n      iszero\n      tag_86\n      jumpi\n      dup2\n      0x20\n      add\n    tag_87:\n      0x60\n      dup2\n      mstore\n      0x20\n      add\n      swap1\n      0x01\n      swap1\n      sub\n      swap1\n      dup2\n      tag_87\n      jumpi\n      swap1\n      pop\n    tag_86:\n      pop\n        /* \"TESTrOUTER.sol\":1813:1853  bytes[] memory allCalls = new bytes[](2) */\n      swap1\n      pop\n        /* \"TESTrOUTER.sol\":1880:1887  payload */\n      dup2\n        /* \"TESTrOUTER.sol\":1866:1874  allCalls */\n      dup2\n        /* \"TESTrOUTER.sol\":1875:1876  0 */\n      0x00\n        /* \"TESTrOUTER.sol\":1866:1877  allCalls[0] */\n      dup2\n      mload\n      dup2\n      lt\n      tag_88\n      jumpi\n      tag_89\n      tag_54\n      jump\t// in\n    tag_89:\n    tag_88:\n      0x20\n      mul\n      0x20\n      add\n      add\n        /* \"TESTrOUTER.sol\":1866:1887  allCalls[0] = payload */\n      dup2\n      swap1\n      mstore\n      pop\n        /* \"TESTrOUTER.sol\":1912:1919  payload */\n      dup2\n        /* \"TESTrOUTER.sol\":1898:1906  allCalls */\n      dup2\n        /* \"TESTrOUTER.sol\":1907:1908  1 */\n      0x01\n        /* \"TESTrOUTER.sol\":1898:1909  allCalls[1] */\n      dup2\n      mload\n      dup2\n      lt\n      tag_90\n      jumpi\n      tag_91\n      tag_54\n      jump\t// in\n    tag_91:\n    tag_90:\n      0x20\n      mul\n      0x20\n      add\n      add\n        /* \"TESTrOUTER.sol\":1898:1919  allCalls[1] = payload */\n      dup2\n      swap1\n      mstore\n      pop\n        /* \"TESTrOUTER.sol\":1932:1947  batch(allCalls) */\n      tag_92\n        /* \"TESTrOUTER.sol\":1938:1946  allCalls */\n      dup2\n        /* \"TESTrOUTER.sol\":1932:1937  batch */\n      tag_18\n        /* \"TESTrOUTER.sol\":1932:1947  batch(allCalls) */\n      jump\t// in\n    tag_92:\n      pop\n        /* \"TESTrOUTER.sol\":1707:1955  {... */\n      pop\n      pop\n        /* \"TESTrOUTER.sol\":1668:1955  function test2WBatch(uint _num) public {... */\n      pop\n      jump\t// out\n        /* \"TESTrOUTER.sol\":331:828  function getRevertMsg(bytes memory returnData) internal pure returns (string memory)... */\n    tag_62:\n        /* \"TESTrOUTER.sol\":401:414  string memory */\n      0x60\n        /* \"TESTrOUTER.sol\":568:570  68 */\n      0x44\n        /* \"TESTrOUTER.sol\":548:558  returnData */\n      dup3\n        /* \"TESTrOUTER.sol\":548:565  returnData.length */\n      mload\n        /* \"TESTrOUTER.sol\":548:570  returnData.length < 68 */\n      lt\n        /* \"TESTrOUTER.sol\":544:610  if (returnData.length < 68) return \"Transaction reverted silently\" */\n      iszero\n      tag_94\n      jumpi\n        /* \"TESTrOUTER.sol\":572:610  return \"Transaction reverted silently\" */\n      mload(0x40)\n      dup1\n      0x40\n      add\n      0x40\n      mstore\n      dup1\n      0x1d\n      dup2\n      mstore\n      0x20\n      add\n      0x5472616e73616374696f6e2072657665727465642073696c656e746c79000000\n      dup2\n      mstore\n      pop\n      swap1\n      pop\n      jump(tag_93)\n        /* \"TESTrOUTER.sol\":544:610  if (returnData.length < 68) return \"Transaction reverted silently\" */\n    tag_94:\n        /* \"TESTrOUTER.sol\":712:716  0x04 */\n      0x04\n        /* \"TESTrOUTER.sol\":700:710  returnData */\n      dup3\n        /* \"TESTrOUTER.sol\":696:717  add(returnData, 0x04) */\n      add\n        /* \"TESTrOUTER.sol\":682:717  returnData := add(returnData, 0x04) */\n      swap2\n      pop\n        /* \"TESTrOUTER.sol\":758:768  returnData */\n      dup2\n        /* \"TESTrOUTER.sol\":747:779  abi.decode(returnData, (string)) */\n      dup1\n      0x20\n      add\n      swap1\n      mload\n      dup2\n      add\n      swap1\n      tag_95\n      swap2\n      swap1\n      tag_96\n      jump\t// in\n    tag_95:\n        /* \"TESTrOUTER.sol\":740:779  return abi.decode(returnData, (string)) */\n      swap1\n      pop\n        /* \"TESTrOUTER.sol\":331:828  function getRevertMsg(bytes memory returnData) internal pure returns (string memory)... */\n    tag_93:\n      swap2\n      swap1\n      pop\n      jump\t// out\n        /* \"#utility.yul\":7:133   */\n    tag_97:\n        /* \"#utility.yul\":44:51   */\n      0x00\n        /* \"#utility.yul\":84:126   */\n      0xffffffffffffffffffffffffffffffffffffffff\n        /* \"#utility.yul\":77:82   */\n      dup3\n        /* \"#utility.yul\":73:127   */\n      and\n        /* \"#utility.yul\":62:127   */\n      swap1\n      pop\n        /* \"#utility.yul\":7:133   */\n      swap2\n      swap1\n      pop\n      jump\t// out\n        /* \"#utility.yul\":139:199   */\n    tag_98:\n        /* \"#utility.yul\":167:170   */\n      0x00\n        /* \"#utility.yul\":188:193   */\n      dup2\n        /* \"#utility.yul\":181:193   */\n      swap1\n      pop\n        /* \"#utility.yul\":139:199   */\n      swap2\n      swap1\n      pop\n      jump\t// out\n        /* \"#utility.yul\":205:347   */\n    tag_99:\n        /* \"#utility.yul\":255:264   */\n      0x00\n        /* \"#utility.yul\":288:341   */\n      tag_148\n        /* \"#utility.yul\":306:340   */\n      tag_149\n        /* \"#utility.yul\":315:339   */\n      tag_150\n        /* \"#utility.yul\":333:338   */\n      dup5\n        /* \"#utility.yul\":315:339   */\n      tag_97\n      jump\t// in\n    tag_150:\n        /* \"#utility.yul\":306:340   */\n      tag_98\n      jump\t// in\n    tag_149:\n        /* \"#utility.yul\":288:341   */\n      tag_97\n      jump\t// in\n    tag_148:\n        /* \"#utility.yul\":275:341   */\n      swap1\n      pop\n        /* \"#utility.yul\":205:347   */\n      swap2\n      swap1\n      pop\n      jump\t// out\n        /* \"#utility.yul\":353:479   */\n    tag_100:\n        /* \"#utility.yul\":403:412   */\n      0x00\n        /* \"#utility.yul\":436:473   */\n      tag_152\n        /* \"#utility.yul\":467:472   */\n      dup3\n        /* \"#utility.yul\":436:473   */\n      tag_99\n      jump\t// in\n    tag_152:\n        /* \"#utility.yul\":423:473   */\n      swap1\n      pop\n        /* \"#utility.yul\":353:479   */\n      swap2\n      swap1\n      pop\n      jump\t// out\n        /* \"#utility.yul\":485:623   */\n    tag_101:\n        /* \"#utility.yul\":547:556   */\n      0x00\n        /* \"#utility.yul\":580:617   */\n      tag_154\n        /* \"#utility.yul\":611:616   */\n      dup3\n        /* \"#utility.yul\":580:617   */\n      tag_100\n      jump\t// in\n    tag_154:\n        /* \"#utility.yul\":567:617   */\n      swap1\n      pop\n        /* \"#utility.yul\":485:623   */\n      swap2\n      swap1\n      pop\n      jump\t// out\n        /* \"#utility.yul\":629:784   */\n    tag_102:\n        /* \"#utility.yul\":728:777   */\n      tag_156\n        /* \"#utility.yul\":771:776   */\n      dup2\n        /* \"#utility.yul\":728:777   */\n      tag_101\n      jump\t// in\n    tag_156:\n        /* \"#utility.yul\":723:726   */\n      dup3\n        /* \"#utility.yul\":716:778   */\n      mstore\n        /* \"#utility.yul\":629:784   */\n      pop\n      pop\n      jump\t// out\n        /* \"#utility.yul\":790:1036   */\n    tag_14:\n        /* \"#utility.yul\":895:899   */\n      0x00\n        /* \"#utility.yul\":933:935   */\n      0x20\n        /* \"#utility.yul\":922:931   */\n      dup3\n        /* \"#utility.yul\":918:936   */\n      add\n        /* \"#utility.yul\":910:936   */\n      swap1\n      pop\n        /* \"#utility.yul\":946:1029   */\n      tag_158\n        /* \"#utility.yul\":1026:1027   */\n      0x00\n        /* \"#utility.yul\":1015:1024   */\n      dup4\n        /* \"#utility.yul\":1011:1028   */\n      add\n        /* \"#utility.yul\":1002:1008   */\n      dup5\n        /* \"#utility.yul\":946:1029   */\n      tag_102\n      jump\t// in\n    tag_158:\n        /* \"#utility.yul\":790:1036   */\n      swap3\n      swap2\n      pop\n      pop\n      jump\t// out\n        /* \"#utility.yul\":1042:1117   */\n    tag_103:\n        /* \"#utility.yul\":1075:1081   */\n      0x00\n        /* \"#utility.yul\":1108:1110   */\n      0x40\n        /* \"#utility.yul\":1102:1111   */\n      mload\n        /* \"#utility.yul\":1092:1111   */\n      swap1\n      pop\n        /* \"#utility.yul\":1042:1117   */\n      swap1\n      jump\t// out\n        /* \"#utility.yul\":1123:1240   */\n    tag_104:\n        /* \"#utility.yul\":1232:1233   */\n      0x00\n        /* \"#utility.yul\":1229:1230   */\n      dup1\n        /* \"#utility.yul\":1222:1234   */\n      revert\n        /* \"#utility.yul\":1246:1363   */\n    tag_105:\n        /* \"#utility.yul\":1355:1356   */\n      0x00\n        /* \"#utility.yul\":1352:1353   */\n      dup1\n        /* \"#utility.yul\":1345:1357   */\n      revert\n        /* \"#utility.yul\":1369:1486   */\n    tag_106:\n        /* \"#utility.yul\":1478:1479   */\n      0x00\n        /* \"#utility.yul\":1475:1476   */\n      dup1\n        /* \"#utility.yul\":1468:1480   */\n      revert\n        /* \"#utility.yul\":1492:1594   */\n    tag_107:\n        /* \"#utility.yul\":1533:1539   */\n      0x00\n        /* \"#utility.yul\":1584:1586   */\n      0x1f\n        /* \"#utility.yul\":1580:1587   */\n      not\n        /* \"#utility.yul\":1575:1577   */\n      0x1f\n        /* \"#utility.yul\":1568:1573   */\n      dup4\n        /* \"#utility.yul\":1564:1578   */\n      add\n        /* \"#utility.yul\":1560:1588   */\n      and\n        /* \"#utility.yul\":1550:1588   */\n      swap1\n      pop\n        /* \"#utility.yul\":1492:1594   */\n      swap2\n      swap1\n      pop\n      jump\t// out\n        /* \"#utility.yul\":1600:1780   */\n    tag_46:\n        /* \"#utility.yul\":1648:1725   */\n      0x4e487b7100000000000000000000000000000000000000000000000000000000\n        /* \"#utility.yul\":1645:1646   */\n      0x00\n        /* \"#utility.yul\":1638:1726   */\n      mstore\n        /* \"#utility.yul\":1745:1749   */\n      0x41\n        /* \"#utility.yul\":1742:1743   */\n      0x04\n        /* \"#utility.yul\":1735:1750   */\n      mstore\n        /* \"#utility.yul\":1769:1773   */\n      0x24\n        /* \"#utility.yul\":1766:1767   */\n      0x00\n        /* \"#utility.yul\":1759:1774   */\n      revert\n        /* \"#utility.yul\":1786:2067   */\n    tag_108:\n        /* \"#utility.yul\":1869:1896   */\n      tag_166\n        /* \"#utility.yul\":1891:1895   */\n      dup3\n        /* \"#utility.yul\":1869:1896   */\n      tag_107\n      jump\t// in\n    tag_166:\n        /* \"#utility.yul\":1861:1867   */\n      dup2\n        /* \"#utility.yul\":1857:1897   */\n      add\n        /* \"#utility.yul\":1999:2005   */\n      dup2\n        /* \"#utility.yul\":1987:1997   */\n      dup2\n        /* \"#utility.yul\":1984:2006   */\n      lt\n        /* \"#utility.yul\":1963:1981   */\n      0xffffffffffffffff\n        /* \"#utility.yul\":1951:1961   */\n      dup3\n        /* \"#utility.yul\":1948:1982   */\n      gt\n        /* \"#utility.yul\":1945:2007   */\n      or\n        /* \"#utility.yul\":1942:2030   */\n      iszero\n      tag_167\n      jumpi\n        /* \"#utility.yul\":2010:2028   */\n      tag_168\n      tag_46\n      jump\t// in\n    tag_168:\n        /* \"#utility.yul\":1942:2030   */\n    tag_167:\n        /* \"#utility.yul\":2050:2060   */\n      dup1\n        /* \"#utility.yul\":2046:2048   */\n      0x40\n        /* \"#utility.yul\":2039:2061   */\n      mstore\n        /* \"#utility.yul\":1829:2067   */\n      pop\n        /* \"#utility.yul\":1786:2067   */\n      pop\n      pop\n      jump\t// out\n        /* \"#utility.yul\":2073:2202   */\n    tag_109:\n        /* \"#utility.yul\":2107:2113   */\n      0x00\n        /* \"#utility.yul\":2134:2154   */\n      tag_170\n      tag_103\n      jump\t// in\n    tag_170:\n        /* \"#utility.yul\":2124:2154   */\n      swap1\n      pop\n        /* \"#utility.yul\":2163:2196   */\n      tag_171\n        /* \"#utility.yul\":2191:2195   */\n      dup3\n        /* \"#utility.yul\":2183:2189   */\n      dup3\n        /* \"#utility.yul\":2163:2196   */\n      tag_108\n      jump\t// in\n    tag_171:\n        /* \"#utility.yul\":2073:2202   */\n      swap2\n      swap1\n      pop\n      jump\t// out\n        /* \"#utility.yul\":2208:2528   */\n    tag_110:\n        /* \"#utility.yul\":2294:2298   */\n      0x00\n        /* \"#utility.yul\":2384:2402   */\n      0xffffffffffffffff\n        /* \"#utility.yul\":2376:2382   */\n      dup3\n        /* \"#utility.yul\":2373:2403   */\n      gt\n        /* \"#utility.yul\":2370:2426   */\n      iszero\n      tag_173\n      jumpi\n        /* \"#utility.yul\":2406:2424   */\n      tag_174\n      tag_46\n      jump\t// in\n    tag_174:\n        /* \"#utility.yul\":2370:2426   */\n    tag_173:\n        /* \"#utility.yul\":2456:2460   */\n      0x20\n        /* \"#utility.yul\":2448:2454   */\n      dup3\n        /* \"#utility.yul\":2444:2461   */\n      mul\n        /* \"#utility.yul\":2436:2461   */\n      swap1\n      pop\n        /* \"#utility.yul\":2516:2520   */\n      0x20\n        /* \"#utility.yul\":2510:2514   */\n      dup2\n        /* \"#utility.yul\":2506:2521   */\n      add\n        /* \"#utility.yul\":2498:2521   */\n      swap1\n      pop\n        /* \"#utility.yul\":2208:2528   */\n      swap2\n      swap1\n      pop\n      jump\t// out\n        /* \"#utility.yul\":2534:2651   */\n    tag_111:\n        /* \"#utility.yul\":2643:2644   */\n      0x00\n        /* \"#utility.yul\":2640:2641   */\n      dup1\n        /* \"#utility.yul\":2633:2645   */\n      revert\n        /* \"#utility.yul\":2657:2774   */\n    tag_112:\n        /* \"#utility.yul\":2766:2767   */\n      0x00\n        /* \"#utility.yul\":2763:2764   */\n      dup1\n        /* \"#utility.yul\":2756:2768   */\n      revert\n        /* \"#utility.yul\":2780:3087   */\n    tag_113:\n        /* \"#utility.yul\":2841:2845   */\n      0x00\n        /* \"#utility.yul\":2931:2949   */\n      0xffffffffffffffff\n        /* \"#utility.yul\":2923:2929   */\n      dup3\n        /* \"#utility.yul\":2920:2950   */\n      gt\n        /* \"#utility.yul\":2917:2973   */\n      iszero\n      tag_178\n      jumpi\n        /* \"#utility.yul\":2953:2971   */\n      tag_179\n      tag_46\n      jump\t// in\n    tag_179:\n        /* \"#utility.yul\":2917:2973   */\n    tag_178:\n        /* \"#utility.yul\":2991:3020   */\n      tag_180\n        /* \"#utility.yul\":3013:3019   */\n      dup3\n        /* \"#utility.yul\":2991:3020   */\n      tag_107\n      jump\t// in\n    tag_180:\n        /* \"#utility.yul\":2983:3020   */\n      swap1\n      pop\n        /* \"#utility.yul\":3075:3079   */\n      0x20\n        /* \"#utility.yul\":3069:3073   */\n      dup2\n        /* \"#utility.yul\":3065:3080   */\n      add\n        /* \"#utility.yul\":3057:3080   */\n      swap1\n      pop\n        /* \"#utility.yul\":2780:3087   */\n      swap2\n      swap1\n      pop\n      jump\t// out\n        /* \"#utility.yul\":3093:3239   */\n    tag_114:\n        /* \"#utility.yul\":3190:3196   */\n      dup3\n        /* \"#utility.yul\":3185:3188   */\n      dup2\n        /* \"#utility.yul\":3180:3183   */\n      dup4\n        /* \"#utility.yul\":3167:3197   */\n      calldatacopy\n        /* \"#utility.yul\":3231:3232   */\n      0x00\n        /* \"#utility.yul\":3222:3228   */\n      dup4\n        /* \"#utility.yul\":3217:3220   */\n      dup4\n        /* \"#utility.yul\":3213:3229   */\n      add\n        /* \"#utility.yul\":3206:3233   */\n      mstore\n        /* \"#utility.yul\":3093:3239   */\n      pop\n      pop\n      pop\n      jump\t// out\n        /* \"#utility.yul\":3245:3668   */\n    tag_115:\n        /* \"#utility.yul\":3322:3327   */\n      0x00\n        /* \"#utility.yul\":3347:3412   */\n      tag_183\n        /* \"#utility.yul\":3363:3411   */\n      tag_184\n        /* \"#utility.yul\":3404:3410   */\n      dup5\n        /* \"#utility.yul\":3363:3411   */\n      tag_113\n      jump\t// in\n    tag_184:\n        /* \"#utility.yul\":3347:3412   */\n      tag_109\n      jump\t// in\n    tag_183:\n        /* \"#utility.yul\":3338:3412   */\n      swap1\n      pop\n        /* \"#utility.yul\":3435:3441   */\n      dup3\n        /* \"#utility.yul\":3428:3433   */\n      dup2\n        /* \"#utility.yul\":3421:3442   */\n      mstore\n        /* \"#utility.yul\":3473:3477   */\n      0x20\n        /* \"#utility.yul\":3466:3471   */\n      dup2\n        /* \"#utility.yul\":3462:3478   */\n      add\n        /* \"#utility.yul\":3511:3514   */\n      dup5\n        /* \"#utility.yul\":3502:3508   */\n      dup5\n        /* \"#utility.yul\":3497:3500   */\n      dup5\n        /* \"#utility.yul\":3493:3509   */\n      add\n        /* \"#utility.yul\":3490:3515   */\n      gt\n        /* \"#utility.yul\":3487:3599   */\n      iszero\n      tag_185\n      jumpi\n        /* \"#utility.yul\":3518:3597   */\n      tag_186\n      tag_112\n      jump\t// in\n    tag_186:\n        /* \"#utility.yul\":3487:3599   */\n    tag_185:\n        /* \"#utility.yul\":3608:3662   */\n      tag_187\n        /* \"#utility.yul\":3655:3661   */\n      dup5\n        /* \"#utility.yul\":3650:3653   */\n      dup3\n        /* \"#utility.yul\":3645:3648   */\n      dup6\n        /* \"#utility.yul\":3608:3662   */\n      tag_114\n      jump\t// in\n    tag_187:\n        /* \"#utility.yul\":3328:3668   */\n      pop\n        /* \"#utility.yul\":3245:3668   */\n      swap4\n      swap3\n      pop\n      pop\n      pop\n      jump\t// out\n        /* \"#utility.yul\":3687:4025   */\n    tag_116:\n        /* \"#utility.yul\":3742:3747   */\n      0x00\n        /* \"#utility.yul\":3791:3794   */\n      dup3\n        /* \"#utility.yul\":3784:3788   */\n      0x1f\n        /* \"#utility.yul\":3776:3782   */\n      dup4\n        /* \"#utility.yul\":3772:3789   */\n      add\n        /* \"#utility.yul\":3768:3795   */\n      slt\n        /* \"#utility.yul\":3758:3880   */\n      tag_189\n      jumpi\n        /* \"#utility.yul\":3799:3878   */\n      tag_190\n      tag_106\n      jump\t// in\n    tag_190:\n        /* \"#utility.yul\":3758:3880   */\n    tag_189:\n        /* \"#utility.yul\":3916:3922   */\n      dup2\n        /* \"#utility.yul\":3903:3923   */\n      calldataload\n        /* \"#utility.yul\":3941:4019   */\n      tag_191\n        /* \"#utility.yul\":4015:4018   */\n      dup5\n        /* \"#utility.yul\":4007:4013   */\n      dup3\n        /* \"#utility.yul\":4000:4004   */\n      0x20\n        /* \"#utility.yul\":3992:3998   */\n      dup7\n        /* \"#utility.yul\":3988:4005   */\n      add\n        /* \"#utility.yul\":3941:4019   */\n      tag_115\n      jump\t// in\n    tag_191:\n        /* \"#utility.yul\":3932:4019   */\n      swap2\n      pop\n        /* \"#utility.yul\":3748:4025   */\n      pop\n        /* \"#utility.yul\":3687:4025   */\n      swap3\n      swap2\n      pop\n      pop\n      jump\t// out\n        /* \"#utility.yul\":4046:4988   */\n    tag_117:\n        /* \"#utility.yul\":4151:4156   */\n      0x00\n        /* \"#utility.yul\":4176:4266   */\n      tag_193\n        /* \"#utility.yul\":4192:4265   */\n      tag_194\n        /* \"#utility.yul\":4258:4264   */\n      dup5\n        /* \"#utility.yul\":4192:4265   */\n      tag_110\n      jump\t// in\n    tag_194:\n        /* \"#utility.yul\":4176:4266   */\n      tag_109\n      jump\t// in\n    tag_193:\n        /* \"#utility.yul\":4167:4266   */\n      swap1\n      pop\n        /* \"#utility.yul\":4286:4291   */\n      dup1\n        /* \"#utility.yul\":4315:4321   */\n      dup4\n        /* \"#utility.yul\":4308:4313   */\n      dup3\n        /* \"#utility.yul\":4301:4322   */\n      mstore\n        /* \"#utility.yul\":4349:4353   */\n      0x20\n        /* \"#utility.yul\":4342:4347   */\n      dup3\n        /* \"#utility.yul\":4338:4354   */\n      add\n        /* \"#utility.yul\":4331:4354   */\n      swap1\n      pop\n        /* \"#utility.yul\":4402:4406   */\n      0x20\n        /* \"#utility.yul\":4394:4400   */\n      dup5\n        /* \"#utility.yul\":4390:4407   */\n      mul\n        /* \"#utility.yul\":4382:4388   */\n      dup4\n        /* \"#utility.yul\":4378:4408   */\n      add\n        /* \"#utility.yul\":4431:4434   */\n      dup6\n        /* \"#utility.yul\":4423:4429   */\n      dup2\n        /* \"#utility.yul\":4420:4435   */\n      gt\n        /* \"#utility.yul\":4417:4539   */\n      iszero\n      tag_195\n      jumpi\n        /* \"#utility.yul\":4450:4529   */\n      tag_196\n      tag_111\n      jump\t// in\n    tag_196:\n        /* \"#utility.yul\":4417:4539   */\n    tag_195:\n        /* \"#utility.yul\":4565:4571   */\n      dup4\n        /* \"#utility.yul\":4548:4982   */\n    tag_197:\n        /* \"#utility.yul\":4582:4588   */\n      dup2\n        /* \"#utility.yul\":4577:4580   */\n      dup2\n        /* \"#utility.yul\":4574:4589   */\n      lt\n        /* \"#utility.yul\":4548:4982   */\n      iszero\n      tag_199\n      jumpi\n        /* \"#utility.yul\":4671:4674   */\n      dup1\n        /* \"#utility.yul\":4658:4675   */\n      calldataload\n        /* \"#utility.yul\":4707:4725   */\n      0xffffffffffffffff\n        /* \"#utility.yul\":4694:4705   */\n      dup2\n        /* \"#utility.yul\":4691:4726   */\n      gt\n        /* \"#utility.yul\":4688:4810   */\n      iszero\n      tag_200\n      jumpi\n        /* \"#utility.yul\":4729:4808   */\n      tag_201\n      tag_106\n      jump\t// in\n    tag_201:\n        /* \"#utility.yul\":4688:4810   */\n    tag_200:\n        /* \"#utility.yul\":4853:4864   */\n      dup1\n        /* \"#utility.yul\":4845:4851   */\n      dup7\n        /* \"#utility.yul\":4841:4865   */\n      add\n        /* \"#utility.yul\":4891:4937   */\n      tag_202\n        /* \"#utility.yul\":4933:4936   */\n      dup10\n        /* \"#utility.yul\":4921:4931   */\n      dup3\n        /* \"#utility.yul\":4891:4937   */\n      tag_116\n      jump\t// in\n    tag_202:\n        /* \"#utility.yul\":4886:4889   */\n      dup6\n        /* \"#utility.yul\":4879:4938   */\n      mstore\n        /* \"#utility.yul\":4967:4971   */\n      0x20\n        /* \"#utility.yul\":4962:4965   */\n      dup6\n        /* \"#utility.yul\":4958:4972   */\n      add\n        /* \"#utility.yul\":4951:4972   */\n      swap5\n      pop\n        /* \"#utility.yul\":4624:4982   */\n      pop\n      pop\n        /* \"#utility.yul\":4608:4612   */\n      0x20\n        /* \"#utility.yul\":4603:4606   */\n      dup2\n        /* \"#utility.yul\":4599:4613   */\n      add\n        /* \"#utility.yul\":4592:4613   */\n      swap1\n      pop\n        /* \"#utility.yul\":4548:4982   */\n      jump(tag_197)\n    tag_199:\n        /* \"#utility.yul\":4552:4573   */\n      pop\n        /* \"#utility.yul\":4157:4988   */\n      pop\n      pop\n        /* \"#utility.yul\":4046:4988   */\n      swap4\n      swap3\n      pop\n      pop\n      pop\n      jump\t// out\n        /* \"#utility.yul\":5009:5397   */\n    tag_118:\n        /* \"#utility.yul\":5089:5094   */\n      0x00\n        /* \"#utility.yul\":5138:5141   */\n      dup3\n        /* \"#utility.yul\":5131:5135   */\n      0x1f\n        /* \"#utility.yul\":5123:5129   */\n      dup4\n        /* \"#utility.yul\":5119:5136   */\n      add\n        /* \"#utility.yul\":5115:5142   */\n      slt\n        /* \"#utility.yul\":5105:5227   */\n      tag_204\n      jumpi\n        /* \"#utility.yul\":5146:5225   */\n      tag_205\n      tag_106\n      jump\t// in\n    tag_205:\n        /* \"#utility.yul\":5105:5227   */\n    tag_204:\n        /* \"#utility.yul\":5263:5269   */\n      dup2\n        /* \"#utility.yul\":5250:5270   */\n      calldataload\n        /* \"#utility.yul\":5288:5391   */\n      tag_206\n        /* \"#utility.yul\":5387:5390   */\n      dup5\n        /* \"#utility.yul\":5379:5385   */\n      dup3\n        /* \"#utility.yul\":5372:5376   */\n      0x20\n        /* \"#utility.yul\":5364:5370   */\n      dup7\n        /* \"#utility.yul\":5360:5377   */\n      add\n        /* \"#utility.yul\":5288:5391   */\n      tag_117\n      jump\t// in\n    tag_206:\n        /* \"#utility.yul\":5279:5391   */\n      swap2\n      pop\n        /* \"#utility.yul\":5095:5397   */\n      pop\n        /* \"#utility.yul\":5009:5397   */\n      swap3\n      swap2\n      pop\n      pop\n      jump\t// out\n        /* \"#utility.yul\":5403:5960   */\n    tag_17:\n        /* \"#utility.yul\":5496:5502   */\n      0x00\n        /* \"#utility.yul\":5545:5547   */\n      0x20\n        /* \"#utility.yul\":5533:5542   */\n      dup3\n        /* \"#utility.yul\":5524:5531   */\n      dup5\n        /* \"#utility.yul\":5520:5543   */\n      sub\n        /* \"#utility.yul\":5516:5548   */\n      slt\n        /* \"#utility.yul\":5513:5632   */\n      iszero\n      tag_208\n      jumpi\n        /* \"#utility.yul\":5551:5630   */\n      tag_209\n      tag_104\n      jump\t// in\n    tag_209:\n        /* \"#utility.yul\":5513:5632   */\n    tag_208:\n        /* \"#utility.yul\":5699:5700   */\n      0x00\n        /* \"#utility.yul\":5688:5697   */\n      dup3\n        /* \"#utility.yul\":5684:5701   */\n      add\n        /* \"#utility.yul\":5671:5702   */\n      calldataload\n        /* \"#utility.yul\":5729:5747   */\n      0xffffffffffffffff\n        /* \"#utility.yul\":5721:5727   */\n      dup2\n        /* \"#utility.yul\":5718:5748   */\n      gt\n        /* \"#utility.yul\":5715:5832   */\n      iszero\n      tag_210\n      jumpi\n        /* \"#utility.yul\":5751:5830   */\n      tag_211\n      tag_105\n      jump\t// in\n    tag_211:\n        /* \"#utility.yul\":5715:5832   */\n    tag_210:\n        /* \"#utility.yul\":5856:5943   */\n      tag_212\n        /* \"#utility.yul\":5935:5942   */\n      dup5\n        /* \"#utility.yul\":5926:5932   */\n      dup3\n        /* \"#utility.yul\":5915:5924   */\n      dup6\n        /* \"#utility.yul\":5911:5933   */\n      add\n        /* \"#utility.yul\":5856:5943   */\n      tag_118\n      jump\t// in\n    tag_212:\n        /* \"#utility.yul\":5846:5943   */\n      swap2\n      pop\n        /* \"#utility.yul\":5642:5953   */\n      pop\n        /* \"#utility.yul\":5403:5960   */\n      swap3\n      swap2\n      pop\n      pop\n      jump\t// out\n        /* \"#utility.yul\":5966:6089   */\n    tag_119:\n        /* \"#utility.yul\":6042:6048   */\n      0x00\n        /* \"#utility.yul\":6076:6081   */\n      dup2\n        /* \"#utility.yul\":6070:6082   */\n      mload\n        /* \"#utility.yul\":6060:6082   */\n      swap1\n      pop\n        /* \"#utility.yul\":5966:6089   */\n      swap2\n      swap1\n      pop\n      jump\t// out\n        /* \"#utility.yul\":6095:6288   */\n    tag_120:\n        /* \"#utility.yul\":6203:6214   */\n      0x00\n        /* \"#utility.yul\":6237:6243   */\n      dup3\n        /* \"#utility.yul\":6232:6235   */\n      dup3\n        /* \"#utility.yul\":6225:6244   */\n      mstore\n        /* \"#utility.yul\":6277:6281   */\n      0x20\n        /* \"#utility.yul\":6272:6275   */\n      dup3\n        /* \"#utility.yul\":6268:6282   */\n      add\n        /* \"#utility.yul\":6253:6282   */\n      swap1\n      pop\n        /* \"#utility.yul\":6095:6288   */\n      swap3\n      swap2\n      pop\n      pop\n      jump\t// out\n        /* \"#utility.yul\":6294:6435   */\n    tag_121:\n        /* \"#utility.yul\":6370:6374   */\n      0x00\n        /* \"#utility.yul\":6393:6396   */\n      dup2\n        /* \"#utility.yul\":6385:6396   */\n      swap1\n      pop\n        /* \"#utility.yul\":6423:6427   */\n      0x20\n        /* \"#utility.yul\":6418:6421   */\n      dup3\n        /* \"#utility.yul\":6414:6428   */\n      add\n        /* \"#utility.yul\":6406:6428   */\n      swap1\n      pop\n        /* \"#utility.yul\":6294:6435   */\n      swap2\n      swap1\n      pop\n      jump\t// out\n        /* \"#utility.yul\":6441:6539   */\n    tag_122:\n        /* \"#utility.yul\":6492:6498   */\n      0x00\n        /* \"#utility.yul\":6526:6531   */\n      dup2\n        /* \"#utility.yul\":6520:6532   */\n      mload\n        /* \"#utility.yul\":6510:6532   */\n      swap1\n      pop\n        /* \"#utility.yul\":6441:6539   */\n      swap2\n      swap1\n      pop\n      jump\t// out\n        /* \"#utility.yul\":6545:6703   */\n    tag_123:\n        /* \"#utility.yul\":6618:6629   */\n      0x00\n        /* \"#utility.yul\":6652:6658   */\n      dup3\n        /* \"#utility.yul\":6647:6650   */\n      dup3\n        /* \"#utility.yul\":6640:6659   */\n      mstore\n        /* \"#utility.yul\":6692:6696   */\n      0x20\n        /* \"#utility.yul\":6687:6690   */\n      dup3\n        /* \"#utility.yul\":6683:6697   */\n      add\n        /* \"#utility.yul\":6668:6697   */\n      swap1\n      pop\n        /* \"#utility.yul\":6545:6703   */\n      swap3\n      swap2\n      pop\n      pop\n      jump\t// out\n        /* \"#utility.yul\":6709:6955   */\n    tag_124:\n        /* \"#utility.yul\":6790:6791   */\n      0x00\n        /* \"#utility.yul\":6800:6913   */\n    tag_219:\n        /* \"#utility.yul\":6814:6820   */\n      dup4\n        /* \"#utility.yul\":6811:6812   */\n      dup2\n        /* \"#utility.yul\":6808:6821   */\n      lt\n        /* \"#utility.yul\":6800:6913   */\n      iszero\n      tag_221\n      jumpi\n        /* \"#utility.yul\":6899:6900   */\n      dup1\n        /* \"#utility.yul\":6894:6897   */\n      dup3\n        /* \"#utility.yul\":6890:6901   */\n      add\n        /* \"#utility.yul\":6884:6902   */\n      mload\n        /* \"#utility.yul\":6880:6881   */\n      dup2\n        /* \"#utility.yul\":6875:6878   */\n      dup5\n        /* \"#utility.yul\":6871:6882   */\n      add\n        /* \"#utility.yul\":6864:6903   */\n      mstore\n        /* \"#utility.yul\":6836:6838   */\n      0x20\n        /* \"#utility.yul\":6833:6834   */\n      dup2\n        /* \"#utility.yul\":6829:6839   */\n      add\n        /* \"#utility.yul\":6824:6839   */\n      swap1\n      pop\n        /* \"#utility.yul\":6800:6913   */\n      jump(tag_219)\n    tag_221:\n        /* \"#utility.yul\":6947:6948   */\n      0x00\n        /* \"#utility.yul\":6938:6944   */\n      dup5\n        /* \"#utility.yul\":6933:6936   */\n      dup5\n        /* \"#utility.yul\":6929:6945   */\n      add\n        /* \"#utility.yul\":6922:6949   */\n      mstore\n        /* \"#utility.yul\":6771:6955   */\n      pop\n        /* \"#utility.yul\":6709:6955   */\n      pop\n      pop\n      pop\n      jump\t// out\n        /* \"#utility.yul\":6961:7314   */\n    tag_125:\n        /* \"#utility.yul\":7037:7040   */\n      0x00\n        /* \"#utility.yul\":7065:7103   */\n      tag_223\n        /* \"#utility.yul\":7097:7102   */\n      dup3\n        /* \"#utility.yul\":7065:7103   */\n      tag_122\n      jump\t// in\n    tag_223:\n        /* \"#utility.yul\":7119:7179   */\n      tag_224\n        /* \"#utility.yul\":7172:7178   */\n      dup2\n        /* \"#utility.yul\":7167:7170   */\n      dup6\n        /* \"#utility.yul\":7119:7179   */\n      tag_123\n      jump\t// in\n    tag_224:\n        /* \"#utility.yul\":7112:7179   */\n      swap4\n      pop\n        /* \"#utility.yul\":7188:7253   */\n      tag_225\n        /* \"#utility.yul\":7246:7252   */\n      dup2\n        /* \"#utility.yul\":7241:7244   */\n      dup6\n        /* \"#utility.yul\":7234:7238   */\n      0x20\n        /* \"#utility.yul\":7227:7232   */\n      dup7\n        /* \"#utility.yul\":7223:7239   */\n      add\n        /* \"#utility.yul\":7188:7253   */\n      tag_124\n      jump\t// in\n    tag_225:\n        /* \"#utility.yul\":7278:7307   */\n      tag_226\n        /* \"#utility.yul\":7300:7306   */\n      dup2\n        /* \"#utility.yul\":7278:7307   */\n      tag_107\n      jump\t// in\n    tag_226:\n        /* \"#utility.yul\":7273:7276   */\n      dup5\n        /* \"#utility.yul\":7269:7308   */\n      add\n        /* \"#utility.yul\":7262:7308   */\n      swap2\n      pop\n        /* \"#utility.yul\":7041:7314   */\n      pop\n        /* \"#utility.yul\":6961:7314   */\n      swap3\n      swap2\n      pop\n      pop\n      jump\t// out\n        /* \"#utility.yul\":7320:7512   */\n    tag_126:\n        /* \"#utility.yul\":7407:7417   */\n      0x00\n        /* \"#utility.yul\":7442:7506   */\n      tag_228\n        /* \"#utility.yul\":7502:7505   */\n      dup4\n        /* \"#utility.yul\":7494:7500   */\n      dup4\n        /* \"#utility.yul\":7442:7506   */\n      tag_125\n      jump\t// in\n    tag_228:\n        /* \"#utility.yul\":7428:7506   */\n      swap1\n      pop\n        /* \"#utility.yul\":7320:7512   */\n      swap3\n      swap2\n      pop\n      pop\n      jump\t// out\n        /* \"#utility.yul\":7518:7640   */\n    tag_127:\n        /* \"#utility.yul\":7597:7601   */\n      0x00\n        /* \"#utility.yul\":7629:7633   */\n      0x20\n        /* \"#utility.yul\":7624:7627   */\n      dup3\n        /* \"#utility.yul\":7620:7634   */\n      add\n        /* \"#utility.yul\":7612:7634   */\n      swap1\n      pop\n        /* \"#utility.yul\":7518:7640   */\n      swap2\n      swap1\n      pop\n      jump\t// out\n        /* \"#utility.yul\":7672:8655   */\n    tag_128:\n        /* \"#utility.yul\":7809:7812   */\n      0x00\n        /* \"#utility.yul\":7838:7901   */\n      tag_231\n        /* \"#utility.yul\":7895:7900   */\n      dup3\n        /* \"#utility.yul\":7838:7901   */\n      tag_119\n      jump\t// in\n    tag_231:\n        /* \"#utility.yul\":7917:8012   */\n      tag_232\n        /* \"#utility.yul\":8005:8011   */\n      dup2\n        /* \"#utility.yul\":8000:8003   */\n      dup6\n        /* \"#utility.yul\":7917:8012   */\n      tag_120\n      jump\t// in\n    tag_232:\n        /* \"#utility.yul\":7910:8012   */\n      swap4\n      pop\n        /* \"#utility.yul\":8038:8041   */\n      dup4\n        /* \"#utility.yul\":8083:8087   */\n      0x20\n        /* \"#utility.yul\":8075:8081   */\n      dup3\n        /* \"#utility.yul\":8071:8088   */\n      mul\n        /* \"#utility.yul\":8066:8069   */\n      dup6\n        /* \"#utility.yul\":8062:8089   */\n      add\n        /* \"#utility.yul\":8113:8178   */\n      tag_233\n        /* \"#utility.yul\":8172:8177   */\n      dup6\n        /* \"#utility.yul\":8113:8178   */\n      tag_121\n      jump\t// in\n    tag_233:\n        /* \"#utility.yul\":8201:8208   */\n      dup1\n        /* \"#utility.yul\":8232:8233   */\n      0x00\n        /* \"#utility.yul\":8217:8610   */\n    tag_234:\n        /* \"#utility.yul\":8242:8248   */\n      dup6\n        /* \"#utility.yul\":8239:8240   */\n      dup2\n        /* \"#utility.yul\":8236:8249   */\n      lt\n        /* \"#utility.yul\":8217:8610   */\n      iszero\n      tag_236\n      jumpi\n        /* \"#utility.yul\":8313:8322   */\n      dup5\n        /* \"#utility.yul\":8307:8311   */\n      dup5\n        /* \"#utility.yul\":8303:8323   */\n      sub\n        /* \"#utility.yul\":8298:8301   */\n      dup10\n        /* \"#utility.yul\":8291:8324   */\n      mstore\n        /* \"#utility.yul\":8364:8370   */\n      dup2\n        /* \"#utility.yul\":8358:8371   */\n      mload\n        /* \"#utility.yul\":8392:8474   */\n      tag_237\n        /* \"#utility.yul\":8469:8473   */\n      dup6\n        /* \"#utility.yul\":8454:8467   */\n      dup3\n        /* \"#utility.yul\":8392:8474   */\n      tag_126\n      jump\t// in\n    tag_237:\n        /* \"#utility.yul\":8384:8474   */\n      swap5\n      pop\n        /* \"#utility.yul\":8497:8566   */\n      tag_238\n        /* \"#utility.yul\":8559:8565   */\n      dup4\n        /* \"#utility.yul\":8497:8566   */\n      tag_127\n      jump\t// in\n    tag_238:\n        /* \"#utility.yul\":8487:8566   */\n      swap3\n      pop\n        /* \"#utility.yul\":8595:8599   */\n      0x20\n        /* \"#utility.yul\":8590:8593   */\n      dup11\n        /* \"#utility.yul\":8586:8600   */\n      add\n        /* \"#utility.yul\":8579:8600   */\n      swap10\n      pop\n        /* \"#utility.yul\":8277:8610   */\n      pop\n        /* \"#utility.yul\":8264:8265   */\n      0x01\n        /* \"#utility.yul\":8261:8262   */\n      dup2\n        /* \"#utility.yul\":8257:8266   */\n      add\n        /* \"#utility.yul\":8252:8266   */\n      swap1\n      pop\n        /* \"#utility.yul\":8217:8610   */\n      jump(tag_234)\n    tag_236:\n        /* \"#utility.yul\":8221:8235   */\n      pop\n        /* \"#utility.yul\":8626:8630   */\n      dup3\n        /* \"#utility.yul\":8619:8630   */\n      swap8\n      pop\n        /* \"#utility.yul\":8646:8649   */\n      dup8\n        /* \"#utility.yul\":8639:8649   */\n      swap6\n      pop\n        /* \"#utility.yul\":7814:8655   */\n      pop\n      pop\n      pop\n      pop\n      pop\n        /* \"#utility.yul\":7672:8655   */\n      swap3\n      swap2\n      pop\n      pop\n      jump\t// out\n        /* \"#utility.yul\":8661:9070   */\n    tag_20:\n        /* \"#utility.yul\":8822:8826   */\n      0x00\n        /* \"#utility.yul\":8860:8862   */\n      0x20\n        /* \"#utility.yul\":8849:8858   */\n      dup3\n        /* \"#utility.yul\":8845:8863   */\n      add\n        /* \"#utility.yul\":8837:8863   */\n      swap1\n      pop\n        /* \"#utility.yul\":8909:8918   */\n      dup2\n        /* \"#utility.yul\":8903:8907   */\n      dup2\n        /* \"#utility.yul\":8899:8919   */\n      sub\n        /* \"#utility.yul\":8895:8896   */\n      0x00\n        /* \"#utility.yul\":8884:8893   */\n      dup4\n        /* \"#utility.yul\":8880:8897   */\n      add\n        /* \"#utility.yul\":8873:8920   */\n      mstore\n        /* \"#utility.yul\":8937:9063   */\n      tag_240\n        /* \"#utility.yul\":9058:9062   */\n      dup2\n        /* \"#utility.yul\":9049:9055   */\n      dup5\n        /* \"#utility.yul\":8937:9063   */\n      tag_128\n      jump\t// in\n    tag_240:\n        /* \"#utility.yul\":8929:9063   */\n      swap1\n      pop\n        /* \"#utility.yul\":8661:9070   */\n      swap3\n      swap2\n      pop\n      pop\n      jump\t// out\n        /* \"#utility.yul\":9076:9153   */\n    tag_129:\n        /* \"#utility.yul\":9113:9120   */\n      0x00\n        /* \"#utility.yul\":9142:9147   */\n      dup2\n        /* \"#utility.yul\":9131:9147   */\n      swap1\n      pop\n        /* \"#utility.yul\":9076:9153   */\n      swap2\n      swap1\n      pop\n      jump\t// out\n        /* \"#utility.yul\":9159:9281   */\n    tag_130:\n        /* \"#utility.yul\":9232:9256   */\n      tag_243\n        /* \"#utility.yul\":9250:9255   */\n      dup2\n        /* \"#utility.yul\":9232:9256   */\n      tag_129\n      jump\t// in\n    tag_243:\n        /* \"#utility.yul\":9225:9230   */\n      dup2\n        /* \"#utility.yul\":9222:9257   */\n      eq\n        /* \"#utility.yul\":9212:9275   */\n      tag_244\n      jumpi\n        /* \"#utility.yul\":9271:9272   */\n      0x00\n        /* \"#utility.yul\":9268:9269   */\n      dup1\n        /* \"#utility.yul\":9261:9273   */\n      revert\n        /* \"#utility.yul\":9212:9275   */\n    tag_244:\n        /* \"#utility.yul\":9159:9281   */\n      pop\n      jump\t// out\n        /* \"#utility.yul\":9287:9426   */\n    tag_131:\n        /* \"#utility.yul\":9333:9338   */\n      0x00\n        /* \"#utility.yul\":9371:9377   */\n      dup2\n        /* \"#utility.yul\":9358:9378   */\n      calldataload\n        /* \"#utility.yul\":9349:9378   */\n      swap1\n      pop\n        /* \"#utility.yul\":9387:9420   */\n      tag_246\n        /* \"#utility.yul\":9414:9419   */\n      dup2\n        /* \"#utility.yul\":9387:9420   */\n      tag_130\n      jump\t// in\n    tag_246:\n        /* \"#utility.yul\":9287:9426   */\n      swap3\n      swap2\n      pop\n      pop\n      jump\t// out\n        /* \"#utility.yul\":9432:9761   */\n    tag_24:\n        /* \"#utility.yul\":9491:9497   */\n      0x00\n        /* \"#utility.yul\":9540:9542   */\n      0x20\n        /* \"#utility.yul\":9528:9537   */\n      dup3\n        /* \"#utility.yul\":9519:9526   */\n      dup5\n        /* \"#utility.yul\":9515:9538   */\n      sub\n        /* \"#utility.yul\":9511:9543   */\n      slt\n        /* \"#utility.yul\":9508:9627   */\n      iszero\n      tag_248\n      jumpi\n        /* \"#utility.yul\":9546:9625   */\n      tag_249\n      tag_104\n      jump\t// in\n    tag_249:\n        /* \"#utility.yul\":9508:9627   */\n    tag_248:\n        /* \"#utility.yul\":9666:9667   */\n      0x00\n        /* \"#utility.yul\":9691:9744   */\n      tag_250\n        /* \"#utility.yul\":9736:9743   */\n      dup5\n        /* \"#utility.yul\":9727:9733   */\n      dup3\n        /* \"#utility.yul\":9716:9725   */\n      dup6\n        /* \"#utility.yul\":9712:9734   */\n      add\n        /* \"#utility.yul\":9691:9744   */\n      tag_131\n      jump\t// in\n    tag_250:\n        /* \"#utility.yul\":9681:9744   */\n      swap2\n      pop\n        /* \"#utility.yul\":9637:9754   */\n      pop\n        /* \"#utility.yul\":9432:9761   */\n      swap3\n      swap2\n      pop\n      pop\n      jump\t// out\n        /* \"#utility.yul\":9767:9863   */\n    tag_132:\n        /* \"#utility.yul\":9804:9811   */\n      0x00\n        /* \"#utility.yul\":9833:9857   */\n      tag_252\n        /* \"#utility.yul\":9851:9856   */\n      dup3\n        /* \"#utility.yul\":9833:9857   */\n      tag_97\n      jump\t// in\n    tag_252:\n        /* \"#utility.yul\":9822:9857   */\n      swap1\n      pop\n        /* \"#utility.yul\":9767:9863   */\n      swap2\n      swap1\n      pop\n      jump\t// out\n        /* \"#utility.yul\":9869:9991   */\n    tag_133:\n        /* \"#utility.yul\":9942:9966   */\n      tag_254\n        /* \"#utility.yul\":9960:9965   */\n      dup2\n        /* \"#utility.yul\":9942:9966   */\n      tag_132\n      jump\t// in\n    tag_254:\n        /* \"#utility.yul\":9935:9940   */\n      dup2\n        /* \"#utility.yul\":9932:9967   */\n      eq\n        /* \"#utility.yul\":9922:9985   */\n      tag_255\n      jumpi\n        /* \"#utility.yul\":9981:9982   */\n      0x00\n        /* \"#utility.yul\":9978:9979   */\n      dup1\n        /* \"#utility.yul\":9971:9983   */\n      revert\n        /* \"#utility.yul\":9922:9985   */\n    tag_255:\n        /* \"#utility.yul\":9869:9991   */\n      pop\n      jump\t// out\n        /* \"#utility.yul\":9997:10136   */\n    tag_134:\n        /* \"#utility.yul\":10043:10048   */\n      0x00\n        /* \"#utility.yul\":10081:10087   */\n      dup2\n        /* \"#utility.yul\":10068:10088   */\n      calldataload\n        /* \"#utility.yul\":10059:10088   */\n      swap1\n      pop\n        /* \"#utility.yul\":10097:10130   */\n      tag_257\n        /* \"#utility.yul\":10124:10129   */\n      dup2\n        /* \"#utility.yul\":10097:10130   */\n      tag_133\n      jump\t// in\n    tag_257:\n        /* \"#utility.yul\":9997:10136   */\n      swap3\n      swap2\n      pop\n      pop\n      jump\t// out\n        /* \"#utility.yul\":10142:10471   */\n    tag_29:\n        /* \"#utility.yul\":10201:10207   */\n      0x00\n        /* \"#utility.yul\":10250:10252   */\n      0x20\n        /* \"#utility.yul\":10238:10247   */\n      dup3\n        /* \"#utility.yul\":10229:10236   */\n      dup5\n        /* \"#utility.yul\":10225:10248   */\n      sub\n        /* \"#utility.yul\":10221:10253   */\n      slt\n        /* \"#utility.yul\":10218:10337   */\n      iszero\n      tag_259\n      jumpi\n        /* \"#utility.yul\":10256:10335   */\n      tag_260\n      tag_104\n      jump\t// in\n    tag_260:\n        /* \"#utility.yul\":10218:10337   */\n    tag_259:\n        /* \"#utility.yul\":10376:10377   */\n      0x00\n        /* \"#utility.yul\":10401:10454   */\n      tag_261\n        /* \"#utility.yul\":10446:10453   */\n      dup5\n        /* \"#utility.yul\":10437:10443   */\n      dup3\n        /* \"#utility.yul\":10426:10435   */\n      dup6\n        /* \"#utility.yul\":10422:10444   */\n      add\n        /* \"#utility.yul\":10401:10454   */\n      tag_134\n      jump\t// in\n    tag_261:\n        /* \"#utility.yul\":10391:10454   */\n      swap2\n      pop\n        /* \"#utility.yul\":10347:10464   */\n      pop\n        /* \"#utility.yul\":10142:10471   */\n      swap3\n      swap2\n      pop\n      pop\n      jump\t// out\n        /* \"#utility.yul\":10477:10595   */\n    tag_135:\n        /* \"#utility.yul\":10564:10588   */\n      tag_263\n        /* \"#utility.yul\":10582:10587   */\n      dup2\n        /* \"#utility.yul\":10564:10588   */\n      tag_129\n      jump\t// in\n    tag_263:\n        /* \"#utility.yul\":10559:10562   */\n      dup3\n        /* \"#utility.yul\":10552:10589   */\n      mstore\n        /* \"#utility.yul\":10477:10595   */\n      pop\n      pop\n      jump\t// out\n        /* \"#utility.yul\":10601:10823   */\n    tag_35:\n        /* \"#utility.yul\":10694:10698   */\n      0x00\n        /* \"#utility.yul\":10732:10734   */\n      0x20\n        /* \"#utility.yul\":10721:10730   */\n      dup3\n        /* \"#utility.yul\":10717:10735   */\n      add\n        /* \"#utility.yul\":10709:10735   */\n      swap1\n      pop\n        /* \"#utility.yul\":10745:10816   */\n      tag_265\n        /* \"#utility.yul\":10813:10814   */\n      0x00\n        /* \"#utility.yul\":10802:10811   */\n      dup4\n        /* \"#utility.yul\":10798:10815   */\n      add\n        /* \"#utility.yul\":10789:10795   */\n      dup5\n        /* \"#utility.yul\":10745:10816   */\n      tag_135\n      jump\t// in\n    tag_265:\n        /* \"#utility.yul\":10601:10823   */\n      swap3\n      swap2\n      pop\n      pop\n      jump\t// out\n        /* \"#utility.yul\":10829:11009   */\n    tag_54:\n        /* \"#utility.yul\":10877:10954   */\n      0x4e487b7100000000000000000000000000000000000000000000000000000000\n        /* \"#utility.yul\":10874:10875   */\n      0x00\n        /* \"#utility.yul\":10867:10955   */\n      mstore\n        /* \"#utility.yul\":10974:10978   */\n      0x32\n        /* \"#utility.yul\":10971:10972   */\n      0x04\n        /* \"#utility.yul\":10964:10979   */\n      mstore\n        /* \"#utility.yul\":10998:11002   */\n      0x24\n        /* \"#utility.yul\":10995:10996   */\n      0x00\n        /* \"#utility.yul\":10988:11003   */\n      revert\n        /* \"#utility.yul\":11015:11162   */\n    tag_136:\n        /* \"#utility.yul\":11116:11127   */\n      0x00\n        /* \"#utility.yul\":11153:11156   */\n      dup2\n        /* \"#utility.yul\":11138:11156   */\n      swap1\n      pop\n        /* \"#utility.yul\":11015:11162   */\n      swap3\n      swap2\n      pop\n      pop\n      jump\t// out\n        /* \"#utility.yul\":11168:11554   */\n    tag_137:\n        /* \"#utility.yul\":11272:11275   */\n      0x00\n        /* \"#utility.yul\":11300:11338   */\n      tag_269\n        /* \"#utility.yul\":11332:11337   */\n      dup3\n        /* \"#utility.yul\":11300:11338   */\n      tag_122\n      jump\t// in\n    tag_269:\n        /* \"#utility.yul\":11354:11442   */\n      tag_270\n        /* \"#utility.yul\":11435:11441   */\n      dup2\n        /* \"#utility.yul\":11430:11433   */\n      dup6\n        /* \"#utility.yul\":11354:11442   */\n      tag_136\n      jump\t// in\n    tag_270:\n        /* \"#utility.yul\":11347:11442   */\n      swap4\n      pop\n        /* \"#utility.yul\":11451:11516   */\n      tag_271\n        /* \"#utility.yul\":11509:11515   */\n      dup2\n        /* \"#utility.yul\":11504:11507   */\n      dup6\n        /* \"#utility.yul\":11497:11501   */\n      0x20\n        /* \"#utility.yul\":11490:11495   */\n      dup7\n        /* \"#utility.yul\":11486:11502   */\n      add\n        /* \"#utility.yul\":11451:11516   */\n      tag_124\n      jump\t// in\n    tag_271:\n        /* \"#utility.yul\":11541:11547   */\n      dup1\n        /* \"#utility.yul\":11536:11539   */\n      dup5\n        /* \"#utility.yul\":11532:11548   */\n      add\n        /* \"#utility.yul\":11525:11548   */\n      swap2\n      pop\n        /* \"#utility.yul\":11276:11554   */\n      pop\n        /* \"#utility.yul\":11168:11554   */\n      swap3\n      swap2\n      pop\n      pop\n      jump\t// out\n        /* \"#utility.yul\":11560:11831   */\n    tag_56:\n        /* \"#utility.yul\":11690:11693   */\n      0x00\n        /* \"#utility.yul\":11712:11805   */\n      tag_273\n        /* \"#utility.yul\":11801:11804   */\n      dup3\n        /* \"#utility.yul\":11792:11798   */\n      dup5\n        /* \"#utility.yul\":11712:11805   */\n      tag_137\n      jump\t// in\n    tag_273:\n        /* \"#utility.yul\":11705:11805   */\n      swap2\n      pop\n        /* \"#utility.yul\":11822:11825   */\n      dup2\n        /* \"#utility.yul\":11815:11825   */\n      swap1\n      pop\n        /* \"#utility.yul\":11560:11831   */\n      swap3\n      swap2\n      pop\n      pop\n      jump\t// out\n        /* \"#utility.yul\":11837:11936   */\n    tag_138:\n        /* \"#utility.yul\":11889:11895   */\n      0x00\n        /* \"#utility.yul\":11923:11928   */\n      dup2\n        /* \"#utility.yul\":11917:11929   */\n      mload\n        /* \"#utility.yul\":11907:11929   */\n      swap1\n      pop\n        /* \"#utility.yul\":11837:11936   */\n      swap2\n      swap1\n      pop\n      jump\t// out\n        /* \"#utility.yul\":11942:12111   */\n    tag_139:\n        /* \"#utility.yul\":12026:12037   */\n      0x00\n        /* \"#utility.yul\":12060:12066   */\n      dup3\n        /* \"#utility.yul\":12055:12058   */\n      dup3\n        /* \"#utility.yul\":12048:12067   */\n      mstore\n        /* \"#utility.yul\":12100:12104   */\n      0x20\n        /* \"#utility.yul\":12095:12098   */\n      dup3\n        /* \"#utility.yul\":12091:12105   */\n      add\n        /* \"#utility.yul\":12076:12105   */\n      swap1\n      pop\n        /* \"#utility.yul\":11942:12111   */\n      swap3\n      swap2\n      pop\n      pop\n      jump\t// out\n        /* \"#utility.yul\":12117:12494   */\n    tag_140:\n        /* \"#utility.yul\":12205:12208   */\n      0x00\n        /* \"#utility.yul\":12233:12272   */\n      tag_277\n        /* \"#utility.yul\":12266:12271   */\n      dup3\n        /* \"#utility.yul\":12233:12272   */\n      tag_138\n      jump\t// in\n    tag_277:\n        /* \"#utility.yul\":12288:12359   */\n      tag_278\n        /* \"#utility.yul\":12352:12358   */\n      dup2\n        /* \"#utility.yul\":12347:12350   */\n      dup6\n        /* \"#utility.yul\":12288:12359   */\n      tag_139\n      jump\t// in\n    tag_278:\n        /* \"#utility.yul\":12281:12359   */\n      swap4\n      pop\n        /* \"#utility.yul\":12368:12433   */\n      tag_279\n        /* \"#utility.yul\":12426:12432   */\n      dup2\n        /* \"#utility.yul\":12421:12424   */\n      dup6\n        /* \"#utility.yul\":12414:12418   */\n      0x20\n        /* \"#utility.yul\":12407:12412   */\n      dup7\n        /* \"#utility.yul\":12403:12419   */\n      add\n        /* \"#utility.yul\":12368:12433   */\n      tag_124\n      jump\t// in\n    tag_279:\n        /* \"#utility.yul\":12458:12487   */\n      tag_280\n        /* \"#utility.yul\":12480:12486   */\n      dup2\n        /* \"#utility.yul\":12458:12487   */\n      tag_107\n      jump\t// in\n    tag_280:\n        /* \"#utility.yul\":12453:12456   */\n      dup5\n        /* \"#utility.yul\":12449:12488   */\n      add\n        /* \"#utility.yul\":12442:12488   */\n      swap2\n      pop\n        /* \"#utility.yul\":12209:12494   */\n      pop\n        /* \"#utility.yul\":12117:12494   */\n      swap3\n      swap2\n      pop\n      pop\n      jump\t// out\n        /* \"#utility.yul\":12500:12813   */\n    tag_64:\n        /* \"#utility.yul\":12613:12617   */\n      0x00\n        /* \"#utility.yul\":12651:12653   */\n      0x20\n        /* \"#utility.yul\":12640:12649   */\n      dup3\n        /* \"#utility.yul\":12636:12654   */\n      add\n        /* \"#utility.yul\":12628:12654   */\n      swap1\n      pop\n        /* \"#utility.yul\":12700:12709   */\n      dup2\n        /* \"#utility.yul\":12694:12698   */\n      dup2\n        /* \"#utility.yul\":12690:12710   */\n      sub\n        /* \"#utility.yul\":12686:12687   */\n      0x00\n        /* \"#utility.yul\":12675:12684   */\n      dup4\n        /* \"#utility.yul\":12671:12688   */\n      add\n        /* \"#utility.yul\":12664:12711   */\n      mstore\n        /* \"#utility.yul\":12728:12806   */\n      tag_282\n        /* \"#utility.yul\":12801:12805   */\n      dup2\n        /* \"#utility.yul\":12792:12798   */\n      dup5\n        /* \"#utility.yul\":12728:12806   */\n      tag_140\n      jump\t// in\n    tag_282:\n        /* \"#utility.yul\":12720:12806   */\n      swap1\n      pop\n        /* \"#utility.yul\":12500:12813   */\n      swap3\n      swap2\n      pop\n      pop\n      jump\t// out\n        /* \"#utility.yul\":12819:13127   */\n    tag_141:\n        /* \"#utility.yul\":12881:12885   */\n      0x00\n        /* \"#utility.yul\":12971:12989   */\n      0xffffffffffffffff\n        /* \"#utility.yul\":12963:12969   */\n      dup3\n        /* \"#utility.yul\":12960:12990   */\n      gt\n        /* \"#utility.yul\":12957:13013   */\n      iszero\n      tag_284\n      jumpi\n        /* \"#utility.yul\":12993:13011   */\n      tag_285\n      tag_46\n      jump\t// in\n    tag_285:\n        /* \"#utility.yul\":12957:13013   */\n    tag_284:\n        /* \"#utility.yul\":13031:13060   */\n      tag_286\n        /* \"#utility.yul\":13053:13059   */\n      dup3\n        /* \"#utility.yul\":13031:13060   */\n      tag_107\n      jump\t// in\n    tag_286:\n        /* \"#utility.yul\":13023:13060   */\n      swap1\n      pop\n        /* \"#utility.yul\":13115:13119   */\n      0x20\n        /* \"#utility.yul\":13109:13113   */\n      dup2\n        /* \"#utility.yul\":13105:13120   */\n      add\n        /* \"#utility.yul\":13097:13120   */\n      swap1\n      pop\n        /* \"#utility.yul\":12819:13127   */\n      swap2\n      swap1\n      pop\n      jump\t// out\n        /* \"#utility.yul\":13133:13567   */\n    tag_142:\n        /* \"#utility.yul\":13222:13227   */\n      0x00\n        /* \"#utility.yul\":13247:13313   */\n      tag_288\n        /* \"#utility.yul\":13263:13312   */\n      tag_289\n        /* \"#utility.yul\":13305:13311   */\n      dup5\n        /* \"#utility.yul\":13263:13312   */\n      tag_141\n      jump\t// in\n    tag_289:\n        /* \"#utility.yul\":13247:13313   */\n      tag_109\n      jump\t// in\n    tag_288:\n        /* \"#utility.yul\":13238:13313   */\n      swap1\n      pop\n        /* \"#utility.yul\":13336:13342   */\n      dup3\n        /* \"#utility.yul\":13329:13334   */\n      dup2\n        /* \"#utility.yul\":13322:13343   */\n      mstore\n        /* \"#utility.yul\":13374:13378   */\n      0x20\n        /* \"#utility.yul\":13367:13372   */\n      dup2\n        /* \"#utility.yul\":13363:13379   */\n      add\n        /* \"#utility.yul\":13412:13415   */\n      dup5\n        /* \"#utility.yul\":13403:13409   */\n      dup5\n        /* \"#utility.yul\":13398:13401   */\n      dup5\n        /* \"#utility.yul\":13394:13410   */\n      add\n        /* \"#utility.yul\":13391:13416   */\n      gt\n        /* \"#utility.yul\":13388:13500   */\n      iszero\n      tag_290\n      jumpi\n        /* \"#utility.yul\":13419:13498   */\n      tag_291\n      tag_112\n      jump\t// in\n    tag_291:\n        /* \"#utility.yul\":13388:13500   */\n    tag_290:\n        /* \"#utility.yul\":13509:13561   */\n      tag_292\n        /* \"#utility.yul\":13554:13560   */\n      dup5\n        /* \"#utility.yul\":13549:13552   */\n      dup3\n        /* \"#utility.yul\":13544:13547   */\n      dup6\n        /* \"#utility.yul\":13509:13561   */\n      tag_124\n      jump\t// in\n    tag_292:\n        /* \"#utility.yul\":13228:13567   */\n      pop\n        /* \"#utility.yul\":13133:13567   */\n      swap4\n      swap3\n      pop\n      pop\n      pop\n      jump\t// out\n        /* \"#utility.yul\":13587:13942   */\n    tag_143:\n        /* \"#utility.yul\":13654:13659   */\n      0x00\n        /* \"#utility.yul\":13703:13706   */\n      dup3\n        /* \"#utility.yul\":13696:13700   */\n      0x1f\n        /* \"#utility.yul\":13688:13694   */\n      dup4\n        /* \"#utility.yul\":13684:13701   */\n      add\n        /* \"#utility.yul\":13680:13707   */\n      slt\n        /* \"#utility.yul\":13670:13792   */\n      tag_294\n      jumpi\n        /* \"#utility.yul\":13711:13790   */\n      tag_295\n      tag_106\n      jump\t// in\n    tag_295:\n        /* \"#utility.yul\":13670:13792   */\n    tag_294:\n        /* \"#utility.yul\":13821:13827   */\n      dup2\n        /* \"#utility.yul\":13815:13828   */\n      mload\n        /* \"#utility.yul\":13846:13936   */\n      tag_296\n        /* \"#utility.yul\":13932:13935   */\n      dup5\n        /* \"#utility.yul\":13924:13930   */\n      dup3\n        /* \"#utility.yul\":13917:13921   */\n      0x20\n        /* \"#utility.yul\":13909:13915   */\n      dup7\n        /* \"#utility.yul\":13905:13922   */\n      add\n        /* \"#utility.yul\":13846:13936   */\n      tag_142\n      jump\t// in\n    tag_296:\n        /* \"#utility.yul\":13837:13936   */\n      swap2\n      pop\n        /* \"#utility.yul\":13660:13942   */\n      pop\n        /* \"#utility.yul\":13587:13942   */\n      swap3\n      swap2\n      pop\n      pop\n      jump\t// out\n        /* \"#utility.yul\":13948:14472   */\n    tag_96:\n        /* \"#utility.yul\":14028:14034   */\n      0x00\n        /* \"#utility.yul\":14077:14079   */\n      0x20\n        /* \"#utility.yul\":14065:14074   */\n      dup3\n        /* \"#utility.yul\":14056:14063   */\n      dup5\n        /* \"#utility.yul\":14052:14075   */\n      sub\n        /* \"#utility.yul\":14048:14080   */\n      slt\n        /* \"#utility.yul\":14045:14164   */\n      iszero\n      tag_298\n      jumpi\n        /* \"#utility.yul\":14083:14162   */\n      tag_299\n      tag_104\n      jump\t// in\n    tag_299:\n        /* \"#utility.yul\":14045:14164   */\n    tag_298:\n        /* \"#utility.yul\":14224:14225   */\n      0x00\n        /* \"#utility.yul\":14213:14222   */\n      dup3\n        /* \"#utility.yul\":14209:14226   */\n      add\n        /* \"#utility.yul\":14203:14227   */\n      mload\n        /* \"#utility.yul\":14254:14272   */\n      0xffffffffffffffff\n        /* \"#utility.yul\":14246:14252   */\n      dup2\n        /* \"#utility.yul\":14243:14273   */\n      gt\n        /* \"#utility.yul\":14240:14357   */\n      iszero\n      tag_300\n      jumpi\n        /* \"#utility.yul\":14276:14355   */\n      tag_301\n      tag_105\n      jump\t// in\n    tag_301:\n        /* \"#utility.yul\":14240:14357   */\n    tag_300:\n        /* \"#utility.yul\":14381:14455   */\n      tag_302\n        /* \"#utility.yul\":14447:14454   */\n      dup5\n        /* \"#utility.yul\":14438:14444   */\n      dup3\n        /* \"#utility.yul\":14427:14436   */\n      dup6\n        /* \"#utility.yul\":14423:14445   */\n      add\n        /* \"#utility.yul\":14381:14455   */\n      tag_143\n      jump\t// in\n    tag_302:\n        /* \"#utility.yul\":14371:14455   */\n      swap2\n      pop\n        /* \"#utility.yul\":14174:14465   */\n      pop\n        /* \"#utility.yul\":13948:14472   */\n      swap3\n      swap2\n      pop\n      pop\n      jump\t// out\n\n    auxdata: 0xa2646970667358221220062f61c2e53b5c524d3bb93959f5cd1870b57af5864ebc9087daf4fd166e0aeb64736f6c63430008160033\n}\n",
				"bytecode": {
					"linkReferences": {},
					"object": "608060405234801561000f575f80fd5b50610e1b8061001d5f395ff3fe60806040526004361061006f575f3560e01c80634437152a1161004d5780634437152a146100f55780634e70b1dc1461011d5780636466414b146101475780636e91f185146101635761006f565b806316f0115b146100735780631e897afb1461009d57806329e99f07146100cd575b5f80fd5b34801561007e575f80fd5b5061008761018b565b6040516100949190610741565b60405180910390f35b6100b760048036038101906100b29190610989565b6101b0565b6040516100c49190610b05565b60405180910390f35b3480156100d8575f80fd5b506100f360048036038101906100ee9190610b58565b61030f565b005b348015610100575f80fd5b5061011b60048036038101906101169190610bbe565b610459565b005b348015610128575f80fd5b5061013161049c565b60405161013e9190610bf8565b60405180910390f35b610161600480360381019061015c9190610b58565b6104a1565b005b34801561016e575f80fd5b5061018960048036038101906101849190610b58565b61052b565b005b60015f9054906101000a900473ffffffffffffffffffffffffffffffffffffffff1681565b6060815167ffffffffffffffff8111156101cd576101cc61077f565b5b60405190808252806020026020018201604052801561020057816020015b60608152602001906001900390816101eb5790505b5090505f5b8251811015610309575f803073ffffffffffffffffffffffffffffffffffffffff1685848151811061023a57610239610c11565b5b602002602001015160405161024f9190610c78565b5f60405180830381855af49150503d805f8114610287576040519150601f19603f3d011682016040523d82523d5f602084013e61028c565b606091505b5091509150816102db5761029f8161065c565b6040517f08c379a00000000000000000000000000000000000000000000000000000000081526004016102d29190610ce0565b60405180910390fd5b808484815181106102ef576102ee610c11565b5b602002602001018190525050508080600101915050610205565b50919050565b5f816040516024016103219190610bf8565b6040516020818303038152906040527f6466414b000000000000000000000000000000000000000000000000000000007bffffffffffffffffffffffffffffffffffffffffffffffffffffffff19166020820180517bffffffffffffffffffffffffffffffffffffffffffffffffffffffff838183161783525050505090505f803073ffffffffffffffffffffffffffffffffffffffff16836040516103c79190610c78565b5f60405180830381855af49150503d805f81146103ff576040519150601f19603f3d011682016040523d82523d5f602084013e610404565b606091505b509150915081610453576104178161065c565b6040517f08c379a000000000000000000000000000000000000000000000000000000000815260040161044a9190610ce0565b60405180910390fd5b50505050565b8060015f6101000a81548173ffffffffffffffffffffffffffffffffffffffff021916908373ffffffffffffffffffffffffffffffffffffffff16021790555050565b5f5481565b60015f9054906101000a900473ffffffffffffffffffffffffffffffffffffffff1673ffffffffffffffffffffffffffffffffffffffff16636466414b826040518263ffffffff1660e01b81526004016104fb9190610bf8565b5f604051808303815f87803b158015610512575f80fd5b505af1158015610524573d5f803e3d5ffd5b5050505050565b5f8160405160240161053d9190610bf8565b6040516020818303038152906040527f6466414b000000000000000000000000000000000000000000000000000000007bffffffffffffffffffffffffffffffffffffffffffffffffffffffff19166020820180517bffffffffffffffffffffffffffffffffffffffffffffffffffffffff838183161783525050505090505f600267ffffffffffffffff8111156105d8576105d761077f565b5b60405190808252806020026020018201604052801561060b57816020015b60608152602001906001900390816105f65790505b50905081815f8151811061062257610621610c11565b5b6020026020010181905250818160018151811061064257610641610c11565b5b6020026020010181905250610656816101b0565b50505050565b60606044825110156106a5576040518060400160405280601d81526020017f5472616e73616374696f6e2072657665727465642073696c656e746c7900000081525090506106c2565b600482019150818060200190518101906106bf9190610d9e565b90505b919050565b5f73ffffffffffffffffffffffffffffffffffffffff82169050919050565b5f819050919050565b5f6107096107046106ff846106c7565b6106e6565b6106c7565b9050919050565b5f61071a826106ef565b9050919050565b5f61072b82610710565b9050919050565b61073b81610721565b82525050565b5f6020820190506107545f830184610732565b92915050565b5f604051905090565b5f80fd5b5f80fd5b5f80fd5b5f601f19601f8301169050919050565b7f4e487b71000000000000000000000000000000000000000000000000000000005f52604160045260245ffd5b6107b58261076f565b810181811067ffffffffffffffff821117156107d4576107d361077f565b5b80604052505050565b5f6107e661075a565b90506107f282826107ac565b919050565b5f67ffffffffffffffff8211156108115761081061077f565b5b602082029050602081019050919050565b5f80fd5b5f80fd5b5f67ffffffffffffffff8211156108445761084361077f565b5b61084d8261076f565b9050602081019050919050565b828183375f83830152505050565b5f61087a6108758461082a565b6107dd565b90508281526020810184848401111561089657610895610826565b5b6108a184828561085a565b509392505050565b5f82601f8301126108bd576108bc61076b565b5b81356108cd848260208601610868565b91505092915050565b5f6108e86108e3846107f7565b6107dd565b9050808382526020820190506020840283018581111561090b5761090a610822565b5b835b8181101561095257803567ffffffffffffffff8111156109305761092f61076b565b5b80860161093d89826108a9565b8552602085019450505060208101905061090d565b5050509392505050565b5f82601f8301126109705761096f61076b565b5b81356109808482602086016108d6565b91505092915050565b5f6020828403121561099e5761099d610763565b5b5f82013567ffffffffffffffff8111156109bb576109ba610767565b5b6109c78482850161095c565b91505092915050565b5f81519050919050565b5f82825260208201905092915050565b5f819050602082019050919050565b5f81519050919050565b5f82825260208201905092915050565b5f5b83811015610a30578082015181840152602081019050610a15565b5f8484015250505050565b5f610a45826109f9565b610a4f8185610a03565b9350610a5f818560208601610a13565b610a688161076f565b840191505092915050565b5f610a7e8383610a3b565b905092915050565b5f602082019050919050565b5f610a9c826109d0565b610aa681856109da565b935083602082028501610ab8856109ea565b805f5b85811015610af35784840389528151610ad48582610a73565b9450610adf83610a86565b925060208a01995050600181019050610abb565b50829750879550505050505092915050565b5f6020820190508181035f830152610b1d8184610a92565b905092915050565b5f819050919050565b610b3781610b25565b8114610b41575f80fd5b50565b5f81359050610b5281610b2e565b92915050565b5f60208284031215610b6d57610b6c610763565b5b5f610b7a84828501610b44565b91505092915050565b5f610b8d826106c7565b9050919050565b610b9d81610b83565b8114610ba7575f80fd5b50565b5f81359050610bb881610b94565b92915050565b5f60208284031215610bd357610bd2610763565b5b5f610be084828501610baa565b91505092915050565b610bf281610b25565b82525050565b5f602082019050610c0b5f830184610be9565b92915050565b7f4e487b71000000000000000000000000000000000000000000000000000000005f52603260045260245ffd5b5f81905092915050565b5f610c52826109f9565b610c5c8185610c3e565b9350610c6c818560208601610a13565b80840191505092915050565b5f610c838284610c48565b915081905092915050565b5f81519050919050565b5f82825260208201905092915050565b5f610cb282610c8e565b610cbc8185610c98565b9350610ccc818560208601610a13565b610cd58161076f565b840191505092915050565b5f6020820190508181035f830152610cf88184610ca8565b905092915050565b5f67ffffffffffffffff821115610d1a57610d1961077f565b5b610d238261076f565b9050602081019050919050565b5f610d42610d3d84610d00565b6107dd565b905082815260208101848484011115610d5e57610d5d610826565b5b610d69848285610a13565b509392505050565b5f82601f830112610d8557610d8461076b565b5b8151610d95848260208601610d30565b91505092915050565b5f60208284031215610db357610db2610763565b5b5f82015167ffffffffffffffff811115610dd057610dcf610767565b5b610ddc84828501610d71565b9150509291505056fea2646970667358221220062f61c2e53b5c524d3bb93959f5cd1870b57af5864ebc9087daf4fd166e0aeb64736f6c63430008160033",
					"opcodes": "PUSH1 0x80 PUSH1 0x40 MSTORE CALLVALUE DUP1 ISZERO PUSH2 0xF JUMPI PUSH0 DUP1 REVERT JUMPDEST POP PUSH2 0xE1B DUP1 PUSH2 0x1D PUSH0 CODECOPY PUSH0 RETURN INVALID PUSH1 0x80 PUSH1 0x40 MSTORE PUSH1 0x4 CALLDATASIZE LT PUSH2 0x6F JUMPI PUSH0 CALLDATALOAD PUSH1 0xE0 SHR DUP1 PUSH4 0x4437152A GT PUSH2 0x4D JUMPI DUP1 PUSH4 0x4437152A EQ PUSH2 0xF5 JUMPI DUP1 PUSH4 0x4E70B1DC EQ PUSH2 0x11D JUMPI DUP1 PUSH4 0x6466414B EQ PUSH2 0x147 JUMPI DUP1 PUSH4 0x6E91F185 EQ PUSH2 0x163 JUMPI PUSH2 0x6F JUMP JUMPDEST DUP1 PUSH4 0x16F0115B EQ PUSH2 0x73 JUMPI DUP1 PUSH4 0x1E897AFB EQ PUSH2 0x9D JUMPI DUP1 PUSH4 0x29E99F07 EQ PUSH2 0xCD JUMPI JUMPDEST PUSH0 DUP1 REVERT JUMPDEST CALLVALUE DUP1 ISZERO PUSH2 0x7E JUMPI PUSH0 DUP1 REVERT JUMPDEST POP PUSH2 0x87 PUSH2 0x18B JUMP JUMPDEST PUSH1 0x40 MLOAD PUSH2 0x94 SWAP2 SWAP1 PUSH2 0x741 JUMP JUMPDEST PUSH1 0x40 MLOAD DUP1 SWAP2 SUB SWAP1 RETURN JUMPDEST PUSH2 0xB7 PUSH1 0x4 DUP1 CALLDATASIZE SUB DUP2 ADD SWAP1 PUSH2 0xB2 SWAP2 SWAP1 PUSH2 0x989 JUMP JUMPDEST PUSH2 0x1B0 JUMP JUMPDEST PUSH1 0x40 MLOAD PUSH2 0xC4 SWAP2 SWAP1 PUSH2 0xB05 JUMP JUMPDEST PUSH1 0x40 MLOAD DUP1 SWAP2 SUB SWAP1 RETURN JUMPDEST CALLVALUE DUP1 ISZERO PUSH2 0xD8 JUMPI PUSH0 DUP1 REVERT JUMPDEST POP PUSH2 0xF3 PUSH1 0x4 DUP1 CALLDATASIZE SUB DUP2 ADD SWAP1 PUSH2 0xEE SWAP2 SWAP1 PUSH2 0xB58 JUMP JUMPDEST PUSH2 0x30F JUMP JUMPDEST STOP JUMPDEST CALLVALUE DUP1 ISZERO PUSH2 0x100 JUMPI PUSH0 DUP1 REVERT JUMPDEST POP PUSH2 0x11B PUSH1 0x4 DUP1 CALLDATASIZE SUB DUP2 ADD SWAP1 PUSH2 0x116 SWAP2 SWAP1 PUSH2 0xBBE JUMP JUMPDEST PUSH2 0x459 JUMP JUMPDEST STOP JUMPDEST CALLVALUE DUP1 ISZERO PUSH2 0x128 JUMPI PUSH0 DUP1 REVERT JUMPDEST POP PUSH2 0x131 PUSH2 0x49C JUMP JUMPDEST PUSH1 0x40 MLOAD PUSH2 0x13E SWAP2 SWAP1 PUSH2 0xBF8 JUMP JUMPDEST PUSH1 0x40 MLOAD DUP1 SWAP2 SUB SWAP1 RETURN JUMPDEST PUSH2 0x161 PUSH1 0x4 DUP1 CALLDATASIZE SUB DUP2 ADD SWAP1 PUSH2 0x15C SWAP2 SWAP1 PUSH2 0xB58 JUMP JUMPDEST PUSH2 0x4A1 JUMP JUMPDEST STOP JUMPDEST CALLVALUE DUP1 ISZERO PUSH2 0x16E JUMPI PUSH0 DUP1 REVERT JUMPDEST POP PUSH2 0x189 PUSH1 0x4 DUP1 CALLDATASIZE SUB DUP2 ADD SWAP1 PUSH2 0x184 SWAP2 SWAP1 PUSH2 0xB58 JUMP JUMPDEST PUSH2 0x52B JUMP JUMPDEST STOP JUMPDEST PUSH1 0x1 PUSH0 SWAP1 SLOAD SWAP1 PUSH2 0x100 EXP SWAP1 DIV PUSH20 0xFFFFFFFFFFFFFFFFFFFFFFFFFFFFFFFFFFFFFFFF AND DUP2 JUMP JUMPDEST PUSH1 0x60 DUP2 MLOAD PUSH8 0xFFFFFFFFFFFFFFFF DUP2 GT ISZERO PUSH2 0x1CD JUMPI PUSH2 0x1CC PUSH2 0x77F JUMP JUMPDEST JUMPDEST PUSH1 0x40 MLOAD SWAP1 DUP1 DUP3 MSTORE DUP1 PUSH1 0x20 MUL PUSH1 0x20 ADD DUP3 ADD PUSH1 0x40 MSTORE DUP1 ISZERO PUSH2 0x200 JUMPI DUP2 PUSH1 0x20 ADD JUMPDEST PUSH1 0x60 DUP2 MSTORE PUSH1 0x20 ADD SWAP1 PUSH1 0x1 SWAP1 SUB SWAP1 DUP2 PUSH2 0x1EB JUMPI SWAP1 POP JUMPDEST POP SWAP1 POP PUSH0 JUMPDEST DUP3 MLOAD DUP2 LT ISZERO PUSH2 0x309 JUMPI PUSH0 DUP1 ADDRESS PUSH20 0xFFFFFFFFFFFFFFFFFFFFFFFFFFFFFFFFFFFFFFFF AND DUP6 DUP5 DUP2 MLOAD DUP2 LT PUSH2 0x23A JUMPI PUSH2 0x239 PUSH2 0xC11 JUMP JUMPDEST JUMPDEST PUSH1 0x20 MUL PUSH1 0x20 ADD ADD MLOAD PUSH1 0x40 MLOAD PUSH2 0x24F SWAP2 SWAP1 PUSH2 0xC78 JUMP JUMPDEST PUSH0 PUSH1 0x40 MLOAD DUP1 DUP4 SUB DUP2 DUP6 GAS DELEGATECALL SWAP2 POP POP RETURNDATASIZE DUP1 PUSH0 DUP2 EQ PUSH2 0x287 JUMPI PUSH1 0x40 MLOAD SWAP2 POP PUSH1 0x1F NOT PUSH1 0x3F RETURNDATASIZE ADD AND DUP3 ADD PUSH1 0x40 MSTORE RETURNDATASIZE DUP3 MSTORE RETURNDATASIZE PUSH0 PUSH1 0x20 DUP5 ADD RETURNDATACOPY PUSH2 0x28C JUMP JUMPDEST PUSH1 0x60 SWAP2 POP JUMPDEST POP SWAP2 POP SWAP2 POP DUP2 PUSH2 0x2DB JUMPI PUSH2 0x29F DUP2 PUSH2 0x65C JUMP JUMPDEST PUSH1 0x40 MLOAD PUSH32 0x8C379A000000000000000000000000000000000000000000000000000000000 DUP2 MSTORE PUSH1 0x4 ADD PUSH2 0x2D2 SWAP2 SWAP1 PUSH2 0xCE0 JUMP JUMPDEST PUSH1 0x40 MLOAD DUP1 SWAP2 SUB SWAP1 REVERT JUMPDEST DUP1 DUP5 DUP5 DUP2 MLOAD DUP2 LT PUSH2 0x2EF JUMPI PUSH2 0x2EE PUSH2 0xC11 JUMP JUMPDEST JUMPDEST PUSH1 0x20 MUL PUSH1 0x20 ADD ADD DUP2 SWAP1 MSTORE POP POP POP DUP1 DUP1 PUSH1 0x1 ADD SWAP2 POP POP PUSH2 0x205 JUMP JUMPDEST POP SWAP2 SWAP1 POP JUMP JUMPDEST PUSH0 DUP2 PUSH1 0x40 MLOAD PUSH1 0x24 ADD PUSH2 0x321 SWAP2 SWAP1 PUSH2 0xBF8 JUMP JUMPDEST PUSH1 0x40 MLOAD PUSH1 0x20 DUP2 DUP4 SUB SUB DUP2 MSTORE SWAP1 PUSH1 0x40 MSTORE PUSH32 0x6466414B00000000000000000000000000000000000000000000000000000000 PUSH28 0xFFFFFFFFFFFFFFFFFFFFFFFFFFFFFFFFFFFFFFFFFFFFFFFFFFFFFFFF NOT AND PUSH1 0x20 DUP3 ADD DUP1 MLOAD PUSH28 0xFFFFFFFFFFFFFFFFFFFFFFFFFFFFFFFFFFFFFFFFFFFFFFFFFFFFFFFF DUP4 DUP2 DUP4 AND OR DUP4 MSTORE POP POP POP POP SWAP1 POP PUSH0 DUP1 ADDRESS PUSH20 0xFFFFFFFFFFFFFFFFFFFFFFFFFFFFFFFFFFFFFFFF AND DUP4 PUSH1 0x40 MLOAD PUSH2 0x3C7 SWAP2 SWAP1 PUSH2 0xC78 JUMP JUMPDEST PUSH0 PUSH1 0x40 MLOAD DUP1 DUP4 SUB DUP2 DUP6 GAS DELEGATECALL SWAP2 POP POP RETURNDATASIZE DUP1 PUSH0 DUP2 EQ PUSH2 0x3FF JUMPI PUSH1 0x40 MLOAD SWAP2 POP PUSH1 0x1F NOT PUSH1 0x3F RETURNDATASIZE ADD AND DUP3 ADD PUSH1 0x40 MSTORE RETURNDATASIZE DUP3 MSTORE RETURNDATASIZE PUSH0 PUSH1 0x20 DUP5 ADD RETURNDATACOPY PUSH2 0x404 JUMP JUMPDEST PUSH1 0x60 SWAP2 POP JUMPDEST POP SWAP2 POP SWAP2 POP DUP2 PUSH2 0x453 JUMPI PUSH2 0x417 DUP2 PUSH2 0x65C JUMP JUMPDEST PUSH1 0x40 MLOAD PUSH32 0x8C379A000000000000000000000000000000000000000000000000000000000 DUP2 MSTORE PUSH1 0x4 ADD PUSH2 0x44A SWAP2 SWAP1 PUSH2 0xCE0 JUMP JUMPDEST PUSH1 0x40 MLOAD DUP1 SWAP2 SUB SWAP1 REVERT JUMPDEST POP POP POP POP JUMP JUMPDEST DUP1 PUSH1 0x1 PUSH0 PUSH2 0x100 EXP DUP2 SLOAD DUP2 PUSH20 0xFFFFFFFFFFFFFFFFFFFFFFFFFFFFFFFFFFFFFFFF MUL NOT AND SWAP1 DUP4 PUSH20 0xFFFFFFFFFFFFFFFFFFFFFFFFFFFFFFFFFFFFFFFF AND MUL OR SWAP1 SSTORE POP POP JUMP JUMPDEST PUSH0 SLOAD DUP2 JUMP JUMPDEST PUSH1 0x1 PUSH0 SWAP1 SLOAD SWAP1 PUSH2 0x100 EXP SWAP1 DIV PUSH20 0xFFFFFFFFFFFFFFFFFFFFFFFFFFFFFFFFFFFFFFFF AND PUSH20 0xFFFFFFFFFFFFFFFFFFFFFFFFFFFFFFFFFFFFFFFF AND PUSH4 0x6466414B DUP3 PUSH1 0x40 MLOAD DUP3 PUSH4 0xFFFFFFFF AND PUSH1 0xE0 SHL DUP2 MSTORE PUSH1 0x4 ADD PUSH2 0x4FB SWAP2 SWAP1 PUSH2 0xBF8 JUMP JUMPDEST PUSH0 PUSH1 0x40 MLOAD DUP1 DUP4 SUB DUP2 PUSH0 DUP8 DUP1 EXTCODESIZE ISZERO DUP1 ISZERO PUSH2 0x512 JUMPI PUSH0 DUP1 REVERT JUMPDEST POP GAS CALL ISZERO DUP1 ISZERO PUSH2 0x524 JUMPI RETURNDATASIZE PUSH0 DUP1 RETURNDATACOPY RETURNDATASIZE PUSH0 REVERT JUMPDEST POP POP POP POP POP JUMP JUMPDEST PUSH0 DUP2 PUSH1 0x40 MLOAD PUSH1 0x24 ADD PUSH2 0x53D SWAP2 SWAP1 PUSH2 0xBF8 JUMP JUMPDEST PUSH1 0x40 MLOAD PUSH1 0x20 DUP2 DUP4 SUB SUB DUP2 MSTORE SWAP1 PUSH1 0x40 MSTORE PUSH32 0x6466414B00000000000000000000000000000000000000000000000000000000 PUSH28 0xFFFFFFFFFFFFFFFFFFFFFFFFFFFFFFFFFFFFFFFFFFFFFFFFFFFFFFFF NOT AND PUSH1 0x20 DUP3 ADD DUP1 MLOAD PUSH28 0xFFFFFFFFFFFFFFFFFFFFFFFFFFFFFFFFFFFFFFFFFFFFFFFFFFFFFFFF DUP4 DUP2 DUP4 AND OR DUP4 MSTORE POP POP POP POP SWAP1 POP PUSH0 PUSH1 0x2 PUSH8 0xFFFFFFFFFFFFFFFF DUP2 GT ISZERO PUSH2 0x5D8 JUMPI PUSH2 0x5D7 PUSH2 0x77F JUMP JUMPDEST JUMPDEST PUSH1 0x40 MLOAD SWAP1 DUP1 DUP3 MSTORE DUP1 PUSH1 0x20 MUL PUSH1 0x20 ADD DUP3 ADD PUSH1 0x40 MSTORE DUP1 ISZERO PUSH2 0x60B JUMPI DUP2 PUSH1 0x20 ADD JUMPDEST PUSH1 0x60 DUP2 MSTORE PUSH1 0x20 ADD SWAP1 PUSH1 0x1 SWAP1 SUB SWAP1 DUP2 PUSH2 0x5F6 JUMPI SWAP1 POP JUMPDEST POP SWAP1 POP DUP2 DUP2 PUSH0 DUP2 MLOAD DUP2 LT PUSH2 0x622 JUMPI PUSH2 0x621 PUSH2 0xC11 JUMP JUMPDEST JUMPDEST PUSH1 0x20 MUL PUSH1 0x20 ADD ADD DUP2 SWAP1 MSTORE POP DUP2 DUP2 PUSH1 0x1 DUP2 MLOAD DUP2 LT PUSH2 0x642 JUMPI PUSH2 0x641 PUSH2 0xC11 JUMP JUMPDEST JUMPDEST PUSH1 0x20 MUL PUSH1 0x20 ADD ADD DUP2 SWAP1 MSTORE POP PUSH2 0x656 DUP2 PUSH2 0x1B0 JUMP JUMPDEST POP POP POP POP JUMP JUMPDEST PUSH1 0x60 PUSH1 0x44 DUP3 MLOAD LT ISZERO PUSH2 0x6A5 JUMPI PUSH1 0x40 MLOAD DUP1 PUSH1 0x40 ADD PUSH1 0x40 MSTORE DUP1 PUSH1 0x1D DUP2 MSTORE PUSH1 0x20 ADD PUSH32 0x5472616E73616374696F6E2072657665727465642073696C656E746C79000000 DUP2 MSTORE POP SWAP1 POP PUSH2 0x6C2 JUMP JUMPDEST PUSH1 0x4 DUP3 ADD SWAP2 POP DUP2 DUP1 PUSH1 0x20 ADD SWAP1 MLOAD DUP2 ADD SWAP1 PUSH2 0x6BF SWAP2 SWAP1 PUSH2 0xD9E JUMP JUMPDEST SWAP1 POP JUMPDEST SWAP2 SWAP1 POP JUMP JUMPDEST PUSH0 PUSH20 0xFFFFFFFFFFFFFFFFFFFFFFFFFFFFFFFFFFFFFFFF DUP3 AND SWAP1 POP SWAP2 SWAP1 POP JUMP JUMPDEST PUSH0 DUP2 SWAP1 POP SWAP2 SWAP1 POP JUMP JUMPDEST PUSH0 PUSH2 0x709 PUSH2 0x704 PUSH2 0x6FF DUP5 PUSH2 0x6C7 JUMP JUMPDEST PUSH2 0x6E6 JUMP JUMPDEST PUSH2 0x6C7 JUMP JUMPDEST SWAP1 POP SWAP2 SWAP1 POP JUMP JUMPDEST PUSH0 PUSH2 0x71A DUP3 PUSH2 0x6EF JUMP JUMPDEST SWAP1 POP SWAP2 SWAP1 POP JUMP JUMPDEST PUSH0 PUSH2 0x72B DUP3 PUSH2 0x710 JUMP JUMPDEST SWAP1 POP SWAP2 SWAP1 POP JUMP JUMPDEST PUSH2 0x73B DUP2 PUSH2 0x721 JUMP JUMPDEST DUP3 MSTORE POP POP JUMP JUMPDEST PUSH0 PUSH1 0x20 DUP3 ADD SWAP1 POP PUSH2 0x754 PUSH0 DUP4 ADD DUP5 PUSH2 0x732 JUMP JUMPDEST SWAP3 SWAP2 POP POP JUMP JUMPDEST PUSH0 PUSH1 0x40 MLOAD SWAP1 POP SWAP1 JUMP JUMPDEST PUSH0 DUP1 REVERT JUMPDEST PUSH0 DUP1 REVERT JUMPDEST PUSH0 DUP1 REVERT JUMPDEST PUSH0 PUSH1 0x1F NOT PUSH1 0x1F DUP4 ADD AND SWAP1 POP SWAP2 SWAP1 POP JUMP JUMPDEST PUSH32 0x4E487B7100000000000000000000000000000000000000000000000000000000 PUSH0 MSTORE PUSH1 0x41 PUSH1 0x4 MSTORE PUSH1 0x24 PUSH0 REVERT JUMPDEST PUSH2 0x7B5 DUP3 PUSH2 0x76F JUMP JUMPDEST DUP2 ADD DUP2 DUP2 LT PUSH8 0xFFFFFFFFFFFFFFFF DUP3 GT OR ISZERO PUSH2 0x7D4 JUMPI PUSH2 0x7D3 PUSH2 0x77F JUMP JUMPDEST JUMPDEST DUP1 PUSH1 0x40 MSTORE POP POP POP JUMP JUMPDEST PUSH0 PUSH2 0x7E6 PUSH2 0x75A JUMP JUMPDEST SWAP1 POP PUSH2 0x7F2 DUP3 DUP3 PUSH2 0x7AC JUMP JUMPDEST SWAP2 SWAP1 POP JUMP JUMPDEST PUSH0 PUSH8 0xFFFFFFFFFFFFFFFF DUP3 GT ISZERO PUSH2 0x811 JUMPI PUSH2 0x810 PUSH2 0x77F JUMP JUMPDEST JUMPDEST PUSH1 0x20 DUP3 MUL SWAP1 POP PUSH1 0x20 DUP2 ADD SWAP1 POP SWAP2 SWAP1 POP JUMP JUMPDEST PUSH0 DUP1 REVERT JUMPDEST PUSH0 DUP1 REVERT JUMPDEST PUSH0 PUSH8 0xFFFFFFFFFFFFFFFF DUP3 GT ISZERO PUSH2 0x844 JUMPI PUSH2 0x843 PUSH2 0x77F JUMP JUMPDEST JUMPDEST PUSH2 0x84D DUP3 PUSH2 0x76F JUMP JUMPDEST SWAP1 POP PUSH1 0x20 DUP2 ADD SWAP1 POP SWAP2 SWAP1 POP JUMP JUMPDEST DUP3 DUP2 DUP4 CALLDATACOPY PUSH0 DUP4 DUP4 ADD MSTORE POP POP POP JUMP JUMPDEST PUSH0 PUSH2 0x87A PUSH2 0x875 DUP5 PUSH2 0x82A JUMP JUMPDEST PUSH2 0x7DD JUMP JUMPDEST SWAP1 POP DUP3 DUP2 MSTORE PUSH1 0x20 DUP2 ADD DUP5 DUP5 DUP5 ADD GT ISZERO PUSH2 0x896 JUMPI PUSH2 0x895 PUSH2 0x826 JUMP JUMPDEST JUMPDEST PUSH2 0x8A1 DUP5 DUP3 DUP6 PUSH2 0x85A JUMP JUMPDEST POP SWAP4 SWAP3 POP POP POP JUMP JUMPDEST PUSH0 DUP3 PUSH1 0x1F DUP4 ADD SLT PUSH2 0x8BD JUMPI PUSH2 0x8BC PUSH2 0x76B JUMP JUMPDEST JUMPDEST DUP2 CALLDATALOAD PUSH2 0x8CD DUP5 DUP3 PUSH1 0x20 DUP7 ADD PUSH2 0x868 JUMP JUMPDEST SWAP2 POP POP SWAP3 SWAP2 POP POP JUMP JUMPDEST PUSH0 PUSH2 0x8E8 PUSH2 0x8E3 DUP5 PUSH2 0x7F7 JUMP JUMPDEST PUSH2 0x7DD JUMP JUMPDEST SWAP1 POP DUP1 DUP4 DUP3 MSTORE PUSH1 0x20 DUP3 ADD SWAP1 POP PUSH1 0x20 DUP5 MUL DUP4 ADD DUP6 DUP2 GT ISZERO PUSH2 0x90B JUMPI PUSH2 0x90A PUSH2 0x822 JUMP JUMPDEST JUMPDEST DUP4 JUMPDEST DUP2 DUP2 LT ISZERO PUSH2 0x952 JUMPI DUP1 CALLDATALOAD PUSH8 0xFFFFFFFFFFFFFFFF DUP2 GT ISZERO PUSH2 0x930 JUMPI PUSH2 0x92F PUSH2 0x76B JUMP JUMPDEST JUMPDEST DUP1 DUP7 ADD PUSH2 0x93D DUP10 DUP3 PUSH2 0x8A9 JUMP JUMPDEST DUP6 MSTORE PUSH1 0x20 DUP6 ADD SWAP5 POP POP POP PUSH1 0x20 DUP2 ADD SWAP1 POP PUSH2 0x90D JUMP JUMPDEST POP POP POP SWAP4 SWAP3 POP POP POP JUMP JUMPDEST PUSH0 DUP3 PUSH1 0x1F DUP4 ADD SLT PUSH2 0x970 JUMPI PUSH2 0x96F PUSH2 0x76B JUMP JUMPDEST JUMPDEST DUP2 CALLDATALOAD PUSH2 0x980 DUP5 DUP3 PUSH1 0x20 DUP7 ADD PUSH2 0x8D6 JUMP JUMPDEST SWAP2 POP POP SWAP3 SWAP2 POP POP JUMP JUMPDEST PUSH0 PUSH1 0x20 DUP3 DUP5 SUB SLT ISZERO PUSH2 0x99E JUMPI PUSH2 0x99D PUSH2 0x763 JUMP JUMPDEST JUMPDEST PUSH0 DUP3 ADD CALLDATALOAD PUSH8 0xFFFFFFFFFFFFFFFF DUP2 GT ISZERO PUSH2 0x9BB JUMPI PUSH2 0x9BA PUSH2 0x767 JUMP JUMPDEST JUMPDEST PUSH2 0x9C7 DUP5 DUP3 DUP6 ADD PUSH2 0x95C JUMP JUMPDEST SWAP2 POP POP SWAP3 SWAP2 POP POP JUMP JUMPDEST PUSH0 DUP2 MLOAD SWAP1 POP SWAP2 SWAP1 POP JUMP JUMPDEST PUSH0 DUP3 DUP3 MSTORE PUSH1 0x20 DUP3 ADD SWAP1 POP SWAP3 SWAP2 POP POP JUMP JUMPDEST PUSH0 DUP2 SWAP1 POP PUSH1 0x20 DUP3 ADD SWAP1 POP SWAP2 SWAP1 POP JUMP JUMPDEST PUSH0 DUP2 MLOAD SWAP1 POP SWAP2 SWAP1 POP JUMP JUMPDEST PUSH0 DUP3 DUP3 MSTORE PUSH1 0x20 DUP3 ADD SWAP1 POP SWAP3 SWAP2 POP POP JUMP JUMPDEST PUSH0 JUMPDEST DUP4 DUP2 LT ISZERO PUSH2 0xA30 JUMPI DUP1 DUP3 ADD MLOAD DUP2 DUP5 ADD MSTORE PUSH1 0x20 DUP2 ADD SWAP1 POP PUSH2 0xA15 JUMP JUMPDEST PUSH0 DUP5 DUP5 ADD MSTORE POP POP POP POP JUMP JUMPDEST PUSH0 PUSH2 0xA45 DUP3 PUSH2 0x9F9 JUMP JUMPDEST PUSH2 0xA4F DUP2 DUP6 PUSH2 0xA03 JUMP JUMPDEST SWAP4 POP PUSH2 0xA5F DUP2 DUP6 PUSH1 0x20 DUP7 ADD PUSH2 0xA13 JUMP JUMPDEST PUSH2 0xA68 DUP2 PUSH2 0x76F JUMP JUMPDEST DUP5 ADD SWAP2 POP POP SWAP3 SWAP2 POP POP JUMP JUMPDEST PUSH0 PUSH2 0xA7E DUP4 DUP4 PUSH2 0xA3B JUMP JUMPDEST SWAP1 POP SWAP3 SWAP2 POP POP JUMP JUMPDEST PUSH0 PUSH1 0x20 DUP3 ADD SWAP1 POP SWAP2 SWAP1 POP JUMP JUMPDEST PUSH0 PUSH2 0xA9C DUP3 PUSH2 0x9D0 JUMP JUMPDEST PUSH2 0xAA6 DUP2 DUP6 PUSH2 0x9DA JUMP JUMPDEST SWAP4 POP DUP4 PUSH1 0x20 DUP3 MUL DUP6 ADD PUSH2 0xAB8 DUP6 PUSH2 0x9EA JUMP JUMPDEST DUP1 PUSH0 JUMPDEST DUP6 DUP2 LT ISZERO PUSH2 0xAF3 JUMPI DUP5 DUP5 SUB DUP10 MSTORE DUP2 MLOAD PUSH2 0xAD4 DUP6 DUP3 PUSH2 0xA73 JUMP JUMPDEST SWAP5 POP PUSH2 0xADF DUP4 PUSH2 0xA86 JUMP JUMPDEST SWAP3 POP PUSH1 0x20 DUP11 ADD SWAP10 POP POP PUSH1 0x1 DUP2 ADD SWAP1 POP PUSH2 0xABB JUMP JUMPDEST POP DUP3 SWAP8 POP DUP8 SWAP6 POP POP POP POP POP POP SWAP3 SWAP2 POP POP JUMP JUMPDEST PUSH0 PUSH1 0x20 DUP3 ADD SWAP1 POP DUP2 DUP2 SUB PUSH0 DUP4 ADD MSTORE PUSH2 0xB1D DUP2 DUP5 PUSH2 0xA92 JUMP JUMPDEST SWAP1 POP SWAP3 SWAP2 POP POP JUMP JUMPDEST PUSH0 DUP2 SWAP1 POP SWAP2 SWAP1 POP JUMP JUMPDEST PUSH2 0xB37 DUP2 PUSH2 0xB25 JUMP JUMPDEST DUP2 EQ PUSH2 0xB41 JUMPI PUSH0 DUP1 REVERT JUMPDEST POP JUMP JUMPDEST PUSH0 DUP2 CALLDATALOAD SWAP1 POP PUSH2 0xB52 DUP2 PUSH2 0xB2E JUMP JUMPDEST SWAP3 SWAP2 POP POP JUMP JUMPDEST PUSH0 PUSH1 0x20 DUP3 DUP5 SUB SLT ISZERO PUSH2 0xB6D JUMPI PUSH2 0xB6C PUSH2 0x763 JUMP JUMPDEST JUMPDEST PUSH0 PUSH2 0xB7A DUP5 DUP3 DUP6 ADD PUSH2 0xB44 JUMP JUMPDEST SWAP2 POP POP SWAP3 SWAP2 POP POP JUMP JUMPDEST PUSH0 PUSH2 0xB8D DUP3 PUSH2 0x6C7 JUMP JUMPDEST SWAP1 POP SWAP2 SWAP1 POP JUMP JUMPDEST PUSH2 0xB9D DUP2 PUSH2 0xB83 JUMP JUMPDEST DUP2 EQ PUSH2 0xBA7 JUMPI PUSH0 DUP1 REVERT JUMPDEST POP JUMP JUMPDEST PUSH0 DUP2 CALLDATALOAD SWAP1 POP PUSH2 0xBB8 DUP2 PUSH2 0xB94 JUMP JUMPDEST SWAP3 SWAP2 POP POP JUMP JUMPDEST PUSH0 PUSH1 0x20 DUP3 DUP5 SUB SLT ISZERO PUSH2 0xBD3 JUMPI PUSH2 0xBD2 PUSH2 0x763 JUMP JUMPDEST JUMPDEST PUSH0 PUSH2 0xBE0 DUP5 DUP3 DUP6 ADD PUSH2 0xBAA JUMP JUMPDEST SWAP2 POP POP SWAP3 SWAP2 POP POP JUMP JUMPDEST PUSH2 0xBF2 DUP2 PUSH2 0xB25 JUMP JUMPDEST DUP3 MSTORE POP POP JUMP JUMPDEST PUSH0 PUSH1 0x20 DUP3 ADD SWAP1 POP PUSH2 0xC0B PUSH0 DUP4 ADD DUP5 PUSH2 0xBE9 JUMP JUMPDEST SWAP3 SWAP2 POP POP JUMP JUMPDEST PUSH32 0x4E487B7100000000000000000000000000000000000000000000000000000000 PUSH0 MSTORE PUSH1 0x32 PUSH1 0x4 MSTORE PUSH1 0x24 PUSH0 REVERT JUMPDEST PUSH0 DUP2 SWAP1 POP SWAP3 SWAP2 POP POP JUMP JUMPDEST PUSH0 PUSH2 0xC52 DUP3 PUSH2 0x9F9 JUMP JUMPDEST PUSH2 0xC5C DUP2 DUP6 PUSH2 0xC3E JUMP JUMPDEST SWAP4 POP PUSH2 0xC6C DUP2 DUP6 PUSH1 0x20 DUP7 ADD PUSH2 0xA13 JUMP JUMPDEST DUP1 DUP5 ADD SWAP2 POP POP SWAP3 SWAP2 POP POP JUMP JUMPDEST PUSH0 PUSH2 0xC83 DUP3 DUP5 PUSH2 0xC48 JUMP JUMPDEST SWAP2 POP DUP2 SWAP1 POP SWAP3 SWAP2 POP POP JUMP JUMPDEST PUSH0 DUP2 MLOAD SWAP1 POP SWAP2 SWAP1 POP JUMP JUMPDEST PUSH0 DUP3 DUP3 MSTORE PUSH1 0x20 DUP3 ADD SWAP1 POP SWAP3 SWAP2 POP POP JUMP JUMPDEST PUSH0 PUSH2 0xCB2 DUP3 PUSH2 0xC8E JUMP JUMPDEST PUSH2 0xCBC DUP2 DUP6 PUSH2 0xC98 JUMP JUMPDEST SWAP4 POP PUSH2 0xCCC DUP2 DUP6 PUSH1 0x20 DUP7 ADD PUSH2 0xA13 JUMP JUMPDEST PUSH2 0xCD5 DUP2 PUSH2 0x76F JUMP JUMPDEST DUP5 ADD SWAP2 POP POP SWAP3 SWAP2 POP POP JUMP JUMPDEST PUSH0 PUSH1 0x20 DUP3 ADD SWAP1 POP DUP2 DUP2 SUB PUSH0 DUP4 ADD MSTORE PUSH2 0xCF8 DUP2 DUP5 PUSH2 0xCA8 JUMP JUMPDEST SWAP1 POP SWAP3 SWAP2 POP POP JUMP JUMPDEST PUSH0 PUSH8 0xFFFFFFFFFFFFFFFF DUP3 GT ISZERO PUSH2 0xD1A JUMPI PUSH2 0xD19 PUSH2 0x77F JUMP JUMPDEST JUMPDEST PUSH2 0xD23 DUP3 PUSH2 0x76F JUMP JUMPDEST SWAP1 POP PUSH1 0x20 DUP2 ADD SWAP1 POP SWAP2 SWAP1 POP JUMP JUMPDEST PUSH0 PUSH2 0xD42 PUSH2 0xD3D DUP5 PUSH2 0xD00 JUMP JUMPDEST PUSH2 0x7DD JUMP JUMPDEST SWAP1 POP DUP3 DUP2 MSTORE PUSH1 0x20 DUP2 ADD DUP5 DUP5 DUP5 ADD GT ISZERO PUSH2 0xD5E JUMPI PUSH2 0xD5D PUSH2 0x826 JUMP JUMPDEST JUMPDEST PUSH2 0xD69 DUP5 DUP3 DUP6 PUSH2 0xA13 JUMP JUMPDEST POP SWAP4 SWAP3 POP POP POP JUMP JUMPDEST PUSH0 DUP3 PUSH1 0x1F DUP4 ADD SLT PUSH2 0xD85 JUMPI PUSH2 0xD84 PUSH2 0x76B JUMP JUMPDEST JUMPDEST DUP2 MLOAD PUSH2 0xD95 DUP5 DUP3 PUSH1 0x20 DUP7 ADD PUSH2 0xD30 JUMP JUMPDEST SWAP2 POP POP SWAP3 SWAP2 POP POP JUMP JUMPDEST PUSH0 PUSH1 0x20 DUP3 DUP5 SUB SLT ISZERO PUSH2 0xDB3 JUMPI PUSH2 0xDB2 PUSH2 0x763 JUMP JUMPDEST JUMPDEST PUSH0 DUP3 ADD MLOAD PUSH8 0xFFFFFFFFFFFFFFFF DUP2 GT ISZERO PUSH2 0xDD0 JUMPI PUSH2 0xDCF PUSH2 0x767 JUMP JUMPDEST JUMPDEST PUSH2 0xDDC DUP5 DUP3 DUP6 ADD PUSH2 0xD71 JUMP JUMPDEST SWAP2 POP POP SWAP3 SWAP2 POP POP JUMP INVALID LOG2 PUSH5 0x6970667358 0x22 SLT KECCAK256 MOD 0x2F PUSH2 0xC2E5 EXTCODESIZE 0x5C MSTORE 0x4D EXTCODESIZE 0xB9 CODECOPY MSIZE CREATE2 0xCD XOR PUSH17 0xB57AF5864EBC9087DAF4FD166E0AEB6473 PUSH16 0x6C634300081600330000000000000000 "
				},
				"gasEstimates": {
					"creation": {
						"codeDepositCost": "722200",
						"executionCost": "751",
						"totalCost": "722951"
					},
					"external": {
						"batch(bytes[])": "infinite",
						"num()": "2446",
						"pool()": "infinite",
						"setPool(address)": "24715",
						"setVars(uint256)": "infinite",
						"test(uint256)": "infinite",
						"test2WBatch(uint256)": "infinite"
					},
					"internal": {
						"getRevertMsg(bytes memory)": "infinite"
					}
				},
				"methodIdentifiers": {
					"batch(bytes[])": "1e897afb",
					"num()": "4e70b1dc",
					"pool()": "16f0115b",
					"setPool(address)": "4437152a",
					"setVars(uint256)": "6466414b",
					"test(uint256)": "29e99f07",
					"test2WBatch(uint256)": "6e91f185"
				}
			},
			"storageLayout": {
				"storage": [
					{
						"astId": 3,
						"contract": "TESTrOUTER.sol:Router",
						"label": "num",
						"offset": 0,
						"slot": "0",
						"type": "t_uint256"
					},
					{
						"astId": 6,
						"contract": "TESTrOUTER.sol:Router",
						"label": "pool",
						"offset": 0,
						"slot": "1",
						"type": "t_contract(Pool)213"
					}
				],
				"types": {
					"t_contract(Pool)213": {
						"encoding": "inplace",
						"label": "contract Pool",
						"numberOfBytes": "20"
					},
					"t_uint256": {
						"encoding": "inplace",
						"label": "uint256",
						"numberOfBytes": "32"
					}
				}
			},
			"userdoc": {
				"kind": "user",
				"methods": {},
				"version": 1
			}
		}
	}
}