{
	"testInternalVarVsPublic.sol": {
		"TestIntPub": {
			"abi": [
				{
					"inputs": [],
					"stateMutability": "nonpayable",
					"type": "constructor"
				},
				{
					"inputs": [],
					"name": "endTime_public",
					"outputs": [
						{
							"internalType": "uint256",
							"name": "",
							"type": "uint256"
						}
					],
					"stateMutability": "view",
					"type": "function"
				},
				{
					"inputs": [],
					"name": "gas_privateVar_after",
					"outputs": [
						{
							"internalType": "uint256",
							"name": "",
							"type": "uint256"
						}
					],
					"stateMutability": "view",
					"type": "function"
				},
				{
					"inputs": [],
					"name": "gas_privateVar_before",
					"outputs": [
						{
							"internalType": "uint256",
							"name": "",
							"type": "uint256"
						}
					],
					"stateMutability": "view",
					"type": "function"
				},
				{
					"inputs": [],
					"name": "gas_publicVar_after",
					"outputs": [
						{
							"internalType": "uint256",
							"name": "",
							"type": "uint256"
						}
					],
					"stateMutability": "view",
					"type": "function"
				},
				{
					"inputs": [],
					"name": "gas_publicVar_before",
					"outputs": [
						{
							"internalType": "uint256",
							"name": "",
							"type": "uint256"
						}
					],
					"stateMutability": "view",
					"type": "function"
				},
				{
					"inputs": [
						{
							"components": [
								{
									"internalType": "uint256",
									"name": "one",
									"type": "uint256"
								}
							],
							"internalType": "struct TestIntPub.Test",
							"name": "test",
							"type": "tuple"
						}
					],
					"name": "incre",
					"outputs": [
						{
							"components": [
								{
									"internalType": "uint256",
									"name": "one",
									"type": "uint256"
								}
							],
							"internalType": "struct TestIntPub.Test",
							"name": "",
							"type": "tuple"
						}
					],
					"stateMutability": "pure",
					"type": "function"
				},
				{
					"inputs": [
						{
							"internalType": "uint256",
							"name": "user",
							"type": "uint256"
						}
					],
					"name": "pubMapping",
					"outputs": [
						{
							"internalType": "uint256",
							"name": "number",
							"type": "uint256"
						}
					],
					"stateMutability": "view",
					"type": "function"
				},
				{
					"inputs": [],
					"name": "ret",
					"outputs": [
						{
							"components": [
								{
									"internalType": "uint256",
									"name": "one",
									"type": "uint256"
								}
							],
							"internalType": "struct TestIntPub.Test",
							"name": "",
							"type": "tuple"
						}
					],
					"stateMutability": "pure",
					"type": "function"
				},
				{
					"inputs": [],
					"name": "setEndTimePrivate",
					"outputs": [],
					"stateMutability": "nonpayable",
					"type": "function"
				},
				{
					"inputs": [],
					"name": "setEndTimePublic",
					"outputs": [],
					"stateMutability": "nonpayable",
					"type": "function"
				}
			],
			"devdoc": {
				"kind": "dev",
				"methods": {},
				"version": 1
			},
			"evm": {
				"assembly": "    /* \"testInternalVarVsPublic.sol\":62:1801  contract TestIntPub {... */\n  mstore(0x40, 0x80)\n    /* \"testInternalVarVsPublic.sol\":713:819  constructor(){... */\n  callvalue\n  dup1\n  iszero\n  tag_1\n  jumpi\n  0x00\n  dup1\n  revert\ntag_1:\n  pop\n    /* \"testInternalVarVsPublic.sol\":808:810  12 */\n  0x0c\n    /* \"testInternalVarVsPublic.sol\":774:785  privMapping */\n  0x03\n    /* \"testInternalVarVsPublic.sol\":774:797  privMapping[uint256(0)] */\n  0x00\n    /* \"testInternalVarVsPublic.sol\":794:795  0 */\n  dup1\n    /* \"testInternalVarVsPublic.sol\":774:797  privMapping[uint256(0)] */\n  dup2\n  mstore\n  0x20\n  add\n  swap1\n  dup2\n  mstore\n  0x20\n  add\n  0x00\n  keccak256\n    /* \"testInternalVarVsPublic.sol\":774:811  privMapping[uint256(0)] = uint256(12) */\n  dup2\n  swap1\n  sstore\n    /* \"testInternalVarVsPublic.sol\":749:759  pubMapping */\n  0x02\n    /* \"testInternalVarVsPublic.sol\":749:771  pubMapping[uint256(0)] */\n  0x00\n    /* \"testInternalVarVsPublic.sol\":768:769  0 */\n  dup1\n    /* \"testInternalVarVsPublic.sol\":749:771  pubMapping[uint256(0)] */\n  dup2\n  mstore\n  0x20\n  add\n  swap1\n  dup2\n  mstore\n  0x20\n  add\n  0x00\n  keccak256\n    /* \"testInternalVarVsPublic.sol\":749:811  pubMapping[uint256(0)] = privMapping[uint256(0)] = uint256(12) */\n  dup2\n  swap1\n  sstore\n  pop\n    /* \"testInternalVarVsPublic.sol\":62:1801  contract TestIntPub {... */\n  dataSize(sub_0)\n  dup1\n  dataOffset(sub_0)\n  0x00\n  codecopy\n  0x00\n  return\nstop\n\nsub_0: assembly {\n        /* \"testInternalVarVsPublic.sol\":62:1801  contract TestIntPub {... */\n      mstore(0x40, 0x80)\n      callvalue\n      dup1\n      iszero\n      tag_1\n      jumpi\n      0x00\n      dup1\n      revert\n    tag_1:\n      pop\n      jumpi(tag_2, lt(calldatasize, 0x04))\n      shr(0xe0, calldataload(0x00))\n      dup1\n      0x652cfd6c\n      gt\n      tag_13\n      jumpi\n      dup1\n      0x652cfd6c\n      eq\n      tag_8\n      jumpi\n      dup1\n      0xb41e972c\n      eq\n      tag_9\n      jumpi\n      dup1\n      0xbb15f034\n      eq\n      tag_10\n      jumpi\n      dup1\n      0xcc9cf374\n      eq\n      tag_11\n      jumpi\n      dup1\n      0xe6e4ddc2\n      eq\n      tag_12\n      jumpi\n      jump(tag_2)\n    tag_13:\n      dup1\n      0x0456f4c8\n      eq\n      tag_3\n      jumpi\n      dup1\n      0x1b08d96f\n      eq\n      tag_4\n      jumpi\n      dup1\n      0x1d8729f3\n      eq\n      tag_5\n      jumpi\n      dup1\n      0x21847341\n      eq\n      tag_6\n      jumpi\n      dup1\n      0x4dd76ea4\n      eq\n      tag_7\n      jumpi\n    tag_2:\n      0x00\n      dup1\n      revert\n        /* \"testInternalVarVsPublic.sol\":368:402  uint256 public gas_publicVar_after */\n    tag_3:\n      tag_14\n      tag_15\n      jump\t// in\n    tag_14:\n      mload(0x40)\n      tag_16\n      swap2\n      swap1\n      tag_17\n      jump\t// in\n    tag_16:\n      mload(0x40)\n      dup1\n      swap2\n      sub\n      swap1\n      return\n        /* \"testInternalVarVsPublic.sol\":1499:1660  function ret() public pure returns(Test memory) {... */\n    tag_4:\n      tag_18\n      tag_19\n      jump\t// in\n    tag_18:\n      mload(0x40)\n      tag_20\n      swap2\n      swap1\n      tag_21\n      jump\t// in\n    tag_20:\n      mload(0x40)\n      dup1\n      swap2\n      sub\n      swap1\n      return\n        /* \"testInternalVarVsPublic.sol\":91:120  uint256 public endTime_public */\n    tag_5:\n      tag_22\n      tag_23\n      jump\t// in\n    tag_22:\n      mload(0x40)\n      tag_24\n      swap2\n      swap1\n      tag_17\n      jump\t// in\n    tag_24:\n      mload(0x40)\n      dup1\n      swap2\n      sub\n      swap1\n      return\n        /* \"testInternalVarVsPublic.sol\":171:229  mapping (uint256 user => uint256 number) public pubMapping */\n    tag_6:\n      tag_25\n      0x04\n      dup1\n      calldatasize\n      sub\n      dup2\n      add\n      swap1\n      tag_26\n      swap2\n      swap1\n      tag_27\n      jump\t// in\n    tag_26:\n      tag_28\n      jump\t// in\n    tag_25:\n      mload(0x40)\n      tag_29\n      swap2\n      swap1\n      tag_17\n      jump\t// in\n    tag_29:\n      mload(0x40)\n      dup1\n      swap2\n      sub\n      swap1\n      return\n        /* \"testInternalVarVsPublic.sol\":1138:1380  function setEndTimePrivate() external {... */\n    tag_7:\n      tag_30\n      tag_31\n      jump\t// in\n    tag_30:\n      stop\n        /* \"testInternalVarVsPublic.sol\":1668:1798  function incre(Test memory test) public pure returns (Test memory) {... */\n    tag_8:\n      tag_32\n      0x04\n      dup1\n      calldatasize\n      sub\n      dup2\n      add\n      swap1\n      tag_33\n      swap2\n      swap1\n      tag_34\n      jump\t// in\n    tag_33:\n      tag_35\n      jump\t// in\n    tag_32:\n      mload(0x40)\n      tag_36\n      swap2\n      swap1\n      tag_21\n      jump\t// in\n    tag_36:\n      mload(0x40)\n      dup1\n      swap2\n      sub\n      swap1\n      return\n        /* \"testInternalVarVsPublic.sol\":420:456  uint256 public gas_privateVar_before */\n    tag_9:\n      tag_37\n      tag_38\n      jump\t// in\n    tag_37:\n      mload(0x40)\n      tag_39\n      swap2\n      swap1\n      tag_17\n      jump\t// in\n    tag_39:\n      mload(0x40)\n      dup1\n      swap2\n      sub\n      swap1\n      return\n        /* \"testInternalVarVsPublic.sol\":463:498  uint256 public gas_privateVar_after */\n    tag_10:\n      tag_40\n      tag_41\n      jump\t// in\n    tag_40:\n      mload(0x40)\n      tag_42\n      swap2\n      swap1\n      tag_17\n      jump\t// in\n    tag_42:\n      mload(0x40)\n      dup1\n      swap2\n      sub\n      swap1\n      return\n        /* \"testInternalVarVsPublic.sol\":326:361  uint256 public gas_publicVar_before */\n    tag_11:\n      tag_43\n      tag_44\n      jump\t// in\n    tag_43:\n      mload(0x40)\n      tag_45\n      swap2\n      swap1\n      tag_17\n      jump\t// in\n    tag_45:\n      mload(0x40)\n      dup1\n      swap2\n      sub\n      swap1\n      return\n        /* \"testInternalVarVsPublic.sol\":829:1064  function setEndTimePublic() external {... */\n    tag_12:\n      tag_46\n      tag_47\n      jump\t// in\n    tag_46:\n      stop\n        /* \"testInternalVarVsPublic.sol\":368:402  uint256 public gas_publicVar_after */\n    tag_15:\n      sload(0x05)\n      dup2\n      jump\t// out\n        /* \"testInternalVarVsPublic.sol\":1499:1660  function ret() public pure returns(Test memory) {... */\n    tag_19:\n        /* \"testInternalVarVsPublic.sol\":1534:1545  Test memory */\n      tag_48\n      tag_49\n      jump\t// in\n    tag_48:\n        /* \"testInternalVarVsPublic.sol\":1558:1574  Test memory test */\n      tag_51\n      tag_49\n      jump\t// in\n    tag_51:\n        /* \"testInternalVarVsPublic.sol\":1596:1597  1 */\n      0x01\n        /* \"testInternalVarVsPublic.sol\":1585:1589  test */\n      dup2\n        /* \"testInternalVarVsPublic.sol\":1585:1593  test.one */\n      0x00\n      add\n        /* \"testInternalVarVsPublic.sol\":1585:1597  test.one = 1 */\n      dup2\n      dup2\n      mstore\n      pop\n      pop\n        /* \"testInternalVarVsPublic.sol\":1617:1628  incre(test) */\n      tag_52\n        /* \"testInternalVarVsPublic.sol\":1623:1627  test */\n      dup2\n        /* \"testInternalVarVsPublic.sol\":1617:1622  incre */\n      tag_35\n        /* \"testInternalVarVsPublic.sol\":1617:1628  incre(test) */\n      jump\t// in\n    tag_52:\n        /* \"testInternalVarVsPublic.sol\":1610:1628  test = incre(test) */\n      swap1\n      pop\n        /* \"testInternalVarVsPublic.sol\":1648:1652  test */\n      dup1\n        /* \"testInternalVarVsPublic.sol\":1641:1652  return test */\n      swap2\n      pop\n      pop\n        /* \"testInternalVarVsPublic.sol\":1499:1660  function ret() public pure returns(Test memory) {... */\n      swap1\n      jump\t// out\n        /* \"testInternalVarVsPublic.sol\":91:120  uint256 public endTime_public */\n    tag_23:\n      sload(0x00)\n      dup2\n      jump\t// out\n        /* \"testInternalVarVsPublic.sol\":171:229  mapping (uint256 user => uint256 number) public pubMapping */\n    tag_28:\n      mstore(0x20, 0x02)\n      dup1\n      0x00\n      mstore\n      keccak256(0x00, 0x40)\n      0x00\n      swap2\n      pop\n      swap1\n      pop\n      sload\n      dup2\n      jump\t// out\n        /* \"testInternalVarVsPublic.sol\":1138:1380  function setEndTimePrivate() external {... */\n    tag_31:\n        /* \"testInternalVarVsPublic.sol\":1211:1220  gasleft() */\n      gas\n        /* \"testInternalVarVsPublic.sol\":1187:1208  gas_privateVar_before */\n      0x06\n        /* \"testInternalVarVsPublic.sol\":1187:1220  gas_privateVar_before = gasleft() */\n      dup2\n      swap1\n      sstore\n      pop\n        /* \"testInternalVarVsPublic.sol\":1233:1246  uint256 cache */\n      0x00\n        /* \"testInternalVarVsPublic.sol\":1249:1265  endTime_internal */\n      sload(0x01)\n        /* \"testInternalVarVsPublic.sol\":1233:1265  uint256 cache = endTime_internal */\n      swap1\n      pop\n        /* \"testInternalVarVsPublic.sol\":1278:1285  cache++ */\n      dup1\n      dup1\n      tag_54\n      swap1\n      tag_55\n      jump\t// in\n    tag_54:\n      swap2\n      pop\n      pop\n        /* \"testInternalVarVsPublic.sol\":1325:1327  12 */\n      0x0c\n        /* \"testInternalVarVsPublic.sol\":1317:1322  cache */\n      dup2\n        /* \"testInternalVarVsPublic.sol\":1317:1327  cache + 12 */\n      tag_56\n      swap2\n      swap1\n      tag_57\n      jump\t// in\n    tag_56:\n        /* \"testInternalVarVsPublic.sol\":1298:1314  endTime_internal */\n      0x01\n        /* \"testInternalVarVsPublic.sol\":1298:1327  endTime_internal = cache + 12 */\n      dup2\n      swap1\n      sstore\n      pop\n        /* \"testInternalVarVsPublic.sol\":1363:1372  gasleft() */\n      gas\n        /* \"testInternalVarVsPublic.sol\":1340:1360  gas_privateVar_after */\n      0x07\n        /* \"testInternalVarVsPublic.sol\":1340:1372  gas_privateVar_after = gasleft() */\n      dup2\n      swap1\n      sstore\n      pop\n        /* \"testInternalVarVsPublic.sol\":1176:1380  {... */\n      pop\n        /* \"testInternalVarVsPublic.sol\":1138:1380  function setEndTimePrivate() external {... */\n      jump\t// out\n        /* \"testInternalVarVsPublic.sol\":1668:1798  function incre(Test memory test) public pure returns (Test memory) {... */\n    tag_35:\n        /* \"testInternalVarVsPublic.sol\":1722:1733  Test memory */\n      tag_58\n      tag_49\n      jump\t// in\n    tag_58:\n        /* \"testInternalVarVsPublic.sol\":1756:1760  test */\n      dup2\n        /* \"testInternalVarVsPublic.sol\":1756:1764  test.one */\n      0x00\n      add\n        /* \"testInternalVarVsPublic.sol\":1756:1766  test.one++ */\n      dup1\n      mload\n      dup1\n      swap2\n      swap1\n      tag_60\n      swap1\n      tag_55\n      jump\t// in\n    tag_60:\n      dup2\n      mstore\n      pop\n      pop\n        /* \"testInternalVarVsPublic.sol\":1786:1790  test */\n      dup2\n        /* \"testInternalVarVsPublic.sol\":1779:1790  return test */\n      swap1\n      pop\n        /* \"testInternalVarVsPublic.sol\":1668:1798  function incre(Test memory test) public pure returns (Test memory) {... */\n      swap2\n      swap1\n      pop\n      jump\t// out\n        /* \"testInternalVarVsPublic.sol\":420:456  uint256 public gas_privateVar_before */\n    tag_38:\n      sload(0x06)\n      dup2\n      jump\t// out\n        /* \"testInternalVarVsPublic.sol\":463:498  uint256 public gas_privateVar_after */\n    tag_41:\n      sload(0x07)\n      dup2\n      jump\t// out\n        /* \"testInternalVarVsPublic.sol\":326:361  uint256 public gas_publicVar_before */\n    tag_44:\n      sload(0x04)\n      dup2\n      jump\t// out\n        /* \"testInternalVarVsPublic.sol\":829:1064  function setEndTimePublic() external {... */\n    tag_47:\n        /* \"testInternalVarVsPublic.sol\":900:909  gasleft() */\n      gas\n        /* \"testInternalVarVsPublic.sol\":877:897  gas_publicVar_before */\n      0x04\n        /* \"testInternalVarVsPublic.sol\":877:909  gas_publicVar_before = gasleft() */\n      dup2\n      swap1\n      sstore\n      pop\n        /* \"testInternalVarVsPublic.sol\":922:935  uint256 cache */\n      0x00\n        /* \"testInternalVarVsPublic.sol\":938:952  endTime_public */\n      dup1\n      sload\n        /* \"testInternalVarVsPublic.sol\":922:952  uint256 cache = endTime_public */\n      swap1\n      pop\n        /* \"testInternalVarVsPublic.sol\":965:972  cache++ */\n      dup1\n      dup1\n      tag_62\n      swap1\n      tag_55\n      jump\t// in\n    tag_62:\n      swap2\n      pop\n      pop\n        /* \"testInternalVarVsPublic.sol\":1010:1012  12 */\n      0x0c\n        /* \"testInternalVarVsPublic.sol\":1002:1007  cache */\n      dup2\n        /* \"testInternalVarVsPublic.sol\":1002:1012  cache + 12 */\n      tag_63\n      swap2\n      swap1\n      tag_57\n      jump\t// in\n    tag_63:\n        /* \"testInternalVarVsPublic.sol\":985:999  endTime_public */\n      0x00\n        /* \"testInternalVarVsPublic.sol\":985:1012  endTime_public = cache + 12 */\n      dup2\n      swap1\n      sstore\n      pop\n        /* \"testInternalVarVsPublic.sol\":1047:1056  gasleft() */\n      gas\n        /* \"testInternalVarVsPublic.sol\":1025:1044  gas_publicVar_after */\n      0x05\n        /* \"testInternalVarVsPublic.sol\":1025:1056  gas_publicVar_after = gasleft() */\n      dup2\n      swap1\n      sstore\n      pop\n        /* \"testInternalVarVsPublic.sol\":866:1064  {... */\n      pop\n        /* \"testInternalVarVsPublic.sol\":829:1064  function setEndTimePublic() external {... */\n      jump\t// out\n    tag_49:\n      mload(0x40)\n      dup1\n      0x20\n      add\n      0x40\n      mstore\n      dup1\n      0x00\n      dup2\n      mstore\n      pop\n      swap1\n      jump\t// out\n        /* \"#utility.yul\":7:84   */\n    tag_64:\n        /* \"#utility.yul\":44:51   */\n      0x00\n        /* \"#utility.yul\":73:78   */\n      dup2\n        /* \"#utility.yul\":62:78   */\n      swap1\n      pop\n        /* \"#utility.yul\":7:84   */\n      swap2\n      swap1\n      pop\n      jump\t// out\n        /* \"#utility.yul\":90:208   */\n    tag_65:\n        /* \"#utility.yul\":177:201   */\n      tag_84\n        /* \"#utility.yul\":195:200   */\n      dup2\n        /* \"#utility.yul\":177:201   */\n      tag_64\n      jump\t// in\n    tag_84:\n        /* \"#utility.yul\":172:175   */\n      dup3\n        /* \"#utility.yul\":165:202   */\n      mstore\n        /* \"#utility.yul\":90:208   */\n      pop\n      pop\n      jump\t// out\n        /* \"#utility.yul\":214:436   */\n    tag_17:\n        /* \"#utility.yul\":307:311   */\n      0x00\n        /* \"#utility.yul\":345:347   */\n      0x20\n        /* \"#utility.yul\":334:343   */\n      dup3\n        /* \"#utility.yul\":330:348   */\n      add\n        /* \"#utility.yul\":322:348   */\n      swap1\n      pop\n        /* \"#utility.yul\":358:429   */\n      tag_86\n        /* \"#utility.yul\":426:427   */\n      0x00\n        /* \"#utility.yul\":415:424   */\n      dup4\n        /* \"#utility.yul\":411:428   */\n      add\n        /* \"#utility.yul\":402:408   */\n      dup5\n        /* \"#utility.yul\":358:429   */\n      tag_65\n      jump\t// in\n    tag_86:\n        /* \"#utility.yul\":214:436   */\n      swap3\n      swap2\n      pop\n      pop\n      jump\t// out\n        /* \"#utility.yul\":442:550   */\n    tag_66:\n        /* \"#utility.yul\":519:543   */\n      tag_88\n        /* \"#utility.yul\":537:542   */\n      dup2\n        /* \"#utility.yul\":519:543   */\n      tag_64\n      jump\t// in\n    tag_88:\n        /* \"#utility.yul\":514:517   */\n      dup3\n        /* \"#utility.yul\":507:544   */\n      mstore\n        /* \"#utility.yul\":442:550   */\n      pop\n      pop\n      jump\t// out\n        /* \"#utility.yul\":612:936   */\n    tag_67:\n        /* \"#utility.yul\":751:755   */\n      0x20\n        /* \"#utility.yul\":746:749   */\n      dup3\n        /* \"#utility.yul\":742:756   */\n      add\n        /* \"#utility.yul\":837:841   */\n      0x00\n        /* \"#utility.yul\":830:835   */\n      dup3\n        /* \"#utility.yul\":826:842   */\n      add\n        /* \"#utility.yul\":820:843   */\n      mload\n        /* \"#utility.yul\":856:919   */\n      tag_90\n        /* \"#utility.yul\":913:917   */\n      0x00\n        /* \"#utility.yul\":908:911   */\n      dup6\n        /* \"#utility.yul\":904:918   */\n      add\n        /* \"#utility.yul\":890:902   */\n      dup3\n        /* \"#utility.yul\":856:919   */\n      tag_66\n      jump\t// in\n    tag_90:\n        /* \"#utility.yul\":766:929   */\n      pop\n        /* \"#utility.yul\":720:936   */\n      pop\n        /* \"#utility.yul\":612:936   */\n      pop\n      pop\n      jump\t// out\n        /* \"#utility.yul\":942:1248   */\n    tag_21:\n        /* \"#utility.yul\":1077:1081   */\n      0x00\n        /* \"#utility.yul\":1115:1117   */\n      0x20\n        /* \"#utility.yul\":1104:1113   */\n      dup3\n        /* \"#utility.yul\":1100:1118   */\n      add\n        /* \"#utility.yul\":1092:1118   */\n      swap1\n      pop\n        /* \"#utility.yul\":1128:1241   */\n      tag_92\n        /* \"#utility.yul\":1238:1239   */\n      0x00\n        /* \"#utility.yul\":1227:1236   */\n      dup4\n        /* \"#utility.yul\":1223:1240   */\n      add\n        /* \"#utility.yul\":1214:1220   */\n      dup5\n        /* \"#utility.yul\":1128:1241   */\n      tag_67\n      jump\t// in\n    tag_92:\n        /* \"#utility.yul\":942:1248   */\n      swap3\n      swap2\n      pop\n      pop\n      jump\t// out\n        /* \"#utility.yul\":1254:1329   */\n    tag_68:\n        /* \"#utility.yul\":1287:1293   */\n      0x00\n        /* \"#utility.yul\":1320:1322   */\n      0x40\n        /* \"#utility.yul\":1314:1323   */\n      mload\n        /* \"#utility.yul\":1304:1323   */\n      swap1\n      pop\n        /* \"#utility.yul\":1254:1329   */\n      swap1\n      jump\t// out\n        /* \"#utility.yul\":1335:1452   */\n    tag_69:\n        /* \"#utility.yul\":1444:1445   */\n      0x00\n        /* \"#utility.yul\":1441:1442   */\n      dup1\n        /* \"#utility.yul\":1434:1446   */\n      revert\n        /* \"#utility.yul\":1581:1703   */\n    tag_71:\n        /* \"#utility.yul\":1654:1678   */\n      tag_97\n        /* \"#utility.yul\":1672:1677   */\n      dup2\n        /* \"#utility.yul\":1654:1678   */\n      tag_64\n      jump\t// in\n    tag_97:\n        /* \"#utility.yul\":1647:1652   */\n      dup2\n        /* \"#utility.yul\":1644:1679   */\n      eq\n        /* \"#utility.yul\":1634:1697   */\n      tag_98\n      jumpi\n        /* \"#utility.yul\":1693:1694   */\n      0x00\n        /* \"#utility.yul\":1690:1691   */\n      dup1\n        /* \"#utility.yul\":1683:1695   */\n      revert\n        /* \"#utility.yul\":1634:1697   */\n    tag_98:\n        /* \"#utility.yul\":1581:1703   */\n      pop\n      jump\t// out\n        /* \"#utility.yul\":1709:1848   */\n    tag_72:\n        /* \"#utility.yul\":1755:1760   */\n      0x00\n        /* \"#utility.yul\":1793:1799   */\n      dup2\n        /* \"#utility.yul\":1780:1800   */\n      calldataload\n        /* \"#utility.yul\":1771:1800   */\n      swap1\n      pop\n        /* \"#utility.yul\":1809:1842   */\n      tag_100\n        /* \"#utility.yul\":1836:1841   */\n      dup2\n        /* \"#utility.yul\":1809:1842   */\n      tag_71\n      jump\t// in\n    tag_100:\n        /* \"#utility.yul\":1709:1848   */\n      swap3\n      swap2\n      pop\n      pop\n      jump\t// out\n        /* \"#utility.yul\":1854:2183   */\n    tag_27:\n        /* \"#utility.yul\":1913:1919   */\n      0x00\n        /* \"#utility.yul\":1962:1964   */\n      0x20\n        /* \"#utility.yul\":1950:1959   */\n      dup3\n        /* \"#utility.yul\":1941:1948   */\n      dup5\n        /* \"#utility.yul\":1937:1960   */\n      sub\n        /* \"#utility.yul\":1933:1965   */\n      slt\n        /* \"#utility.yul\":1930:2049   */\n      iszero\n      tag_102\n      jumpi\n        /* \"#utility.yul\":1968:2047   */\n      tag_103\n      tag_69\n      jump\t// in\n    tag_103:\n        /* \"#utility.yul\":1930:2049   */\n    tag_102:\n        /* \"#utility.yul\":2088:2089   */\n      0x00\n        /* \"#utility.yul\":2113:2166   */\n      tag_104\n        /* \"#utility.yul\":2158:2165   */\n      dup5\n        /* \"#utility.yul\":2149:2155   */\n      dup3\n        /* \"#utility.yul\":2138:2147   */\n      dup6\n        /* \"#utility.yul\":2134:2156   */\n      add\n        /* \"#utility.yul\":2113:2166   */\n      tag_72\n      jump\t// in\n    tag_104:\n        /* \"#utility.yul\":2103:2166   */\n      swap2\n      pop\n        /* \"#utility.yul\":2059:2176   */\n      pop\n        /* \"#utility.yul\":1854:2183   */\n      swap3\n      swap2\n      pop\n      pop\n      jump\t// out\n        /* \"#utility.yul\":2189:2306   */\n    tag_73:\n        /* \"#utility.yul\":2298:2299   */\n      0x00\n        /* \"#utility.yul\":2295:2296   */\n      dup1\n        /* \"#utility.yul\":2288:2300   */\n      revert\n        /* \"#utility.yul\":2312:2414   */\n    tag_74:\n        /* \"#utility.yul\":2353:2359   */\n      0x00\n        /* \"#utility.yul\":2404:2406   */\n      0x1f\n        /* \"#utility.yul\":2400:2407   */\n      not\n        /* \"#utility.yul\":2395:2397   */\n      0x1f\n        /* \"#utility.yul\":2388:2393   */\n      dup4\n        /* \"#utility.yul\":2384:2398   */\n      add\n        /* \"#utility.yul\":2380:2408   */\n      and\n        /* \"#utility.yul\":2370:2408   */\n      swap1\n      pop\n        /* \"#utility.yul\":2312:2414   */\n      swap2\n      swap1\n      pop\n      jump\t// out\n        /* \"#utility.yul\":2420:2600   */\n    tag_75:\n        /* \"#utility.yul\":2468:2545   */\n      0x4e487b7100000000000000000000000000000000000000000000000000000000\n        /* \"#utility.yul\":2465:2466   */\n      0x00\n        /* \"#utility.yul\":2458:2546   */\n      mstore\n        /* \"#utility.yul\":2565:2569   */\n      0x41\n        /* \"#utility.yul\":2562:2563   */\n      0x04\n        /* \"#utility.yul\":2555:2570   */\n      mstore\n        /* \"#utility.yul\":2589:2593   */\n      0x24\n        /* \"#utility.yul\":2586:2587   */\n      0x00\n        /* \"#utility.yul\":2579:2594   */\n      revert\n        /* \"#utility.yul\":2606:2887   */\n    tag_76:\n        /* \"#utility.yul\":2689:2716   */\n      tag_109\n        /* \"#utility.yul\":2711:2715   */\n      dup3\n        /* \"#utility.yul\":2689:2716   */\n      tag_74\n      jump\t// in\n    tag_109:\n        /* \"#utility.yul\":2681:2687   */\n      dup2\n        /* \"#utility.yul\":2677:2717   */\n      add\n        /* \"#utility.yul\":2819:2825   */\n      dup2\n        /* \"#utility.yul\":2807:2817   */\n      dup2\n        /* \"#utility.yul\":2804:2826   */\n      lt\n        /* \"#utility.yul\":2783:2801   */\n      0xffffffffffffffff\n        /* \"#utility.yul\":2771:2781   */\n      dup3\n        /* \"#utility.yul\":2768:2802   */\n      gt\n        /* \"#utility.yul\":2765:2827   */\n      or\n        /* \"#utility.yul\":2762:2850   */\n      iszero\n      tag_110\n      jumpi\n        /* \"#utility.yul\":2830:2848   */\n      tag_111\n      tag_75\n      jump\t// in\n    tag_111:\n        /* \"#utility.yul\":2762:2850   */\n    tag_110:\n        /* \"#utility.yul\":2870:2880   */\n      dup1\n        /* \"#utility.yul\":2866:2868   */\n      0x40\n        /* \"#utility.yul\":2859:2881   */\n      mstore\n        /* \"#utility.yul\":2649:2887   */\n      pop\n        /* \"#utility.yul\":2606:2887   */\n      pop\n      pop\n      jump\t// out\n        /* \"#utility.yul\":2893:3022   */\n    tag_77:\n        /* \"#utility.yul\":2927:2933   */\n      0x00\n        /* \"#utility.yul\":2954:2974   */\n      tag_113\n      tag_68\n      jump\t// in\n    tag_113:\n        /* \"#utility.yul\":2944:2974   */\n      swap1\n      pop\n        /* \"#utility.yul\":2983:3016   */\n      tag_114\n        /* \"#utility.yul\":3011:3015   */\n      dup3\n        /* \"#utility.yul\":3003:3009   */\n      dup3\n        /* \"#utility.yul\":2983:3016   */\n      tag_76\n      jump\t// in\n    tag_114:\n        /* \"#utility.yul\":2893:3022   */\n      swap2\n      swap1\n      pop\n      jump\t// out\n        /* \"#utility.yul\":3181:3589   */\n    tag_79:\n        /* \"#utility.yul\":3251:3256   */\n      0x00\n        /* \"#utility.yul\":3295:3299   */\n      0x20\n        /* \"#utility.yul\":3283:3292   */\n      dup3\n        /* \"#utility.yul\":3278:3281   */\n      dup5\n        /* \"#utility.yul\":3274:3293   */\n      sub\n        /* \"#utility.yul\":3270:3300   */\n      slt\n        /* \"#utility.yul\":3267:3384   */\n      iszero\n      tag_117\n      jumpi\n        /* \"#utility.yul\":3303:3382   */\n      tag_118\n      tag_73\n      jump\t// in\n    tag_118:\n        /* \"#utility.yul\":3267:3384   */\n    tag_117:\n        /* \"#utility.yul\":3402:3423   */\n      tag_119\n        /* \"#utility.yul\":3418:3422   */\n      0x20\n        /* \"#utility.yul\":3402:3423   */\n      tag_77\n      jump\t// in\n    tag_119:\n        /* \"#utility.yul\":3393:3423   */\n      swap1\n      pop\n        /* \"#utility.yul\":3481:3482   */\n      0x00\n        /* \"#utility.yul\":3521:3570   */\n      tag_120\n        /* \"#utility.yul\":3566:3569   */\n      dup5\n        /* \"#utility.yul\":3557:3563   */\n      dup3\n        /* \"#utility.yul\":3546:3555   */\n      dup6\n        /* \"#utility.yul\":3542:3564   */\n      add\n        /* \"#utility.yul\":3521:3570   */\n      tag_72\n      jump\t// in\n    tag_120:\n        /* \"#utility.yul\":3514:3518   */\n      0x00\n        /* \"#utility.yul\":3507:3512   */\n      dup4\n        /* \"#utility.yul\":3503:3519   */\n      add\n        /* \"#utility.yul\":3496:3571   */\n      mstore\n        /* \"#utility.yul\":3433:3582   */\n      pop\n        /* \"#utility.yul\":3181:3589   */\n      swap3\n      swap2\n      pop\n      pop\n      jump\t// out\n        /* \"#utility.yul\":3595:3966   */\n    tag_34:\n        /* \"#utility.yul\":3675:3681   */\n      0x00\n        /* \"#utility.yul\":3724:3726   */\n      0x20\n        /* \"#utility.yul\":3712:3721   */\n      dup3\n        /* \"#utility.yul\":3703:3710   */\n      dup5\n        /* \"#utility.yul\":3699:3722   */\n      sub\n        /* \"#utility.yul\":3695:3727   */\n      slt\n        /* \"#utility.yul\":3692:3811   */\n      iszero\n      tag_122\n      jumpi\n        /* \"#utility.yul\":3730:3809   */\n      tag_123\n      tag_69\n      jump\t// in\n    tag_123:\n        /* \"#utility.yul\":3692:3811   */\n    tag_122:\n        /* \"#utility.yul\":3850:3851   */\n      0x00\n        /* \"#utility.yul\":3875:3949   */\n      tag_124\n        /* \"#utility.yul\":3941:3948   */\n      dup5\n        /* \"#utility.yul\":3932:3938   */\n      dup3\n        /* \"#utility.yul\":3921:3930   */\n      dup6\n        /* \"#utility.yul\":3917:3939   */\n      add\n        /* \"#utility.yul\":3875:3949   */\n      tag_79\n      jump\t// in\n    tag_124:\n        /* \"#utility.yul\":3865:3949   */\n      swap2\n      pop\n        /* \"#utility.yul\":3821:3959   */\n      pop\n        /* \"#utility.yul\":3595:3966   */\n      swap3\n      swap2\n      pop\n      pop\n      jump\t// out\n        /* \"#utility.yul\":3972:4152   */\n    tag_80:\n        /* \"#utility.yul\":4020:4097   */\n      0x4e487b7100000000000000000000000000000000000000000000000000000000\n        /* \"#utility.yul\":4017:4018   */\n      0x00\n        /* \"#utility.yul\":4010:4098   */\n      mstore\n        /* \"#utility.yul\":4117:4121   */\n      0x11\n        /* \"#utility.yul\":4114:4115   */\n      0x04\n        /* \"#utility.yul\":4107:4122   */\n      mstore\n        /* \"#utility.yul\":4141:4145   */\n      0x24\n        /* \"#utility.yul\":4138:4139   */\n      0x00\n        /* \"#utility.yul\":4131:4146   */\n      revert\n        /* \"#utility.yul\":4158:4391   */\n    tag_55:\n        /* \"#utility.yul\":4197:4200   */\n      0x00\n        /* \"#utility.yul\":4220:4244   */\n      tag_127\n        /* \"#utility.yul\":4238:4243   */\n      dup3\n        /* \"#utility.yul\":4220:4244   */\n      tag_64\n      jump\t// in\n    tag_127:\n        /* \"#utility.yul\":4211:4244   */\n      swap2\n      pop\n        /* \"#utility.yul\":4266:4332   */\n      0xffffffffffffffffffffffffffffffffffffffffffffffffffffffffffffffff\n        /* \"#utility.yul\":4259:4264   */\n      dup3\n        /* \"#utility.yul\":4256:4333   */\n      sub\n        /* \"#utility.yul\":4253:4356   */\n      tag_128\n      jumpi\n        /* \"#utility.yul\":4336:4354   */\n      tag_129\n      tag_80\n      jump\t// in\n    tag_129:\n        /* \"#utility.yul\":4253:4356   */\n    tag_128:\n        /* \"#utility.yul\":4383:4384   */\n      0x01\n        /* \"#utility.yul\":4376:4381   */\n      dup3\n        /* \"#utility.yul\":4372:4385   */\n      add\n        /* \"#utility.yul\":4365:4385   */\n      swap1\n      pop\n        /* \"#utility.yul\":4158:4391   */\n      swap2\n      swap1\n      pop\n      jump\t// out\n        /* \"#utility.yul\":4397:4588   */\n    tag_57:\n        /* \"#utility.yul\":4437:4440   */\n      0x00\n        /* \"#utility.yul\":4456:4476   */\n      tag_131\n        /* \"#utility.yul\":4474:4475   */\n      dup3\n        /* \"#utility.yul\":4456:4476   */\n      tag_64\n      jump\t// in\n    tag_131:\n        /* \"#utility.yul\":4451:4476   */\n      swap2\n      pop\n        /* \"#utility.yul\":4490:4510   */\n      tag_132\n        /* \"#utility.yul\":4508:4509   */\n      dup4\n        /* \"#utility.yul\":4490:4510   */\n      tag_64\n      jump\t// in\n    tag_132:\n        /* \"#utility.yul\":4485:4510   */\n      swap3\n      pop\n        /* \"#utility.yul\":4533:4534   */\n      dup3\n        /* \"#utility.yul\":4530:4531   */\n      dup3\n        /* \"#utility.yul\":4526:4535   */\n      add\n        /* \"#utility.yul\":4519:4535   */\n      swap1\n      pop\n        /* \"#utility.yul\":4554:4557   */\n      dup1\n        /* \"#utility.yul\":4551:4552   */\n      dup3\n        /* \"#utility.yul\":4548:4558   */\n      gt\n        /* \"#utility.yul\":4545:4581   */\n      iszero\n      tag_133\n      jumpi\n        /* \"#utility.yul\":4561:4579   */\n      tag_134\n      tag_80\n      jump\t// in\n    tag_134:\n        /* \"#utility.yul\":4545:4581   */\n    tag_133:\n        /* \"#utility.yul\":4397:4588   */\n      swap3\n      swap2\n      pop\n      pop\n      jump\t// out\n\n    auxdata: 0xa26469706673582212206ec37df40d19ed7e69f6bb86b93feba9789e14c3f71dec36724a6fa3f408e9a964736f6c634300081a0033\n}\n",
				"bytecode": {
					"linkReferences": {},
					"object": "6080604052348015600e575f80fd5b50600c60035f8081526020019081526020015f2081905560025f8081526020019081526020015f208190555061056d806100475f395ff3fe608060405234801561000f575f80fd5b506004361061009c575f3560e01c8063652cfd6c11610064578063652cfd6c14610134578063b41e972c14610164578063bb15f03414610182578063cc9cf374146101a0578063e6e4ddc2146101be5761009c565b80630456f4c8146100a05780631b08d96f146100be5780631d8729f3146100dc57806321847341146100fa5780634dd76ea41461012a575b5f80fd5b6100a86101c8565b6040516100b591906102e3565b60405180910390f35b6100c66101ce565b6040516100d39190610325565b60405180910390f35b6100e46101fa565b6040516100f191906102e3565b60405180910390f35b610114600480360381019061010f9190610375565b6101ff565b60405161012191906102e3565b60405180910390f35b610132610214565b005b61014e60048036038101906101499190610465565b61024c565b60405161015b9190610325565b60405180910390f35b61016c610271565b60405161017991906102e3565b60405180910390f35b61018a610277565b60405161019791906102e3565b60405180910390f35b6101a861027d565b6040516101b591906102e3565b60405180910390f35b6101c6610283565b005b60055481565b6101d66102b9565b6101de6102b9565b6001815f0181815250506101f18161024c565b90508091505090565b5f5481565b6002602052805f5260405f205f915090505481565b5a6006819055505f6001549050808061022c906104bd565b915050600c8161023c9190610504565b6001819055505a60078190555050565b6102546102b9565b815f018051809190610265906104bd565b81525050819050919050565b60065481565b60075481565b60045481565b5a6004819055505f80549050808061029a906104bd565b915050600c816102aa9190610504565b5f819055505a60058190555050565b60405180602001604052805f81525090565b5f819050919050565b6102dd816102cb565b82525050565b5f6020820190506102f65f8301846102d4565b92915050565b610305816102cb565b82525050565b602082015f82015161031f5f8501826102fc565b50505050565b5f6020820190506103385f83018461030b565b92915050565b5f604051905090565b5f80fd5b610354816102cb565b811461035e575f80fd5b50565b5f8135905061036f8161034b565b92915050565b5f6020828403121561038a57610389610347565b5b5f61039784828501610361565b91505092915050565b5f80fd5b5f601f19601f8301169050919050565b7f4e487b71000000000000000000000000000000000000000000000000000000005f52604160045260245ffd5b6103ea826103a4565b810181811067ffffffffffffffff82111715610409576104086103b4565b5b80604052505050565b5f61041b61033e565b905061042782826103e1565b919050565b5f60208284031215610441576104406103a0565b5b61044b6020610412565b90505f61045a84828501610361565b5f8301525092915050565b5f6020828403121561047a57610479610347565b5b5f6104878482850161042c565b91505092915050565b7f4e487b71000000000000000000000000000000000000000000000000000000005f52601160045260245ffd5b5f6104c7826102cb565b91507fffffffffffffffffffffffffffffffffffffffffffffffffffffffffffffffff82036104f9576104f8610490565b5b600182019050919050565b5f61050e826102cb565b9150610519836102cb565b925082820190508082111561053157610530610490565b5b9291505056fea26469706673582212206ec37df40d19ed7e69f6bb86b93feba9789e14c3f71dec36724a6fa3f408e9a964736f6c634300081a0033",
					"opcodes": "PUSH1 0x80 PUSH1 0x40 MSTORE CALLVALUE DUP1 ISZERO PUSH1 0xE JUMPI PUSH0 DUP1 REVERT JUMPDEST POP PUSH1 0xC PUSH1 0x3 PUSH0 DUP1 DUP2 MSTORE PUSH1 0x20 ADD SWAP1 DUP2 MSTORE PUSH1 0x20 ADD PUSH0 KECCAK256 DUP2 SWAP1 SSTORE PUSH1 0x2 PUSH0 DUP1 DUP2 MSTORE PUSH1 0x20 ADD SWAP1 DUP2 MSTORE PUSH1 0x20 ADD PUSH0 KECCAK256 DUP2 SWAP1 SSTORE POP PUSH2 0x56D DUP1 PUSH2 0x47 PUSH0 CODECOPY PUSH0 RETURN INVALID PUSH1 0x80 PUSH1 0x40 MSTORE CALLVALUE DUP1 ISZERO PUSH2 0xF JUMPI PUSH0 DUP1 REVERT JUMPDEST POP PUSH1 0x4 CALLDATASIZE LT PUSH2 0x9C JUMPI PUSH0 CALLDATALOAD PUSH1 0xE0 SHR DUP1 PUSH4 0x652CFD6C GT PUSH2 0x64 JUMPI DUP1 PUSH4 0x652CFD6C EQ PUSH2 0x134 JUMPI DUP1 PUSH4 0xB41E972C EQ PUSH2 0x164 JUMPI DUP1 PUSH4 0xBB15F034 EQ PUSH2 0x182 JUMPI DUP1 PUSH4 0xCC9CF374 EQ PUSH2 0x1A0 JUMPI DUP1 PUSH4 0xE6E4DDC2 EQ PUSH2 0x1BE JUMPI PUSH2 0x9C JUMP JUMPDEST DUP1 PUSH4 0x456F4C8 EQ PUSH2 0xA0 JUMPI DUP1 PUSH4 0x1B08D96F EQ PUSH2 0xBE JUMPI DUP1 PUSH4 0x1D8729F3 EQ PUSH2 0xDC JUMPI DUP1 PUSH4 0x21847341 EQ PUSH2 0xFA JUMPI DUP1 PUSH4 0x4DD76EA4 EQ PUSH2 0x12A JUMPI JUMPDEST PUSH0 DUP1 REVERT JUMPDEST PUSH2 0xA8 PUSH2 0x1C8 JUMP JUMPDEST PUSH1 0x40 MLOAD PUSH2 0xB5 SWAP2 SWAP1 PUSH2 0x2E3 JUMP JUMPDEST PUSH1 0x40 MLOAD DUP1 SWAP2 SUB SWAP1 RETURN JUMPDEST PUSH2 0xC6 PUSH2 0x1CE JUMP JUMPDEST PUSH1 0x40 MLOAD PUSH2 0xD3 SWAP2 SWAP1 PUSH2 0x325 JUMP JUMPDEST PUSH1 0x40 MLOAD DUP1 SWAP2 SUB SWAP1 RETURN JUMPDEST PUSH2 0xE4 PUSH2 0x1FA JUMP JUMPDEST PUSH1 0x40 MLOAD PUSH2 0xF1 SWAP2 SWAP1 PUSH2 0x2E3 JUMP JUMPDEST PUSH1 0x40 MLOAD DUP1 SWAP2 SUB SWAP1 RETURN JUMPDEST PUSH2 0x114 PUSH1 0x4 DUP1 CALLDATASIZE SUB DUP2 ADD SWAP1 PUSH2 0x10F SWAP2 SWAP1 PUSH2 0x375 JUMP JUMPDEST PUSH2 0x1FF JUMP JUMPDEST PUSH1 0x40 MLOAD PUSH2 0x121 SWAP2 SWAP1 PUSH2 0x2E3 JUMP JUMPDEST PUSH1 0x40 MLOAD DUP1 SWAP2 SUB SWAP1 RETURN JUMPDEST PUSH2 0x132 PUSH2 0x214 JUMP JUMPDEST STOP JUMPDEST PUSH2 0x14E PUSH1 0x4 DUP1 CALLDATASIZE SUB DUP2 ADD SWAP1 PUSH2 0x149 SWAP2 SWAP1 PUSH2 0x465 JUMP JUMPDEST PUSH2 0x24C JUMP JUMPDEST PUSH1 0x40 MLOAD PUSH2 0x15B SWAP2 SWAP1 PUSH2 0x325 JUMP JUMPDEST PUSH1 0x40 MLOAD DUP1 SWAP2 SUB SWAP1 RETURN JUMPDEST PUSH2 0x16C PUSH2 0x271 JUMP JUMPDEST PUSH1 0x40 MLOAD PUSH2 0x179 SWAP2 SWAP1 PUSH2 0x2E3 JUMP JUMPDEST PUSH1 0x40 MLOAD DUP1 SWAP2 SUB SWAP1 RETURN JUMPDEST PUSH2 0x18A PUSH2 0x277 JUMP JUMPDEST PUSH1 0x40 MLOAD PUSH2 0x197 SWAP2 SWAP1 PUSH2 0x2E3 JUMP JUMPDEST PUSH1 0x40 MLOAD DUP1 SWAP2 SUB SWAP1 RETURN JUMPDEST PUSH2 0x1A8 PUSH2 0x27D JUMP JUMPDEST PUSH1 0x40 MLOAD PUSH2 0x1B5 SWAP2 SWAP1 PUSH2 0x2E3 JUMP JUMPDEST PUSH1 0x40 MLOAD DUP1 SWAP2 SUB SWAP1 RETURN JUMPDEST PUSH2 0x1C6 PUSH2 0x283 JUMP JUMPDEST STOP JUMPDEST PUSH1 0x5 SLOAD DUP2 JUMP JUMPDEST PUSH2 0x1D6 PUSH2 0x2B9 JUMP JUMPDEST PUSH2 0x1DE PUSH2 0x2B9 JUMP JUMPDEST PUSH1 0x1 DUP2 PUSH0 ADD DUP2 DUP2 MSTORE POP POP PUSH2 0x1F1 DUP2 PUSH2 0x24C JUMP JUMPDEST SWAP1 POP DUP1 SWAP2 POP POP SWAP1 JUMP JUMPDEST PUSH0 SLOAD DUP2 JUMP JUMPDEST PUSH1 0x2 PUSH1 0x20 MSTORE DUP1 PUSH0 MSTORE PUSH1 0x40 PUSH0 KECCAK256 PUSH0 SWAP2 POP SWAP1 POP SLOAD DUP2 JUMP JUMPDEST GAS PUSH1 0x6 DUP2 SWAP1 SSTORE POP PUSH0 PUSH1 0x1 SLOAD SWAP1 POP DUP1 DUP1 PUSH2 0x22C SWAP1 PUSH2 0x4BD JUMP JUMPDEST SWAP2 POP POP PUSH1 0xC DUP2 PUSH2 0x23C SWAP2 SWAP1 PUSH2 0x504 JUMP JUMPDEST PUSH1 0x1 DUP2 SWAP1 SSTORE POP GAS PUSH1 0x7 DUP2 SWAP1 SSTORE POP POP JUMP JUMPDEST PUSH2 0x254 PUSH2 0x2B9 JUMP JUMPDEST DUP2 PUSH0 ADD DUP1 MLOAD DUP1 SWAP2 SWAP1 PUSH2 0x265 SWAP1 PUSH2 0x4BD JUMP JUMPDEST DUP2 MSTORE POP POP DUP2 SWAP1 POP SWAP2 SWAP1 POP JUMP JUMPDEST PUSH1 0x6 SLOAD DUP2 JUMP JUMPDEST PUSH1 0x7 SLOAD DUP2 JUMP JUMPDEST PUSH1 0x4 SLOAD DUP2 JUMP JUMPDEST GAS PUSH1 0x4 DUP2 SWAP1 SSTORE POP PUSH0 DUP1 SLOAD SWAP1 POP DUP1 DUP1 PUSH2 0x29A SWAP1 PUSH2 0x4BD JUMP JUMPDEST SWAP2 POP POP PUSH1 0xC DUP2 PUSH2 0x2AA SWAP2 SWAP1 PUSH2 0x504 JUMP JUMPDEST PUSH0 DUP2 SWAP1 SSTORE POP GAS PUSH1 0x5 DUP2 SWAP1 SSTORE POP POP JUMP JUMPDEST PUSH1 0x40 MLOAD DUP1 PUSH1 0x20 ADD PUSH1 0x40 MSTORE DUP1 PUSH0 DUP2 MSTORE POP SWAP1 JUMP JUMPDEST PUSH0 DUP2 SWAP1 POP SWAP2 SWAP1 POP JUMP JUMPDEST PUSH2 0x2DD DUP2 PUSH2 0x2CB JUMP JUMPDEST DUP3 MSTORE POP POP JUMP JUMPDEST PUSH0 PUSH1 0x20 DUP3 ADD SWAP1 POP PUSH2 0x2F6 PUSH0 DUP4 ADD DUP5 PUSH2 0x2D4 JUMP JUMPDEST SWAP3 SWAP2 POP POP JUMP JUMPDEST PUSH2 0x305 DUP2 PUSH2 0x2CB JUMP JUMPDEST DUP3 MSTORE POP POP JUMP JUMPDEST PUSH1 0x20 DUP3 ADD PUSH0 DUP3 ADD MLOAD PUSH2 0x31F PUSH0 DUP6 ADD DUP3 PUSH2 0x2FC JUMP JUMPDEST POP POP POP POP JUMP JUMPDEST PUSH0 PUSH1 0x20 DUP3 ADD SWAP1 POP PUSH2 0x338 PUSH0 DUP4 ADD DUP5 PUSH2 0x30B JUMP JUMPDEST SWAP3 SWAP2 POP POP JUMP JUMPDEST PUSH0 PUSH1 0x40 MLOAD SWAP1 POP SWAP1 JUMP JUMPDEST PUSH0 DUP1 REVERT JUMPDEST PUSH2 0x354 DUP2 PUSH2 0x2CB JUMP JUMPDEST DUP2 EQ PUSH2 0x35E JUMPI PUSH0 DUP1 REVERT JUMPDEST POP JUMP JUMPDEST PUSH0 DUP2 CALLDATALOAD SWAP1 POP PUSH2 0x36F DUP2 PUSH2 0x34B JUMP JUMPDEST SWAP3 SWAP2 POP POP JUMP JUMPDEST PUSH0 PUSH1 0x20 DUP3 DUP5 SUB SLT ISZERO PUSH2 0x38A JUMPI PUSH2 0x389 PUSH2 0x347 JUMP JUMPDEST JUMPDEST PUSH0 PUSH2 0x397 DUP5 DUP3 DUP6 ADD PUSH2 0x361 JUMP JUMPDEST SWAP2 POP POP SWAP3 SWAP2 POP POP JUMP JUMPDEST PUSH0 DUP1 REVERT JUMPDEST PUSH0 PUSH1 0x1F NOT PUSH1 0x1F DUP4 ADD AND SWAP1 POP SWAP2 SWAP1 POP JUMP JUMPDEST PUSH32 0x4E487B7100000000000000000000000000000000000000000000000000000000 PUSH0 MSTORE PUSH1 0x41 PUSH1 0x4 MSTORE PUSH1 0x24 PUSH0 REVERT JUMPDEST PUSH2 0x3EA DUP3 PUSH2 0x3A4 JUMP JUMPDEST DUP2 ADD DUP2 DUP2 LT PUSH8 0xFFFFFFFFFFFFFFFF DUP3 GT OR ISZERO PUSH2 0x409 JUMPI PUSH2 0x408 PUSH2 0x3B4 JUMP JUMPDEST JUMPDEST DUP1 PUSH1 0x40 MSTORE POP POP POP JUMP JUMPDEST PUSH0 PUSH2 0x41B PUSH2 0x33E JUMP JUMPDEST SWAP1 POP PUSH2 0x427 DUP3 DUP3 PUSH2 0x3E1 JUMP JUMPDEST SWAP2 SWAP1 POP JUMP JUMPDEST PUSH0 PUSH1 0x20 DUP3 DUP5 SUB SLT ISZERO PUSH2 0x441 JUMPI PUSH2 0x440 PUSH2 0x3A0 JUMP JUMPDEST JUMPDEST PUSH2 0x44B PUSH1 0x20 PUSH2 0x412 JUMP JUMPDEST SWAP1 POP PUSH0 PUSH2 0x45A DUP5 DUP3 DUP6 ADD PUSH2 0x361 JUMP JUMPDEST PUSH0 DUP4 ADD MSTORE POP SWAP3 SWAP2 POP POP JUMP JUMPDEST PUSH0 PUSH1 0x20 DUP3 DUP5 SUB SLT ISZERO PUSH2 0x47A JUMPI PUSH2 0x479 PUSH2 0x347 JUMP JUMPDEST JUMPDEST PUSH0 PUSH2 0x487 DUP5 DUP3 DUP6 ADD PUSH2 0x42C JUMP JUMPDEST SWAP2 POP POP SWAP3 SWAP2 POP POP JUMP JUMPDEST PUSH32 0x4E487B7100000000000000000000000000000000000000000000000000000000 PUSH0 MSTORE PUSH1 0x11 PUSH1 0x4 MSTORE PUSH1 0x24 PUSH0 REVERT JUMPDEST PUSH0 PUSH2 0x4C7 DUP3 PUSH2 0x2CB JUMP JUMPDEST SWAP2 POP PUSH32 0xFFFFFFFFFFFFFFFFFFFFFFFFFFFFFFFFFFFFFFFFFFFFFFFFFFFFFFFFFFFFFFFF DUP3 SUB PUSH2 0x4F9 JUMPI PUSH2 0x4F8 PUSH2 0x490 JUMP JUMPDEST JUMPDEST PUSH1 0x1 DUP3 ADD SWAP1 POP SWAP2 SWAP1 POP JUMP JUMPDEST PUSH0 PUSH2 0x50E DUP3 PUSH2 0x2CB JUMP JUMPDEST SWAP2 POP PUSH2 0x519 DUP4 PUSH2 0x2CB JUMP JUMPDEST SWAP3 POP DUP3 DUP3 ADD SWAP1 POP DUP1 DUP3 GT ISZERO PUSH2 0x531 JUMPI PUSH2 0x530 PUSH2 0x490 JUMP JUMPDEST JUMPDEST SWAP3 SWAP2 POP POP JUMP INVALID LOG2 PUSH5 0x6970667358 0x22 SLT KECCAK256 PUSH15 0xC37DF40D19ED7E69F6BB86B93FEBA9 PUSH25 0x9E14C3F71DEC36724A6FA3F408E9A964736F6C634300081A00 CALLER "
				},
				"gasEstimates": {
					"creation": {
						"codeDepositCost": "277800",
						"executionCost": "44691",
						"totalCost": "322491"
					},
					"external": {
						"endTime_public()": "2469",
						"gas_privateVar_after()": "2469",
						"gas_privateVar_before()": "2447",
						"gas_publicVar_after()": "2426",
						"gas_publicVar_before()": "2491",
						"incre((uint256))": "infinite",
						"pubMapping(uint256)": "infinite",
						"ret()": "infinite",
						"setEndTimePrivate()": "infinite",
						"setEndTimePublic()": "infinite"
					}
				},
				"methodIdentifiers": {
					"endTime_public()": "1d8729f3",
					"gas_privateVar_after()": "bb15f034",
					"gas_privateVar_before()": "b41e972c",
					"gas_publicVar_after()": "0456f4c8",
					"gas_publicVar_before()": "cc9cf374",
					"incre((uint256))": "652cfd6c",
					"pubMapping(uint256)": "21847341",
					"ret()": "1b08d96f",
					"setEndTimePrivate()": "4dd76ea4",
					"setEndTimePublic()": "e6e4ddc2"
				}
			},
			"storageLayout": {
				"storage": [
					{
						"astId": 3,
						"contract": "testInternalVarVsPublic.sol:TestIntPub",
						"label": "endTime_public",
						"offset": 0,
						"slot": "0",
						"type": "t_uint256"
					},
					{
						"astId": 5,
						"contract": "testInternalVarVsPublic.sol:TestIntPub",
						"label": "endTime_internal",
						"offset": 0,
						"slot": "1",
						"type": "t_uint256"
					},
					{
						"astId": 9,
						"contract": "testInternalVarVsPublic.sol:TestIntPub",
						"label": "pubMapping",
						"offset": 0,
						"slot": "2",
						"type": "t_mapping(t_uint256,t_uint256)"
					},
					{
						"astId": 13,
						"contract": "testInternalVarVsPublic.sol:TestIntPub",
						"label": "privMapping",
						"offset": 0,
						"slot": "3",
						"type": "t_mapping(t_uint256,t_uint256)"
					},
					{
						"astId": 15,
						"contract": "testInternalVarVsPublic.sol:TestIntPub",
						"label": "gas_publicVar_before",
						"offset": 0,
						"slot": "4",
						"type": "t_uint256"
					},
					{
						"astId": 17,
						"contract": "testInternalVarVsPublic.sol:TestIntPub",
						"label": "gas_publicVar_after",
						"offset": 0,
						"slot": "5",
						"type": "t_uint256"
					},
					{
						"astId": 19,
						"contract": "testInternalVarVsPublic.sol:TestIntPub",
						"label": "gas_privateVar_before",
						"offset": 0,
						"slot": "6",
						"type": "t_uint256"
					},
					{
						"astId": 21,
						"contract": "testInternalVarVsPublic.sol:TestIntPub",
						"label": "gas_privateVar_after",
						"offset": 0,
						"slot": "7",
						"type": "t_uint256"
					}
				],
				"types": {
					"t_mapping(t_uint256,t_uint256)": {
						"encoding": "mapping",
						"key": "t_uint256",
						"label": "mapping(uint256 => uint256)",
						"numberOfBytes": "32",
						"value": "t_uint256"
					},
					"t_uint256": {
						"encoding": "inplace",
						"label": "uint256",
						"numberOfBytes": "32"
					}
				}
			},
			"userdoc": {
				"kind": "user",
				"methods": {},
				"version": 1
			}
		}
	}
}