{
	"TESTROUTER2.sol": {
		"Router": {
			"abi": [
				{
					"inputs": [
						{
							"internalType": "bytes[]",
							"name": "calls",
							"type": "bytes[]"
						}
					],
					"name": "batch",
					"outputs": [
						{
							"internalType": "bytes[]",
							"name": "results",
							"type": "bytes[]"
						}
					],
					"stateMutability": "payable",
					"type": "function"
				},
				{
					"inputs": [],
					"name": "pool",
					"outputs": [
						{
							"internalType": "contract Pool",
							"name": "",
							"type": "address"
						}
					],
					"stateMutability": "view",
					"type": "function"
				},
				{
					"inputs": [
						{
							"internalType": "address",
							"name": "pool_",
							"type": "address"
						}
					],
					"name": "setPool",
					"outputs": [],
					"stateMutability": "nonpayable",
					"type": "function"
				},
				{
					"inputs": [
						{
							"internalType": "uint256",
							"name": "_num",
							"type": "uint256"
						},
						{
							"internalType": "address",
							"name": "onBehalfOf",
							"type": "address"
						}
					],
					"name": "setVars",
					"outputs": [],
					"stateMutability": "payable",
					"type": "function"
				},
				{
					"inputs": [
						{
							"internalType": "uint256",
							"name": "_num",
							"type": "uint256"
						}
					],
					"name": "test",
					"outputs": [],
					"stateMutability": "nonpayable",
					"type": "function"
				}
			],
			"devdoc": {
				"kind": "dev",
				"methods": {
					"batch(bytes[])": {
						"details": "Allows batched call to self (this contract).",
						"params": {
							"calls": "An array of inputs for each call."
						}
					}
				},
				"version": 1
			},
			"evm": {
				"assembly": "    /* \"TESTROUTER2.sol\":67:1806  contract Router {... */\n  mstore(0x40, 0x80)\n  callvalue\n  dup1\n  iszero\n  tag_1\n  jumpi\n  0x00\n  dup1\n  revert\ntag_1:\n  pop\n  dataSize(sub_0)\n  dup1\n  dataOffset(sub_0)\n  0x00\n  codecopy\n  0x00\n  return\nstop\n\nsub_0: assembly {\n        /* \"TESTROUTER2.sol\":67:1806  contract Router {... */\n      mstore(0x40, 0x80)\n      jumpi(tag_1, lt(calldatasize, 0x04))\n      shr(0xe0, calldataload(0x00))\n      dup1\n      0x16f0115b\n      eq\n      tag_2\n      jumpi\n      dup1\n      0x1e897afb\n      eq\n      tag_3\n      jumpi\n      dup1\n      0x29e99f07\n      eq\n      tag_4\n      jumpi\n      dup1\n      0x4437152a\n      eq\n      tag_5\n      jumpi\n      dup1\n      0x8e1cd120\n      eq\n      tag_6\n      jumpi\n    tag_1:\n      0x00\n      dup1\n      revert\n        /* \"TESTROUTER2.sol\":92:108  Pool public pool */\n    tag_2:\n      callvalue\n      dup1\n      iszero\n      tag_7\n      jumpi\n      0x00\n      dup1\n      revert\n    tag_7:\n      pop\n      tag_8\n      tag_9\n      jump\t// in\n    tag_8:\n      mload(0x40)\n      tag_10\n      swap2\n      swap1\n      tag_11\n      jump\t// in\n    tag_10:\n      mload(0x40)\n      dup1\n      swap2\n      sub\n      swap1\n      return\n        /* \"TESTROUTER2.sol\":928:1319  function batch(bytes[] memory calls) public payable returns(bytes[] memory results) {... */\n    tag_3:\n      tag_12\n      0x04\n      dup1\n      calldatasize\n      sub\n      dup2\n      add\n      swap1\n      tag_13\n      swap2\n      swap1\n      tag_14\n      jump\t// in\n    tag_13:\n      tag_15\n      jump\t// in\n    tag_12:\n      mload(0x40)\n      tag_16\n      swap2\n      swap1\n      tag_17\n      jump\t// in\n    tag_16:\n      mload(0x40)\n      dup1\n      swap2\n      sub\n      swap1\n      return\n        /* \"TESTROUTER2.sol\":1329:1595  function test(uint _num) public {... */\n    tag_4:\n      callvalue\n      dup1\n      iszero\n      tag_18\n      jumpi\n      0x00\n      dup1\n      revert\n    tag_18:\n      pop\n      tag_19\n      0x04\n      dup1\n      calldatasize\n      sub\n      dup2\n      add\n      swap1\n      tag_20\n      swap2\n      swap1\n      tag_21\n      jump\t// in\n    tag_20:\n      tag_22\n      jump\t// in\n    tag_19:\n      stop\n        /* \"TESTROUTER2.sol\":1727:1803  function setPool(address pool_) public {... */\n    tag_5:\n      callvalue\n      dup1\n      iszero\n      tag_23\n      jumpi\n      0x00\n      dup1\n      revert\n    tag_23:\n      pop\n      tag_24\n      0x04\n      dup1\n      calldatasize\n      sub\n      dup2\n      add\n      swap1\n      tag_25\n      swap2\n      swap1\n      tag_26\n      jump\t// in\n    tag_25:\n      tag_27\n      jump\t// in\n    tag_24:\n      stop\n        /* \"TESTROUTER2.sol\":1605:1719  function setVars(uint _num, address onBehalfOf) external payable {... */\n    tag_6:\n      tag_28\n      0x04\n      dup1\n      calldatasize\n      sub\n      dup2\n      add\n      swap1\n      tag_29\n      swap2\n      swap1\n      tag_30\n      jump\t// in\n    tag_29:\n      tag_31\n      jump\t// in\n    tag_28:\n      stop\n        /* \"TESTROUTER2.sol\":92:108  Pool public pool */\n    tag_9:\n      0x00\n      dup1\n      sload\n      swap1\n      0x0100\n      exp\n      swap1\n      div\n      0xffffffffffffffffffffffffffffffffffffffff\n      and\n      dup2\n      jump\t// out\n        /* \"TESTROUTER2.sol\":928:1319  function batch(bytes[] memory calls) public payable returns(bytes[] memory results) {... */\n    tag_15:\n        /* \"TESTROUTER2.sol\":988:1010  bytes[] memory results */\n      0x60\n        /* \"TESTROUTER2.sol\":1047:1052  calls */\n      dup2\n        /* \"TESTROUTER2.sol\":1047:1059  calls.length */\n      mload\n        /* \"TESTROUTER2.sol\":1035:1060  new bytes[](calls.length) */\n      0xffffffffffffffff\n      dup2\n      gt\n      iszero\n      tag_33\n      jumpi\n      tag_34\n      tag_35\n      jump\t// in\n    tag_34:\n    tag_33:\n      mload(0x40)\n      swap1\n      dup1\n      dup3\n      mstore\n      dup1\n      0x20\n      mul\n      0x20\n      add\n      dup3\n      add\n      0x40\n      mstore\n      dup1\n      iszero\n      tag_36\n      jumpi\n      dup2\n      0x20\n      add\n    tag_37:\n      0x60\n      dup2\n      mstore\n      0x20\n      add\n      swap1\n      0x01\n      swap1\n      sub\n      swap1\n      dup2\n      tag_37\n      jumpi\n      swap1\n      pop\n    tag_36:\n      pop\n        /* \"TESTROUTER2.sol\":1025:1060  results = new bytes[](calls.length) */\n      swap1\n      pop\n        /* \"TESTROUTER2.sol\":1078:1087  uint256 i */\n      0x00\n        /* \"TESTROUTER2.sol\":1073:1310  for (uint256 i; i < calls.length; i++) {... */\n    tag_38:\n        /* \"TESTROUTER2.sol\":1093:1098  calls */\n      dup3\n        /* \"TESTROUTER2.sol\":1093:1105  calls.length */\n      mload\n        /* \"TESTROUTER2.sol\":1089:1090  i */\n      dup2\n        /* \"TESTROUTER2.sol\":1089:1105  i < calls.length */\n      lt\n        /* \"TESTROUTER2.sol\":1073:1310  for (uint256 i; i < calls.length; i++) {... */\n      iszero\n      tag_39\n      jumpi\n        /* \"TESTROUTER2.sol\":1130:1142  bool success */\n      0x00\n        /* \"TESTROUTER2.sol\":1144:1163  bytes memory result */\n      dup1\n        /* \"TESTROUTER2.sol\":1175:1179  this */\n      address\n        /* \"TESTROUTER2.sol\":1167:1193  address(this).delegatecall */\n      0xffffffffffffffffffffffffffffffffffffffff\n      and\n        /* \"TESTROUTER2.sol\":1194:1199  calls */\n      dup6\n        /* \"TESTROUTER2.sol\":1200:1201  i */\n      dup5\n        /* \"TESTROUTER2.sol\":1194:1202  calls[i] */\n      dup2\n      mload\n      dup2\n      lt\n      tag_41\n      jumpi\n      tag_42\n      tag_43\n      jump\t// in\n    tag_42:\n    tag_41:\n      0x20\n      mul\n      0x20\n      add\n      add\n      mload\n        /* \"TESTROUTER2.sol\":1167:1203  address(this).delegatecall(calls[i]) */\n      mload(0x40)\n      tag_44\n      swap2\n      swap1\n      tag_45\n      jump\t// in\n    tag_44:\n      0x00\n      mload(0x40)\n      dup1\n      dup4\n      sub\n      dup2\n      dup6\n      gas\n      delegatecall\n      swap2\n      pop\n      pop\n      returndatasize\n      dup1\n      0x00\n      dup2\n      eq\n      tag_48\n      jumpi\n      mload(0x40)\n      swap2\n      pop\n      and(add(returndatasize, 0x3f), not(0x1f))\n      dup3\n      add\n      0x40\n      mstore\n      returndatasize\n      dup3\n      mstore\n      returndatasize\n      0x00\n      0x20\n      dup5\n      add\n      returndatacopy\n      jump(tag_47)\n    tag_48:\n      0x60\n      swap2\n      pop\n    tag_47:\n      pop\n        /* \"TESTROUTER2.sol\":1129:1203  (bool success, bytes memory result) = address(this).delegatecall(calls[i]) */\n      swap2\n      pop\n      swap2\n      pop\n        /* \"TESTROUTER2.sol\":1225:1232  success */\n      dup2\n        /* \"TESTROUTER2.sol\":1220:1262  if (!success) revert(getRevertMsg(result)) */\n      tag_49\n      jumpi\n        /* \"TESTROUTER2.sol\":1241:1261  getRevertMsg(result) */\n      tag_50\n        /* \"TESTROUTER2.sol\":1254:1260  result */\n      dup2\n        /* \"TESTROUTER2.sol\":1241:1253  getRevertMsg */\n      tag_51\n        /* \"TESTROUTER2.sol\":1241:1261  getRevertMsg(result) */\n      jump\t// in\n    tag_50:\n        /* \"TESTROUTER2.sol\":1234:1262  revert(getRevertMsg(result)) */\n      mload(0x40)\n      0x08c379a000000000000000000000000000000000000000000000000000000000\n      dup2\n      mstore\n      0x04\n      add\n      tag_52\n      swap2\n      swap1\n      tag_53\n      jump\t// in\n    tag_52:\n      mload(0x40)\n      dup1\n      swap2\n      sub\n      swap1\n      revert\n        /* \"TESTROUTER2.sol\":1220:1262  if (!success) revert(getRevertMsg(result)) */\n    tag_49:\n        /* \"TESTROUTER2.sol\":1292:1298  result */\n      dup1\n        /* \"TESTROUTER2.sol\":1279:1286  results */\n      dup5\n        /* \"TESTROUTER2.sol\":1287:1288  i */\n      dup5\n        /* \"TESTROUTER2.sol\":1279:1289  results[i] */\n      dup2\n      mload\n      dup2\n      lt\n      tag_54\n      jumpi\n      tag_55\n      tag_43\n      jump\t// in\n    tag_55:\n    tag_54:\n      0x20\n      mul\n      0x20\n      add\n      add\n        /* \"TESTROUTER2.sol\":1279:1298  results[i] = result */\n      dup2\n      swap1\n      mstore\n      pop\n        /* \"TESTROUTER2.sol\":1112:1310  {... */\n      pop\n      pop\n        /* \"TESTROUTER2.sol\":1107:1110  i++ */\n      dup1\n      dup1\n      0x01\n      add\n      swap2\n      pop\n      pop\n        /* \"TESTROUTER2.sol\":1073:1310  for (uint256 i; i < calls.length; i++) {... */\n      jump(tag_38)\n    tag_39:\n      pop\n        /* \"TESTROUTER2.sol\":928:1319  function batch(bytes[] memory calls) public payable returns(bytes[] memory results) {... */\n      swap2\n      swap1\n      pop\n      jump\t// out\n        /* \"TESTROUTER2.sol\":1329:1595  function test(uint _num) public {... */\n    tag_22:\n        /* \"TESTROUTER2.sol\":1374:1394  bytes memory payload */\n      0x00\n        /* \"TESTROUTER2.sol\":1449:1453  _num */\n      dup2\n        /* \"TESTROUTER2.sol\":1455:1465  msg.sender */\n      caller\n        /* \"TESTROUTER2.sol\":1397:1466  abi.encodeWithSignature(\"setVars(uint256,address)\", _num, msg.sender) */\n      add(0x24, mload(0x40))\n      tag_57\n      swap3\n      swap2\n      swap1\n      tag_58\n      jump\t// in\n    tag_57:\n      mload(0x40)\n      0x20\n      dup2\n      dup4\n      sub\n      sub\n      dup2\n      mstore\n      swap1\n      0x40\n      mstore\n      and(not(0xffffffffffffffffffffffffffffffffffffffffffffffffffffffff), 0x8e1cd12000000000000000000000000000000000000000000000000000000000)\n      0x20\n      dup3\n      add\n      dup1\n      mload\n      0xffffffffffffffffffffffffffffffffffffffffffffffffffffffff\n      dup4\n      dup2\n      dup4\n      and\n      or\n      dup4\n      mstore\n      pop\n      pop\n      pop\n      pop\n        /* \"TESTROUTER2.sol\":1374:1466  bytes memory payload = abi.encodeWithSignature(\"setVars(uint256,address)\", _num, msg.sender) */\n      swap1\n      pop\n        /* \"TESTROUTER2.sol\":1487:1510  bytes[] memory allCalls */\n      0x00\n        /* \"TESTROUTER2.sol\":1525:1526  1 */\n      0x01\n        /* \"TESTROUTER2.sol\":1513:1527  new bytes[](1) */\n      0xffffffffffffffff\n      dup2\n      gt\n      iszero\n      tag_59\n      jumpi\n      tag_60\n      tag_35\n      jump\t// in\n    tag_60:\n    tag_59:\n      mload(0x40)\n      swap1\n      dup1\n      dup3\n      mstore\n      dup1\n      0x20\n      mul\n      0x20\n      add\n      dup3\n      add\n      0x40\n      mstore\n      dup1\n      iszero\n      tag_61\n      jumpi\n      dup2\n      0x20\n      add\n    tag_62:\n      0x60\n      dup2\n      mstore\n      0x20\n      add\n      swap1\n      0x01\n      swap1\n      sub\n      swap1\n      dup2\n      tag_62\n      jumpi\n      swap1\n      pop\n    tag_61:\n      pop\n        /* \"TESTROUTER2.sol\":1487:1527  bytes[] memory allCalls = new bytes[](1) */\n      swap1\n      pop\n        /* \"TESTROUTER2.sol\":1552:1559  payload */\n      dup2\n        /* \"TESTROUTER2.sol\":1538:1546  allCalls */\n      dup2\n        /* \"TESTROUTER2.sol\":1547:1548  0 */\n      0x00\n        /* \"TESTROUTER2.sol\":1538:1549  allCalls[0] */\n      dup2\n      mload\n      dup2\n      lt\n      tag_63\n      jumpi\n      tag_64\n      tag_43\n      jump\t// in\n    tag_64:\n    tag_63:\n      0x20\n      mul\n      0x20\n      add\n      add\n        /* \"TESTROUTER2.sol\":1538:1559  allCalls[0] = payload */\n      dup2\n      swap1\n      mstore\n      pop\n        /* \"TESTROUTER2.sol\":1572:1587  batch(allCalls) */\n      tag_65\n        /* \"TESTROUTER2.sol\":1578:1586  allCalls */\n      dup2\n        /* \"TESTROUTER2.sol\":1572:1577  batch */\n      tag_15\n        /* \"TESTROUTER2.sol\":1572:1587  batch(allCalls) */\n      jump\t// in\n    tag_65:\n      pop\n        /* \"TESTROUTER2.sol\":1361:1595  {... */\n      pop\n      pop\n        /* \"TESTROUTER2.sol\":1329:1595  function test(uint _num) public {... */\n      pop\n      jump\t// out\n        /* \"TESTROUTER2.sol\":1727:1803  function setPool(address pool_) public {... */\n    tag_27:\n        /* \"TESTROUTER2.sol\":1789:1794  pool_ */\n      dup1\n        /* \"TESTROUTER2.sol\":1777:1781  pool */\n      0x00\n      dup1\n        /* \"TESTROUTER2.sol\":1777:1795  pool = Pool(pool_) */\n      0x0100\n      exp\n      dup2\n      sload\n      dup2\n      0xffffffffffffffffffffffffffffffffffffffff\n      mul\n      not\n      and\n      swap1\n      dup4\n      0xffffffffffffffffffffffffffffffffffffffff\n      and\n      mul\n      or\n      swap1\n      sstore\n      pop\n        /* \"TESTROUTER2.sol\":1727:1803  function setPool(address pool_) public {... */\n      pop\n      jump\t// out\n        /* \"TESTROUTER2.sol\":1605:1719  function setVars(uint _num, address onBehalfOf) external payable {... */\n    tag_31:\n        /* \"TESTROUTER2.sol\":1681:1685  pool */\n      0x00\n      dup1\n      sload\n      swap1\n      0x0100\n      exp\n      swap1\n      div\n      0xffffffffffffffffffffffffffffffffffffffff\n      and\n        /* \"TESTROUTER2.sol\":1681:1693  pool.setVars */\n      0xffffffffffffffffffffffffffffffffffffffff\n      and\n      0x8e1cd120\n        /* \"TESTROUTER2.sol\":1694:1698  _num */\n      dup4\n        /* \"TESTROUTER2.sol\":1700:1710  onBehalfOf */\n      dup4\n        /* \"TESTROUTER2.sol\":1681:1711  pool.setVars(_num, onBehalfOf) */\n      mload(0x40)\n      dup4\n      0xffffffff\n      and\n      0xe0\n      shl\n      dup2\n      mstore\n      0x04\n      add\n      tag_68\n      swap3\n      swap2\n      swap1\n      tag_58\n      jump\t// in\n    tag_68:\n      0x00\n      mload(0x40)\n      dup1\n      dup4\n      sub\n      dup2\n      0x00\n      dup8\n      dup1\n      extcodesize\n      iszero\n      dup1\n      iszero\n      tag_69\n      jumpi\n      0x00\n      dup1\n      revert\n    tag_69:\n      pop\n      gas\n      call\n      iszero\n      dup1\n      iszero\n      tag_71\n      jumpi\n      returndatasize\n      0x00\n      dup1\n      returndatacopy\n      revert(0x00, returndatasize)\n    tag_71:\n      pop\n      pop\n      pop\n      pop\n        /* \"TESTROUTER2.sol\":1605:1719  function setVars(uint _num, address onBehalfOf) external payable {... */\n      pop\n      pop\n      jump\t// out\n        /* \"TESTROUTER2.sol\":308:805  function getRevertMsg(bytes memory returnData) internal pure returns (string memory)... */\n    tag_51:\n        /* \"TESTROUTER2.sol\":378:391  string memory */\n      0x60\n        /* \"TESTROUTER2.sol\":545:547  68 */\n      0x44\n        /* \"TESTROUTER2.sol\":525:535  returnData */\n      dup3\n        /* \"TESTROUTER2.sol\":525:542  returnData.length */\n      mload\n        /* \"TESTROUTER2.sol\":525:547  returnData.length < 68 */\n      lt\n        /* \"TESTROUTER2.sol\":521:587  if (returnData.length < 68) return \"Transaction reverted silently\" */\n      iszero\n      tag_73\n      jumpi\n        /* \"TESTROUTER2.sol\":549:587  return \"Transaction reverted silently\" */\n      mload(0x40)\n      dup1\n      0x40\n      add\n      0x40\n      mstore\n      dup1\n      0x1d\n      dup2\n      mstore\n      0x20\n      add\n      0x5472616e73616374696f6e2072657665727465642073696c656e746c79000000\n      dup2\n      mstore\n      pop\n      swap1\n      pop\n      jump(tag_72)\n        /* \"TESTROUTER2.sol\":521:587  if (returnData.length < 68) return \"Transaction reverted silently\" */\n    tag_73:\n        /* \"TESTROUTER2.sol\":689:693  0x04 */\n      0x04\n        /* \"TESTROUTER2.sol\":677:687  returnData */\n      dup3\n        /* \"TESTROUTER2.sol\":673:694  add(returnData, 0x04) */\n      add\n        /* \"TESTROUTER2.sol\":659:694  returnData := add(returnData, 0x04) */\n      swap2\n      pop\n        /* \"TESTROUTER2.sol\":735:745  returnData */\n      dup2\n        /* \"TESTROUTER2.sol\":724:756  abi.decode(returnData, (string)) */\n      dup1\n      0x20\n      add\n      swap1\n      mload\n      dup2\n      add\n      swap1\n      tag_74\n      swap2\n      swap1\n      tag_75\n      jump\t// in\n    tag_74:\n        /* \"TESTROUTER2.sol\":717:756  return abi.decode(returnData, (string)) */\n      swap1\n      pop\n        /* \"TESTROUTER2.sol\":308:805  function getRevertMsg(bytes memory returnData) internal pure returns (string memory)... */\n    tag_72:\n      swap2\n      swap1\n      pop\n      jump\t// out\n        /* \"#utility.yul\":7:133   */\n    tag_76:\n        /* \"#utility.yul\":44:51   */\n      0x00\n        /* \"#utility.yul\":84:126   */\n      0xffffffffffffffffffffffffffffffffffffffff\n        /* \"#utility.yul\":77:82   */\n      dup3\n        /* \"#utility.yul\":73:127   */\n      and\n        /* \"#utility.yul\":62:127   */\n      swap1\n      pop\n        /* \"#utility.yul\":7:133   */\n      swap2\n      swap1\n      pop\n      jump\t// out\n        /* \"#utility.yul\":139:199   */\n    tag_77:\n        /* \"#utility.yul\":167:170   */\n      0x00\n        /* \"#utility.yul\":188:193   */\n      dup2\n        /* \"#utility.yul\":181:193   */\n      swap1\n      pop\n        /* \"#utility.yul\":139:199   */\n      swap2\n      swap1\n      pop\n      jump\t// out\n        /* \"#utility.yul\":205:347   */\n    tag_78:\n        /* \"#utility.yul\":255:264   */\n      0x00\n        /* \"#utility.yul\":288:341   */\n      tag_128\n        /* \"#utility.yul\":306:340   */\n      tag_129\n        /* \"#utility.yul\":315:339   */\n      tag_130\n        /* \"#utility.yul\":333:338   */\n      dup5\n        /* \"#utility.yul\":315:339   */\n      tag_76\n      jump\t// in\n    tag_130:\n        /* \"#utility.yul\":306:340   */\n      tag_77\n      jump\t// in\n    tag_129:\n        /* \"#utility.yul\":288:341   */\n      tag_76\n      jump\t// in\n    tag_128:\n        /* \"#utility.yul\":275:341   */\n      swap1\n      pop\n        /* \"#utility.yul\":205:347   */\n      swap2\n      swap1\n      pop\n      jump\t// out\n        /* \"#utility.yul\":353:479   */\n    tag_79:\n        /* \"#utility.yul\":403:412   */\n      0x00\n        /* \"#utility.yul\":436:473   */\n      tag_132\n        /* \"#utility.yul\":467:472   */\n      dup3\n        /* \"#utility.yul\":436:473   */\n      tag_78\n      jump\t// in\n    tag_132:\n        /* \"#utility.yul\":423:473   */\n      swap1\n      pop\n        /* \"#utility.yul\":353:479   */\n      swap2\n      swap1\n      pop\n      jump\t// out\n        /* \"#utility.yul\":485:623   */\n    tag_80:\n        /* \"#utility.yul\":547:556   */\n      0x00\n        /* \"#utility.yul\":580:617   */\n      tag_134\n        /* \"#utility.yul\":611:616   */\n      dup3\n        /* \"#utility.yul\":580:617   */\n      tag_79\n      jump\t// in\n    tag_134:\n        /* \"#utility.yul\":567:617   */\n      swap1\n      pop\n        /* \"#utility.yul\":485:623   */\n      swap2\n      swap1\n      pop\n      jump\t// out\n        /* \"#utility.yul\":629:784   */\n    tag_81:\n        /* \"#utility.yul\":728:777   */\n      tag_136\n        /* \"#utility.yul\":771:776   */\n      dup2\n        /* \"#utility.yul\":728:777   */\n      tag_80\n      jump\t// in\n    tag_136:\n        /* \"#utility.yul\":723:726   */\n      dup3\n        /* \"#utility.yul\":716:778   */\n      mstore\n        /* \"#utility.yul\":629:784   */\n      pop\n      pop\n      jump\t// out\n        /* \"#utility.yul\":790:1036   */\n    tag_11:\n        /* \"#utility.yul\":895:899   */\n      0x00\n        /* \"#utility.yul\":933:935   */\n      0x20\n        /* \"#utility.yul\":922:931   */\n      dup3\n        /* \"#utility.yul\":918:936   */\n      add\n        /* \"#utility.yul\":910:936   */\n      swap1\n      pop\n        /* \"#utility.yul\":946:1029   */\n      tag_138\n        /* \"#utility.yul\":1026:1027   */\n      0x00\n        /* \"#utility.yul\":1015:1024   */\n      dup4\n        /* \"#utility.yul\":1011:1028   */\n      add\n        /* \"#utility.yul\":1002:1008   */\n      dup5\n        /* \"#utility.yul\":946:1029   */\n      tag_81\n      jump\t// in\n    tag_138:\n        /* \"#utility.yul\":790:1036   */\n      swap3\n      swap2\n      pop\n      pop\n      jump\t// out\n        /* \"#utility.yul\":1042:1117   */\n    tag_82:\n        /* \"#utility.yul\":1075:1081   */\n      0x00\n        /* \"#utility.yul\":1108:1110   */\n      0x40\n        /* \"#utility.yul\":1102:1111   */\n      mload\n        /* \"#utility.yul\":1092:1111   */\n      swap1\n      pop\n        /* \"#utility.yul\":1042:1117   */\n      swap1\n      jump\t// out\n        /* \"#utility.yul\":1123:1240   */\n    tag_83:\n        /* \"#utility.yul\":1232:1233   */\n      0x00\n        /* \"#utility.yul\":1229:1230   */\n      dup1\n        /* \"#utility.yul\":1222:1234   */\n      revert\n        /* \"#utility.yul\":1246:1363   */\n    tag_84:\n        /* \"#utility.yul\":1355:1356   */\n      0x00\n        /* \"#utility.yul\":1352:1353   */\n      dup1\n        /* \"#utility.yul\":1345:1357   */\n      revert\n        /* \"#utility.yul\":1369:1486   */\n    tag_85:\n        /* \"#utility.yul\":1478:1479   */\n      0x00\n        /* \"#utility.yul\":1475:1476   */\n      dup1\n        /* \"#utility.yul\":1468:1480   */\n      revert\n        /* \"#utility.yul\":1492:1594   */\n    tag_86:\n        /* \"#utility.yul\":1533:1539   */\n      0x00\n        /* \"#utility.yul\":1584:1586   */\n      0x1f\n        /* \"#utility.yul\":1580:1587   */\n      not\n        /* \"#utility.yul\":1575:1577   */\n      0x1f\n        /* \"#utility.yul\":1568:1573   */\n      dup4\n        /* \"#utility.yul\":1564:1578   */\n      add\n        /* \"#utility.yul\":1560:1588   */\n      and\n        /* \"#utility.yul\":1550:1588   */\n      swap1\n      pop\n        /* \"#utility.yul\":1492:1594   */\n      swap2\n      swap1\n      pop\n      jump\t// out\n        /* \"#utility.yul\":1600:1780   */\n    tag_35:\n        /* \"#utility.yul\":1648:1725   */\n      0x4e487b7100000000000000000000000000000000000000000000000000000000\n        /* \"#utility.yul\":1645:1646   */\n      0x00\n        /* \"#utility.yul\":1638:1726   */\n      mstore\n        /* \"#utility.yul\":1745:1749   */\n      0x41\n        /* \"#utility.yul\":1742:1743   */\n      0x04\n        /* \"#utility.yul\":1735:1750   */\n      mstore\n        /* \"#utility.yul\":1769:1773   */\n      0x24\n        /* \"#utility.yul\":1766:1767   */\n      0x00\n        /* \"#utility.yul\":1759:1774   */\n      revert\n        /* \"#utility.yul\":1786:2067   */\n    tag_87:\n        /* \"#utility.yul\":1869:1896   */\n      tag_146\n        /* \"#utility.yul\":1891:1895   */\n      dup3\n        /* \"#utility.yul\":1869:1896   */\n      tag_86\n      jump\t// in\n    tag_146:\n        /* \"#utility.yul\":1861:1867   */\n      dup2\n        /* \"#utility.yul\":1857:1897   */\n      add\n        /* \"#utility.yul\":1999:2005   */\n      dup2\n        /* \"#utility.yul\":1987:1997   */\n      dup2\n        /* \"#utility.yul\":1984:2006   */\n      lt\n        /* \"#utility.yul\":1963:1981   */\n      0xffffffffffffffff\n        /* \"#utility.yul\":1951:1961   */\n      dup3\n        /* \"#utility.yul\":1948:1982   */\n      gt\n        /* \"#utility.yul\":1945:2007   */\n      or\n        /* \"#utility.yul\":1942:2030   */\n      iszero\n      tag_147\n      jumpi\n        /* \"#utility.yul\":2010:2028   */\n      tag_148\n      tag_35\n      jump\t// in\n    tag_148:\n        /* \"#utility.yul\":1942:2030   */\n    tag_147:\n        /* \"#utility.yul\":2050:2060   */\n      dup1\n        /* \"#utility.yul\":2046:2048   */\n      0x40\n        /* \"#utility.yul\":2039:2061   */\n      mstore\n        /* \"#utility.yul\":1829:2067   */\n      pop\n        /* \"#utility.yul\":1786:2067   */\n      pop\n      pop\n      jump\t// out\n        /* \"#utility.yul\":2073:2202   */\n    tag_88:\n        /* \"#utility.yul\":2107:2113   */\n      0x00\n        /* \"#utility.yul\":2134:2154   */\n      tag_150\n      tag_82\n      jump\t// in\n    tag_150:\n        /* \"#utility.yul\":2124:2154   */\n      swap1\n      pop\n        /* \"#utility.yul\":2163:2196   */\n      tag_151\n        /* \"#utility.yul\":2191:2195   */\n      dup3\n        /* \"#utility.yul\":2183:2189   */\n      dup3\n        /* \"#utility.yul\":2163:2196   */\n      tag_87\n      jump\t// in\n    tag_151:\n        /* \"#utility.yul\":2073:2202   */\n      swap2\n      swap1\n      pop\n      jump\t// out\n        /* \"#utility.yul\":2208:2528   */\n    tag_89:\n        /* \"#utility.yul\":2294:2298   */\n      0x00\n        /* \"#utility.yul\":2384:2402   */\n      0xffffffffffffffff\n        /* \"#utility.yul\":2376:2382   */\n      dup3\n        /* \"#utility.yul\":2373:2403   */\n      gt\n        /* \"#utility.yul\":2370:2426   */\n      iszero\n      tag_153\n      jumpi\n        /* \"#utility.yul\":2406:2424   */\n      tag_154\n      tag_35\n      jump\t// in\n    tag_154:\n        /* \"#utility.yul\":2370:2426   */\n    tag_153:\n        /* \"#utility.yul\":2456:2460   */\n      0x20\n        /* \"#utility.yul\":2448:2454   */\n      dup3\n        /* \"#utility.yul\":2444:2461   */\n      mul\n        /* \"#utility.yul\":2436:2461   */\n      swap1\n      pop\n        /* \"#utility.yul\":2516:2520   */\n      0x20\n        /* \"#utility.yul\":2510:2514   */\n      dup2\n        /* \"#utility.yul\":2506:2521   */\n      add\n        /* \"#utility.yul\":2498:2521   */\n      swap1\n      pop\n        /* \"#utility.yul\":2208:2528   */\n      swap2\n      swap1\n      pop\n      jump\t// out\n        /* \"#utility.yul\":2534:2651   */\n    tag_90:\n        /* \"#utility.yul\":2643:2644   */\n      0x00\n        /* \"#utility.yul\":2640:2641   */\n      dup1\n        /* \"#utility.yul\":2633:2645   */\n      revert\n        /* \"#utility.yul\":2657:2774   */\n    tag_91:\n        /* \"#utility.yul\":2766:2767   */\n      0x00\n        /* \"#utility.yul\":2763:2764   */\n      dup1\n        /* \"#utility.yul\":2756:2768   */\n      revert\n        /* \"#utility.yul\":2780:3087   */\n    tag_92:\n        /* \"#utility.yul\":2841:2845   */\n      0x00\n        /* \"#utility.yul\":2931:2949   */\n      0xffffffffffffffff\n        /* \"#utility.yul\":2923:2929   */\n      dup3\n        /* \"#utility.yul\":2920:2950   */\n      gt\n        /* \"#utility.yul\":2917:2973   */\n      iszero\n      tag_158\n      jumpi\n        /* \"#utility.yul\":2953:2971   */\n      tag_159\n      tag_35\n      jump\t// in\n    tag_159:\n        /* \"#utility.yul\":2917:2973   */\n    tag_158:\n        /* \"#utility.yul\":2991:3020   */\n      tag_160\n        /* \"#utility.yul\":3013:3019   */\n      dup3\n        /* \"#utility.yul\":2991:3020   */\n      tag_86\n      jump\t// in\n    tag_160:\n        /* \"#utility.yul\":2983:3020   */\n      swap1\n      pop\n        /* \"#utility.yul\":3075:3079   */\n      0x20\n        /* \"#utility.yul\":3069:3073   */\n      dup2\n        /* \"#utility.yul\":3065:3080   */\n      add\n        /* \"#utility.yul\":3057:3080   */\n      swap1\n      pop\n        /* \"#utility.yul\":2780:3087   */\n      swap2\n      swap1\n      pop\n      jump\t// out\n        /* \"#utility.yul\":3093:3239   */\n    tag_93:\n        /* \"#utility.yul\":3190:3196   */\n      dup3\n        /* \"#utility.yul\":3185:3188   */\n      dup2\n        /* \"#utility.yul\":3180:3183   */\n      dup4\n        /* \"#utility.yul\":3167:3197   */\n      calldatacopy\n        /* \"#utility.yul\":3231:3232   */\n      0x00\n        /* \"#utility.yul\":3222:3228   */\n      dup4\n        /* \"#utility.yul\":3217:3220   */\n      dup4\n        /* \"#utility.yul\":3213:3229   */\n      add\n        /* \"#utility.yul\":3206:3233   */\n      mstore\n        /* \"#utility.yul\":3093:3239   */\n      pop\n      pop\n      pop\n      jump\t// out\n        /* \"#utility.yul\":3245:3668   */\n    tag_94:\n        /* \"#utility.yul\":3322:3327   */\n      0x00\n        /* \"#utility.yul\":3347:3412   */\n      tag_163\n        /* \"#utility.yul\":3363:3411   */\n      tag_164\n        /* \"#utility.yul\":3404:3410   */\n      dup5\n        /* \"#utility.yul\":3363:3411   */\n      tag_92\n      jump\t// in\n    tag_164:\n        /* \"#utility.yul\":3347:3412   */\n      tag_88\n      jump\t// in\n    tag_163:\n        /* \"#utility.yul\":3338:3412   */\n      swap1\n      pop\n        /* \"#utility.yul\":3435:3441   */\n      dup3\n        /* \"#utility.yul\":3428:3433   */\n      dup2\n        /* \"#utility.yul\":3421:3442   */\n      mstore\n        /* \"#utility.yul\":3473:3477   */\n      0x20\n        /* \"#utility.yul\":3466:3471   */\n      dup2\n        /* \"#utility.yul\":3462:3478   */\n      add\n        /* \"#utility.yul\":3511:3514   */\n      dup5\n        /* \"#utility.yul\":3502:3508   */\n      dup5\n        /* \"#utility.yul\":3497:3500   */\n      dup5\n        /* \"#utility.yul\":3493:3509   */\n      add\n        /* \"#utility.yul\":3490:3515   */\n      gt\n        /* \"#utility.yul\":3487:3599   */\n      iszero\n      tag_165\n      jumpi\n        /* \"#utility.yul\":3518:3597   */\n      tag_166\n      tag_91\n      jump\t// in\n    tag_166:\n        /* \"#utility.yul\":3487:3599   */\n    tag_165:\n        /* \"#utility.yul\":3608:3662   */\n      tag_167\n        /* \"#utility.yul\":3655:3661   */\n      dup5\n        /* \"#utility.yul\":3650:3653   */\n      dup3\n        /* \"#utility.yul\":3645:3648   */\n      dup6\n        /* \"#utility.yul\":3608:3662   */\n      tag_93\n      jump\t// in\n    tag_167:\n        /* \"#utility.yul\":3328:3668   */\n      pop\n        /* \"#utility.yul\":3245:3668   */\n      swap4\n      swap3\n      pop\n      pop\n      pop\n      jump\t// out\n        /* \"#utility.yul\":3687:4025   */\n    tag_95:\n        /* \"#utility.yul\":3742:3747   */\n      0x00\n        /* \"#utility.yul\":3791:3794   */\n      dup3\n        /* \"#utility.yul\":3784:3788   */\n      0x1f\n        /* \"#utility.yul\":3776:3782   */\n      dup4\n        /* \"#utility.yul\":3772:3789   */\n      add\n        /* \"#utility.yul\":3768:3795   */\n      slt\n        /* \"#utility.yul\":3758:3880   */\n      tag_169\n      jumpi\n        /* \"#utility.yul\":3799:3878   */\n      tag_170\n      tag_85\n      jump\t// in\n    tag_170:\n        /* \"#utility.yul\":3758:3880   */\n    tag_169:\n        /* \"#utility.yul\":3916:3922   */\n      dup2\n        /* \"#utility.yul\":3903:3923   */\n      calldataload\n        /* \"#utility.yul\":3941:4019   */\n      tag_171\n        /* \"#utility.yul\":4015:4018   */\n      dup5\n        /* \"#utility.yul\":4007:4013   */\n      dup3\n        /* \"#utility.yul\":4000:4004   */\n      0x20\n        /* \"#utility.yul\":3992:3998   */\n      dup7\n        /* \"#utility.yul\":3988:4005   */\n      add\n        /* \"#utility.yul\":3941:4019   */\n      tag_94\n      jump\t// in\n    tag_171:\n        /* \"#utility.yul\":3932:4019   */\n      swap2\n      pop\n        /* \"#utility.yul\":3748:4025   */\n      pop\n        /* \"#utility.yul\":3687:4025   */\n      swap3\n      swap2\n      pop\n      pop\n      jump\t// out\n        /* \"#utility.yul\":4046:4988   */\n    tag_96:\n        /* \"#utility.yul\":4151:4156   */\n      0x00\n        /* \"#utility.yul\":4176:4266   */\n      tag_173\n        /* \"#utility.yul\":4192:4265   */\n      tag_174\n        /* \"#utility.yul\":4258:4264   */\n      dup5\n        /* \"#utility.yul\":4192:4265   */\n      tag_89\n      jump\t// in\n    tag_174:\n        /* \"#utility.yul\":4176:4266   */\n      tag_88\n      jump\t// in\n    tag_173:\n        /* \"#utility.yul\":4167:4266   */\n      swap1\n      pop\n        /* \"#utility.yul\":4286:4291   */\n      dup1\n        /* \"#utility.yul\":4315:4321   */\n      dup4\n        /* \"#utility.yul\":4308:4313   */\n      dup3\n        /* \"#utility.yul\":4301:4322   */\n      mstore\n        /* \"#utility.yul\":4349:4353   */\n      0x20\n        /* \"#utility.yul\":4342:4347   */\n      dup3\n        /* \"#utility.yul\":4338:4354   */\n      add\n        /* \"#utility.yul\":4331:4354   */\n      swap1\n      pop\n        /* \"#utility.yul\":4402:4406   */\n      0x20\n        /* \"#utility.yul\":4394:4400   */\n      dup5\n        /* \"#utility.yul\":4390:4407   */\n      mul\n        /* \"#utility.yul\":4382:4388   */\n      dup4\n        /* \"#utility.yul\":4378:4408   */\n      add\n        /* \"#utility.yul\":4431:4434   */\n      dup6\n        /* \"#utility.yul\":4423:4429   */\n      dup2\n        /* \"#utility.yul\":4420:4435   */\n      gt\n        /* \"#utility.yul\":4417:4539   */\n      iszero\n      tag_175\n      jumpi\n        /* \"#utility.yul\":4450:4529   */\n      tag_176\n      tag_90\n      jump\t// in\n    tag_176:\n        /* \"#utility.yul\":4417:4539   */\n    tag_175:\n        /* \"#utility.yul\":4565:4571   */\n      dup4\n        /* \"#utility.yul\":4548:4982   */\n    tag_177:\n        /* \"#utility.yul\":4582:4588   */\n      dup2\n        /* \"#utility.yul\":4577:4580   */\n      dup2\n        /* \"#utility.yul\":4574:4589   */\n      lt\n        /* \"#utility.yul\":4548:4982   */\n      iszero\n      tag_179\n      jumpi\n        /* \"#utility.yul\":4671:4674   */\n      dup1\n        /* \"#utility.yul\":4658:4675   */\n      calldataload\n        /* \"#utility.yul\":4707:4725   */\n      0xffffffffffffffff\n        /* \"#utility.yul\":4694:4705   */\n      dup2\n        /* \"#utility.yul\":4691:4726   */\n      gt\n        /* \"#utility.yul\":4688:4810   */\n      iszero\n      tag_180\n      jumpi\n        /* \"#utility.yul\":4729:4808   */\n      tag_181\n      tag_85\n      jump\t// in\n    tag_181:\n        /* \"#utility.yul\":4688:4810   */\n    tag_180:\n        /* \"#utility.yul\":4853:4864   */\n      dup1\n        /* \"#utility.yul\":4845:4851   */\n      dup7\n        /* \"#utility.yul\":4841:4865   */\n      add\n        /* \"#utility.yul\":4891:4937   */\n      tag_182\n        /* \"#utility.yul\":4933:4936   */\n      dup10\n        /* \"#utility.yul\":4921:4931   */\n      dup3\n        /* \"#utility.yul\":4891:4937   */\n      tag_95\n      jump\t// in\n    tag_182:\n        /* \"#utility.yul\":4886:4889   */\n      dup6\n        /* \"#utility.yul\":4879:4938   */\n      mstore\n        /* \"#utility.yul\":4967:4971   */\n      0x20\n        /* \"#utility.yul\":4962:4965   */\n      dup6\n        /* \"#utility.yul\":4958:4972   */\n      add\n        /* \"#utility.yul\":4951:4972   */\n      swap5\n      pop\n        /* \"#utility.yul\":4624:4982   */\n      pop\n      pop\n        /* \"#utility.yul\":4608:4612   */\n      0x20\n        /* \"#utility.yul\":4603:4606   */\n      dup2\n        /* \"#utility.yul\":4599:4613   */\n      add\n        /* \"#utility.yul\":4592:4613   */\n      swap1\n      pop\n        /* \"#utility.yul\":4548:4982   */\n      jump(tag_177)\n    tag_179:\n        /* \"#utility.yul\":4552:4573   */\n      pop\n        /* \"#utility.yul\":4157:4988   */\n      pop\n      pop\n        /* \"#utility.yul\":4046:4988   */\n      swap4\n      swap3\n      pop\n      pop\n      pop\n      jump\t// out\n        /* \"#utility.yul\":5009:5397   */\n    tag_97:\n        /* \"#utility.yul\":5089:5094   */\n      0x00\n        /* \"#utility.yul\":5138:5141   */\n      dup3\n        /* \"#utility.yul\":5131:5135   */\n      0x1f\n        /* \"#utility.yul\":5123:5129   */\n      dup4\n        /* \"#utility.yul\":5119:5136   */\n      add\n        /* \"#utility.yul\":5115:5142   */\n      slt\n        /* \"#utility.yul\":5105:5227   */\n      tag_184\n      jumpi\n        /* \"#utility.yul\":5146:5225   */\n      tag_185\n      tag_85\n      jump\t// in\n    tag_185:\n        /* \"#utility.yul\":5105:5227   */\n    tag_184:\n        /* \"#utility.yul\":5263:5269   */\n      dup2\n        /* \"#utility.yul\":5250:5270   */\n      calldataload\n        /* \"#utility.yul\":5288:5391   */\n      tag_186\n        /* \"#utility.yul\":5387:5390   */\n      dup5\n        /* \"#utility.yul\":5379:5385   */\n      dup3\n        /* \"#utility.yul\":5372:5376   */\n      0x20\n        /* \"#utility.yul\":5364:5370   */\n      dup7\n        /* \"#utility.yul\":5360:5377   */\n      add\n        /* \"#utility.yul\":5288:5391   */\n      tag_96\n      jump\t// in\n    tag_186:\n        /* \"#utility.yul\":5279:5391   */\n      swap2\n      pop\n        /* \"#utility.yul\":5095:5397   */\n      pop\n        /* \"#utility.yul\":5009:5397   */\n      swap3\n      swap2\n      pop\n      pop\n      jump\t// out\n        /* \"#utility.yul\":5403:5960   */\n    tag_14:\n        /* \"#utility.yul\":5496:5502   */\n      0x00\n        /* \"#utility.yul\":5545:5547   */\n      0x20\n        /* \"#utility.yul\":5533:5542   */\n      dup3\n        /* \"#utility.yul\":5524:5531   */\n      dup5\n        /* \"#utility.yul\":5520:5543   */\n      sub\n        /* \"#utility.yul\":5516:5548   */\n      slt\n        /* \"#utility.yul\":5513:5632   */\n      iszero\n      tag_188\n      jumpi\n        /* \"#utility.yul\":5551:5630   */\n      tag_189\n      tag_83\n      jump\t// in\n    tag_189:\n        /* \"#utility.yul\":5513:5632   */\n    tag_188:\n        /* \"#utility.yul\":5699:5700   */\n      0x00\n        /* \"#utility.yul\":5688:5697   */\n      dup3\n        /* \"#utility.yul\":5684:5701   */\n      add\n        /* \"#utility.yul\":5671:5702   */\n      calldataload\n        /* \"#utility.yul\":5729:5747   */\n      0xffffffffffffffff\n        /* \"#utility.yul\":5721:5727   */\n      dup2\n        /* \"#utility.yul\":5718:5748   */\n      gt\n        /* \"#utility.yul\":5715:5832   */\n      iszero\n      tag_190\n      jumpi\n        /* \"#utility.yul\":5751:5830   */\n      tag_191\n      tag_84\n      jump\t// in\n    tag_191:\n        /* \"#utility.yul\":5715:5832   */\n    tag_190:\n        /* \"#utility.yul\":5856:5943   */\n      tag_192\n        /* \"#utility.yul\":5935:5942   */\n      dup5\n        /* \"#utility.yul\":5926:5932   */\n      dup3\n        /* \"#utility.yul\":5915:5924   */\n      dup6\n        /* \"#utility.yul\":5911:5933   */\n      add\n        /* \"#utility.yul\":5856:5943   */\n      tag_97\n      jump\t// in\n    tag_192:\n        /* \"#utility.yul\":5846:5943   */\n      swap2\n      pop\n        /* \"#utility.yul\":5642:5953   */\n      pop\n        /* \"#utility.yul\":5403:5960   */\n      swap3\n      swap2\n      pop\n      pop\n      jump\t// out\n        /* \"#utility.yul\":5966:6089   */\n    tag_98:\n        /* \"#utility.yul\":6042:6048   */\n      0x00\n        /* \"#utility.yul\":6076:6081   */\n      dup2\n        /* \"#utility.yul\":6070:6082   */\n      mload\n        /* \"#utility.yul\":6060:6082   */\n      swap1\n      pop\n        /* \"#utility.yul\":5966:6089   */\n      swap2\n      swap1\n      pop\n      jump\t// out\n        /* \"#utility.yul\":6095:6288   */\n    tag_99:\n        /* \"#utility.yul\":6203:6214   */\n      0x00\n        /* \"#utility.yul\":6237:6243   */\n      dup3\n        /* \"#utility.yul\":6232:6235   */\n      dup3\n        /* \"#utility.yul\":6225:6244   */\n      mstore\n        /* \"#utility.yul\":6277:6281   */\n      0x20\n        /* \"#utility.yul\":6272:6275   */\n      dup3\n        /* \"#utility.yul\":6268:6282   */\n      add\n        /* \"#utility.yul\":6253:6282   */\n      swap1\n      pop\n        /* \"#utility.yul\":6095:6288   */\n      swap3\n      swap2\n      pop\n      pop\n      jump\t// out\n        /* \"#utility.yul\":6294:6435   */\n    tag_100:\n        /* \"#utility.yul\":6370:6374   */\n      0x00\n        /* \"#utility.yul\":6393:6396   */\n      dup2\n        /* \"#utility.yul\":6385:6396   */\n      swap1\n      pop\n        /* \"#utility.yul\":6423:6427   */\n      0x20\n        /* \"#utility.yul\":6418:6421   */\n      dup3\n        /* \"#utility.yul\":6414:6428   */\n      add\n        /* \"#utility.yul\":6406:6428   */\n      swap1\n      pop\n        /* \"#utility.yul\":6294:6435   */\n      swap2\n      swap1\n      pop\n      jump\t// out\n        /* \"#utility.yul\":6441:6539   */\n    tag_101:\n        /* \"#utility.yul\":6492:6498   */\n      0x00\n        /* \"#utility.yul\":6526:6531   */\n      dup2\n        /* \"#utility.yul\":6520:6532   */\n      mload\n        /* \"#utility.yul\":6510:6532   */\n      swap1\n      pop\n        /* \"#utility.yul\":6441:6539   */\n      swap2\n      swap1\n      pop\n      jump\t// out\n        /* \"#utility.yul\":6545:6703   */\n    tag_102:\n        /* \"#utility.yul\":6618:6629   */\n      0x00\n        /* \"#utility.yul\":6652:6658   */\n      dup3\n        /* \"#utility.yul\":6647:6650   */\n      dup3\n        /* \"#utility.yul\":6640:6659   */\n      mstore\n        /* \"#utility.yul\":6692:6696   */\n      0x20\n        /* \"#utility.yul\":6687:6690   */\n      dup3\n        /* \"#utility.yul\":6683:6697   */\n      add\n        /* \"#utility.yul\":6668:6697   */\n      swap1\n      pop\n        /* \"#utility.yul\":6545:6703   */\n      swap3\n      swap2\n      pop\n      pop\n      jump\t// out\n        /* \"#utility.yul\":6709:6955   */\n    tag_103:\n        /* \"#utility.yul\":6790:6791   */\n      0x00\n        /* \"#utility.yul\":6800:6913   */\n    tag_199:\n        /* \"#utility.yul\":6814:6820   */\n      dup4\n        /* \"#utility.yul\":6811:6812   */\n      dup2\n        /* \"#utility.yul\":6808:6821   */\n      lt\n        /* \"#utility.yul\":6800:6913   */\n      iszero\n      tag_201\n      jumpi\n        /* \"#utility.yul\":6899:6900   */\n      dup1\n        /* \"#utility.yul\":6894:6897   */\n      dup3\n        /* \"#utility.yul\":6890:6901   */\n      add\n        /* \"#utility.yul\":6884:6902   */\n      mload\n        /* \"#utility.yul\":6880:6881   */\n      dup2\n        /* \"#utility.yul\":6875:6878   */\n      dup5\n        /* \"#utility.yul\":6871:6882   */\n      add\n        /* \"#utility.yul\":6864:6903   */\n      mstore\n        /* \"#utility.yul\":6836:6838   */\n      0x20\n        /* \"#utility.yul\":6833:6834   */\n      dup2\n        /* \"#utility.yul\":6829:6839   */\n      add\n        /* \"#utility.yul\":6824:6839   */\n      swap1\n      pop\n        /* \"#utility.yul\":6800:6913   */\n      jump(tag_199)\n    tag_201:\n        /* \"#utility.yul\":6947:6948   */\n      0x00\n        /* \"#utility.yul\":6938:6944   */\n      dup5\n        /* \"#utility.yul\":6933:6936   */\n      dup5\n        /* \"#utility.yul\":6929:6945   */\n      add\n        /* \"#utility.yul\":6922:6949   */\n      mstore\n        /* \"#utility.yul\":6771:6955   */\n      pop\n        /* \"#utility.yul\":6709:6955   */\n      pop\n      pop\n      pop\n      jump\t// out\n        /* \"#utility.yul\":6961:7314   */\n    tag_104:\n        /* \"#utility.yul\":7037:7040   */\n      0x00\n        /* \"#utility.yul\":7065:7103   */\n      tag_203\n        /* \"#utility.yul\":7097:7102   */\n      dup3\n        /* \"#utility.yul\":7065:7103   */\n      tag_101\n      jump\t// in\n    tag_203:\n        /* \"#utility.yul\":7119:7179   */\n      tag_204\n        /* \"#utility.yul\":7172:7178   */\n      dup2\n        /* \"#utility.yul\":7167:7170   */\n      dup6\n        /* \"#utility.yul\":7119:7179   */\n      tag_102\n      jump\t// in\n    tag_204:\n        /* \"#utility.yul\":7112:7179   */\n      swap4\n      pop\n        /* \"#utility.yul\":7188:7253   */\n      tag_205\n        /* \"#utility.yul\":7246:7252   */\n      dup2\n        /* \"#utility.yul\":7241:7244   */\n      dup6\n        /* \"#utility.yul\":7234:7238   */\n      0x20\n        /* \"#utility.yul\":7227:7232   */\n      dup7\n        /* \"#utility.yul\":7223:7239   */\n      add\n        /* \"#utility.yul\":7188:7253   */\n      tag_103\n      jump\t// in\n    tag_205:\n        /* \"#utility.yul\":7278:7307   */\n      tag_206\n        /* \"#utility.yul\":7300:7306   */\n      dup2\n        /* \"#utility.yul\":7278:7307   */\n      tag_86\n      jump\t// in\n    tag_206:\n        /* \"#utility.yul\":7273:7276   */\n      dup5\n        /* \"#utility.yul\":7269:7308   */\n      add\n        /* \"#utility.yul\":7262:7308   */\n      swap2\n      pop\n        /* \"#utility.yul\":7041:7314   */\n      pop\n        /* \"#utility.yul\":6961:7314   */\n      swap3\n      swap2\n      pop\n      pop\n      jump\t// out\n        /* \"#utility.yul\":7320:7512   */\n    tag_105:\n        /* \"#utility.yul\":7407:7417   */\n      0x00\n        /* \"#utility.yul\":7442:7506   */\n      tag_208\n        /* \"#utility.yul\":7502:7505   */\n      dup4\n        /* \"#utility.yul\":7494:7500   */\n      dup4\n        /* \"#utility.yul\":7442:7506   */\n      tag_104\n      jump\t// in\n    tag_208:\n        /* \"#utility.yul\":7428:7506   */\n      swap1\n      pop\n        /* \"#utility.yul\":7320:7512   */\n      swap3\n      swap2\n      pop\n      pop\n      jump\t// out\n        /* \"#utility.yul\":7518:7640   */\n    tag_106:\n        /* \"#utility.yul\":7597:7601   */\n      0x00\n        /* \"#utility.yul\":7629:7633   */\n      0x20\n        /* \"#utility.yul\":7624:7627   */\n      dup3\n        /* \"#utility.yul\":7620:7634   */\n      add\n        /* \"#utility.yul\":7612:7634   */\n      swap1\n      pop\n        /* \"#utility.yul\":7518:7640   */\n      swap2\n      swap1\n      pop\n      jump\t// out\n        /* \"#utility.yul\":7672:8655   */\n    tag_107:\n        /* \"#utility.yul\":7809:7812   */\n      0x00\n        /* \"#utility.yul\":7838:7901   */\n      tag_211\n        /* \"#utility.yul\":7895:7900   */\n      dup3\n        /* \"#utility.yul\":7838:7901   */\n      tag_98\n      jump\t// in\n    tag_211:\n        /* \"#utility.yul\":7917:8012   */\n      tag_212\n        /* \"#utility.yul\":8005:8011   */\n      dup2\n        /* \"#utility.yul\":8000:8003   */\n      dup6\n        /* \"#utility.yul\":7917:8012   */\n      tag_99\n      jump\t// in\n    tag_212:\n        /* \"#utility.yul\":7910:8012   */\n      swap4\n      pop\n        /* \"#utility.yul\":8038:8041   */\n      dup4\n        /* \"#utility.yul\":8083:8087   */\n      0x20\n        /* \"#utility.yul\":8075:8081   */\n      dup3\n        /* \"#utility.yul\":8071:8088   */\n      mul\n        /* \"#utility.yul\":8066:8069   */\n      dup6\n        /* \"#utility.yul\":8062:8089   */\n      add\n        /* \"#utility.yul\":8113:8178   */\n      tag_213\n        /* \"#utility.yul\":8172:8177   */\n      dup6\n        /* \"#utility.yul\":8113:8178   */\n      tag_100\n      jump\t// in\n    tag_213:\n        /* \"#utility.yul\":8201:8208   */\n      dup1\n        /* \"#utility.yul\":8232:8233   */\n      0x00\n        /* \"#utility.yul\":8217:8610   */\n    tag_214:\n        /* \"#utility.yul\":8242:8248   */\n      dup6\n        /* \"#utility.yul\":8239:8240   */\n      dup2\n        /* \"#utility.yul\":8236:8249   */\n      lt\n        /* \"#utility.yul\":8217:8610   */\n      iszero\n      tag_216\n      jumpi\n        /* \"#utility.yul\":8313:8322   */\n      dup5\n        /* \"#utility.yul\":8307:8311   */\n      dup5\n        /* \"#utility.yul\":8303:8323   */\n      sub\n        /* \"#utility.yul\":8298:8301   */\n      dup10\n        /* \"#utility.yul\":8291:8324   */\n      mstore\n        /* \"#utility.yul\":8364:8370   */\n      dup2\n        /* \"#utility.yul\":8358:8371   */\n      mload\n        /* \"#utility.yul\":8392:8474   */\n      tag_217\n        /* \"#utility.yul\":8469:8473   */\n      dup6\n        /* \"#utility.yul\":8454:8467   */\n      dup3\n        /* \"#utility.yul\":8392:8474   */\n      tag_105\n      jump\t// in\n    tag_217:\n        /* \"#utility.yul\":8384:8474   */\n      swap5\n      pop\n        /* \"#utility.yul\":8497:8566   */\n      tag_218\n        /* \"#utility.yul\":8559:8565   */\n      dup4\n        /* \"#utility.yul\":8497:8566   */\n      tag_106\n      jump\t// in\n    tag_218:\n        /* \"#utility.yul\":8487:8566   */\n      swap3\n      pop\n        /* \"#utility.yul\":8595:8599   */\n      0x20\n        /* \"#utility.yul\":8590:8593   */\n      dup11\n        /* \"#utility.yul\":8586:8600   */\n      add\n        /* \"#utility.yul\":8579:8600   */\n      swap10\n      pop\n        /* \"#utility.yul\":8277:8610   */\n      pop\n        /* \"#utility.yul\":8264:8265   */\n      0x01\n        /* \"#utility.yul\":8261:8262   */\n      dup2\n        /* \"#utility.yul\":8257:8266   */\n      add\n        /* \"#utility.yul\":8252:8266   */\n      swap1\n      pop\n        /* \"#utility.yul\":8217:8610   */\n      jump(tag_214)\n    tag_216:\n        /* \"#utility.yul\":8221:8235   */\n      pop\n        /* \"#utility.yul\":8626:8630   */\n      dup3\n        /* \"#utility.yul\":8619:8630   */\n      swap8\n      pop\n        /* \"#utility.yul\":8646:8649   */\n      dup8\n        /* \"#utility.yul\":8639:8649   */\n      swap6\n      pop\n        /* \"#utility.yul\":7814:8655   */\n      pop\n      pop\n      pop\n      pop\n      pop\n        /* \"#utility.yul\":7672:8655   */\n      swap3\n      swap2\n      pop\n      pop\n      jump\t// out\n        /* \"#utility.yul\":8661:9070   */\n    tag_17:\n        /* \"#utility.yul\":8822:8826   */\n      0x00\n        /* \"#utility.yul\":8860:8862   */\n      0x20\n        /* \"#utility.yul\":8849:8858   */\n      dup3\n        /* \"#utility.yul\":8845:8863   */\n      add\n        /* \"#utility.yul\":8837:8863   */\n      swap1\n      pop\n        /* \"#utility.yul\":8909:8918   */\n      dup2\n        /* \"#utility.yul\":8903:8907   */\n      dup2\n        /* \"#utility.yul\":8899:8919   */\n      sub\n        /* \"#utility.yul\":8895:8896   */\n      0x00\n        /* \"#utility.yul\":8884:8893   */\n      dup4\n        /* \"#utility.yul\":8880:8897   */\n      add\n        /* \"#utility.yul\":8873:8920   */\n      mstore\n        /* \"#utility.yul\":8937:9063   */\n      tag_220\n        /* \"#utility.yul\":9058:9062   */\n      dup2\n        /* \"#utility.yul\":9049:9055   */\n      dup5\n        /* \"#utility.yul\":8937:9063   */\n      tag_107\n      jump\t// in\n    tag_220:\n        /* \"#utility.yul\":8929:9063   */\n      swap1\n      pop\n        /* \"#utility.yul\":8661:9070   */\n      swap3\n      swap2\n      pop\n      pop\n      jump\t// out\n        /* \"#utility.yul\":9076:9153   */\n    tag_108:\n        /* \"#utility.yul\":9113:9120   */\n      0x00\n        /* \"#utility.yul\":9142:9147   */\n      dup2\n        /* \"#utility.yul\":9131:9147   */\n      swap1\n      pop\n        /* \"#utility.yul\":9076:9153   */\n      swap2\n      swap1\n      pop\n      jump\t// out\n        /* \"#utility.yul\":9159:9281   */\n    tag_109:\n        /* \"#utility.yul\":9232:9256   */\n      tag_223\n        /* \"#utility.yul\":9250:9255   */\n      dup2\n        /* \"#utility.yul\":9232:9256   */\n      tag_108\n      jump\t// in\n    tag_223:\n        /* \"#utility.yul\":9225:9230   */\n      dup2\n        /* \"#utility.yul\":9222:9257   */\n      eq\n        /* \"#utility.yul\":9212:9275   */\n      tag_224\n      jumpi\n        /* \"#utility.yul\":9271:9272   */\n      0x00\n        /* \"#utility.yul\":9268:9269   */\n      dup1\n        /* \"#utility.yul\":9261:9273   */\n      revert\n        /* \"#utility.yul\":9212:9275   */\n    tag_224:\n        /* \"#utility.yul\":9159:9281   */\n      pop\n      jump\t// out\n        /* \"#utility.yul\":9287:9426   */\n    tag_110:\n        /* \"#utility.yul\":9333:9338   */\n      0x00\n        /* \"#utility.yul\":9371:9377   */\n      dup2\n        /* \"#utility.yul\":9358:9378   */\n      calldataload\n        /* \"#utility.yul\":9349:9378   */\n      swap1\n      pop\n        /* \"#utility.yul\":9387:9420   */\n      tag_226\n        /* \"#utility.yul\":9414:9419   */\n      dup2\n        /* \"#utility.yul\":9387:9420   */\n      tag_109\n      jump\t// in\n    tag_226:\n        /* \"#utility.yul\":9287:9426   */\n      swap3\n      swap2\n      pop\n      pop\n      jump\t// out\n        /* \"#utility.yul\":9432:9761   */\n    tag_21:\n        /* \"#utility.yul\":9491:9497   */\n      0x00\n        /* \"#utility.yul\":9540:9542   */\n      0x20\n        /* \"#utility.yul\":9528:9537   */\n      dup3\n        /* \"#utility.yul\":9519:9526   */\n      dup5\n        /* \"#utility.yul\":9515:9538   */\n      sub\n        /* \"#utility.yul\":9511:9543   */\n      slt\n        /* \"#utility.yul\":9508:9627   */\n      iszero\n      tag_228\n      jumpi\n        /* \"#utility.yul\":9546:9625   */\n      tag_229\n      tag_83\n      jump\t// in\n    tag_229:\n        /* \"#utility.yul\":9508:9627   */\n    tag_228:\n        /* \"#utility.yul\":9666:9667   */\n      0x00\n        /* \"#utility.yul\":9691:9744   */\n      tag_230\n        /* \"#utility.yul\":9736:9743   */\n      dup5\n        /* \"#utility.yul\":9727:9733   */\n      dup3\n        /* \"#utility.yul\":9716:9725   */\n      dup6\n        /* \"#utility.yul\":9712:9734   */\n      add\n        /* \"#utility.yul\":9691:9744   */\n      tag_110\n      jump\t// in\n    tag_230:\n        /* \"#utility.yul\":9681:9744   */\n      swap2\n      pop\n        /* \"#utility.yul\":9637:9754   */\n      pop\n        /* \"#utility.yul\":9432:9761   */\n      swap3\n      swap2\n      pop\n      pop\n      jump\t// out\n        /* \"#utility.yul\":9767:9863   */\n    tag_111:\n        /* \"#utility.yul\":9804:9811   */\n      0x00\n        /* \"#utility.yul\":9833:9857   */\n      tag_232\n        /* \"#utility.yul\":9851:9856   */\n      dup3\n        /* \"#utility.yul\":9833:9857   */\n      tag_76\n      jump\t// in\n    tag_232:\n        /* \"#utility.yul\":9822:9857   */\n      swap1\n      pop\n        /* \"#utility.yul\":9767:9863   */\n      swap2\n      swap1\n      pop\n      jump\t// out\n        /* \"#utility.yul\":9869:9991   */\n    tag_112:\n        /* \"#utility.yul\":9942:9966   */\n      tag_234\n        /* \"#utility.yul\":9960:9965   */\n      dup2\n        /* \"#utility.yul\":9942:9966   */\n      tag_111\n      jump\t// in\n    tag_234:\n        /* \"#utility.yul\":9935:9940   */\n      dup2\n        /* \"#utility.yul\":9932:9967   */\n      eq\n        /* \"#utility.yul\":9922:9985   */\n      tag_235\n      jumpi\n        /* \"#utility.yul\":9981:9982   */\n      0x00\n        /* \"#utility.yul\":9978:9979   */\n      dup1\n        /* \"#utility.yul\":9971:9983   */\n      revert\n        /* \"#utility.yul\":9922:9985   */\n    tag_235:\n        /* \"#utility.yul\":9869:9991   */\n      pop\n      jump\t// out\n        /* \"#utility.yul\":9997:10136   */\n    tag_113:\n        /* \"#utility.yul\":10043:10048   */\n      0x00\n        /* \"#utility.yul\":10081:10087   */\n      dup2\n        /* \"#utility.yul\":10068:10088   */\n      calldataload\n        /* \"#utility.yul\":10059:10088   */\n      swap1\n      pop\n        /* \"#utility.yul\":10097:10130   */\n      tag_237\n        /* \"#utility.yul\":10124:10129   */\n      dup2\n        /* \"#utility.yul\":10097:10130   */\n      tag_112\n      jump\t// in\n    tag_237:\n        /* \"#utility.yul\":9997:10136   */\n      swap3\n      swap2\n      pop\n      pop\n      jump\t// out\n        /* \"#utility.yul\":10142:10471   */\n    tag_26:\n        /* \"#utility.yul\":10201:10207   */\n      0x00\n        /* \"#utility.yul\":10250:10252   */\n      0x20\n        /* \"#utility.yul\":10238:10247   */\n      dup3\n        /* \"#utility.yul\":10229:10236   */\n      dup5\n        /* \"#utility.yul\":10225:10248   */\n      sub\n        /* \"#utility.yul\":10221:10253   */\n      slt\n        /* \"#utility.yul\":10218:10337   */\n      iszero\n      tag_239\n      jumpi\n        /* \"#utility.yul\":10256:10335   */\n      tag_240\n      tag_83\n      jump\t// in\n    tag_240:\n        /* \"#utility.yul\":10218:10337   */\n    tag_239:\n        /* \"#utility.yul\":10376:10377   */\n      0x00\n        /* \"#utility.yul\":10401:10454   */\n      tag_241\n        /* \"#utility.yul\":10446:10453   */\n      dup5\n        /* \"#utility.yul\":10437:10443   */\n      dup3\n        /* \"#utility.yul\":10426:10435   */\n      dup6\n        /* \"#utility.yul\":10422:10444   */\n      add\n        /* \"#utility.yul\":10401:10454   */\n      tag_113\n      jump\t// in\n    tag_241:\n        /* \"#utility.yul\":10391:10454   */\n      swap2\n      pop\n        /* \"#utility.yul\":10347:10464   */\n      pop\n        /* \"#utility.yul\":10142:10471   */\n      swap3\n      swap2\n      pop\n      pop\n      jump\t// out\n        /* \"#utility.yul\":10477:10951   */\n    tag_30:\n        /* \"#utility.yul\":10545:10551   */\n      0x00\n        /* \"#utility.yul\":10553:10559   */\n      dup1\n        /* \"#utility.yul\":10602:10604   */\n      0x40\n        /* \"#utility.yul\":10590:10599   */\n      dup4\n        /* \"#utility.yul\":10581:10588   */\n      dup6\n        /* \"#utility.yul\":10577:10600   */\n      sub\n        /* \"#utility.yul\":10573:10605   */\n      slt\n        /* \"#utility.yul\":10570:10689   */\n      iszero\n      tag_243\n      jumpi\n        /* \"#utility.yul\":10608:10687   */\n      tag_244\n      tag_83\n      jump\t// in\n    tag_244:\n        /* \"#utility.yul\":10570:10689   */\n    tag_243:\n        /* \"#utility.yul\":10728:10729   */\n      0x00\n        /* \"#utility.yul\":10753:10806   */\n      tag_245\n        /* \"#utility.yul\":10798:10805   */\n      dup6\n        /* \"#utility.yul\":10789:10795   */\n      dup3\n        /* \"#utility.yul\":10778:10787   */\n      dup7\n        /* \"#utility.yul\":10774:10796   */\n      add\n        /* \"#utility.yul\":10753:10806   */\n      tag_110\n      jump\t// in\n    tag_245:\n        /* \"#utility.yul\":10743:10806   */\n      swap3\n      pop\n        /* \"#utility.yul\":10699:10816   */\n      pop\n        /* \"#utility.yul\":10855:10857   */\n      0x20\n        /* \"#utility.yul\":10881:10934   */\n      tag_246\n        /* \"#utility.yul\":10926:10933   */\n      dup6\n        /* \"#utility.yul\":10917:10923   */\n      dup3\n        /* \"#utility.yul\":10906:10915   */\n      dup7\n        /* \"#utility.yul\":10902:10924   */\n      add\n        /* \"#utility.yul\":10881:10934   */\n      tag_113\n      jump\t// in\n    tag_246:\n        /* \"#utility.yul\":10871:10934   */\n      swap2\n      pop\n        /* \"#utility.yul\":10826:10944   */\n      pop\n        /* \"#utility.yul\":10477:10951   */\n      swap3\n      pop\n      swap3\n      swap1\n      pop\n      jump\t// out\n        /* \"#utility.yul\":10957:11137   */\n    tag_43:\n        /* \"#utility.yul\":11005:11082   */\n      0x4e487b7100000000000000000000000000000000000000000000000000000000\n        /* \"#utility.yul\":11002:11003   */\n      0x00\n        /* \"#utility.yul\":10995:11083   */\n      mstore\n        /* \"#utility.yul\":11102:11106   */\n      0x32\n        /* \"#utility.yul\":11099:11100   */\n      0x04\n        /* \"#utility.yul\":11092:11107   */\n      mstore\n        /* \"#utility.yul\":11126:11130   */\n      0x24\n        /* \"#utility.yul\":11123:11124   */\n      0x00\n        /* \"#utility.yul\":11116:11131   */\n      revert\n        /* \"#utility.yul\":11143:11290   */\n    tag_114:\n        /* \"#utility.yul\":11244:11255   */\n      0x00\n        /* \"#utility.yul\":11281:11284   */\n      dup2\n        /* \"#utility.yul\":11266:11284   */\n      swap1\n      pop\n        /* \"#utility.yul\":11143:11290   */\n      swap3\n      swap2\n      pop\n      pop\n      jump\t// out\n        /* \"#utility.yul\":11296:11682   */\n    tag_115:\n        /* \"#utility.yul\":11400:11403   */\n      0x00\n        /* \"#utility.yul\":11428:11466   */\n      tag_250\n        /* \"#utility.yul\":11460:11465   */\n      dup3\n        /* \"#utility.yul\":11428:11466   */\n      tag_101\n      jump\t// in\n    tag_250:\n        /* \"#utility.yul\":11482:11570   */\n      tag_251\n        /* \"#utility.yul\":11563:11569   */\n      dup2\n        /* \"#utility.yul\":11558:11561   */\n      dup6\n        /* \"#utility.yul\":11482:11570   */\n      tag_114\n      jump\t// in\n    tag_251:\n        /* \"#utility.yul\":11475:11570   */\n      swap4\n      pop\n        /* \"#utility.yul\":11579:11644   */\n      tag_252\n        /* \"#utility.yul\":11637:11643   */\n      dup2\n        /* \"#utility.yul\":11632:11635   */\n      dup6\n        /* \"#utility.yul\":11625:11629   */\n      0x20\n        /* \"#utility.yul\":11618:11623   */\n      dup7\n        /* \"#utility.yul\":11614:11630   */\n      add\n        /* \"#utility.yul\":11579:11644   */\n      tag_103\n      jump\t// in\n    tag_252:\n        /* \"#utility.yul\":11669:11675   */\n      dup1\n        /* \"#utility.yul\":11664:11667   */\n      dup5\n        /* \"#utility.yul\":11660:11676   */\n      add\n        /* \"#utility.yul\":11653:11676   */\n      swap2\n      pop\n        /* \"#utility.yul\":11404:11682   */\n      pop\n        /* \"#utility.yul\":11296:11682   */\n      swap3\n      swap2\n      pop\n      pop\n      jump\t// out\n        /* \"#utility.yul\":11688:11959   */\n    tag_45:\n        /* \"#utility.yul\":11818:11821   */\n      0x00\n        /* \"#utility.yul\":11840:11933   */\n      tag_254\n        /* \"#utility.yul\":11929:11932   */\n      dup3\n        /* \"#utility.yul\":11920:11926   */\n      dup5\n        /* \"#utility.yul\":11840:11933   */\n      tag_115\n      jump\t// in\n    tag_254:\n        /* \"#utility.yul\":11833:11933   */\n      swap2\n      pop\n        /* \"#utility.yul\":11950:11953   */\n      dup2\n        /* \"#utility.yul\":11943:11953   */\n      swap1\n      pop\n        /* \"#utility.yul\":11688:11959   */\n      swap3\n      swap2\n      pop\n      pop\n      jump\t// out\n        /* \"#utility.yul\":11965:12064   */\n    tag_116:\n        /* \"#utility.yul\":12017:12023   */\n      0x00\n        /* \"#utility.yul\":12051:12056   */\n      dup2\n        /* \"#utility.yul\":12045:12057   */\n      mload\n        /* \"#utility.yul\":12035:12057   */\n      swap1\n      pop\n        /* \"#utility.yul\":11965:12064   */\n      swap2\n      swap1\n      pop\n      jump\t// out\n        /* \"#utility.yul\":12070:12239   */\n    tag_117:\n        /* \"#utility.yul\":12154:12165   */\n      0x00\n        /* \"#utility.yul\":12188:12194   */\n      dup3\n        /* \"#utility.yul\":12183:12186   */\n      dup3\n        /* \"#utility.yul\":12176:12195   */\n      mstore\n        /* \"#utility.yul\":12228:12232   */\n      0x20\n        /* \"#utility.yul\":12223:12226   */\n      dup3\n        /* \"#utility.yul\":12219:12233   */\n      add\n        /* \"#utility.yul\":12204:12233   */\n      swap1\n      pop\n        /* \"#utility.yul\":12070:12239   */\n      swap3\n      swap2\n      pop\n      pop\n      jump\t// out\n        /* \"#utility.yul\":12245:12622   */\n    tag_118:\n        /* \"#utility.yul\":12333:12336   */\n      0x00\n        /* \"#utility.yul\":12361:12400   */\n      tag_258\n        /* \"#utility.yul\":12394:12399   */\n      dup3\n        /* \"#utility.yul\":12361:12400   */\n      tag_116\n      jump\t// in\n    tag_258:\n        /* \"#utility.yul\":12416:12487   */\n      tag_259\n        /* \"#utility.yul\":12480:12486   */\n      dup2\n        /* \"#utility.yul\":12475:12478   */\n      dup6\n        /* \"#utility.yul\":12416:12487   */\n      tag_117\n      jump\t// in\n    tag_259:\n        /* \"#utility.yul\":12409:12487   */\n      swap4\n      pop\n        /* \"#utility.yul\":12496:12561   */\n      tag_260\n        /* \"#utility.yul\":12554:12560   */\n      dup2\n        /* \"#utility.yul\":12549:12552   */\n      dup6\n        /* \"#utility.yul\":12542:12546   */\n      0x20\n        /* \"#utility.yul\":12535:12540   */\n      dup7\n        /* \"#utility.yul\":12531:12547   */\n      add\n        /* \"#utility.yul\":12496:12561   */\n      tag_103\n      jump\t// in\n    tag_260:\n        /* \"#utility.yul\":12586:12615   */\n      tag_261\n        /* \"#utility.yul\":12608:12614   */\n      dup2\n        /* \"#utility.yul\":12586:12615   */\n      tag_86\n      jump\t// in\n    tag_261:\n        /* \"#utility.yul\":12581:12584   */\n      dup5\n        /* \"#utility.yul\":12577:12616   */\n      add\n        /* \"#utility.yul\":12570:12616   */\n      swap2\n      pop\n        /* \"#utility.yul\":12337:12622   */\n      pop\n        /* \"#utility.yul\":12245:12622   */\n      swap3\n      swap2\n      pop\n      pop\n      jump\t// out\n        /* \"#utility.yul\":12628:12941   */\n    tag_53:\n        /* \"#utility.yul\":12741:12745   */\n      0x00\n        /* \"#utility.yul\":12779:12781   */\n      0x20\n        /* \"#utility.yul\":12768:12777   */\n      dup3\n        /* \"#utility.yul\":12764:12782   */\n      add\n        /* \"#utility.yul\":12756:12782   */\n      swap1\n      pop\n        /* \"#utility.yul\":12828:12837   */\n      dup2\n        /* \"#utility.yul\":12822:12826   */\n      dup2\n        /* \"#utility.yul\":12818:12838   */\n      sub\n        /* \"#utility.yul\":12814:12815   */\n      0x00\n        /* \"#utility.yul\":12803:12812   */\n      dup4\n        /* \"#utility.yul\":12799:12816   */\n      add\n        /* \"#utility.yul\":12792:12839   */\n      mstore\n        /* \"#utility.yul\":12856:12934   */\n      tag_263\n        /* \"#utility.yul\":12929:12933   */\n      dup2\n        /* \"#utility.yul\":12920:12926   */\n      dup5\n        /* \"#utility.yul\":12856:12934   */\n      tag_118\n      jump\t// in\n    tag_263:\n        /* \"#utility.yul\":12848:12934   */\n      swap1\n      pop\n        /* \"#utility.yul\":12628:12941   */\n      swap3\n      swap2\n      pop\n      pop\n      jump\t// out\n        /* \"#utility.yul\":12947:13065   */\n    tag_119:\n        /* \"#utility.yul\":13034:13058   */\n      tag_265\n        /* \"#utility.yul\":13052:13057   */\n      dup2\n        /* \"#utility.yul\":13034:13058   */\n      tag_108\n      jump\t// in\n    tag_265:\n        /* \"#utility.yul\":13029:13032   */\n      dup3\n        /* \"#utility.yul\":13022:13059   */\n      mstore\n        /* \"#utility.yul\":12947:13065   */\n      pop\n      pop\n      jump\t// out\n        /* \"#utility.yul\":13071:13189   */\n    tag_120:\n        /* \"#utility.yul\":13158:13182   */\n      tag_267\n        /* \"#utility.yul\":13176:13181   */\n      dup2\n        /* \"#utility.yul\":13158:13182   */\n      tag_111\n      jump\t// in\n    tag_267:\n        /* \"#utility.yul\":13153:13156   */\n      dup3\n        /* \"#utility.yul\":13146:13183   */\n      mstore\n        /* \"#utility.yul\":13071:13189   */\n      pop\n      pop\n      jump\t// out\n        /* \"#utility.yul\":13195:13527   */\n    tag_58:\n        /* \"#utility.yul\":13316:13320   */\n      0x00\n        /* \"#utility.yul\":13354:13356   */\n      0x40\n        /* \"#utility.yul\":13343:13352   */\n      dup3\n        /* \"#utility.yul\":13339:13357   */\n      add\n        /* \"#utility.yul\":13331:13357   */\n      swap1\n      pop\n        /* \"#utility.yul\":13367:13438   */\n      tag_269\n        /* \"#utility.yul\":13435:13436   */\n      0x00\n        /* \"#utility.yul\":13424:13433   */\n      dup4\n        /* \"#utility.yul\":13420:13437   */\n      add\n        /* \"#utility.yul\":13411:13417   */\n      dup6\n        /* \"#utility.yul\":13367:13438   */\n      tag_119\n      jump\t// in\n    tag_269:\n        /* \"#utility.yul\":13448:13520   */\n      tag_270\n        /* \"#utility.yul\":13516:13518   */\n      0x20\n        /* \"#utility.yul\":13505:13514   */\n      dup4\n        /* \"#utility.yul\":13501:13519   */\n      add\n        /* \"#utility.yul\":13492:13498   */\n      dup5\n        /* \"#utility.yul\":13448:13520   */\n      tag_120\n      jump\t// in\n    tag_270:\n        /* \"#utility.yul\":13195:13527   */\n      swap4\n      swap3\n      pop\n      pop\n      pop\n      jump\t// out\n        /* \"#utility.yul\":13533:13841   */\n    tag_121:\n        /* \"#utility.yul\":13595:13599   */\n      0x00\n        /* \"#utility.yul\":13685:13703   */\n      0xffffffffffffffff\n        /* \"#utility.yul\":13677:13683   */\n      dup3\n        /* \"#utility.yul\":13674:13704   */\n      gt\n        /* \"#utility.yul\":13671:13727   */\n      iszero\n      tag_272\n      jumpi\n        /* \"#utility.yul\":13707:13725   */\n      tag_273\n      tag_35\n      jump\t// in\n    tag_273:\n        /* \"#utility.yul\":13671:13727   */\n    tag_272:\n        /* \"#utility.yul\":13745:13774   */\n      tag_274\n        /* \"#utility.yul\":13767:13773   */\n      dup3\n        /* \"#utility.yul\":13745:13774   */\n      tag_86\n      jump\t// in\n    tag_274:\n        /* \"#utility.yul\":13737:13774   */\n      swap1\n      pop\n        /* \"#utility.yul\":13829:13833   */\n      0x20\n        /* \"#utility.yul\":13823:13827   */\n      dup2\n        /* \"#utility.yul\":13819:13834   */\n      add\n        /* \"#utility.yul\":13811:13834   */\n      swap1\n      pop\n        /* \"#utility.yul\":13533:13841   */\n      swap2\n      swap1\n      pop\n      jump\t// out\n        /* \"#utility.yul\":13847:14281   */\n    tag_122:\n        /* \"#utility.yul\":13936:13941   */\n      0x00\n        /* \"#utility.yul\":13961:14027   */\n      tag_276\n        /* \"#utility.yul\":13977:14026   */\n      tag_277\n        /* \"#utility.yul\":14019:14025   */\n      dup5\n        /* \"#utility.yul\":13977:14026   */\n      tag_121\n      jump\t// in\n    tag_277:\n        /* \"#utility.yul\":13961:14027   */\n      tag_88\n      jump\t// in\n    tag_276:\n        /* \"#utility.yul\":13952:14027   */\n      swap1\n      pop\n        /* \"#utility.yul\":14050:14056   */\n      dup3\n        /* \"#utility.yul\":14043:14048   */\n      dup2\n        /* \"#utility.yul\":14036:14057   */\n      mstore\n        /* \"#utility.yul\":14088:14092   */\n      0x20\n        /* \"#utility.yul\":14081:14086   */\n      dup2\n        /* \"#utility.yul\":14077:14093   */\n      add\n        /* \"#utility.yul\":14126:14129   */\n      dup5\n        /* \"#utility.yul\":14117:14123   */\n      dup5\n        /* \"#utility.yul\":14112:14115   */\n      dup5\n        /* \"#utility.yul\":14108:14124   */\n      add\n        /* \"#utility.yul\":14105:14130   */\n      gt\n        /* \"#utility.yul\":14102:14214   */\n      iszero\n      tag_278\n      jumpi\n        /* \"#utility.yul\":14133:14212   */\n      tag_279\n      tag_91\n      jump\t// in\n    tag_279:\n        /* \"#utility.yul\":14102:14214   */\n    tag_278:\n        /* \"#utility.yul\":14223:14275   */\n      tag_280\n        /* \"#utility.yul\":14268:14274   */\n      dup5\n        /* \"#utility.yul\":14263:14266   */\n      dup3\n        /* \"#utility.yul\":14258:14261   */\n      dup6\n        /* \"#utility.yul\":14223:14275   */\n      tag_103\n      jump\t// in\n    tag_280:\n        /* \"#utility.yul\":13942:14281   */\n      pop\n        /* \"#utility.yul\":13847:14281   */\n      swap4\n      swap3\n      pop\n      pop\n      pop\n      jump\t// out\n        /* \"#utility.yul\":14301:14656   */\n    tag_123:\n        /* \"#utility.yul\":14368:14373   */\n      0x00\n        /* \"#utility.yul\":14417:14420   */\n      dup3\n        /* \"#utility.yul\":14410:14414   */\n      0x1f\n        /* \"#utility.yul\":14402:14408   */\n      dup4\n        /* \"#utility.yul\":14398:14415   */\n      add\n        /* \"#utility.yul\":14394:14421   */\n      slt\n        /* \"#utility.yul\":14384:14506   */\n      tag_282\n      jumpi\n        /* \"#utility.yul\":14425:14504   */\n      tag_283\n      tag_85\n      jump\t// in\n    tag_283:\n        /* \"#utility.yul\":14384:14506   */\n    tag_282:\n        /* \"#utility.yul\":14535:14541   */\n      dup2\n        /* \"#utility.yul\":14529:14542   */\n      mload\n        /* \"#utility.yul\":14560:14650   */\n      tag_284\n        /* \"#utility.yul\":14646:14649   */\n      dup5\n        /* \"#utility.yul\":14638:14644   */\n      dup3\n        /* \"#utility.yul\":14631:14635   */\n      0x20\n        /* \"#utility.yul\":14623:14629   */\n      dup7\n        /* \"#utility.yul\":14619:14636   */\n      add\n        /* \"#utility.yul\":14560:14650   */\n      tag_122\n      jump\t// in\n    tag_284:\n        /* \"#utility.yul\":14551:14650   */\n      swap2\n      pop\n        /* \"#utility.yul\":14374:14656   */\n      pop\n        /* \"#utility.yul\":14301:14656   */\n      swap3\n      swap2\n      pop\n      pop\n      jump\t// out\n        /* \"#utility.yul\":14662:15186   */\n    tag_75:\n        /* \"#utility.yul\":14742:14748   */\n      0x00\n        /* \"#utility.yul\":14791:14793   */\n      0x20\n        /* \"#utility.yul\":14779:14788   */\n      dup3\n        /* \"#utility.yul\":14770:14777   */\n      dup5\n        /* \"#utility.yul\":14766:14789   */\n      sub\n        /* \"#utility.yul\":14762:14794   */\n      slt\n        /* \"#utility.yul\":14759:14878   */\n      iszero\n      tag_286\n      jumpi\n        /* \"#utility.yul\":14797:14876   */\n      tag_287\n      tag_83\n      jump\t// in\n    tag_287:\n        /* \"#utility.yul\":14759:14878   */\n    tag_286:\n        /* \"#utility.yul\":14938:14939   */\n      0x00\n        /* \"#utility.yul\":14927:14936   */\n      dup3\n        /* \"#utility.yul\":14923:14940   */\n      add\n        /* \"#utility.yul\":14917:14941   */\n      mload\n        /* \"#utility.yul\":14968:14986   */\n      0xffffffffffffffff\n        /* \"#utility.yul\":14960:14966   */\n      dup2\n        /* \"#utility.yul\":14957:14987   */\n      gt\n        /* \"#utility.yul\":14954:15071   */\n      iszero\n      tag_288\n      jumpi\n        /* \"#utility.yul\":14990:15069   */\n      tag_289\n      tag_84\n      jump\t// in\n    tag_289:\n        /* \"#utility.yul\":14954:15071   */\n    tag_288:\n        /* \"#utility.yul\":15095:15169   */\n      tag_290\n        /* \"#utility.yul\":15161:15168   */\n      dup5\n        /* \"#utility.yul\":15152:15158   */\n      dup3\n        /* \"#utility.yul\":15141:15150   */\n      dup6\n        /* \"#utility.yul\":15137:15159   */\n      add\n        /* \"#utility.yul\":15095:15169   */\n      tag_123\n      jump\t// in\n    tag_290:\n        /* \"#utility.yul\":15085:15169   */\n      swap2\n      pop\n        /* \"#utility.yul\":14888:15179   */\n      pop\n        /* \"#utility.yul\":14662:15186   */\n      swap3\n      swap2\n      pop\n      pop\n      jump\t// out\n\n    auxdata: 0xa2646970667358221220e8419cdeae2ef35ff5a1566ae478631f7ab5f8d7fd934ecc996895d45345d4a764736f6c63430008160033\n}\n",
				"bytecode": {
					"linkReferences": {},
					"object": "608060405234801561000f575f80fd5b50610c8f8061001d5f395ff3fe608060405260043610610049575f3560e01c806316f0115b1461004d5780631e897afb1461007757806329e99f07146100a75780634437152a146100cf5780638e1cd120146100f7575b5f80fd5b348015610058575f80fd5b50610061610113565b60405161006e919061055a565b60405180910390f35b610091600480360381019061008c91906107a2565b610136565b60405161009e919061091e565b60405180910390f35b3480156100b2575f80fd5b506100cd60048036038101906100c89190610971565b610295565b005b3480156100da575f80fd5b506100f560048036038101906100f091906109d7565b6103a8565b005b610111600480360381019061010c9190610a02565b6103ea565b005b5f8054906101000a900473ffffffffffffffffffffffffffffffffffffffff1681565b6060815167ffffffffffffffff81111561015357610152610598565b5b60405190808252806020026020018201604052801561018657816020015b60608152602001906001900390816101715790505b5090505f5b825181101561028f575f803073ffffffffffffffffffffffffffffffffffffffff168584815181106101c0576101bf610a40565b5b60200260200101516040516101d59190610aa7565b5f60405180830381855af49150503d805f811461020d576040519150601f19603f3d011682016040523d82523d5f602084013e610212565b606091505b5091509150816102615761022581610475565b6040517f08c379a00000000000000000000000000000000000000000000000000000000081526004016102589190610b0f565b60405180910390fd5b8084848151811061027557610274610a40565b5b60200260200101819052505050808060010191505061018b565b50919050565b5f81336040516024016102a9929190610b4d565b6040516020818303038152906040527f8e1cd120000000000000000000000000000000000000000000000000000000007bffffffffffffffffffffffffffffffffffffffffffffffffffffffff19166020820180517bffffffffffffffffffffffffffffffffffffffffffffffffffffffff838183161783525050505090505f600167ffffffffffffffff81111561034457610343610598565b5b60405190808252806020026020018201604052801561037757816020015b60608152602001906001900390816103625790505b50905081815f8151811061038e5761038d610a40565b5b60200260200101819052506103a281610136565b50505050565b805f806101000a81548173ffffffffffffffffffffffffffffffffffffffff021916908373ffffffffffffffffffffffffffffffffffffffff16021790555050565b5f8054906101000a900473ffffffffffffffffffffffffffffffffffffffff1673ffffffffffffffffffffffffffffffffffffffff16638e1cd12083836040518363ffffffff1660e01b8152600401610444929190610b4d565b5f604051808303815f87803b15801561045b575f80fd5b505af115801561046d573d5f803e3d5ffd5b505050505050565b60606044825110156104be576040518060400160405280601d81526020017f5472616e73616374696f6e2072657665727465642073696c656e746c7900000081525090506104db565b600482019150818060200190518101906104d89190610c12565b90505b919050565b5f73ffffffffffffffffffffffffffffffffffffffff82169050919050565b5f819050919050565b5f61052261051d610518846104e0565b6104ff565b6104e0565b9050919050565b5f61053382610508565b9050919050565b5f61054482610529565b9050919050565b6105548161053a565b82525050565b5f60208201905061056d5f83018461054b565b92915050565b5f604051905090565b5f80fd5b5f80fd5b5f80fd5b5f601f19601f8301169050919050565b7f4e487b71000000000000000000000000000000000000000000000000000000005f52604160045260245ffd5b6105ce82610588565b810181811067ffffffffffffffff821117156105ed576105ec610598565b5b80604052505050565b5f6105ff610573565b905061060b82826105c5565b919050565b5f67ffffffffffffffff82111561062a57610629610598565b5b602082029050602081019050919050565b5f80fd5b5f80fd5b5f67ffffffffffffffff82111561065d5761065c610598565b5b61066682610588565b9050602081019050919050565b828183375f83830152505050565b5f61069361068e84610643565b6105f6565b9050828152602081018484840111156106af576106ae61063f565b5b6106ba848285610673565b509392505050565b5f82601f8301126106d6576106d5610584565b5b81356106e6848260208601610681565b91505092915050565b5f6107016106fc84610610565b6105f6565b905080838252602082019050602084028301858111156107245761072361063b565b5b835b8181101561076b57803567ffffffffffffffff81111561074957610748610584565b5b80860161075689826106c2565b85526020850194505050602081019050610726565b5050509392505050565b5f82601f83011261078957610788610584565b5b81356107998482602086016106ef565b91505092915050565b5f602082840312156107b7576107b661057c565b5b5f82013567ffffffffffffffff8111156107d4576107d3610580565b5b6107e084828501610775565b91505092915050565b5f81519050919050565b5f82825260208201905092915050565b5f819050602082019050919050565b5f81519050919050565b5f82825260208201905092915050565b5f5b8381101561084957808201518184015260208101905061082e565b5f8484015250505050565b5f61085e82610812565b610868818561081c565b935061087881856020860161082c565b61088181610588565b840191505092915050565b5f6108978383610854565b905092915050565b5f602082019050919050565b5f6108b5826107e9565b6108bf81856107f3565b9350836020820285016108d185610803565b805f5b8581101561090c57848403895281516108ed858261088c565b94506108f88361089f565b925060208a019950506001810190506108d4565b50829750879550505050505092915050565b5f6020820190508181035f83015261093681846108ab565b905092915050565b5f819050919050565b6109508161093e565b811461095a575f80fd5b50565b5f8135905061096b81610947565b92915050565b5f602082840312156109865761098561057c565b5b5f6109938482850161095d565b91505092915050565b5f6109a6826104e0565b9050919050565b6109b68161099c565b81146109c0575f80fd5b50565b5f813590506109d1816109ad565b92915050565b5f602082840312156109ec576109eb61057c565b5b5f6109f9848285016109c3565b91505092915050565b5f8060408385031215610a1857610a1761057c565b5b5f610a258582860161095d565b9250506020610a36858286016109c3565b9150509250929050565b7f4e487b71000000000000000000000000000000000000000000000000000000005f52603260045260245ffd5b5f81905092915050565b5f610a8182610812565b610a8b8185610a6d565b9350610a9b81856020860161082c565b80840191505092915050565b5f610ab28284610a77565b915081905092915050565b5f81519050919050565b5f82825260208201905092915050565b5f610ae182610abd565b610aeb8185610ac7565b9350610afb81856020860161082c565b610b0481610588565b840191505092915050565b5f6020820190508181035f830152610b278184610ad7565b905092915050565b610b388161093e565b82525050565b610b478161099c565b82525050565b5f604082019050610b605f830185610b2f565b610b6d6020830184610b3e565b9392505050565b5f67ffffffffffffffff821115610b8e57610b8d610598565b5b610b9782610588565b9050602081019050919050565b5f610bb6610bb184610b74565b6105f6565b905082815260208101848484011115610bd257610bd161063f565b5b610bdd84828561082c565b509392505050565b5f82601f830112610bf957610bf8610584565b5b8151610c09848260208601610ba4565b91505092915050565b5f60208284031215610c2757610c2661057c565b5b5f82015167ffffffffffffffff811115610c4457610c43610580565b5b610c5084828501610be5565b9150509291505056fea2646970667358221220e8419cdeae2ef35ff5a1566ae478631f7ab5f8d7fd934ecc996895d45345d4a764736f6c63430008160033",
					"opcodes": "PUSH1 0x80 PUSH1 0x40 MSTORE CALLVALUE DUP1 ISZERO PUSH2 0xF JUMPI PUSH0 DUP1 REVERT JUMPDEST POP PUSH2 0xC8F DUP1 PUSH2 0x1D PUSH0 CODECOPY PUSH0 RETURN INVALID PUSH1 0x80 PUSH1 0x40 MSTORE PUSH1 0x4 CALLDATASIZE LT PUSH2 0x49 JUMPI PUSH0 CALLDATALOAD PUSH1 0xE0 SHR DUP1 PUSH4 0x16F0115B EQ PUSH2 0x4D JUMPI DUP1 PUSH4 0x1E897AFB EQ PUSH2 0x77 JUMPI DUP1 PUSH4 0x29E99F07 EQ PUSH2 0xA7 JUMPI DUP1 PUSH4 0x4437152A EQ PUSH2 0xCF JUMPI DUP1 PUSH4 0x8E1CD120 EQ PUSH2 0xF7 JUMPI JUMPDEST PUSH0 DUP1 REVERT JUMPDEST CALLVALUE DUP1 ISZERO PUSH2 0x58 JUMPI PUSH0 DUP1 REVERT JUMPDEST POP PUSH2 0x61 PUSH2 0x113 JUMP JUMPDEST PUSH1 0x40 MLOAD PUSH2 0x6E SWAP2 SWAP1 PUSH2 0x55A JUMP JUMPDEST PUSH1 0x40 MLOAD DUP1 SWAP2 SUB SWAP1 RETURN JUMPDEST PUSH2 0x91 PUSH1 0x4 DUP1 CALLDATASIZE SUB DUP2 ADD SWAP1 PUSH2 0x8C SWAP2 SWAP1 PUSH2 0x7A2 JUMP JUMPDEST PUSH2 0x136 JUMP JUMPDEST PUSH1 0x40 MLOAD PUSH2 0x9E SWAP2 SWAP1 PUSH2 0x91E JUMP JUMPDEST PUSH1 0x40 MLOAD DUP1 SWAP2 SUB SWAP1 RETURN JUMPDEST CALLVALUE DUP1 ISZERO PUSH2 0xB2 JUMPI PUSH0 DUP1 REVERT JUMPDEST POP PUSH2 0xCD PUSH1 0x4 DUP1 CALLDATASIZE SUB DUP2 ADD SWAP1 PUSH2 0xC8 SWAP2 SWAP1 PUSH2 0x971 JUMP JUMPDEST PUSH2 0x295 JUMP JUMPDEST STOP JUMPDEST CALLVALUE DUP1 ISZERO PUSH2 0xDA JUMPI PUSH0 DUP1 REVERT JUMPDEST POP PUSH2 0xF5 PUSH1 0x4 DUP1 CALLDATASIZE SUB DUP2 ADD SWAP1 PUSH2 0xF0 SWAP2 SWAP1 PUSH2 0x9D7 JUMP JUMPDEST PUSH2 0x3A8 JUMP JUMPDEST STOP JUMPDEST PUSH2 0x111 PUSH1 0x4 DUP1 CALLDATASIZE SUB DUP2 ADD SWAP1 PUSH2 0x10C SWAP2 SWAP1 PUSH2 0xA02 JUMP JUMPDEST PUSH2 0x3EA JUMP JUMPDEST STOP JUMPDEST PUSH0 DUP1 SLOAD SWAP1 PUSH2 0x100 EXP SWAP1 DIV PUSH20 0xFFFFFFFFFFFFFFFFFFFFFFFFFFFFFFFFFFFFFFFF AND DUP2 JUMP JUMPDEST PUSH1 0x60 DUP2 MLOAD PUSH8 0xFFFFFFFFFFFFFFFF DUP2 GT ISZERO PUSH2 0x153 JUMPI PUSH2 0x152 PUSH2 0x598 JUMP JUMPDEST JUMPDEST PUSH1 0x40 MLOAD SWAP1 DUP1 DUP3 MSTORE DUP1 PUSH1 0x20 MUL PUSH1 0x20 ADD DUP3 ADD PUSH1 0x40 MSTORE DUP1 ISZERO PUSH2 0x186 JUMPI DUP2 PUSH1 0x20 ADD JUMPDEST PUSH1 0x60 DUP2 MSTORE PUSH1 0x20 ADD SWAP1 PUSH1 0x1 SWAP1 SUB SWAP1 DUP2 PUSH2 0x171 JUMPI SWAP1 POP JUMPDEST POP SWAP1 POP PUSH0 JUMPDEST DUP3 MLOAD DUP2 LT ISZERO PUSH2 0x28F JUMPI PUSH0 DUP1 ADDRESS PUSH20 0xFFFFFFFFFFFFFFFFFFFFFFFFFFFFFFFFFFFFFFFF AND DUP6 DUP5 DUP2 MLOAD DUP2 LT PUSH2 0x1C0 JUMPI PUSH2 0x1BF PUSH2 0xA40 JUMP JUMPDEST JUMPDEST PUSH1 0x20 MUL PUSH1 0x20 ADD ADD MLOAD PUSH1 0x40 MLOAD PUSH2 0x1D5 SWAP2 SWAP1 PUSH2 0xAA7 JUMP JUMPDEST PUSH0 PUSH1 0x40 MLOAD DUP1 DUP4 SUB DUP2 DUP6 GAS DELEGATECALL SWAP2 POP POP RETURNDATASIZE DUP1 PUSH0 DUP2 EQ PUSH2 0x20D JUMPI PUSH1 0x40 MLOAD SWAP2 POP PUSH1 0x1F NOT PUSH1 0x3F RETURNDATASIZE ADD AND DUP3 ADD PUSH1 0x40 MSTORE RETURNDATASIZE DUP3 MSTORE RETURNDATASIZE PUSH0 PUSH1 0x20 DUP5 ADD RETURNDATACOPY PUSH2 0x212 JUMP JUMPDEST PUSH1 0x60 SWAP2 POP JUMPDEST POP SWAP2 POP SWAP2 POP DUP2 PUSH2 0x261 JUMPI PUSH2 0x225 DUP2 PUSH2 0x475 JUMP JUMPDEST PUSH1 0x40 MLOAD PUSH32 0x8C379A000000000000000000000000000000000000000000000000000000000 DUP2 MSTORE PUSH1 0x4 ADD PUSH2 0x258 SWAP2 SWAP1 PUSH2 0xB0F JUMP JUMPDEST PUSH1 0x40 MLOAD DUP1 SWAP2 SUB SWAP1 REVERT JUMPDEST DUP1 DUP5 DUP5 DUP2 MLOAD DUP2 LT PUSH2 0x275 JUMPI PUSH2 0x274 PUSH2 0xA40 JUMP JUMPDEST JUMPDEST PUSH1 0x20 MUL PUSH1 0x20 ADD ADD DUP2 SWAP1 MSTORE POP POP POP DUP1 DUP1 PUSH1 0x1 ADD SWAP2 POP POP PUSH2 0x18B JUMP JUMPDEST POP SWAP2 SWAP1 POP JUMP JUMPDEST PUSH0 DUP2 CALLER PUSH1 0x40 MLOAD PUSH1 0x24 ADD PUSH2 0x2A9 SWAP3 SWAP2 SWAP1 PUSH2 0xB4D JUMP JUMPDEST PUSH1 0x40 MLOAD PUSH1 0x20 DUP2 DUP4 SUB SUB DUP2 MSTORE SWAP1 PUSH1 0x40 MSTORE PUSH32 0x8E1CD12000000000000000000000000000000000000000000000000000000000 PUSH28 0xFFFFFFFFFFFFFFFFFFFFFFFFFFFFFFFFFFFFFFFFFFFFFFFFFFFFFFFF NOT AND PUSH1 0x20 DUP3 ADD DUP1 MLOAD PUSH28 0xFFFFFFFFFFFFFFFFFFFFFFFFFFFFFFFFFFFFFFFFFFFFFFFFFFFFFFFF DUP4 DUP2 DUP4 AND OR DUP4 MSTORE POP POP POP POP SWAP1 POP PUSH0 PUSH1 0x1 PUSH8 0xFFFFFFFFFFFFFFFF DUP2 GT ISZERO PUSH2 0x344 JUMPI PUSH2 0x343 PUSH2 0x598 JUMP JUMPDEST JUMPDEST PUSH1 0x40 MLOAD SWAP1 DUP1 DUP3 MSTORE DUP1 PUSH1 0x20 MUL PUSH1 0x20 ADD DUP3 ADD PUSH1 0x40 MSTORE DUP1 ISZERO PUSH2 0x377 JUMPI DUP2 PUSH1 0x20 ADD JUMPDEST PUSH1 0x60 DUP2 MSTORE PUSH1 0x20 ADD SWAP1 PUSH1 0x1 SWAP1 SUB SWAP1 DUP2 PUSH2 0x362 JUMPI SWAP1 POP JUMPDEST POP SWAP1 POP DUP2 DUP2 PUSH0 DUP2 MLOAD DUP2 LT PUSH2 0x38E JUMPI PUSH2 0x38D PUSH2 0xA40 JUMP JUMPDEST JUMPDEST PUSH1 0x20 MUL PUSH1 0x20 ADD ADD DUP2 SWAP1 MSTORE POP PUSH2 0x3A2 DUP2 PUSH2 0x136 JUMP JUMPDEST POP POP POP POP JUMP JUMPDEST DUP1 PUSH0 DUP1 PUSH2 0x100 EXP DUP2 SLOAD DUP2 PUSH20 0xFFFFFFFFFFFFFFFFFFFFFFFFFFFFFFFFFFFFFFFF MUL NOT AND SWAP1 DUP4 PUSH20 0xFFFFFFFFFFFFFFFFFFFFFFFFFFFFFFFFFFFFFFFF AND MUL OR SWAP1 SSTORE POP POP JUMP JUMPDEST PUSH0 DUP1 SLOAD SWAP1 PUSH2 0x100 EXP SWAP1 DIV PUSH20 0xFFFFFFFFFFFFFFFFFFFFFFFFFFFFFFFFFFFFFFFF AND PUSH20 0xFFFFFFFFFFFFFFFFFFFFFFFFFFFFFFFFFFFFFFFF AND PUSH4 0x8E1CD120 DUP4 DUP4 PUSH1 0x40 MLOAD DUP4 PUSH4 0xFFFFFFFF AND PUSH1 0xE0 SHL DUP2 MSTORE PUSH1 0x4 ADD PUSH2 0x444 SWAP3 SWAP2 SWAP1 PUSH2 0xB4D JUMP JUMPDEST PUSH0 PUSH1 0x40 MLOAD DUP1 DUP4 SUB DUP2 PUSH0 DUP8 DUP1 EXTCODESIZE ISZERO DUP1 ISZERO PUSH2 0x45B JUMPI PUSH0 DUP1 REVERT JUMPDEST POP GAS CALL ISZERO DUP1 ISZERO PUSH2 0x46D JUMPI RETURNDATASIZE PUSH0 DUP1 RETURNDATACOPY RETURNDATASIZE PUSH0 REVERT JUMPDEST POP POP POP POP POP POP JUMP JUMPDEST PUSH1 0x60 PUSH1 0x44 DUP3 MLOAD LT ISZERO PUSH2 0x4BE JUMPI PUSH1 0x40 MLOAD DUP1 PUSH1 0x40 ADD PUSH1 0x40 MSTORE DUP1 PUSH1 0x1D DUP2 MSTORE PUSH1 0x20 ADD PUSH32 0x5472616E73616374696F6E2072657665727465642073696C656E746C79000000 DUP2 MSTORE POP SWAP1 POP PUSH2 0x4DB JUMP JUMPDEST PUSH1 0x4 DUP3 ADD SWAP2 POP DUP2 DUP1 PUSH1 0x20 ADD SWAP1 MLOAD DUP2 ADD SWAP1 PUSH2 0x4D8 SWAP2 SWAP1 PUSH2 0xC12 JUMP JUMPDEST SWAP1 POP JUMPDEST SWAP2 SWAP1 POP JUMP JUMPDEST PUSH0 PUSH20 0xFFFFFFFFFFFFFFFFFFFFFFFFFFFFFFFFFFFFFFFF DUP3 AND SWAP1 POP SWAP2 SWAP1 POP JUMP JUMPDEST PUSH0 DUP2 SWAP1 POP SWAP2 SWAP1 POP JUMP JUMPDEST PUSH0 PUSH2 0x522 PUSH2 0x51D PUSH2 0x518 DUP5 PUSH2 0x4E0 JUMP JUMPDEST PUSH2 0x4FF JUMP JUMPDEST PUSH2 0x4E0 JUMP JUMPDEST SWAP1 POP SWAP2 SWAP1 POP JUMP JUMPDEST PUSH0 PUSH2 0x533 DUP3 PUSH2 0x508 JUMP JUMPDEST SWAP1 POP SWAP2 SWAP1 POP JUMP JUMPDEST PUSH0 PUSH2 0x544 DUP3 PUSH2 0x529 JUMP JUMPDEST SWAP1 POP SWAP2 SWAP1 POP JUMP JUMPDEST PUSH2 0x554 DUP2 PUSH2 0x53A JUMP JUMPDEST DUP3 MSTORE POP POP JUMP JUMPDEST PUSH0 PUSH1 0x20 DUP3 ADD SWAP1 POP PUSH2 0x56D PUSH0 DUP4 ADD DUP5 PUSH2 0x54B JUMP JUMPDEST SWAP3 SWAP2 POP POP JUMP JUMPDEST PUSH0 PUSH1 0x40 MLOAD SWAP1 POP SWAP1 JUMP JUMPDEST PUSH0 DUP1 REVERT JUMPDEST PUSH0 DUP1 REVERT JUMPDEST PUSH0 DUP1 REVERT JUMPDEST PUSH0 PUSH1 0x1F NOT PUSH1 0x1F DUP4 ADD AND SWAP1 POP SWAP2 SWAP1 POP JUMP JUMPDEST PUSH32 0x4E487B7100000000000000000000000000000000000000000000000000000000 PUSH0 MSTORE PUSH1 0x41 PUSH1 0x4 MSTORE PUSH1 0x24 PUSH0 REVERT JUMPDEST PUSH2 0x5CE DUP3 PUSH2 0x588 JUMP JUMPDEST DUP2 ADD DUP2 DUP2 LT PUSH8 0xFFFFFFFFFFFFFFFF DUP3 GT OR ISZERO PUSH2 0x5ED JUMPI PUSH2 0x5EC PUSH2 0x598 JUMP JUMPDEST JUMPDEST DUP1 PUSH1 0x40 MSTORE POP POP POP JUMP JUMPDEST PUSH0 PUSH2 0x5FF PUSH2 0x573 JUMP JUMPDEST SWAP1 POP PUSH2 0x60B DUP3 DUP3 PUSH2 0x5C5 JUMP JUMPDEST SWAP2 SWAP1 POP JUMP JUMPDEST PUSH0 PUSH8 0xFFFFFFFFFFFFFFFF DUP3 GT ISZERO PUSH2 0x62A JUMPI PUSH2 0x629 PUSH2 0x598 JUMP JUMPDEST JUMPDEST PUSH1 0x20 DUP3 MUL SWAP1 POP PUSH1 0x20 DUP2 ADD SWAP1 POP SWAP2 SWAP1 POP JUMP JUMPDEST PUSH0 DUP1 REVERT JUMPDEST PUSH0 DUP1 REVERT JUMPDEST PUSH0 PUSH8 0xFFFFFFFFFFFFFFFF DUP3 GT ISZERO PUSH2 0x65D JUMPI PUSH2 0x65C PUSH2 0x598 JUMP JUMPDEST JUMPDEST PUSH2 0x666 DUP3 PUSH2 0x588 JUMP JUMPDEST SWAP1 POP PUSH1 0x20 DUP2 ADD SWAP1 POP SWAP2 SWAP1 POP JUMP JUMPDEST DUP3 DUP2 DUP4 CALLDATACOPY PUSH0 DUP4 DUP4 ADD MSTORE POP POP POP JUMP JUMPDEST PUSH0 PUSH2 0x693 PUSH2 0x68E DUP5 PUSH2 0x643 JUMP JUMPDEST PUSH2 0x5F6 JUMP JUMPDEST SWAP1 POP DUP3 DUP2 MSTORE PUSH1 0x20 DUP2 ADD DUP5 DUP5 DUP5 ADD GT ISZERO PUSH2 0x6AF JUMPI PUSH2 0x6AE PUSH2 0x63F JUMP JUMPDEST JUMPDEST PUSH2 0x6BA DUP5 DUP3 DUP6 PUSH2 0x673 JUMP JUMPDEST POP SWAP4 SWAP3 POP POP POP JUMP JUMPDEST PUSH0 DUP3 PUSH1 0x1F DUP4 ADD SLT PUSH2 0x6D6 JUMPI PUSH2 0x6D5 PUSH2 0x584 JUMP JUMPDEST JUMPDEST DUP2 CALLDATALOAD PUSH2 0x6E6 DUP5 DUP3 PUSH1 0x20 DUP7 ADD PUSH2 0x681 JUMP JUMPDEST SWAP2 POP POP SWAP3 SWAP2 POP POP JUMP JUMPDEST PUSH0 PUSH2 0x701 PUSH2 0x6FC DUP5 PUSH2 0x610 JUMP JUMPDEST PUSH2 0x5F6 JUMP JUMPDEST SWAP1 POP DUP1 DUP4 DUP3 MSTORE PUSH1 0x20 DUP3 ADD SWAP1 POP PUSH1 0x20 DUP5 MUL DUP4 ADD DUP6 DUP2 GT ISZERO PUSH2 0x724 JUMPI PUSH2 0x723 PUSH2 0x63B JUMP JUMPDEST JUMPDEST DUP4 JUMPDEST DUP2 DUP2 LT ISZERO PUSH2 0x76B JUMPI DUP1 CALLDATALOAD PUSH8 0xFFFFFFFFFFFFFFFF DUP2 GT ISZERO PUSH2 0x749 JUMPI PUSH2 0x748 PUSH2 0x584 JUMP JUMPDEST JUMPDEST DUP1 DUP7 ADD PUSH2 0x756 DUP10 DUP3 PUSH2 0x6C2 JUMP JUMPDEST DUP6 MSTORE PUSH1 0x20 DUP6 ADD SWAP5 POP POP POP PUSH1 0x20 DUP2 ADD SWAP1 POP PUSH2 0x726 JUMP JUMPDEST POP POP POP SWAP4 SWAP3 POP POP POP JUMP JUMPDEST PUSH0 DUP3 PUSH1 0x1F DUP4 ADD SLT PUSH2 0x789 JUMPI PUSH2 0x788 PUSH2 0x584 JUMP JUMPDEST JUMPDEST DUP2 CALLDATALOAD PUSH2 0x799 DUP5 DUP3 PUSH1 0x20 DUP7 ADD PUSH2 0x6EF JUMP JUMPDEST SWAP2 POP POP SWAP3 SWAP2 POP POP JUMP JUMPDEST PUSH0 PUSH1 0x20 DUP3 DUP5 SUB SLT ISZERO PUSH2 0x7B7 JUMPI PUSH2 0x7B6 PUSH2 0x57C JUMP JUMPDEST JUMPDEST PUSH0 DUP3 ADD CALLDATALOAD PUSH8 0xFFFFFFFFFFFFFFFF DUP2 GT ISZERO PUSH2 0x7D4 JUMPI PUSH2 0x7D3 PUSH2 0x580 JUMP JUMPDEST JUMPDEST PUSH2 0x7E0 DUP5 DUP3 DUP6 ADD PUSH2 0x775 JUMP JUMPDEST SWAP2 POP POP SWAP3 SWAP2 POP POP JUMP JUMPDEST PUSH0 DUP2 MLOAD SWAP1 POP SWAP2 SWAP1 POP JUMP JUMPDEST PUSH0 DUP3 DUP3 MSTORE PUSH1 0x20 DUP3 ADD SWAP1 POP SWAP3 SWAP2 POP POP JUMP JUMPDEST PUSH0 DUP2 SWAP1 POP PUSH1 0x20 DUP3 ADD SWAP1 POP SWAP2 SWAP1 POP JUMP JUMPDEST PUSH0 DUP2 MLOAD SWAP1 POP SWAP2 SWAP1 POP JUMP JUMPDEST PUSH0 DUP3 DUP3 MSTORE PUSH1 0x20 DUP3 ADD SWAP1 POP SWAP3 SWAP2 POP POP JUMP JUMPDEST PUSH0 JUMPDEST DUP4 DUP2 LT ISZERO PUSH2 0x849 JUMPI DUP1 DUP3 ADD MLOAD DUP2 DUP5 ADD MSTORE PUSH1 0x20 DUP2 ADD SWAP1 POP PUSH2 0x82E JUMP JUMPDEST PUSH0 DUP5 DUP5 ADD MSTORE POP POP POP POP JUMP JUMPDEST PUSH0 PUSH2 0x85E DUP3 PUSH2 0x812 JUMP JUMPDEST PUSH2 0x868 DUP2 DUP6 PUSH2 0x81C JUMP JUMPDEST SWAP4 POP PUSH2 0x878 DUP2 DUP6 PUSH1 0x20 DUP7 ADD PUSH2 0x82C JUMP JUMPDEST PUSH2 0x881 DUP2 PUSH2 0x588 JUMP JUMPDEST DUP5 ADD SWAP2 POP POP SWAP3 SWAP2 POP POP JUMP JUMPDEST PUSH0 PUSH2 0x897 DUP4 DUP4 PUSH2 0x854 JUMP JUMPDEST SWAP1 POP SWAP3 SWAP2 POP POP JUMP JUMPDEST PUSH0 PUSH1 0x20 DUP3 ADD SWAP1 POP SWAP2 SWAP1 POP JUMP JUMPDEST PUSH0 PUSH2 0x8B5 DUP3 PUSH2 0x7E9 JUMP JUMPDEST PUSH2 0x8BF DUP2 DUP6 PUSH2 0x7F3 JUMP JUMPDEST SWAP4 POP DUP4 PUSH1 0x20 DUP3 MUL DUP6 ADD PUSH2 0x8D1 DUP6 PUSH2 0x803 JUMP JUMPDEST DUP1 PUSH0 JUMPDEST DUP6 DUP2 LT ISZERO PUSH2 0x90C JUMPI DUP5 DUP5 SUB DUP10 MSTORE DUP2 MLOAD PUSH2 0x8ED DUP6 DUP3 PUSH2 0x88C JUMP JUMPDEST SWAP5 POP PUSH2 0x8F8 DUP4 PUSH2 0x89F JUMP JUMPDEST SWAP3 POP PUSH1 0x20 DUP11 ADD SWAP10 POP POP PUSH1 0x1 DUP2 ADD SWAP1 POP PUSH2 0x8D4 JUMP JUMPDEST POP DUP3 SWAP8 POP DUP8 SWAP6 POP POP POP POP POP POP SWAP3 SWAP2 POP POP JUMP JUMPDEST PUSH0 PUSH1 0x20 DUP3 ADD SWAP1 POP DUP2 DUP2 SUB PUSH0 DUP4 ADD MSTORE PUSH2 0x936 DUP2 DUP5 PUSH2 0x8AB JUMP JUMPDEST SWAP1 POP SWAP3 SWAP2 POP POP JUMP JUMPDEST PUSH0 DUP2 SWAP1 POP SWAP2 SWAP1 POP JUMP JUMPDEST PUSH2 0x950 DUP2 PUSH2 0x93E JUMP JUMPDEST DUP2 EQ PUSH2 0x95A JUMPI PUSH0 DUP1 REVERT JUMPDEST POP JUMP JUMPDEST PUSH0 DUP2 CALLDATALOAD SWAP1 POP PUSH2 0x96B DUP2 PUSH2 0x947 JUMP JUMPDEST SWAP3 SWAP2 POP POP JUMP JUMPDEST PUSH0 PUSH1 0x20 DUP3 DUP5 SUB SLT ISZERO PUSH2 0x986 JUMPI PUSH2 0x985 PUSH2 0x57C JUMP JUMPDEST JUMPDEST PUSH0 PUSH2 0x993 DUP5 DUP3 DUP6 ADD PUSH2 0x95D JUMP JUMPDEST SWAP2 POP POP SWAP3 SWAP2 POP POP JUMP JUMPDEST PUSH0 PUSH2 0x9A6 DUP3 PUSH2 0x4E0 JUMP JUMPDEST SWAP1 POP SWAP2 SWAP1 POP JUMP JUMPDEST PUSH2 0x9B6 DUP2 PUSH2 0x99C JUMP JUMPDEST DUP2 EQ PUSH2 0x9C0 JUMPI PUSH0 DUP1 REVERT JUMPDEST POP JUMP JUMPDEST PUSH0 DUP2 CALLDATALOAD SWAP1 POP PUSH2 0x9D1 DUP2 PUSH2 0x9AD JUMP JUMPDEST SWAP3 SWAP2 POP POP JUMP JUMPDEST PUSH0 PUSH1 0x20 DUP3 DUP5 SUB SLT ISZERO PUSH2 0x9EC JUMPI PUSH2 0x9EB PUSH2 0x57C JUMP JUMPDEST JUMPDEST PUSH0 PUSH2 0x9F9 DUP5 DUP3 DUP6 ADD PUSH2 0x9C3 JUMP JUMPDEST SWAP2 POP POP SWAP3 SWAP2 POP POP JUMP JUMPDEST PUSH0 DUP1 PUSH1 0x40 DUP4 DUP6 SUB SLT ISZERO PUSH2 0xA18 JUMPI PUSH2 0xA17 PUSH2 0x57C JUMP JUMPDEST JUMPDEST PUSH0 PUSH2 0xA25 DUP6 DUP3 DUP7 ADD PUSH2 0x95D JUMP JUMPDEST SWAP3 POP POP PUSH1 0x20 PUSH2 0xA36 DUP6 DUP3 DUP7 ADD PUSH2 0x9C3 JUMP JUMPDEST SWAP2 POP POP SWAP3 POP SWAP3 SWAP1 POP JUMP JUMPDEST PUSH32 0x4E487B7100000000000000000000000000000000000000000000000000000000 PUSH0 MSTORE PUSH1 0x32 PUSH1 0x4 MSTORE PUSH1 0x24 PUSH0 REVERT JUMPDEST PUSH0 DUP2 SWAP1 POP SWAP3 SWAP2 POP POP JUMP JUMPDEST PUSH0 PUSH2 0xA81 DUP3 PUSH2 0x812 JUMP JUMPDEST PUSH2 0xA8B DUP2 DUP6 PUSH2 0xA6D JUMP JUMPDEST SWAP4 POP PUSH2 0xA9B DUP2 DUP6 PUSH1 0x20 DUP7 ADD PUSH2 0x82C JUMP JUMPDEST DUP1 DUP5 ADD SWAP2 POP POP SWAP3 SWAP2 POP POP JUMP JUMPDEST PUSH0 PUSH2 0xAB2 DUP3 DUP5 PUSH2 0xA77 JUMP JUMPDEST SWAP2 POP DUP2 SWAP1 POP SWAP3 SWAP2 POP POP JUMP JUMPDEST PUSH0 DUP2 MLOAD SWAP1 POP SWAP2 SWAP1 POP JUMP JUMPDEST PUSH0 DUP3 DUP3 MSTORE PUSH1 0x20 DUP3 ADD SWAP1 POP SWAP3 SWAP2 POP POP JUMP JUMPDEST PUSH0 PUSH2 0xAE1 DUP3 PUSH2 0xABD JUMP JUMPDEST PUSH2 0xAEB DUP2 DUP6 PUSH2 0xAC7 JUMP JUMPDEST SWAP4 POP PUSH2 0xAFB DUP2 DUP6 PUSH1 0x20 DUP7 ADD PUSH2 0x82C JUMP JUMPDEST PUSH2 0xB04 DUP2 PUSH2 0x588 JUMP JUMPDEST DUP5 ADD SWAP2 POP POP SWAP3 SWAP2 POP POP JUMP JUMPDEST PUSH0 PUSH1 0x20 DUP3 ADD SWAP1 POP DUP2 DUP2 SUB PUSH0 DUP4 ADD MSTORE PUSH2 0xB27 DUP2 DUP5 PUSH2 0xAD7 JUMP JUMPDEST SWAP1 POP SWAP3 SWAP2 POP POP JUMP JUMPDEST PUSH2 0xB38 DUP2 PUSH2 0x93E JUMP JUMPDEST DUP3 MSTORE POP POP JUMP JUMPDEST PUSH2 0xB47 DUP2 PUSH2 0x99C JUMP JUMPDEST DUP3 MSTORE POP POP JUMP JUMPDEST PUSH0 PUSH1 0x40 DUP3 ADD SWAP1 POP PUSH2 0xB60 PUSH0 DUP4 ADD DUP6 PUSH2 0xB2F JUMP JUMPDEST PUSH2 0xB6D PUSH1 0x20 DUP4 ADD DUP5 PUSH2 0xB3E JUMP JUMPDEST SWAP4 SWAP3 POP POP POP JUMP JUMPDEST PUSH0 PUSH8 0xFFFFFFFFFFFFFFFF DUP3 GT ISZERO PUSH2 0xB8E JUMPI PUSH2 0xB8D PUSH2 0x598 JUMP JUMPDEST JUMPDEST PUSH2 0xB97 DUP3 PUSH2 0x588 JUMP JUMPDEST SWAP1 POP PUSH1 0x20 DUP2 ADD SWAP1 POP SWAP2 SWAP1 POP JUMP JUMPDEST PUSH0 PUSH2 0xBB6 PUSH2 0xBB1 DUP5 PUSH2 0xB74 JUMP JUMPDEST PUSH2 0x5F6 JUMP JUMPDEST SWAP1 POP DUP3 DUP2 MSTORE PUSH1 0x20 DUP2 ADD DUP5 DUP5 DUP5 ADD GT ISZERO PUSH2 0xBD2 JUMPI PUSH2 0xBD1 PUSH2 0x63F JUMP JUMPDEST JUMPDEST PUSH2 0xBDD DUP5 DUP3 DUP6 PUSH2 0x82C JUMP JUMPDEST POP SWAP4 SWAP3 POP POP POP JUMP JUMPDEST PUSH0 DUP3 PUSH1 0x1F DUP4 ADD SLT PUSH2 0xBF9 JUMPI PUSH2 0xBF8 PUSH2 0x584 JUMP JUMPDEST JUMPDEST DUP2 MLOAD PUSH2 0xC09 DUP5 DUP3 PUSH1 0x20 DUP7 ADD PUSH2 0xBA4 JUMP JUMPDEST SWAP2 POP POP SWAP3 SWAP2 POP POP JUMP JUMPDEST PUSH0 PUSH1 0x20 DUP3 DUP5 SUB SLT ISZERO PUSH2 0xC27 JUMPI PUSH2 0xC26 PUSH2 0x57C JUMP JUMPDEST JUMPDEST PUSH0 DUP3 ADD MLOAD PUSH8 0xFFFFFFFFFFFFFFFF DUP2 GT ISZERO PUSH2 0xC44 JUMPI PUSH2 0xC43 PUSH2 0x580 JUMP JUMPDEST JUMPDEST PUSH2 0xC50 DUP5 DUP3 DUP6 ADD PUSH2 0xBE5 JUMP JUMPDEST SWAP2 POP POP SWAP3 SWAP2 POP POP JUMP INVALID LOG2 PUSH5 0x6970667358 0x22 SLT KECCAK256 0xE8 COINBASE SWAP13 0xDE 0xAE 0x2E RETURN PUSH0 CREATE2 LOG1 JUMP PUSH11 0xE478631F7AB5F8D7FD934E 0xCC SWAP10 PUSH9 0x95D45345D4A764736F PUSH13 0x63430008160033000000000000 "
				},
				"gasEstimates": {
					"creation": {
						"codeDepositCost": "643000",
						"executionCost": "674",
						"totalCost": "643674"
					},
					"external": {
						"batch(bytes[])": "infinite",
						"pool()": "infinite",
						"setPool(address)": "24759",
						"setVars(uint256,address)": "infinite",
						"test(uint256)": "infinite"
					},
					"internal": {
						"getRevertMsg(bytes memory)": "infinite"
					}
				},
				"methodIdentifiers": {
					"batch(bytes[])": "1e897afb",
					"pool()": "16f0115b",
					"setPool(address)": "4437152a",
					"setVars(uint256,address)": "8e1cd120",
					"test(uint256)": "29e99f07"
				}
			},
			"storageLayout": {
				"storage": [
					{
						"astId": 4,
						"contract": "TESTROUTER2.sol:Router",
						"label": "pool",
						"offset": 0,
						"slot": "0",
						"type": "t_contract(Pool)176"
					}
				],
				"types": {
					"t_contract(Pool)176": {
						"encoding": "inplace",
						"label": "contract Pool",
						"numberOfBytes": "20"
					}
				}
			},
			"userdoc": {
				"kind": "user",
				"methods": {},
				"version": 1
			}
		}
	}
}