{
	"testOverflow.sol": {
		"A": {
			"abi": [
				{
					"inputs": [],
					"name": "testUnder",
					"outputs": [
						{
							"internalType": "uint256",
							"name": "",
							"type": "uint256"
						}
					],
					"stateMutability": "view",
					"type": "function"
				},
				{
					"inputs": [],
					"name": "testUnderflow",
					"outputs": [
						{
							"internalType": "uint256",
							"name": "",
							"type": "uint256"
						}
					],
					"stateMutability": "nonpayable",
					"type": "function"
				}
			],
			"devdoc": {
				"kind": "dev",
				"methods": {},
				"version": 1
			},
			"evm": {
				"assembly": "    /* \"testOverflow.sol\":68:400  contract A {... */\n  mstore(0x40, 0x80)\n    /* \"testOverflow.sol\":100:101  1 */\n  0x01\n    /* \"testOverflow.sol\":88:101  uint256 a = 1 */\n  0x00\n  sstore\n    /* \"testOverflow.sol\":68:400  contract A {... */\n  callvalue\n  dup1\n  iszero\n  tag_1\n  jumpi\n  0x00\n  dup1\n  revert\ntag_1:\n  pop\n  dataSize(sub_0)\n  dup1\n  dataOffset(sub_0)\n  0x00\n  codecopy\n  0x00\n  return\nstop\n\nsub_0: assembly {\n        /* \"testOverflow.sol\":68:400  contract A {... */\n      mstore(0x40, 0x80)\n      callvalue\n      dup1\n      iszero\n      tag_1\n      jumpi\n      0x00\n      dup1\n      revert\n    tag_1:\n      pop\n      jumpi(tag_2, lt(calldatasize, 0x04))\n      shr(0xe0, calldataload(0x00))\n      dup1\n      0x32b827ec\n      eq\n      tag_3\n      jumpi\n      dup1\n      0x7f3f6a73\n      eq\n      tag_4\n      jumpi\n    tag_2:\n      0x00\n      dup1\n      revert\n        /* \"testOverflow.sol\":230:395  function testUnder() public view returns(uint256)  {... */\n    tag_3:\n      tag_5\n      tag_6\n      jump\t// in\n    tag_5:\n      mload(0x40)\n      tag_7\n      swap2\n      swap1\n      tag_8\n      jump\t// in\n    tag_7:\n      mload(0x40)\n      dup1\n      swap2\n      sub\n      swap1\n      return\n        /* \"testOverflow.sol\":112:218  function testUnderflow() public returns(uint256) {... */\n    tag_4:\n      tag_9\n      tag_10\n      jump\t// in\n    tag_9:\n      mload(0x40)\n      tag_11\n      swap2\n      swap1\n      tag_8\n      jump\t// in\n    tag_11:\n      mload(0x40)\n      dup1\n      swap2\n      sub\n      swap1\n      return\n        /* \"testOverflow.sol\":230:395  function testUnder() public view returns(uint256)  {... */\n    tag_6:\n        /* \"testOverflow.sol\":271:278  uint256 */\n      0x00\n        /* \"testOverflow.sol\":294:325  uint256 totalBoostedTokensDelta */\n      dup1\n        /* \"testOverflow.sol\":328:345  (10 * 0) / 10_000 */\n      0x00\n        /* \"testOverflow.sol\":294:345  uint256 totalBoostedTokensDelta = (10 * 0) / 10_000 */\n      swap1\n      pop\n        /* \"testOverflow.sol\":364:387  totalBoostedTokensDelta */\n      dup1\n        /* \"testOverflow.sol\":356:387  return  totalBoostedTokensDelta */\n      swap2\n      pop\n      pop\n        /* \"testOverflow.sol\":230:395  function testUnder() public view returns(uint256)  {... */\n      swap1\n      jump\t// out\n        /* \"testOverflow.sol\":112:218  function testUnderflow() public returns(uint256) {... */\n    tag_10:\n        /* \"testOverflow.sol\":152:159  uint256 */\n      0x00\n        /* \"testOverflow.sol\":172:181  uint256 b */\n      dup1\n        /* \"testOverflow.sol\":184:185  3 */\n      0x03\n        /* \"testOverflow.sol\":172:185  uint256 b = 3 */\n      swap1\n      pop\n        /* \"testOverflow.sol\":209:210  b */\n      dup1\n        /* \"testOverflow.sol\":205:206  a */\n      sload(0x00)\n        /* \"testOverflow.sol\":205:210  a - b */\n      tag_14\n      swap2\n      swap1\n      tag_15\n      jump\t// in\n    tag_14:\n        /* \"testOverflow.sol\":198:210  return a - b */\n      swap2\n      pop\n      pop\n        /* \"testOverflow.sol\":112:218  function testUnderflow() public returns(uint256) {... */\n      swap1\n      jump\t// out\n        /* \"#utility.yul\":7:84   */\n    tag_16:\n        /* \"#utility.yul\":44:51   */\n      0x00\n        /* \"#utility.yul\":73:78   */\n      dup2\n        /* \"#utility.yul\":62:78   */\n      swap1\n      pop\n        /* \"#utility.yul\":7:84   */\n      swap2\n      swap1\n      pop\n      jump\t// out\n        /* \"#utility.yul\":90:208   */\n    tag_17:\n        /* \"#utility.yul\":177:201   */\n      tag_22\n        /* \"#utility.yul\":195:200   */\n      dup2\n        /* \"#utility.yul\":177:201   */\n      tag_16\n      jump\t// in\n    tag_22:\n        /* \"#utility.yul\":172:175   */\n      dup3\n        /* \"#utility.yul\":165:202   */\n      mstore\n        /* \"#utility.yul\":90:208   */\n      pop\n      pop\n      jump\t// out\n        /* \"#utility.yul\":214:436   */\n    tag_8:\n        /* \"#utility.yul\":307:311   */\n      0x00\n        /* \"#utility.yul\":345:347   */\n      0x20\n        /* \"#utility.yul\":334:343   */\n      dup3\n        /* \"#utility.yul\":330:348   */\n      add\n        /* \"#utility.yul\":322:348   */\n      swap1\n      pop\n        /* \"#utility.yul\":358:429   */\n      tag_24\n        /* \"#utility.yul\":426:427   */\n      0x00\n        /* \"#utility.yul\":415:424   */\n      dup4\n        /* \"#utility.yul\":411:428   */\n      add\n        /* \"#utility.yul\":402:408   */\n      dup5\n        /* \"#utility.yul\":358:429   */\n      tag_17\n      jump\t// in\n    tag_24:\n        /* \"#utility.yul\":214:436   */\n      swap3\n      swap2\n      pop\n      pop\n      jump\t// out\n        /* \"#utility.yul\":442:622   */\n    tag_18:\n        /* \"#utility.yul\":490:567   */\n      0x4e487b7100000000000000000000000000000000000000000000000000000000\n        /* \"#utility.yul\":487:488   */\n      0x00\n        /* \"#utility.yul\":480:568   */\n      mstore\n        /* \"#utility.yul\":587:591   */\n      0x11\n        /* \"#utility.yul\":584:585   */\n      0x04\n        /* \"#utility.yul\":577:592   */\n      mstore\n        /* \"#utility.yul\":611:615   */\n      0x24\n        /* \"#utility.yul\":608:609   */\n      0x00\n        /* \"#utility.yul\":601:616   */\n      revert\n        /* \"#utility.yul\":628:822   */\n    tag_15:\n        /* \"#utility.yul\":668:672   */\n      0x00\n        /* \"#utility.yul\":688:708   */\n      tag_27\n        /* \"#utility.yul\":706:707   */\n      dup3\n        /* \"#utility.yul\":688:708   */\n      tag_16\n      jump\t// in\n    tag_27:\n        /* \"#utility.yul\":683:708   */\n      swap2\n      pop\n        /* \"#utility.yul\":722:742   */\n      tag_28\n        /* \"#utility.yul\":740:741   */\n      dup4\n        /* \"#utility.yul\":722:742   */\n      tag_16\n      jump\t// in\n    tag_28:\n        /* \"#utility.yul\":717:742   */\n      swap3\n      pop\n        /* \"#utility.yul\":766:767   */\n      dup3\n        /* \"#utility.yul\":763:764   */\n      dup3\n        /* \"#utility.yul\":759:768   */\n      sub\n        /* \"#utility.yul\":751:768   */\n      swap1\n      pop\n        /* \"#utility.yul\":790:791   */\n      dup2\n        /* \"#utility.yul\":784:788   */\n      dup2\n        /* \"#utility.yul\":781:792   */\n      gt\n        /* \"#utility.yul\":778:815   */\n      iszero\n      tag_29\n      jumpi\n        /* \"#utility.yul\":795:813   */\n      tag_30\n      tag_18\n      jump\t// in\n    tag_30:\n        /* \"#utility.yul\":778:815   */\n    tag_29:\n        /* \"#utility.yul\":628:822   */\n      swap3\n      swap2\n      pop\n      pop\n      jump\t// out\n\n    auxdata: 0xa264697066735822122039cf966c45c1c8ac4698d528933f3491ad03f088ea9e012359a4dd594f91910164736f6c63430008160033\n}\n",
				"bytecode": {
					"linkReferences": {},
					"object": "608060405260015f55348015610013575f80fd5b50610160806100215f395ff3fe608060405234801561000f575f80fd5b5060043610610034575f3560e01c806332b827ec146100385780637f3f6a7314610056575b5f80fd5b610040610074565b60405161004d91906100b1565b60405180910390f35b61005e610080565b60405161006b91906100b1565b60405180910390f35b5f805f90508091505090565b5f8060039050805f5461009391906100f7565b91505090565b5f819050919050565b6100ab81610099565b82525050565b5f6020820190506100c45f8301846100a2565b92915050565b7f4e487b71000000000000000000000000000000000000000000000000000000005f52601160045260245ffd5b5f61010182610099565b915061010c83610099565b9250828203905081811115610124576101236100ca565b5b9291505056fea264697066735822122039cf966c45c1c8ac4698d528933f3491ad03f088ea9e012359a4dd594f91910164736f6c63430008160033",
					"opcodes": "PUSH1 0x80 PUSH1 0x40 MSTORE PUSH1 0x1 PUSH0 SSTORE CALLVALUE DUP1 ISZERO PUSH2 0x13 JUMPI PUSH0 DUP1 REVERT JUMPDEST POP PUSH2 0x160 DUP1 PUSH2 0x21 PUSH0 CODECOPY PUSH0 RETURN INVALID PUSH1 0x80 PUSH1 0x40 MSTORE CALLVALUE DUP1 ISZERO PUSH2 0xF JUMPI PUSH0 DUP1 REVERT JUMPDEST POP PUSH1 0x4 CALLDATASIZE LT PUSH2 0x34 JUMPI PUSH0 CALLDATALOAD PUSH1 0xE0 SHR DUP1 PUSH4 0x32B827EC EQ PUSH2 0x38 JUMPI DUP1 PUSH4 0x7F3F6A73 EQ PUSH2 0x56 JUMPI JUMPDEST PUSH0 DUP1 REVERT JUMPDEST PUSH2 0x40 PUSH2 0x74 JUMP JUMPDEST PUSH1 0x40 MLOAD PUSH2 0x4D SWAP2 SWAP1 PUSH2 0xB1 JUMP JUMPDEST PUSH1 0x40 MLOAD DUP1 SWAP2 SUB SWAP1 RETURN JUMPDEST PUSH2 0x5E PUSH2 0x80 JUMP JUMPDEST PUSH1 0x40 MLOAD PUSH2 0x6B SWAP2 SWAP1 PUSH2 0xB1 JUMP JUMPDEST PUSH1 0x40 MLOAD DUP1 SWAP2 SUB SWAP1 RETURN JUMPDEST PUSH0 DUP1 PUSH0 SWAP1 POP DUP1 SWAP2 POP POP SWAP1 JUMP JUMPDEST PUSH0 DUP1 PUSH1 0x3 SWAP1 POP DUP1 PUSH0 SLOAD PUSH2 0x93 SWAP2 SWAP1 PUSH2 0xF7 JUMP JUMPDEST SWAP2 POP POP SWAP1 JUMP JUMPDEST PUSH0 DUP2 SWAP1 POP SWAP2 SWAP1 POP JUMP JUMPDEST PUSH2 0xAB DUP2 PUSH2 0x99 JUMP JUMPDEST DUP3 MSTORE POP POP JUMP JUMPDEST PUSH0 PUSH1 0x20 DUP3 ADD SWAP1 POP PUSH2 0xC4 PUSH0 DUP4 ADD DUP5 PUSH2 0xA2 JUMP JUMPDEST SWAP3 SWAP2 POP POP JUMP JUMPDEST PUSH32 0x4E487B7100000000000000000000000000000000000000000000000000000000 PUSH0 MSTORE PUSH1 0x11 PUSH1 0x4 MSTORE PUSH1 0x24 PUSH0 REVERT JUMPDEST PUSH0 PUSH2 0x101 DUP3 PUSH2 0x99 JUMP JUMPDEST SWAP2 POP PUSH2 0x10C DUP4 PUSH2 0x99 JUMP JUMPDEST SWAP3 POP DUP3 DUP3 SUB SWAP1 POP DUP2 DUP2 GT ISZERO PUSH2 0x124 JUMPI PUSH2 0x123 PUSH2 0xCA JUMP JUMPDEST JUMPDEST SWAP3 SWAP2 POP POP JUMP INVALID LOG2 PUSH5 0x6970667358 0x22 SLT KECCAK256 CODECOPY 0xCF SWAP7 PUSH13 0x45C1C8AC4698D528933F3491AD SUB CREATE DUP9 0xEA SWAP15 ADD 0x23 MSIZE LOG4 0xDD MSIZE 0x4F SWAP2 SWAP2 ADD PUSH5 0x736F6C6343 STOP ADDMOD AND STOP CALLER "
				},
				"gasEstimates": {
					"creation": {
						"codeDepositCost": "70400",
						"executionCost": "22220",
						"totalCost": "92620"
					},
					"external": {
						"testUnder()": "322",
						"testUnderflow()": "infinite"
					}
				},
				"methodIdentifiers": {
					"testUnder()": "32b827ec",
					"testUnderflow()": "7f3f6a73"
				}
			},
			"storageLayout": {
				"storage": [
					{
						"astId": 4,
						"contract": "testOverflow.sol:A",
						"label": "a",
						"offset": 0,
						"slot": "0",
						"type": "t_uint256"
					}
				],
				"types": {
					"t_uint256": {
						"encoding": "inplace",
						"label": "uint256",
						"numberOfBytes": "32"
					}
				}
			},
			"userdoc": {
				"kind": "user",
				"methods": {},
				"version": 1
			}
		}
	}
}