{
	"testLZ.sol": {
		"LZTest": {
			"abi": [
				{
					"inputs": [
						{
							"internalType": "bytes",
							"name": "options",
							"type": "bytes"
						}
					],
					"name": "InvalidOptions",
					"type": "error"
				},
				{
					"inputs": [],
					"name": "endTime",
					"outputs": [
						{
							"internalType": "uint40",
							"name": "",
							"type": "uint40"
						}
					],
					"stateMutability": "view",
					"type": "function"
				},
				{
					"inputs": [
						{
							"internalType": "uint256",
							"name": "id",
							"type": "uint256"
						}
					],
					"name": "getChainId",
					"outputs": [
						{
							"internalType": "uint16",
							"name": "",
							"type": "uint16"
						}
					],
					"stateMutability": "pure",
					"type": "function"
				},
				{
					"inputs": [
						{
							"internalType": "address",
							"name": "remote",
							"type": "address"
						},
						{
							"internalType": "address",
							"name": "local",
							"type": "address"
						}
					],
					"name": "getPath",
					"outputs": [
						{
							"internalType": "bytes",
							"name": "",
							"type": "bytes"
						}
					],
					"stateMutability": "pure",
					"type": "function"
				},
				{
					"inputs": [],
					"name": "ret",
					"outputs": [
						{
							"internalType": "uint256",
							"name": "",
							"type": "uint256"
						}
					],
					"stateMutability": "view",
					"type": "function"
				},
				{
					"inputs": [
						{
							"internalType": "bytes",
							"name": "",
							"type": "bytes"
						}
					],
					"name": "send",
					"outputs": [
						{
							"internalType": "uint256",
							"name": "",
							"type": "uint256"
						}
					],
					"stateMutability": "nonpayable",
					"type": "function"
				},
				{
					"inputs": [
						{
							"internalType": "enum LZTest.VaultDuration",
							"name": "duration",
							"type": "uint8"
						}
					],
					"name": "test3",
					"outputs": [
						{
							"internalType": "uint256",
							"name": "",
							"type": "uint256"
						}
					],
					"stateMutability": "view",
					"type": "function"
				},
				{
					"inputs": [],
					"name": "testEndTime",
					"outputs": [],
					"stateMutability": "nonpayable",
					"type": "function"
				},
				{
					"inputs": [],
					"name": "testincrement",
					"outputs": [
						{
							"internalType": "uint256",
							"name": "",
							"type": "uint256"
						}
					],
					"stateMutability": "pure",
					"type": "function"
				},
				{
					"inputs": [],
					"name": "time",
					"outputs": [
						{
							"internalType": "uint256",
							"name": "",
							"type": "uint256"
						}
					],
					"stateMutability": "pure",
					"type": "function"
				}
			],
			"devdoc": {
				"kind": "dev",
				"methods": {},
				"version": 1
			},
			"evm": {
				"assembly": "    /* \"testLZ.sol\":68:1344  contract LZTest {... */\n  mstore(0x40, 0x80)\n  callvalue\n  dup1\n  iszero\n  tag_1\n  jumpi\n  0x00\n  dup1\n  revert\ntag_1:\n  pop\n  dataSize(sub_0)\n  dup1\n  dataOffset(sub_0)\n  0x00\n  codecopy\n  0x00\n  return\nstop\n\nsub_0: assembly {\n        /* \"testLZ.sol\":68:1344  contract LZTest {... */\n      mstore(0x40, 0x80)\n      callvalue\n      dup1\n      iszero\n      tag_1\n      jumpi\n      0x00\n      dup1\n      revert\n    tag_1:\n      pop\n      jumpi(tag_2, lt(calldatasize, 0x04))\n      shr(0xe0, calldataload(0x00))\n      dup1\n      0x3197cbb6\n      gt\n      tag_12\n      jumpi\n      dup1\n      0x3197cbb6\n      eq\n      tag_7\n      jumpi\n      dup1\n      0x82995038\n      eq\n      tag_8\n      jumpi\n      dup1\n      0x910f4cf3\n      eq\n      tag_9\n      jumpi\n      dup1\n      0xa78ce23a\n      eq\n      tag_10\n      jumpi\n      dup1\n      0xd88e3e3b\n      eq\n      tag_11\n      jumpi\n      jump(tag_2)\n    tag_12:\n      dup1\n      0x01f6b5a2\n      eq\n      tag_3\n      jumpi\n      dup1\n      0x16ada547\n      eq\n      tag_4\n      jumpi\n      dup1\n      0x1b08d96f\n      eq\n      tag_5\n      jumpi\n      dup1\n      0x2bb1ae7c\n      eq\n      tag_6\n      jumpi\n    tag_2:\n      0x00\n      dup1\n      revert\n        /* \"testLZ.sol\":306:400  function getChainId(uint id) external pure returns(uint16){... */\n    tag_3:\n      tag_13\n      0x04\n      dup1\n      calldatasize\n      sub\n      dup2\n      add\n      swap1\n      tag_14\n      swap2\n      swap1\n      tag_15\n      jump\t// in\n    tag_14:\n      tag_16\n      jump\t// in\n    tag_13:\n      mload(0x40)\n      tag_17\n      swap2\n      swap1\n      tag_18\n      jump\t// in\n    tag_17:\n      mload(0x40)\n      dup1\n      swap2\n      sub\n      swap1\n      return\n        /* \"testLZ.sol\":987:1099  function time() public pure returns(uint256) {... */\n    tag_4:\n      tag_19\n      tag_20\n      jump\t// in\n    tag_19:\n      mload(0x40)\n      tag_21\n      swap2\n      swap1\n      tag_22\n      jump\t// in\n    tag_21:\n      mload(0x40)\n      dup1\n      swap2\n      sub\n      swap1\n      return\n        /* \"testLZ.sol\":93:111  uint256 public ret */\n    tag_5:\n      tag_23\n      tag_24\n      jump\t// in\n    tag_23:\n      mload(0x40)\n      tag_25\n      swap2\n      swap1\n      tag_22\n      jump\t// in\n    tag_25:\n      mload(0x40)\n      dup1\n      swap2\n      sub\n      swap1\n      return\n        /* \"testLZ.sol\":161:296  function send(bytes calldata /*_oftCmd*/ ) external returns(uint) {... */\n    tag_6:\n      tag_26\n      0x04\n      dup1\n      calldatasize\n      sub\n      dup2\n      add\n      swap1\n      tag_27\n      swap2\n      swap1\n      tag_28\n      jump\t// in\n    tag_27:\n      tag_29\n      jump\t// in\n    tag_26:\n      mload(0x40)\n      tag_30\n      swap2\n      swap1\n      tag_22\n      jump\t// in\n    tag_30:\n      mload(0x40)\n      dup1\n      swap2\n      sub\n      swap1\n      return\n        /* \"testLZ.sol\":124:145  uint40 public endTime */\n    tag_7:\n      tag_31\n      tag_32\n      jump\t// in\n    tag_31:\n      mload(0x40)\n      tag_33\n      swap2\n      swap1\n      tag_34\n      jump\t// in\n    tag_33:\n      mload(0x40)\n      dup1\n      swap2\n      sub\n      swap1\n      return\n        /* \"testLZ.sol\":1109:1242  function testincrement() public pure returns(uint256) {... */\n    tag_8:\n      tag_35\n      tag_36\n      jump\t// in\n    tag_35:\n      mload(0x40)\n      tag_37\n      swap2\n      swap1\n      tag_22\n      jump\t// in\n    tag_37:\n      mload(0x40)\n      dup1\n      swap2\n      sub\n      swap1\n      return\n        /* \"testLZ.sol\":878:979  function testEndTime() public {... */\n    tag_9:\n      tag_38\n      tag_39\n      jump\t// in\n    tag_38:\n      stop\n        /* \"testLZ.sol\":728:870  function test3(VaultDuration duration)public view returns(uint256) {... */\n    tag_10:\n      tag_40\n      0x04\n      dup1\n      calldatasize\n      sub\n      dup2\n      add\n      swap1\n      tag_41\n      swap2\n      swap1\n      tag_42\n      jump\t// in\n    tag_41:\n      tag_43\n      jump\t// in\n    tag_40:\n      mload(0x40)\n      tag_44\n      swap2\n      swap1\n      tag_22\n      jump\t// in\n    tag_44:\n      mload(0x40)\n      dup1\n      swap2\n      sub\n      swap1\n      return\n        /* \"testLZ.sol\":408:585  function getPath(address remote, address local) external pure returns(bytes memory){... */\n    tag_11:\n      tag_45\n      0x04\n      dup1\n      calldatasize\n      sub\n      dup2\n      add\n      swap1\n      tag_46\n      swap2\n      swap1\n      tag_47\n      jump\t// in\n    tag_46:\n      tag_48\n      jump\t// in\n    tag_45:\n      mload(0x40)\n      tag_49\n      swap2\n      swap1\n      tag_50\n      jump\t// in\n    tag_49:\n      mload(0x40)\n      dup1\n      swap2\n      sub\n      swap1\n      return\n        /* \"testLZ.sol\":306:400  function getChainId(uint id) external pure returns(uint16){... */\n    tag_16:\n        /* \"testLZ.sol\":357:363  uint16 */\n      0x00\n        /* \"testLZ.sol\":389:391  id */\n      dup2\n        /* \"testLZ.sol\":375:392  return uint16(id) */\n      swap1\n      pop\n        /* \"testLZ.sol\":306:400  function getChainId(uint id) external pure returns(uint16){... */\n      swap2\n      swap1\n      pop\n      jump\t// out\n        /* \"testLZ.sol\":987:1099  function time() public pure returns(uint256) {... */\n    tag_20:\n        /* \"testLZ.sol\":1023:1030  uint256 */\n      0x00\n        /* \"testLZ.sol\":1043:1054  uint256 ret */\n      dup1\n        /* \"testLZ.sol\":1057:1068  7 + 30 days */\n      0x278d07\n        /* \"testLZ.sol\":1043:1068  uint256 ret = 7 + 30 days */\n      swap1\n      pop\n        /* \"testLZ.sol\":1088:1091  ret */\n      dup1\n        /* \"testLZ.sol\":1081:1091  return ret */\n      swap2\n      pop\n      pop\n        /* \"testLZ.sol\":987:1099  function time() public pure returns(uint256) {... */\n      swap1\n      jump\t// out\n        /* \"testLZ.sol\":93:111  uint256 public ret */\n    tag_24:\n      sload(0x00)\n      dup2\n      jump\t// out\n        /* \"testLZ.sol\":161:296  function send(bytes calldata /*_oftCmd*/ ) external returns(uint) {... */\n    tag_29:\n        /* \"testLZ.sol\":221:225  uint */\n      0x00\n        /* \"testLZ.sol\":254:257  1+1 */\n      0x02\n        /* \"testLZ.sol\":248:251  ret */\n      0x00\n        /* \"testLZ.sol\":248:257  ret = 1+1 */\n      dup2\n      swap1\n      sstore\n      pop\n        /* \"testLZ.sol\":285:288  ret */\n      sload(0x00)\n        /* \"testLZ.sol\":278:288  return ret */\n      swap1\n      pop\n        /* \"testLZ.sol\":161:296  function send(bytes calldata /*_oftCmd*/ ) external returns(uint) {... */\n      swap3\n      swap2\n      pop\n      pop\n      jump\t// out\n        /* \"testLZ.sol\":124:145  uint40 public endTime */\n    tag_32:\n      0x01\n      0x00\n      swap1\n      sload\n      swap1\n      0x0100\n      exp\n      swap1\n      div\n      0xffffffffff\n      and\n      dup2\n      jump\t// out\n        /* \"testLZ.sol\":1109:1242  function testincrement() public pure returns(uint256) {... */\n    tag_36:\n        /* \"testLZ.sol\":1154:1161  uint256 */\n      0x00\n        /* \"testLZ.sol\":1174:1186  uint256 test */\n      dup1\n        /* \"testLZ.sol\":1189:1191  12 */\n      0x0c\n        /* \"testLZ.sol\":1174:1191  uint256 test = 12 */\n      swap1\n      pop\n        /* \"testLZ.sol\":1204:1210  --test */\n      dup1\n      tag_55\n      swap1\n      tag_56\n      jump\t// in\n    tag_55:\n      swap1\n      pop\n        /* \"testLZ.sol\":1230:1234  test */\n      dup1\n        /* \"testLZ.sol\":1223:1234  return test */\n      swap2\n      pop\n      pop\n        /* \"testLZ.sol\":1109:1242  function testincrement() public pure returns(uint256) {... */\n      swap1\n      jump\t// out\n        /* \"testLZ.sol\":878:979  function testEndTime() public {... */\n    tag_39:\n        /* \"testLZ.sol\":962:970  120 days */\n      0x9e3400\n        /* \"testLZ.sol\":936:951  block.timestamp */\n      timestamp\n        /* \"testLZ.sol\":929:971  uint40(block.timestamp) + uint40(120 days) */\n      tag_58\n      swap2\n      swap1\n      tag_59\n      jump\t// in\n    tag_58:\n        /* \"testLZ.sol\":919:926  endTime */\n      0x01\n      0x00\n        /* \"testLZ.sol\":919:971  endTime = uint40(block.timestamp) + uint40(120 days) */\n      0x0100\n      exp\n      dup2\n      sload\n      dup2\n      0xffffffffff\n      mul\n      not\n      and\n      swap1\n      dup4\n      0xffffffffff\n      and\n      mul\n      or\n      swap1\n      sstore\n      pop\n        /* \"testLZ.sol\":878:979  function testEndTime() public {... */\n      jump\t// out\n        /* \"testLZ.sol\":728:870  function test3(VaultDuration duration)public view returns(uint256) {... */\n    tag_43:\n        /* \"testLZ.sol\":786:793  uint256 */\n      0x00\n        /* \"testLZ.sol\":806:817  uint256 res */\n      dup1\n        /* \"testLZ.sol\":830:838  duration */\n      dup3\n        /* \"testLZ.sol\":824:839  uint8(duration) */\n      0x03\n      dup2\n      gt\n      iszero\n      tag_61\n      jumpi\n      tag_62\n      tag_63\n      jump\t// in\n    tag_62:\n    tag_61:\n        /* \"testLZ.sol\":820:821  1 */\n      0x01\n        /* \"testLZ.sol\":820:839  1 * uint8(duration) */\n      tag_64\n      swap2\n      swap1\n      tag_65\n      jump\t// in\n    tag_64:\n        /* \"testLZ.sol\":806:839  uint256 res = 1 * uint8(duration) */\n      0xff\n      and\n      swap1\n      pop\n        /* \"testLZ.sol\":859:862  res */\n      dup1\n        /* \"testLZ.sol\":852:862  return res */\n      swap2\n      pop\n      pop\n        /* \"testLZ.sol\":728:870  function test3(VaultDuration duration)public view returns(uint256) {... */\n      swap2\n      swap1\n      pop\n      jump\t// out\n        /* \"testLZ.sol\":408:585  function getPath(address remote, address local) external pure returns(bytes memory){... */\n    tag_48:\n        /* \"testLZ.sol\":478:490  bytes memory */\n      0x60\n        /* \"testLZ.sol\":502:519  bytes memory path */\n      0x00\n        /* \"testLZ.sol\":539:545  remote */\n      dup4\n        /* \"testLZ.sol\":547:552  local */\n      dup4\n        /* \"testLZ.sol\":522:553  abi.encodePacked(remote, local) */\n      add(0x20, mload(0x40))\n      tag_67\n      swap3\n      swap2\n      swap1\n      tag_68\n      jump\t// in\n    tag_67:\n      mload(0x40)\n      0x20\n      dup2\n      dup4\n      sub\n      sub\n      dup2\n      mstore\n      swap1\n      0x40\n      mstore\n        /* \"testLZ.sol\":502:553  bytes memory path = abi.encodePacked(remote, local) */\n      swap1\n      pop\n        /* \"testLZ.sol\":571:575  path */\n      dup1\n        /* \"testLZ.sol\":564:575  return path */\n      swap2\n      pop\n      pop\n        /* \"testLZ.sol\":408:585  function getPath(address remote, address local) external pure returns(bytes memory){... */\n      swap3\n      swap2\n      pop\n      pop\n      jump\t// out\n        /* \"#utility.yul\":88:205   */\n    tag_70:\n        /* \"#utility.yul\":197:198   */\n      0x00\n        /* \"#utility.yul\":194:195   */\n      dup1\n        /* \"#utility.yul\":187:199   */\n      revert\n        /* \"#utility.yul\":211:328   */\n    tag_71:\n        /* \"#utility.yul\":320:321   */\n      0x00\n        /* \"#utility.yul\":317:318   */\n      dup1\n        /* \"#utility.yul\":310:322   */\n      revert\n        /* \"#utility.yul\":334:411   */\n    tag_72:\n        /* \"#utility.yul\":371:378   */\n      0x00\n        /* \"#utility.yul\":400:405   */\n      dup2\n        /* \"#utility.yul\":389:405   */\n      swap1\n      pop\n        /* \"#utility.yul\":334:411   */\n      swap2\n      swap1\n      pop\n      jump\t// out\n        /* \"#utility.yul\":417:539   */\n    tag_73:\n        /* \"#utility.yul\":490:514   */\n      tag_107\n        /* \"#utility.yul\":508:513   */\n      dup2\n        /* \"#utility.yul\":490:514   */\n      tag_72\n      jump\t// in\n    tag_107:\n        /* \"#utility.yul\":483:488   */\n      dup2\n        /* \"#utility.yul\":480:515   */\n      eq\n        /* \"#utility.yul\":470:533   */\n      tag_108\n      jumpi\n        /* \"#utility.yul\":529:530   */\n      0x00\n        /* \"#utility.yul\":526:527   */\n      dup1\n        /* \"#utility.yul\":519:531   */\n      revert\n        /* \"#utility.yul\":470:533   */\n    tag_108:\n        /* \"#utility.yul\":417:539   */\n      pop\n      jump\t// out\n        /* \"#utility.yul\":545:684   */\n    tag_74:\n        /* \"#utility.yul\":591:596   */\n      0x00\n        /* \"#utility.yul\":629:635   */\n      dup2\n        /* \"#utility.yul\":616:636   */\n      calldataload\n        /* \"#utility.yul\":607:636   */\n      swap1\n      pop\n        /* \"#utility.yul\":645:678   */\n      tag_110\n        /* \"#utility.yul\":672:677   */\n      dup2\n        /* \"#utility.yul\":645:678   */\n      tag_73\n      jump\t// in\n    tag_110:\n        /* \"#utility.yul\":545:684   */\n      swap3\n      swap2\n      pop\n      pop\n      jump\t// out\n        /* \"#utility.yul\":690:1019   */\n    tag_15:\n        /* \"#utility.yul\":749:755   */\n      0x00\n        /* \"#utility.yul\":798:800   */\n      0x20\n        /* \"#utility.yul\":786:795   */\n      dup3\n        /* \"#utility.yul\":777:784   */\n      dup5\n        /* \"#utility.yul\":773:796   */\n      sub\n        /* \"#utility.yul\":769:801   */\n      slt\n        /* \"#utility.yul\":766:885   */\n      iszero\n      tag_112\n      jumpi\n        /* \"#utility.yul\":804:883   */\n      tag_113\n      tag_70\n      jump\t// in\n    tag_113:\n        /* \"#utility.yul\":766:885   */\n    tag_112:\n        /* \"#utility.yul\":924:925   */\n      0x00\n        /* \"#utility.yul\":949:1002   */\n      tag_114\n        /* \"#utility.yul\":994:1001   */\n      dup5\n        /* \"#utility.yul\":985:991   */\n      dup3\n        /* \"#utility.yul\":974:983   */\n      dup6\n        /* \"#utility.yul\":970:992   */\n      add\n        /* \"#utility.yul\":949:1002   */\n      tag_74\n      jump\t// in\n    tag_114:\n        /* \"#utility.yul\":939:1002   */\n      swap2\n      pop\n        /* \"#utility.yul\":895:1012   */\n      pop\n        /* \"#utility.yul\":690:1019   */\n      swap3\n      swap2\n      pop\n      pop\n      jump\t// out\n        /* \"#utility.yul\":1025:1114   */\n    tag_75:\n        /* \"#utility.yul\":1061:1068   */\n      0x00\n        /* \"#utility.yul\":1101:1107   */\n      0xffff\n        /* \"#utility.yul\":1094:1099   */\n      dup3\n        /* \"#utility.yul\":1090:1108   */\n      and\n        /* \"#utility.yul\":1079:1108   */\n      swap1\n      pop\n        /* \"#utility.yul\":1025:1114   */\n      swap2\n      swap1\n      pop\n      jump\t// out\n        /* \"#utility.yul\":1120:1235   */\n    tag_76:\n        /* \"#utility.yul\":1205:1228   */\n      tag_117\n        /* \"#utility.yul\":1222:1227   */\n      dup2\n        /* \"#utility.yul\":1205:1228   */\n      tag_75\n      jump\t// in\n    tag_117:\n        /* \"#utility.yul\":1200:1203   */\n      dup3\n        /* \"#utility.yul\":1193:1229   */\n      mstore\n        /* \"#utility.yul\":1120:1235   */\n      pop\n      pop\n      jump\t// out\n        /* \"#utility.yul\":1241:1459   */\n    tag_18:\n        /* \"#utility.yul\":1332:1336   */\n      0x00\n        /* \"#utility.yul\":1370:1372   */\n      0x20\n        /* \"#utility.yul\":1359:1368   */\n      dup3\n        /* \"#utility.yul\":1355:1373   */\n      add\n        /* \"#utility.yul\":1347:1373   */\n      swap1\n      pop\n        /* \"#utility.yul\":1383:1452   */\n      tag_119\n        /* \"#utility.yul\":1449:1450   */\n      0x00\n        /* \"#utility.yul\":1438:1447   */\n      dup4\n        /* \"#utility.yul\":1434:1451   */\n      add\n        /* \"#utility.yul\":1425:1431   */\n      dup5\n        /* \"#utility.yul\":1383:1452   */\n      tag_76\n      jump\t// in\n    tag_119:\n        /* \"#utility.yul\":1241:1459   */\n      swap3\n      swap2\n      pop\n      pop\n      jump\t// out\n        /* \"#utility.yul\":1465:1583   */\n    tag_77:\n        /* \"#utility.yul\":1552:1576   */\n      tag_121\n        /* \"#utility.yul\":1570:1575   */\n      dup2\n        /* \"#utility.yul\":1552:1576   */\n      tag_72\n      jump\t// in\n    tag_121:\n        /* \"#utility.yul\":1547:1550   */\n      dup3\n        /* \"#utility.yul\":1540:1577   */\n      mstore\n        /* \"#utility.yul\":1465:1583   */\n      pop\n      pop\n      jump\t// out\n        /* \"#utility.yul\":1589:1811   */\n    tag_22:\n        /* \"#utility.yul\":1682:1686   */\n      0x00\n        /* \"#utility.yul\":1720:1722   */\n      0x20\n        /* \"#utility.yul\":1709:1718   */\n      dup3\n        /* \"#utility.yul\":1705:1723   */\n      add\n        /* \"#utility.yul\":1697:1723   */\n      swap1\n      pop\n        /* \"#utility.yul\":1733:1804   */\n      tag_123\n        /* \"#utility.yul\":1801:1802   */\n      0x00\n        /* \"#utility.yul\":1790:1799   */\n      dup4\n        /* \"#utility.yul\":1786:1803   */\n      add\n        /* \"#utility.yul\":1777:1783   */\n      dup5\n        /* \"#utility.yul\":1733:1804   */\n      tag_77\n      jump\t// in\n    tag_123:\n        /* \"#utility.yul\":1589:1811   */\n      swap3\n      swap2\n      pop\n      pop\n      jump\t// out\n        /* \"#utility.yul\":1817:1934   */\n    tag_78:\n        /* \"#utility.yul\":1926:1927   */\n      0x00\n        /* \"#utility.yul\":1923:1924   */\n      dup1\n        /* \"#utility.yul\":1916:1928   */\n      revert\n        /* \"#utility.yul\":1940:2057   */\n    tag_79:\n        /* \"#utility.yul\":2049:2050   */\n      0x00\n        /* \"#utility.yul\":2046:2047   */\n      dup1\n        /* \"#utility.yul\":2039:2051   */\n      revert\n        /* \"#utility.yul\":2063:2180   */\n    tag_80:\n        /* \"#utility.yul\":2172:2173   */\n      0x00\n        /* \"#utility.yul\":2169:2170   */\n      dup1\n        /* \"#utility.yul\":2162:2174   */\n      revert\n        /* \"#utility.yul\":2199:2751   */\n    tag_81:\n        /* \"#utility.yul\":2256:2264   */\n      0x00\n        /* \"#utility.yul\":2266:2272   */\n      dup1\n        /* \"#utility.yul\":2316:2319   */\n      dup4\n        /* \"#utility.yul\":2309:2313   */\n      0x1f\n        /* \"#utility.yul\":2301:2307   */\n      dup5\n        /* \"#utility.yul\":2297:2314   */\n      add\n        /* \"#utility.yul\":2293:2320   */\n      slt\n        /* \"#utility.yul\":2283:2405   */\n      tag_128\n      jumpi\n        /* \"#utility.yul\":2324:2403   */\n      tag_129\n      tag_78\n      jump\t// in\n    tag_129:\n        /* \"#utility.yul\":2283:2405   */\n    tag_128:\n        /* \"#utility.yul\":2437:2443   */\n      dup3\n        /* \"#utility.yul\":2424:2444   */\n      calldataload\n        /* \"#utility.yul\":2414:2444   */\n      swap1\n      pop\n        /* \"#utility.yul\":2467:2485   */\n      0xffffffffffffffff\n        /* \"#utility.yul\":2459:2465   */\n      dup2\n        /* \"#utility.yul\":2456:2486   */\n      gt\n        /* \"#utility.yul\":2453:2570   */\n      iszero\n      tag_130\n      jumpi\n        /* \"#utility.yul\":2489:2568   */\n      tag_131\n      tag_79\n      jump\t// in\n    tag_131:\n        /* \"#utility.yul\":2453:2570   */\n    tag_130:\n        /* \"#utility.yul\":2603:2607   */\n      0x20\n        /* \"#utility.yul\":2595:2601   */\n      dup4\n        /* \"#utility.yul\":2591:2608   */\n      add\n        /* \"#utility.yul\":2579:2608   */\n      swap2\n      pop\n        /* \"#utility.yul\":2657:2660   */\n      dup4\n        /* \"#utility.yul\":2649:2653   */\n      0x01\n        /* \"#utility.yul\":2641:2647   */\n      dup3\n        /* \"#utility.yul\":2637:2654   */\n      mul\n        /* \"#utility.yul\":2627:2635   */\n      dup4\n        /* \"#utility.yul\":2623:2655   */\n      add\n        /* \"#utility.yul\":2620:2661   */\n      gt\n        /* \"#utility.yul\":2617:2745   */\n      iszero\n      tag_132\n      jumpi\n        /* \"#utility.yul\":2664:2743   */\n      tag_133\n      tag_80\n      jump\t// in\n    tag_133:\n        /* \"#utility.yul\":2617:2745   */\n    tag_132:\n        /* \"#utility.yul\":2199:2751   */\n      swap3\n      pop\n      swap3\n      swap1\n      pop\n      jump\t// out\n        /* \"#utility.yul\":2757:3284   */\n    tag_28:\n        /* \"#utility.yul\":2827:2833   */\n      0x00\n        /* \"#utility.yul\":2835:2841   */\n      dup1\n        /* \"#utility.yul\":2884:2886   */\n      0x20\n        /* \"#utility.yul\":2872:2881   */\n      dup4\n        /* \"#utility.yul\":2863:2870   */\n      dup6\n        /* \"#utility.yul\":2859:2882   */\n      sub\n        /* \"#utility.yul\":2855:2887   */\n      slt\n        /* \"#utility.yul\":2852:2971   */\n      iszero\n      tag_135\n      jumpi\n        /* \"#utility.yul\":2890:2969   */\n      tag_136\n      tag_70\n      jump\t// in\n    tag_136:\n        /* \"#utility.yul\":2852:2971   */\n    tag_135:\n        /* \"#utility.yul\":3038:3039   */\n      0x00\n        /* \"#utility.yul\":3027:3036   */\n      dup4\n        /* \"#utility.yul\":3023:3040   */\n      add\n        /* \"#utility.yul\":3010:3041   */\n      calldataload\n        /* \"#utility.yul\":3068:3086   */\n      0xffffffffffffffff\n        /* \"#utility.yul\":3060:3066   */\n      dup2\n        /* \"#utility.yul\":3057:3087   */\n      gt\n        /* \"#utility.yul\":3054:3171   */\n      iszero\n      tag_137\n      jumpi\n        /* \"#utility.yul\":3090:3169   */\n      tag_138\n      tag_71\n      jump\t// in\n    tag_138:\n        /* \"#utility.yul\":3054:3171   */\n    tag_137:\n        /* \"#utility.yul\":3203:3267   */\n      tag_139\n        /* \"#utility.yul\":3259:3266   */\n      dup6\n        /* \"#utility.yul\":3250:3256   */\n      dup3\n        /* \"#utility.yul\":3239:3248   */\n      dup7\n        /* \"#utility.yul\":3235:3257   */\n      add\n        /* \"#utility.yul\":3203:3267   */\n      tag_81\n      jump\t// in\n    tag_139:\n        /* \"#utility.yul\":3185:3267   */\n      swap3\n      pop\n      swap3\n      pop\n        /* \"#utility.yul\":2981:3277   */\n      pop\n        /* \"#utility.yul\":2757:3284   */\n      swap3\n      pop\n      swap3\n      swap1\n      pop\n      jump\t// out\n        /* \"#utility.yul\":3290:3385   */\n    tag_82:\n        /* \"#utility.yul\":3326:3333   */\n      0x00\n        /* \"#utility.yul\":3366:3378   */\n      0xffffffffff\n        /* \"#utility.yul\":3359:3364   */\n      dup3\n        /* \"#utility.yul\":3355:3379   */\n      and\n        /* \"#utility.yul\":3344:3379   */\n      swap1\n      pop\n        /* \"#utility.yul\":3290:3385   */\n      swap2\n      swap1\n      pop\n      jump\t// out\n        /* \"#utility.yul\":3391:3506   */\n    tag_83:\n        /* \"#utility.yul\":3476:3499   */\n      tag_142\n        /* \"#utility.yul\":3493:3498   */\n      dup2\n        /* \"#utility.yul\":3476:3499   */\n      tag_82\n      jump\t// in\n    tag_142:\n        /* \"#utility.yul\":3471:3474   */\n      dup3\n        /* \"#utility.yul\":3464:3500   */\n      mstore\n        /* \"#utility.yul\":3391:3506   */\n      pop\n      pop\n      jump\t// out\n        /* \"#utility.yul\":3512:3730   */\n    tag_34:\n        /* \"#utility.yul\":3603:3607   */\n      0x00\n        /* \"#utility.yul\":3641:3643   */\n      0x20\n        /* \"#utility.yul\":3630:3639   */\n      dup3\n        /* \"#utility.yul\":3626:3644   */\n      add\n        /* \"#utility.yul\":3618:3644   */\n      swap1\n      pop\n        /* \"#utility.yul\":3654:3723   */\n      tag_144\n        /* \"#utility.yul\":3720:3721   */\n      0x00\n        /* \"#utility.yul\":3709:3718   */\n      dup4\n        /* \"#utility.yul\":3705:3722   */\n      add\n        /* \"#utility.yul\":3696:3702   */\n      dup5\n        /* \"#utility.yul\":3654:3723   */\n      tag_83\n      jump\t// in\n    tag_144:\n        /* \"#utility.yul\":3512:3730   */\n      swap3\n      swap2\n      pop\n      pop\n      jump\t// out\n        /* \"#utility.yul\":3736:3851   */\n    tag_84:\n        /* \"#utility.yul\":3825:3826   */\n      0x04\n        /* \"#utility.yul\":3818:3823   */\n      dup2\n        /* \"#utility.yul\":3815:3827   */\n      lt\n        /* \"#utility.yul\":3805:3845   */\n      tag_146\n      jumpi\n        /* \"#utility.yul\":3841:3842   */\n      0x00\n        /* \"#utility.yul\":3838:3839   */\n      dup1\n        /* \"#utility.yul\":3831:3843   */\n      revert\n        /* \"#utility.yul\":3805:3845   */\n    tag_146:\n        /* \"#utility.yul\":3736:3851   */\n      pop\n      jump\t// out\n        /* \"#utility.yul\":3857:4028   */\n    tag_85:\n        /* \"#utility.yul\":3919:3924   */\n      0x00\n        /* \"#utility.yul\":3957:3963   */\n      dup2\n        /* \"#utility.yul\":3944:3964   */\n      calldataload\n        /* \"#utility.yul\":3935:3964   */\n      swap1\n      pop\n        /* \"#utility.yul\":3973:4022   */\n      tag_148\n        /* \"#utility.yul\":4016:4021   */\n      dup2\n        /* \"#utility.yul\":3973:4022   */\n      tag_84\n      jump\t// in\n    tag_148:\n        /* \"#utility.yul\":3857:4028   */\n      swap3\n      swap2\n      pop\n      pop\n      jump\t// out\n        /* \"#utility.yul\":4034:4395   */\n    tag_42:\n        /* \"#utility.yul\":4109:4115   */\n      0x00\n        /* \"#utility.yul\":4158:4160   */\n      0x20\n        /* \"#utility.yul\":4146:4155   */\n      dup3\n        /* \"#utility.yul\":4137:4144   */\n      dup5\n        /* \"#utility.yul\":4133:4156   */\n      sub\n        /* \"#utility.yul\":4129:4161   */\n      slt\n        /* \"#utility.yul\":4126:4245   */\n      iszero\n      tag_150\n      jumpi\n        /* \"#utility.yul\":4164:4243   */\n      tag_151\n      tag_70\n      jump\t// in\n    tag_151:\n        /* \"#utility.yul\":4126:4245   */\n    tag_150:\n        /* \"#utility.yul\":4284:4285   */\n      0x00\n        /* \"#utility.yul\":4309:4378   */\n      tag_152\n        /* \"#utility.yul\":4370:4377   */\n      dup5\n        /* \"#utility.yul\":4361:4367   */\n      dup3\n        /* \"#utility.yul\":4350:4359   */\n      dup6\n        /* \"#utility.yul\":4346:4368   */\n      add\n        /* \"#utility.yul\":4309:4378   */\n      tag_85\n      jump\t// in\n    tag_152:\n        /* \"#utility.yul\":4299:4378   */\n      swap2\n      pop\n        /* \"#utility.yul\":4255:4388   */\n      pop\n        /* \"#utility.yul\":4034:4395   */\n      swap3\n      swap2\n      pop\n      pop\n      jump\t// out\n        /* \"#utility.yul\":4401:4527   */\n    tag_86:\n        /* \"#utility.yul\":4438:4445   */\n      0x00\n        /* \"#utility.yul\":4478:4520   */\n      0xffffffffffffffffffffffffffffffffffffffff\n        /* \"#utility.yul\":4471:4476   */\n      dup3\n        /* \"#utility.yul\":4467:4521   */\n      and\n        /* \"#utility.yul\":4456:4521   */\n      swap1\n      pop\n        /* \"#utility.yul\":4401:4527   */\n      swap2\n      swap1\n      pop\n      jump\t// out\n        /* \"#utility.yul\":4533:4629   */\n    tag_87:\n        /* \"#utility.yul\":4570:4577   */\n      0x00\n        /* \"#utility.yul\":4599:4623   */\n      tag_155\n        /* \"#utility.yul\":4617:4622   */\n      dup3\n        /* \"#utility.yul\":4599:4623   */\n      tag_86\n      jump\t// in\n    tag_155:\n        /* \"#utility.yul\":4588:4623   */\n      swap1\n      pop\n        /* \"#utility.yul\":4533:4629   */\n      swap2\n      swap1\n      pop\n      jump\t// out\n        /* \"#utility.yul\":4635:4757   */\n    tag_88:\n        /* \"#utility.yul\":4708:4732   */\n      tag_157\n        /* \"#utility.yul\":4726:4731   */\n      dup2\n        /* \"#utility.yul\":4708:4732   */\n      tag_87\n      jump\t// in\n    tag_157:\n        /* \"#utility.yul\":4701:4706   */\n      dup2\n        /* \"#utility.yul\":4698:4733   */\n      eq\n        /* \"#utility.yul\":4688:4751   */\n      tag_158\n      jumpi\n        /* \"#utility.yul\":4747:4748   */\n      0x00\n        /* \"#utility.yul\":4744:4745   */\n      dup1\n        /* \"#utility.yul\":4737:4749   */\n      revert\n        /* \"#utility.yul\":4688:4751   */\n    tag_158:\n        /* \"#utility.yul\":4635:4757   */\n      pop\n      jump\t// out\n        /* \"#utility.yul\":4763:4902   */\n    tag_89:\n        /* \"#utility.yul\":4809:4814   */\n      0x00\n        /* \"#utility.yul\":4847:4853   */\n      dup2\n        /* \"#utility.yul\":4834:4854   */\n      calldataload\n        /* \"#utility.yul\":4825:4854   */\n      swap1\n      pop\n        /* \"#utility.yul\":4863:4896   */\n      tag_160\n        /* \"#utility.yul\":4890:4895   */\n      dup2\n        /* \"#utility.yul\":4863:4896   */\n      tag_88\n      jump\t// in\n    tag_160:\n        /* \"#utility.yul\":4763:4902   */\n      swap3\n      swap2\n      pop\n      pop\n      jump\t// out\n        /* \"#utility.yul\":4908:5382   */\n    tag_47:\n        /* \"#utility.yul\":4976:4982   */\n      0x00\n        /* \"#utility.yul\":4984:4990   */\n      dup1\n        /* \"#utility.yul\":5033:5035   */\n      0x40\n        /* \"#utility.yul\":5021:5030   */\n      dup4\n        /* \"#utility.yul\":5012:5019   */\n      dup6\n        /* \"#utility.yul\":5008:5031   */\n      sub\n        /* \"#utility.yul\":5004:5036   */\n      slt\n        /* \"#utility.yul\":5001:5120   */\n      iszero\n      tag_162\n      jumpi\n        /* \"#utility.yul\":5039:5118   */\n      tag_163\n      tag_70\n      jump\t// in\n    tag_163:\n        /* \"#utility.yul\":5001:5120   */\n    tag_162:\n        /* \"#utility.yul\":5159:5160   */\n      0x00\n        /* \"#utility.yul\":5184:5237   */\n      tag_164\n        /* \"#utility.yul\":5229:5236   */\n      dup6\n        /* \"#utility.yul\":5220:5226   */\n      dup3\n        /* \"#utility.yul\":5209:5218   */\n      dup7\n        /* \"#utility.yul\":5205:5227   */\n      add\n        /* \"#utility.yul\":5184:5237   */\n      tag_89\n      jump\t// in\n    tag_164:\n        /* \"#utility.yul\":5174:5237   */\n      swap3\n      pop\n        /* \"#utility.yul\":5130:5247   */\n      pop\n        /* \"#utility.yul\":5286:5288   */\n      0x20\n        /* \"#utility.yul\":5312:5365   */\n      tag_165\n        /* \"#utility.yul\":5357:5364   */\n      dup6\n        /* \"#utility.yul\":5348:5354   */\n      dup3\n        /* \"#utility.yul\":5337:5346   */\n      dup7\n        /* \"#utility.yul\":5333:5355   */\n      add\n        /* \"#utility.yul\":5312:5365   */\n      tag_89\n      jump\t// in\n    tag_165:\n        /* \"#utility.yul\":5302:5365   */\n      swap2\n      pop\n        /* \"#utility.yul\":5257:5375   */\n      pop\n        /* \"#utility.yul\":4908:5382   */\n      swap3\n      pop\n      swap3\n      swap1\n      pop\n      jump\t// out\n        /* \"#utility.yul\":5388:5486   */\n    tag_90:\n        /* \"#utility.yul\":5439:5445   */\n      0x00\n        /* \"#utility.yul\":5473:5478   */\n      dup2\n        /* \"#utility.yul\":5467:5479   */\n      mload\n        /* \"#utility.yul\":5457:5479   */\n      swap1\n      pop\n        /* \"#utility.yul\":5388:5486   */\n      swap2\n      swap1\n      pop\n      jump\t// out\n        /* \"#utility.yul\":5492:5660   */\n    tag_91:\n        /* \"#utility.yul\":5575:5586   */\n      0x00\n        /* \"#utility.yul\":5609:5615   */\n      dup3\n        /* \"#utility.yul\":5604:5607   */\n      dup3\n        /* \"#utility.yul\":5597:5616   */\n      mstore\n        /* \"#utility.yul\":5649:5653   */\n      0x20\n        /* \"#utility.yul\":5644:5647   */\n      dup3\n        /* \"#utility.yul\":5640:5654   */\n      add\n        /* \"#utility.yul\":5625:5654   */\n      swap1\n      pop\n        /* \"#utility.yul\":5492:5660   */\n      swap3\n      swap2\n      pop\n      pop\n      jump\t// out\n        /* \"#utility.yul\":5666:5805   */\n    tag_92:\n        /* \"#utility.yul\":5755:5761   */\n      dup3\n        /* \"#utility.yul\":5750:5753   */\n      dup2\n        /* \"#utility.yul\":5745:5748   */\n      dup4\n        /* \"#utility.yul\":5739:5762   */\n      mcopy\n        /* \"#utility.yul\":5796:5797   */\n      0x00\n        /* \"#utility.yul\":5787:5793   */\n      dup4\n        /* \"#utility.yul\":5782:5785   */\n      dup4\n        /* \"#utility.yul\":5778:5794   */\n      add\n        /* \"#utility.yul\":5771:5798   */\n      mstore\n        /* \"#utility.yul\":5666:5805   */\n      pop\n      pop\n      pop\n      jump\t// out\n        /* \"#utility.yul\":5811:5913   */\n    tag_93:\n        /* \"#utility.yul\":5852:5858   */\n      0x00\n        /* \"#utility.yul\":5903:5905   */\n      0x1f\n        /* \"#utility.yul\":5899:5906   */\n      not\n        /* \"#utility.yul\":5894:5896   */\n      0x1f\n        /* \"#utility.yul\":5887:5892   */\n      dup4\n        /* \"#utility.yul\":5883:5897   */\n      add\n        /* \"#utility.yul\":5879:5907   */\n      and\n        /* \"#utility.yul\":5869:5907   */\n      swap1\n      pop\n        /* \"#utility.yul\":5811:5913   */\n      swap2\n      swap1\n      pop\n      jump\t// out\n        /* \"#utility.yul\":5919:6292   */\n    tag_94:\n        /* \"#utility.yul\":6005:6008   */\n      0x00\n        /* \"#utility.yul\":6033:6071   */\n      tag_171\n        /* \"#utility.yul\":6065:6070   */\n      dup3\n        /* \"#utility.yul\":6033:6071   */\n      tag_90\n      jump\t// in\n    tag_171:\n        /* \"#utility.yul\":6087:6157   */\n      tag_172\n        /* \"#utility.yul\":6150:6156   */\n      dup2\n        /* \"#utility.yul\":6145:6148   */\n      dup6\n        /* \"#utility.yul\":6087:6157   */\n      tag_91\n      jump\t// in\n    tag_172:\n        /* \"#utility.yul\":6080:6157   */\n      swap4\n      pop\n        /* \"#utility.yul\":6166:6231   */\n      tag_173\n        /* \"#utility.yul\":6224:6230   */\n      dup2\n        /* \"#utility.yul\":6219:6222   */\n      dup6\n        /* \"#utility.yul\":6212:6216   */\n      0x20\n        /* \"#utility.yul\":6205:6210   */\n      dup7\n        /* \"#utility.yul\":6201:6217   */\n      add\n        /* \"#utility.yul\":6166:6231   */\n      tag_92\n      jump\t// in\n    tag_173:\n        /* \"#utility.yul\":6256:6285   */\n      tag_174\n        /* \"#utility.yul\":6278:6284   */\n      dup2\n        /* \"#utility.yul\":6256:6285   */\n      tag_93\n      jump\t// in\n    tag_174:\n        /* \"#utility.yul\":6251:6254   */\n      dup5\n        /* \"#utility.yul\":6247:6286   */\n      add\n        /* \"#utility.yul\":6240:6286   */\n      swap2\n      pop\n        /* \"#utility.yul\":6009:6292   */\n      pop\n        /* \"#utility.yul\":5919:6292   */\n      swap3\n      swap2\n      pop\n      pop\n      jump\t// out\n        /* \"#utility.yul\":6298:6607   */\n    tag_50:\n        /* \"#utility.yul\":6409:6413   */\n      0x00\n        /* \"#utility.yul\":6447:6449   */\n      0x20\n        /* \"#utility.yul\":6436:6445   */\n      dup3\n        /* \"#utility.yul\":6432:6450   */\n      add\n        /* \"#utility.yul\":6424:6450   */\n      swap1\n      pop\n        /* \"#utility.yul\":6496:6505   */\n      dup2\n        /* \"#utility.yul\":6490:6494   */\n      dup2\n        /* \"#utility.yul\":6486:6506   */\n      sub\n        /* \"#utility.yul\":6482:6483   */\n      0x00\n        /* \"#utility.yul\":6471:6480   */\n      dup4\n        /* \"#utility.yul\":6467:6484   */\n      add\n        /* \"#utility.yul\":6460:6507   */\n      mstore\n        /* \"#utility.yul\":6524:6600   */\n      tag_176\n        /* \"#utility.yul\":6595:6599   */\n      dup2\n        /* \"#utility.yul\":6586:6592   */\n      dup5\n        /* \"#utility.yul\":6524:6600   */\n      tag_94\n      jump\t// in\n    tag_176:\n        /* \"#utility.yul\":6516:6600   */\n      swap1\n      pop\n        /* \"#utility.yul\":6298:6607   */\n      swap3\n      swap2\n      pop\n      pop\n      jump\t// out\n        /* \"#utility.yul\":6613:6793   */\n    tag_95:\n        /* \"#utility.yul\":6661:6738   */\n      0x4e487b7100000000000000000000000000000000000000000000000000000000\n        /* \"#utility.yul\":6658:6659   */\n      0x00\n        /* \"#utility.yul\":6651:6739   */\n      mstore\n        /* \"#utility.yul\":6758:6762   */\n      0x11\n        /* \"#utility.yul\":6755:6756   */\n      0x04\n        /* \"#utility.yul\":6748:6763   */\n      mstore\n        /* \"#utility.yul\":6782:6786   */\n      0x24\n        /* \"#utility.yul\":6779:6780   */\n      0x00\n        /* \"#utility.yul\":6772:6787   */\n      revert\n        /* \"#utility.yul\":6799:6970   */\n    tag_56:\n        /* \"#utility.yul\":6838:6841   */\n      0x00\n        /* \"#utility.yul\":6861:6885   */\n      tag_179\n        /* \"#utility.yul\":6879:6884   */\n      dup3\n        /* \"#utility.yul\":6861:6885   */\n      tag_72\n      jump\t// in\n    tag_179:\n        /* \"#utility.yul\":6852:6885   */\n      swap2\n      pop\n        /* \"#utility.yul\":6907:6911   */\n      0x00\n        /* \"#utility.yul\":6900:6905   */\n      dup3\n        /* \"#utility.yul\":6897:6912   */\n      sub\n        /* \"#utility.yul\":6894:6935   */\n      tag_180\n      jumpi\n        /* \"#utility.yul\":6915:6933   */\n      tag_181\n      tag_95\n      jump\t// in\n    tag_181:\n        /* \"#utility.yul\":6894:6935   */\n    tag_180:\n        /* \"#utility.yul\":6962:6963   */\n      0x01\n        /* \"#utility.yul\":6955:6960   */\n      dup3\n        /* \"#utility.yul\":6951:6964   */\n      sub\n        /* \"#utility.yul\":6944:6964   */\n      swap1\n      pop\n        /* \"#utility.yul\":6799:6970   */\n      swap2\n      swap1\n      pop\n      jump\t// out\n        /* \"#utility.yul\":6976:7175   */\n    tag_59:\n        /* \"#utility.yul\":7015:7018   */\n      0x00\n        /* \"#utility.yul\":7034:7053   */\n      tag_183\n        /* \"#utility.yul\":7051:7052   */\n      dup3\n        /* \"#utility.yul\":7034:7053   */\n      tag_82\n      jump\t// in\n    tag_183:\n        /* \"#utility.yul\":7029:7053   */\n      swap2\n      pop\n        /* \"#utility.yul\":7067:7086   */\n      tag_184\n        /* \"#utility.yul\":7084:7085   */\n      dup4\n        /* \"#utility.yul\":7067:7086   */\n      tag_82\n      jump\t// in\n    tag_184:\n        /* \"#utility.yul\":7062:7086   */\n      swap3\n      pop\n        /* \"#utility.yul\":7109:7110   */\n      dup3\n        /* \"#utility.yul\":7106:7107   */\n      dup3\n        /* \"#utility.yul\":7102:7111   */\n      add\n        /* \"#utility.yul\":7095:7111   */\n      swap1\n      pop\n        /* \"#utility.yul\":7132:7144   */\n      0xffffffffff\n        /* \"#utility.yul\":7127:7130   */\n      dup2\n        /* \"#utility.yul\":7124:7145   */\n      gt\n        /* \"#utility.yul\":7121:7168   */\n      iszero\n      tag_185\n      jumpi\n        /* \"#utility.yul\":7148:7166   */\n      tag_186\n      tag_95\n      jump\t// in\n    tag_186:\n        /* \"#utility.yul\":7121:7168   */\n    tag_185:\n        /* \"#utility.yul\":6976:7175   */\n      swap3\n      swap2\n      pop\n      pop\n      jump\t// out\n        /* \"#utility.yul\":7181:7361   */\n    tag_63:\n        /* \"#utility.yul\":7229:7306   */\n      0x4e487b7100000000000000000000000000000000000000000000000000000000\n        /* \"#utility.yul\":7226:7227   */\n      0x00\n        /* \"#utility.yul\":7219:7307   */\n      mstore\n        /* \"#utility.yul\":7326:7330   */\n      0x21\n        /* \"#utility.yul\":7323:7324   */\n      0x04\n        /* \"#utility.yul\":7316:7331   */\n      mstore\n        /* \"#utility.yul\":7350:7354   */\n      0x24\n        /* \"#utility.yul\":7347:7348   */\n      0x00\n        /* \"#utility.yul\":7340:7355   */\n      revert\n        /* \"#utility.yul\":7367:7453   */\n    tag_96:\n        /* \"#utility.yul\":7402:7409   */\n      0x00\n        /* \"#utility.yul\":7442:7446   */\n      0xff\n        /* \"#utility.yul\":7435:7440   */\n      dup3\n        /* \"#utility.yul\":7431:7447   */\n      and\n        /* \"#utility.yul\":7420:7447   */\n      swap1\n      pop\n        /* \"#utility.yul\":7367:7453   */\n      swap2\n      swap1\n      pop\n      jump\t// out\n        /* \"#utility.yul\":7459:7730   */\n    tag_65:\n        /* \"#utility.yul\":7497:7504   */\n      0x00\n        /* \"#utility.yul\":7520:7538   */\n      tag_190\n        /* \"#utility.yul\":7536:7537   */\n      dup3\n        /* \"#utility.yul\":7520:7538   */\n      tag_96\n      jump\t// in\n    tag_190:\n        /* \"#utility.yul\":7515:7538   */\n      swap2\n      pop\n        /* \"#utility.yul\":7552:7570   */\n      tag_191\n        /* \"#utility.yul\":7568:7569   */\n      dup4\n        /* \"#utility.yul\":7552:7570   */\n      tag_96\n      jump\t// in\n    tag_191:\n        /* \"#utility.yul\":7547:7570   */\n      swap3\n      pop\n        /* \"#utility.yul\":7605:7606   */\n      dup3\n        /* \"#utility.yul\":7602:7603   */\n      dup3\n        /* \"#utility.yul\":7598:7607   */\n      mul\n        /* \"#utility.yul\":7627:7655   */\n      tag_192\n        /* \"#utility.yul\":7643:7654   */\n      dup2\n        /* \"#utility.yul\":7627:7655   */\n      tag_96\n      jump\t// in\n    tag_192:\n        /* \"#utility.yul\":7616:7655   */\n      swap2\n      pop\n        /* \"#utility.yul\":7687:7698   */\n      dup1\n        /* \"#utility.yul\":7678:7685   */\n      dup3\n        /* \"#utility.yul\":7675:7699   */\n      eq\n        /* \"#utility.yul\":7665:7723   */\n      tag_193\n      jumpi\n        /* \"#utility.yul\":7703:7721   */\n      tag_194\n      tag_95\n      jump\t// in\n    tag_194:\n        /* \"#utility.yul\":7665:7723   */\n    tag_193:\n        /* \"#utility.yul\":7505:7730   */\n      pop\n        /* \"#utility.yul\":7459:7730   */\n      swap3\n      swap2\n      pop\n      pop\n      jump\t// out\n        /* \"#utility.yul\":7736:7830   */\n    tag_97:\n        /* \"#utility.yul\":7769:7777   */\n      0x00\n        /* \"#utility.yul\":7817:7822   */\n      dup2\n        /* \"#utility.yul\":7813:7815   */\n      0x60\n        /* \"#utility.yul\":7809:7823   */\n      shl\n        /* \"#utility.yul\":7788:7823   */\n      swap1\n      pop\n        /* \"#utility.yul\":7736:7830   */\n      swap2\n      swap1\n      pop\n      jump\t// out\n        /* \"#utility.yul\":7836:7930   */\n    tag_98:\n        /* \"#utility.yul\":7875:7882   */\n      0x00\n        /* \"#utility.yul\":7904:7924   */\n      tag_197\n        /* \"#utility.yul\":7918:7923   */\n      dup3\n        /* \"#utility.yul\":7904:7924   */\n      tag_97\n      jump\t// in\n    tag_197:\n        /* \"#utility.yul\":7893:7924   */\n      swap1\n      pop\n        /* \"#utility.yul\":7836:7930   */\n      swap2\n      swap1\n      pop\n      jump\t// out\n        /* \"#utility.yul\":7936:8036   */\n    tag_99:\n        /* \"#utility.yul\":7975:7982   */\n      0x00\n        /* \"#utility.yul\":8004:8030   */\n      tag_199\n        /* \"#utility.yul\":8024:8029   */\n      dup3\n        /* \"#utility.yul\":8004:8030   */\n      tag_98\n      jump\t// in\n    tag_199:\n        /* \"#utility.yul\":7993:8030   */\n      swap1\n      pop\n        /* \"#utility.yul\":7936:8036   */\n      swap2\n      swap1\n      pop\n      jump\t// out\n        /* \"#utility.yul\":8042:8199   */\n    tag_100:\n        /* \"#utility.yul\":8147:8192   */\n      tag_201\n        /* \"#utility.yul\":8167:8191   */\n      tag_202\n        /* \"#utility.yul\":8185:8190   */\n      dup3\n        /* \"#utility.yul\":8167:8191   */\n      tag_87\n      jump\t// in\n    tag_202:\n        /* \"#utility.yul\":8147:8192   */\n      tag_99\n      jump\t// in\n    tag_201:\n        /* \"#utility.yul\":8142:8145   */\n      dup3\n        /* \"#utility.yul\":8135:8193   */\n      mstore\n        /* \"#utility.yul\":8042:8199   */\n      pop\n      pop\n      jump\t// out\n        /* \"#utility.yul\":8205:8602   */\n    tag_68:\n        /* \"#utility.yul\":8345:8348   */\n      0x00\n        /* \"#utility.yul\":8360:8435   */\n      tag_204\n        /* \"#utility.yul\":8431:8434   */\n      dup3\n        /* \"#utility.yul\":8422:8428   */\n      dup6\n        /* \"#utility.yul\":8360:8435   */\n      tag_100\n      jump\t// in\n    tag_204:\n        /* \"#utility.yul\":8460:8462   */\n      0x14\n        /* \"#utility.yul\":8455:8458   */\n      dup3\n        /* \"#utility.yul\":8451:8463   */\n      add\n        /* \"#utility.yul\":8444:8463   */\n      swap2\n      pop\n        /* \"#utility.yul\":8473:8548   */\n      tag_205\n        /* \"#utility.yul\":8544:8547   */\n      dup3\n        /* \"#utility.yul\":8535:8541   */\n      dup5\n        /* \"#utility.yul\":8473:8548   */\n      tag_100\n      jump\t// in\n    tag_205:\n        /* \"#utility.yul\":8573:8575   */\n      0x14\n        /* \"#utility.yul\":8568:8571   */\n      dup3\n        /* \"#utility.yul\":8564:8576   */\n      add\n        /* \"#utility.yul\":8557:8576   */\n      swap2\n      pop\n        /* \"#utility.yul\":8593:8596   */\n      dup2\n        /* \"#utility.yul\":8586:8596   */\n      swap1\n      pop\n        /* \"#utility.yul\":8205:8602   */\n      swap4\n      swap3\n      pop\n      pop\n      pop\n      jump\t// out\n\n    auxdata: 0xa26469706673582212204313eb01785cf5963443dcc8d530b3f44ca3471a37d7424f59f07eb1137801a964736f6c634300081a0033\n}\n",
				"bytecode": {
					"linkReferences": {},
					"object": "6080604052348015600e575f80fd5b5061078b8061001c5f395ff3fe608060405234801561000f575f80fd5b5060043610610091575f3560e01c80633197cbb6116100645780633197cbb614610131578063829950381461014f578063910f4cf31461016d578063a78ce23a14610177578063d88e3e3b146101a757610091565b806301f6b5a21461009557806316ada547146100c55780631b08d96f146100e35780632bb1ae7c14610101575b5f80fd5b6100af60048036038101906100aa9190610302565b6101d7565b6040516100bc9190610349565b60405180910390f35b6100cd6101e0565b6040516100da9190610371565b60405180910390f35b6100eb6101ef565b6040516100f89190610371565b60405180910390f35b61011b600480360381019061011691906103eb565b6101f4565b6040516101289190610371565b60405180910390f35b610139610206565b6040516101469190610455565b60405180910390f35b61015761021c565b6040516101649190610371565b60405180910390f35b610175610235565b005b610191600480360381019061018c9190610491565b610267565b60405161019e9190610371565b60405180910390f35b6101c160048036038101906101bc9190610516565b610296565b6040516101ce91906105c4565b60405180910390f35b5f819050919050565b5f8062278d0790508091505090565b5f5481565b5f60025f819055505f54905092915050565b60015f9054906101000a900464ffffffffff1681565b5f80600c90508061022c90610611565b90508091505090565b629e3400426102449190610638565b60015f6101000a81548164ffffffffff021916908364ffffffffff160217905550565b5f8082600381111561027c5761027b610670565b5b600161028891906106a9565b60ff16905080915050919050565b60605f83836040516020016102ac92919061072a565b60405160208183030381529060405290508091505092915050565b5f80fd5b5f80fd5b5f819050919050565b6102e1816102cf565b81146102eb575f80fd5b50565b5f813590506102fc816102d8565b92915050565b5f60208284031215610317576103166102c7565b5b5f610324848285016102ee565b91505092915050565b5f61ffff82169050919050565b6103438161032d565b82525050565b5f60208201905061035c5f83018461033a565b92915050565b61036b816102cf565b82525050565b5f6020820190506103845f830184610362565b92915050565b5f80fd5b5f80fd5b5f80fd5b5f8083601f8401126103ab576103aa61038a565b5b8235905067ffffffffffffffff8111156103c8576103c761038e565b5b6020830191508360018202830111156103e4576103e3610392565b5b9250929050565b5f8060208385031215610401576104006102c7565b5b5f83013567ffffffffffffffff81111561041e5761041d6102cb565b5b61042a85828601610396565b92509250509250929050565b5f64ffffffffff82169050919050565b61044f81610436565b82525050565b5f6020820190506104685f830184610446565b92915050565b6004811061047a575f80fd5b50565b5f8135905061048b8161046e565b92915050565b5f602082840312156104a6576104a56102c7565b5b5f6104b38482850161047d565b91505092915050565b5f73ffffffffffffffffffffffffffffffffffffffff82169050919050565b5f6104e5826104bc565b9050919050565b6104f5816104db565b81146104ff575f80fd5b50565b5f81359050610510816104ec565b92915050565b5f806040838503121561052c5761052b6102c7565b5b5f61053985828601610502565b925050602061054a85828601610502565b9150509250929050565b5f81519050919050565b5f82825260208201905092915050565b8281835e5f83830152505050565b5f601f19601f8301169050919050565b5f61059682610554565b6105a0818561055e565b93506105b081856020860161056e565b6105b98161057c565b840191505092915050565b5f6020820190508181035f8301526105dc818461058c565b905092915050565b7f4e487b71000000000000000000000000000000000000000000000000000000005f52601160045260245ffd5b5f61061b826102cf565b91505f820361062d5761062c6105e4565b5b600182039050919050565b5f61064282610436565b915061064d83610436565b9250828201905064ffffffffff81111561066a576106696105e4565b5b92915050565b7f4e487b71000000000000000000000000000000000000000000000000000000005f52602160045260245ffd5b5f60ff82169050919050565b5f6106b38261069d565b91506106be8361069d565b92508282026106cc8161069d565b91508082146106de576106dd6105e4565b5b5092915050565b5f8160601b9050919050565b5f6106fb826106e5565b9050919050565b5f61070c826106f1565b9050919050565b61072461071f826104db565b610702565b82525050565b5f6107358285610713565b6014820191506107458284610713565b601482019150819050939250505056fea26469706673582212204313eb01785cf5963443dcc8d530b3f44ca3471a37d7424f59f07eb1137801a964736f6c634300081a0033",
					"opcodes": "PUSH1 0x80 PUSH1 0x40 MSTORE CALLVALUE DUP1 ISZERO PUSH1 0xE JUMPI PUSH0 DUP1 REVERT JUMPDEST POP PUSH2 0x78B DUP1 PUSH2 0x1C PUSH0 CODECOPY PUSH0 RETURN INVALID PUSH1 0x80 PUSH1 0x40 MSTORE CALLVALUE DUP1 ISZERO PUSH2 0xF JUMPI PUSH0 DUP1 REVERT JUMPDEST POP PUSH1 0x4 CALLDATASIZE LT PUSH2 0x91 JUMPI PUSH0 CALLDATALOAD PUSH1 0xE0 SHR DUP1 PUSH4 0x3197CBB6 GT PUSH2 0x64 JUMPI DUP1 PUSH4 0x3197CBB6 EQ PUSH2 0x131 JUMPI DUP1 PUSH4 0x82995038 EQ PUSH2 0x14F JUMPI DUP1 PUSH4 0x910F4CF3 EQ PUSH2 0x16D JUMPI DUP1 PUSH4 0xA78CE23A EQ PUSH2 0x177 JUMPI DUP1 PUSH4 0xD88E3E3B EQ PUSH2 0x1A7 JUMPI PUSH2 0x91 JUMP JUMPDEST DUP1 PUSH4 0x1F6B5A2 EQ PUSH2 0x95 JUMPI DUP1 PUSH4 0x16ADA547 EQ PUSH2 0xC5 JUMPI DUP1 PUSH4 0x1B08D96F EQ PUSH2 0xE3 JUMPI DUP1 PUSH4 0x2BB1AE7C EQ PUSH2 0x101 JUMPI JUMPDEST PUSH0 DUP1 REVERT JUMPDEST PUSH2 0xAF PUSH1 0x4 DUP1 CALLDATASIZE SUB DUP2 ADD SWAP1 PUSH2 0xAA SWAP2 SWAP1 PUSH2 0x302 JUMP JUMPDEST PUSH2 0x1D7 JUMP JUMPDEST PUSH1 0x40 MLOAD PUSH2 0xBC SWAP2 SWAP1 PUSH2 0x349 JUMP JUMPDEST PUSH1 0x40 MLOAD DUP1 SWAP2 SUB SWAP1 RETURN JUMPDEST PUSH2 0xCD PUSH2 0x1E0 JUMP JUMPDEST PUSH1 0x40 MLOAD PUSH2 0xDA SWAP2 SWAP1 PUSH2 0x371 JUMP JUMPDEST PUSH1 0x40 MLOAD DUP1 SWAP2 SUB SWAP1 RETURN JUMPDEST PUSH2 0xEB PUSH2 0x1EF JUMP JUMPDEST PUSH1 0x40 MLOAD PUSH2 0xF8 SWAP2 SWAP1 PUSH2 0x371 JUMP JUMPDEST PUSH1 0x40 MLOAD DUP1 SWAP2 SUB SWAP1 RETURN JUMPDEST PUSH2 0x11B PUSH1 0x4 DUP1 CALLDATASIZE SUB DUP2 ADD SWAP1 PUSH2 0x116 SWAP2 SWAP1 PUSH2 0x3EB JUMP JUMPDEST PUSH2 0x1F4 JUMP JUMPDEST PUSH1 0x40 MLOAD PUSH2 0x128 SWAP2 SWAP1 PUSH2 0x371 JUMP JUMPDEST PUSH1 0x40 MLOAD DUP1 SWAP2 SUB SWAP1 RETURN JUMPDEST PUSH2 0x139 PUSH2 0x206 JUMP JUMPDEST PUSH1 0x40 MLOAD PUSH2 0x146 SWAP2 SWAP1 PUSH2 0x455 JUMP JUMPDEST PUSH1 0x40 MLOAD DUP1 SWAP2 SUB SWAP1 RETURN JUMPDEST PUSH2 0x157 PUSH2 0x21C JUMP JUMPDEST PUSH1 0x40 MLOAD PUSH2 0x164 SWAP2 SWAP1 PUSH2 0x371 JUMP JUMPDEST PUSH1 0x40 MLOAD DUP1 SWAP2 SUB SWAP1 RETURN JUMPDEST PUSH2 0x175 PUSH2 0x235 JUMP JUMPDEST STOP JUMPDEST PUSH2 0x191 PUSH1 0x4 DUP1 CALLDATASIZE SUB DUP2 ADD SWAP1 PUSH2 0x18C SWAP2 SWAP1 PUSH2 0x491 JUMP JUMPDEST PUSH2 0x267 JUMP JUMPDEST PUSH1 0x40 MLOAD PUSH2 0x19E SWAP2 SWAP1 PUSH2 0x371 JUMP JUMPDEST PUSH1 0x40 MLOAD DUP1 SWAP2 SUB SWAP1 RETURN JUMPDEST PUSH2 0x1C1 PUSH1 0x4 DUP1 CALLDATASIZE SUB DUP2 ADD SWAP1 PUSH2 0x1BC SWAP2 SWAP1 PUSH2 0x516 JUMP JUMPDEST PUSH2 0x296 JUMP JUMPDEST PUSH1 0x40 MLOAD PUSH2 0x1CE SWAP2 SWAP1 PUSH2 0x5C4 JUMP JUMPDEST PUSH1 0x40 MLOAD DUP1 SWAP2 SUB SWAP1 RETURN JUMPDEST PUSH0 DUP2 SWAP1 POP SWAP2 SWAP1 POP JUMP JUMPDEST PUSH0 DUP1 PUSH3 0x278D07 SWAP1 POP DUP1 SWAP2 POP POP SWAP1 JUMP JUMPDEST PUSH0 SLOAD DUP2 JUMP JUMPDEST PUSH0 PUSH1 0x2 PUSH0 DUP2 SWAP1 SSTORE POP PUSH0 SLOAD SWAP1 POP SWAP3 SWAP2 POP POP JUMP JUMPDEST PUSH1 0x1 PUSH0 SWAP1 SLOAD SWAP1 PUSH2 0x100 EXP SWAP1 DIV PUSH5 0xFFFFFFFFFF AND DUP2 JUMP JUMPDEST PUSH0 DUP1 PUSH1 0xC SWAP1 POP DUP1 PUSH2 0x22C SWAP1 PUSH2 0x611 JUMP JUMPDEST SWAP1 POP DUP1 SWAP2 POP POP SWAP1 JUMP JUMPDEST PUSH3 0x9E3400 TIMESTAMP PUSH2 0x244 SWAP2 SWAP1 PUSH2 0x638 JUMP JUMPDEST PUSH1 0x1 PUSH0 PUSH2 0x100 EXP DUP2 SLOAD DUP2 PUSH5 0xFFFFFFFFFF MUL NOT AND SWAP1 DUP4 PUSH5 0xFFFFFFFFFF AND MUL OR SWAP1 SSTORE POP JUMP JUMPDEST PUSH0 DUP1 DUP3 PUSH1 0x3 DUP2 GT ISZERO PUSH2 0x27C JUMPI PUSH2 0x27B PUSH2 0x670 JUMP JUMPDEST JUMPDEST PUSH1 0x1 PUSH2 0x288 SWAP2 SWAP1 PUSH2 0x6A9 JUMP JUMPDEST PUSH1 0xFF AND SWAP1 POP DUP1 SWAP2 POP POP SWAP2 SWAP1 POP JUMP JUMPDEST PUSH1 0x60 PUSH0 DUP4 DUP4 PUSH1 0x40 MLOAD PUSH1 0x20 ADD PUSH2 0x2AC SWAP3 SWAP2 SWAP1 PUSH2 0x72A JUMP JUMPDEST PUSH1 0x40 MLOAD PUSH1 0x20 DUP2 DUP4 SUB SUB DUP2 MSTORE SWAP1 PUSH1 0x40 MSTORE SWAP1 POP DUP1 SWAP2 POP POP SWAP3 SWAP2 POP POP JUMP JUMPDEST PUSH0 DUP1 REVERT JUMPDEST PUSH0 DUP1 REVERT JUMPDEST PUSH0 DUP2 SWAP1 POP SWAP2 SWAP1 POP JUMP JUMPDEST PUSH2 0x2E1 DUP2 PUSH2 0x2CF JUMP JUMPDEST DUP2 EQ PUSH2 0x2EB JUMPI PUSH0 DUP1 REVERT JUMPDEST POP JUMP JUMPDEST PUSH0 DUP2 CALLDATALOAD SWAP1 POP PUSH2 0x2FC DUP2 PUSH2 0x2D8 JUMP JUMPDEST SWAP3 SWAP2 POP POP JUMP JUMPDEST PUSH0 PUSH1 0x20 DUP3 DUP5 SUB SLT ISZERO PUSH2 0x317 JUMPI PUSH2 0x316 PUSH2 0x2C7 JUMP JUMPDEST JUMPDEST PUSH0 PUSH2 0x324 DUP5 DUP3 DUP6 ADD PUSH2 0x2EE JUMP JUMPDEST SWAP2 POP POP SWAP3 SWAP2 POP POP JUMP JUMPDEST PUSH0 PUSH2 0xFFFF DUP3 AND SWAP1 POP SWAP2 SWAP1 POP JUMP JUMPDEST PUSH2 0x343 DUP2 PUSH2 0x32D JUMP JUMPDEST DUP3 MSTORE POP POP JUMP JUMPDEST PUSH0 PUSH1 0x20 DUP3 ADD SWAP1 POP PUSH2 0x35C PUSH0 DUP4 ADD DUP5 PUSH2 0x33A JUMP JUMPDEST SWAP3 SWAP2 POP POP JUMP JUMPDEST PUSH2 0x36B DUP2 PUSH2 0x2CF JUMP JUMPDEST DUP3 MSTORE POP POP JUMP JUMPDEST PUSH0 PUSH1 0x20 DUP3 ADD SWAP1 POP PUSH2 0x384 PUSH0 DUP4 ADD DUP5 PUSH2 0x362 JUMP JUMPDEST SWAP3 SWAP2 POP POP JUMP JUMPDEST PUSH0 DUP1 REVERT JUMPDEST PUSH0 DUP1 REVERT JUMPDEST PUSH0 DUP1 REVERT JUMPDEST PUSH0 DUP1 DUP4 PUSH1 0x1F DUP5 ADD SLT PUSH2 0x3AB JUMPI PUSH2 0x3AA PUSH2 0x38A JUMP JUMPDEST JUMPDEST DUP3 CALLDATALOAD SWAP1 POP PUSH8 0xFFFFFFFFFFFFFFFF DUP2 GT ISZERO PUSH2 0x3C8 JUMPI PUSH2 0x3C7 PUSH2 0x38E JUMP JUMPDEST JUMPDEST PUSH1 0x20 DUP4 ADD SWAP2 POP DUP4 PUSH1 0x1 DUP3 MUL DUP4 ADD GT ISZERO PUSH2 0x3E4 JUMPI PUSH2 0x3E3 PUSH2 0x392 JUMP JUMPDEST JUMPDEST SWAP3 POP SWAP3 SWAP1 POP JUMP JUMPDEST PUSH0 DUP1 PUSH1 0x20 DUP4 DUP6 SUB SLT ISZERO PUSH2 0x401 JUMPI PUSH2 0x400 PUSH2 0x2C7 JUMP JUMPDEST JUMPDEST PUSH0 DUP4 ADD CALLDATALOAD PUSH8 0xFFFFFFFFFFFFFFFF DUP2 GT ISZERO PUSH2 0x41E JUMPI PUSH2 0x41D PUSH2 0x2CB JUMP JUMPDEST JUMPDEST PUSH2 0x42A DUP6 DUP3 DUP7 ADD PUSH2 0x396 JUMP JUMPDEST SWAP3 POP SWAP3 POP POP SWAP3 POP SWAP3 SWAP1 POP JUMP JUMPDEST PUSH0 PUSH5 0xFFFFFFFFFF DUP3 AND SWAP1 POP SWAP2 SWAP1 POP JUMP JUMPDEST PUSH2 0x44F DUP2 PUSH2 0x436 JUMP JUMPDEST DUP3 MSTORE POP POP JUMP JUMPDEST PUSH0 PUSH1 0x20 DUP3 ADD SWAP1 POP PUSH2 0x468 PUSH0 DUP4 ADD DUP5 PUSH2 0x446 JUMP JUMPDEST SWAP3 SWAP2 POP POP JUMP JUMPDEST PUSH1 0x4 DUP2 LT PUSH2 0x47A JUMPI PUSH0 DUP1 REVERT JUMPDEST POP JUMP JUMPDEST PUSH0 DUP2 CALLDATALOAD SWAP1 POP PUSH2 0x48B DUP2 PUSH2 0x46E JUMP JUMPDEST SWAP3 SWAP2 POP POP JUMP JUMPDEST PUSH0 PUSH1 0x20 DUP3 DUP5 SUB SLT ISZERO PUSH2 0x4A6 JUMPI PUSH2 0x4A5 PUSH2 0x2C7 JUMP JUMPDEST JUMPDEST PUSH0 PUSH2 0x4B3 DUP5 DUP3 DUP6 ADD PUSH2 0x47D JUMP JUMPDEST SWAP2 POP POP SWAP3 SWAP2 POP POP JUMP JUMPDEST PUSH0 PUSH20 0xFFFFFFFFFFFFFFFFFFFFFFFFFFFFFFFFFFFFFFFF DUP3 AND SWAP1 POP SWAP2 SWAP1 POP JUMP JUMPDEST PUSH0 PUSH2 0x4E5 DUP3 PUSH2 0x4BC JUMP JUMPDEST SWAP1 POP SWAP2 SWAP1 POP JUMP JUMPDEST PUSH2 0x4F5 DUP2 PUSH2 0x4DB JUMP JUMPDEST DUP2 EQ PUSH2 0x4FF JUMPI PUSH0 DUP1 REVERT JUMPDEST POP JUMP JUMPDEST PUSH0 DUP2 CALLDATALOAD SWAP1 POP PUSH2 0x510 DUP2 PUSH2 0x4EC JUMP JUMPDEST SWAP3 SWAP2 POP POP JUMP JUMPDEST PUSH0 DUP1 PUSH1 0x40 DUP4 DUP6 SUB SLT ISZERO PUSH2 0x52C JUMPI PUSH2 0x52B PUSH2 0x2C7 JUMP JUMPDEST JUMPDEST PUSH0 PUSH2 0x539 DUP6 DUP3 DUP7 ADD PUSH2 0x502 JUMP JUMPDEST SWAP3 POP POP PUSH1 0x20 PUSH2 0x54A DUP6 DUP3 DUP7 ADD PUSH2 0x502 JUMP JUMPDEST SWAP2 POP POP SWAP3 POP SWAP3 SWAP1 POP JUMP JUMPDEST PUSH0 DUP2 MLOAD SWAP1 POP SWAP2 SWAP1 POP JUMP JUMPDEST PUSH0 DUP3 DUP3 MSTORE PUSH1 0x20 DUP3 ADD SWAP1 POP SWAP3 SWAP2 POP POP JUMP JUMPDEST DUP3 DUP2 DUP4 MCOPY PUSH0 DUP4 DUP4 ADD MSTORE POP POP POP JUMP JUMPDEST PUSH0 PUSH1 0x1F NOT PUSH1 0x1F DUP4 ADD AND SWAP1 POP SWAP2 SWAP1 POP JUMP JUMPDEST PUSH0 PUSH2 0x596 DUP3 PUSH2 0x554 JUMP JUMPDEST PUSH2 0x5A0 DUP2 DUP6 PUSH2 0x55E JUMP JUMPDEST SWAP4 POP PUSH2 0x5B0 DUP2 DUP6 PUSH1 0x20 DUP7 ADD PUSH2 0x56E JUMP JUMPDEST PUSH2 0x5B9 DUP2 PUSH2 0x57C JUMP JUMPDEST DUP5 ADD SWAP2 POP POP SWAP3 SWAP2 POP POP JUMP JUMPDEST PUSH0 PUSH1 0x20 DUP3 ADD SWAP1 POP DUP2 DUP2 SUB PUSH0 DUP4 ADD MSTORE PUSH2 0x5DC DUP2 DUP5 PUSH2 0x58C JUMP JUMPDEST SWAP1 POP SWAP3 SWAP2 POP POP JUMP JUMPDEST PUSH32 0x4E487B7100000000000000000000000000000000000000000000000000000000 PUSH0 MSTORE PUSH1 0x11 PUSH1 0x4 MSTORE PUSH1 0x24 PUSH0 REVERT JUMPDEST PUSH0 PUSH2 0x61B DUP3 PUSH2 0x2CF JUMP JUMPDEST SWAP2 POP PUSH0 DUP3 SUB PUSH2 0x62D JUMPI PUSH2 0x62C PUSH2 0x5E4 JUMP JUMPDEST JUMPDEST PUSH1 0x1 DUP3 SUB SWAP1 POP SWAP2 SWAP1 POP JUMP JUMPDEST PUSH0 PUSH2 0x642 DUP3 PUSH2 0x436 JUMP JUMPDEST SWAP2 POP PUSH2 0x64D DUP4 PUSH2 0x436 JUMP JUMPDEST SWAP3 POP DUP3 DUP3 ADD SWAP1 POP PUSH5 0xFFFFFFFFFF DUP2 GT ISZERO PUSH2 0x66A JUMPI PUSH2 0x669 PUSH2 0x5E4 JUMP JUMPDEST JUMPDEST SWAP3 SWAP2 POP POP JUMP JUMPDEST PUSH32 0x4E487B7100000000000000000000000000000000000000000000000000000000 PUSH0 MSTORE PUSH1 0x21 PUSH1 0x4 MSTORE PUSH1 0x24 PUSH0 REVERT JUMPDEST PUSH0 PUSH1 0xFF DUP3 AND SWAP1 POP SWAP2 SWAP1 POP JUMP JUMPDEST PUSH0 PUSH2 0x6B3 DUP3 PUSH2 0x69D JUMP JUMPDEST SWAP2 POP PUSH2 0x6BE DUP4 PUSH2 0x69D JUMP JUMPDEST SWAP3 POP DUP3 DUP3 MUL PUSH2 0x6CC DUP2 PUSH2 0x69D JUMP JUMPDEST SWAP2 POP DUP1 DUP3 EQ PUSH2 0x6DE JUMPI PUSH2 0x6DD PUSH2 0x5E4 JUMP JUMPDEST JUMPDEST POP SWAP3 SWAP2 POP POP JUMP JUMPDEST PUSH0 DUP2 PUSH1 0x60 SHL SWAP1 POP SWAP2 SWAP1 POP JUMP JUMPDEST PUSH0 PUSH2 0x6FB DUP3 PUSH2 0x6E5 JUMP JUMPDEST SWAP1 POP SWAP2 SWAP1 POP JUMP JUMPDEST PUSH0 PUSH2 0x70C DUP3 PUSH2 0x6F1 JUMP JUMPDEST SWAP1 POP SWAP2 SWAP1 POP JUMP JUMPDEST PUSH2 0x724 PUSH2 0x71F DUP3 PUSH2 0x4DB JUMP JUMPDEST PUSH2 0x702 JUMP JUMPDEST DUP3 MSTORE POP POP JUMP JUMPDEST PUSH0 PUSH2 0x735 DUP3 DUP6 PUSH2 0x713 JUMP JUMPDEST PUSH1 0x14 DUP3 ADD SWAP2 POP PUSH2 0x745 DUP3 DUP5 PUSH2 0x713 JUMP JUMPDEST PUSH1 0x14 DUP3 ADD SWAP2 POP DUP2 SWAP1 POP SWAP4 SWAP3 POP POP POP JUMP INVALID LOG2 PUSH5 0x6970667358 0x22 SLT KECCAK256 NUMBER SGT 0xEB ADD PUSH25 0x5CF5963443DCC8D530B3F44CA3471A37D7424F59F07EB11378 ADD 0xA9 PUSH5 0x736F6C6343 STOP ADDMOD BYTE STOP CALLER "
				},
				"gasEstimates": {
					"creation": {
						"codeDepositCost": "386200",
						"executionCost": "422",
						"totalCost": "386622"
					},
					"external": {
						"endTime()": "2466",
						"getChainId(uint256)": "600",
						"getPath(address,address)": "infinite",
						"ret()": "2469",
						"send(bytes)": "24941",
						"test3(uint8)": "infinite",
						"testEndTime()": "infinite",
						"testincrement()": "infinite",
						"time()": "368"
					}
				},
				"methodIdentifiers": {
					"endTime()": "3197cbb6",
					"getChainId(uint256)": "01f6b5a2",
					"getPath(address,address)": "d88e3e3b",
					"ret()": "1b08d96f",
					"send(bytes)": "2bb1ae7c",
					"test3(uint8)": "a78ce23a",
					"testEndTime()": "910f4cf3",
					"testincrement()": "82995038",
					"time()": "16ada547"
				}
			},
			"storageLayout": {
				"storage": [
					{
						"astId": 3,
						"contract": "testLZ.sol:LZTest",
						"label": "ret",
						"offset": 0,
						"slot": "0",
						"type": "t_uint256"
					},
					{
						"astId": 5,
						"contract": "testLZ.sol:LZTest",
						"label": "endTime",
						"offset": 0,
						"slot": "1",
						"type": "t_uint40"
					}
				],
				"types": {
					"t_uint256": {
						"encoding": "inplace",
						"label": "uint256",
						"numberOfBytes": "32"
					},
					"t_uint40": {
						"encoding": "inplace",
						"label": "uint40",
						"numberOfBytes": "5"
					}
				}
			},
			"userdoc": {
				"kind": "user",
				"methods": {},
				"version": 1
			}
		}
	}
}