{
	"testLZ.sol": {
		"creditLower": {
			"abi": [
				{
					"inputs": [
						{
							"internalType": "uint256",
							"name": "_amountLD",
							"type": "uint256"
						},
						{
							"internalType": "uint32",
							"name": "",
							"type": "uint32"
						}
					],
					"name": "_credit",
					"outputs": [
						{
							"internalType": "uint256",
							"name": "amountReceivedLD",
							"type": "uint256"
						}
					],
					"stateMutability": "nonpayable",
					"type": "function"
				}
			],
			"devdoc": {
				"kind": "dev",
				"methods": {},
				"version": 1
			},
			"evm": {
				"assembly": "    /* \"testLZ.sol\":1350:1664  contract creditLower {... */\n  mstore(0x40, 0x80)\n  callvalue\n  dup1\n  iszero\n  tag_1\n  jumpi\n  0x00\n  dup1\n  revert\ntag_1:\n  pop\n  dataSize(sub_0)\n  dup1\n  dataOffset(sub_0)\n  0x00\n  codecopy\n  0x00\n  return\nstop\n\nsub_0: assembly {\n        /* \"testLZ.sol\":1350:1664  contract creditLower {... */\n      mstore(0x40, 0x80)\n      callvalue\n      dup1\n      iszero\n      tag_1\n      jumpi\n      0x00\n      dup1\n      revert\n    tag_1:\n      pop\n      jumpi(tag_2, lt(calldatasize, 0x04))\n      shr(0xe0, calldataload(0x00))\n      dup1\n      0x1a2d47ad\n      eq\n      tag_3\n      jumpi\n    tag_2:\n      0x00\n      dup1\n      revert\n        /* \"testLZ.sol\":1380:1661  function _credit(uint256 _amountLD, uint32 /*_srcEid*/) public virtual returns (uint256 amountReceivedLD) {... */\n    tag_3:\n      tag_4\n      0x04\n      dup1\n      calldatasize\n      sub\n      dup2\n      add\n      swap1\n      tag_5\n      swap2\n      swap1\n      tag_6\n      jump\t// in\n    tag_5:\n      tag_7\n      jump\t// in\n    tag_4:\n      mload(0x40)\n      tag_8\n      swap2\n      swap1\n      tag_9\n      jump\t// in\n    tag_8:\n      mload(0x40)\n      dup1\n      swap2\n      sub\n      swap1\n      return\n    tag_7:\n        /* \"testLZ.sol\":1460:1484  uint256 amountReceivedLD */\n      0x00\n        /* \"testLZ.sol\":1644:1653  _amountLD */\n      dup3\n        /* \"testLZ.sol\":1637:1653  return _amountLD */\n      swap1\n      pop\n        /* \"testLZ.sol\":1380:1661  function _credit(uint256 _amountLD, uint32 /*_srcEid*/) public virtual returns (uint256 amountReceivedLD) {... */\n      swap3\n      swap2\n      pop\n      pop\n      jump\t// out\n        /* \"#utility.yul\":88:205   */\n    tag_12:\n        /* \"#utility.yul\":197:198   */\n      0x00\n        /* \"#utility.yul\":194:195   */\n      dup1\n        /* \"#utility.yul\":187:199   */\n      revert\n        /* \"#utility.yul\":334:411   */\n    tag_14:\n        /* \"#utility.yul\":371:378   */\n      0x00\n        /* \"#utility.yul\":400:405   */\n      dup2\n        /* \"#utility.yul\":389:405   */\n      swap1\n      pop\n        /* \"#utility.yul\":334:411   */\n      swap2\n      swap1\n      pop\n      jump\t// out\n        /* \"#utility.yul\":417:539   */\n    tag_15:\n        /* \"#utility.yul\":490:514   */\n      tag_27\n        /* \"#utility.yul\":508:513   */\n      dup2\n        /* \"#utility.yul\":490:514   */\n      tag_14\n      jump\t// in\n    tag_27:\n        /* \"#utility.yul\":483:488   */\n      dup2\n        /* \"#utility.yul\":480:515   */\n      eq\n        /* \"#utility.yul\":470:533   */\n      tag_28\n      jumpi\n        /* \"#utility.yul\":529:530   */\n      0x00\n        /* \"#utility.yul\":526:527   */\n      dup1\n        /* \"#utility.yul\":519:531   */\n      revert\n        /* \"#utility.yul\":470:533   */\n    tag_28:\n        /* \"#utility.yul\":417:539   */\n      pop\n      jump\t// out\n        /* \"#utility.yul\":545:684   */\n    tag_16:\n        /* \"#utility.yul\":591:596   */\n      0x00\n        /* \"#utility.yul\":629:635   */\n      dup2\n        /* \"#utility.yul\":616:636   */\n      calldataload\n        /* \"#utility.yul\":607:636   */\n      swap1\n      pop\n        /* \"#utility.yul\":645:678   */\n      tag_30\n        /* \"#utility.yul\":672:677   */\n      dup2\n        /* \"#utility.yul\":645:678   */\n      tag_15\n      jump\t// in\n    tag_30:\n        /* \"#utility.yul\":545:684   */\n      swap3\n      swap2\n      pop\n      pop\n      jump\t// out\n        /* \"#utility.yul\":690:783   */\n    tag_17:\n        /* \"#utility.yul\":726:733   */\n      0x00\n        /* \"#utility.yul\":766:776   */\n      0xffffffff\n        /* \"#utility.yul\":759:764   */\n      dup3\n        /* \"#utility.yul\":755:777   */\n      and\n        /* \"#utility.yul\":744:777   */\n      swap1\n      pop\n        /* \"#utility.yul\":690:783   */\n      swap2\n      swap1\n      pop\n      jump\t// out\n        /* \"#utility.yul\":789:909   */\n    tag_18:\n        /* \"#utility.yul\":861:884   */\n      tag_33\n        /* \"#utility.yul\":878:883   */\n      dup2\n        /* \"#utility.yul\":861:884   */\n      tag_17\n      jump\t// in\n    tag_33:\n        /* \"#utility.yul\":854:859   */\n      dup2\n        /* \"#utility.yul\":851:885   */\n      eq\n        /* \"#utility.yul\":841:903   */\n      tag_34\n      jumpi\n        /* \"#utility.yul\":899:900   */\n      0x00\n        /* \"#utility.yul\":896:897   */\n      dup1\n        /* \"#utility.yul\":889:901   */\n      revert\n        /* \"#utility.yul\":841:903   */\n    tag_34:\n        /* \"#utility.yul\":789:909   */\n      pop\n      jump\t// out\n        /* \"#utility.yul\":915:1052   */\n    tag_19:\n        /* \"#utility.yul\":960:965   */\n      0x00\n        /* \"#utility.yul\":998:1004   */\n      dup2\n        /* \"#utility.yul\":985:1005   */\n      calldataload\n        /* \"#utility.yul\":976:1005   */\n      swap1\n      pop\n        /* \"#utility.yul\":1014:1046   */\n      tag_36\n        /* \"#utility.yul\":1040:1045   */\n      dup2\n        /* \"#utility.yul\":1014:1046   */\n      tag_18\n      jump\t// in\n    tag_36:\n        /* \"#utility.yul\":915:1052   */\n      swap3\n      swap2\n      pop\n      pop\n      jump\t// out\n        /* \"#utility.yul\":1058:1530   */\n    tag_6:\n        /* \"#utility.yul\":1125:1131   */\n      0x00\n        /* \"#utility.yul\":1133:1139   */\n      dup1\n        /* \"#utility.yul\":1182:1184   */\n      0x40\n        /* \"#utility.yul\":1170:1179   */\n      dup4\n        /* \"#utility.yul\":1161:1168   */\n      dup6\n        /* \"#utility.yul\":1157:1180   */\n      sub\n        /* \"#utility.yul\":1153:1185   */\n      slt\n        /* \"#utility.yul\":1150:1269   */\n      iszero\n      tag_38\n      jumpi\n        /* \"#utility.yul\":1188:1267   */\n      tag_39\n      tag_12\n      jump\t// in\n    tag_39:\n        /* \"#utility.yul\":1150:1269   */\n    tag_38:\n        /* \"#utility.yul\":1308:1309   */\n      0x00\n        /* \"#utility.yul\":1333:1386   */\n      tag_40\n        /* \"#utility.yul\":1378:1385   */\n      dup6\n        /* \"#utility.yul\":1369:1375   */\n      dup3\n        /* \"#utility.yul\":1358:1367   */\n      dup7\n        /* \"#utility.yul\":1354:1376   */\n      add\n        /* \"#utility.yul\":1333:1386   */\n      tag_16\n      jump\t// in\n    tag_40:\n        /* \"#utility.yul\":1323:1386   */\n      swap3\n      pop\n        /* \"#utility.yul\":1279:1396   */\n      pop\n        /* \"#utility.yul\":1435:1437   */\n      0x20\n        /* \"#utility.yul\":1461:1513   */\n      tag_41\n        /* \"#utility.yul\":1505:1512   */\n      dup6\n        /* \"#utility.yul\":1496:1502   */\n      dup3\n        /* \"#utility.yul\":1485:1494   */\n      dup7\n        /* \"#utility.yul\":1481:1503   */\n      add\n        /* \"#utility.yul\":1461:1513   */\n      tag_19\n      jump\t// in\n    tag_41:\n        /* \"#utility.yul\":1451:1513   */\n      swap2\n      pop\n        /* \"#utility.yul\":1406:1523   */\n      pop\n        /* \"#utility.yul\":1058:1530   */\n      swap3\n      pop\n      swap3\n      swap1\n      pop\n      jump\t// out\n        /* \"#utility.yul\":1536:1654   */\n    tag_20:\n        /* \"#utility.yul\":1623:1647   */\n      tag_43\n        /* \"#utility.yul\":1641:1646   */\n      dup2\n        /* \"#utility.yul\":1623:1647   */\n      tag_14\n      jump\t// in\n    tag_43:\n        /* \"#utility.yul\":1618:1621   */\n      dup3\n        /* \"#utility.yul\":1611:1648   */\n      mstore\n        /* \"#utility.yul\":1536:1654   */\n      pop\n      pop\n      jump\t// out\n        /* \"#utility.yul\":1660:1882   */\n    tag_9:\n        /* \"#utility.yul\":1753:1757   */\n      0x00\n        /* \"#utility.yul\":1791:1793   */\n      0x20\n        /* \"#utility.yul\":1780:1789   */\n      dup3\n        /* \"#utility.yul\":1776:1794   */\n      add\n        /* \"#utility.yul\":1768:1794   */\n      swap1\n      pop\n        /* \"#utility.yul\":1804:1875   */\n      tag_45\n        /* \"#utility.yul\":1872:1873   */\n      0x00\n        /* \"#utility.yul\":1861:1870   */\n      dup4\n        /* \"#utility.yul\":1857:1874   */\n      add\n        /* \"#utility.yul\":1848:1854   */\n      dup5\n        /* \"#utility.yul\":1804:1875   */\n      tag_20\n      jump\t// in\n    tag_45:\n        /* \"#utility.yul\":1660:1882   */\n      swap3\n      swap2\n      pop\n      pop\n      jump\t// out\n\n    auxdata: 0xa26469706673582212207af4b748c4d32c6da1a6d813baebf68f3980ec1c847bfb46ecc421c00c2168ca64736f6c634300081a0033\n}\n",
				"bytecode": {
					"linkReferences": {},
					"object": "6080604052348015600e575f80fd5b506101738061001c5f395ff3fe608060405234801561000f575f80fd5b5060043610610029575f3560e01c80631a2d47ad1461002d575b5f80fd5b610047600480360381019061004291906100d7565b61005d565b6040516100549190610124565b60405180910390f35b5f82905092915050565b5f80fd5b5f819050919050565b61007d8161006b565b8114610087575f80fd5b50565b5f8135905061009881610074565b92915050565b5f63ffffffff82169050919050565b6100b68161009e565b81146100c0575f80fd5b50565b5f813590506100d1816100ad565b92915050565b5f80604083850312156100ed576100ec610067565b5b5f6100fa8582860161008a565b925050602061010b858286016100c3565b9150509250929050565b61011e8161006b565b82525050565b5f6020820190506101375f830184610115565b9291505056fea26469706673582212207af4b748c4d32c6da1a6d813baebf68f3980ec1c847bfb46ecc421c00c2168ca64736f6c634300081a0033",
					"opcodes": "PUSH1 0x80 PUSH1 0x40 MSTORE CALLVALUE DUP1 ISZERO PUSH1 0xE JUMPI PUSH0 DUP1 REVERT JUMPDEST POP PUSH2 0x173 DUP1 PUSH2 0x1C PUSH0 CODECOPY PUSH0 RETURN INVALID PUSH1 0x80 PUSH1 0x40 MSTORE CALLVALUE DUP1 ISZERO PUSH2 0xF JUMPI PUSH0 DUP1 REVERT JUMPDEST POP PUSH1 0x4 CALLDATASIZE LT PUSH2 0x29 JUMPI PUSH0 CALLDATALOAD PUSH1 0xE0 SHR DUP1 PUSH4 0x1A2D47AD EQ PUSH2 0x2D JUMPI JUMPDEST PUSH0 DUP1 REVERT JUMPDEST PUSH2 0x47 PUSH1 0x4 DUP1 CALLDATASIZE SUB DUP2 ADD SWAP1 PUSH2 0x42 SWAP2 SWAP1 PUSH2 0xD7 JUMP JUMPDEST PUSH2 0x5D JUMP JUMPDEST PUSH1 0x40 MLOAD PUSH2 0x54 SWAP2 SWAP1 PUSH2 0x124 JUMP JUMPDEST PUSH1 0x40 MLOAD DUP1 SWAP2 SUB SWAP1 RETURN JUMPDEST PUSH0 DUP3 SWAP1 POP SWAP3 SWAP2 POP POP JUMP JUMPDEST PUSH0 DUP1 REVERT JUMPDEST PUSH0 DUP2 SWAP1 POP SWAP2 SWAP1 POP JUMP JUMPDEST PUSH2 0x7D DUP2 PUSH2 0x6B JUMP JUMPDEST DUP2 EQ PUSH2 0x87 JUMPI PUSH0 DUP1 REVERT JUMPDEST POP JUMP JUMPDEST PUSH0 DUP2 CALLDATALOAD SWAP1 POP PUSH2 0x98 DUP2 PUSH2 0x74 JUMP JUMPDEST SWAP3 SWAP2 POP POP JUMP JUMPDEST PUSH0 PUSH4 0xFFFFFFFF DUP3 AND SWAP1 POP SWAP2 SWAP1 POP JUMP JUMPDEST PUSH2 0xB6 DUP2 PUSH2 0x9E JUMP JUMPDEST DUP2 EQ PUSH2 0xC0 JUMPI PUSH0 DUP1 REVERT JUMPDEST POP JUMP JUMPDEST PUSH0 DUP2 CALLDATALOAD SWAP1 POP PUSH2 0xD1 DUP2 PUSH2 0xAD JUMP JUMPDEST SWAP3 SWAP2 POP POP JUMP JUMPDEST PUSH0 DUP1 PUSH1 0x40 DUP4 DUP6 SUB SLT ISZERO PUSH2 0xED JUMPI PUSH2 0xEC PUSH2 0x67 JUMP JUMPDEST JUMPDEST PUSH0 PUSH2 0xFA DUP6 DUP3 DUP7 ADD PUSH2 0x8A JUMP JUMPDEST SWAP3 POP POP PUSH1 0x20 PUSH2 0x10B DUP6 DUP3 DUP7 ADD PUSH2 0xC3 JUMP JUMPDEST SWAP2 POP POP SWAP3 POP SWAP3 SWAP1 POP JUMP JUMPDEST PUSH2 0x11E DUP2 PUSH2 0x6B JUMP JUMPDEST DUP3 MSTORE POP POP JUMP JUMPDEST PUSH0 PUSH1 0x20 DUP3 ADD SWAP1 POP PUSH2 0x137 PUSH0 DUP4 ADD DUP5 PUSH2 0x115 JUMP JUMPDEST SWAP3 SWAP2 POP POP JUMP INVALID LOG2 PUSH5 0x6970667358 0x22 SLT KECCAK256 PUSH27 0xF4B748C4D32C6DA1A6D813BAEBF68F3980EC1C847BFB46ECC421C0 0xC 0x21 PUSH9 0xCA64736F6C63430008 BYTE STOP CALLER "
				},
				"gasEstimates": {
					"creation": {
						"codeDepositCost": "74200",
						"executionCost": "121",
						"totalCost": "74321"
					},
					"external": {
						"_credit(uint256,uint32)": "infinite"
					}
				},
				"methodIdentifiers": {
					"_credit(uint256,uint32)": "1a2d47ad"
				}
			},
			"storageLayout": {
				"storage": [],
				"types": null
			},
			"userdoc": {
				"kind": "user",
				"methods": {},
				"version": 1
			}
		}
	}
}