{
	"testLZ.sol": {
		"creditHigher": {
			"abi": [
				{
					"inputs": [
						{
							"internalType": "uint256",
							"name": "_amountLD",
							"type": "uint256"
						},
						{
							"internalType": "uint32",
							"name": "_srcEid",
							"type": "uint32"
						}
					],
					"name": "_credit",
					"outputs": [
						{
							"internalType": "uint256",
							"name": "",
							"type": "uint256"
						}
					],
					"stateMutability": "nonpayable",
					"type": "function"
				}
			],
			"devdoc": {
				"kind": "dev",
				"methods": {},
				"version": 1
			},
			"evm": {
				"assembly": "    /* \"testLZ.sol\":1670:1910  contract creditHigher is creditLower {... */\n  mstore(0x40, 0x80)\n  callvalue\n  dup1\n  iszero\n  tag_1\n  jumpi\n  0x00\n  dup1\n  revert\ntag_1:\n  pop\n  dataSize(sub_0)\n  dup1\n  dataOffset(sub_0)\n  0x00\n  codecopy\n  0x00\n  return\nstop\n\nsub_0: assembly {\n        /* \"testLZ.sol\":1670:1910  contract creditHigher is creditLower {... */\n      mstore(0x40, 0x80)\n      callvalue\n      dup1\n      iszero\n      tag_1\n      jumpi\n      0x00\n      dup1\n      revert\n    tag_1:\n      pop\n      jumpi(tag_2, lt(calldatasize, 0x04))\n      shr(0xe0, calldataload(0x00))\n      dup1\n      0x1a2d47ad\n      eq\n      tag_3\n      jumpi\n    tag_2:\n      0x00\n      dup1\n      revert\n        /* \"testLZ.sol\":1720:1907  function _credit(uint256 _amountLD, uint32 _srcEid) public override returns (uint256) {... */\n    tag_3:\n      tag_4\n      0x04\n      dup1\n      calldatasize\n      sub\n      dup2\n      add\n      swap1\n      tag_5\n      swap2\n      swap1\n      tag_6\n      jump\t// in\n    tag_5:\n      tag_7\n      jump\t// in\n    tag_4:\n      mload(0x40)\n      tag_8\n      swap2\n      swap1\n      tag_9\n      jump\t// in\n    tag_8:\n      mload(0x40)\n      dup1\n      swap2\n      sub\n      swap1\n      return\n    tag_7:\n        /* \"testLZ.sol\":1797:1804  uint256 */\n      0x00\n        /* \"testLZ.sol\":1817:1834  uint256 _amountLD */\n      dup1\n        /* \"testLZ.sol\":1837:1870  super._credit(_amountLD, _srcEid) */\n      tag_11\n        /* \"testLZ.sol\":1851:1860  _amountLD */\n      dup5\n        /* \"testLZ.sol\":1862:1869  _srcEid */\n      dup5\n        /* \"testLZ.sol\":1837:1850  super._credit */\n      tag_12\n        /* \"testLZ.sol\":1837:1870  super._credit(_amountLD, _srcEid) */\n      jump\t// in\n    tag_11:\n        /* \"testLZ.sol\":1817:1870  uint256 _amountLD = super._credit(_amountLD, _srcEid) */\n      swap1\n      pop\n        /* \"testLZ.sol\":1888:1897  _amountLD */\n      dup1\n        /* \"testLZ.sol\":1881:1897  return _amountLD */\n      swap2\n      pop\n      pop\n        /* \"testLZ.sol\":1720:1907  function _credit(uint256 _amountLD, uint32 _srcEid) public override returns (uint256) {... */\n      swap3\n      swap2\n      pop\n      pop\n      jump\t// out\n        /* \"testLZ.sol\":1380:1661  function _credit(uint256 _amountLD, uint32 /*_srcEid*/) public virtual returns (uint256 amountReceivedLD) {... */\n    tag_12:\n        /* \"testLZ.sol\":1460:1484  uint256 amountReceivedLD */\n      0x00\n        /* \"testLZ.sol\":1644:1653  _amountLD */\n      dup3\n        /* \"testLZ.sol\":1637:1653  return _amountLD */\n      swap1\n      pop\n        /* \"testLZ.sol\":1380:1661  function _credit(uint256 _amountLD, uint32 /*_srcEid*/) public virtual returns (uint256 amountReceivedLD) {... */\n      swap3\n      swap2\n      pop\n      pop\n      jump\t// out\n        /* \"#utility.yul\":88:205   */\n    tag_15:\n        /* \"#utility.yul\":197:198   */\n      0x00\n        /* \"#utility.yul\":194:195   */\n      dup1\n        /* \"#utility.yul\":187:199   */\n      revert\n        /* \"#utility.yul\":334:411   */\n    tag_17:\n        /* \"#utility.yul\":371:378   */\n      0x00\n        /* \"#utility.yul\":400:405   */\n      dup2\n        /* \"#utility.yul\":389:405   */\n      swap1\n      pop\n        /* \"#utility.yul\":334:411   */\n      swap2\n      swap1\n      pop\n      jump\t// out\n        /* \"#utility.yul\":417:539   */\n    tag_18:\n        /* \"#utility.yul\":490:514   */\n      tag_30\n        /* \"#utility.yul\":508:513   */\n      dup2\n        /* \"#utility.yul\":490:514   */\n      tag_17\n      jump\t// in\n    tag_30:\n        /* \"#utility.yul\":483:488   */\n      dup2\n        /* \"#utility.yul\":480:515   */\n      eq\n        /* \"#utility.yul\":470:533   */\n      tag_31\n      jumpi\n        /* \"#utility.yul\":529:530   */\n      0x00\n        /* \"#utility.yul\":526:527   */\n      dup1\n        /* \"#utility.yul\":519:531   */\n      revert\n        /* \"#utility.yul\":470:533   */\n    tag_31:\n        /* \"#utility.yul\":417:539   */\n      pop\n      jump\t// out\n        /* \"#utility.yul\":545:684   */\n    tag_19:\n        /* \"#utility.yul\":591:596   */\n      0x00\n        /* \"#utility.yul\":629:635   */\n      dup2\n        /* \"#utility.yul\":616:636   */\n      calldataload\n        /* \"#utility.yul\":607:636   */\n      swap1\n      pop\n        /* \"#utility.yul\":645:678   */\n      tag_33\n        /* \"#utility.yul\":672:677   */\n      dup2\n        /* \"#utility.yul\":645:678   */\n      tag_18\n      jump\t// in\n    tag_33:\n        /* \"#utility.yul\":545:684   */\n      swap3\n      swap2\n      pop\n      pop\n      jump\t// out\n        /* \"#utility.yul\":690:783   */\n    tag_20:\n        /* \"#utility.yul\":726:733   */\n      0x00\n        /* \"#utility.yul\":766:776   */\n      0xffffffff\n        /* \"#utility.yul\":759:764   */\n      dup3\n        /* \"#utility.yul\":755:777   */\n      and\n        /* \"#utility.yul\":744:777   */\n      swap1\n      pop\n        /* \"#utility.yul\":690:783   */\n      swap2\n      swap1\n      pop\n      jump\t// out\n        /* \"#utility.yul\":789:909   */\n    tag_21:\n        /* \"#utility.yul\":861:884   */\n      tag_36\n        /* \"#utility.yul\":878:883   */\n      dup2\n        /* \"#utility.yul\":861:884   */\n      tag_20\n      jump\t// in\n    tag_36:\n        /* \"#utility.yul\":854:859   */\n      dup2\n        /* \"#utility.yul\":851:885   */\n      eq\n        /* \"#utility.yul\":841:903   */\n      tag_37\n      jumpi\n        /* \"#utility.yul\":899:900   */\n      0x00\n        /* \"#utility.yul\":896:897   */\n      dup1\n        /* \"#utility.yul\":889:901   */\n      revert\n        /* \"#utility.yul\":841:903   */\n    tag_37:\n        /* \"#utility.yul\":789:909   */\n      pop\n      jump\t// out\n        /* \"#utility.yul\":915:1052   */\n    tag_22:\n        /* \"#utility.yul\":960:965   */\n      0x00\n        /* \"#utility.yul\":998:1004   */\n      dup2\n        /* \"#utility.yul\":985:1005   */\n      calldataload\n        /* \"#utility.yul\":976:1005   */\n      swap1\n      pop\n        /* \"#utility.yul\":1014:1046   */\n      tag_39\n        /* \"#utility.yul\":1040:1045   */\n      dup2\n        /* \"#utility.yul\":1014:1046   */\n      tag_21\n      jump\t// in\n    tag_39:\n        /* \"#utility.yul\":915:1052   */\n      swap3\n      swap2\n      pop\n      pop\n      jump\t// out\n        /* \"#utility.yul\":1058:1530   */\n    tag_6:\n        /* \"#utility.yul\":1125:1131   */\n      0x00\n        /* \"#utility.yul\":1133:1139   */\n      dup1\n        /* \"#utility.yul\":1182:1184   */\n      0x40\n        /* \"#utility.yul\":1170:1179   */\n      dup4\n        /* \"#utility.yul\":1161:1168   */\n      dup6\n        /* \"#utility.yul\":1157:1180   */\n      sub\n        /* \"#utility.yul\":1153:1185   */\n      slt\n        /* \"#utility.yul\":1150:1269   */\n      iszero\n      tag_41\n      jumpi\n        /* \"#utility.yul\":1188:1267   */\n      tag_42\n      tag_15\n      jump\t// in\n    tag_42:\n        /* \"#utility.yul\":1150:1269   */\n    tag_41:\n        /* \"#utility.yul\":1308:1309   */\n      0x00\n        /* \"#utility.yul\":1333:1386   */\n      tag_43\n        /* \"#utility.yul\":1378:1385   */\n      dup6\n        /* \"#utility.yul\":1369:1375   */\n      dup3\n        /* \"#utility.yul\":1358:1367   */\n      dup7\n        /* \"#utility.yul\":1354:1376   */\n      add\n        /* \"#utility.yul\":1333:1386   */\n      tag_19\n      jump\t// in\n    tag_43:\n        /* \"#utility.yul\":1323:1386   */\n      swap3\n      pop\n        /* \"#utility.yul\":1279:1396   */\n      pop\n        /* \"#utility.yul\":1435:1437   */\n      0x20\n        /* \"#utility.yul\":1461:1513   */\n      tag_44\n        /* \"#utility.yul\":1505:1512   */\n      dup6\n        /* \"#utility.yul\":1496:1502   */\n      dup3\n        /* \"#utility.yul\":1485:1494   */\n      dup7\n        /* \"#utility.yul\":1481:1503   */\n      add\n        /* \"#utility.yul\":1461:1513   */\n      tag_22\n      jump\t// in\n    tag_44:\n        /* \"#utility.yul\":1451:1513   */\n      swap2\n      pop\n        /* \"#utility.yul\":1406:1523   */\n      pop\n        /* \"#utility.yul\":1058:1530   */\n      swap3\n      pop\n      swap3\n      swap1\n      pop\n      jump\t// out\n        /* \"#utility.yul\":1536:1654   */\n    tag_23:\n        /* \"#utility.yul\":1623:1647   */\n      tag_46\n        /* \"#utility.yul\":1641:1646   */\n      dup2\n        /* \"#utility.yul\":1623:1647   */\n      tag_17\n      jump\t// in\n    tag_46:\n        /* \"#utility.yul\":1618:1621   */\n      dup3\n        /* \"#utility.yul\":1611:1648   */\n      mstore\n        /* \"#utility.yul\":1536:1654   */\n      pop\n      pop\n      jump\t// out\n        /* \"#utility.yul\":1660:1882   */\n    tag_9:\n        /* \"#utility.yul\":1753:1757   */\n      0x00\n        /* \"#utility.yul\":1791:1793   */\n      0x20\n        /* \"#utility.yul\":1780:1789   */\n      dup3\n        /* \"#utility.yul\":1776:1794   */\n      add\n        /* \"#utility.yul\":1768:1794   */\n      swap1\n      pop\n        /* \"#utility.yul\":1804:1875   */\n      tag_48\n        /* \"#utility.yul\":1872:1873   */\n      0x00\n        /* \"#utility.yul\":1861:1870   */\n      dup4\n        /* \"#utility.yul\":1857:1874   */\n      add\n        /* \"#utility.yul\":1848:1854   */\n      dup5\n        /* \"#utility.yul\":1804:1875   */\n      tag_23\n      jump\t// in\n    tag_48:\n        /* \"#utility.yul\":1660:1882   */\n      swap3\n      swap2\n      pop\n      pop\n      jump\t// out\n\n    auxdata: 0xa26469706673582212202c0e9a1f8e22f32dd0cc79897527efba88d78d8bce3d0eecce17b544b20fbaaa64736f6c634300081a0033\n}\n",
				"bytecode": {
					"linkReferences": {},
					"object": "6080604052348015600e575f80fd5b5061018b8061001c5f395ff3fe608060405234801561000f575f80fd5b5060043610610029575f3560e01c80631a2d47ad1461002d575b5f80fd5b610047600480360381019061004291906100ef565b61005d565b604051610054919061013c565b60405180910390f35b5f806100698484610075565b90508091505092915050565b5f82905092915050565b5f80fd5b5f819050919050565b61009581610083565b811461009f575f80fd5b50565b5f813590506100b08161008c565b92915050565b5f63ffffffff82169050919050565b6100ce816100b6565b81146100d8575f80fd5b50565b5f813590506100e9816100c5565b92915050565b5f80604083850312156101055761010461007f565b5b5f610112858286016100a2565b9250506020610123858286016100db565b9150509250929050565b61013681610083565b82525050565b5f60208201905061014f5f83018461012d565b9291505056fea26469706673582212202c0e9a1f8e22f32dd0cc79897527efba88d78d8bce3d0eecce17b544b20fbaaa64736f6c634300081a0033",
					"opcodes": "PUSH1 0x80 PUSH1 0x40 MSTORE CALLVALUE DUP1 ISZERO PUSH1 0xE JUMPI PUSH0 DUP1 REVERT JUMPDEST POP PUSH2 0x18B DUP1 PUSH2 0x1C PUSH0 CODECOPY PUSH0 RETURN INVALID PUSH1 0x80 PUSH1 0x40 MSTORE CALLVALUE DUP1 ISZERO PUSH2 0xF JUMPI PUSH0 DUP1 REVERT JUMPDEST POP PUSH1 0x4 CALLDATASIZE LT PUSH2 0x29 JUMPI PUSH0 CALLDATALOAD PUSH1 0xE0 SHR DUP1 PUSH4 0x1A2D47AD EQ PUSH2 0x2D JUMPI JUMPDEST PUSH0 DUP1 REVERT JUMPDEST PUSH2 0x47 PUSH1 0x4 DUP1 CALLDATASIZE SUB DUP2 ADD SWAP1 PUSH2 0x42 SWAP2 SWAP1 PUSH2 0xEF JUMP JUMPDEST PUSH2 0x5D JUMP JUMPDEST PUSH1 0x40 MLOAD PUSH2 0x54 SWAP2 SWAP1 PUSH2 0x13C JUMP JUMPDEST PUSH1 0x40 MLOAD DUP1 SWAP2 SUB SWAP1 RETURN JUMPDEST PUSH0 DUP1 PUSH2 0x69 DUP5 DUP5 PUSH2 0x75 JUMP JUMPDEST SWAP1 POP DUP1 SWAP2 POP POP SWAP3 SWAP2 POP POP JUMP JUMPDEST PUSH0 DUP3 SWAP1 POP SWAP3 SWAP2 POP POP JUMP JUMPDEST PUSH0 DUP1 REVERT JUMPDEST PUSH0 DUP2 SWAP1 POP SWAP2 SWAP1 POP JUMP JUMPDEST PUSH2 0x95 DUP2 PUSH2 0x83 JUMP JUMPDEST DUP2 EQ PUSH2 0x9F JUMPI PUSH0 DUP1 REVERT JUMPDEST POP JUMP JUMPDEST PUSH0 DUP2 CALLDATALOAD SWAP1 POP PUSH2 0xB0 DUP2 PUSH2 0x8C JUMP JUMPDEST SWAP3 SWAP2 POP POP JUMP JUMPDEST PUSH0 PUSH4 0xFFFFFFFF DUP3 AND SWAP1 POP SWAP2 SWAP1 POP JUMP JUMPDEST PUSH2 0xCE DUP2 PUSH2 0xB6 JUMP JUMPDEST DUP2 EQ PUSH2 0xD8 JUMPI PUSH0 DUP1 REVERT JUMPDEST POP JUMP JUMPDEST PUSH0 DUP2 CALLDATALOAD SWAP1 POP PUSH2 0xE9 DUP2 PUSH2 0xC5 JUMP JUMPDEST SWAP3 SWAP2 POP POP JUMP JUMPDEST PUSH0 DUP1 PUSH1 0x40 DUP4 DUP6 SUB SLT ISZERO PUSH2 0x105 JUMPI PUSH2 0x104 PUSH2 0x7F JUMP JUMPDEST JUMPDEST PUSH0 PUSH2 0x112 DUP6 DUP3 DUP7 ADD PUSH2 0xA2 JUMP JUMPDEST SWAP3 POP POP PUSH1 0x20 PUSH2 0x123 DUP6 DUP3 DUP7 ADD PUSH2 0xDB JUMP JUMPDEST SWAP2 POP POP SWAP3 POP SWAP3 SWAP1 POP JUMP JUMPDEST PUSH2 0x136 DUP2 PUSH2 0x83 JUMP JUMPDEST DUP3 MSTORE POP POP JUMP JUMPDEST PUSH0 PUSH1 0x20 DUP3 ADD SWAP1 POP PUSH2 0x14F PUSH0 DUP4 ADD DUP5 PUSH2 0x12D JUMP JUMPDEST SWAP3 SWAP2 POP POP JUMP INVALID LOG2 PUSH5 0x6970667358 0x22 SLT KECCAK256 0x2C 0xE SWAP11 0x1F DUP15 0x22 RETURN 0x2D 0xD0 0xCC PUSH26 0x897527EFBA88D78D8BCE3D0EECCE17B544B20FBAAA64736F6C63 NUMBER STOP ADDMOD BYTE STOP CALLER "
				},
				"gasEstimates": {
					"creation": {
						"codeDepositCost": "79000",
						"executionCost": "127",
						"totalCost": "79127"
					},
					"external": {
						"_credit(uint256,uint32)": "infinite"
					}
				},
				"methodIdentifiers": {
					"_credit(uint256,uint32)": "1a2d47ad"
				}
			},
			"storageLayout": {
				"storage": [],
				"types": null
			},
			"userdoc": {
				"kind": "user",
				"methods": {},
				"version": 1
			}
		}
	}
}