{
	"testStaticCall.sol": {
		"Caller": {
			"abi": [
				{
					"inputs": [
						{
							"internalType": "address",
							"name": "module",
							"type": "address"
						}
					],
					"name": "sCall",
					"outputs": [],
					"stateMutability": "view",
					"type": "function"
				}
			],
			"devdoc": {
				"kind": "dev",
				"methods": {},
				"version": 1
			},
			"evm": {
				"assembly": "    /* \"testStaticCall.sol\":67:338  contract Caller {... */\n  mstore(0x40, 0x80)\n  callvalue\n  dup1\n  iszero\n  tag_1\n  jumpi\n  0x00\n  dup1\n  revert\ntag_1:\n  pop\n  dataSize(sub_0)\n  dup1\n  dataOffset(sub_0)\n  0x00\n  codecopy\n  0x00\n  return\nstop\n\nsub_0: assembly {\n        /* \"testStaticCall.sol\":67:338  contract Caller {... */\n      mstore(0x40, 0x80)\n      callvalue\n      dup1\n      iszero\n      tag_1\n      jumpi\n      0x00\n      dup1\n      revert\n    tag_1:\n      pop\n      jumpi(tag_2, lt(calldatasize, 0x04))\n      shr(0xe0, calldataload(0x00))\n      dup1\n      0x5c8737fb\n      eq\n      tag_3\n      jumpi\n    tag_2:\n      0x00\n      dup1\n      revert\n        /* \"testStaticCall.sol\":92:335  function sCall(address module) external view {... */\n    tag_3:\n      tag_4\n      0x04\n      dup1\n      calldatasize\n      sub\n      dup2\n      add\n      swap1\n      tag_5\n      swap2\n      swap1\n      tag_6\n      jump\t// in\n    tag_5:\n      tag_7\n      jump\t// in\n    tag_4:\n      stop\n    tag_7:\n        /* \"testStaticCall.sol\":158:175  bytes memory data */\n      0x00\n        /* \"testStaticCall.sol\":224:225  1 */\n      0x01\n        /* \"testStaticCall.sol\":178:226  abi.encodeWithSignature(\"isOwnerOf(uint256)\", 1) */\n      add(0x24, mload(0x40))\n      tag_9\n      swap2\n      swap1\n      tag_10\n      jump\t// in\n    tag_9:\n      mload(0x40)\n      0x20\n      dup2\n      dup4\n      sub\n      sub\n      dup2\n      mstore\n      swap1\n      0x40\n      mstore\n      and(not(0xffffffffffffffffffffffffffffffffffffffffffffffffffffffff), 0xab6520f400000000000000000000000000000000000000000000000000000000)\n      0x20\n      dup3\n      add\n      dup1\n      mload\n      0xffffffffffffffffffffffffffffffffffffffffffffffffffffffff\n      dup4\n      dup2\n      dup4\n      and\n      or\n      dup4\n      mstore\n      pop\n      pop\n      pop\n      pop\n        /* \"testStaticCall.sol\":158:226  bytes memory data = abi.encodeWithSignature(\"isOwnerOf(uint256)\", 1) */\n      swap1\n      pop\n        /* \"testStaticCall.sol\":238:250  bool success */\n      0x00\n        /* \"testStaticCall.sol\":252:271  bytes memory result */\n      dup1\n        /* \"testStaticCall.sol\":275:281  module */\n      dup4\n        /* \"testStaticCall.sol\":275:292  module.staticcall */\n      0xffffffffffffffffffffffffffffffffffffffff\n      and\n        /* \"testStaticCall.sol\":293:297  data */\n      dup4\n        /* \"testStaticCall.sol\":275:298  module.staticcall(data) */\n      mload(0x40)\n      tag_11\n      swap2\n      swap1\n      tag_12\n      jump\t// in\n    tag_11:\n      0x00\n      mload(0x40)\n      dup1\n      dup4\n      sub\n      dup2\n      dup6\n      gas\n      staticcall\n      swap2\n      pop\n      pop\n      returndatasize\n      dup1\n      0x00\n      dup2\n      eq\n      tag_15\n      jumpi\n      mload(0x40)\n      swap2\n      pop\n      and(add(returndatasize, 0x3f), not(0x1f))\n      dup3\n      add\n      0x40\n      mstore\n      returndatasize\n      dup3\n      mstore\n      returndatasize\n      0x00\n      0x20\n      dup5\n      add\n      returndatacopy\n      jump(tag_14)\n    tag_15:\n      0x60\n      swap2\n      pop\n    tag_14:\n      pop\n        /* \"testStaticCall.sol\":237:298  (bool success, bytes memory result) = module.staticcall(data) */\n      swap2\n      pop\n      swap2\n      pop\n        /* \"testStaticCall.sol\":319:326  success */\n      dup2\n        /* \"testStaticCall.sol\":311:327  require(success) */\n      tag_16\n      jumpi\n      0x00\n      dup1\n      revert\n    tag_16:\n        /* \"testStaticCall.sol\":137:335  {... */\n      pop\n      pop\n      pop\n        /* \"testStaticCall.sol\":92:335  function sCall(address module) external view {... */\n      pop\n      jump\t// out\n        /* \"#utility.yul\":88:205   */\n    tag_18:\n        /* \"#utility.yul\":197:198   */\n      0x00\n        /* \"#utility.yul\":194:195   */\n      dup1\n        /* \"#utility.yul\":187:199   */\n      revert\n        /* \"#utility.yul\":334:460   */\n    tag_20:\n        /* \"#utility.yul\":371:378   */\n      0x00\n        /* \"#utility.yul\":411:453   */\n      0xffffffffffffffffffffffffffffffffffffffff\n        /* \"#utility.yul\":404:409   */\n      dup3\n        /* \"#utility.yul\":400:454   */\n      and\n        /* \"#utility.yul\":389:454   */\n      swap1\n      pop\n        /* \"#utility.yul\":334:460   */\n      swap2\n      swap1\n      pop\n      jump\t// out\n        /* \"#utility.yul\":466:562   */\n    tag_21:\n        /* \"#utility.yul\":503:510   */\n      0x00\n        /* \"#utility.yul\":532:556   */\n      tag_39\n        /* \"#utility.yul\":550:555   */\n      dup3\n        /* \"#utility.yul\":532:556   */\n      tag_20\n      jump\t// in\n    tag_39:\n        /* \"#utility.yul\":521:556   */\n      swap1\n      pop\n        /* \"#utility.yul\":466:562   */\n      swap2\n      swap1\n      pop\n      jump\t// out\n        /* \"#utility.yul\":568:690   */\n    tag_22:\n        /* \"#utility.yul\":641:665   */\n      tag_41\n        /* \"#utility.yul\":659:664   */\n      dup2\n        /* \"#utility.yul\":641:665   */\n      tag_21\n      jump\t// in\n    tag_41:\n        /* \"#utility.yul\":634:639   */\n      dup2\n        /* \"#utility.yul\":631:666   */\n      eq\n        /* \"#utility.yul\":621:684   */\n      tag_42\n      jumpi\n        /* \"#utility.yul\":680:681   */\n      0x00\n        /* \"#utility.yul\":677:678   */\n      dup1\n        /* \"#utility.yul\":670:682   */\n      revert\n        /* \"#utility.yul\":621:684   */\n    tag_42:\n        /* \"#utility.yul\":568:690   */\n      pop\n      jump\t// out\n        /* \"#utility.yul\":696:835   */\n    tag_23:\n        /* \"#utility.yul\":742:747   */\n      0x00\n        /* \"#utility.yul\":780:786   */\n      dup2\n        /* \"#utility.yul\":767:787   */\n      calldataload\n        /* \"#utility.yul\":758:787   */\n      swap1\n      pop\n        /* \"#utility.yul\":796:829   */\n      tag_44\n        /* \"#utility.yul\":823:828   */\n      dup2\n        /* \"#utility.yul\":796:829   */\n      tag_22\n      jump\t// in\n    tag_44:\n        /* \"#utility.yul\":696:835   */\n      swap3\n      swap2\n      pop\n      pop\n      jump\t// out\n        /* \"#utility.yul\":841:1170   */\n    tag_6:\n        /* \"#utility.yul\":900:906   */\n      0x00\n        /* \"#utility.yul\":949:951   */\n      0x20\n        /* \"#utility.yul\":937:946   */\n      dup3\n        /* \"#utility.yul\":928:935   */\n      dup5\n        /* \"#utility.yul\":924:947   */\n      sub\n        /* \"#utility.yul\":920:952   */\n      slt\n        /* \"#utility.yul\":917:1036   */\n      iszero\n      tag_46\n      jumpi\n        /* \"#utility.yul\":955:1034   */\n      tag_47\n      tag_18\n      jump\t// in\n    tag_47:\n        /* \"#utility.yul\":917:1036   */\n    tag_46:\n        /* \"#utility.yul\":1075:1076   */\n      0x00\n        /* \"#utility.yul\":1100:1153   */\n      tag_48\n        /* \"#utility.yul\":1145:1152   */\n      dup5\n        /* \"#utility.yul\":1136:1142   */\n      dup3\n        /* \"#utility.yul\":1125:1134   */\n      dup6\n        /* \"#utility.yul\":1121:1143   */\n      add\n        /* \"#utility.yul\":1100:1153   */\n      tag_23\n      jump\t// in\n    tag_48:\n        /* \"#utility.yul\":1090:1153   */\n      swap2\n      pop\n        /* \"#utility.yul\":1046:1163   */\n      pop\n        /* \"#utility.yul\":841:1170   */\n      swap3\n      swap2\n      pop\n      pop\n      jump\t// out\n        /* \"#utility.yul\":1176:1261   */\n    tag_24:\n        /* \"#utility.yul\":1221:1228   */\n      0x00\n        /* \"#utility.yul\":1250:1255   */\n      dup2\n        /* \"#utility.yul\":1239:1255   */\n      swap1\n      pop\n        /* \"#utility.yul\":1176:1261   */\n      swap2\n      swap1\n      pop\n      jump\t// out\n        /* \"#utility.yul\":1267:1353   */\n    tag_25:\n        /* \"#utility.yul\":1302:1309   */\n      0x00\n        /* \"#utility.yul\":1342:1346   */\n      0xff\n        /* \"#utility.yul\":1335:1340   */\n      dup3\n        /* \"#utility.yul\":1331:1347   */\n      and\n        /* \"#utility.yul\":1320:1347   */\n      swap1\n      pop\n        /* \"#utility.yul\":1267:1353   */\n      swap2\n      swap1\n      pop\n      jump\t// out\n        /* \"#utility.yul\":1359:1419   */\n    tag_26:\n        /* \"#utility.yul\":1387:1390   */\n      0x00\n        /* \"#utility.yul\":1408:1413   */\n      dup2\n        /* \"#utility.yul\":1401:1413   */\n      swap1\n      pop\n        /* \"#utility.yul\":1359:1419   */\n      swap2\n      swap1\n      pop\n      jump\t// out\n        /* \"#utility.yul\":1425:1579   */\n    tag_27:\n        /* \"#utility.yul\":1481:1490   */\n      0x00\n        /* \"#utility.yul\":1514:1573   */\n      tag_53\n        /* \"#utility.yul\":1530:1572   */\n      tag_54\n        /* \"#utility.yul\":1539:1571   */\n      tag_55\n        /* \"#utility.yul\":1565:1570   */\n      dup5\n        /* \"#utility.yul\":1539:1571   */\n      tag_24\n      jump\t// in\n    tag_55:\n        /* \"#utility.yul\":1530:1572   */\n      tag_26\n      jump\t// in\n    tag_54:\n        /* \"#utility.yul\":1514:1573   */\n      tag_25\n      jump\t// in\n    tag_53:\n        /* \"#utility.yul\":1501:1573   */\n      swap1\n      pop\n        /* \"#utility.yul\":1425:1579   */\n      swap2\n      swap1\n      pop\n      jump\t// out\n        /* \"#utility.yul\":1585:1728   */\n    tag_28:\n        /* \"#utility.yul\":1678:1721   */\n      tag_57\n        /* \"#utility.yul\":1715:1720   */\n      dup2\n        /* \"#utility.yul\":1678:1721   */\n      tag_27\n      jump\t// in\n    tag_57:\n        /* \"#utility.yul\":1673:1676   */\n      dup3\n        /* \"#utility.yul\":1666:1722   */\n      mstore\n        /* \"#utility.yul\":1585:1728   */\n      pop\n      pop\n      jump\t// out\n        /* \"#utility.yul\":1734:1968   */\n    tag_10:\n        /* \"#utility.yul\":1833:1837   */\n      0x00\n        /* \"#utility.yul\":1871:1873   */\n      0x20\n        /* \"#utility.yul\":1860:1869   */\n      dup3\n        /* \"#utility.yul\":1856:1874   */\n      add\n        /* \"#utility.yul\":1848:1874   */\n      swap1\n      pop\n        /* \"#utility.yul\":1884:1961   */\n      tag_59\n        /* \"#utility.yul\":1958:1959   */\n      0x00\n        /* \"#utility.yul\":1947:1956   */\n      dup4\n        /* \"#utility.yul\":1943:1960   */\n      add\n        /* \"#utility.yul\":1934:1940   */\n      dup5\n        /* \"#utility.yul\":1884:1961   */\n      tag_28\n      jump\t// in\n    tag_59:\n        /* \"#utility.yul\":1734:1968   */\n      swap3\n      swap2\n      pop\n      pop\n      jump\t// out\n        /* \"#utility.yul\":1974:2072   */\n    tag_29:\n        /* \"#utility.yul\":2025:2031   */\n      0x00\n        /* \"#utility.yul\":2059:2064   */\n      dup2\n        /* \"#utility.yul\":2053:2065   */\n      mload\n        /* \"#utility.yul\":2043:2065   */\n      swap1\n      pop\n        /* \"#utility.yul\":1974:2072   */\n      swap2\n      swap1\n      pop\n      jump\t// out\n        /* \"#utility.yul\":2078:2225   */\n    tag_30:\n        /* \"#utility.yul\":2179:2190   */\n      0x00\n        /* \"#utility.yul\":2216:2219   */\n      dup2\n        /* \"#utility.yul\":2201:2219   */\n      swap1\n      pop\n        /* \"#utility.yul\":2078:2225   */\n      swap3\n      swap2\n      pop\n      pop\n      jump\t// out\n        /* \"#utility.yul\":2231:2477   */\n    tag_31:\n        /* \"#utility.yul\":2312:2313   */\n      0x00\n        /* \"#utility.yul\":2322:2435   */\n    tag_63:\n        /* \"#utility.yul\":2336:2342   */\n      dup4\n        /* \"#utility.yul\":2333:2334   */\n      dup2\n        /* \"#utility.yul\":2330:2343   */\n      lt\n        /* \"#utility.yul\":2322:2435   */\n      iszero\n      tag_65\n      jumpi\n        /* \"#utility.yul\":2421:2422   */\n      dup1\n        /* \"#utility.yul\":2416:2419   */\n      dup3\n        /* \"#utility.yul\":2412:2423   */\n      add\n        /* \"#utility.yul\":2406:2424   */\n      mload\n        /* \"#utility.yul\":2402:2403   */\n      dup2\n        /* \"#utility.yul\":2397:2400   */\n      dup5\n        /* \"#utility.yul\":2393:2404   */\n      add\n        /* \"#utility.yul\":2386:2425   */\n      mstore\n        /* \"#utility.yul\":2358:2360   */\n      0x20\n        /* \"#utility.yul\":2355:2356   */\n      dup2\n        /* \"#utility.yul\":2351:2361   */\n      add\n        /* \"#utility.yul\":2346:2361   */\n      swap1\n      pop\n        /* \"#utility.yul\":2322:2435   */\n      jump(tag_63)\n    tag_65:\n        /* \"#utility.yul\":2469:2470   */\n      0x00\n        /* \"#utility.yul\":2460:2466   */\n      dup5\n        /* \"#utility.yul\":2455:2458   */\n      dup5\n        /* \"#utility.yul\":2451:2467   */\n      add\n        /* \"#utility.yul\":2444:2471   */\n      mstore\n        /* \"#utility.yul\":2293:2477   */\n      pop\n        /* \"#utility.yul\":2231:2477   */\n      pop\n      pop\n      pop\n      jump\t// out\n        /* \"#utility.yul\":2483:2869   */\n    tag_32:\n        /* \"#utility.yul\":2587:2590   */\n      0x00\n        /* \"#utility.yul\":2615:2653   */\n      tag_67\n        /* \"#utility.yul\":2647:2652   */\n      dup3\n        /* \"#utility.yul\":2615:2653   */\n      tag_29\n      jump\t// in\n    tag_67:\n        /* \"#utility.yul\":2669:2757   */\n      tag_68\n        /* \"#utility.yul\":2750:2756   */\n      dup2\n        /* \"#utility.yul\":2745:2748   */\n      dup6\n        /* \"#utility.yul\":2669:2757   */\n      tag_30\n      jump\t// in\n    tag_68:\n        /* \"#utility.yul\":2662:2757   */\n      swap4\n      pop\n        /* \"#utility.yul\":2766:2831   */\n      tag_69\n        /* \"#utility.yul\":2824:2830   */\n      dup2\n        /* \"#utility.yul\":2819:2822   */\n      dup6\n        /* \"#utility.yul\":2812:2816   */\n      0x20\n        /* \"#utility.yul\":2805:2810   */\n      dup7\n        /* \"#utility.yul\":2801:2817   */\n      add\n        /* \"#utility.yul\":2766:2831   */\n      tag_31\n      jump\t// in\n    tag_69:\n        /* \"#utility.yul\":2856:2862   */\n      dup1\n        /* \"#utility.yul\":2851:2854   */\n      dup5\n        /* \"#utility.yul\":2847:2863   */\n      add\n        /* \"#utility.yul\":2840:2863   */\n      swap2\n      pop\n        /* \"#utility.yul\":2591:2869   */\n      pop\n        /* \"#utility.yul\":2483:2869   */\n      swap3\n      swap2\n      pop\n      pop\n      jump\t// out\n        /* \"#utility.yul\":2875:3146   */\n    tag_12:\n        /* \"#utility.yul\":3005:3008   */\n      0x00\n        /* \"#utility.yul\":3027:3120   */\n      tag_71\n        /* \"#utility.yul\":3116:3119   */\n      dup3\n        /* \"#utility.yul\":3107:3113   */\n      dup5\n        /* \"#utility.yul\":3027:3120   */\n      tag_32\n      jump\t// in\n    tag_71:\n        /* \"#utility.yul\":3020:3120   */\n      swap2\n      pop\n        /* \"#utility.yul\":3137:3140   */\n      dup2\n        /* \"#utility.yul\":3130:3140   */\n      swap1\n      pop\n        /* \"#utility.yul\":2875:3146   */\n      swap3\n      swap2\n      pop\n      pop\n      jump\t// out\n\n    auxdata: 0xa2646970667358221220d5f61c5575db02e17d6fdd7f95cf1ca371b1cd2309a72d3aadc63437f250e9f264736f6c63430008180033\n}\n",
				"bytecode": {
					"linkReferences": {},
					"object": "608060405234801561000f575f80fd5b506102fb8061001d5f395ff3fe608060405234801561000f575f80fd5b5060043610610029575f3560e01c80635c8737fb1461002d575b5f80fd5b610047600480360381019061004291906101b1565b610049565b005b5f600160405160240161005c919061022a565b6040516020818303038152906040527fab6520f4000000000000000000000000000000000000000000000000000000007bffffffffffffffffffffffffffffffffffffffffffffffffffffffff19166020820180517bffffffffffffffffffffffffffffffffffffffffffffffffffffffff838183161783525050505090505f808373ffffffffffffffffffffffffffffffffffffffff168360405161010291906102af565b5f60405180830381855afa9150503d805f811461013a576040519150601f19603f3d011682016040523d82523d5f602084013e61013f565b606091505b50915091508161014d575f80fd5b50505050565b5f80fd5b5f73ffffffffffffffffffffffffffffffffffffffff82169050919050565b5f61018082610157565b9050919050565b61019081610176565b811461019a575f80fd5b50565b5f813590506101ab81610187565b92915050565b5f602082840312156101c6576101c5610153565b5b5f6101d38482850161019d565b91505092915050565b5f819050919050565b5f60ff82169050919050565b5f819050919050565b5f61021461020f61020a846101dc565b6101f1565b6101e5565b9050919050565b610224816101fa565b82525050565b5f60208201905061023d5f83018461021b565b92915050565b5f81519050919050565b5f81905092915050565b5f5b83811015610274578082015181840152602081019050610259565b5f8484015250505050565b5f61028982610243565b610293818561024d565b93506102a3818560208601610257565b80840191505092915050565b5f6102ba828461027f565b91508190509291505056fea2646970667358221220d5f61c5575db02e17d6fdd7f95cf1ca371b1cd2309a72d3aadc63437f250e9f264736f6c63430008180033",
					"opcodes": "PUSH1 0x80 PUSH1 0x40 MSTORE CALLVALUE DUP1 ISZERO PUSH2 0xF JUMPI PUSH0 DUP1 REVERT JUMPDEST POP PUSH2 0x2FB DUP1 PUSH2 0x1D PUSH0 CODECOPY PUSH0 RETURN INVALID PUSH1 0x80 PUSH1 0x40 MSTORE CALLVALUE DUP1 ISZERO PUSH2 0xF JUMPI PUSH0 DUP1 REVERT JUMPDEST POP PUSH1 0x4 CALLDATASIZE LT PUSH2 0x29 JUMPI PUSH0 CALLDATALOAD PUSH1 0xE0 SHR DUP1 PUSH4 0x5C8737FB EQ PUSH2 0x2D JUMPI JUMPDEST PUSH0 DUP1 REVERT JUMPDEST PUSH2 0x47 PUSH1 0x4 DUP1 CALLDATASIZE SUB DUP2 ADD SWAP1 PUSH2 0x42 SWAP2 SWAP1 PUSH2 0x1B1 JUMP JUMPDEST PUSH2 0x49 JUMP JUMPDEST STOP JUMPDEST PUSH0 PUSH1 0x1 PUSH1 0x40 MLOAD PUSH1 0x24 ADD PUSH2 0x5C SWAP2 SWAP1 PUSH2 0x22A JUMP JUMPDEST PUSH1 0x40 MLOAD PUSH1 0x20 DUP2 DUP4 SUB SUB DUP2 MSTORE SWAP1 PUSH1 0x40 MSTORE PUSH32 0xAB6520F400000000000000000000000000000000000000000000000000000000 PUSH28 0xFFFFFFFFFFFFFFFFFFFFFFFFFFFFFFFFFFFFFFFFFFFFFFFFFFFFFFFF NOT AND PUSH1 0x20 DUP3 ADD DUP1 MLOAD PUSH28 0xFFFFFFFFFFFFFFFFFFFFFFFFFFFFFFFFFFFFFFFFFFFFFFFFFFFFFFFF DUP4 DUP2 DUP4 AND OR DUP4 MSTORE POP POP POP POP SWAP1 POP PUSH0 DUP1 DUP4 PUSH20 0xFFFFFFFFFFFFFFFFFFFFFFFFFFFFFFFFFFFFFFFF AND DUP4 PUSH1 0x40 MLOAD PUSH2 0x102 SWAP2 SWAP1 PUSH2 0x2AF JUMP JUMPDEST PUSH0 PUSH1 0x40 MLOAD DUP1 DUP4 SUB DUP2 DUP6 GAS STATICCALL SWAP2 POP POP RETURNDATASIZE DUP1 PUSH0 DUP2 EQ PUSH2 0x13A JUMPI PUSH1 0x40 MLOAD SWAP2 POP PUSH1 0x1F NOT PUSH1 0x3F RETURNDATASIZE ADD AND DUP3 ADD PUSH1 0x40 MSTORE RETURNDATASIZE DUP3 MSTORE RETURNDATASIZE PUSH0 PUSH1 0x20 DUP5 ADD RETURNDATACOPY PUSH2 0x13F JUMP JUMPDEST PUSH1 0x60 SWAP2 POP JUMPDEST POP SWAP2 POP SWAP2 POP DUP2 PUSH2 0x14D JUMPI PUSH0 DUP1 REVERT JUMPDEST POP POP POP POP JUMP JUMPDEST PUSH0 DUP1 REVERT JUMPDEST PUSH0 PUSH20 0xFFFFFFFFFFFFFFFFFFFFFFFFFFFFFFFFFFFFFFFF DUP3 AND SWAP1 POP SWAP2 SWAP1 POP JUMP JUMPDEST PUSH0 PUSH2 0x180 DUP3 PUSH2 0x157 JUMP JUMPDEST SWAP1 POP SWAP2 SWAP1 POP JUMP JUMPDEST PUSH2 0x190 DUP2 PUSH2 0x176 JUMP JUMPDEST DUP2 EQ PUSH2 0x19A JUMPI PUSH0 DUP1 REVERT JUMPDEST POP JUMP JUMPDEST PUSH0 DUP2 CALLDATALOAD SWAP1 POP PUSH2 0x1AB DUP2 PUSH2 0x187 JUMP JUMPDEST SWAP3 SWAP2 POP POP JUMP JUMPDEST PUSH0 PUSH1 0x20 DUP3 DUP5 SUB SLT ISZERO PUSH2 0x1C6 JUMPI PUSH2 0x1C5 PUSH2 0x153 JUMP JUMPDEST JUMPDEST PUSH0 PUSH2 0x1D3 DUP5 DUP3 DUP6 ADD PUSH2 0x19D JUMP JUMPDEST SWAP2 POP POP SWAP3 SWAP2 POP POP JUMP JUMPDEST PUSH0 DUP2 SWAP1 POP SWAP2 SWAP1 POP JUMP JUMPDEST PUSH0 PUSH1 0xFF DUP3 AND SWAP1 POP SWAP2 SWAP1 POP JUMP JUMPDEST PUSH0 DUP2 SWAP1 POP SWAP2 SWAP1 POP JUMP JUMPDEST PUSH0 PUSH2 0x214 PUSH2 0x20F PUSH2 0x20A DUP5 PUSH2 0x1DC JUMP JUMPDEST PUSH2 0x1F1 JUMP JUMPDEST PUSH2 0x1E5 JUMP JUMPDEST SWAP1 POP SWAP2 SWAP1 POP JUMP JUMPDEST PUSH2 0x224 DUP2 PUSH2 0x1FA JUMP JUMPDEST DUP3 MSTORE POP POP JUMP JUMPDEST PUSH0 PUSH1 0x20 DUP3 ADD SWAP1 POP PUSH2 0x23D PUSH0 DUP4 ADD DUP5 PUSH2 0x21B JUMP JUMPDEST SWAP3 SWAP2 POP POP JUMP JUMPDEST PUSH0 DUP2 MLOAD SWAP1 POP SWAP2 SWAP1 POP JUMP JUMPDEST PUSH0 DUP2 SWAP1 POP SWAP3 SWAP2 POP POP JUMP JUMPDEST PUSH0 JUMPDEST DUP4 DUP2 LT ISZERO PUSH2 0x274 JUMPI DUP1 DUP3 ADD MLOAD DUP2 DUP5 ADD MSTORE PUSH1 0x20 DUP2 ADD SWAP1 POP PUSH2 0x259 JUMP JUMPDEST PUSH0 DUP5 DUP5 ADD MSTORE POP POP POP POP JUMP JUMPDEST PUSH0 PUSH2 0x289 DUP3 PUSH2 0x243 JUMP JUMPDEST PUSH2 0x293 DUP2 DUP6 PUSH2 0x24D JUMP JUMPDEST SWAP4 POP PUSH2 0x2A3 DUP2 DUP6 PUSH1 0x20 DUP7 ADD PUSH2 0x257 JUMP JUMPDEST DUP1 DUP5 ADD SWAP2 POP POP SWAP3 SWAP2 POP POP JUMP JUMPDEST PUSH0 PUSH2 0x2BA DUP3 DUP5 PUSH2 0x27F JUMP JUMPDEST SWAP2 POP DUP2 SWAP1 POP SWAP3 SWAP2 POP POP JUMP INVALID LOG2 PUSH5 0x6970667358 0x22 SLT KECCAK256 0xD5 0xF6 SHR SSTORE PUSH22 0xDB02E17D6FDD7F95CF1CA371B1CD2309A72D3AADC634 CALLDATACOPY CALLCODE POP 0xE9 CALLCODE PUSH5 0x736F6C6343 STOP ADDMOD XOR STOP CALLER "
				},
				"gasEstimates": {
					"creation": {
						"codeDepositCost": "152600",
						"executionCost": "194",
						"totalCost": "152794"
					},
					"external": {
						"sCall(address)": "infinite"
					}
				},
				"methodIdentifiers": {
					"sCall(address)": "5c8737fb"
				}
			},
			"storageLayout": {
				"storage": [],
				"types": null
			},
			"userdoc": {
				"kind": "user",
				"methods": {},
				"version": 1
			}
		}
	}
}