{
	"testMappingPointers.sol": {
		"Test": {
			"abi": [
				{
					"inputs": [],
					"stateMutability": "nonpayable",
					"type": "constructor"
				},
				{
					"inputs": [
						{
							"internalType": "uint256",
							"name": "epoch",
							"type": "uint256"
						},
						{
							"internalType": "bytes32",
							"name": "poolId",
							"type": "bytes32"
						},
						{
							"internalType": "address",
							"name": "delegate",
							"type": "address"
						}
					],
					"name": "delegateEpochPoolData",
					"outputs": [
						{
							"internalType": "uint128",
							"name": "totalVotesSpent",
							"type": "uint128"
						},
						{
							"internalType": "uint128",
							"name": "totalRewards",
							"type": "uint128"
						},
						{
							"internalType": "uint128",
							"name": "totalClaimed",
							"type": "uint128"
						}
					],
					"stateMutability": "view",
					"type": "function"
				},
				{
					"inputs": [
						{
							"internalType": "bool",
							"name": "isDelegate",
							"type": "bool"
						}
					],
					"name": "test",
					"outputs": [
						{
							"internalType": "uint256",
							"name": "",
							"type": "uint256"
						}
					],
					"stateMutability": "view",
					"type": "function"
				},
				{
					"inputs": [
						{
							"internalType": "uint256",
							"name": "epoch",
							"type": "uint256"
						},
						{
							"internalType": "bytes32",
							"name": "poolId",
							"type": "bytes32"
						},
						{
							"internalType": "address",
							"name": "user",
							"type": "address"
						}
					],
					"name": "usersEpochPoolData",
					"outputs": [
						{
							"internalType": "uint128",
							"name": "totalVotesSpent",
							"type": "uint128"
						},
						{
							"internalType": "uint128",
							"name": "totalRewards",
							"type": "uint128"
						},
						{
							"internalType": "uint128",
							"name": "totalClaimed",
							"type": "uint128"
						}
					],
					"stateMutability": "view",
					"type": "function"
				}
			],
			"devdoc": {
				"kind": "dev",
				"methods": {},
				"version": 1
			},
			"evm": {
				"assembly": "    /* \"testMappingPointers.sol\":76:1424  contract Test {... */\n  mstore(0x40, 0x80)\n    /* \"testMappingPointers.sol\":897:1049  constructor(){... */\n  callvalue\n  dup1\n  iszero\n  tag_1\n  jumpi\n  0x00\n  dup1\n  revert\ntag_1:\n  pop\n    /* \"testMappingPointers.sol\":973:974  1 */\n  0x01\n    /* \"testMappingPointers.sol\":921:939  usersEpochPoolData */\n  dup1\n    /* \"testMappingPointers.sol\":921:942  usersEpochPoolData[0] */\n  0x00\n    /* \"testMappingPointers.sol\":940:941  0 */\n  dup1\n    /* \"testMappingPointers.sol\":921:942  usersEpochPoolData[0] */\n  dup2\n  mstore\n  0x20\n  add\n  swap1\n  dup2\n  mstore\n  0x20\n  add\n  0x00\n  keccak256\n    /* \"testMappingPointers.sol\":921:945  usersEpochPoolData[0][0] */\n  0x00\n    /* \"testMappingPointers.sol\":943:944  0 */\n  dup1\n    /* \"testMappingPointers.sol\":921:945  usersEpochPoolData[0][0] */\n  0x00\n  shl\n  dup2\n  mstore\n  0x20\n  add\n  swap1\n  dup2\n  mstore\n  0x20\n  add\n  0x00\n  keccak256\n    /* \"testMappingPointers.sol\":921:957  usersEpochPoolData[0][0][address(0)] */\n  0x00\n    /* \"testMappingPointers.sol\":954:955  0 */\n  dup1\n    /* \"testMappingPointers.sol\":921:957  usersEpochPoolData[0][0][address(0)] */\n  0xffffffffffffffffffffffffffffffffffffffff\n  and\n  0xffffffffffffffffffffffffffffffffffffffff\n  and\n  dup2\n  mstore\n  0x20\n  add\n  swap1\n  dup2\n  mstore\n  0x20\n  add\n  0x00\n  keccak256\n    /* \"testMappingPointers.sol\":921:970  usersEpochPoolData[0][0][address(0)].totalClaimed */\n  0x01\n  add\n  0x00\n    /* \"testMappingPointers.sol\":921:974  usersEpochPoolData[0][0][address(0)].totalClaimed = 1 */\n  0x0100\n  exp\n  dup2\n  sload\n  dup2\n  0xffffffffffffffffffffffffffffffff\n  mul\n  not\n  and\n  swap1\n  dup4\n  0xffffffffffffffffffffffffffffffff\n  and\n  mul\n  or\n  swap1\n  sstore\n  pop\n    /* \"testMappingPointers.sol\":1040:1041  2 */\n  0x02\n    /* \"testMappingPointers.sol\":985:1006  delegateEpochPoolData */\n  0x00\n    /* \"testMappingPointers.sol\":985:1009  delegateEpochPoolData[0] */\n  dup1\n    /* \"testMappingPointers.sol\":1007:1008  0 */\n  dup1\n    /* \"testMappingPointers.sol\":985:1009  delegateEpochPoolData[0] */\n  dup2\n  mstore\n  0x20\n  add\n  swap1\n  dup2\n  mstore\n  0x20\n  add\n  0x00\n  keccak256\n    /* \"testMappingPointers.sol\":985:1012  delegateEpochPoolData[0][0] */\n  0x00\n    /* \"testMappingPointers.sol\":1010:1011  0 */\n  dup1\n    /* \"testMappingPointers.sol\":985:1012  delegateEpochPoolData[0][0] */\n  0x00\n  shl\n  dup2\n  mstore\n  0x20\n  add\n  swap1\n  dup2\n  mstore\n  0x20\n  add\n  0x00\n  keccak256\n    /* \"testMappingPointers.sol\":985:1024  delegateEpochPoolData[0][0][address(0)] */\n  0x00\n    /* \"testMappingPointers.sol\":1021:1022  0 */\n  dup1\n    /* \"testMappingPointers.sol\":985:1024  delegateEpochPoolData[0][0][address(0)] */\n  0xffffffffffffffffffffffffffffffffffffffff\n  and\n  0xffffffffffffffffffffffffffffffffffffffff\n  and\n  dup2\n  mstore\n  0x20\n  add\n  swap1\n  dup2\n  mstore\n  0x20\n  add\n  0x00\n  keccak256\n    /* \"testMappingPointers.sol\":985:1037  delegateEpochPoolData[0][0][address(0)].totalClaimed */\n  0x01\n  add\n  0x00\n    /* \"testMappingPointers.sol\":985:1041  delegateEpochPoolData[0][0][address(0)].totalClaimed = 2 */\n  0x0100\n  exp\n  dup2\n  sload\n  dup2\n  0xffffffffffffffffffffffffffffffff\n  mul\n  not\n  and\n  swap1\n  dup4\n  0xffffffffffffffffffffffffffffffff\n  and\n  mul\n  or\n  swap1\n  sstore\n  pop\n    /* \"testMappingPointers.sol\":76:1424  contract Test {... */\n  dataSize(sub_0)\n  dup1\n  dataOffset(sub_0)\n  0x00\n  codecopy\n  0x00\n  return\nstop\n\nsub_0: assembly {\n        /* \"testMappingPointers.sol\":76:1424  contract Test {... */\n      mstore(0x40, 0x80)\n      callvalue\n      dup1\n      iszero\n      tag_1\n      jumpi\n      0x00\n      dup1\n      revert\n    tag_1:\n      pop\n      jumpi(tag_2, lt(calldatasize, 0x04))\n      shr(0xe0, calldataload(0x00))\n      dup1\n      0x198e54c4\n      eq\n      tag_3\n      jumpi\n      dup1\n      0x36091dff\n      eq\n      tag_4\n      jumpi\n      dup1\n      0x6353e8e6\n      eq\n      tag_5\n      jumpi\n    tag_2:\n      0x00\n      dup1\n      revert\n        /* \"testMappingPointers.sol\":615:752  mapping(uint256 epoch => mapping(bytes32 poolId => mapping(address delegate => DelegateData delegateAgent))) public delegateEpochPoolData */\n    tag_3:\n      tag_6\n      0x04\n      dup1\n      calldatasize\n      sub\n      dup2\n      add\n      swap1\n      tag_7\n      swap2\n      swap1\n      tag_8\n      jump\t// in\n    tag_7:\n      tag_9\n      jump\t// in\n    tag_6:\n      mload(0x40)\n      tag_10\n      swap4\n      swap3\n      swap2\n      swap1\n      tag_11\n      jump\t// in\n    tag_10:\n      mload(0x40)\n      dup1\n      swap2\n      sub\n      swap1\n      return\n        /* \"testMappingPointers.sol\":1057:1419  function test(bool isDelegate) public view returns(uint256) {... */\n    tag_4:\n      tag_12\n      0x04\n      dup1\n      calldatasize\n      sub\n      dup2\n      add\n      swap1\n      tag_13\n      swap2\n      swap1\n      tag_14\n      jump\t// in\n    tag_13:\n      tag_15\n      jump\t// in\n    tag_12:\n      mload(0x40)\n      tag_16\n      swap2\n      swap1\n      tag_17\n      jump\t// in\n    tag_16:\n      mload(0x40)\n      dup1\n      swap2\n      sub\n      swap1\n      return\n        /* \"testMappingPointers.sol\":759:888  mapping(uint256 epoch => mapping(bytes32 poolId => mapping(address user => DelegateData userPoolData))) public usersEpochPoolData */\n    tag_5:\n      tag_18\n      0x04\n      dup1\n      calldatasize\n      sub\n      dup2\n      add\n      swap1\n      tag_19\n      swap2\n      swap1\n      tag_8\n      jump\t// in\n    tag_19:\n      tag_20\n      jump\t// in\n    tag_18:\n      mload(0x40)\n      tag_21\n      swap4\n      swap3\n      swap2\n      swap1\n      tag_11\n      jump\t// in\n    tag_21:\n      mload(0x40)\n      dup1\n      swap2\n      sub\n      swap1\n      return\n        /* \"testMappingPointers.sol\":615:752  mapping(uint256 epoch => mapping(bytes32 poolId => mapping(address delegate => DelegateData delegateAgent))) public delegateEpochPoolData */\n    tag_9:\n      mstore(0x20, 0x00)\n      dup3\n      0x00\n      mstore\n      mstore(0x20, keccak256(0x00, 0x40))\n      dup2\n      0x00\n      mstore\n      mstore(0x20, keccak256(0x00, 0x40))\n      dup1\n      0x00\n      mstore\n      keccak256(0x00, 0x40)\n      0x00\n      swap3\n      pop\n      swap3\n      pop\n      pop\n      pop\n      dup1\n      0x00\n      add\n      0x00\n      swap1\n      sload\n      swap1\n      0x0100\n      exp\n      swap1\n      div\n      0xffffffffffffffffffffffffffffffff\n      and\n      swap1\n      dup1\n      0x00\n      add\n      0x10\n      swap1\n      sload\n      swap1\n      0x0100\n      exp\n      swap1\n      div\n      0xffffffffffffffffffffffffffffffff\n      and\n      swap1\n      dup1\n      0x01\n      add\n      0x00\n      swap1\n      sload\n      swap1\n      0x0100\n      exp\n      swap1\n      div\n      0xffffffffffffffffffffffffffffffff\n      and\n      swap1\n      pop\n      dup4\n      jump\t// out\n        /* \"testMappingPointers.sol\":1057:1419  function test(bool isDelegate) public view returns(uint256) {... */\n    tag_15:\n        /* \"testMappingPointers.sol\":1108:1115  uint256 */\n      0x00\n        /* \"testMappingPointers.sol\":1138:1270  mapping(uint256 epoch => mapping(bytes32 poolId => mapping(address user => DelegateData userPoolData))) storage accountEpochPoolData */\n      dup1\n        /* \"testMappingPointers.sol\":1281:1291  isDelegate */\n      dup3\n        /* \"testMappingPointers.sol\":1281:1340  isDelegate ? (delegateEpochPoolData) : (usersEpochPoolData) */\n      tag_23\n      jumpi\n        /* \"testMappingPointers.sol\":1321:1339  usersEpochPoolData */\n      0x01\n        /* \"testMappingPointers.sol\":1281:1340  isDelegate ? (delegateEpochPoolData) : (usersEpochPoolData) */\n      jump(tag_24)\n    tag_23:\n        /* \"testMappingPointers.sol\":1295:1316  delegateEpochPoolData */\n      0x00\n        /* \"testMappingPointers.sol\":1281:1340  isDelegate ? (delegateEpochPoolData) : (usersEpochPoolData) */\n    tag_24:\n        /* \"testMappingPointers.sol\":1138:1340  mapping(uint256 epoch => mapping(bytes32 poolId => mapping(address user => DelegateData userPoolData))) storage accountEpochPoolData... */\n      swap1\n      pop\n        /* \"testMappingPointers.sol\":1360:1380  accountEpochPoolData */\n      dup1\n        /* \"testMappingPointers.sol\":1360:1383  accountEpochPoolData[0] */\n      0x00\n        /* \"testMappingPointers.sol\":1381:1382  0 */\n      dup1\n        /* \"testMappingPointers.sol\":1360:1383  accountEpochPoolData[0] */\n      dup2\n      mstore\n      0x20\n      add\n      swap1\n      dup2\n      mstore\n      0x20\n      add\n      0x00\n      keccak256\n        /* \"testMappingPointers.sol\":1360:1386  accountEpochPoolData[0][0] */\n      0x00\n        /* \"testMappingPointers.sol\":1384:1385  0 */\n      dup1\n        /* \"testMappingPointers.sol\":1360:1386  accountEpochPoolData[0][0] */\n      0x00\n      shl\n      dup2\n      mstore\n      0x20\n      add\n      swap1\n      dup2\n      mstore\n      0x20\n      add\n      0x00\n      keccak256\n        /* \"testMappingPointers.sol\":1360:1398  accountEpochPoolData[0][0][address(0)] */\n      0x00\n        /* \"testMappingPointers.sol\":1395:1396  0 */\n      dup1\n        /* \"testMappingPointers.sol\":1360:1398  accountEpochPoolData[0][0][address(0)] */\n      0xffffffffffffffffffffffffffffffffffffffff\n      and\n      0xffffffffffffffffffffffffffffffffffffffff\n      and\n      dup2\n      mstore\n      0x20\n      add\n      swap1\n      dup2\n      mstore\n      0x20\n      add\n      0x00\n      keccak256\n        /* \"testMappingPointers.sol\":1360:1411  accountEpochPoolData[0][0][address(0)].totalClaimed */\n      0x01\n      add\n      0x00\n      swap1\n      sload\n      swap1\n      0x0100\n      exp\n      swap1\n      div\n      0xffffffffffffffffffffffffffffffff\n      and\n        /* \"testMappingPointers.sol\":1353:1411  return accountEpochPoolData[0][0][address(0)].totalClaimed */\n      0xffffffffffffffffffffffffffffffff\n      and\n      swap2\n      pop\n      pop\n        /* \"testMappingPointers.sol\":1057:1419  function test(bool isDelegate) public view returns(uint256) {... */\n      swap2\n      swap1\n      pop\n      jump\t// out\n        /* \"testMappingPointers.sol\":759:888  mapping(uint256 epoch => mapping(bytes32 poolId => mapping(address user => DelegateData userPoolData))) public usersEpochPoolData */\n    tag_20:\n      mstore(0x20, 0x01)\n      dup3\n      0x00\n      mstore\n      mstore(0x20, keccak256(0x00, 0x40))\n      dup2\n      0x00\n      mstore\n      mstore(0x20, keccak256(0x00, 0x40))\n      dup1\n      0x00\n      mstore\n      keccak256(0x00, 0x40)\n      0x00\n      swap3\n      pop\n      swap3\n      pop\n      pop\n      pop\n      dup1\n      0x00\n      add\n      0x00\n      swap1\n      sload\n      swap1\n      0x0100\n      exp\n      swap1\n      div\n      0xffffffffffffffffffffffffffffffff\n      and\n      swap1\n      dup1\n      0x00\n      add\n      0x10\n      swap1\n      sload\n      swap1\n      0x0100\n      exp\n      swap1\n      div\n      0xffffffffffffffffffffffffffffffff\n      and\n      swap1\n      dup1\n      0x01\n      add\n      0x00\n      swap1\n      sload\n      swap1\n      0x0100\n      exp\n      swap1\n      div\n      0xffffffffffffffffffffffffffffffff\n      and\n      swap1\n      pop\n      dup4\n      jump\t// out\n        /* \"#utility.yul\":88:205   */\n    tag_26:\n        /* \"#utility.yul\":197:198   */\n      0x00\n        /* \"#utility.yul\":194:195   */\n      dup1\n        /* \"#utility.yul\":187:199   */\n      revert\n        /* \"#utility.yul\":334:411   */\n    tag_28:\n        /* \"#utility.yul\":371:378   */\n      0x00\n        /* \"#utility.yul\":400:405   */\n      dup2\n        /* \"#utility.yul\":389:405   */\n      swap1\n      pop\n        /* \"#utility.yul\":334:411   */\n      swap2\n      swap1\n      pop\n      jump\t// out\n        /* \"#utility.yul\":417:539   */\n    tag_29:\n        /* \"#utility.yul\":490:514   */\n      tag_50\n        /* \"#utility.yul\":508:513   */\n      dup2\n        /* \"#utility.yul\":490:514   */\n      tag_28\n      jump\t// in\n    tag_50:\n        /* \"#utility.yul\":483:488   */\n      dup2\n        /* \"#utility.yul\":480:515   */\n      eq\n        /* \"#utility.yul\":470:533   */\n      tag_51\n      jumpi\n        /* \"#utility.yul\":529:530   */\n      0x00\n        /* \"#utility.yul\":526:527   */\n      dup1\n        /* \"#utility.yul\":519:531   */\n      revert\n        /* \"#utility.yul\":470:533   */\n    tag_51:\n        /* \"#utility.yul\":417:539   */\n      pop\n      jump\t// out\n        /* \"#utility.yul\":545:684   */\n    tag_30:\n        /* \"#utility.yul\":591:596   */\n      0x00\n        /* \"#utility.yul\":629:635   */\n      dup2\n        /* \"#utility.yul\":616:636   */\n      calldataload\n        /* \"#utility.yul\":607:636   */\n      swap1\n      pop\n        /* \"#utility.yul\":645:678   */\n      tag_53\n        /* \"#utility.yul\":672:677   */\n      dup2\n        /* \"#utility.yul\":645:678   */\n      tag_29\n      jump\t// in\n    tag_53:\n        /* \"#utility.yul\":545:684   */\n      swap3\n      swap2\n      pop\n      pop\n      jump\t// out\n        /* \"#utility.yul\":690:767   */\n    tag_31:\n        /* \"#utility.yul\":727:734   */\n      0x00\n        /* \"#utility.yul\":756:761   */\n      dup2\n        /* \"#utility.yul\":745:761   */\n      swap1\n      pop\n        /* \"#utility.yul\":690:767   */\n      swap2\n      swap1\n      pop\n      jump\t// out\n        /* \"#utility.yul\":773:895   */\n    tag_32:\n        /* \"#utility.yul\":846:870   */\n      tag_56\n        /* \"#utility.yul\":864:869   */\n      dup2\n        /* \"#utility.yul\":846:870   */\n      tag_31\n      jump\t// in\n    tag_56:\n        /* \"#utility.yul\":839:844   */\n      dup2\n        /* \"#utility.yul\":836:871   */\n      eq\n        /* \"#utility.yul\":826:889   */\n      tag_57\n      jumpi\n        /* \"#utility.yul\":885:886   */\n      0x00\n        /* \"#utility.yul\":882:883   */\n      dup1\n        /* \"#utility.yul\":875:887   */\n      revert\n        /* \"#utility.yul\":826:889   */\n    tag_57:\n        /* \"#utility.yul\":773:895   */\n      pop\n      jump\t// out\n        /* \"#utility.yul\":901:1040   */\n    tag_33:\n        /* \"#utility.yul\":947:952   */\n      0x00\n        /* \"#utility.yul\":985:991   */\n      dup2\n        /* \"#utility.yul\":972:992   */\n      calldataload\n        /* \"#utility.yul\":963:992   */\n      swap1\n      pop\n        /* \"#utility.yul\":1001:1034   */\n      tag_59\n        /* \"#utility.yul\":1028:1033   */\n      dup2\n        /* \"#utility.yul\":1001:1034   */\n      tag_32\n      jump\t// in\n    tag_59:\n        /* \"#utility.yul\":901:1040   */\n      swap3\n      swap2\n      pop\n      pop\n      jump\t// out\n        /* \"#utility.yul\":1046:1172   */\n    tag_34:\n        /* \"#utility.yul\":1083:1090   */\n      0x00\n        /* \"#utility.yul\":1123:1165   */\n      0xffffffffffffffffffffffffffffffffffffffff\n        /* \"#utility.yul\":1116:1121   */\n      dup3\n        /* \"#utility.yul\":1112:1166   */\n      and\n        /* \"#utility.yul\":1101:1166   */\n      swap1\n      pop\n        /* \"#utility.yul\":1046:1172   */\n      swap2\n      swap1\n      pop\n      jump\t// out\n        /* \"#utility.yul\":1178:1274   */\n    tag_35:\n        /* \"#utility.yul\":1215:1222   */\n      0x00\n        /* \"#utility.yul\":1244:1268   */\n      tag_62\n        /* \"#utility.yul\":1262:1267   */\n      dup3\n        /* \"#utility.yul\":1244:1268   */\n      tag_34\n      jump\t// in\n    tag_62:\n        /* \"#utility.yul\":1233:1268   */\n      swap1\n      pop\n        /* \"#utility.yul\":1178:1274   */\n      swap2\n      swap1\n      pop\n      jump\t// out\n        /* \"#utility.yul\":1280:1402   */\n    tag_36:\n        /* \"#utility.yul\":1353:1377   */\n      tag_64\n        /* \"#utility.yul\":1371:1376   */\n      dup2\n        /* \"#utility.yul\":1353:1377   */\n      tag_35\n      jump\t// in\n    tag_64:\n        /* \"#utility.yul\":1346:1351   */\n      dup2\n        /* \"#utility.yul\":1343:1378   */\n      eq\n        /* \"#utility.yul\":1333:1396   */\n      tag_65\n      jumpi\n        /* \"#utility.yul\":1392:1393   */\n      0x00\n        /* \"#utility.yul\":1389:1390   */\n      dup1\n        /* \"#utility.yul\":1382:1394   */\n      revert\n        /* \"#utility.yul\":1333:1396   */\n    tag_65:\n        /* \"#utility.yul\":1280:1402   */\n      pop\n      jump\t// out\n        /* \"#utility.yul\":1408:1547   */\n    tag_37:\n        /* \"#utility.yul\":1454:1459   */\n      0x00\n        /* \"#utility.yul\":1492:1498   */\n      dup2\n        /* \"#utility.yul\":1479:1499   */\n      calldataload\n        /* \"#utility.yul\":1470:1499   */\n      swap1\n      pop\n        /* \"#utility.yul\":1508:1541   */\n      tag_67\n        /* \"#utility.yul\":1535:1540   */\n      dup2\n        /* \"#utility.yul\":1508:1541   */\n      tag_36\n      jump\t// in\n    tag_67:\n        /* \"#utility.yul\":1408:1547   */\n      swap3\n      swap2\n      pop\n      pop\n      jump\t// out\n        /* \"#utility.yul\":1553:2172   */\n    tag_8:\n        /* \"#utility.yul\":1630:1636   */\n      0x00\n        /* \"#utility.yul\":1638:1644   */\n      dup1\n        /* \"#utility.yul\":1646:1652   */\n      0x00\n        /* \"#utility.yul\":1695:1697   */\n      0x60\n        /* \"#utility.yul\":1683:1692   */\n      dup5\n        /* \"#utility.yul\":1674:1681   */\n      dup7\n        /* \"#utility.yul\":1670:1693   */\n      sub\n        /* \"#utility.yul\":1666:1698   */\n      slt\n        /* \"#utility.yul\":1663:1782   */\n      iszero\n      tag_69\n      jumpi\n        /* \"#utility.yul\":1701:1780   */\n      tag_70\n      tag_26\n      jump\t// in\n    tag_70:\n        /* \"#utility.yul\":1663:1782   */\n    tag_69:\n        /* \"#utility.yul\":1821:1822   */\n      0x00\n        /* \"#utility.yul\":1846:1899   */\n      tag_71\n        /* \"#utility.yul\":1891:1898   */\n      dup7\n        /* \"#utility.yul\":1882:1888   */\n      dup3\n        /* \"#utility.yul\":1871:1880   */\n      dup8\n        /* \"#utility.yul\":1867:1889   */\n      add\n        /* \"#utility.yul\":1846:1899   */\n      tag_30\n      jump\t// in\n    tag_71:\n        /* \"#utility.yul\":1836:1899   */\n      swap4\n      pop\n        /* \"#utility.yul\":1792:1909   */\n      pop\n        /* \"#utility.yul\":1948:1950   */\n      0x20\n        /* \"#utility.yul\":1974:2027   */\n      tag_72\n        /* \"#utility.yul\":2019:2026   */\n      dup7\n        /* \"#utility.yul\":2010:2016   */\n      dup3\n        /* \"#utility.yul\":1999:2008   */\n      dup8\n        /* \"#utility.yul\":1995:2017   */\n      add\n        /* \"#utility.yul\":1974:2027   */\n      tag_33\n      jump\t// in\n    tag_72:\n        /* \"#utility.yul\":1964:2027   */\n      swap3\n      pop\n        /* \"#utility.yul\":1919:2037   */\n      pop\n        /* \"#utility.yul\":2076:2078   */\n      0x40\n        /* \"#utility.yul\":2102:2155   */\n      tag_73\n        /* \"#utility.yul\":2147:2154   */\n      dup7\n        /* \"#utility.yul\":2138:2144   */\n      dup3\n        /* \"#utility.yul\":2127:2136   */\n      dup8\n        /* \"#utility.yul\":2123:2145   */\n      add\n        /* \"#utility.yul\":2102:2155   */\n      tag_37\n      jump\t// in\n    tag_73:\n        /* \"#utility.yul\":2092:2155   */\n      swap2\n      pop\n        /* \"#utility.yul\":2047:2165   */\n      pop\n        /* \"#utility.yul\":1553:2172   */\n      swap3\n      pop\n      swap3\n      pop\n      swap3\n      jump\t// out\n        /* \"#utility.yul\":2178:2296   */\n    tag_38:\n        /* \"#utility.yul\":2215:2222   */\n      0x00\n        /* \"#utility.yul\":2255:2289   */\n      0xffffffffffffffffffffffffffffffff\n        /* \"#utility.yul\":2248:2253   */\n      dup3\n        /* \"#utility.yul\":2244:2290   */\n      and\n        /* \"#utility.yul\":2233:2290   */\n      swap1\n      pop\n        /* \"#utility.yul\":2178:2296   */\n      swap2\n      swap1\n      pop\n      jump\t// out\n        /* \"#utility.yul\":2302:2420   */\n    tag_39:\n        /* \"#utility.yul\":2389:2413   */\n      tag_76\n        /* \"#utility.yul\":2407:2412   */\n      dup2\n        /* \"#utility.yul\":2389:2413   */\n      tag_38\n      jump\t// in\n    tag_76:\n        /* \"#utility.yul\":2384:2387   */\n      dup3\n        /* \"#utility.yul\":2377:2414   */\n      mstore\n        /* \"#utility.yul\":2302:2420   */\n      pop\n      pop\n      jump\t// out\n        /* \"#utility.yul\":2426:2868   */\n    tag_11:\n        /* \"#utility.yul\":2575:2579   */\n      0x00\n        /* \"#utility.yul\":2613:2615   */\n      0x60\n        /* \"#utility.yul\":2602:2611   */\n      dup3\n        /* \"#utility.yul\":2598:2616   */\n      add\n        /* \"#utility.yul\":2590:2616   */\n      swap1\n      pop\n        /* \"#utility.yul\":2626:2697   */\n      tag_78\n        /* \"#utility.yul\":2694:2695   */\n      0x00\n        /* \"#utility.yul\":2683:2692   */\n      dup4\n        /* \"#utility.yul\":2679:2696   */\n      add\n        /* \"#utility.yul\":2670:2676   */\n      dup7\n        /* \"#utility.yul\":2626:2697   */\n      tag_39\n      jump\t// in\n    tag_78:\n        /* \"#utility.yul\":2707:2779   */\n      tag_79\n        /* \"#utility.yul\":2775:2777   */\n      0x20\n        /* \"#utility.yul\":2764:2773   */\n      dup4\n        /* \"#utility.yul\":2760:2778   */\n      add\n        /* \"#utility.yul\":2751:2757   */\n      dup6\n        /* \"#utility.yul\":2707:2779   */\n      tag_39\n      jump\t// in\n    tag_79:\n        /* \"#utility.yul\":2789:2861   */\n      tag_80\n        /* \"#utility.yul\":2857:2859   */\n      0x40\n        /* \"#utility.yul\":2846:2855   */\n      dup4\n        /* \"#utility.yul\":2842:2860   */\n      add\n        /* \"#utility.yul\":2833:2839   */\n      dup5\n        /* \"#utility.yul\":2789:2861   */\n      tag_39\n      jump\t// in\n    tag_80:\n        /* \"#utility.yul\":2426:2868   */\n      swap5\n      swap4\n      pop\n      pop\n      pop\n      pop\n      jump\t// out\n        /* \"#utility.yul\":2874:2964   */\n    tag_40:\n        /* \"#utility.yul\":2908:2915   */\n      0x00\n        /* \"#utility.yul\":2951:2956   */\n      dup2\n        /* \"#utility.yul\":2944:2957   */\n      iszero\n        /* \"#utility.yul\":2937:2958   */\n      iszero\n        /* \"#utility.yul\":2926:2958   */\n      swap1\n      pop\n        /* \"#utility.yul\":2874:2964   */\n      swap2\n      swap1\n      pop\n      jump\t// out\n        /* \"#utility.yul\":2970:3086   */\n    tag_41:\n        /* \"#utility.yul\":3040:3061   */\n      tag_83\n        /* \"#utility.yul\":3055:3060   */\n      dup2\n        /* \"#utility.yul\":3040:3061   */\n      tag_40\n      jump\t// in\n    tag_83:\n        /* \"#utility.yul\":3033:3038   */\n      dup2\n        /* \"#utility.yul\":3030:3062   */\n      eq\n        /* \"#utility.yul\":3020:3080   */\n      tag_84\n      jumpi\n        /* \"#utility.yul\":3076:3077   */\n      0x00\n        /* \"#utility.yul\":3073:3074   */\n      dup1\n        /* \"#utility.yul\":3066:3078   */\n      revert\n        /* \"#utility.yul\":3020:3080   */\n    tag_84:\n        /* \"#utility.yul\":2970:3086   */\n      pop\n      jump\t// out\n        /* \"#utility.yul\":3092:3225   */\n    tag_42:\n        /* \"#utility.yul\":3135:3140   */\n      0x00\n        /* \"#utility.yul\":3173:3179   */\n      dup2\n        /* \"#utility.yul\":3160:3180   */\n      calldataload\n        /* \"#utility.yul\":3151:3180   */\n      swap1\n      pop\n        /* \"#utility.yul\":3189:3219   */\n      tag_86\n        /* \"#utility.yul\":3213:3218   */\n      dup2\n        /* \"#utility.yul\":3189:3219   */\n      tag_41\n      jump\t// in\n    tag_86:\n        /* \"#utility.yul\":3092:3225   */\n      swap3\n      swap2\n      pop\n      pop\n      jump\t// out\n        /* \"#utility.yul\":3231:3554   */\n    tag_14:\n        /* \"#utility.yul\":3287:3293   */\n      0x00\n        /* \"#utility.yul\":3336:3338   */\n      0x20\n        /* \"#utility.yul\":3324:3333   */\n      dup3\n        /* \"#utility.yul\":3315:3322   */\n      dup5\n        /* \"#utility.yul\":3311:3334   */\n      sub\n        /* \"#utility.yul\":3307:3339   */\n      slt\n        /* \"#utility.yul\":3304:3423   */\n      iszero\n      tag_88\n      jumpi\n        /* \"#utility.yul\":3342:3421   */\n      tag_89\n      tag_26\n      jump\t// in\n    tag_89:\n        /* \"#utility.yul\":3304:3423   */\n    tag_88:\n        /* \"#utility.yul\":3462:3463   */\n      0x00\n        /* \"#utility.yul\":3487:3537   */\n      tag_90\n        /* \"#utility.yul\":3529:3536   */\n      dup5\n        /* \"#utility.yul\":3520:3526   */\n      dup3\n        /* \"#utility.yul\":3509:3518   */\n      dup6\n        /* \"#utility.yul\":3505:3527   */\n      add\n        /* \"#utility.yul\":3487:3537   */\n      tag_42\n      jump\t// in\n    tag_90:\n        /* \"#utility.yul\":3477:3537   */\n      swap2\n      pop\n        /* \"#utility.yul\":3433:3547   */\n      pop\n        /* \"#utility.yul\":3231:3554   */\n      swap3\n      swap2\n      pop\n      pop\n      jump\t// out\n        /* \"#utility.yul\":3560:3678   */\n    tag_43:\n        /* \"#utility.yul\":3647:3671   */\n      tag_92\n        /* \"#utility.yul\":3665:3670   */\n      dup2\n        /* \"#utility.yul\":3647:3671   */\n      tag_28\n      jump\t// in\n    tag_92:\n        /* \"#utility.yul\":3642:3645   */\n      dup3\n        /* \"#utility.yul\":3635:3672   */\n      mstore\n        /* \"#utility.yul\":3560:3678   */\n      pop\n      pop\n      jump\t// out\n        /* \"#utility.yul\":3684:3906   */\n    tag_17:\n        /* \"#utility.yul\":3777:3781   */\n      0x00\n        /* \"#utility.yul\":3815:3817   */\n      0x20\n        /* \"#utility.yul\":3804:3813   */\n      dup3\n        /* \"#utility.yul\":3800:3818   */\n      add\n        /* \"#utility.yul\":3792:3818   */\n      swap1\n      pop\n        /* \"#utility.yul\":3828:3899   */\n      tag_94\n        /* \"#utility.yul\":3896:3897   */\n      0x00\n        /* \"#utility.yul\":3885:3894   */\n      dup4\n        /* \"#utility.yul\":3881:3898   */\n      add\n        /* \"#utility.yul\":3872:3878   */\n      dup5\n        /* \"#utility.yul\":3828:3899   */\n      tag_43\n      jump\t// in\n    tag_94:\n        /* \"#utility.yul\":3684:3906   */\n      swap3\n      swap2\n      pop\n      pop\n      jump\t// out\n\n    auxdata: 0xa2646970667358221220382edec6aa932e6e9478110859da067bcb2dad2d8cbcc4b9377ffd2a9945802b64736f6c63430008180033\n}\n",
				"bytecode": {
					"linkReferences": {},
					"object": "608060405234801561000f575f80fd5b506001805f8081526020019081526020015f205f805f1b81526020019081526020015f205f8073ffffffffffffffffffffffffffffffffffffffff1673ffffffffffffffffffffffffffffffffffffffff1681526020019081526020015f206001015f6101000a8154816fffffffffffffffffffffffffffffffff02191690836fffffffffffffffffffffffffffffffff16021790555060025f808081526020019081526020015f205f805f1b81526020019081526020015f205f8073ffffffffffffffffffffffffffffffffffffffff1673ffffffffffffffffffffffffffffffffffffffff1681526020019081526020015f206001015f6101000a8154816fffffffffffffffffffffffffffffffff02191690836fffffffffffffffffffffffffffffffff1602179055506104c8806101495f395ff3fe608060405234801561000f575f80fd5b506004361061003f575f3560e01c8063198e54c41461004357806336091dff146100755780636353e8e6146100a5575b5f80fd5b61005d6004803603810190610058919061035b565b6100d7565b60405161006c939291906103d5565b60405180910390f35b61008f600480360381019061008a919061043f565b610163565b60405161009c9190610479565b60405180910390f35b6100bf60048036038101906100ba919061035b565b61020a565b6040516100ce939291906103d5565b60405180910390f35b5f602052825f5260405f20602052815f5260405f20602052805f5260405f205f925092505050805f015f9054906101000a90046fffffffffffffffffffffffffffffffff1690805f0160109054906101000a90046fffffffffffffffffffffffffffffffff1690806001015f9054906101000a90046fffffffffffffffffffffffffffffffff16905083565b5f8082610171576001610173565b5f5b9050805f8081526020019081526020015f205f805f1b81526020019081526020015f205f8073ffffffffffffffffffffffffffffffffffffffff1673ffffffffffffffffffffffffffffffffffffffff1681526020019081526020015f206001015f9054906101000a90046fffffffffffffffffffffffffffffffff166fffffffffffffffffffffffffffffffff16915050919050565b6001602052825f5260405f20602052815f5260405f20602052805f5260405f205f925092505050805f015f9054906101000a90046fffffffffffffffffffffffffffffffff1690805f0160109054906101000a90046fffffffffffffffffffffffffffffffff1690806001015f9054906101000a90046fffffffffffffffffffffffffffffffff16905083565b5f80fd5b5f819050919050565b6102ad8161029b565b81146102b7575f80fd5b50565b5f813590506102c8816102a4565b92915050565b5f819050919050565b6102e0816102ce565b81146102ea575f80fd5b50565b5f813590506102fb816102d7565b92915050565b5f73ffffffffffffffffffffffffffffffffffffffff82169050919050565b5f61032a82610301565b9050919050565b61033a81610320565b8114610344575f80fd5b50565b5f8135905061035581610331565b92915050565b5f805f6060848603121561037257610371610297565b5b5f61037f868287016102ba565b9350506020610390868287016102ed565b92505060406103a186828701610347565b9150509250925092565b5f6fffffffffffffffffffffffffffffffff82169050919050565b6103cf816103ab565b82525050565b5f6060820190506103e85f8301866103c6565b6103f560208301856103c6565b61040260408301846103c6565b949350505050565b5f8115159050919050565b61041e8161040a565b8114610428575f80fd5b50565b5f8135905061043981610415565b92915050565b5f6020828403121561045457610453610297565b5b5f6104618482850161042b565b91505092915050565b6104738161029b565b82525050565b5f60208201905061048c5f83018461046a565b9291505056fea2646970667358221220382edec6aa932e6e9478110859da067bcb2dad2d8cbcc4b9377ffd2a9945802b64736f6c63430008180033",
					"opcodes": "PUSH1 0x80 PUSH1 0x40 MSTORE CALLVALUE DUP1 ISZERO PUSH2 0xF JUMPI PUSH0 DUP1 REVERT JUMPDEST POP PUSH1 0x1 DUP1 PUSH0 DUP1 DUP2 MSTORE PUSH1 0x20 ADD SWAP1 DUP2 MSTORE PUSH1 0x20 ADD PUSH0 KECCAK256 PUSH0 DUP1 PUSH0 SHL DUP2 MSTORE PUSH1 0x20 ADD SWAP1 DUP2 MSTORE PUSH1 0x20 ADD PUSH0 KECCAK256 PUSH0 DUP1 PUSH20 0xFFFFFFFFFFFFFFFFFFFFFFFFFFFFFFFFFFFFFFFF AND PUSH20 0xFFFFFFFFFFFFFFFFFFFFFFFFFFFFFFFFFFFFFFFF AND DUP2 MSTORE PUSH1 0x20 ADD SWAP1 DUP2 MSTORE PUSH1 0x20 ADD PUSH0 KECCAK256 PUSH1 0x1 ADD PUSH0 PUSH2 0x100 EXP DUP2 SLOAD DUP2 PUSH16 0xFFFFFFFFFFFFFFFFFFFFFFFFFFFFFFFF MUL NOT AND SWAP1 DUP4 PUSH16 0xFFFFFFFFFFFFFFFFFFFFFFFFFFFFFFFF AND MUL OR SWAP1 SSTORE POP PUSH1 0x2 PUSH0 DUP1 DUP1 DUP2 MSTORE PUSH1 0x20 ADD SWAP1 DUP2 MSTORE PUSH1 0x20 ADD PUSH0 KECCAK256 PUSH0 DUP1 PUSH0 SHL DUP2 MSTORE PUSH1 0x20 ADD SWAP1 DUP2 MSTORE PUSH1 0x20 ADD PUSH0 KECCAK256 PUSH0 DUP1 PUSH20 0xFFFFFFFFFFFFFFFFFFFFFFFFFFFFFFFFFFFFFFFF AND PUSH20 0xFFFFFFFFFFFFFFFFFFFFFFFFFFFFFFFFFFFFFFFF AND DUP2 MSTORE PUSH1 0x20 ADD SWAP1 DUP2 MSTORE PUSH1 0x20 ADD PUSH0 KECCAK256 PUSH1 0x1 ADD PUSH0 PUSH2 0x100 EXP DUP2 SLOAD DUP2 PUSH16 0xFFFFFFFFFFFFFFFFFFFFFFFFFFFFFFFF MUL NOT AND SWAP1 DUP4 PUSH16 0xFFFFFFFFFFFFFFFFFFFFFFFFFFFFFFFF AND MUL OR SWAP1 SSTORE POP PUSH2 0x4C8 DUP1 PUSH2 0x149 PUSH0 CODECOPY PUSH0 RETURN INVALID PUSH1 0x80 PUSH1 0x40 MSTORE CALLVALUE DUP1 ISZERO PUSH2 0xF JUMPI PUSH0 DUP1 REVERT JUMPDEST POP PUSH1 0x4 CALLDATASIZE LT PUSH2 0x3F JUMPI PUSH0 CALLDATALOAD PUSH1 0xE0 SHR DUP1 PUSH4 0x198E54C4 EQ PUSH2 0x43 JUMPI DUP1 PUSH4 0x36091DFF EQ PUSH2 0x75 JUMPI DUP1 PUSH4 0x6353E8E6 EQ PUSH2 0xA5 JUMPI JUMPDEST PUSH0 DUP1 REVERT JUMPDEST PUSH2 0x5D PUSH1 0x4 DUP1 CALLDATASIZE SUB DUP2 ADD SWAP1 PUSH2 0x58 SWAP2 SWAP1 PUSH2 0x35B JUMP JUMPDEST PUSH2 0xD7 JUMP JUMPDEST PUSH1 0x40 MLOAD PUSH2 0x6C SWAP4 SWAP3 SWAP2 SWAP1 PUSH2 0x3D5 JUMP JUMPDEST PUSH1 0x40 MLOAD DUP1 SWAP2 SUB SWAP1 RETURN JUMPDEST PUSH2 0x8F PUSH1 0x4 DUP1 CALLDATASIZE SUB DUP2 ADD SWAP1 PUSH2 0x8A SWAP2 SWAP1 PUSH2 0x43F JUMP JUMPDEST PUSH2 0x163 JUMP JUMPDEST PUSH1 0x40 MLOAD PUSH2 0x9C SWAP2 SWAP1 PUSH2 0x479 JUMP JUMPDEST PUSH1 0x40 MLOAD DUP1 SWAP2 SUB SWAP1 RETURN JUMPDEST PUSH2 0xBF PUSH1 0x4 DUP1 CALLDATASIZE SUB DUP2 ADD SWAP1 PUSH2 0xBA SWAP2 SWAP1 PUSH2 0x35B JUMP JUMPDEST PUSH2 0x20A JUMP JUMPDEST PUSH1 0x40 MLOAD PUSH2 0xCE SWAP4 SWAP3 SWAP2 SWAP1 PUSH2 0x3D5 JUMP JUMPDEST PUSH1 0x40 MLOAD DUP1 SWAP2 SUB SWAP1 RETURN JUMPDEST PUSH0 PUSH1 0x20 MSTORE DUP3 PUSH0 MSTORE PUSH1 0x40 PUSH0 KECCAK256 PUSH1 0x20 MSTORE DUP2 PUSH0 MSTORE PUSH1 0x40 PUSH0 KECCAK256 PUSH1 0x20 MSTORE DUP1 PUSH0 MSTORE PUSH1 0x40 PUSH0 KECCAK256 PUSH0 SWAP3 POP SWAP3 POP POP POP DUP1 PUSH0 ADD PUSH0 SWAP1 SLOAD SWAP1 PUSH2 0x100 EXP SWAP1 DIV PUSH16 0xFFFFFFFFFFFFFFFFFFFFFFFFFFFFFFFF AND SWAP1 DUP1 PUSH0 ADD PUSH1 0x10 SWAP1 SLOAD SWAP1 PUSH2 0x100 EXP SWAP1 DIV PUSH16 0xFFFFFFFFFFFFFFFFFFFFFFFFFFFFFFFF AND SWAP1 DUP1 PUSH1 0x1 ADD PUSH0 SWAP1 SLOAD SWAP1 PUSH2 0x100 EXP SWAP1 DIV PUSH16 0xFFFFFFFFFFFFFFFFFFFFFFFFFFFFFFFF AND SWAP1 POP DUP4 JUMP JUMPDEST PUSH0 DUP1 DUP3 PUSH2 0x171 JUMPI PUSH1 0x1 PUSH2 0x173 JUMP JUMPDEST PUSH0 JUMPDEST SWAP1 POP DUP1 PUSH0 DUP1 DUP2 MSTORE PUSH1 0x20 ADD SWAP1 DUP2 MSTORE PUSH1 0x20 ADD PUSH0 KECCAK256 PUSH0 DUP1 PUSH0 SHL DUP2 MSTORE PUSH1 0x20 ADD SWAP1 DUP2 MSTORE PUSH1 0x20 ADD PUSH0 KECCAK256 PUSH0 DUP1 PUSH20 0xFFFFFFFFFFFFFFFFFFFFFFFFFFFFFFFFFFFFFFFF AND PUSH20 0xFFFFFFFFFFFFFFFFFFFFFFFFFFFFFFFFFFFFFFFF AND DUP2 MSTORE PUSH1 0x20 ADD SWAP1 DUP2 MSTORE PUSH1 0x20 ADD PUSH0 KECCAK256 PUSH1 0x1 ADD PUSH0 SWAP1 SLOAD SWAP1 PUSH2 0x100 EXP SWAP1 DIV PUSH16 0xFFFFFFFFFFFFFFFFFFFFFFFFFFFFFFFF AND PUSH16 0xFFFFFFFFFFFFFFFFFFFFFFFFFFFFFFFF AND SWAP2 POP POP SWAP2 SWAP1 POP JUMP JUMPDEST PUSH1 0x1 PUSH1 0x20 MSTORE DUP3 PUSH0 MSTORE PUSH1 0x40 PUSH0 KECCAK256 PUSH1 0x20 MSTORE DUP2 PUSH0 MSTORE PUSH1 0x40 PUSH0 KECCAK256 PUSH1 0x20 MSTORE DUP1 PUSH0 MSTORE PUSH1 0x40 PUSH0 KECCAK256 PUSH0 SWAP3 POP SWAP3 POP POP POP DUP1 PUSH0 ADD PUSH0 SWAP1 SLOAD SWAP1 PUSH2 0x100 EXP SWAP1 DIV PUSH16 0xFFFFFFFFFFFFFFFFFFFFFFFFFFFFFFFF AND SWAP1 DUP1 PUSH0 ADD PUSH1 0x10 SWAP1 SLOAD SWAP1 PUSH2 0x100 EXP SWAP1 DIV PUSH16 0xFFFFFFFFFFFFFFFFFFFFFFFFFFFFFFFF AND SWAP1 DUP1 PUSH1 0x1 ADD PUSH0 SWAP1 SLOAD SWAP1 PUSH2 0x100 EXP SWAP1 DIV PUSH16 0xFFFFFFFFFFFFFFFFFFFFFFFFFFFFFFFF AND SWAP1 POP DUP4 JUMP JUMPDEST PUSH0 DUP1 REVERT JUMPDEST PUSH0 DUP2 SWAP1 POP SWAP2 SWAP1 POP JUMP JUMPDEST PUSH2 0x2AD DUP2 PUSH2 0x29B JUMP JUMPDEST DUP2 EQ PUSH2 0x2B7 JUMPI PUSH0 DUP1 REVERT JUMPDEST POP JUMP JUMPDEST PUSH0 DUP2 CALLDATALOAD SWAP1 POP PUSH2 0x2C8 DUP2 PUSH2 0x2A4 JUMP JUMPDEST SWAP3 SWAP2 POP POP JUMP JUMPDEST PUSH0 DUP2 SWAP1 POP SWAP2 SWAP1 POP JUMP JUMPDEST PUSH2 0x2E0 DUP2 PUSH2 0x2CE JUMP JUMPDEST DUP2 EQ PUSH2 0x2EA JUMPI PUSH0 DUP1 REVERT JUMPDEST POP JUMP JUMPDEST PUSH0 DUP2 CALLDATALOAD SWAP1 POP PUSH2 0x2FB DUP2 PUSH2 0x2D7 JUMP JUMPDEST SWAP3 SWAP2 POP POP JUMP JUMPDEST PUSH0 PUSH20 0xFFFFFFFFFFFFFFFFFFFFFFFFFFFFFFFFFFFFFFFF DUP3 AND SWAP1 POP SWAP2 SWAP1 POP JUMP JUMPDEST PUSH0 PUSH2 0x32A DUP3 PUSH2 0x301 JUMP JUMPDEST SWAP1 POP SWAP2 SWAP1 POP JUMP JUMPDEST PUSH2 0x33A DUP2 PUSH2 0x320 JUMP JUMPDEST DUP2 EQ PUSH2 0x344 JUMPI PUSH0 DUP1 REVERT JUMPDEST POP JUMP JUMPDEST PUSH0 DUP2 CALLDATALOAD SWAP1 POP PUSH2 0x355 DUP2 PUSH2 0x331 JUMP JUMPDEST SWAP3 SWAP2 POP POP JUMP JUMPDEST PUSH0 DUP1 PUSH0 PUSH1 0x60 DUP5 DUP7 SUB SLT ISZERO PUSH2 0x372 JUMPI PUSH2 0x371 PUSH2 0x297 JUMP JUMPDEST JUMPDEST PUSH0 PUSH2 0x37F DUP7 DUP3 DUP8 ADD PUSH2 0x2BA JUMP JUMPDEST SWAP4 POP POP PUSH1 0x20 PUSH2 0x390 DUP7 DUP3 DUP8 ADD PUSH2 0x2ED JUMP JUMPDEST SWAP3 POP POP PUSH1 0x40 PUSH2 0x3A1 DUP7 DUP3 DUP8 ADD PUSH2 0x347 JUMP JUMPDEST SWAP2 POP POP SWAP3 POP SWAP3 POP SWAP3 JUMP JUMPDEST PUSH0 PUSH16 0xFFFFFFFFFFFFFFFFFFFFFFFFFFFFFFFF DUP3 AND SWAP1 POP SWAP2 SWAP1 POP JUMP JUMPDEST PUSH2 0x3CF DUP2 PUSH2 0x3AB JUMP JUMPDEST DUP3 MSTORE POP POP JUMP JUMPDEST PUSH0 PUSH1 0x60 DUP3 ADD SWAP1 POP PUSH2 0x3E8 PUSH0 DUP4 ADD DUP7 PUSH2 0x3C6 JUMP JUMPDEST PUSH2 0x3F5 PUSH1 0x20 DUP4 ADD DUP6 PUSH2 0x3C6 JUMP JUMPDEST PUSH2 0x402 PUSH1 0x40 DUP4 ADD DUP5 PUSH2 0x3C6 JUMP JUMPDEST SWAP5 SWAP4 POP POP POP POP JUMP JUMPDEST PUSH0 DUP2 ISZERO ISZERO SWAP1 POP SWAP2 SWAP1 POP JUMP JUMPDEST PUSH2 0x41E DUP2 PUSH2 0x40A JUMP JUMPDEST DUP2 EQ PUSH2 0x428 JUMPI PUSH0 DUP1 REVERT JUMPDEST POP JUMP JUMPDEST PUSH0 DUP2 CALLDATALOAD SWAP1 POP PUSH2 0x439 DUP2 PUSH2 0x415 JUMP JUMPDEST SWAP3 SWAP2 POP POP JUMP JUMPDEST PUSH0 PUSH1 0x20 DUP3 DUP5 SUB SLT ISZERO PUSH2 0x454 JUMPI PUSH2 0x453 PUSH2 0x297 JUMP JUMPDEST JUMPDEST PUSH0 PUSH2 0x461 DUP5 DUP3 DUP6 ADD PUSH2 0x42B JUMP JUMPDEST SWAP2 POP POP SWAP3 SWAP2 POP POP JUMP JUMPDEST PUSH2 0x473 DUP2 PUSH2 0x29B JUMP JUMPDEST DUP3 MSTORE POP POP JUMP JUMPDEST PUSH0 PUSH1 0x20 DUP3 ADD SWAP1 POP PUSH2 0x48C PUSH0 DUP4 ADD DUP5 PUSH2 0x46A JUMP JUMPDEST SWAP3 SWAP2 POP POP JUMP INVALID LOG2 PUSH5 0x6970667358 0x22 SLT KECCAK256 CODESIZE 0x2E 0xDE 0xC6 0xAA SWAP4 0x2E PUSH15 0x9478110859DA067BCB2DAD2D8CBCC4 0xB9 CALLDATACOPY PUSH32 0xFD2A9945802B64736F6C63430008180033000000000000000000000000000000 "
				},
				"gasEstimates": {
					"creation": {
						"codeDepositCost": "244800",
						"executionCost": "49319",
						"totalCost": "294119"
					},
					"external": {
						"delegateEpochPoolData(uint256,bytes32,address)": "infinite",
						"test(bool)": "3032",
						"usersEpochPoolData(uint256,bytes32,address)": "infinite"
					}
				},
				"methodIdentifiers": {
					"delegateEpochPoolData(uint256,bytes32,address)": "198e54c4",
					"test(bool)": "36091dff",
					"usersEpochPoolData(uint256,bytes32,address)": "6353e8e6"
				}
			},
			"storageLayout": {
				"storage": [
					{
						"astId": 28,
						"contract": "testMappingPointers.sol:Test",
						"label": "delegateEpochPoolData",
						"offset": 0,
						"slot": "0",
						"type": "t_mapping(t_uint256,t_mapping(t_bytes32,t_mapping(t_address,t_struct(DelegateData)8_storage)))"
					},
					{
						"astId": 37,
						"contract": "testMappingPointers.sol:Test",
						"label": "usersEpochPoolData",
						"offset": 0,
						"slot": "1",
						"type": "t_mapping(t_uint256,t_mapping(t_bytes32,t_mapping(t_address,t_struct(DelegateData)8_storage)))"
					}
				],
				"types": {
					"t_address": {
						"encoding": "inplace",
						"label": "address",
						"numberOfBytes": "20"
					},
					"t_bytes32": {
						"encoding": "inplace",
						"label": "bytes32",
						"numberOfBytes": "32"
					},
					"t_mapping(t_address,t_struct(DelegateData)8_storage)": {
						"encoding": "mapping",
						"key": "t_address",
						"label": "mapping(address => struct Test.DelegateData)",
						"numberOfBytes": "32",
						"value": "t_struct(DelegateData)8_storage"
					},
					"t_mapping(t_bytes32,t_mapping(t_address,t_struct(DelegateData)8_storage))": {
						"encoding": "mapping",
						"key": "t_bytes32",
						"label": "mapping(bytes32 => mapping(address => struct Test.DelegateData))",
						"numberOfBytes": "32",
						"value": "t_mapping(t_address,t_struct(DelegateData)8_storage)"
					},
					"t_mapping(t_uint256,t_mapping(t_bytes32,t_mapping(t_address,t_struct(DelegateData)8_storage)))": {
						"encoding": "mapping",
						"key": "t_uint256",
						"label": "mapping(uint256 => mapping(bytes32 => mapping(address => struct Test.DelegateData)))",
						"numberOfBytes": "32",
						"value": "t_mapping(t_bytes32,t_mapping(t_address,t_struct(DelegateData)8_storage))"
					},
					"t_struct(DelegateData)8_storage": {
						"encoding": "inplace",
						"label": "struct Test.DelegateData",
						"members": [
							{
								"astId": 3,
								"contract": "testMappingPointers.sol:Test",
								"label": "totalVotesSpent",
								"offset": 0,
								"slot": "0",
								"type": "t_uint128"
							},
							{
								"astId": 5,
								"contract": "testMappingPointers.sol:Test",
								"label": "totalRewards",
								"offset": 16,
								"slot": "0",
								"type": "t_uint128"
							},
							{
								"astId": 7,
								"contract": "testMappingPointers.sol:Test",
								"label": "totalClaimed",
								"offset": 0,
								"slot": "1",
								"type": "t_uint128"
							}
						],
						"numberOfBytes": "64"
					},
					"t_uint128": {
						"encoding": "inplace",
						"label": "uint128",
						"numberOfBytes": "16"
					},
					"t_uint256": {
						"encoding": "inplace",
						"label": "uint256",
						"numberOfBytes": "32"
					}
				}
			},
			"userdoc": {
				"kind": "user",
				"methods": {},
				"version": 1
			}
		}
	}
}