{
	"testOperator.sol": {
		"Test": {
			"abi": [
				{
					"inputs": [],
					"name": "check",
					"outputs": [
						{
							"internalType": "uint256",
							"name": "",
							"type": "uint256"
						}
					],
					"stateMutability": "pure",
					"type": "function"
				},
				{
					"inputs": [
						{
							"internalType": "uint256",
							"name": "decrement",
							"type": "uint256"
						}
					],
					"name": "ret",
					"outputs": [
						{
							"internalType": "bytes32",
							"name": "",
							"type": "bytes32"
						}
					],
					"stateMutability": "pure",
					"type": "function"
				},
				{
					"inputs": [],
					"name": "sugarcheck",
					"outputs": [
						{
							"internalType": "uint256",
							"name": "",
							"type": "uint256"
						}
					],
					"stateMutability": "pure",
					"type": "function"
				},
				{
					"inputs": [],
					"name": "sumAddr",
					"outputs": [
						{
							"internalType": "address",
							"name": "",
							"type": "address"
						}
					],
					"stateMutability": "view",
					"type": "function"
				}
			],
			"devdoc": {
				"kind": "dev",
				"methods": {},
				"version": 1
			},
			"evm": {
				"assembly": "    /* \"testOperator.sol\":68:1074  contract Test {... */\n  mstore(0x40, 0x80)\n    /* \"testOperator.sol\":126:127  1 */\n  0x01\n    /* \"testOperator.sol\":93:128  address public sumAddr = address(1) */\n  0x00\n  exp(0x0100, 0x00)\n  dup2\n  sload\n  dup2\n  0xffffffffffffffffffffffffffffffffffffffff\n  mul\n  not\n  and\n  swap1\n  dup4\n  0xffffffffffffffffffffffffffffffffffffffff\n  and\n  mul\n  or\n  swap1\n  sstore\n  pop\n    /* \"testOperator.sol\":68:1074  contract Test {... */\n  callvalue\n  dup1\n  iszero\n  tag_1\n  jumpi\n  revert(0x00, 0x00)\ntag_1:\n  pop\n  dataSize(sub_0)\n  dup1\n  dataOffset(sub_0)\n  0x00\n  codecopy\n  0x00\n  return\nstop\n\nsub_0: assembly {\n        /* \"testOperator.sol\":68:1074  contract Test {... */\n      mstore(0x40, 0x80)\n      callvalue\n      dup1\n      iszero\n      tag_1\n      jumpi\n      revert(0x00, 0x00)\n    tag_1:\n      pop\n      jumpi(tag_2, lt(calldatasize, 0x04))\n      shr(0xe0, calldataload(0x00))\n      dup1\n      0x919840ad\n      eq\n      tag_3\n      jumpi\n      dup1\n      0xde38bccb\n      eq\n      tag_4\n      jumpi\n      dup1\n      0xe6b0eaf1\n      eq\n      tag_5\n      jumpi\n      dup1\n      0xfe375cb5\n      eq\n      tag_6\n      jumpi\n    tag_2:\n      revert(0x00, 0x00)\n        /* \"testOperator.sol\":708:953  function check() public pure returns(uint256){... */\n    tag_3:\n      tag_7\n      tag_8\n      jump\t// in\n    tag_7:\n      mload(0x40)\n      tag_9\n      swap2\n      swap1\n      tag_10\n      jump\t// in\n    tag_9:\n      mload(0x40)\n      dup1\n      swap2\n      sub\n      swap1\n      return\n        /* \"testOperator.sol\":961:1069  function sugarcheck() public pure returns(uint256) {... */\n    tag_4:\n      tag_11\n      tag_12\n      jump\t// in\n    tag_11:\n      mload(0x40)\n      tag_13\n      swap2\n      swap1\n      tag_10\n      jump\t// in\n    tag_13:\n      mload(0x40)\n      dup1\n      swap2\n      sub\n      swap1\n      return\n        /* \"testOperator.sol\":137:521  function ret(uint256 decrement) public pure returns(bytes32) {... */\n    tag_5:\n      tag_14\n      0x04\n      dup1\n      calldatasize\n      sub\n      dup2\n      add\n      swap1\n      tag_15\n      swap2\n      swap1\n      tag_16\n      jump\t// in\n    tag_15:\n      tag_17\n      jump\t// in\n    tag_14:\n      mload(0x40)\n      tag_18\n      swap2\n      swap1\n      tag_19\n      jump\t// in\n    tag_18:\n      mload(0x40)\n      dup1\n      swap2\n      sub\n      swap1\n      return\n        /* \"testOperator.sol\":93:128  address public sumAddr = address(1) */\n    tag_6:\n      tag_20\n      tag_21\n      jump\t// in\n    tag_20:\n      mload(0x40)\n      tag_22\n      swap2\n      swap1\n      tag_23\n      jump\t// in\n    tag_22:\n      mload(0x40)\n      dup1\n      swap2\n      sub\n      swap1\n      return\n        /* \"testOperator.sol\":708:953  function check() public pure returns(uint256){... */\n    tag_8:\n        /* \"testOperator.sol\":745:752  uint256 */\n      0x00\n        /* \"testOperator.sol\":764:774  bytes32 id */\n      0x00\n        /* \"testOperator.sol\":777:843  0x24f6c86cc299508a85c4c0de7b08ff7d3fba2a939acdfe2307e0465e9e417506 */\n      0x24f6c86cc299508a85c4c0de7b08ff7d3fba2a939acdfe2307e0465e9e417506\n        /* \"testOperator.sol\":764:843  bytes32 id = 0x24f6c86cc299508a85c4c0de7b08ff7d3fba2a939acdfe2307e0465e9e417506 */\n      0x00\n      shl\n      swap1\n      pop\n        /* \"testOperator.sol\":856:865  uint256 i */\n      0x00\n        /* \"testOperator.sol\":876:927  while (ret(i) != id) {... */\n    tag_25:\n        /* \"testOperator.sol\":893:895  id */\n      dup2\n        /* \"testOperator.sol\":883:889  ret(i) */\n      tag_27\n        /* \"testOperator.sol\":887:888  i */\n      dup3\n        /* \"testOperator.sol\":883:886  ret */\n      tag_17\n        /* \"testOperator.sol\":883:889  ret(i) */\n      jump\t// in\n    tag_27:\n        /* \"testOperator.sol\":883:895  ret(i) != id */\n      eq\n        /* \"testOperator.sol\":876:927  while (ret(i) != id) {... */\n      tag_26\n      jumpi\n        /* \"testOperator.sol\":912:915  ++i */\n      dup1\n      tag_28\n      swap1\n      tag_29\n      jump\t// in\n    tag_28:\n      swap1\n      pop\n        /* \"testOperator.sol\":876:927  while (ret(i) != id) {... */\n      jump(tag_25)\n    tag_26:\n        /* \"testOperator.sol\":944:945  i */\n      dup1\n        /* \"testOperator.sol\":937:945  return i */\n      swap3\n      pop\n      pop\n      pop\n        /* \"testOperator.sol\":708:953  function check() public pure returns(uint256){... */\n      swap1\n      jump\t// out\n        /* \"testOperator.sol\":961:1069  function sugarcheck() public pure returns(uint256) {... */\n    tag_12:\n        /* \"testOperator.sol\":1003:1010  uint256 */\n      0x00\n        /* \"testOperator.sol\":1023:1032  uint256 i */\n      0x00\n        /* \"testOperator.sol\":1035:1038  100 */\n      0x64\n        /* \"testOperator.sol\":1023:1038  uint256 i = 100 */\n      swap1\n      pop\n        /* \"testOperator.sol\":1058:1061  --i */\n      dup1\n      tag_31\n      swap1\n      tag_32\n      jump\t// in\n    tag_31:\n      swap1\n      pop\n      dup1\n        /* \"testOperator.sol\":1051:1061  return --i */\n      swap2\n      pop\n      pop\n        /* \"testOperator.sol\":961:1069  function sugarcheck() public pure returns(uint256) {... */\n      swap1\n      jump\t// out\n        /* \"testOperator.sol\":137:521  function ret(uint256 decrement) public pure returns(bytes32) {... */\n    tag_17:\n        /* \"testOperator.sol\":189:196  bytes32 */\n      0x00\n        /* \"testOperator.sol\":209:225  uint256 blockNum */\n      0x00\n        /* \"testOperator.sol\":228:231  100 */\n      0x64\n        /* \"testOperator.sol\":209:231  uint256 blockNum = 100 */\n      swap1\n      pop\n        /* \"testOperator.sol\":242:264  uint256 blockTimestamp */\n      0x00\n        /* \"testOperator.sol\":267:272  86476 */\n      0x0151cc\n        /* \"testOperator.sol\":242:272  uint256 blockTimestamp = 86476 */\n      swap1\n      pop\n        /* \"testOperator.sol\":283:296  address user2 */\n      0x00\n        /* \"testOperator.sol\":307:349  0x537C8f3d3E18dF5517a58B3fB9D9143697996802 */\n      0x537c8f3d3e18df5517a58b3fb9d9143697996802\n        /* \"testOperator.sol\":283:350  address user2 = address(0x537C8f3d3E18dF5517a58B3fB9D9143697996802) */\n      swap1\n      pop\n        /* \"testOperator.sol\":363:375  uint256 salt */\n      0x00\n        /* \"testOperator.sol\":389:398  decrement */\n      dup6\n        /* \"testOperator.sol\":378:386  blockNum */\n      dup5\n        /* \"testOperator.sol\":378:398  blockNum - decrement */\n      tag_34\n      swap2\n      swap1\n      tag_35\n      jump\t// in\n    tag_34:\n        /* \"testOperator.sol\":363:398  uint256 salt = blockNum - decrement */\n      swap1\n      pop\n        /* \"testOperator.sol\":409:424  bytes32 vaultId */\n      0x00\n        /* \"testOperator.sol\":456:461  user2 */\n      dup3\n        /* \"testOperator.sol\":463:477  blockTimestamp */\n      dup5\n        /* \"testOperator.sol\":479:483  salt */\n      dup4\n        /* \"testOperator.sol\":445:484  abi.encode(user2, blockTimestamp, salt) */\n      add(0x20, mload(0x40))\n      tag_36\n      swap4\n      swap3\n      swap2\n      swap1\n      tag_37\n      jump\t// in\n    tag_36:\n      mload(0x40)\n      0x20\n      dup2\n      dup4\n      sub\n      sub\n      dup2\n      mstore\n      swap1\n      0x40\n      mstore\n        /* \"testOperator.sol\":435:485  keccak256(abi.encode(user2, blockTimestamp, salt)) */\n      dup1\n      mload\n      swap1\n      0x20\n      add\n      keccak256\n        /* \"testOperator.sol\":409:486  bytes32 vaultId = bytes32(keccak256(abi.encode(user2, blockTimestamp, salt))) */\n      swap1\n      pop\n        /* \"testOperator.sol\":506:513  vaultId */\n      dup1\n        /* \"testOperator.sol\":499:513  return vaultId */\n      swap6\n      pop\n      pop\n      pop\n      pop\n      pop\n      pop\n        /* \"testOperator.sol\":137:521  function ret(uint256 decrement) public pure returns(bytes32) {... */\n      swap2\n      swap1\n      pop\n      jump\t// out\n        /* \"testOperator.sol\":93:128  address public sumAddr = address(1) */\n    tag_21:\n      0x00\n      0x00\n      swap1\n      sload\n      swap1\n      0x0100\n      exp\n      swap1\n      div\n      0xffffffffffffffffffffffffffffffffffffffff\n      and\n      dup2\n      jump\t// out\n        /* \"#utility.yul\":7:84   */\n    tag_38:\n        /* \"#utility.yul\":44:51   */\n      0x00\n        /* \"#utility.yul\":73:78   */\n      dup2\n        /* \"#utility.yul\":62:78   */\n      swap1\n      pop\n        /* \"#utility.yul\":7:84   */\n      swap2\n      swap1\n      pop\n      jump\t// out\n        /* \"#utility.yul\":90:208   */\n    tag_39:\n        /* \"#utility.yul\":177:201   */\n      tag_54\n        /* \"#utility.yul\":195:200   */\n      dup2\n        /* \"#utility.yul\":177:201   */\n      tag_38\n      jump\t// in\n    tag_54:\n        /* \"#utility.yul\":172:175   */\n      dup3\n        /* \"#utility.yul\":165:202   */\n      mstore\n        /* \"#utility.yul\":90:208   */\n      pop\n      pop\n      jump\t// out\n        /* \"#utility.yul\":214:436   */\n    tag_10:\n        /* \"#utility.yul\":307:311   */\n      0x00\n        /* \"#utility.yul\":345:347   */\n      0x20\n        /* \"#utility.yul\":334:343   */\n      dup3\n        /* \"#utility.yul\":330:348   */\n      add\n        /* \"#utility.yul\":322:348   */\n      swap1\n      pop\n        /* \"#utility.yul\":358:429   */\n      tag_56\n        /* \"#utility.yul\":426:427   */\n      0x00\n        /* \"#utility.yul\":415:424   */\n      dup4\n        /* \"#utility.yul\":411:428   */\n      add\n        /* \"#utility.yul\":402:408   */\n      dup5\n        /* \"#utility.yul\":358:429   */\n      tag_39\n      jump\t// in\n    tag_56:\n        /* \"#utility.yul\":214:436   */\n      swap3\n      swap2\n      pop\n      pop\n      jump\t// out\n        /* \"#utility.yul\":523:640   */\n    tag_41:\n        /* \"#utility.yul\":632:633   */\n      0x00\n        /* \"#utility.yul\":629:630   */\n      0x00\n        /* \"#utility.yul\":622:634   */\n      revert\n        /* \"#utility.yul\":769:891   */\n    tag_43:\n        /* \"#utility.yul\":842:866   */\n      tag_61\n        /* \"#utility.yul\":860:865   */\n      dup2\n        /* \"#utility.yul\":842:866   */\n      tag_38\n      jump\t// in\n    tag_61:\n        /* \"#utility.yul\":835:840   */\n      dup2\n        /* \"#utility.yul\":832:867   */\n      eq\n        /* \"#utility.yul\":822:885   */\n      tag_62\n      jumpi\n        /* \"#utility.yul\":881:882   */\n      0x00\n        /* \"#utility.yul\":878:879   */\n      0x00\n        /* \"#utility.yul\":871:883   */\n      revert\n        /* \"#utility.yul\":822:885   */\n    tag_62:\n        /* \"#utility.yul\":769:891   */\n      pop\n      jump\t// out\n        /* \"#utility.yul\":897:1036   */\n    tag_44:\n        /* \"#utility.yul\":943:948   */\n      0x00\n        /* \"#utility.yul\":981:987   */\n      dup2\n        /* \"#utility.yul\":968:988   */\n      calldataload\n        /* \"#utility.yul\":959:988   */\n      swap1\n      pop\n        /* \"#utility.yul\":997:1030   */\n      tag_64\n        /* \"#utility.yul\":1024:1029   */\n      dup2\n        /* \"#utility.yul\":997:1030   */\n      tag_43\n      jump\t// in\n    tag_64:\n        /* \"#utility.yul\":897:1036   */\n      swap3\n      swap2\n      pop\n      pop\n      jump\t// out\n        /* \"#utility.yul\":1042:1371   */\n    tag_16:\n        /* \"#utility.yul\":1101:1107   */\n      0x00\n        /* \"#utility.yul\":1150:1152   */\n      0x20\n        /* \"#utility.yul\":1138:1147   */\n      dup3\n        /* \"#utility.yul\":1129:1136   */\n      dup5\n        /* \"#utility.yul\":1125:1148   */\n      sub\n        /* \"#utility.yul\":1121:1153   */\n      slt\n        /* \"#utility.yul\":1118:1237   */\n      iszero\n      tag_66\n      jumpi\n        /* \"#utility.yul\":1156:1235   */\n      tag_67\n      tag_41\n      jump\t// in\n    tag_67:\n        /* \"#utility.yul\":1118:1237   */\n    tag_66:\n        /* \"#utility.yul\":1276:1277   */\n      0x00\n        /* \"#utility.yul\":1301:1354   */\n      tag_68\n        /* \"#utility.yul\":1346:1353   */\n      dup5\n        /* \"#utility.yul\":1337:1343   */\n      dup3\n        /* \"#utility.yul\":1326:1335   */\n      dup6\n        /* \"#utility.yul\":1322:1344   */\n      add\n        /* \"#utility.yul\":1301:1354   */\n      tag_44\n      jump\t// in\n    tag_68:\n        /* \"#utility.yul\":1291:1354   */\n      swap2\n      pop\n        /* \"#utility.yul\":1247:1364   */\n      pop\n        /* \"#utility.yul\":1042:1371   */\n      swap3\n      swap2\n      pop\n      pop\n      jump\t// out\n        /* \"#utility.yul\":1377:1454   */\n    tag_45:\n        /* \"#utility.yul\":1414:1421   */\n      0x00\n        /* \"#utility.yul\":1443:1448   */\n      dup2\n        /* \"#utility.yul\":1432:1448   */\n      swap1\n      pop\n        /* \"#utility.yul\":1377:1454   */\n      swap2\n      swap1\n      pop\n      jump\t// out\n        /* \"#utility.yul\":1460:1578   */\n    tag_46:\n        /* \"#utility.yul\":1547:1571   */\n      tag_71\n        /* \"#utility.yul\":1565:1570   */\n      dup2\n        /* \"#utility.yul\":1547:1571   */\n      tag_45\n      jump\t// in\n    tag_71:\n        /* \"#utility.yul\":1542:1545   */\n      dup3\n        /* \"#utility.yul\":1535:1572   */\n      mstore\n        /* \"#utility.yul\":1460:1578   */\n      pop\n      pop\n      jump\t// out\n        /* \"#utility.yul\":1584:1806   */\n    tag_19:\n        /* \"#utility.yul\":1677:1681   */\n      0x00\n        /* \"#utility.yul\":1715:1717   */\n      0x20\n        /* \"#utility.yul\":1704:1713   */\n      dup3\n        /* \"#utility.yul\":1700:1718   */\n      add\n        /* \"#utility.yul\":1692:1718   */\n      swap1\n      pop\n        /* \"#utility.yul\":1728:1799   */\n      tag_73\n        /* \"#utility.yul\":1796:1797   */\n      0x00\n        /* \"#utility.yul\":1785:1794   */\n      dup4\n        /* \"#utility.yul\":1781:1798   */\n      add\n        /* \"#utility.yul\":1772:1778   */\n      dup5\n        /* \"#utility.yul\":1728:1799   */\n      tag_46\n      jump\t// in\n    tag_73:\n        /* \"#utility.yul\":1584:1806   */\n      swap3\n      swap2\n      pop\n      pop\n      jump\t// out\n        /* \"#utility.yul\":1812:1938   */\n    tag_47:\n        /* \"#utility.yul\":1849:1856   */\n      0x00\n        /* \"#utility.yul\":1889:1931   */\n      0xffffffffffffffffffffffffffffffffffffffff\n        /* \"#utility.yul\":1882:1887   */\n      dup3\n        /* \"#utility.yul\":1878:1932   */\n      and\n        /* \"#utility.yul\":1867:1932   */\n      swap1\n      pop\n        /* \"#utility.yul\":1812:1938   */\n      swap2\n      swap1\n      pop\n      jump\t// out\n        /* \"#utility.yul\":1944:2040   */\n    tag_48:\n        /* \"#utility.yul\":1981:1988   */\n      0x00\n        /* \"#utility.yul\":2010:2034   */\n      tag_76\n        /* \"#utility.yul\":2028:2033   */\n      dup3\n        /* \"#utility.yul\":2010:2034   */\n      tag_47\n      jump\t// in\n    tag_76:\n        /* \"#utility.yul\":1999:2034   */\n      swap1\n      pop\n        /* \"#utility.yul\":1944:2040   */\n      swap2\n      swap1\n      pop\n      jump\t// out\n        /* \"#utility.yul\":2046:2164   */\n    tag_49:\n        /* \"#utility.yul\":2133:2157   */\n      tag_78\n        /* \"#utility.yul\":2151:2156   */\n      dup2\n        /* \"#utility.yul\":2133:2157   */\n      tag_48\n      jump\t// in\n    tag_78:\n        /* \"#utility.yul\":2128:2131   */\n      dup3\n        /* \"#utility.yul\":2121:2158   */\n      mstore\n        /* \"#utility.yul\":2046:2164   */\n      pop\n      pop\n      jump\t// out\n        /* \"#utility.yul\":2170:2392   */\n    tag_23:\n        /* \"#utility.yul\":2263:2267   */\n      0x00\n        /* \"#utility.yul\":2301:2303   */\n      0x20\n        /* \"#utility.yul\":2290:2299   */\n      dup3\n        /* \"#utility.yul\":2286:2304   */\n      add\n        /* \"#utility.yul\":2278:2304   */\n      swap1\n      pop\n        /* \"#utility.yul\":2314:2385   */\n      tag_80\n        /* \"#utility.yul\":2382:2383   */\n      0x00\n        /* \"#utility.yul\":2371:2380   */\n      dup4\n        /* \"#utility.yul\":2367:2384   */\n      add\n        /* \"#utility.yul\":2358:2364   */\n      dup5\n        /* \"#utility.yul\":2314:2385   */\n      tag_49\n      jump\t// in\n    tag_80:\n        /* \"#utility.yul\":2170:2392   */\n      swap3\n      swap2\n      pop\n      pop\n      jump\t// out\n        /* \"#utility.yul\":2398:2578   */\n    tag_50:\n        /* \"#utility.yul\":2446:2523   */\n      0x4e487b7100000000000000000000000000000000000000000000000000000000\n        /* \"#utility.yul\":2443:2444   */\n      0x00\n        /* \"#utility.yul\":2436:2524   */\n      mstore\n        /* \"#utility.yul\":2543:2547   */\n      0x11\n        /* \"#utility.yul\":2540:2541   */\n      0x04\n        /* \"#utility.yul\":2533:2548   */\n      mstore\n        /* \"#utility.yul\":2567:2571   */\n      0x24\n        /* \"#utility.yul\":2564:2565   */\n      0x00\n        /* \"#utility.yul\":2557:2572   */\n      revert\n        /* \"#utility.yul\":2584:2817   */\n    tag_29:\n        /* \"#utility.yul\":2623:2626   */\n      0x00\n        /* \"#utility.yul\":2646:2670   */\n      tag_83\n        /* \"#utility.yul\":2664:2669   */\n      dup3\n        /* \"#utility.yul\":2646:2670   */\n      tag_38\n      jump\t// in\n    tag_83:\n        /* \"#utility.yul\":2637:2670   */\n      swap2\n      pop\n        /* \"#utility.yul\":2692:2758   */\n      0xffffffffffffffffffffffffffffffffffffffffffffffffffffffffffffffff\n        /* \"#utility.yul\":2685:2690   */\n      dup3\n        /* \"#utility.yul\":2682:2759   */\n      sub\n        /* \"#utility.yul\":2679:2782   */\n      tag_84\n      jumpi\n        /* \"#utility.yul\":2762:2780   */\n      tag_85\n      tag_50\n      jump\t// in\n    tag_85:\n        /* \"#utility.yul\":2679:2782   */\n    tag_84:\n        /* \"#utility.yul\":2809:2810   */\n      0x01\n        /* \"#utility.yul\":2802:2807   */\n      dup3\n        /* \"#utility.yul\":2798:2811   */\n      add\n        /* \"#utility.yul\":2791:2811   */\n      swap1\n      pop\n        /* \"#utility.yul\":2584:2817   */\n      swap2\n      swap1\n      pop\n      jump\t// out\n        /* \"#utility.yul\":2823:2994   */\n    tag_32:\n        /* \"#utility.yul\":2862:2865   */\n      0x00\n        /* \"#utility.yul\":2885:2909   */\n      tag_87\n        /* \"#utility.yul\":2903:2908   */\n      dup3\n        /* \"#utility.yul\":2885:2909   */\n      tag_38\n      jump\t// in\n    tag_87:\n        /* \"#utility.yul\":2876:2909   */\n      swap2\n      pop\n        /* \"#utility.yul\":2931:2935   */\n      0x00\n        /* \"#utility.yul\":2924:2929   */\n      dup3\n        /* \"#utility.yul\":2921:2936   */\n      sub\n        /* \"#utility.yul\":2918:2959   */\n      tag_88\n      jumpi\n        /* \"#utility.yul\":2939:2957   */\n      tag_89\n      tag_50\n      jump\t// in\n    tag_89:\n        /* \"#utility.yul\":2918:2959   */\n    tag_88:\n        /* \"#utility.yul\":2986:2987   */\n      0x01\n        /* \"#utility.yul\":2979:2984   */\n      dup3\n        /* \"#utility.yul\":2975:2988   */\n      sub\n        /* \"#utility.yul\":2968:2988   */\n      swap1\n      pop\n        /* \"#utility.yul\":2823:2994   */\n      swap2\n      swap1\n      pop\n      jump\t// out\n        /* \"#utility.yul\":3000:3194   */\n    tag_35:\n        /* \"#utility.yul\":3040:3044   */\n      0x00\n        /* \"#utility.yul\":3060:3080   */\n      tag_91\n        /* \"#utility.yul\":3078:3079   */\n      dup3\n        /* \"#utility.yul\":3060:3080   */\n      tag_38\n      jump\t// in\n    tag_91:\n        /* \"#utility.yul\":3055:3080   */\n      swap2\n      pop\n        /* \"#utility.yul\":3094:3114   */\n      tag_92\n        /* \"#utility.yul\":3112:3113   */\n      dup4\n        /* \"#utility.yul\":3094:3114   */\n      tag_38\n      jump\t// in\n    tag_92:\n        /* \"#utility.yul\":3089:3114   */\n      swap3\n      pop\n        /* \"#utility.yul\":3138:3139   */\n      dup3\n        /* \"#utility.yul\":3135:3136   */\n      dup3\n        /* \"#utility.yul\":3131:3140   */\n      sub\n        /* \"#utility.yul\":3123:3140   */\n      swap1\n      pop\n        /* \"#utility.yul\":3162:3163   */\n      dup2\n        /* \"#utility.yul\":3156:3160   */\n      dup2\n        /* \"#utility.yul\":3153:3164   */\n      gt\n        /* \"#utility.yul\":3150:3187   */\n      iszero\n      tag_93\n      jumpi\n        /* \"#utility.yul\":3167:3185   */\n      tag_94\n      tag_50\n      jump\t// in\n    tag_94:\n        /* \"#utility.yul\":3150:3187   */\n    tag_93:\n        /* \"#utility.yul\":3000:3194   */\n      swap3\n      swap2\n      pop\n      pop\n      jump\t// out\n        /* \"#utility.yul\":3200:3642   */\n    tag_37:\n        /* \"#utility.yul\":3349:3353   */\n      0x00\n        /* \"#utility.yul\":3387:3389   */\n      0x60\n        /* \"#utility.yul\":3376:3385   */\n      dup3\n        /* \"#utility.yul\":3372:3390   */\n      add\n        /* \"#utility.yul\":3364:3390   */\n      swap1\n      pop\n        /* \"#utility.yul\":3400:3471   */\n      tag_96\n        /* \"#utility.yul\":3468:3469   */\n      0x00\n        /* \"#utility.yul\":3457:3466   */\n      dup4\n        /* \"#utility.yul\":3453:3470   */\n      add\n        /* \"#utility.yul\":3444:3450   */\n      dup7\n        /* \"#utility.yul\":3400:3471   */\n      tag_49\n      jump\t// in\n    tag_96:\n        /* \"#utility.yul\":3481:3553   */\n      tag_97\n        /* \"#utility.yul\":3549:3551   */\n      0x20\n        /* \"#utility.yul\":3538:3547   */\n      dup4\n        /* \"#utility.yul\":3534:3552   */\n      add\n        /* \"#utility.yul\":3525:3531   */\n      dup6\n        /* \"#utility.yul\":3481:3553   */\n      tag_39\n      jump\t// in\n    tag_97:\n        /* \"#utility.yul\":3563:3635   */\n      tag_98\n        /* \"#utility.yul\":3631:3633   */\n      0x40\n        /* \"#utility.yul\":3620:3629   */\n      dup4\n        /* \"#utility.yul\":3616:3634   */\n      add\n        /* \"#utility.yul\":3607:3613   */\n      dup5\n        /* \"#utility.yul\":3563:3635   */\n      tag_39\n      jump\t// in\n    tag_98:\n        /* \"#utility.yul\":3200:3642   */\n      swap5\n      swap4\n      pop\n      pop\n      pop\n      pop\n      jump\t// out\n\n    auxdata: 0xa2646970667358221220cb7dbe11d5d8abd7b8b594e8c420865afdb9b1d9043bfaf6b212a557d0455fb464736f6c634300081e0033\n}\n",
				"bytecode": {
					"linkReferences": {},
					"object": "608060405260015f5f6101000a81548173ffffffffffffffffffffffffffffffffffffffff021916908373ffffffffffffffffffffffffffffffffffffffff160217905550348015604e575f5ffd5b506104218061005c5f395ff3fe608060405234801561000f575f5ffd5b506004361061004a575f3560e01c8063919840ad1461004e578063de38bccb1461006c578063e6b0eaf11461008a578063fe375cb5146100ba575b5f5ffd5b6100566100d8565b60405161006391906101ed565b60405180910390f35b610074610129565b60405161008191906101ed565b60405180910390f35b6100a4600480360381019061009f9190610234565b610142565b6040516100b19190610277565b60405180910390f35b6100c26101b1565b6040516100cf91906102cf565b60405180910390f35b5f5f7f24f6c86cc299508a85c4c0de7b08ff7d3fba2a939acdfe2307e0465e9e4175065f1b90505f5b8161010b82610142565b14610121578061011a90610315565b9050610101565b809250505090565b5f5f60649050806101399061035c565b90508091505090565b5f5f606490505f620151cc90505f73537c8f3d3e18df5517a58b3fb9d914369799680290505f85846101749190610383565b90505f82848360405160200161018c939291906103b6565b6040516020818303038152906040528051906020012090508095505050505050919050565b5f5f9054906101000a900473ffffffffffffffffffffffffffffffffffffffff1681565b5f819050919050565b6101e7816101d5565b82525050565b5f6020820190506102005f8301846101de565b92915050565b5f5ffd5b610213816101d5565b811461021d575f5ffd5b50565b5f8135905061022e8161020a565b92915050565b5f6020828403121561024957610248610206565b5b5f61025684828501610220565b91505092915050565b5f819050919050565b6102718161025f565b82525050565b5f60208201905061028a5f830184610268565b92915050565b5f73ffffffffffffffffffffffffffffffffffffffff82169050919050565b5f6102b982610290565b9050919050565b6102c9816102af565b82525050565b5f6020820190506102e25f8301846102c0565b92915050565b7f4e487b71000000000000000000000000000000000000000000000000000000005f52601160045260245ffd5b5f61031f826101d5565b91507fffffffffffffffffffffffffffffffffffffffffffffffffffffffffffffffff8203610351576103506102e8565b5b600182019050919050565b5f610366826101d5565b91505f8203610378576103776102e8565b5b600182039050919050565b5f61038d826101d5565b9150610398836101d5565b92508282039050818111156103b0576103af6102e8565b5b92915050565b5f6060820190506103c95f8301866102c0565b6103d660208301856101de565b6103e360408301846101de565b94935050505056fea2646970667358221220cb7dbe11d5d8abd7b8b594e8c420865afdb9b1d9043bfaf6b212a557d0455fb464736f6c634300081e0033",
					"opcodes": "PUSH1 0x80 PUSH1 0x40 MSTORE PUSH1 0x1 PUSH0 PUSH0 PUSH2 0x100 EXP DUP2 SLOAD DUP2 PUSH20 0xFFFFFFFFFFFFFFFFFFFFFFFFFFFFFFFFFFFFFFFF MUL NOT AND SWAP1 DUP4 PUSH20 0xFFFFFFFFFFFFFFFFFFFFFFFFFFFFFFFFFFFFFFFF AND MUL OR SWAP1 SSTORE POP CALLVALUE DUP1 ISZERO PUSH1 0x4E JUMPI PUSH0 PUSH0 REVERT JUMPDEST POP PUSH2 0x421 DUP1 PUSH2 0x5C PUSH0 CODECOPY PUSH0 RETURN INVALID PUSH1 0x80 PUSH1 0x40 MSTORE CALLVALUE DUP1 ISZERO PUSH2 0xF JUMPI PUSH0 PUSH0 REVERT JUMPDEST POP PUSH1 0x4 CALLDATASIZE LT PUSH2 0x4A JUMPI PUSH0 CALLDATALOAD PUSH1 0xE0 SHR DUP1 PUSH4 0x919840AD EQ PUSH2 0x4E JUMPI DUP1 PUSH4 0xDE38BCCB EQ PUSH2 0x6C JUMPI DUP1 PUSH4 0xE6B0EAF1 EQ PUSH2 0x8A JUMPI DUP1 PUSH4 0xFE375CB5 EQ PUSH2 0xBA JUMPI JUMPDEST PUSH0 PUSH0 REVERT JUMPDEST PUSH2 0x56 PUSH2 0xD8 JUMP JUMPDEST PUSH1 0x40 MLOAD PUSH2 0x63 SWAP2 SWAP1 PUSH2 0x1ED JUMP JUMPDEST PUSH1 0x40 MLOAD DUP1 SWAP2 SUB SWAP1 RETURN JUMPDEST PUSH2 0x74 PUSH2 0x129 JUMP JUMPDEST PUSH1 0x40 MLOAD PUSH2 0x81 SWAP2 SWAP1 PUSH2 0x1ED JUMP JUMPDEST PUSH1 0x40 MLOAD DUP1 SWAP2 SUB SWAP1 RETURN JUMPDEST PUSH2 0xA4 PUSH1 0x4 DUP1 CALLDATASIZE SUB DUP2 ADD SWAP1 PUSH2 0x9F SWAP2 SWAP1 PUSH2 0x234 JUMP JUMPDEST PUSH2 0x142 JUMP JUMPDEST PUSH1 0x40 MLOAD PUSH2 0xB1 SWAP2 SWAP1 PUSH2 0x277 JUMP JUMPDEST PUSH1 0x40 MLOAD DUP1 SWAP2 SUB SWAP1 RETURN JUMPDEST PUSH2 0xC2 PUSH2 0x1B1 JUMP JUMPDEST PUSH1 0x40 MLOAD PUSH2 0xCF SWAP2 SWAP1 PUSH2 0x2CF JUMP JUMPDEST PUSH1 0x40 MLOAD DUP1 SWAP2 SUB SWAP1 RETURN JUMPDEST PUSH0 PUSH0 PUSH32 0x24F6C86CC299508A85C4C0DE7B08FF7D3FBA2A939ACDFE2307E0465E9E417506 PUSH0 SHL SWAP1 POP PUSH0 JUMPDEST DUP2 PUSH2 0x10B DUP3 PUSH2 0x142 JUMP JUMPDEST EQ PUSH2 0x121 JUMPI DUP1 PUSH2 0x11A SWAP1 PUSH2 0x315 JUMP JUMPDEST SWAP1 POP PUSH2 0x101 JUMP JUMPDEST DUP1 SWAP3 POP POP POP SWAP1 JUMP JUMPDEST PUSH0 PUSH0 PUSH1 0x64 SWAP1 POP DUP1 PUSH2 0x139 SWAP1 PUSH2 0x35C JUMP JUMPDEST SWAP1 POP DUP1 SWAP2 POP POP SWAP1 JUMP JUMPDEST PUSH0 PUSH0 PUSH1 0x64 SWAP1 POP PUSH0 PUSH3 0x151CC SWAP1 POP PUSH0 PUSH20 0x537C8F3D3E18DF5517A58B3FB9D9143697996802 SWAP1 POP PUSH0 DUP6 DUP5 PUSH2 0x174 SWAP2 SWAP1 PUSH2 0x383 JUMP JUMPDEST SWAP1 POP PUSH0 DUP3 DUP5 DUP4 PUSH1 0x40 MLOAD PUSH1 0x20 ADD PUSH2 0x18C SWAP4 SWAP3 SWAP2 SWAP1 PUSH2 0x3B6 JUMP JUMPDEST PUSH1 0x40 MLOAD PUSH1 0x20 DUP2 DUP4 SUB SUB DUP2 MSTORE SWAP1 PUSH1 0x40 MSTORE DUP1 MLOAD SWAP1 PUSH1 0x20 ADD KECCAK256 SWAP1 POP DUP1 SWAP6 POP POP POP POP POP POP SWAP2 SWAP1 POP JUMP JUMPDEST PUSH0 PUSH0 SWAP1 SLOAD SWAP1 PUSH2 0x100 EXP SWAP1 DIV PUSH20 0xFFFFFFFFFFFFFFFFFFFFFFFFFFFFFFFFFFFFFFFF AND DUP2 JUMP JUMPDEST PUSH0 DUP2 SWAP1 POP SWAP2 SWAP1 POP JUMP JUMPDEST PUSH2 0x1E7 DUP2 PUSH2 0x1D5 JUMP JUMPDEST DUP3 MSTORE POP POP JUMP JUMPDEST PUSH0 PUSH1 0x20 DUP3 ADD SWAP1 POP PUSH2 0x200 PUSH0 DUP4 ADD DUP5 PUSH2 0x1DE JUMP JUMPDEST SWAP3 SWAP2 POP POP JUMP JUMPDEST PUSH0 PUSH0 REVERT JUMPDEST PUSH2 0x213 DUP2 PUSH2 0x1D5 JUMP JUMPDEST DUP2 EQ PUSH2 0x21D JUMPI PUSH0 PUSH0 REVERT JUMPDEST POP JUMP JUMPDEST PUSH0 DUP2 CALLDATALOAD SWAP1 POP PUSH2 0x22E DUP2 PUSH2 0x20A JUMP JUMPDEST SWAP3 SWAP2 POP POP JUMP JUMPDEST PUSH0 PUSH1 0x20 DUP3 DUP5 SUB SLT ISZERO PUSH2 0x249 JUMPI PUSH2 0x248 PUSH2 0x206 JUMP JUMPDEST JUMPDEST PUSH0 PUSH2 0x256 DUP5 DUP3 DUP6 ADD PUSH2 0x220 JUMP JUMPDEST SWAP2 POP POP SWAP3 SWAP2 POP POP JUMP JUMPDEST PUSH0 DUP2 SWAP1 POP SWAP2 SWAP1 POP JUMP JUMPDEST PUSH2 0x271 DUP2 PUSH2 0x25F JUMP JUMPDEST DUP3 MSTORE POP POP JUMP JUMPDEST PUSH0 PUSH1 0x20 DUP3 ADD SWAP1 POP PUSH2 0x28A PUSH0 DUP4 ADD DUP5 PUSH2 0x268 JUMP JUMPDEST SWAP3 SWAP2 POP POP JUMP JUMPDEST PUSH0 PUSH20 0xFFFFFFFFFFFFFFFFFFFFFFFFFFFFFFFFFFFFFFFF DUP3 AND SWAP1 POP SWAP2 SWAP1 POP JUMP JUMPDEST PUSH0 PUSH2 0x2B9 DUP3 PUSH2 0x290 JUMP JUMPDEST SWAP1 POP SWAP2 SWAP1 POP JUMP JUMPDEST PUSH2 0x2C9 DUP2 PUSH2 0x2AF JUMP JUMPDEST DUP3 MSTORE POP POP JUMP JUMPDEST PUSH0 PUSH1 0x20 DUP3 ADD SWAP1 POP PUSH2 0x2E2 PUSH0 DUP4 ADD DUP5 PUSH2 0x2C0 JUMP JUMPDEST SWAP3 SWAP2 POP POP JUMP JUMPDEST PUSH32 0x4E487B7100000000000000000000000000000000000000000000000000000000 PUSH0 MSTORE PUSH1 0x11 PUSH1 0x4 MSTORE PUSH1 0x24 PUSH0 REVERT JUMPDEST PUSH0 PUSH2 0x31F DUP3 PUSH2 0x1D5 JUMP JUMPDEST SWAP2 POP PUSH32 0xFFFFFFFFFFFFFFFFFFFFFFFFFFFFFFFFFFFFFFFFFFFFFFFFFFFFFFFFFFFFFFFF DUP3 SUB PUSH2 0x351 JUMPI PUSH2 0x350 PUSH2 0x2E8 JUMP JUMPDEST JUMPDEST PUSH1 0x1 DUP3 ADD SWAP1 POP SWAP2 SWAP1 POP JUMP JUMPDEST PUSH0 PUSH2 0x366 DUP3 PUSH2 0x1D5 JUMP JUMPDEST SWAP2 POP PUSH0 DUP3 SUB PUSH2 0x378 JUMPI PUSH2 0x377 PUSH2 0x2E8 JUMP JUMPDEST JUMPDEST PUSH1 0x1 DUP3 SUB SWAP1 POP SWAP2 SWAP1 POP JUMP JUMPDEST PUSH0 PUSH2 0x38D DUP3 PUSH2 0x1D5 JUMP JUMPDEST SWAP2 POP PUSH2 0x398 DUP4 PUSH2 0x1D5 JUMP JUMPDEST SWAP3 POP DUP3 DUP3 SUB SWAP1 POP DUP2 DUP2 GT ISZERO PUSH2 0x3B0 JUMPI PUSH2 0x3AF PUSH2 0x2E8 JUMP JUMPDEST JUMPDEST SWAP3 SWAP2 POP POP JUMP JUMPDEST PUSH0 PUSH1 0x60 DUP3 ADD SWAP1 POP PUSH2 0x3C9 PUSH0 DUP4 ADD DUP7 PUSH2 0x2C0 JUMP JUMPDEST PUSH2 0x3D6 PUSH1 0x20 DUP4 ADD DUP6 PUSH2 0x1DE JUMP JUMPDEST PUSH2 0x3E3 PUSH1 0x40 DUP4 ADD DUP5 PUSH2 0x1DE JUMP JUMPDEST SWAP5 SWAP4 POP POP POP POP JUMP INVALID LOG2 PUSH5 0x6970667358 0x22 SLT KECCAK256 0xCB PUSH30 0xBE11D5D8ABD7B8B594E8C420865AFDB9B1D9043BFAF6B212A557D0455FB4 PUSH5 0x736F6C6343 STOP ADDMOD 0x1E STOP CALLER "
				},
				"gasEstimates": {
					"creation": {
						"codeDepositCost": "211400",
						"executionCost": "24520",
						"totalCost": "235920"
					},
					"external": {
						"check()": "infinite",
						"ret(uint256)": "infinite",
						"sugarcheck()": "infinite",
						"sumAddr()": "2551"
					},
					"internal": {
						"_generateVaultId(uint256,address)": "infinite"
					}
				},
				"methodIdentifiers": {
					"check()": "919840ad",
					"ret(uint256)": "e6b0eaf1",
					"sugarcheck()": "de38bccb",
					"sumAddr()": "fe375cb5"
				}
			},
			"storageLayout": {
				"storage": [
					{
						"astId": 7,
						"contract": "testOperator.sol:Test",
						"label": "sumAddr",
						"offset": 0,
						"slot": "0",
						"type": "t_address"
					}
				],
				"types": {
					"t_address": {
						"encoding": "inplace",
						"label": "address",
						"numberOfBytes": "20"
					}
				}
			},
			"userdoc": {
				"kind": "user",
				"methods": {},
				"version": 1
			}
		}
	}
}