{
	"testDecimalPrecision.sol": {
		"PrecisionConversion": {
			"abi": [
				{
					"inputs": [],
					"name": "cast",
					"outputs": [],
					"stateMutability": "nonpayable",
					"type": "function"
				},
				{
					"inputs": [],
					"name": "indexPrecision",
					"outputs": [
						{
							"internalType": "uint256",
							"name": "",
							"type": "uint256"
						}
					],
					"stateMutability": "pure",
					"type": "function"
				},
				{
					"inputs": [],
					"name": "indexPrecision2",
					"outputs": [
						{
							"internalType": "uint256",
							"name": "",
							"type": "uint256"
						}
					],
					"stateMutability": "pure",
					"type": "function"
				},
				{
					"inputs": [],
					"name": "lower",
					"outputs": [
						{
							"internalType": "uint256",
							"name": "",
							"type": "uint256"
						}
					],
					"stateMutability": "view",
					"type": "function"
				},
				{
					"inputs": [],
					"name": "nftPrecision",
					"outputs": [
						{
							"internalType": "uint256",
							"name": "",
							"type": "uint256"
						}
					],
					"stateMutability": "pure",
					"type": "function"
				},
				{
					"inputs": [],
					"name": "sec1",
					"outputs": [
						{
							"internalType": "uint256",
							"name": "",
							"type": "uint256"
						}
					],
					"stateMutability": "view",
					"type": "function"
				},
				{
					"inputs": [],
					"name": "sec2",
					"outputs": [
						{
							"internalType": "uint256",
							"name": "",
							"type": "uint256"
						}
					],
					"stateMutability": "view",
					"type": "function"
				},
				{
					"inputs": [],
					"name": "sec3",
					"outputs": [
						{
							"internalType": "uint256",
							"name": "",
							"type": "uint256"
						}
					],
					"stateMutability": "view",
					"type": "function"
				},
				{
					"inputs": [],
					"name": "sec4",
					"outputs": [
						{
							"internalType": "uint256",
							"name": "",
							"type": "uint256"
						}
					],
					"stateMutability": "view",
					"type": "function"
				},
				{
					"inputs": [],
					"name": "sec5",
					"outputs": [
						{
							"internalType": "uint256",
							"name": "",
							"type": "uint256"
						}
					],
					"stateMutability": "view",
					"type": "function"
				},
				{
					"inputs": [],
					"name": "upper",
					"outputs": [
						{
							"internalType": "uint256",
							"name": "",
							"type": "uint256"
						}
					],
					"stateMutability": "view",
					"type": "function"
				}
			],
			"devdoc": {
				"kind": "dev",
				"methods": {},
				"version": 1
			},
			"evm": {
				"assembly": "    /* \"testDecimalPrecision.sol\":68:4914  contract PrecisionConversion {... */\n  mstore(0x40, 0x80)\n  callvalue\n  dup1\n  iszero\n  tag_1\n  jumpi\n  0x00\n  dup1\n  revert\ntag_1:\n  pop\n  dataSize(sub_0)\n  dup1\n  dataOffset(sub_0)\n  0x00\n  codecopy\n  0x00\n  return\nstop\n\nsub_0: assembly {\n        /* \"testDecimalPrecision.sol\":68:4914  contract PrecisionConversion {... */\n      mstore(0x40, 0x80)\n      callvalue\n      dup1\n      iszero\n      tag_1\n      jumpi\n      0x00\n      dup1\n      revert\n    tag_1:\n      pop\n      jumpi(tag_2, lt(calldatasize, 0x04))\n      shr(0xe0, calldataload(0x00))\n      dup1\n      0xa280b8d2\n      gt\n      tag_14\n      jumpi\n      dup1\n      0xa280b8d2\n      eq\n      tag_8\n      jumpi\n      dup1\n      0xb951486d\n      eq\n      tag_9\n      jumpi\n      dup1\n      0xc13d5ce1\n      eq\n      tag_10\n      jumpi\n      dup1\n      0xce42c310\n      eq\n      tag_11\n      jumpi\n      dup1\n      0xd4c207ad\n      eq\n      tag_12\n      jumpi\n      dup1\n      0xe4a8fb9a\n      eq\n      tag_13\n      jumpi\n      jump(tag_2)\n    tag_14:\n      dup1\n      0x182ec12a\n      eq\n      tag_3\n      jumpi\n      dup1\n      0x3afae612\n      eq\n      tag_4\n      jumpi\n      dup1\n      0x4bdf4a6d\n      eq\n      tag_5\n      jumpi\n      dup1\n      0x6fd3af76\n      eq\n      tag_6\n      jumpi\n      dup1\n      0x96d373e5\n      eq\n      tag_7\n      jumpi\n    tag_2:\n      0x00\n      dup1\n      revert\n        /* \"testDecimalPrecision.sol\":1776:2726  function indexPrecision() public pure returns(uint256) {... */\n    tag_3:\n      tag_15\n      tag_16\n      jump\t// in\n    tag_15:\n      mload(0x40)\n      tag_17\n      swap2\n      swap1\n      tag_18\n      jump\t// in\n    tag_17:\n      mload(0x40)\n      dup1\n      swap2\n      sub\n      swap1\n      return\n        /* \"testDecimalPrecision.sol\":627:903  function sec2() public view returns(uint256) {... */\n    tag_4:\n      tag_19\n      tag_20\n      jump\t// in\n    tag_19:\n      mload(0x40)\n      tag_21\n      swap2\n      swap1\n      tag_18\n      jump\t// in\n    tag_21:\n      mload(0x40)\n      dup1\n      swap2\n      sub\n      swap1\n      return\n        /* \"testDecimalPrecision.sol\":106:123  uint public upper */\n    tag_5:\n      tag_22\n      tag_23\n      jump\t// in\n    tag_22:\n      mload(0x40)\n      tag_24\n      swap2\n      swap1\n      tag_18\n      jump\t// in\n    tag_24:\n      mload(0x40)\n      dup1\n      swap2\n      sub\n      swap1\n      return\n        /* \"testDecimalPrecision.sol\":338:613  function sec1() public view returns(uint256) {... */\n    tag_6:\n      tag_25\n      tag_26\n      jump\t// in\n    tag_25:\n      mload(0x40)\n      tag_27\n      swap2\n      swap1\n      tag_18\n      jump\t// in\n    tag_27:\n      mload(0x40)\n      dup1\n      swap2\n      sub\n      swap1\n      return\n        /* \"testDecimalPrecision.sol\":156:330  function cast() public {... */\n    tag_7:\n      tag_28\n      tag_29\n      jump\t// in\n    tag_28:\n      stop\n        /* \"testDecimalPrecision.sol\":915:1190  function sec3() public view returns(uint256) {... */\n    tag_8:\n      tag_30\n      tag_31\n      jump\t// in\n    tag_30:\n      mload(0x40)\n      tag_32\n      swap2\n      swap1\n      tag_18\n      jump\t// in\n    tag_32:\n      mload(0x40)\n      dup1\n      swap2\n      sub\n      swap1\n      return\n        /* \"testDecimalPrecision.sol\":130:147  uint public lower */\n    tag_9:\n      tag_33\n      tag_34\n      jump\t// in\n    tag_33:\n      mload(0x40)\n      tag_35\n      swap2\n      swap1\n      tag_18\n      jump\t// in\n    tag_35:\n      mload(0x40)\n      dup1\n      swap2\n      sub\n      swap1\n      return\n        /* \"testDecimalPrecision.sol\":1198:1480  function sec4() public view returns(uint256) {... */\n    tag_10:\n      tag_36\n      tag_37\n      jump\t// in\n    tag_36:\n      mload(0x40)\n      tag_38\n      swap2\n      swap1\n      tag_18\n      jump\t// in\n    tag_38:\n      mload(0x40)\n      dup1\n      swap2\n      sub\n      swap1\n      return\n        /* \"testDecimalPrecision.sol\":3327:4389  function indexPrecision2() public pure returns(uint256) {... */\n    tag_11:\n      tag_39\n      tag_40\n      jump\t// in\n    tag_39:\n      mload(0x40)\n      tag_41\n      swap2\n      swap1\n      tag_18\n      jump\t// in\n    tag_41:\n      mload(0x40)\n      dup1\n      swap2\n      sub\n      swap1\n      return\n        /* \"testDecimalPrecision.sol\":4401:4911  function nftPrecision() public pure returns(uint256) {... */\n    tag_12:\n      tag_42\n      tag_43\n      jump\t// in\n    tag_42:\n      mload(0x40)\n      tag_44\n      swap2\n      swap1\n      tag_18\n      jump\t// in\n    tag_44:\n      mload(0x40)\n      dup1\n      swap2\n      sub\n      swap1\n      return\n        /* \"testDecimalPrecision.sol\":1488:1768  function sec5() public view returns(uint256) {... */\n    tag_13:\n      tag_45\n      tag_46\n      jump\t// in\n    tag_45:\n      mload(0x40)\n      tag_47\n      swap2\n      swap1\n      tag_18\n      jump\t// in\n    tag_47:\n      mload(0x40)\n      dup1\n      swap2\n      sub\n      swap1\n      return\n        /* \"testDecimalPrecision.sol\":1776:2726  function indexPrecision() public pure returns(uint256) {... */\n    tag_16:\n        /* \"testDecimalPrecision.sol\":1822:1829  uint256 */\n      0x00\n        /* \"testDecimalPrecision.sol\":1852:1872  uint256 totalBalance */\n      dup1\n        /* \"testDecimalPrecision.sol\":1875:1885  1.23 ether */\n      0x1111d67bb1bb0000\n        /* \"testDecimalPrecision.sol\":1852:1885  uint256 totalBalance = 1.23 ether */\n      swap1\n      pop\n        /* \"testDecimalPrecision.sol\":1896:1932  uint256 distribution_TOKEN_PRECISION */\n      0x00\n        /* \"testDecimalPrecision.sol\":1935:1938  1e1 */\n      0x0a\n        /* \"testDecimalPrecision.sol\":1896:1938  uint256 distribution_TOKEN_PRECISION = 1e1 */\n      swap1\n      pop\n        /* \"testDecimalPrecision.sol\":1996:2023  uint256 totalBalanceRebased */\n      0x00\n        /* \"testDecimalPrecision.sol\":2074:2078  1E18 */\n      0x0de0b6b3a7640000\n        /* \"testDecimalPrecision.sol\":2042:2070  distribution_TOKEN_PRECISION */\n      dup3\n        /* \"testDecimalPrecision.sol\":2027:2039  totalBalance */\n      dup5\n        /* \"testDecimalPrecision.sol\":2027:2070  totalBalance * distribution_TOKEN_PRECISION */\n      tag_49\n      swap2\n      swap1\n      tag_50\n      jump\t// in\n    tag_49:\n        /* \"testDecimalPrecision.sol\":2026:2078  (totalBalance * distribution_TOKEN_PRECISION) / 1E18 */\n      tag_51\n      swap2\n      swap1\n      tag_52\n      jump\t// in\n    tag_51:\n        /* \"testDecimalPrecision.sol\":1996:2078  uint256 totalBalanceRebased = (totalBalance * distribution_TOKEN_PRECISION) / 1E18 */\n      swap1\n      pop\n        /* \"testDecimalPrecision.sol\":2236:2262  uint256 distribution_index */\n      0x00\n        /* \"testDecimalPrecision.sol\":2342:2364  uint256 emittedRewards */\n      dup1\n        /* \"testDecimalPrecision.sol\":2404:2405  1 */\n      0x01\n        /* \"testDecimalPrecision.sol\":2372:2400  distribution_TOKEN_PRECISION */\n      dup5\n        /* \"testDecimalPrecision.sol\":2368:2369  1 */\n      0x01\n        /* \"testDecimalPrecision.sol\":2368:2400  1 * distribution_TOKEN_PRECISION */\n      tag_53\n      swap2\n      swap1\n      tag_50\n      jump\t// in\n    tag_53:\n        /* \"testDecimalPrecision.sol\":2367:2405  (1 * distribution_TOKEN_PRECISION) * 1 */\n      tag_54\n      swap2\n      swap1\n      tag_50\n      jump\t// in\n    tag_54:\n        /* \"testDecimalPrecision.sol\":2342:2405  uint256 emittedRewards = (1 * distribution_TOKEN_PRECISION) * 1 */\n      swap1\n      pop\n        /* \"testDecimalPrecision.sol\":2524:2553  uint256 nextDistributionIndex */\n      0x00\n        /* \"testDecimalPrecision.sol\":2630:2648  distribution_index */\n      dup3\n        /* \"testDecimalPrecision.sol\":2607:2626  totalBalanceRebased */\n      dup5\n        /* \"testDecimalPrecision.sol\":2575:2603  distribution_TOKEN_PRECISION */\n      dup7\n        /* \"testDecimalPrecision.sol\":2558:2572  emittedRewards */\n      dup5\n        /* \"testDecimalPrecision.sol\":2558:2603  emittedRewards * distribution_TOKEN_PRECISION */\n      tag_55\n      swap2\n      swap1\n      tag_50\n      jump\t// in\n    tag_55:\n        /* \"testDecimalPrecision.sol\":2557:2626  (emittedRewards * distribution_TOKEN_PRECISION) / totalBalanceRebased */\n      tag_56\n      swap2\n      swap1\n      tag_52\n      jump\t// in\n    tag_56:\n        /* \"testDecimalPrecision.sol\":2556:2648  ((emittedRewards * distribution_TOKEN_PRECISION) / totalBalanceRebased) + distribution_index */\n      tag_57\n      swap2\n      swap1\n      tag_58\n      jump\t// in\n    tag_57:\n        /* \"testDecimalPrecision.sol\":2524:2648  uint256 nextDistributionIndex = ((emittedRewards * distribution_TOKEN_PRECISION) / totalBalanceRebased) + distribution_index */\n      swap1\n      pop\n        /* \"testDecimalPrecision.sol\":2667:2688  nextDistributionIndex */\n      dup1\n        /* \"testDecimalPrecision.sol\":2660:2688  return nextDistributionIndex */\n      swap7\n      pop\n      pop\n      pop\n      pop\n      pop\n      pop\n      pop\n        /* \"testDecimalPrecision.sol\":1776:2726  function indexPrecision() public pure returns(uint256) {... */\n      swap1\n      jump\t// out\n        /* \"testDecimalPrecision.sol\":627:903  function sec2() public view returns(uint256) {... */\n    tag_20:\n        /* \"testDecimalPrecision.sol\":663:670  uint256 */\n      0x00\n        /* \"testDecimalPrecision.sol\":693:712  uint256 inputTokens */\n      dup1\n        /* \"testDecimalPrecision.sol\":715:730  1.2345678 ether */\n      0x112210df8222b000\n        /* \"testDecimalPrecision.sol\":693:730  uint256 inputTokens = 1.2345678 ether */\n      swap1\n      pop\n        /* \"testDecimalPrecision.sol\":741:764  uint256 TOKEN_PRECISION */\n      0x00\n        /* \"testDecimalPrecision.sol\":767:771  1e21 */\n      0x3635c9adc5dea00000\n        /* \"testDecimalPrecision.sol\":741:771  uint256 TOKEN_PRECISION = 1e21 */\n      swap1\n      pop\n        /* \"testDecimalPrecision.sol\":784:809  uint256 stakedMocaRebased */\n      0x00\n        /* \"testDecimalPrecision.sol\":846:850  1E18 */\n      0x0de0b6b3a7640000\n        /* \"testDecimalPrecision.sol\":827:842  TOKEN_PRECISION */\n      dup3\n        /* \"testDecimalPrecision.sol\":813:824  inputTokens */\n      dup5\n        /* \"testDecimalPrecision.sol\":813:842  inputTokens * TOKEN_PRECISION */\n      tag_60\n      swap2\n      swap1\n      tag_50\n      jump\t// in\n    tag_60:\n        /* \"testDecimalPrecision.sol\":812:850  (inputTokens * TOKEN_PRECISION) / 1E18 */\n      tag_61\n      swap2\n      swap1\n      tag_52\n      jump\t// in\n    tag_61:\n        /* \"testDecimalPrecision.sol\":784:850  uint256 stakedMocaRebased = (inputTokens * TOKEN_PRECISION) / 1E18 */\n      swap1\n      pop\n        /* \"testDecimalPrecision.sol\":878:895  stakedMocaRebased */\n      dup1\n        /* \"testDecimalPrecision.sol\":871:895  return stakedMocaRebased */\n      swap4\n      pop\n      pop\n      pop\n      pop\n        /* \"testDecimalPrecision.sol\":627:903  function sec2() public view returns(uint256) {... */\n      swap1\n      jump\t// out\n        /* \"testDecimalPrecision.sol\":106:123  uint public upper */\n    tag_23:\n      sload(0x00)\n      dup2\n      jump\t// out\n        /* \"testDecimalPrecision.sol\":338:613  function sec1() public view returns(uint256) {... */\n    tag_26:\n        /* \"testDecimalPrecision.sol\":374:381  uint256 */\n      0x00\n        /* \"testDecimalPrecision.sol\":404:423  uint256 inputTokens */\n      dup1\n        /* \"testDecimalPrecision.sol\":426:441  1.2345678 ether */\n      0x112210df8222b000\n        /* \"testDecimalPrecision.sol\":404:441  uint256 inputTokens = 1.2345678 ether */\n      swap1\n      pop\n        /* \"testDecimalPrecision.sol\":452:475  uint256 TOKEN_PRECISION */\n      0x00\n        /* \"testDecimalPrecision.sol\":478:481  1e6 */\n      0x0f4240\n        /* \"testDecimalPrecision.sol\":452:481  uint256 TOKEN_PRECISION = 1e6 */\n      swap1\n      pop\n        /* \"testDecimalPrecision.sol\":494:519  uint256 stakedMocaRebased */\n      0x00\n        /* \"testDecimalPrecision.sol\":556:560  1E18 */\n      0x0de0b6b3a7640000\n        /* \"testDecimalPrecision.sol\":537:552  TOKEN_PRECISION */\n      dup3\n        /* \"testDecimalPrecision.sol\":523:534  inputTokens */\n      dup5\n        /* \"testDecimalPrecision.sol\":523:552  inputTokens * TOKEN_PRECISION */\n      tag_63\n      swap2\n      swap1\n      tag_50\n      jump\t// in\n    tag_63:\n        /* \"testDecimalPrecision.sol\":522:560  (inputTokens * TOKEN_PRECISION) / 1E18 */\n      tag_64\n      swap2\n      swap1\n      tag_52\n      jump\t// in\n    tag_64:\n        /* \"testDecimalPrecision.sol\":494:560  uint256 stakedMocaRebased = (inputTokens * TOKEN_PRECISION) / 1E18 */\n      swap1\n      pop\n        /* \"testDecimalPrecision.sol\":588:605  stakedMocaRebased */\n      dup1\n        /* \"testDecimalPrecision.sol\":581:605  return stakedMocaRebased */\n      swap4\n      pop\n      pop\n      pop\n      pop\n        /* \"testDecimalPrecision.sol\":338:613  function sec1() public view returns(uint256) {... */\n      swap1\n      jump\t// out\n        /* \"testDecimalPrecision.sol\":156:330  function cast() public {... */\n    tag_29:\n        /* \"testDecimalPrecision.sol\":200:212  uint256 base */\n      0x00\n        /* \"testDecimalPrecision.sol\":216:221  11111 */\n      0x2b67\n        /* \"testDecimalPrecision.sol\":200:221  uint256 base  = 11111 */\n      swap1\n      pop\n        /* \"testDecimalPrecision.sol\":232:245  uint256 based */\n      0x00\n        /* \"testDecimalPrecision.sol\":248:253  77777 */\n      0x012fd1\n        /* \"testDecimalPrecision.sol\":232:253  uint256 based = 77777 */\n      swap1\n      pop\n        /* \"testDecimalPrecision.sol\":289:292  1E2 */\n      0x64\n        /* \"testDecimalPrecision.sol\":282:286  base */\n      dup3\n        /* \"testDecimalPrecision.sol\":282:292  base / 1E2 */\n      tag_66\n      swap2\n      swap1\n      tag_52\n      jump\t// in\n    tag_66:\n        /* \"testDecimalPrecision.sol\":274:279  lower */\n      0x01\n        /* \"testDecimalPrecision.sol\":274:292  lower = base / 1E2 */\n      dup2\n      swap1\n      sstore\n      pop\n        /* \"testDecimalPrecision.sol\":319:322  1E2 */\n      0x64\n        /* \"testDecimalPrecision.sol\":311:316  based */\n      dup2\n        /* \"testDecimalPrecision.sol\":311:322  based / 1E2 */\n      tag_67\n      swap2\n      swap1\n      tag_52\n      jump\t// in\n    tag_67:\n        /* \"testDecimalPrecision.sol\":303:308  upper */\n      0x00\n        /* \"testDecimalPrecision.sol\":303:322  upper = based / 1E2 */\n      dup2\n      swap1\n      sstore\n      pop\n        /* \"testDecimalPrecision.sol\":179:330  {... */\n      pop\n      pop\n        /* \"testDecimalPrecision.sol\":156:330  function cast() public {... */\n      jump\t// out\n        /* \"testDecimalPrecision.sol\":915:1190  function sec3() public view returns(uint256) {... */\n    tag_31:\n        /* \"testDecimalPrecision.sol\":951:958  uint256 */\n      0x00\n        /* \"testDecimalPrecision.sol\":981:1000  uint256 inputTokens */\n      dup1\n        /* \"testDecimalPrecision.sol\":1003:1018  1.2345678 ether */\n      0x112210df8222b000\n        /* \"testDecimalPrecision.sol\":981:1018  uint256 inputTokens = 1.2345678 ether */\n      swap1\n      pop\n        /* \"testDecimalPrecision.sol\":1029:1052  uint256 TOKEN_PRECISION */\n      0x00\n        /* \"testDecimalPrecision.sol\":1055:1058  1e1 */\n      0x0a\n        /* \"testDecimalPrecision.sol\":1029:1058  uint256 TOKEN_PRECISION = 1e1 */\n      swap1\n      pop\n        /* \"testDecimalPrecision.sol\":1071:1096  uint256 stakedMocaRebased */\n      0x00\n        /* \"testDecimalPrecision.sol\":1133:1137  1E18 */\n      0x0de0b6b3a7640000\n        /* \"testDecimalPrecision.sol\":1114:1129  TOKEN_PRECISION */\n      dup3\n        /* \"testDecimalPrecision.sol\":1100:1111  inputTokens */\n      dup5\n        /* \"testDecimalPrecision.sol\":1100:1129  inputTokens * TOKEN_PRECISION */\n      tag_69\n      swap2\n      swap1\n      tag_50\n      jump\t// in\n    tag_69:\n        /* \"testDecimalPrecision.sol\":1099:1137  (inputTokens * TOKEN_PRECISION) / 1E18 */\n      tag_70\n      swap2\n      swap1\n      tag_52\n      jump\t// in\n    tag_70:\n        /* \"testDecimalPrecision.sol\":1071:1137  uint256 stakedMocaRebased = (inputTokens * TOKEN_PRECISION) / 1E18 */\n      swap1\n      pop\n        /* \"testDecimalPrecision.sol\":1165:1182  stakedMocaRebased */\n      dup1\n        /* \"testDecimalPrecision.sol\":1158:1182  return stakedMocaRebased */\n      swap4\n      pop\n      pop\n      pop\n      pop\n        /* \"testDecimalPrecision.sol\":915:1190  function sec3() public view returns(uint256) {... */\n      swap1\n      jump\t// out\n        /* \"testDecimalPrecision.sol\":130:147  uint public lower */\n    tag_34:\n      sload(0x01)\n      dup2\n      jump\t// out\n        /* \"testDecimalPrecision.sol\":1198:1480  function sec4() public view returns(uint256) {... */\n    tag_37:\n        /* \"testDecimalPrecision.sol\":1234:1241  uint256 */\n      0x00\n        /* \"testDecimalPrecision.sol\":1264:1283  uint256 inputTokens */\n      dup1\n        /* \"testDecimalPrecision.sol\":1286:1301  1.2345678 ether */\n      0x112210df8222b000\n        /* \"testDecimalPrecision.sol\":1264:1301  uint256 inputTokens = 1.2345678 ether */\n      swap1\n      pop\n        /* \"testDecimalPrecision.sol\":1312:1335  uint256 TOKEN_PRECISION */\n      0x00\n        /* \"testDecimalPrecision.sol\":1338:1341  1e0 */\n      0x01\n        /* \"testDecimalPrecision.sol\":1312:1341  uint256 TOKEN_PRECISION = 1e0 */\n      swap1\n      pop\n        /* \"testDecimalPrecision.sol\":1354:1379  uint256 stakedMocaRebased */\n      0x00\n        /* \"testDecimalPrecision.sol\":1416:1420  1E18 */\n      0x0de0b6b3a7640000\n        /* \"testDecimalPrecision.sol\":1397:1412  TOKEN_PRECISION */\n      dup3\n        /* \"testDecimalPrecision.sol\":1383:1394  inputTokens */\n      dup5\n        /* \"testDecimalPrecision.sol\":1383:1412  inputTokens * TOKEN_PRECISION */\n      tag_72\n      swap2\n      swap1\n      tag_50\n      jump\t// in\n    tag_72:\n        /* \"testDecimalPrecision.sol\":1382:1420  (inputTokens * TOKEN_PRECISION) / 1E18 */\n      tag_73\n      swap2\n      swap1\n      tag_52\n      jump\t// in\n    tag_73:\n        /* \"testDecimalPrecision.sol\":1354:1420  uint256 stakedMocaRebased = (inputTokens * TOKEN_PRECISION) / 1E18 */\n      swap1\n      pop\n        /* \"testDecimalPrecision.sol\":1448:1465  stakedMocaRebased */\n      dup1\n        /* \"testDecimalPrecision.sol\":1441:1465  return stakedMocaRebased */\n      swap4\n      pop\n      pop\n      pop\n      pop\n        /* \"testDecimalPrecision.sol\":1198:1480  function sec4() public view returns(uint256) {... */\n      swap1\n      jump\t// out\n        /* \"testDecimalPrecision.sol\":3327:4389  function indexPrecision2() public pure returns(uint256) {... */\n    tag_40:\n        /* \"testDecimalPrecision.sol\":3374:3381  uint256 */\n      0x00\n        /* \"testDecimalPrecision.sol\":3404:3424  uint256 totalBalance */\n      dup1\n        /* \"testDecimalPrecision.sol\":3427:3437  1.23 ether */\n      0x1111d67bb1bb0000\n        /* \"testDecimalPrecision.sol\":3404:3437  uint256 totalBalance = 1.23 ether */\n      swap1\n      pop\n        /* \"testDecimalPrecision.sol\":3448:3484  uint256 distribution_TOKEN_PRECISION */\n      0x00\n        /* \"testDecimalPrecision.sol\":3487:3491  1e21 */\n      0x3635c9adc5dea00000\n        /* \"testDecimalPrecision.sol\":3448:3491  uint256 distribution_TOKEN_PRECISION = 1e21 */\n      swap1\n      pop\n        /* \"testDecimalPrecision.sol\":3579:3606  uint256 totalBalanceRebased */\n      0x00\n        /* \"testDecimalPrecision.sol\":3657:3661  1E18 */\n      0x0de0b6b3a7640000\n        /* \"testDecimalPrecision.sol\":3625:3653  distribution_TOKEN_PRECISION */\n      dup3\n        /* \"testDecimalPrecision.sol\":3610:3622  totalBalance */\n      dup5\n        /* \"testDecimalPrecision.sol\":3610:3653  totalBalance * distribution_TOKEN_PRECISION */\n      tag_75\n      swap2\n      swap1\n      tag_50\n      jump\t// in\n    tag_75:\n        /* \"testDecimalPrecision.sol\":3609:3661  (totalBalance * distribution_TOKEN_PRECISION) / 1E18 */\n      tag_76\n      swap2\n      swap1\n      tag_52\n      jump\t// in\n    tag_76:\n        /* \"testDecimalPrecision.sol\":3579:3661  uint256 totalBalanceRebased = (totalBalance * distribution_TOKEN_PRECISION) / 1E18 */\n      swap1\n      pop\n        /* \"testDecimalPrecision.sol\":3817:3843  uint256 distribution_index */\n      0x00\n        /* \"testDecimalPrecision.sol\":3923:3945  uint256 emittedRewards */\n      dup1\n        /* \"testDecimalPrecision.sol\":3985:3986  1 */\n      0x01\n        /* \"testDecimalPrecision.sol\":3953:3981  distribution_TOKEN_PRECISION */\n      dup5\n        /* \"testDecimalPrecision.sol\":3949:3950  1 */\n      0x01\n        /* \"testDecimalPrecision.sol\":3949:3981  1 * distribution_TOKEN_PRECISION */\n      tag_77\n      swap2\n      swap1\n      tag_50\n      jump\t// in\n    tag_77:\n        /* \"testDecimalPrecision.sol\":3948:3986  (1 * distribution_TOKEN_PRECISION) * 1 */\n      tag_78\n      swap2\n      swap1\n      tag_50\n      jump\t// in\n    tag_78:\n        /* \"testDecimalPrecision.sol\":3923:3986  uint256 emittedRewards = (1 * distribution_TOKEN_PRECISION) * 1 */\n      swap1\n      pop\n        /* \"testDecimalPrecision.sol\":4132:4161  uint256 nextDistributionIndex */\n      0x00\n        /* \"testDecimalPrecision.sol\":4238:4256  distribution_index */\n      dup3\n        /* \"testDecimalPrecision.sol\":4215:4234  totalBalanceRebased */\n      dup5\n        /* \"testDecimalPrecision.sol\":4183:4211  distribution_TOKEN_PRECISION */\n      dup7\n        /* \"testDecimalPrecision.sol\":4166:4180  emittedRewards */\n      dup5\n        /* \"testDecimalPrecision.sol\":4166:4211  emittedRewards * distribution_TOKEN_PRECISION */\n      tag_79\n      swap2\n      swap1\n      tag_50\n      jump\t// in\n    tag_79:\n        /* \"testDecimalPrecision.sol\":4165:4234  (emittedRewards * distribution_TOKEN_PRECISION) / totalBalanceRebased */\n      tag_80\n      swap2\n      swap1\n      tag_52\n      jump\t// in\n    tag_80:\n        /* \"testDecimalPrecision.sol\":4164:4256  ((emittedRewards * distribution_TOKEN_PRECISION) / totalBalanceRebased) + distribution_index */\n      tag_81\n      swap2\n      swap1\n      tag_58\n      jump\t// in\n    tag_81:\n        /* \"testDecimalPrecision.sol\":4132:4256  uint256 nextDistributionIndex = ((emittedRewards * distribution_TOKEN_PRECISION) / totalBalanceRebased) + distribution_index */\n      swap1\n      pop\n        /* \"testDecimalPrecision.sol\":4275:4296  nextDistributionIndex */\n      dup1\n        /* \"testDecimalPrecision.sol\":4268:4296  return nextDistributionIndex */\n      swap7\n      pop\n      pop\n      pop\n      pop\n      pop\n      pop\n      pop\n        /* \"testDecimalPrecision.sol\":3327:4389  function indexPrecision2() public pure returns(uint256) {... */\n      swap1\n      jump\t// out\n        /* \"testDecimalPrecision.sol\":4401:4911  function nftPrecision() public pure returns(uint256) {... */\n    tag_43:\n        /* \"testDecimalPrecision.sol\":4445:4452  uint256 */\n      0x00\n        /* \"testDecimalPrecision.sol\":4475:4497  uint256 PRECISION_BASE */\n      dup1\n        /* \"testDecimalPrecision.sol\":4500:4506  10_000 */\n      0x2710\n        /* \"testDecimalPrecision.sol\":4475:4506  uint256 PRECISION_BASE = 10_000 */\n      swap1\n      pop\n        /* \"testDecimalPrecision.sol\":4527:4541  uint256 amount */\n      0x00\n        /* \"testDecimalPrecision.sol\":4544:4551  1 ether */\n      0x0de0b6b3a7640000\n        /* \"testDecimalPrecision.sol\":4527:4551  uint256 amount = 1 ether */\n      swap1\n      pop\n        /* \"testDecimalPrecision.sol\":4562:4592  uint256 vault_totalBoostFactor */\n      0x00\n        /* \"testDecimalPrecision.sol\":4595:4604  20_050* 1 */\n      0x4e52\n        /* \"testDecimalPrecision.sol\":4562:4604  uint256 vault_totalBoostFactor = 20_050* 1 */\n      swap1\n      pop\n        /* \"testDecimalPrecision.sol\":4641:4676  uint256 incomingBoostedStakedTokens */\n      0x00\n        /* \"testDecimalPrecision.sol\":4715:4729  PRECISION_BASE */\n      dup4\n        /* \"testDecimalPrecision.sol\":4689:4711  vault_totalBoostFactor */\n      dup3\n        /* \"testDecimalPrecision.sol\":4680:4686  amount */\n      dup5\n        /* \"testDecimalPrecision.sol\":4680:4711  amount * vault_totalBoostFactor */\n      tag_83\n      swap2\n      swap1\n      tag_50\n      jump\t// in\n    tag_83:\n        /* \"testDecimalPrecision.sol\":4679:4729  (amount * vault_totalBoostFactor) / PRECISION_BASE */\n      tag_84\n      swap2\n      swap1\n      tag_52\n      jump\t// in\n    tag_84:\n        /* \"testDecimalPrecision.sol\":4641:4729  uint256 incomingBoostedStakedTokens = (amount * vault_totalBoostFactor) / PRECISION_BASE */\n      swap1\n      pop\n        /* \"testDecimalPrecision.sol\":4749:4776  incomingBoostedStakedTokens */\n      dup1\n        /* \"testDecimalPrecision.sol\":4742:4776  return incomingBoostedStakedTokens */\n      swap5\n      pop\n      pop\n      pop\n      pop\n      pop\n        /* \"testDecimalPrecision.sol\":4401:4911  function nftPrecision() public pure returns(uint256) {... */\n      swap1\n      jump\t// out\n        /* \"testDecimalPrecision.sol\":1488:1768  function sec5() public view returns(uint256) {... */\n    tag_46:\n        /* \"testDecimalPrecision.sol\":1524:1531  uint256 */\n      0x00\n        /* \"testDecimalPrecision.sol\":1554:1573  uint256 inputTokens */\n      dup1\n        /* \"testDecimalPrecision.sol\":1576:1591  1.2345678 ether */\n      0x112210df8222b000\n        /* \"testDecimalPrecision.sol\":1554:1591  uint256 inputTokens = 1.2345678 ether */\n      swap1\n      pop\n        /* \"testDecimalPrecision.sol\":1602:1625  uint256 TOKEN_PRECISION */\n      0x00\n        /* \"testDecimalPrecision.sol\":1642:1667  uint256 stakedMocaRebased */\n      dup1\n        /* \"testDecimalPrecision.sol\":1704:1708  1E18 */\n      0x0de0b6b3a7640000\n        /* \"testDecimalPrecision.sol\":1685:1700  TOKEN_PRECISION */\n      dup3\n        /* \"testDecimalPrecision.sol\":1671:1682  inputTokens */\n      dup5\n        /* \"testDecimalPrecision.sol\":1671:1700  inputTokens * TOKEN_PRECISION */\n      tag_86\n      swap2\n      swap1\n      tag_50\n      jump\t// in\n    tag_86:\n        /* \"testDecimalPrecision.sol\":1670:1708  (inputTokens * TOKEN_PRECISION) / 1E18 */\n      tag_87\n      swap2\n      swap1\n      tag_52\n      jump\t// in\n    tag_87:\n        /* \"testDecimalPrecision.sol\":1642:1708  uint256 stakedMocaRebased = (inputTokens * TOKEN_PRECISION) / 1E18 */\n      swap1\n      pop\n        /* \"testDecimalPrecision.sol\":1736:1753  stakedMocaRebased */\n      dup1\n        /* \"testDecimalPrecision.sol\":1729:1753  return stakedMocaRebased */\n      swap4\n      pop\n      pop\n      pop\n      pop\n        /* \"testDecimalPrecision.sol\":1488:1768  function sec5() public view returns(uint256) {... */\n      swap1\n      jump\t// out\n        /* \"#utility.yul\":7:84   */\n    tag_88:\n        /* \"#utility.yul\":44:51   */\n      0x00\n        /* \"#utility.yul\":73:78   */\n      dup2\n        /* \"#utility.yul\":62:78   */\n      swap1\n      pop\n        /* \"#utility.yul\":7:84   */\n      swap2\n      swap1\n      pop\n      jump\t// out\n        /* \"#utility.yul\":90:208   */\n    tag_89:\n        /* \"#utility.yul\":177:201   */\n      tag_95\n        /* \"#utility.yul\":195:200   */\n      dup2\n        /* \"#utility.yul\":177:201   */\n      tag_88\n      jump\t// in\n    tag_95:\n        /* \"#utility.yul\":172:175   */\n      dup3\n        /* \"#utility.yul\":165:202   */\n      mstore\n        /* \"#utility.yul\":90:208   */\n      pop\n      pop\n      jump\t// out\n        /* \"#utility.yul\":214:436   */\n    tag_18:\n        /* \"#utility.yul\":307:311   */\n      0x00\n        /* \"#utility.yul\":345:347   */\n      0x20\n        /* \"#utility.yul\":334:343   */\n      dup3\n        /* \"#utility.yul\":330:348   */\n      add\n        /* \"#utility.yul\":322:348   */\n      swap1\n      pop\n        /* \"#utility.yul\":358:429   */\n      tag_97\n        /* \"#utility.yul\":426:427   */\n      0x00\n        /* \"#utility.yul\":415:424   */\n      dup4\n        /* \"#utility.yul\":411:428   */\n      add\n        /* \"#utility.yul\":402:408   */\n      dup5\n        /* \"#utility.yul\":358:429   */\n      tag_89\n      jump\t// in\n    tag_97:\n        /* \"#utility.yul\":214:436   */\n      swap3\n      swap2\n      pop\n      pop\n      jump\t// out\n        /* \"#utility.yul\":442:622   */\n    tag_90:\n        /* \"#utility.yul\":490:567   */\n      0x4e487b7100000000000000000000000000000000000000000000000000000000\n        /* \"#utility.yul\":487:488   */\n      0x00\n        /* \"#utility.yul\":480:568   */\n      mstore\n        /* \"#utility.yul\":587:591   */\n      0x11\n        /* \"#utility.yul\":584:585   */\n      0x04\n        /* \"#utility.yul\":577:592   */\n      mstore\n        /* \"#utility.yul\":611:615   */\n      0x24\n        /* \"#utility.yul\":608:609   */\n      0x00\n        /* \"#utility.yul\":601:616   */\n      revert\n        /* \"#utility.yul\":628:1038   */\n    tag_50:\n        /* \"#utility.yul\":668:675   */\n      0x00\n        /* \"#utility.yul\":691:711   */\n      tag_100\n        /* \"#utility.yul\":709:710   */\n      dup3\n        /* \"#utility.yul\":691:711   */\n      tag_88\n      jump\t// in\n    tag_100:\n        /* \"#utility.yul\":686:711   */\n      swap2\n      pop\n        /* \"#utility.yul\":725:745   */\n      tag_101\n        /* \"#utility.yul\":743:744   */\n      dup4\n        /* \"#utility.yul\":725:745   */\n      tag_88\n      jump\t// in\n    tag_101:\n        /* \"#utility.yul\":720:745   */\n      swap3\n      pop\n        /* \"#utility.yul\":780:781   */\n      dup3\n        /* \"#utility.yul\":777:778   */\n      dup3\n        /* \"#utility.yul\":773:782   */\n      mul\n        /* \"#utility.yul\":802:832   */\n      tag_102\n        /* \"#utility.yul\":820:831   */\n      dup2\n        /* \"#utility.yul\":802:832   */\n      tag_88\n      jump\t// in\n    tag_102:\n        /* \"#utility.yul\":791:832   */\n      swap2\n      pop\n        /* \"#utility.yul\":981:982   */\n      dup3\n        /* \"#utility.yul\":972:979   */\n      dup3\n        /* \"#utility.yul\":968:983   */\n      div\n        /* \"#utility.yul\":965:966   */\n      dup5\n        /* \"#utility.yul\":962:984   */\n      eq\n        /* \"#utility.yul\":942:943   */\n      dup4\n        /* \"#utility.yul\":935:944   */\n      iszero\n        /* \"#utility.yul\":915:998   */\n      or\n        /* \"#utility.yul\":892:1031   */\n      tag_103\n      jumpi\n        /* \"#utility.yul\":1011:1029   */\n      tag_104\n      tag_90\n      jump\t// in\n    tag_104:\n        /* \"#utility.yul\":892:1031   */\n    tag_103:\n        /* \"#utility.yul\":676:1038   */\n      pop\n        /* \"#utility.yul\":628:1038   */\n      swap3\n      swap2\n      pop\n      pop\n      jump\t// out\n        /* \"#utility.yul\":1044:1224   */\n    tag_91:\n        /* \"#utility.yul\":1092:1169   */\n      0x4e487b7100000000000000000000000000000000000000000000000000000000\n        /* \"#utility.yul\":1089:1090   */\n      0x00\n        /* \"#utility.yul\":1082:1170   */\n      mstore\n        /* \"#utility.yul\":1189:1193   */\n      0x12\n        /* \"#utility.yul\":1186:1187   */\n      0x04\n        /* \"#utility.yul\":1179:1194   */\n      mstore\n        /* \"#utility.yul\":1213:1217   */\n      0x24\n        /* \"#utility.yul\":1210:1211   */\n      0x00\n        /* \"#utility.yul\":1203:1218   */\n      revert\n        /* \"#utility.yul\":1230:1415   */\n    tag_52:\n        /* \"#utility.yul\":1270:1271   */\n      0x00\n        /* \"#utility.yul\":1287:1307   */\n      tag_107\n        /* \"#utility.yul\":1305:1306   */\n      dup3\n        /* \"#utility.yul\":1287:1307   */\n      tag_88\n      jump\t// in\n    tag_107:\n        /* \"#utility.yul\":1282:1307   */\n      swap2\n      pop\n        /* \"#utility.yul\":1321:1341   */\n      tag_108\n        /* \"#utility.yul\":1339:1340   */\n      dup4\n        /* \"#utility.yul\":1321:1341   */\n      tag_88\n      jump\t// in\n    tag_108:\n        /* \"#utility.yul\":1316:1341   */\n      swap3\n      pop\n        /* \"#utility.yul\":1360:1361   */\n      dup3\n        /* \"#utility.yul\":1350:1385   */\n      tag_109\n      jumpi\n        /* \"#utility.yul\":1365:1383   */\n      tag_110\n      tag_91\n      jump\t// in\n    tag_110:\n        /* \"#utility.yul\":1350:1385   */\n    tag_109:\n        /* \"#utility.yul\":1407:1408   */\n      dup3\n        /* \"#utility.yul\":1404:1405   */\n      dup3\n        /* \"#utility.yul\":1400:1409   */\n      div\n        /* \"#utility.yul\":1395:1409   */\n      swap1\n      pop\n        /* \"#utility.yul\":1230:1415   */\n      swap3\n      swap2\n      pop\n      pop\n      jump\t// out\n        /* \"#utility.yul\":1421:1612   */\n    tag_58:\n        /* \"#utility.yul\":1461:1464   */\n      0x00\n        /* \"#utility.yul\":1480:1500   */\n      tag_112\n        /* \"#utility.yul\":1498:1499   */\n      dup3\n        /* \"#utility.yul\":1480:1500   */\n      tag_88\n      jump\t// in\n    tag_112:\n        /* \"#utility.yul\":1475:1500   */\n      swap2\n      pop\n        /* \"#utility.yul\":1514:1534   */\n      tag_113\n        /* \"#utility.yul\":1532:1533   */\n      dup4\n        /* \"#utility.yul\":1514:1534   */\n      tag_88\n      jump\t// in\n    tag_113:\n        /* \"#utility.yul\":1509:1534   */\n      swap3\n      pop\n        /* \"#utility.yul\":1557:1558   */\n      dup3\n        /* \"#utility.yul\":1554:1555   */\n      dup3\n        /* \"#utility.yul\":1550:1559   */\n      add\n        /* \"#utility.yul\":1543:1559   */\n      swap1\n      pop\n        /* \"#utility.yul\":1578:1581   */\n      dup1\n        /* \"#utility.yul\":1575:1576   */\n      dup3\n        /* \"#utility.yul\":1572:1582   */\n      gt\n        /* \"#utility.yul\":1569:1605   */\n      iszero\n      tag_114\n      jumpi\n        /* \"#utility.yul\":1585:1603   */\n      tag_115\n      tag_90\n      jump\t// in\n    tag_115:\n        /* \"#utility.yul\":1569:1605   */\n    tag_114:\n        /* \"#utility.yul\":1421:1612   */\n      swap3\n      swap2\n      pop\n      pop\n      jump\t// out\n\n    auxdata: 0xa2646970667358221220ec530db0524bd8c13191608c82cf7ecc1f9e0cce5e24d24cf4f9d66a0b03e12164736f6c63430008160033\n}\n",
				"bytecode": {
					"linkReferences": {},
					"object": "608060405234801561000f575f80fd5b506106078061001d5f395ff3fe608060405234801561000f575f80fd5b50600436106100a7575f3560e01c8063a280b8d21161006f578063a280b8d21461012d578063b951486d1461014b578063c13d5ce114610169578063ce42c31014610187578063d4c207ad146101a5578063e4a8fb9a146101c3576100a7565b8063182ec12a146100ab5780633afae612146100c95780634bdf4a6d146100e75780636fd3af761461010557806396d373e514610123575b5f80fd5b6100b36101e1565b6040516100c091906104ba565b60405180910390f35b6100d1610263565b6040516100de91906104ba565b60405180910390f35b6100ef6102a8565b6040516100fc91906104ba565b60405180910390f35b61010d6102ad565b60405161011a91906104ba565b60405180910390f35b61012b6102ec565b005b610135610322565b60405161014291906104ba565b60405180910390f35b61015361035f565b60405161016091906104ba565b60405180910390f35b610171610365565b60405161017e91906104ba565b60405180910390f35b61018f6103a2565b60405161019c91906104ba565b60405180910390f35b6101ad61042c565b6040516101ba91906104ba565b60405180910390f35b6101cb610469565b6040516101d891906104ba565b60405180910390f35b5f80671111d67bb1bb000090505f600a90505f670de0b6b3a764000082846102099190610500565b610213919061056e565b90505f8060018460016102269190610500565b6102309190610500565b90505f828486846102419190610500565b61024b919061056e565b610255919061059e565b905080965050505050505090565b5f8067112210df8222b00090505f683635c9adc5dea0000090505f670de0b6b3a764000082846102939190610500565b61029d919061056e565b905080935050505090565b5f5481565b5f8067112210df8222b00090505f620f424090505f670de0b6b3a764000082846102d79190610500565b6102e1919061056e565b905080935050505090565b5f612b6790505f62012fd19050606482610306919061056e565b600181905550606481610319919061056e565b5f819055505050565b5f8067112210df8222b00090505f600a90505f670de0b6b3a7640000828461034a9190610500565b610354919061056e565b905080935050505090565b60015481565b5f8067112210df8222b00090505f600190505f670de0b6b3a7640000828461038d9190610500565b610397919061056e565b905080935050505090565b5f80671111d67bb1bb000090505f683635c9adc5dea0000090505f670de0b6b3a764000082846103d29190610500565b6103dc919061056e565b90505f8060018460016103ef9190610500565b6103f99190610500565b90505f8284868461040a9190610500565b610414919061056e565b61041e919061059e565b905080965050505050505090565b5f8061271090505f670de0b6b3a764000090505f614e5290505f8382846104539190610500565b61045d919061056e565b90508094505050505090565b5f8067112210df8222b00090505f80670de0b6b3a7640000828461048d9190610500565b610497919061056e565b905080935050505090565b5f819050919050565b6104b4816104a2565b82525050565b5f6020820190506104cd5f8301846104ab565b92915050565b7f4e487b71000000000000000000000000000000000000000000000000000000005f52601160045260245ffd5b5f61050a826104a2565b9150610515836104a2565b9250828202610523816104a2565b9150828204841483151761053a576105396104d3565b5b5092915050565b7f4e487b71000000000000000000000000000000000000000000000000000000005f52601260045260245ffd5b5f610578826104a2565b9150610583836104a2565b92508261059357610592610541565b5b828204905092915050565b5f6105a8826104a2565b91506105b3836104a2565b92508282019050808211156105cb576105ca6104d3565b5b9291505056fea2646970667358221220ec530db0524bd8c13191608c82cf7ecc1f9e0cce5e24d24cf4f9d66a0b03e12164736f6c63430008160033",
					"opcodes": "PUSH1 0x80 PUSH1 0x40 MSTORE CALLVALUE DUP1 ISZERO PUSH2 0xF JUMPI PUSH0 DUP1 REVERT JUMPDEST POP PUSH2 0x607 DUP1 PUSH2 0x1D PUSH0 CODECOPY PUSH0 RETURN INVALID PUSH1 0x80 PUSH1 0x40 MSTORE CALLVALUE DUP1 ISZERO PUSH2 0xF JUMPI PUSH0 DUP1 REVERT JUMPDEST POP PUSH1 0x4 CALLDATASIZE LT PUSH2 0xA7 JUMPI PUSH0 CALLDATALOAD PUSH1 0xE0 SHR DUP1 PUSH4 0xA280B8D2 GT PUSH2 0x6F JUMPI DUP1 PUSH4 0xA280B8D2 EQ PUSH2 0x12D JUMPI DUP1 PUSH4 0xB951486D EQ PUSH2 0x14B JUMPI DUP1 PUSH4 0xC13D5CE1 EQ PUSH2 0x169 JUMPI DUP1 PUSH4 0xCE42C310 EQ PUSH2 0x187 JUMPI DUP1 PUSH4 0xD4C207AD EQ PUSH2 0x1A5 JUMPI DUP1 PUSH4 0xE4A8FB9A EQ PUSH2 0x1C3 JUMPI PUSH2 0xA7 JUMP JUMPDEST DUP1 PUSH4 0x182EC12A EQ PUSH2 0xAB JUMPI DUP1 PUSH4 0x3AFAE612 EQ PUSH2 0xC9 JUMPI DUP1 PUSH4 0x4BDF4A6D EQ PUSH2 0xE7 JUMPI DUP1 PUSH4 0x6FD3AF76 EQ PUSH2 0x105 JUMPI DUP1 PUSH4 0x96D373E5 EQ PUSH2 0x123 JUMPI JUMPDEST PUSH0 DUP1 REVERT JUMPDEST PUSH2 0xB3 PUSH2 0x1E1 JUMP JUMPDEST PUSH1 0x40 MLOAD PUSH2 0xC0 SWAP2 SWAP1 PUSH2 0x4BA JUMP JUMPDEST PUSH1 0x40 MLOAD DUP1 SWAP2 SUB SWAP1 RETURN JUMPDEST PUSH2 0xD1 PUSH2 0x263 JUMP JUMPDEST PUSH1 0x40 MLOAD PUSH2 0xDE SWAP2 SWAP1 PUSH2 0x4BA JUMP JUMPDEST PUSH1 0x40 MLOAD DUP1 SWAP2 SUB SWAP1 RETURN JUMPDEST PUSH2 0xEF PUSH2 0x2A8 JUMP JUMPDEST PUSH1 0x40 MLOAD PUSH2 0xFC SWAP2 SWAP1 PUSH2 0x4BA JUMP JUMPDEST PUSH1 0x40 MLOAD DUP1 SWAP2 SUB SWAP1 RETURN JUMPDEST PUSH2 0x10D PUSH2 0x2AD JUMP JUMPDEST PUSH1 0x40 MLOAD PUSH2 0x11A SWAP2 SWAP1 PUSH2 0x4BA JUMP JUMPDEST PUSH1 0x40 MLOAD DUP1 SWAP2 SUB SWAP1 RETURN JUMPDEST PUSH2 0x12B PUSH2 0x2EC JUMP JUMPDEST STOP JUMPDEST PUSH2 0x135 PUSH2 0x322 JUMP JUMPDEST PUSH1 0x40 MLOAD PUSH2 0x142 SWAP2 SWAP1 PUSH2 0x4BA JUMP JUMPDEST PUSH1 0x40 MLOAD DUP1 SWAP2 SUB SWAP1 RETURN JUMPDEST PUSH2 0x153 PUSH2 0x35F JUMP JUMPDEST PUSH1 0x40 MLOAD PUSH2 0x160 SWAP2 SWAP1 PUSH2 0x4BA JUMP JUMPDEST PUSH1 0x40 MLOAD DUP1 SWAP2 SUB SWAP1 RETURN JUMPDEST PUSH2 0x171 PUSH2 0x365 JUMP JUMPDEST PUSH1 0x40 MLOAD PUSH2 0x17E SWAP2 SWAP1 PUSH2 0x4BA JUMP JUMPDEST PUSH1 0x40 MLOAD DUP1 SWAP2 SUB SWAP1 RETURN JUMPDEST PUSH2 0x18F PUSH2 0x3A2 JUMP JUMPDEST PUSH1 0x40 MLOAD PUSH2 0x19C SWAP2 SWAP1 PUSH2 0x4BA JUMP JUMPDEST PUSH1 0x40 MLOAD DUP1 SWAP2 SUB SWAP1 RETURN JUMPDEST PUSH2 0x1AD PUSH2 0x42C JUMP JUMPDEST PUSH1 0x40 MLOAD PUSH2 0x1BA SWAP2 SWAP1 PUSH2 0x4BA JUMP JUMPDEST PUSH1 0x40 MLOAD DUP1 SWAP2 SUB SWAP1 RETURN JUMPDEST PUSH2 0x1CB PUSH2 0x469 JUMP JUMPDEST PUSH1 0x40 MLOAD PUSH2 0x1D8 SWAP2 SWAP1 PUSH2 0x4BA JUMP JUMPDEST PUSH1 0x40 MLOAD DUP1 SWAP2 SUB SWAP1 RETURN JUMPDEST PUSH0 DUP1 PUSH8 0x1111D67BB1BB0000 SWAP1 POP PUSH0 PUSH1 0xA SWAP1 POP PUSH0 PUSH8 0xDE0B6B3A7640000 DUP3 DUP5 PUSH2 0x209 SWAP2 SWAP1 PUSH2 0x500 JUMP JUMPDEST PUSH2 0x213 SWAP2 SWAP1 PUSH2 0x56E JUMP JUMPDEST SWAP1 POP PUSH0 DUP1 PUSH1 0x1 DUP5 PUSH1 0x1 PUSH2 0x226 SWAP2 SWAP1 PUSH2 0x500 JUMP JUMPDEST PUSH2 0x230 SWAP2 SWAP1 PUSH2 0x500 JUMP JUMPDEST SWAP1 POP PUSH0 DUP3 DUP5 DUP7 DUP5 PUSH2 0x241 SWAP2 SWAP1 PUSH2 0x500 JUMP JUMPDEST PUSH2 0x24B SWAP2 SWAP1 PUSH2 0x56E JUMP JUMPDEST PUSH2 0x255 SWAP2 SWAP1 PUSH2 0x59E JUMP JUMPDEST SWAP1 POP DUP1 SWAP7 POP POP POP POP POP POP POP SWAP1 JUMP JUMPDEST PUSH0 DUP1 PUSH8 0x112210DF8222B000 SWAP1 POP PUSH0 PUSH9 0x3635C9ADC5DEA00000 SWAP1 POP PUSH0 PUSH8 0xDE0B6B3A7640000 DUP3 DUP5 PUSH2 0x293 SWAP2 SWAP1 PUSH2 0x500 JUMP JUMPDEST PUSH2 0x29D SWAP2 SWAP1 PUSH2 0x56E JUMP JUMPDEST SWAP1 POP DUP1 SWAP4 POP POP POP POP SWAP1 JUMP JUMPDEST PUSH0 SLOAD DUP2 JUMP JUMPDEST PUSH0 DUP1 PUSH8 0x112210DF8222B000 SWAP1 POP PUSH0 PUSH3 0xF4240 SWAP1 POP PUSH0 PUSH8 0xDE0B6B3A7640000 DUP3 DUP5 PUSH2 0x2D7 SWAP2 SWAP1 PUSH2 0x500 JUMP JUMPDEST PUSH2 0x2E1 SWAP2 SWAP1 PUSH2 0x56E JUMP JUMPDEST SWAP1 POP DUP1 SWAP4 POP POP POP POP SWAP1 JUMP JUMPDEST PUSH0 PUSH2 0x2B67 SWAP1 POP PUSH0 PUSH3 0x12FD1 SWAP1 POP PUSH1 0x64 DUP3 PUSH2 0x306 SWAP2 SWAP1 PUSH2 0x56E JUMP JUMPDEST PUSH1 0x1 DUP2 SWAP1 SSTORE POP PUSH1 0x64 DUP2 PUSH2 0x319 SWAP2 SWAP1 PUSH2 0x56E JUMP JUMPDEST PUSH0 DUP2 SWAP1 SSTORE POP POP POP JUMP JUMPDEST PUSH0 DUP1 PUSH8 0x112210DF8222B000 SWAP1 POP PUSH0 PUSH1 0xA SWAP1 POP PUSH0 PUSH8 0xDE0B6B3A7640000 DUP3 DUP5 PUSH2 0x34A SWAP2 SWAP1 PUSH2 0x500 JUMP JUMPDEST PUSH2 0x354 SWAP2 SWAP1 PUSH2 0x56E JUMP JUMPDEST SWAP1 POP DUP1 SWAP4 POP POP POP POP SWAP1 JUMP JUMPDEST PUSH1 0x1 SLOAD DUP2 JUMP JUMPDEST PUSH0 DUP1 PUSH8 0x112210DF8222B000 SWAP1 POP PUSH0 PUSH1 0x1 SWAP1 POP PUSH0 PUSH8 0xDE0B6B3A7640000 DUP3 DUP5 PUSH2 0x38D SWAP2 SWAP1 PUSH2 0x500 JUMP JUMPDEST PUSH2 0x397 SWAP2 SWAP1 PUSH2 0x56E JUMP JUMPDEST SWAP1 POP DUP1 SWAP4 POP POP POP POP SWAP1 JUMP JUMPDEST PUSH0 DUP1 PUSH8 0x1111D67BB1BB0000 SWAP1 POP PUSH0 PUSH9 0x3635C9ADC5DEA00000 SWAP1 POP PUSH0 PUSH8 0xDE0B6B3A7640000 DUP3 DUP5 PUSH2 0x3D2 SWAP2 SWAP1 PUSH2 0x500 JUMP JUMPDEST PUSH2 0x3DC SWAP2 SWAP1 PUSH2 0x56E JUMP JUMPDEST SWAP1 POP PUSH0 DUP1 PUSH1 0x1 DUP5 PUSH1 0x1 PUSH2 0x3EF SWAP2 SWAP1 PUSH2 0x500 JUMP JUMPDEST PUSH2 0x3F9 SWAP2 SWAP1 PUSH2 0x500 JUMP JUMPDEST SWAP1 POP PUSH0 DUP3 DUP5 DUP7 DUP5 PUSH2 0x40A SWAP2 SWAP1 PUSH2 0x500 JUMP JUMPDEST PUSH2 0x414 SWAP2 SWAP1 PUSH2 0x56E JUMP JUMPDEST PUSH2 0x41E SWAP2 SWAP1 PUSH2 0x59E JUMP JUMPDEST SWAP1 POP DUP1 SWAP7 POP POP POP POP POP POP POP SWAP1 JUMP JUMPDEST PUSH0 DUP1 PUSH2 0x2710 SWAP1 POP PUSH0 PUSH8 0xDE0B6B3A7640000 SWAP1 POP PUSH0 PUSH2 0x4E52 SWAP1 POP PUSH0 DUP4 DUP3 DUP5 PUSH2 0x453 SWAP2 SWAP1 PUSH2 0x500 JUMP JUMPDEST PUSH2 0x45D SWAP2 SWAP1 PUSH2 0x56E JUMP JUMPDEST SWAP1 POP DUP1 SWAP5 POP POP POP POP POP SWAP1 JUMP JUMPDEST PUSH0 DUP1 PUSH8 0x112210DF8222B000 SWAP1 POP PUSH0 DUP1 PUSH8 0xDE0B6B3A7640000 DUP3 DUP5 PUSH2 0x48D SWAP2 SWAP1 PUSH2 0x500 JUMP JUMPDEST PUSH2 0x497 SWAP2 SWAP1 PUSH2 0x56E JUMP JUMPDEST SWAP1 POP DUP1 SWAP4 POP POP POP POP SWAP1 JUMP JUMPDEST PUSH0 DUP2 SWAP1 POP SWAP2 SWAP1 POP JUMP JUMPDEST PUSH2 0x4B4 DUP2 PUSH2 0x4A2 JUMP JUMPDEST DUP3 MSTORE POP POP JUMP JUMPDEST PUSH0 PUSH1 0x20 DUP3 ADD SWAP1 POP PUSH2 0x4CD PUSH0 DUP4 ADD DUP5 PUSH2 0x4AB JUMP JUMPDEST SWAP3 SWAP2 POP POP JUMP JUMPDEST PUSH32 0x4E487B7100000000000000000000000000000000000000000000000000000000 PUSH0 MSTORE PUSH1 0x11 PUSH1 0x4 MSTORE PUSH1 0x24 PUSH0 REVERT JUMPDEST PUSH0 PUSH2 0x50A DUP3 PUSH2 0x4A2 JUMP JUMPDEST SWAP2 POP PUSH2 0x515 DUP4 PUSH2 0x4A2 JUMP JUMPDEST SWAP3 POP DUP3 DUP3 MUL PUSH2 0x523 DUP2 PUSH2 0x4A2 JUMP JUMPDEST SWAP2 POP DUP3 DUP3 DIV DUP5 EQ DUP4 ISZERO OR PUSH2 0x53A JUMPI PUSH2 0x539 PUSH2 0x4D3 JUMP JUMPDEST JUMPDEST POP SWAP3 SWAP2 POP POP JUMP JUMPDEST PUSH32 0x4E487B7100000000000000000000000000000000000000000000000000000000 PUSH0 MSTORE PUSH1 0x12 PUSH1 0x4 MSTORE PUSH1 0x24 PUSH0 REVERT JUMPDEST PUSH0 PUSH2 0x578 DUP3 PUSH2 0x4A2 JUMP JUMPDEST SWAP2 POP PUSH2 0x583 DUP4 PUSH2 0x4A2 JUMP JUMPDEST SWAP3 POP DUP3 PUSH2 0x593 JUMPI PUSH2 0x592 PUSH2 0x541 JUMP JUMPDEST JUMPDEST DUP3 DUP3 DIV SWAP1 POP SWAP3 SWAP2 POP POP JUMP JUMPDEST PUSH0 PUSH2 0x5A8 DUP3 PUSH2 0x4A2 JUMP JUMPDEST SWAP2 POP PUSH2 0x5B3 DUP4 PUSH2 0x4A2 JUMP JUMPDEST SWAP3 POP DUP3 DUP3 ADD SWAP1 POP DUP1 DUP3 GT ISZERO PUSH2 0x5CB JUMPI PUSH2 0x5CA PUSH2 0x4D3 JUMP JUMPDEST JUMPDEST SWAP3 SWAP2 POP POP JUMP INVALID LOG2 PUSH5 0x6970667358 0x22 SLT KECCAK256 0xEC MSTORE8 0xD 0xB0 MSTORE 0x4B 0xD8 0xC1 BALANCE SWAP2 PUSH1 0x8C DUP3 0xCF PUSH31 0xCC1F9E0CCE5E24D24CF4F9D66A0B03E12164736F6C63430008160033000000 "
				},
				"gasEstimates": {
					"creation": {
						"codeDepositCost": "308600",
						"executionCost": "347",
						"totalCost": "308947"
					},
					"external": {
						"cast()": "infinite",
						"indexPrecision()": "infinite",
						"indexPrecision2()": "infinite",
						"lower()": "2447",
						"nftPrecision()": "infinite",
						"sec1()": "infinite",
						"sec2()": "infinite",
						"sec3()": "infinite",
						"sec4()": "infinite",
						"sec5()": "infinite",
						"upper()": "2469"
					}
				},
				"methodIdentifiers": {
					"cast()": "96d373e5",
					"indexPrecision()": "182ec12a",
					"indexPrecision2()": "ce42c310",
					"lower()": "b951486d",
					"nftPrecision()": "d4c207ad",
					"sec1()": "6fd3af76",
					"sec2()": "3afae612",
					"sec3()": "a280b8d2",
					"sec4()": "c13d5ce1",
					"sec5()": "e4a8fb9a",
					"upper()": "4bdf4a6d"
				}
			},
			"storageLayout": {
				"storage": [
					{
						"astId": 3,
						"contract": "testDecimalPrecision.sol:PrecisionConversion",
						"label": "upper",
						"offset": 0,
						"slot": "0",
						"type": "t_uint256"
					},
					{
						"astId": 5,
						"contract": "testDecimalPrecision.sol:PrecisionConversion",
						"label": "lower",
						"offset": 0,
						"slot": "1",
						"type": "t_uint256"
					}
				],
				"types": {
					"t_uint256": {
						"encoding": "inplace",
						"label": "uint256",
						"numberOfBytes": "32"
					}
				}
			},
			"userdoc": {
				"kind": "user",
				"methods": {},
				"version": 1
			}
		}
	}
}