{
	"testLinkedLIbrary.sol": {
		"Pool": {
			"abi": [
				{
					"inputs": [],
					"name": "isSame",
					"outputs": [
						{
							"internalType": "bool",
							"name": "",
							"type": "bool"
						}
					],
					"stateMutability": "view",
					"type": "function"
				},
				{
					"inputs": [],
					"name": "stake",
					"outputs": [],
					"stateMutability": "nonpayable",
					"type": "function"
				},
				{
					"inputs": [],
					"name": "state",
					"outputs": [
						{
							"internalType": "address",
							"name": "",
							"type": "address"
						}
					],
					"stateMutability": "view",
					"type": "function"
				},
				{
					"inputs": [],
					"name": "testSender1",
					"outputs": [
						{
							"internalType": "uint256",
							"name": "",
							"type": "uint256"
						}
					],
					"stateMutability": "pure",
					"type": "function"
				},
				{
					"inputs": [],
					"name": "user",
					"outputs": [
						{
							"internalType": "address",
							"name": "",
							"type": "address"
						}
					],
					"stateMutability": "view",
					"type": "function"
				}
			],
			"devdoc": {
				"kind": "dev",
				"methods": {},
				"version": 1
			},
			"evm": {
				"assembly": "    /* \"testLinkedLIbrary.sol\":123:465  contract Pool {... */\n  mstore(0x40, 0x80)\n  callvalue\n  dup1\n  iszero\n  tag_1\n  jumpi\n  0x00\n  dup1\n  revert\ntag_1:\n  pop\n  dataSize(sub_0)\n  dup1\n  dataOffset(sub_0)\n  0x00\n  codecopy\n  0x00\n  return\nstop\n\nsub_0: assembly {\n        /* \"testLinkedLIbrary.sol\":123:465  contract Pool {... */\n      mstore(0x40, 0x80)\n      callvalue\n      dup1\n      iszero\n      tag_1\n      jumpi\n      0x00\n      dup1\n      revert\n    tag_1:\n      pop\n      jumpi(tag_2, lt(calldatasize, 0x04))\n      shr(0xe0, calldataload(0x00))\n      dup1\n      0x14d93340\n      eq\n      tag_3\n      jumpi\n      dup1\n      0x3a4b66f1\n      eq\n      tag_4\n      jumpi\n      dup1\n      0x4f8632ba\n      eq\n      tag_5\n      jumpi\n      dup1\n      0x591fb03e\n      eq\n      tag_6\n      jumpi\n      dup1\n      0xc19d93fb\n      eq\n      tag_7\n      jumpi\n    tag_2:\n      0x00\n      dup1\n      revert\n        /* \"testLinkedLIbrary.sol\":389:462  function testSender1() external  pure returns(uint256) {... */\n    tag_3:\n      tag_8\n      tag_9\n      jump\t// in\n    tag_8:\n      mload(0x40)\n      tag_10\n      swap2\n      swap1\n      tag_11\n      jump\t// in\n    tag_10:\n      mload(0x40)\n      dup1\n      swap2\n      sub\n      swap1\n      return\n        /* \"testLinkedLIbrary.sol\":301:380  function stake() external {... */\n    tag_4:\n      tag_12\n      tag_13\n      jump\t// in\n    tag_12:\n      stop\n        /* \"testLinkedLIbrary.sol\":147:166  address public user */\n    tag_5:\n      tag_14\n      tag_15\n      jump\t// in\n    tag_14:\n      mload(0x40)\n      tag_16\n      swap2\n      swap1\n      tag_17\n      jump\t// in\n    tag_16:\n      mload(0x40)\n      dup1\n      swap2\n      sub\n      swap1\n      return\n        /* \"testLinkedLIbrary.sol\":202:293  function isSame() external view returns(bool) {... */\n    tag_6:\n      tag_18\n      tag_19\n      jump\t// in\n    tag_18:\n      mload(0x40)\n      tag_20\n      swap2\n      swap1\n      tag_21\n      jump\t// in\n    tag_20:\n      mload(0x40)\n      dup1\n      swap2\n      sub\n      swap1\n      return\n        /* \"testLinkedLIbrary.sol\":173:193  address public state */\n    tag_7:\n      tag_22\n      tag_23\n      jump\t// in\n    tag_22:\n      mload(0x40)\n      tag_24\n      swap2\n      swap1\n      tag_17\n      jump\t// in\n    tag_24:\n      mload(0x40)\n      dup1\n      swap2\n      sub\n      swap1\n      return\n        /* \"testLinkedLIbrary.sol\":389:462  function testSender1() external  pure returns(uint256) {... */\n    tag_9:\n        /* \"testLinkedLIbrary.sol\":435:442  uint256 */\n      0x00\n        /* \"testLinkedLIbrary.sol\":389:462  function testSender1() external  pure returns(uint256) {... */\n      swap1\n      jump\t// out\n        /* \"testLinkedLIbrary.sol\":301:380  function stake() external {... */\n    tag_13:\n        /* \"testLinkedLIbrary.sol\":348:357  PoolLogic */\n      linkerSymbol(\"fbcdf6ef743d53c901129f8edbac810f649f0d47f4f0440bb75e0594df134a20\")\n        /* \"testLinkedLIbrary.sol\":348:370  PoolLogic.executeStake */\n      0xfe647291\n        /* \"testLinkedLIbrary.sol\":348:372  PoolLogic.executeStake() */\n      mload(0x40)\n      dup2\n      0xffffffff\n      and\n      0xe0\n      shl\n      dup2\n      mstore\n      0x04\n      add\n      0x20\n      mload(0x40)\n      dup1\n      dup4\n      sub\n      dup2\n      dup7\n      gas\n      delegatecall\n      iszero\n      dup1\n      iszero\n      tag_28\n      jumpi\n      returndatasize\n      0x00\n      dup1\n      returndatacopy\n      revert(0x00, returndatasize)\n    tag_28:\n      pop\n      pop\n      pop\n      pop\n      mload(0x40)\n      returndatasize\n      not(0x1f)\n      0x1f\n      dup3\n      add\n      and\n      dup3\n      add\n      dup1\n      0x40\n      mstore\n      pop\n      dup2\n      add\n      swap1\n      tag_29\n      swap2\n      swap1\n      tag_30\n      jump\t// in\n    tag_29:\n        /* \"testLinkedLIbrary.sol\":340:345  state */\n      0x01\n      0x00\n        /* \"testLinkedLIbrary.sol\":340:372  state = PoolLogic.executeStake() */\n      0x0100\n      exp\n      dup2\n      sload\n      dup2\n      0xffffffffffffffffffffffffffffffffffffffff\n      mul\n      not\n      and\n      swap1\n      dup4\n      0xffffffffffffffffffffffffffffffffffffffff\n      and\n      mul\n      or\n      swap1\n      sstore\n      pop\n        /* \"testLinkedLIbrary.sol\":301:380  function stake() external {... */\n      jump\t// out\n        /* \"testLinkedLIbrary.sol\":147:166  address public user */\n    tag_15:\n      0x00\n      dup1\n      sload\n      swap1\n      0x0100\n      exp\n      swap1\n      div\n      0xffffffffffffffffffffffffffffffffffffffff\n      and\n      dup2\n      jump\t// out\n        /* \"testLinkedLIbrary.sol\":202:293  function isSame() external view returns(bool) {... */\n    tag_19:\n        /* \"testLinkedLIbrary.sol\":242:246  bool */\n      0x00\n        /* \"testLinkedLIbrary.sol\":275:285  msg.sender */\n      caller\n        /* \"testLinkedLIbrary.sol\":266:285  state == msg.sender */\n      0xffffffffffffffffffffffffffffffffffffffff\n      and\n        /* \"testLinkedLIbrary.sol\":266:271  state */\n      0x01\n      0x00\n      swap1\n      sload\n      swap1\n      0x0100\n      exp\n      swap1\n      div\n      0xffffffffffffffffffffffffffffffffffffffff\n      and\n        /* \"testLinkedLIbrary.sol\":266:285  state == msg.sender */\n      0xffffffffffffffffffffffffffffffffffffffff\n      and\n      eq\n        /* \"testLinkedLIbrary.sol\":259:285  return state == msg.sender */\n      swap1\n      pop\n        /* \"testLinkedLIbrary.sol\":202:293  function isSame() external view returns(bool) {... */\n      swap1\n      jump\t// out\n        /* \"testLinkedLIbrary.sol\":173:193  address public state */\n    tag_23:\n      0x01\n      0x00\n      swap1\n      sload\n      swap1\n      0x0100\n      exp\n      swap1\n      div\n      0xffffffffffffffffffffffffffffffffffffffff\n      and\n      dup2\n      jump\t// out\n        /* \"#utility.yul\":7:84   */\n    tag_32:\n        /* \"#utility.yul\":44:51   */\n      0x00\n        /* \"#utility.yul\":73:78   */\n      dup2\n        /* \"#utility.yul\":62:78   */\n      swap1\n      pop\n        /* \"#utility.yul\":7:84   */\n      swap2\n      swap1\n      pop\n      jump\t// out\n        /* \"#utility.yul\":90:208   */\n    tag_33:\n        /* \"#utility.yul\":177:201   */\n      tag_47\n        /* \"#utility.yul\":195:200   */\n      dup2\n        /* \"#utility.yul\":177:201   */\n      tag_32\n      jump\t// in\n    tag_47:\n        /* \"#utility.yul\":172:175   */\n      dup3\n        /* \"#utility.yul\":165:202   */\n      mstore\n        /* \"#utility.yul\":90:208   */\n      pop\n      pop\n      jump\t// out\n        /* \"#utility.yul\":214:436   */\n    tag_11:\n        /* \"#utility.yul\":307:311   */\n      0x00\n        /* \"#utility.yul\":345:347   */\n      0x20\n        /* \"#utility.yul\":334:343   */\n      dup3\n        /* \"#utility.yul\":330:348   */\n      add\n        /* \"#utility.yul\":322:348   */\n      swap1\n      pop\n        /* \"#utility.yul\":358:429   */\n      tag_49\n        /* \"#utility.yul\":426:427   */\n      0x00\n        /* \"#utility.yul\":415:424   */\n      dup4\n        /* \"#utility.yul\":411:428   */\n      add\n        /* \"#utility.yul\":402:408   */\n      dup5\n        /* \"#utility.yul\":358:429   */\n      tag_33\n      jump\t// in\n    tag_49:\n        /* \"#utility.yul\":214:436   */\n      swap3\n      swap2\n      pop\n      pop\n      jump\t// out\n        /* \"#utility.yul\":442:568   */\n    tag_34:\n        /* \"#utility.yul\":479:486   */\n      0x00\n        /* \"#utility.yul\":519:561   */\n      0xffffffffffffffffffffffffffffffffffffffff\n        /* \"#utility.yul\":512:517   */\n      dup3\n        /* \"#utility.yul\":508:562   */\n      and\n        /* \"#utility.yul\":497:562   */\n      swap1\n      pop\n        /* \"#utility.yul\":442:568   */\n      swap2\n      swap1\n      pop\n      jump\t// out\n        /* \"#utility.yul\":574:670   */\n    tag_35:\n        /* \"#utility.yul\":611:618   */\n      0x00\n        /* \"#utility.yul\":640:664   */\n      tag_52\n        /* \"#utility.yul\":658:663   */\n      dup3\n        /* \"#utility.yul\":640:664   */\n      tag_34\n      jump\t// in\n    tag_52:\n        /* \"#utility.yul\":629:664   */\n      swap1\n      pop\n        /* \"#utility.yul\":574:670   */\n      swap2\n      swap1\n      pop\n      jump\t// out\n        /* \"#utility.yul\":676:794   */\n    tag_36:\n        /* \"#utility.yul\":763:787   */\n      tag_54\n        /* \"#utility.yul\":781:786   */\n      dup2\n        /* \"#utility.yul\":763:787   */\n      tag_35\n      jump\t// in\n    tag_54:\n        /* \"#utility.yul\":758:761   */\n      dup3\n        /* \"#utility.yul\":751:788   */\n      mstore\n        /* \"#utility.yul\":676:794   */\n      pop\n      pop\n      jump\t// out\n        /* \"#utility.yul\":800:1022   */\n    tag_17:\n        /* \"#utility.yul\":893:897   */\n      0x00\n        /* \"#utility.yul\":931:933   */\n      0x20\n        /* \"#utility.yul\":920:929   */\n      dup3\n        /* \"#utility.yul\":916:934   */\n      add\n        /* \"#utility.yul\":908:934   */\n      swap1\n      pop\n        /* \"#utility.yul\":944:1015   */\n      tag_56\n        /* \"#utility.yul\":1012:1013   */\n      0x00\n        /* \"#utility.yul\":1001:1010   */\n      dup4\n        /* \"#utility.yul\":997:1014   */\n      add\n        /* \"#utility.yul\":988:994   */\n      dup5\n        /* \"#utility.yul\":944:1015   */\n      tag_36\n      jump\t// in\n    tag_56:\n        /* \"#utility.yul\":800:1022   */\n      swap3\n      swap2\n      pop\n      pop\n      jump\t// out\n        /* \"#utility.yul\":1028:1118   */\n    tag_37:\n        /* \"#utility.yul\":1062:1069   */\n      0x00\n        /* \"#utility.yul\":1105:1110   */\n      dup2\n        /* \"#utility.yul\":1098:1111   */\n      iszero\n        /* \"#utility.yul\":1091:1112   */\n      iszero\n        /* \"#utility.yul\":1080:1112   */\n      swap1\n      pop\n        /* \"#utility.yul\":1028:1118   */\n      swap2\n      swap1\n      pop\n      jump\t// out\n        /* \"#utility.yul\":1124:1233   */\n    tag_38:\n        /* \"#utility.yul\":1205:1226   */\n      tag_59\n        /* \"#utility.yul\":1220:1225   */\n      dup2\n        /* \"#utility.yul\":1205:1226   */\n      tag_37\n      jump\t// in\n    tag_59:\n        /* \"#utility.yul\":1200:1203   */\n      dup3\n        /* \"#utility.yul\":1193:1227   */\n      mstore\n        /* \"#utility.yul\":1124:1233   */\n      pop\n      pop\n      jump\t// out\n        /* \"#utility.yul\":1239:1449   */\n    tag_21:\n        /* \"#utility.yul\":1326:1330   */\n      0x00\n        /* \"#utility.yul\":1364:1366   */\n      0x20\n        /* \"#utility.yul\":1353:1362   */\n      dup3\n        /* \"#utility.yul\":1349:1367   */\n      add\n        /* \"#utility.yul\":1341:1367   */\n      swap1\n      pop\n        /* \"#utility.yul\":1377:1442   */\n      tag_61\n        /* \"#utility.yul\":1439:1440   */\n      0x00\n        /* \"#utility.yul\":1428:1437   */\n      dup4\n        /* \"#utility.yul\":1424:1441   */\n      add\n        /* \"#utility.yul\":1415:1421   */\n      dup5\n        /* \"#utility.yul\":1377:1442   */\n      tag_38\n      jump\t// in\n    tag_61:\n        /* \"#utility.yul\":1239:1449   */\n      swap3\n      swap2\n      pop\n      pop\n      jump\t// out\n        /* \"#utility.yul\":1536:1653   */\n    tag_40:\n        /* \"#utility.yul\":1645:1646   */\n      0x00\n        /* \"#utility.yul\":1642:1643   */\n      dup1\n        /* \"#utility.yul\":1635:1647   */\n      revert\n        /* \"#utility.yul\":1782:1904   */\n    tag_42:\n        /* \"#utility.yul\":1855:1879   */\n      tag_66\n        /* \"#utility.yul\":1873:1878   */\n      dup2\n        /* \"#utility.yul\":1855:1879   */\n      tag_35\n      jump\t// in\n    tag_66:\n        /* \"#utility.yul\":1848:1853   */\n      dup2\n        /* \"#utility.yul\":1845:1880   */\n      eq\n        /* \"#utility.yul\":1835:1898   */\n      tag_67\n      jumpi\n        /* \"#utility.yul\":1894:1895   */\n      0x00\n        /* \"#utility.yul\":1891:1892   */\n      dup1\n        /* \"#utility.yul\":1884:1896   */\n      revert\n        /* \"#utility.yul\":1835:1898   */\n    tag_67:\n        /* \"#utility.yul\":1782:1904   */\n      pop\n      jump\t// out\n        /* \"#utility.yul\":1910:2053   */\n    tag_43:\n        /* \"#utility.yul\":1967:1972   */\n      0x00\n        /* \"#utility.yul\":1998:2004   */\n      dup2\n        /* \"#utility.yul\":1992:2005   */\n      mload\n        /* \"#utility.yul\":1983:2005   */\n      swap1\n      pop\n        /* \"#utility.yul\":2014:2047   */\n      tag_69\n        /* \"#utility.yul\":2041:2046   */\n      dup2\n        /* \"#utility.yul\":2014:2047   */\n      tag_42\n      jump\t// in\n    tag_69:\n        /* \"#utility.yul\":1910:2053   */\n      swap3\n      swap2\n      pop\n      pop\n      jump\t// out\n        /* \"#utility.yul\":2059:2410   */\n    tag_30:\n        /* \"#utility.yul\":2129:2135   */\n      0x00\n        /* \"#utility.yul\":2178:2180   */\n      0x20\n        /* \"#utility.yul\":2166:2175   */\n      dup3\n        /* \"#utility.yul\":2157:2164   */\n      dup5\n        /* \"#utility.yul\":2153:2176   */\n      sub\n        /* \"#utility.yul\":2149:2181   */\n      slt\n        /* \"#utility.yul\":2146:2265   */\n      iszero\n      tag_71\n      jumpi\n        /* \"#utility.yul\":2184:2263   */\n      tag_72\n      tag_40\n      jump\t// in\n    tag_72:\n        /* \"#utility.yul\":2146:2265   */\n    tag_71:\n        /* \"#utility.yul\":2304:2305   */\n      0x00\n        /* \"#utility.yul\":2329:2393   */\n      tag_73\n        /* \"#utility.yul\":2385:2392   */\n      dup5\n        /* \"#utility.yul\":2376:2382   */\n      dup3\n        /* \"#utility.yul\":2365:2374   */\n      dup6\n        /* \"#utility.yul\":2361:2383   */\n      add\n        /* \"#utility.yul\":2329:2393   */\n      tag_43\n      jump\t// in\n    tag_73:\n        /* \"#utility.yul\":2319:2393   */\n      swap2\n      pop\n        /* \"#utility.yul\":2275:2403   */\n      pop\n        /* \"#utility.yul\":2059:2410   */\n      swap3\n      swap2\n      pop\n      pop\n      jump\t// out\n\n    auxdata: 0xa26469706673582212209bdadec969989dd70c740cb8604049a2389a5066fd6a8bfd3e1b18d626d13aa164736f6c63430008160033\n}\n",
				"bytecode": {
					"linkReferences": {
						"testLinkedLIbrary.sol": {
							"PoolLogic": [
								{
									"length": 20,
									"start": 254
								}
							]
						}
					},
					"object": "608060405234801561000f575f80fd5b506103748061001d5f395ff3fe608060405234801561000f575f80fd5b5060043610610055575f3560e01c806314d93340146100595780633a4b66f1146100775780634f8632ba14610081578063591fb03e1461009f578063c19d93fb146100bd575b5f80fd5b6100616100db565b60405161006e9190610241565b60405180910390f35b61007f6100df565b005b61008961018b565b6040516100969190610299565b60405180910390f35b6100a76101ae565b6040516100b491906102cc565b60405180910390f35b6100c5610204565b6040516100d29190610299565b60405180910390f35b5f90565b73__$fbcdf6ef743d53c901129f8edbac810f64$__63fe6472916040518163ffffffff1660e01b8152600401602060405180830381865af4158015610126573d5f803e3d5ffd5b505050506040513d601f19601f8201168201806040525081019061014a9190610313565b60015f6101000a81548173ffffffffffffffffffffffffffffffffffffffff021916908373ffffffffffffffffffffffffffffffffffffffff160217905550565b5f8054906101000a900473ffffffffffffffffffffffffffffffffffffffff1681565b5f3373ffffffffffffffffffffffffffffffffffffffff1660015f9054906101000a900473ffffffffffffffffffffffffffffffffffffffff1673ffffffffffffffffffffffffffffffffffffffff1614905090565b60015f9054906101000a900473ffffffffffffffffffffffffffffffffffffffff1681565b5f819050919050565b61023b81610229565b82525050565b5f6020820190506102545f830184610232565b92915050565b5f73ffffffffffffffffffffffffffffffffffffffff82169050919050565b5f6102838261025a565b9050919050565b61029381610279565b82525050565b5f6020820190506102ac5f83018461028a565b92915050565b5f8115159050919050565b6102c6816102b2565b82525050565b5f6020820190506102df5f8301846102bd565b92915050565b5f80fd5b6102f281610279565b81146102fc575f80fd5b50565b5f8151905061030d816102e9565b92915050565b5f60208284031215610328576103276102e5565b5b5f610335848285016102ff565b9150509291505056fea26469706673582212209bdadec969989dd70c740cb8604049a2389a5066fd6a8bfd3e1b18d626d13aa164736f6c63430008160033",
					"opcodes": "PUSH1 0x80 PUSH1 0x40 MSTORE CALLVALUE DUP1 ISZERO PUSH2 0xF JUMPI PUSH0 DUP1 REVERT JUMPDEST POP PUSH2 0x374 DUP1 PUSH2 0x1D PUSH0 CODECOPY PUSH0 RETURN INVALID PUSH1 0x80 PUSH1 0x40 MSTORE CALLVALUE DUP1 ISZERO PUSH2 0xF JUMPI PUSH0 DUP1 REVERT JUMPDEST POP PUSH1 0x4 CALLDATASIZE LT PUSH2 0x55 JUMPI PUSH0 CALLDATALOAD PUSH1 0xE0 SHR DUP1 PUSH4 0x14D93340 EQ PUSH2 0x59 JUMPI DUP1 PUSH4 0x3A4B66F1 EQ PUSH2 0x77 JUMPI DUP1 PUSH4 0x4F8632BA EQ PUSH2 0x81 JUMPI DUP1 PUSH4 0x591FB03E EQ PUSH2 0x9F JUMPI DUP1 PUSH4 0xC19D93FB EQ PUSH2 0xBD JUMPI JUMPDEST PUSH0 DUP1 REVERT JUMPDEST PUSH2 0x61 PUSH2 0xDB JUMP JUMPDEST PUSH1 0x40 MLOAD PUSH2 0x6E SWAP2 SWAP1 PUSH2 0x241 JUMP JUMPDEST PUSH1 0x40 MLOAD DUP1 SWAP2 SUB SWAP1 RETURN JUMPDEST PUSH2 0x7F PUSH2 0xDF JUMP JUMPDEST STOP JUMPDEST PUSH2 0x89 PUSH2 0x18B JUMP JUMPDEST PUSH1 0x40 MLOAD PUSH2 0x96 SWAP2 SWAP1 PUSH2 0x299 JUMP JUMPDEST PUSH1 0x40 MLOAD DUP1 SWAP2 SUB SWAP1 RETURN JUMPDEST PUSH2 0xA7 PUSH2 0x1AE JUMP JUMPDEST PUSH1 0x40 MLOAD PUSH2 0xB4 SWAP2 SWAP1 PUSH2 0x2CC JUMP JUMPDEST PUSH1 0x40 MLOAD DUP1 SWAP2 SUB SWAP1 RETURN JUMPDEST PUSH2 0xC5 PUSH2 0x204 JUMP JUMPDEST PUSH1 0x40 MLOAD PUSH2 0xD2 SWAP2 SWAP1 PUSH2 0x299 JUMP JUMPDEST PUSH1 0x40 MLOAD DUP1 SWAP2 SUB SWAP1 RETURN JUMPDEST PUSH0 SWAP1 JUMP JUMPDEST PUSH20 0x0 PUSH4 0xFE647291 PUSH1 0x40 MLOAD DUP2 PUSH4 0xFFFFFFFF AND PUSH1 0xE0 SHL DUP2 MSTORE PUSH1 0x4 ADD PUSH1 0x20 PUSH1 0x40 MLOAD DUP1 DUP4 SUB DUP2 DUP7 GAS DELEGATECALL ISZERO DUP1 ISZERO PUSH2 0x126 JUMPI RETURNDATASIZE PUSH0 DUP1 RETURNDATACOPY RETURNDATASIZE PUSH0 REVERT JUMPDEST POP POP POP POP PUSH1 0x40 MLOAD RETURNDATASIZE PUSH1 0x1F NOT PUSH1 0x1F DUP3 ADD AND DUP3 ADD DUP1 PUSH1 0x40 MSTORE POP DUP2 ADD SWAP1 PUSH2 0x14A SWAP2 SWAP1 PUSH2 0x313 JUMP JUMPDEST PUSH1 0x1 PUSH0 PUSH2 0x100 EXP DUP2 SLOAD DUP2 PUSH20 0xFFFFFFFFFFFFFFFFFFFFFFFFFFFFFFFFFFFFFFFF MUL NOT AND SWAP1 DUP4 PUSH20 0xFFFFFFFFFFFFFFFFFFFFFFFFFFFFFFFFFFFFFFFF AND MUL OR SWAP1 SSTORE POP JUMP JUMPDEST PUSH0 DUP1 SLOAD SWAP1 PUSH2 0x100 EXP SWAP1 DIV PUSH20 0xFFFFFFFFFFFFFFFFFFFFFFFFFFFFFFFFFFFFFFFF AND DUP2 JUMP JUMPDEST PUSH0 CALLER PUSH20 0xFFFFFFFFFFFFFFFFFFFFFFFFFFFFFFFFFFFFFFFF AND PUSH1 0x1 PUSH0 SWAP1 SLOAD SWAP1 PUSH2 0x100 EXP SWAP1 DIV PUSH20 0xFFFFFFFFFFFFFFFFFFFFFFFFFFFFFFFFFFFFFFFF AND PUSH20 0xFFFFFFFFFFFFFFFFFFFFFFFFFFFFFFFFFFFFFFFF AND EQ SWAP1 POP SWAP1 JUMP JUMPDEST PUSH1 0x1 PUSH0 SWAP1 SLOAD SWAP1 PUSH2 0x100 EXP SWAP1 DIV PUSH20 0xFFFFFFFFFFFFFFFFFFFFFFFFFFFFFFFFFFFFFFFF AND DUP2 JUMP JUMPDEST PUSH0 DUP2 SWAP1 POP SWAP2 SWAP1 POP JUMP JUMPDEST PUSH2 0x23B DUP2 PUSH2 0x229 JUMP JUMPDEST DUP3 MSTORE POP POP JUMP JUMPDEST PUSH0 PUSH1 0x20 DUP3 ADD SWAP1 POP PUSH2 0x254 PUSH0 DUP4 ADD DUP5 PUSH2 0x232 JUMP JUMPDEST SWAP3 SWAP2 POP POP JUMP JUMPDEST PUSH0 PUSH20 0xFFFFFFFFFFFFFFFFFFFFFFFFFFFFFFFFFFFFFFFF DUP3 AND SWAP1 POP SWAP2 SWAP1 POP JUMP JUMPDEST PUSH0 PUSH2 0x283 DUP3 PUSH2 0x25A JUMP JUMPDEST SWAP1 POP SWAP2 SWAP1 POP JUMP JUMPDEST PUSH2 0x293 DUP2 PUSH2 0x279 JUMP JUMPDEST DUP3 MSTORE POP POP JUMP JUMPDEST PUSH0 PUSH1 0x20 DUP3 ADD SWAP1 POP PUSH2 0x2AC PUSH0 DUP4 ADD DUP5 PUSH2 0x28A JUMP JUMPDEST SWAP3 SWAP2 POP POP JUMP JUMPDEST PUSH0 DUP2 ISZERO ISZERO SWAP1 POP SWAP2 SWAP1 POP JUMP JUMPDEST PUSH2 0x2C6 DUP2 PUSH2 0x2B2 JUMP JUMPDEST DUP3 MSTORE POP POP JUMP JUMPDEST PUSH0 PUSH1 0x20 DUP3 ADD SWAP1 POP PUSH2 0x2DF PUSH0 DUP4 ADD DUP5 PUSH2 0x2BD JUMP JUMPDEST SWAP3 SWAP2 POP POP JUMP JUMPDEST PUSH0 DUP1 REVERT JUMPDEST PUSH2 0x2F2 DUP2 PUSH2 0x279 JUMP JUMPDEST DUP2 EQ PUSH2 0x2FC JUMPI PUSH0 DUP1 REVERT JUMPDEST POP JUMP JUMPDEST PUSH0 DUP2 MLOAD SWAP1 POP PUSH2 0x30D DUP2 PUSH2 0x2E9 JUMP JUMPDEST SWAP3 SWAP2 POP POP JUMP JUMPDEST PUSH0 PUSH1 0x20 DUP3 DUP5 SUB SLT ISZERO PUSH2 0x328 JUMPI PUSH2 0x327 PUSH2 0x2E5 JUMP JUMPDEST JUMPDEST PUSH0 PUSH2 0x335 DUP5 DUP3 DUP6 ADD PUSH2 0x2FF JUMP JUMPDEST SWAP2 POP POP SWAP3 SWAP2 POP POP JUMP INVALID LOG2 PUSH5 0x6970667358 0x22 SLT KECCAK256 SWAP12 0xDA 0xDE 0xC9 PUSH10 0x989DD70C740CB8604049 LOG2 CODESIZE SWAP11 POP PUSH7 0xFD6A8BFD3E1B18 0xD6 0x26 0xD1 GASPRICE LOG1 PUSH5 0x736F6C6343 STOP ADDMOD AND STOP CALLER "
				},
				"gasEstimates": {
					"creation": {
						"codeDepositCost": "176800",
						"executionCost": "218",
						"totalCost": "177018"
					},
					"external": {
						"isSame()": "2534",
						"stake()": "infinite",
						"state()": "2574",
						"testSender1()": "302",
						"user()": "2527"
					}
				},
				"methodIdentifiers": {
					"isSame()": "591fb03e",
					"stake()": "3a4b66f1",
					"state()": "c19d93fb",
					"testSender1()": "14d93340",
					"user()": "4f8632ba"
				}
			},
			"storageLayout": {
				"storage": [
					{
						"astId": 12,
						"contract": "testLinkedLIbrary.sol:Pool",
						"label": "user",
						"offset": 0,
						"slot": "0",
						"type": "t_address"
					},
					{
						"astId": 14,
						"contract": "testLinkedLIbrary.sol:Pool",
						"label": "state",
						"offset": 0,
						"slot": "1",
						"type": "t_address"
					}
				],
				"types": {
					"t_address": {
						"encoding": "inplace",
						"label": "address",
						"numberOfBytes": "20"
					}
				}
			},
			"userdoc": {
				"kind": "user",
				"methods": {},
				"version": 1
			}
		}
	}
}