{
	"testReturnarrayt.sol": {
		"TestArrayRreturn": {
			"abi": [
				{
					"inputs": [],
					"stateMutability": "nonpayable",
					"type": "constructor"
				},
				{
					"inputs": [
						{
							"internalType": "uint256",
							"name": "",
							"type": "uint256"
						}
					],
					"name": "test",
					"outputs": [
						{
							"internalType": "uint256",
							"name": "test",
							"type": "uint256"
						}
					],
					"stateMutability": "view",
					"type": "function"
				}
			],
			"devdoc": {
				"kind": "dev",
				"methods": {},
				"version": 1
			},
			"evm": {
				"assembly": "    /* \"testReturnarrayt.sol\":67:375  contract TestArrayRreturn {... */\n  mstore(0x40, 0x80)\n    /* \"testReturnarrayt.sol\":238:354  constructor(){... */\n  callvalue\n  dup1\n  iszero\n  tag_1\n  jumpi\n  0x00\n  dup1\n  revert\ntag_1:\n  pop\n    /* \"testReturnarrayt.sol\":262:282  UserInfo memory user */\n  tag_4\n  tag_5\n  jump\t// in\ntag_4:\n    /* \"testReturnarrayt.sol\":310:311  1 */\n  0x01\n    /* \"testReturnarrayt.sol\":298:302  user */\n  dup2\n    /* \"testReturnarrayt.sol\":298:307  user.test */\n  0x00\n  add\n    /* \"testReturnarrayt.sol\":298:311  user.test = 1 */\n  dup2\n  dup2\n  mstore\n  pop\n  pop\n    /* \"testReturnarrayt.sol\":342:346  user */\n  dup1\n    /* \"testReturnarrayt.sol\":332:336  test */\n  0x00\n    /* \"testReturnarrayt.sol\":332:339  test[0] */\n  dup1\n    /* \"testReturnarrayt.sol\":337:338  0 */\n  dup1\n    /* \"testReturnarrayt.sol\":332:339  test[0] */\n  dup2\n  mstore\n  0x20\n  add\n  swap1\n  dup2\n  mstore\n  0x20\n  add\n  0x00\n  keccak256\n    /* \"testReturnarrayt.sol\":332:346  test[0] = user */\n  0x00\n  dup3\n  add\n  mload\n  dup2\n  0x00\n  add\n  sstore\n  0x20\n  dup3\n  add\n  mload\n  dup2\n  0x01\n  add\n  swap1\n  dup1\n  mload\n  swap1\n  0x20\n  add\n  swap1\n  tag_6\n  swap3\n  swap2\n  swap1\n  tag_7\n  jump\t// in\ntag_6:\n  pop\n  swap1\n  pop\n  pop\n    /* \"testReturnarrayt.sol\":251:354  {... */\n  pop\n    /* \"testReturnarrayt.sol\":67:375  contract TestArrayRreturn {... */\n  jump(tag_8)\ntag_5:\n  mload(0x40)\n  dup1\n  0x40\n  add\n  0x40\n  mstore\n  dup1\n  0x00\n  dup2\n  mstore\n  0x20\n  add\n  0x60\n  dup2\n  mstore\n  pop\n  swap1\n  jump\t// out\ntag_7:\n  dup3\n  dup1\n  sload\n  dup3\n  dup3\n  sstore\n  swap1\n  0x00\n  mstore\n  keccak256(0x00, 0x20)\n  swap1\n  dup2\n  add\n  swap3\n  dup3\n  iszero\n  tag_9\n  jumpi\n  swap2\n  0x20\n  mul\n  dup3\n  add\ntag_10:\n  dup3\n  dup2\n  gt\n  iszero\n  tag_11\n  jumpi\n  dup3\n  mload\n  dup3\n  sstore\n  swap2\n  0x20\n  add\n  swap2\n  swap1\n  0x01\n  add\n  swap1\n  jump(tag_10)\ntag_11:\ntag_9:\n  pop\n  swap1\n  pop\n  tag_12\n  swap2\n  swap1\n  tag_13\n  jump\t// in\ntag_12:\n  pop\n  swap1\n  jump\t// out\ntag_13:\ntag_14:\n  dup1\n  dup3\n  gt\n  iszero\n  tag_15\n  jumpi\n  0x00\n  dup2\n  0x00\n  swap1\n  sstore\n  pop\n  0x01\n  add\n  jump(tag_14)\ntag_15:\n  pop\n  swap1\n  jump\t// out\ntag_8:\n  dataSize(sub_0)\n  dup1\n  dataOffset(sub_0)\n  0x00\n  codecopy\n  0x00\n  return\nstop\n\nsub_0: assembly {\n        /* \"testReturnarrayt.sol\":67:375  contract TestArrayRreturn {... */\n      mstore(0x40, 0x80)\n      callvalue\n      dup1\n      iszero\n      tag_1\n      jumpi\n      0x00\n      dup1\n      revert\n    tag_1:\n      pop\n      jumpi(tag_2, lt(calldatasize, 0x04))\n      shr(0xe0, calldataload(0x00))\n      dup1\n      0x29e99f07\n      eq\n      tag_3\n      jumpi\n    tag_2:\n      0x00\n      dup1\n      revert\n        /* \"testReturnarrayt.sol\":189:229  mapping(uint256 => UserInfo) public test */\n    tag_3:\n      tag_4\n      0x04\n      dup1\n      calldatasize\n      sub\n      dup2\n      add\n      swap1\n      tag_5\n      swap2\n      swap1\n      tag_6\n      jump\t// in\n    tag_5:\n      tag_7\n      jump\t// in\n    tag_4:\n      mload(0x40)\n      tag_8\n      swap2\n      swap1\n      tag_9\n      jump\t// in\n    tag_8:\n      mload(0x40)\n      dup1\n      swap2\n      sub\n      swap1\n      return\n    tag_7:\n      mstore(0x20, 0x00)\n      dup1\n      0x00\n      mstore\n      keccak256(0x00, 0x40)\n      0x00\n      swap2\n      pop\n      swap1\n      pop\n      dup1\n      0x00\n      add\n      sload\n      swap1\n      pop\n      dup2\n      jump\t// out\n        /* \"#utility.yul\":88:205   */\n    tag_11:\n        /* \"#utility.yul\":197:198   */\n      0x00\n        /* \"#utility.yul\":194:195   */\n      dup1\n        /* \"#utility.yul\":187:199   */\n      revert\n        /* \"#utility.yul\":334:411   */\n    tag_13:\n        /* \"#utility.yul\":371:378   */\n      0x00\n        /* \"#utility.yul\":400:405   */\n      dup2\n        /* \"#utility.yul\":389:405   */\n      swap1\n      pop\n        /* \"#utility.yul\":334:411   */\n      swap2\n      swap1\n      pop\n      jump\t// out\n        /* \"#utility.yul\":417:539   */\n    tag_14:\n        /* \"#utility.yul\":490:514   */\n      tag_23\n        /* \"#utility.yul\":508:513   */\n      dup2\n        /* \"#utility.yul\":490:514   */\n      tag_13\n      jump\t// in\n    tag_23:\n        /* \"#utility.yul\":483:488   */\n      dup2\n        /* \"#utility.yul\":480:515   */\n      eq\n        /* \"#utility.yul\":470:533   */\n      tag_24\n      jumpi\n        /* \"#utility.yul\":529:530   */\n      0x00\n        /* \"#utility.yul\":526:527   */\n      dup1\n        /* \"#utility.yul\":519:531   */\n      revert\n        /* \"#utility.yul\":470:533   */\n    tag_24:\n        /* \"#utility.yul\":417:539   */\n      pop\n      jump\t// out\n        /* \"#utility.yul\":545:684   */\n    tag_15:\n        /* \"#utility.yul\":591:596   */\n      0x00\n        /* \"#utility.yul\":629:635   */\n      dup2\n        /* \"#utility.yul\":616:636   */\n      calldataload\n        /* \"#utility.yul\":607:636   */\n      swap1\n      pop\n        /* \"#utility.yul\":645:678   */\n      tag_26\n        /* \"#utility.yul\":672:677   */\n      dup2\n        /* \"#utility.yul\":645:678   */\n      tag_14\n      jump\t// in\n    tag_26:\n        /* \"#utility.yul\":545:684   */\n      swap3\n      swap2\n      pop\n      pop\n      jump\t// out\n        /* \"#utility.yul\":690:1019   */\n    tag_6:\n        /* \"#utility.yul\":749:755   */\n      0x00\n        /* \"#utility.yul\":798:800   */\n      0x20\n        /* \"#utility.yul\":786:795   */\n      dup3\n        /* \"#utility.yul\":777:784   */\n      dup5\n        /* \"#utility.yul\":773:796   */\n      sub\n        /* \"#utility.yul\":769:801   */\n      slt\n        /* \"#utility.yul\":766:885   */\n      iszero\n      tag_28\n      jumpi\n        /* \"#utility.yul\":804:883   */\n      tag_29\n      tag_11\n      jump\t// in\n    tag_29:\n        /* \"#utility.yul\":766:885   */\n    tag_28:\n        /* \"#utility.yul\":924:925   */\n      0x00\n        /* \"#utility.yul\":949:1002   */\n      tag_30\n        /* \"#utility.yul\":994:1001   */\n      dup5\n        /* \"#utility.yul\":985:991   */\n      dup3\n        /* \"#utility.yul\":974:983   */\n      dup6\n        /* \"#utility.yul\":970:992   */\n      add\n        /* \"#utility.yul\":949:1002   */\n      tag_15\n      jump\t// in\n    tag_30:\n        /* \"#utility.yul\":939:1002   */\n      swap2\n      pop\n        /* \"#utility.yul\":895:1012   */\n      pop\n        /* \"#utility.yul\":690:1019   */\n      swap3\n      swap2\n      pop\n      pop\n      jump\t// out\n        /* \"#utility.yul\":1025:1143   */\n    tag_16:\n        /* \"#utility.yul\":1112:1136   */\n      tag_32\n        /* \"#utility.yul\":1130:1135   */\n      dup2\n        /* \"#utility.yul\":1112:1136   */\n      tag_13\n      jump\t// in\n    tag_32:\n        /* \"#utility.yul\":1107:1110   */\n      dup3\n        /* \"#utility.yul\":1100:1137   */\n      mstore\n        /* \"#utility.yul\":1025:1143   */\n      pop\n      pop\n      jump\t// out\n        /* \"#utility.yul\":1149:1371   */\n    tag_9:\n        /* \"#utility.yul\":1242:1246   */\n      0x00\n        /* \"#utility.yul\":1280:1282   */\n      0x20\n        /* \"#utility.yul\":1269:1278   */\n      dup3\n        /* \"#utility.yul\":1265:1283   */\n      add\n        /* \"#utility.yul\":1257:1283   */\n      swap1\n      pop\n        /* \"#utility.yul\":1293:1364   */\n      tag_34\n        /* \"#utility.yul\":1361:1362   */\n      0x00\n        /* \"#utility.yul\":1350:1359   */\n      dup4\n        /* \"#utility.yul\":1346:1363   */\n      add\n        /* \"#utility.yul\":1337:1343   */\n      dup5\n        /* \"#utility.yul\":1293:1364   */\n      tag_16\n      jump\t// in\n    tag_34:\n        /* \"#utility.yul\":1149:1371   */\n      swap3\n      swap2\n      pop\n      pop\n      jump\t// out\n\n    auxdata: 0xa2646970667358221220c0f320db80075fb414b73d1d186cea0c8d5626505bcb240089ffa257d1fa891264736f6c63430008180033\n}\n",
				"bytecode": {
					"linkReferences": {},
					"object": "608060405234801561000f575f80fd5b50610018610061565b6001815f018181525050805f808081526020019081526020015f205f820151815f0155602082015181600101908051906020019061005792919061007a565b50905050506100e0565b60405180604001604052805f8152602001606081525090565b828054828255905f5260205f209081019282156100b4579160200282015b828111156100b3578251825591602001919060010190610098565b5b5090506100c191906100c5565b5090565b5b808211156100dc575f815f9055506001016100c6565b5090565b61011f806100ed5f395ff3fe6080604052348015600e575f80fd5b50600436106026575f3560e01c806329e99f0714602a575b5f80fd5b60406004803603810190603c9190609f565b6054565b604051604b919060d2565b60405180910390f35b5f602052805f5260405f205f91509050805f0154905081565b5f80fd5b5f819050919050565b6081816071565b8114608a575f80fd5b50565b5f81359050609981607a565b92915050565b5f6020828403121560b15760b0606d565b5b5f60bc84828501608d565b91505092915050565b60cc816071565b82525050565b5f60208201905060e35f83018460c5565b9291505056fea2646970667358221220c0f320db80075fb414b73d1d186cea0c8d5626505bcb240089ffa257d1fa891264736f6c63430008180033",
					"opcodes": "PUSH1 0x80 PUSH1 0x40 MSTORE CALLVALUE DUP1 ISZERO PUSH2 0xF JUMPI PUSH0 DUP1 REVERT JUMPDEST POP PUSH2 0x18 PUSH2 0x61 JUMP JUMPDEST PUSH1 0x1 DUP2 PUSH0 ADD DUP2 DUP2 MSTORE POP POP DUP1 PUSH0 DUP1 DUP1 DUP2 MSTORE PUSH1 0x20 ADD SWAP1 DUP2 MSTORE PUSH1 0x20 ADD PUSH0 KECCAK256 PUSH0 DUP3 ADD MLOAD DUP2 PUSH0 ADD SSTORE PUSH1 0x20 DUP3 ADD MLOAD DUP2 PUSH1 0x1 ADD SWAP1 DUP1 MLOAD SWAP1 PUSH1 0x20 ADD SWAP1 PUSH2 0x57 SWAP3 SWAP2 SWAP1 PUSH2 0x7A JUMP JUMPDEST POP SWAP1 POP POP POP PUSH2 0xE0 JUMP JUMPDEST PUSH1 0x40 MLOAD DUP1 PUSH1 0x40 ADD PUSH1 0x40 MSTORE DUP1 PUSH0 DUP2 MSTORE PUSH1 0x20 ADD PUSH1 0x60 DUP2 MSTORE POP SWAP1 JUMP JUMPDEST DUP3 DUP1 SLOAD DUP3 DUP3 SSTORE SWAP1 PUSH0 MSTORE PUSH1 0x20 PUSH0 KECCAK256 SWAP1 DUP2 ADD SWAP3 DUP3 ISZERO PUSH2 0xB4 JUMPI SWAP2 PUSH1 0x20 MUL DUP3 ADD JUMPDEST DUP3 DUP2 GT ISZERO PUSH2 0xB3 JUMPI DUP3 MLOAD DUP3 SSTORE SWAP2 PUSH1 0x20 ADD SWAP2 SWAP1 PUSH1 0x1 ADD SWAP1 PUSH2 0x98 JUMP JUMPDEST JUMPDEST POP SWAP1 POP PUSH2 0xC1 SWAP2 SWAP1 PUSH2 0xC5 JUMP JUMPDEST POP SWAP1 JUMP JUMPDEST JUMPDEST DUP1 DUP3 GT ISZERO PUSH2 0xDC JUMPI PUSH0 DUP2 PUSH0 SWAP1 SSTORE POP PUSH1 0x1 ADD PUSH2 0xC6 JUMP JUMPDEST POP SWAP1 JUMP JUMPDEST PUSH2 0x11F DUP1 PUSH2 0xED PUSH0 CODECOPY PUSH0 RETURN INVALID PUSH1 0x80 PUSH1 0x40 MSTORE CALLVALUE DUP1 ISZERO PUSH1 0xE JUMPI PUSH0 DUP1 REVERT JUMPDEST POP PUSH1 0x4 CALLDATASIZE LT PUSH1 0x26 JUMPI PUSH0 CALLDATALOAD PUSH1 0xE0 SHR DUP1 PUSH4 0x29E99F07 EQ PUSH1 0x2A JUMPI JUMPDEST PUSH0 DUP1 REVERT JUMPDEST PUSH1 0x40 PUSH1 0x4 DUP1 CALLDATASIZE SUB DUP2 ADD SWAP1 PUSH1 0x3C SWAP2 SWAP1 PUSH1 0x9F JUMP JUMPDEST PUSH1 0x54 JUMP JUMPDEST PUSH1 0x40 MLOAD PUSH1 0x4B SWAP2 SWAP1 PUSH1 0xD2 JUMP JUMPDEST PUSH1 0x40 MLOAD DUP1 SWAP2 SUB SWAP1 RETURN JUMPDEST PUSH0 PUSH1 0x20 MSTORE DUP1 PUSH0 MSTORE PUSH1 0x40 PUSH0 KECCAK256 PUSH0 SWAP2 POP SWAP1 POP DUP1 PUSH0 ADD SLOAD SWAP1 POP DUP2 JUMP JUMPDEST PUSH0 DUP1 REVERT JUMPDEST PUSH0 DUP2 SWAP1 POP SWAP2 SWAP1 POP JUMP JUMPDEST PUSH1 0x81 DUP2 PUSH1 0x71 JUMP JUMPDEST DUP2 EQ PUSH1 0x8A JUMPI PUSH0 DUP1 REVERT JUMPDEST POP JUMP JUMPDEST PUSH0 DUP2 CALLDATALOAD SWAP1 POP PUSH1 0x99 DUP2 PUSH1 0x7A JUMP JUMPDEST SWAP3 SWAP2 POP POP JUMP JUMPDEST PUSH0 PUSH1 0x20 DUP3 DUP5 SUB SLT ISZERO PUSH1 0xB1 JUMPI PUSH1 0xB0 PUSH1 0x6D JUMP JUMPDEST JUMPDEST PUSH0 PUSH1 0xBC DUP5 DUP3 DUP6 ADD PUSH1 0x8D JUMP JUMPDEST SWAP2 POP POP SWAP3 SWAP2 POP POP JUMP JUMPDEST PUSH1 0xCC DUP2 PUSH1 0x71 JUMP JUMPDEST DUP3 MSTORE POP POP JUMP JUMPDEST PUSH0 PUSH1 0x20 DUP3 ADD SWAP1 POP PUSH1 0xE3 PUSH0 DUP4 ADD DUP5 PUSH1 0xC5 JUMP JUMPDEST SWAP3 SWAP2 POP POP JUMP INVALID LOG2 PUSH5 0x6970667358 0x22 SLT KECCAK256 0xC0 RETURN KECCAK256 0xDB DUP1 SMOD PUSH0 0xB4 EQ 0xB7 RETURNDATASIZE SAR XOR PUSH13 0xEA0C8D5626505BCB240089FFA2 JUMPI 0xD1 STATICCALL DUP10 SLT PUSH5 0x736F6C6343 STOP ADDMOD XOR STOP CALLER "
				},
				"gasEstimates": {
					"creation": {
						"codeDepositCost": "57400",
						"executionCost": "infinite",
						"totalCost": "infinite"
					},
					"external": {
						"test(uint256)": "infinite"
					}
				},
				"methodIdentifiers": {
					"test(uint256)": "29e99f07"
				}
			},
			"storageLayout": {
				"storage": [
					{
						"astId": 12,
						"contract": "testReturnarrayt.sol:TestArrayRreturn",
						"label": "test",
						"offset": 0,
						"slot": "0",
						"type": "t_mapping(t_uint256,t_struct(UserInfo)7_storage)"
					}
				],
				"types": {
					"t_array(t_uint256)dyn_storage": {
						"base": "t_uint256",
						"encoding": "dynamic_array",
						"label": "uint256[]",
						"numberOfBytes": "32"
					},
					"t_mapping(t_uint256,t_struct(UserInfo)7_storage)": {
						"encoding": "mapping",
						"key": "t_uint256",
						"label": "mapping(uint256 => struct TestArrayRreturn.UserInfo)",
						"numberOfBytes": "32",
						"value": "t_struct(UserInfo)7_storage"
					},
					"t_struct(UserInfo)7_storage": {
						"encoding": "inplace",
						"label": "struct TestArrayRreturn.UserInfo",
						"members": [
							{
								"astId": 3,
								"contract": "testReturnarrayt.sol:TestArrayRreturn",
								"label": "test",
								"offset": 0,
								"slot": "0",
								"type": "t_uint256"
							},
							{
								"astId": 6,
								"contract": "testReturnarrayt.sol:TestArrayRreturn",
								"label": "tokenIds",
								"offset": 0,
								"slot": "1",
								"type": "t_array(t_uint256)dyn_storage"
							}
						],
						"numberOfBytes": "64"
					},
					"t_uint256": {
						"encoding": "inplace",
						"label": "uint256",
						"numberOfBytes": "32"
					}
				}
			},
			"userdoc": {
				"kind": "user",
				"methods": {},
				"version": 1
			}
		}
	}
}