{
	"testbatch.sol": {
		"RouterOnPool": {
			"abi": [
				{
					"inputs": [
						{
							"internalType": "bytes[]",
							"name": "calls",
							"type": "bytes[]"
						}
					],
					"name": "batch",
					"outputs": [
						{
							"internalType": "bytes[]",
							"name": "results",
							"type": "bytes[]"
						}
					],
					"stateMutability": "payable",
					"type": "function"
				},
				{
					"inputs": [],
					"name": "num",
					"outputs": [
						{
							"internalType": "uint256",
							"name": "",
							"type": "uint256"
						}
					],
					"stateMutability": "view",
					"type": "function"
				},
				{
					"inputs": [
						{
							"internalType": "uint256",
							"name": "_num",
							"type": "uint256"
						}
					],
					"name": "setVars",
					"outputs": [],
					"stateMutability": "payable",
					"type": "function"
				},
				{
					"inputs": [
						{
							"internalType": "uint256",
							"name": "_num",
							"type": "uint256"
						}
					],
					"name": "test",
					"outputs": [],
					"stateMutability": "nonpayable",
					"type": "function"
				}
			],
			"devdoc": {
				"kind": "dev",
				"methods": {
					"batch(bytes[])": {
						"details": "Allows batched call to self (this contract).",
						"params": {
							"calls": "An array of inputs for each call."
						}
					}
				},
				"version": 1
			},
			"evm": {
				"assembly": "    /* \"testbatch.sol\":68:1706  contract RouterOnPool {... */\n  mstore(0x40, 0x80)\n  callvalue\n  dup1\n  iszero\n  tag_1\n  jumpi\n  0x00\n  dup1\n  revert\ntag_1:\n  pop\n  dataSize(sub_0)\n  dup1\n  dataOffset(sub_0)\n  0x00\n  codecopy\n  0x00\n  return\nstop\n\nsub_0: assembly {\n        /* \"testbatch.sol\":68:1706  contract RouterOnPool {... */\n      mstore(0x40, 0x80)\n      jumpi(tag_1, lt(calldatasize, 0x04))\n      shr(0xe0, calldataload(0x00))\n      dup1\n      0x1e897afb\n      eq\n      tag_2\n      jumpi\n      dup1\n      0x29e99f07\n      eq\n      tag_3\n      jumpi\n      dup1\n      0x4e70b1dc\n      eq\n      tag_4\n      jumpi\n      dup1\n      0x6466414b\n      eq\n      tag_5\n      jumpi\n    tag_1:\n      0x00\n      dup1\n      revert\n        /* \"testbatch.sol\":934:1325  function batch(bytes[] memory calls) public payable returns(bytes[] memory results) {... */\n    tag_2:\n      tag_6\n      0x04\n      dup1\n      calldatasize\n      sub\n      dup2\n      add\n      swap1\n      tag_7\n      swap2\n      swap1\n      tag_8\n      jump\t// in\n    tag_7:\n      tag_9\n      jump\t// in\n    tag_6:\n      mload(0x40)\n      tag_10\n      swap2\n      swap1\n      tag_11\n      jump\t// in\n    tag_10:\n      mload(0x40)\n      dup1\n      swap2\n      sub\n      swap1\n      return\n        /* \"testbatch.sol\":1335:1609  function test(uint _num) public {... */\n    tag_3:\n      callvalue\n      dup1\n      iszero\n      tag_12\n      jumpi\n      0x00\n      dup1\n      revert\n    tag_12:\n      pop\n      tag_13\n      0x04\n      dup1\n      calldatasize\n      sub\n      dup2\n      add\n      swap1\n      tag_14\n      swap2\n      swap1\n      tag_15\n      jump\t// in\n    tag_14:\n      tag_16\n      jump\t// in\n    tag_13:\n      stop\n        /* \"testbatch.sol\":99:114  uint public num */\n    tag_4:\n      callvalue\n      dup1\n      iszero\n      tag_17\n      jumpi\n      0x00\n      dup1\n      revert\n    tag_17:\n      pop\n      tag_18\n      tag_19\n      jump\t// in\n    tag_18:\n      mload(0x40)\n      tag_20\n      swap2\n      swap1\n      tag_21\n      jump\t// in\n    tag_20:\n      mload(0x40)\n      dup1\n      swap2\n      sub\n      swap1\n      return\n        /* \"testbatch.sol\":1621:1695  function setVars(uint _num) external payable {... */\n    tag_5:\n      tag_22\n      0x04\n      dup1\n      calldatasize\n      sub\n      dup2\n      add\n      swap1\n      tag_23\n      swap2\n      swap1\n      tag_15\n      jump\t// in\n    tag_23:\n      tag_24\n      jump\t// in\n    tag_22:\n      stop\n        /* \"testbatch.sol\":934:1325  function batch(bytes[] memory calls) public payable returns(bytes[] memory results) {... */\n    tag_9:\n        /* \"testbatch.sol\":994:1016  bytes[] memory results */\n      0x60\n        /* \"testbatch.sol\":1053:1058  calls */\n      dup2\n        /* \"testbatch.sol\":1053:1065  calls.length */\n      mload\n        /* \"testbatch.sol\":1041:1066  new bytes[](calls.length) */\n      0xffffffffffffffff\n      dup2\n      gt\n      iszero\n      tag_26\n      jumpi\n      tag_27\n      tag_28\n      jump\t// in\n    tag_27:\n    tag_26:\n      mload(0x40)\n      swap1\n      dup1\n      dup3\n      mstore\n      dup1\n      0x20\n      mul\n      0x20\n      add\n      dup3\n      add\n      0x40\n      mstore\n      dup1\n      iszero\n      tag_29\n      jumpi\n      dup2\n      0x20\n      add\n    tag_30:\n      0x60\n      dup2\n      mstore\n      0x20\n      add\n      swap1\n      0x01\n      swap1\n      sub\n      swap1\n      dup2\n      tag_30\n      jumpi\n      swap1\n      pop\n    tag_29:\n      pop\n        /* \"testbatch.sol\":1031:1066  results = new bytes[](calls.length) */\n      swap1\n      pop\n        /* \"testbatch.sol\":1084:1093  uint256 i */\n      0x00\n        /* \"testbatch.sol\":1079:1316  for (uint256 i; i < calls.length; i++) {... */\n    tag_31:\n        /* \"testbatch.sol\":1099:1104  calls */\n      dup3\n        /* \"testbatch.sol\":1099:1111  calls.length */\n      mload\n        /* \"testbatch.sol\":1095:1096  i */\n      dup2\n        /* \"testbatch.sol\":1095:1111  i < calls.length */\n      lt\n        /* \"testbatch.sol\":1079:1316  for (uint256 i; i < calls.length; i++) {... */\n      iszero\n      tag_32\n      jumpi\n        /* \"testbatch.sol\":1136:1148  bool success */\n      0x00\n        /* \"testbatch.sol\":1150:1169  bytes memory result */\n      dup1\n        /* \"testbatch.sol\":1181:1185  this */\n      address\n        /* \"testbatch.sol\":1173:1199  address(this).delegatecall */\n      0xffffffffffffffffffffffffffffffffffffffff\n      and\n        /* \"testbatch.sol\":1200:1205  calls */\n      dup6\n        /* \"testbatch.sol\":1206:1207  i */\n      dup5\n        /* \"testbatch.sol\":1200:1208  calls[i] */\n      dup2\n      mload\n      dup2\n      lt\n      tag_34\n      jumpi\n      tag_35\n      tag_36\n      jump\t// in\n    tag_35:\n    tag_34:\n      0x20\n      mul\n      0x20\n      add\n      add\n      mload\n        /* \"testbatch.sol\":1173:1209  address(this).delegatecall(calls[i]) */\n      mload(0x40)\n      tag_37\n      swap2\n      swap1\n      tag_38\n      jump\t// in\n    tag_37:\n      0x00\n      mload(0x40)\n      dup1\n      dup4\n      sub\n      dup2\n      dup6\n      gas\n      delegatecall\n      swap2\n      pop\n      pop\n      returndatasize\n      dup1\n      0x00\n      dup2\n      eq\n      tag_41\n      jumpi\n      mload(0x40)\n      swap2\n      pop\n      and(add(returndatasize, 0x3f), not(0x1f))\n      dup3\n      add\n      0x40\n      mstore\n      returndatasize\n      dup3\n      mstore\n      returndatasize\n      0x00\n      0x20\n      dup5\n      add\n      returndatacopy\n      jump(tag_40)\n    tag_41:\n      0x60\n      swap2\n      pop\n    tag_40:\n      pop\n        /* \"testbatch.sol\":1135:1209  (bool success, bytes memory result) = address(this).delegatecall(calls[i]) */\n      swap2\n      pop\n      swap2\n      pop\n        /* \"testbatch.sol\":1231:1238  success */\n      dup2\n        /* \"testbatch.sol\":1226:1268  if (!success) revert(getRevertMsg(result)) */\n      tag_42\n      jumpi\n        /* \"testbatch.sol\":1247:1267  getRevertMsg(result) */\n      tag_43\n        /* \"testbatch.sol\":1260:1266  result */\n      dup2\n        /* \"testbatch.sol\":1247:1259  getRevertMsg */\n      tag_44\n        /* \"testbatch.sol\":1247:1267  getRevertMsg(result) */\n      jump\t// in\n    tag_43:\n        /* \"testbatch.sol\":1240:1268  revert(getRevertMsg(result)) */\n      mload(0x40)\n      0x08c379a000000000000000000000000000000000000000000000000000000000\n      dup2\n      mstore\n      0x04\n      add\n      tag_45\n      swap2\n      swap1\n      tag_46\n      jump\t// in\n    tag_45:\n      mload(0x40)\n      dup1\n      swap2\n      sub\n      swap1\n      revert\n        /* \"testbatch.sol\":1226:1268  if (!success) revert(getRevertMsg(result)) */\n    tag_42:\n        /* \"testbatch.sol\":1298:1304  result */\n      dup1\n        /* \"testbatch.sol\":1285:1292  results */\n      dup5\n        /* \"testbatch.sol\":1293:1294  i */\n      dup5\n        /* \"testbatch.sol\":1285:1295  results[i] */\n      dup2\n      mload\n      dup2\n      lt\n      tag_47\n      jumpi\n      tag_48\n      tag_36\n      jump\t// in\n    tag_48:\n    tag_47:\n      0x20\n      mul\n      0x20\n      add\n      add\n        /* \"testbatch.sol\":1285:1304  results[i] = result */\n      dup2\n      swap1\n      mstore\n      pop\n        /* \"testbatch.sol\":1118:1316  {... */\n      pop\n      pop\n        /* \"testbatch.sol\":1113:1116  i++ */\n      dup1\n      dup1\n      0x01\n      add\n      swap2\n      pop\n      pop\n        /* \"testbatch.sol\":1079:1316  for (uint256 i; i < calls.length; i++) {... */\n      jump(tag_31)\n    tag_32:\n      pop\n        /* \"testbatch.sol\":934:1325  function batch(bytes[] memory calls) public payable returns(bytes[] memory results) {... */\n      swap2\n      swap1\n      pop\n      jump\t// out\n        /* \"testbatch.sol\":1335:1609  function test(uint _num) public {... */\n    tag_16:\n        /* \"testbatch.sol\":1380:1400  bytes memory payload */\n      0x00\n        /* \"testbatch.sol\":1447:1451  _num */\n      dup2\n        /* \"testbatch.sol\":1403:1452  abi.encodeWithSignature(\"setVars(uint256)\", _num) */\n      add(0x24, mload(0x40))\n      tag_50\n      swap2\n      swap1\n      tag_21\n      jump\t// in\n    tag_50:\n      mload(0x40)\n      0x20\n      dup2\n      dup4\n      sub\n      sub\n      dup2\n      mstore\n      swap1\n      0x40\n      mstore\n      and(not(0xffffffffffffffffffffffffffffffffffffffffffffffffffffffff), 0x6466414b00000000000000000000000000000000000000000000000000000000)\n      0x20\n      dup3\n      add\n      dup1\n      mload\n      0xffffffffffffffffffffffffffffffffffffffffffffffffffffffff\n      dup4\n      dup2\n      dup4\n      and\n      or\n      dup4\n      mstore\n      pop\n      pop\n      pop\n      pop\n        /* \"testbatch.sol\":1380:1452  bytes memory payload = abi.encodeWithSignature(\"setVars(uint256)\", _num) */\n      swap1\n      pop\n        /* \"testbatch.sol\":1474:1486  bool success */\n      0x00\n        /* \"testbatch.sol\":1488:1507  bytes memory result */\n      dup1\n        /* \"testbatch.sol\":1519:1523  this */\n      address\n        /* \"testbatch.sol\":1511:1537  address(this).delegatecall */\n      0xffffffffffffffffffffffffffffffffffffffff\n      and\n        /* \"testbatch.sol\":1538:1545  payload */\n      dup4\n        /* \"testbatch.sol\":1511:1546  address(this).delegatecall(payload) */\n      mload(0x40)\n      tag_51\n      swap2\n      swap1\n      tag_38\n      jump\t// in\n    tag_51:\n      0x00\n      mload(0x40)\n      dup1\n      dup4\n      sub\n      dup2\n      dup6\n      gas\n      delegatecall\n      swap2\n      pop\n      pop\n      returndatasize\n      dup1\n      0x00\n      dup2\n      eq\n      tag_54\n      jumpi\n      mload(0x40)\n      swap2\n      pop\n      and(add(returndatasize, 0x3f), not(0x1f))\n      dup3\n      add\n      0x40\n      mstore\n      returndatasize\n      dup3\n      mstore\n      returndatasize\n      0x00\n      0x20\n      dup5\n      add\n      returndatacopy\n      jump(tag_53)\n    tag_54:\n      0x60\n      swap2\n      pop\n    tag_53:\n      pop\n        /* \"testbatch.sol\":1473:1546  (bool success, bytes memory result) = address(this).delegatecall(payload) */\n      swap2\n      pop\n      swap2\n      pop\n        /* \"testbatch.sol\":1564:1571  success */\n      dup2\n        /* \"testbatch.sol\":1559:1601  if (!success) revert(getRevertMsg(result)) */\n      tag_55\n      jumpi\n        /* \"testbatch.sol\":1580:1600  getRevertMsg(result) */\n      tag_56\n        /* \"testbatch.sol\":1593:1599  result */\n      dup2\n        /* \"testbatch.sol\":1580:1592  getRevertMsg */\n      tag_44\n        /* \"testbatch.sol\":1580:1600  getRevertMsg(result) */\n      jump\t// in\n    tag_56:\n        /* \"testbatch.sol\":1573:1601  revert(getRevertMsg(result)) */\n      mload(0x40)\n      0x08c379a000000000000000000000000000000000000000000000000000000000\n      dup2\n      mstore\n      0x04\n      add\n      tag_57\n      swap2\n      swap1\n      tag_46\n      jump\t// in\n    tag_57:\n      mload(0x40)\n      dup1\n      swap2\n      sub\n      swap1\n      revert\n        /* \"testbatch.sol\":1559:1601  if (!success) revert(getRevertMsg(result)) */\n    tag_55:\n        /* \"testbatch.sol\":1367:1609  {... */\n      pop\n      pop\n      pop\n        /* \"testbatch.sol\":1335:1609  function test(uint _num) public {... */\n      pop\n      jump\t// out\n        /* \"testbatch.sol\":99:114  uint public num */\n    tag_19:\n      sload(0x00)\n      dup2\n      jump\t// out\n        /* \"testbatch.sol\":1621:1695  function setVars(uint _num) external payable {... */\n    tag_24:\n        /* \"testbatch.sol\":1683:1687  _num */\n      dup1\n        /* \"testbatch.sol\":1677:1680  num */\n      0x00\n        /* \"testbatch.sol\":1677:1687  num = _num */\n      dup2\n      swap1\n      sstore\n      pop\n        /* \"testbatch.sol\":1621:1695  function setVars(uint _num) external payable {... */\n      pop\n      jump\t// out\n        /* \"testbatch.sol\":314:811  function getRevertMsg(bytes memory returnData) internal pure returns (string memory)... */\n    tag_44:\n        /* \"testbatch.sol\":384:397  string memory */\n      0x60\n        /* \"testbatch.sol\":551:553  68 */\n      0x44\n        /* \"testbatch.sol\":531:541  returnData */\n      dup3\n        /* \"testbatch.sol\":531:548  returnData.length */\n      mload\n        /* \"testbatch.sol\":531:553  returnData.length < 68 */\n      lt\n        /* \"testbatch.sol\":527:593  if (returnData.length < 68) return \"Transaction reverted silently\" */\n      iszero\n      tag_60\n      jumpi\n        /* \"testbatch.sol\":555:593  return \"Transaction reverted silently\" */\n      mload(0x40)\n      dup1\n      0x40\n      add\n      0x40\n      mstore\n      dup1\n      0x1d\n      dup2\n      mstore\n      0x20\n      add\n      0x5472616e73616374696f6e2072657665727465642073696c656e746c79000000\n      dup2\n      mstore\n      pop\n      swap1\n      pop\n      jump(tag_59)\n        /* \"testbatch.sol\":527:593  if (returnData.length < 68) return \"Transaction reverted silently\" */\n    tag_60:\n        /* \"testbatch.sol\":695:699  0x04 */\n      0x04\n        /* \"testbatch.sol\":683:693  returnData */\n      dup3\n        /* \"testbatch.sol\":679:700  add(returnData, 0x04) */\n      add\n        /* \"testbatch.sol\":665:700  returnData := add(returnData, 0x04) */\n      swap2\n      pop\n        /* \"testbatch.sol\":741:751  returnData */\n      dup2\n        /* \"testbatch.sol\":730:762  abi.decode(returnData, (string)) */\n      dup1\n      0x20\n      add\n      swap1\n      mload\n      dup2\n      add\n      swap1\n      tag_61\n      swap2\n      swap1\n      tag_62\n      jump\t// in\n    tag_61:\n        /* \"testbatch.sol\":723:762  return abi.decode(returnData, (string)) */\n      swap1\n      pop\n        /* \"testbatch.sol\":314:811  function getRevertMsg(bytes memory returnData) internal pure returns (string memory)... */\n    tag_59:\n      swap2\n      swap1\n      pop\n      jump\t// out\n        /* \"#utility.yul\":7:82   */\n    tag_63:\n        /* \"#utility.yul\":40:46   */\n      0x00\n        /* \"#utility.yul\":73:75   */\n      0x40\n        /* \"#utility.yul\":67:76   */\n      mload\n        /* \"#utility.yul\":57:76   */\n      swap1\n      pop\n        /* \"#utility.yul\":7:82   */\n      swap1\n      jump\t// out\n        /* \"#utility.yul\":88:205   */\n    tag_64:\n        /* \"#utility.yul\":197:198   */\n      0x00\n        /* \"#utility.yul\":194:195   */\n      dup1\n        /* \"#utility.yul\":187:199   */\n      revert\n        /* \"#utility.yul\":211:328   */\n    tag_65:\n        /* \"#utility.yul\":320:321   */\n      0x00\n        /* \"#utility.yul\":317:318   */\n      dup1\n        /* \"#utility.yul\":310:322   */\n      revert\n        /* \"#utility.yul\":334:451   */\n    tag_66:\n        /* \"#utility.yul\":443:444   */\n      0x00\n        /* \"#utility.yul\":440:441   */\n      dup1\n        /* \"#utility.yul\":433:445   */\n      revert\n        /* \"#utility.yul\":457:559   */\n    tag_67:\n        /* \"#utility.yul\":498:504   */\n      0x00\n        /* \"#utility.yul\":549:551   */\n      0x1f\n        /* \"#utility.yul\":545:552   */\n      not\n        /* \"#utility.yul\":540:542   */\n      0x1f\n        /* \"#utility.yul\":533:538   */\n      dup4\n        /* \"#utility.yul\":529:543   */\n      add\n        /* \"#utility.yul\":525:553   */\n      and\n        /* \"#utility.yul\":515:553   */\n      swap1\n      pop\n        /* \"#utility.yul\":457:559   */\n      swap2\n      swap1\n      pop\n      jump\t// out\n        /* \"#utility.yul\":565:745   */\n    tag_28:\n        /* \"#utility.yul\":613:690   */\n      0x4e487b7100000000000000000000000000000000000000000000000000000000\n        /* \"#utility.yul\":610:611   */\n      0x00\n        /* \"#utility.yul\":603:691   */\n      mstore\n        /* \"#utility.yul\":710:714   */\n      0x41\n        /* \"#utility.yul\":707:708   */\n      0x04\n        /* \"#utility.yul\":700:715   */\n      mstore\n        /* \"#utility.yul\":734:738   */\n      0x24\n        /* \"#utility.yul\":731:732   */\n      0x00\n        /* \"#utility.yul\":724:739   */\n      revert\n        /* \"#utility.yul\":751:1032   */\n    tag_68:\n        /* \"#utility.yul\":834:861   */\n      tag_109\n        /* \"#utility.yul\":856:860   */\n      dup3\n        /* \"#utility.yul\":834:861   */\n      tag_67\n      jump\t// in\n    tag_109:\n        /* \"#utility.yul\":826:832   */\n      dup2\n        /* \"#utility.yul\":822:862   */\n      add\n        /* \"#utility.yul\":964:970   */\n      dup2\n        /* \"#utility.yul\":952:962   */\n      dup2\n        /* \"#utility.yul\":949:971   */\n      lt\n        /* \"#utility.yul\":928:946   */\n      0xffffffffffffffff\n        /* \"#utility.yul\":916:926   */\n      dup3\n        /* \"#utility.yul\":913:947   */\n      gt\n        /* \"#utility.yul\":910:972   */\n      or\n        /* \"#utility.yul\":907:995   */\n      iszero\n      tag_110\n      jumpi\n        /* \"#utility.yul\":975:993   */\n      tag_111\n      tag_28\n      jump\t// in\n    tag_111:\n        /* \"#utility.yul\":907:995   */\n    tag_110:\n        /* \"#utility.yul\":1015:1025   */\n      dup1\n        /* \"#utility.yul\":1011:1013   */\n      0x40\n        /* \"#utility.yul\":1004:1026   */\n      mstore\n        /* \"#utility.yul\":794:1032   */\n      pop\n        /* \"#utility.yul\":751:1032   */\n      pop\n      pop\n      jump\t// out\n        /* \"#utility.yul\":1038:1167   */\n    tag_69:\n        /* \"#utility.yul\":1072:1078   */\n      0x00\n        /* \"#utility.yul\":1099:1119   */\n      tag_113\n      tag_63\n      jump\t// in\n    tag_113:\n        /* \"#utility.yul\":1089:1119   */\n      swap1\n      pop\n        /* \"#utility.yul\":1128:1161   */\n      tag_114\n        /* \"#utility.yul\":1156:1160   */\n      dup3\n        /* \"#utility.yul\":1148:1154   */\n      dup3\n        /* \"#utility.yul\":1128:1161   */\n      tag_68\n      jump\t// in\n    tag_114:\n        /* \"#utility.yul\":1038:1167   */\n      swap2\n      swap1\n      pop\n      jump\t// out\n        /* \"#utility.yul\":1173:1493   */\n    tag_70:\n        /* \"#utility.yul\":1259:1263   */\n      0x00\n        /* \"#utility.yul\":1349:1367   */\n      0xffffffffffffffff\n        /* \"#utility.yul\":1341:1347   */\n      dup3\n        /* \"#utility.yul\":1338:1368   */\n      gt\n        /* \"#utility.yul\":1335:1391   */\n      iszero\n      tag_116\n      jumpi\n        /* \"#utility.yul\":1371:1389   */\n      tag_117\n      tag_28\n      jump\t// in\n    tag_117:\n        /* \"#utility.yul\":1335:1391   */\n    tag_116:\n        /* \"#utility.yul\":1421:1425   */\n      0x20\n        /* \"#utility.yul\":1413:1419   */\n      dup3\n        /* \"#utility.yul\":1409:1426   */\n      mul\n        /* \"#utility.yul\":1401:1426   */\n      swap1\n      pop\n        /* \"#utility.yul\":1481:1485   */\n      0x20\n        /* \"#utility.yul\":1475:1479   */\n      dup2\n        /* \"#utility.yul\":1471:1486   */\n      add\n        /* \"#utility.yul\":1463:1486   */\n      swap1\n      pop\n        /* \"#utility.yul\":1173:1493   */\n      swap2\n      swap1\n      pop\n      jump\t// out\n        /* \"#utility.yul\":1499:1616   */\n    tag_71:\n        /* \"#utility.yul\":1608:1609   */\n      0x00\n        /* \"#utility.yul\":1605:1606   */\n      dup1\n        /* \"#utility.yul\":1598:1610   */\n      revert\n        /* \"#utility.yul\":1622:1739   */\n    tag_72:\n        /* \"#utility.yul\":1731:1732   */\n      0x00\n        /* \"#utility.yul\":1728:1729   */\n      dup1\n        /* \"#utility.yul\":1721:1733   */\n      revert\n        /* \"#utility.yul\":1745:2052   */\n    tag_73:\n        /* \"#utility.yul\":1806:1810   */\n      0x00\n        /* \"#utility.yul\":1896:1914   */\n      0xffffffffffffffff\n        /* \"#utility.yul\":1888:1894   */\n      dup3\n        /* \"#utility.yul\":1885:1915   */\n      gt\n        /* \"#utility.yul\":1882:1938   */\n      iszero\n      tag_121\n      jumpi\n        /* \"#utility.yul\":1918:1936   */\n      tag_122\n      tag_28\n      jump\t// in\n    tag_122:\n        /* \"#utility.yul\":1882:1938   */\n    tag_121:\n        /* \"#utility.yul\":1956:1985   */\n      tag_123\n        /* \"#utility.yul\":1978:1984   */\n      dup3\n        /* \"#utility.yul\":1956:1985   */\n      tag_67\n      jump\t// in\n    tag_123:\n        /* \"#utility.yul\":1948:1985   */\n      swap1\n      pop\n        /* \"#utility.yul\":2040:2044   */\n      0x20\n        /* \"#utility.yul\":2034:2038   */\n      dup2\n        /* \"#utility.yul\":2030:2045   */\n      add\n        /* \"#utility.yul\":2022:2045   */\n      swap1\n      pop\n        /* \"#utility.yul\":1745:2052   */\n      swap2\n      swap1\n      pop\n      jump\t// out\n        /* \"#utility.yul\":2058:2206   */\n    tag_74:\n        /* \"#utility.yul\":2156:2162   */\n      dup3\n        /* \"#utility.yul\":2151:2154   */\n      dup2\n        /* \"#utility.yul\":2146:2149   */\n      dup4\n        /* \"#utility.yul\":2133:2163   */\n      calldatacopy\n        /* \"#utility.yul\":2197:2198   */\n      0x00\n        /* \"#utility.yul\":2188:2194   */\n      dup4\n        /* \"#utility.yul\":2183:2186   */\n      dup4\n        /* \"#utility.yul\":2179:2195   */\n      add\n        /* \"#utility.yul\":2172:2199   */\n      mstore\n        /* \"#utility.yul\":2058:2206   */\n      pop\n      pop\n      pop\n      jump\t// out\n        /* \"#utility.yul\":2212:2635   */\n    tag_75:\n        /* \"#utility.yul\":2289:2294   */\n      0x00\n        /* \"#utility.yul\":2314:2379   */\n      tag_126\n        /* \"#utility.yul\":2330:2378   */\n      tag_127\n        /* \"#utility.yul\":2371:2377   */\n      dup5\n        /* \"#utility.yul\":2330:2378   */\n      tag_73\n      jump\t// in\n    tag_127:\n        /* \"#utility.yul\":2314:2379   */\n      tag_69\n      jump\t// in\n    tag_126:\n        /* \"#utility.yul\":2305:2379   */\n      swap1\n      pop\n        /* \"#utility.yul\":2402:2408   */\n      dup3\n        /* \"#utility.yul\":2395:2400   */\n      dup2\n        /* \"#utility.yul\":2388:2409   */\n      mstore\n        /* \"#utility.yul\":2440:2444   */\n      0x20\n        /* \"#utility.yul\":2433:2438   */\n      dup2\n        /* \"#utility.yul\":2429:2445   */\n      add\n        /* \"#utility.yul\":2478:2481   */\n      dup5\n        /* \"#utility.yul\":2469:2475   */\n      dup5\n        /* \"#utility.yul\":2464:2467   */\n      dup5\n        /* \"#utility.yul\":2460:2476   */\n      add\n        /* \"#utility.yul\":2457:2482   */\n      gt\n        /* \"#utility.yul\":2454:2566   */\n      iszero\n      tag_128\n      jumpi\n        /* \"#utility.yul\":2485:2564   */\n      tag_129\n      tag_72\n      jump\t// in\n    tag_129:\n        /* \"#utility.yul\":2454:2566   */\n    tag_128:\n        /* \"#utility.yul\":2575:2629   */\n      tag_130\n        /* \"#utility.yul\":2622:2628   */\n      dup5\n        /* \"#utility.yul\":2617:2620   */\n      dup3\n        /* \"#utility.yul\":2612:2615   */\n      dup6\n        /* \"#utility.yul\":2575:2629   */\n      tag_74\n      jump\t// in\n    tag_130:\n        /* \"#utility.yul\":2295:2635   */\n      pop\n        /* \"#utility.yul\":2212:2635   */\n      swap4\n      swap3\n      pop\n      pop\n      pop\n      jump\t// out\n        /* \"#utility.yul\":2654:2992   */\n    tag_76:\n        /* \"#utility.yul\":2709:2714   */\n      0x00\n        /* \"#utility.yul\":2758:2761   */\n      dup3\n        /* \"#utility.yul\":2751:2755   */\n      0x1f\n        /* \"#utility.yul\":2743:2749   */\n      dup4\n        /* \"#utility.yul\":2739:2756   */\n      add\n        /* \"#utility.yul\":2735:2762   */\n      slt\n        /* \"#utility.yul\":2725:2847   */\n      tag_132\n      jumpi\n        /* \"#utility.yul\":2766:2845   */\n      tag_133\n      tag_66\n      jump\t// in\n    tag_133:\n        /* \"#utility.yul\":2725:2847   */\n    tag_132:\n        /* \"#utility.yul\":2883:2889   */\n      dup2\n        /* \"#utility.yul\":2870:2890   */\n      calldataload\n        /* \"#utility.yul\":2908:2986   */\n      tag_134\n        /* \"#utility.yul\":2982:2985   */\n      dup5\n        /* \"#utility.yul\":2974:2980   */\n      dup3\n        /* \"#utility.yul\":2967:2971   */\n      0x20\n        /* \"#utility.yul\":2959:2965   */\n      dup7\n        /* \"#utility.yul\":2955:2972   */\n      add\n        /* \"#utility.yul\":2908:2986   */\n      tag_75\n      jump\t// in\n    tag_134:\n        /* \"#utility.yul\":2899:2986   */\n      swap2\n      pop\n        /* \"#utility.yul\":2715:2992   */\n      pop\n        /* \"#utility.yul\":2654:2992   */\n      swap3\n      swap2\n      pop\n      pop\n      jump\t// out\n        /* \"#utility.yul\":3013:3955   */\n    tag_77:\n        /* \"#utility.yul\":3118:3123   */\n      0x00\n        /* \"#utility.yul\":3143:3233   */\n      tag_136\n        /* \"#utility.yul\":3159:3232   */\n      tag_137\n        /* \"#utility.yul\":3225:3231   */\n      dup5\n        /* \"#utility.yul\":3159:3232   */\n      tag_70\n      jump\t// in\n    tag_137:\n        /* \"#utility.yul\":3143:3233   */\n      tag_69\n      jump\t// in\n    tag_136:\n        /* \"#utility.yul\":3134:3233   */\n      swap1\n      pop\n        /* \"#utility.yul\":3253:3258   */\n      dup1\n        /* \"#utility.yul\":3282:3288   */\n      dup4\n        /* \"#utility.yul\":3275:3280   */\n      dup3\n        /* \"#utility.yul\":3268:3289   */\n      mstore\n        /* \"#utility.yul\":3316:3320   */\n      0x20\n        /* \"#utility.yul\":3309:3314   */\n      dup3\n        /* \"#utility.yul\":3305:3321   */\n      add\n        /* \"#utility.yul\":3298:3321   */\n      swap1\n      pop\n        /* \"#utility.yul\":3369:3373   */\n      0x20\n        /* \"#utility.yul\":3361:3367   */\n      dup5\n        /* \"#utility.yul\":3357:3374   */\n      mul\n        /* \"#utility.yul\":3349:3355   */\n      dup4\n        /* \"#utility.yul\":3345:3375   */\n      add\n        /* \"#utility.yul\":3398:3401   */\n      dup6\n        /* \"#utility.yul\":3390:3396   */\n      dup2\n        /* \"#utility.yul\":3387:3402   */\n      gt\n        /* \"#utility.yul\":3384:3506   */\n      iszero\n      tag_138\n      jumpi\n        /* \"#utility.yul\":3417:3496   */\n      tag_139\n      tag_71\n      jump\t// in\n    tag_139:\n        /* \"#utility.yul\":3384:3506   */\n    tag_138:\n        /* \"#utility.yul\":3532:3538   */\n      dup4\n        /* \"#utility.yul\":3515:3949   */\n    tag_140:\n        /* \"#utility.yul\":3549:3555   */\n      dup2\n        /* \"#utility.yul\":3544:3547   */\n      dup2\n        /* \"#utility.yul\":3541:3556   */\n      lt\n        /* \"#utility.yul\":3515:3949   */\n      iszero\n      tag_142\n      jumpi\n        /* \"#utility.yul\":3638:3641   */\n      dup1\n        /* \"#utility.yul\":3625:3642   */\n      calldataload\n        /* \"#utility.yul\":3674:3692   */\n      0xffffffffffffffff\n        /* \"#utility.yul\":3661:3672   */\n      dup2\n        /* \"#utility.yul\":3658:3693   */\n      gt\n        /* \"#utility.yul\":3655:3777   */\n      iszero\n      tag_143\n      jumpi\n        /* \"#utility.yul\":3696:3775   */\n      tag_144\n      tag_66\n      jump\t// in\n    tag_144:\n        /* \"#utility.yul\":3655:3777   */\n    tag_143:\n        /* \"#utility.yul\":3820:3831   */\n      dup1\n        /* \"#utility.yul\":3812:3818   */\n      dup7\n        /* \"#utility.yul\":3808:3832   */\n      add\n        /* \"#utility.yul\":3858:3904   */\n      tag_145\n        /* \"#utility.yul\":3900:3903   */\n      dup10\n        /* \"#utility.yul\":3888:3898   */\n      dup3\n        /* \"#utility.yul\":3858:3904   */\n      tag_76\n      jump\t// in\n    tag_145:\n        /* \"#utility.yul\":3853:3856   */\n      dup6\n        /* \"#utility.yul\":3846:3905   */\n      mstore\n        /* \"#utility.yul\":3934:3938   */\n      0x20\n        /* \"#utility.yul\":3929:3932   */\n      dup6\n        /* \"#utility.yul\":3925:3939   */\n      add\n        /* \"#utility.yul\":3918:3939   */\n      swap5\n      pop\n        /* \"#utility.yul\":3591:3949   */\n      pop\n      pop\n        /* \"#utility.yul\":3575:3579   */\n      0x20\n        /* \"#utility.yul\":3570:3573   */\n      dup2\n        /* \"#utility.yul\":3566:3580   */\n      add\n        /* \"#utility.yul\":3559:3580   */\n      swap1\n      pop\n        /* \"#utility.yul\":3515:3949   */\n      jump(tag_140)\n    tag_142:\n        /* \"#utility.yul\":3519:3540   */\n      pop\n        /* \"#utility.yul\":3124:3955   */\n      pop\n      pop\n        /* \"#utility.yul\":3013:3955   */\n      swap4\n      swap3\n      pop\n      pop\n      pop\n      jump\t// out\n        /* \"#utility.yul\":3976:4364   */\n    tag_78:\n        /* \"#utility.yul\":4056:4061   */\n      0x00\n        /* \"#utility.yul\":4105:4108   */\n      dup3\n        /* \"#utility.yul\":4098:4102   */\n      0x1f\n        /* \"#utility.yul\":4090:4096   */\n      dup4\n        /* \"#utility.yul\":4086:4103   */\n      add\n        /* \"#utility.yul\":4082:4109   */\n      slt\n        /* \"#utility.yul\":4072:4194   */\n      tag_147\n      jumpi\n        /* \"#utility.yul\":4113:4192   */\n      tag_148\n      tag_66\n      jump\t// in\n    tag_148:\n        /* \"#utility.yul\":4072:4194   */\n    tag_147:\n        /* \"#utility.yul\":4230:4236   */\n      dup2\n        /* \"#utility.yul\":4217:4237   */\n      calldataload\n        /* \"#utility.yul\":4255:4358   */\n      tag_149\n        /* \"#utility.yul\":4354:4357   */\n      dup5\n        /* \"#utility.yul\":4346:4352   */\n      dup3\n        /* \"#utility.yul\":4339:4343   */\n      0x20\n        /* \"#utility.yul\":4331:4337   */\n      dup7\n        /* \"#utility.yul\":4327:4344   */\n      add\n        /* \"#utility.yul\":4255:4358   */\n      tag_77\n      jump\t// in\n    tag_149:\n        /* \"#utility.yul\":4246:4358   */\n      swap2\n      pop\n        /* \"#utility.yul\":4062:4364   */\n      pop\n        /* \"#utility.yul\":3976:4364   */\n      swap3\n      swap2\n      pop\n      pop\n      jump\t// out\n        /* \"#utility.yul\":4370:4927   */\n    tag_8:\n        /* \"#utility.yul\":4463:4469   */\n      0x00\n        /* \"#utility.yul\":4512:4514   */\n      0x20\n        /* \"#utility.yul\":4500:4509   */\n      dup3\n        /* \"#utility.yul\":4491:4498   */\n      dup5\n        /* \"#utility.yul\":4487:4510   */\n      sub\n        /* \"#utility.yul\":4483:4515   */\n      slt\n        /* \"#utility.yul\":4480:4599   */\n      iszero\n      tag_151\n      jumpi\n        /* \"#utility.yul\":4518:4597   */\n      tag_152\n      tag_64\n      jump\t// in\n    tag_152:\n        /* \"#utility.yul\":4480:4599   */\n    tag_151:\n        /* \"#utility.yul\":4666:4667   */\n      0x00\n        /* \"#utility.yul\":4655:4664   */\n      dup3\n        /* \"#utility.yul\":4651:4668   */\n      add\n        /* \"#utility.yul\":4638:4669   */\n      calldataload\n        /* \"#utility.yul\":4696:4714   */\n      0xffffffffffffffff\n        /* \"#utility.yul\":4688:4694   */\n      dup2\n        /* \"#utility.yul\":4685:4715   */\n      gt\n        /* \"#utility.yul\":4682:4799   */\n      iszero\n      tag_153\n      jumpi\n        /* \"#utility.yul\":4718:4797   */\n      tag_154\n      tag_65\n      jump\t// in\n    tag_154:\n        /* \"#utility.yul\":4682:4799   */\n    tag_153:\n        /* \"#utility.yul\":4823:4910   */\n      tag_155\n        /* \"#utility.yul\":4902:4909   */\n      dup5\n        /* \"#utility.yul\":4893:4899   */\n      dup3\n        /* \"#utility.yul\":4882:4891   */\n      dup6\n        /* \"#utility.yul\":4878:4900   */\n      add\n        /* \"#utility.yul\":4823:4910   */\n      tag_78\n      jump\t// in\n    tag_155:\n        /* \"#utility.yul\":4813:4910   */\n      swap2\n      pop\n        /* \"#utility.yul\":4609:4920   */\n      pop\n        /* \"#utility.yul\":4370:4927   */\n      swap3\n      swap2\n      pop\n      pop\n      jump\t// out\n        /* \"#utility.yul\":4933:5056   */\n    tag_79:\n        /* \"#utility.yul\":5009:5015   */\n      0x00\n        /* \"#utility.yul\":5043:5048   */\n      dup2\n        /* \"#utility.yul\":5037:5049   */\n      mload\n        /* \"#utility.yul\":5027:5049   */\n      swap1\n      pop\n        /* \"#utility.yul\":4933:5056   */\n      swap2\n      swap1\n      pop\n      jump\t// out\n        /* \"#utility.yul\":5062:5255   */\n    tag_80:\n        /* \"#utility.yul\":5170:5181   */\n      0x00\n        /* \"#utility.yul\":5204:5210   */\n      dup3\n        /* \"#utility.yul\":5199:5202   */\n      dup3\n        /* \"#utility.yul\":5192:5211   */\n      mstore\n        /* \"#utility.yul\":5244:5248   */\n      0x20\n        /* \"#utility.yul\":5239:5242   */\n      dup3\n        /* \"#utility.yul\":5235:5249   */\n      add\n        /* \"#utility.yul\":5220:5249   */\n      swap1\n      pop\n        /* \"#utility.yul\":5062:5255   */\n      swap3\n      swap2\n      pop\n      pop\n      jump\t// out\n        /* \"#utility.yul\":5261:5402   */\n    tag_81:\n        /* \"#utility.yul\":5337:5341   */\n      0x00\n        /* \"#utility.yul\":5360:5363   */\n      dup2\n        /* \"#utility.yul\":5352:5363   */\n      swap1\n      pop\n        /* \"#utility.yul\":5390:5394   */\n      0x20\n        /* \"#utility.yul\":5385:5388   */\n      dup3\n        /* \"#utility.yul\":5381:5395   */\n      add\n        /* \"#utility.yul\":5373:5395   */\n      swap1\n      pop\n        /* \"#utility.yul\":5261:5402   */\n      swap2\n      swap1\n      pop\n      jump\t// out\n        /* \"#utility.yul\":5408:5506   */\n    tag_82:\n        /* \"#utility.yul\":5459:5465   */\n      0x00\n        /* \"#utility.yul\":5493:5498   */\n      dup2\n        /* \"#utility.yul\":5487:5499   */\n      mload\n        /* \"#utility.yul\":5477:5499   */\n      swap1\n      pop\n        /* \"#utility.yul\":5408:5506   */\n      swap2\n      swap1\n      pop\n      jump\t// out\n        /* \"#utility.yul\":5512:5670   */\n    tag_83:\n        /* \"#utility.yul\":5585:5596   */\n      0x00\n        /* \"#utility.yul\":5619:5625   */\n      dup3\n        /* \"#utility.yul\":5614:5617   */\n      dup3\n        /* \"#utility.yul\":5607:5626   */\n      mstore\n        /* \"#utility.yul\":5659:5663   */\n      0x20\n        /* \"#utility.yul\":5654:5657   */\n      dup3\n        /* \"#utility.yul\":5650:5664   */\n      add\n        /* \"#utility.yul\":5635:5664   */\n      swap1\n      pop\n        /* \"#utility.yul\":5512:5670   */\n      swap3\n      swap2\n      pop\n      pop\n      jump\t// out\n        /* \"#utility.yul\":5676:5815   */\n    tag_84:\n        /* \"#utility.yul\":5765:5771   */\n      dup3\n        /* \"#utility.yul\":5760:5763   */\n      dup2\n        /* \"#utility.yul\":5755:5758   */\n      dup4\n        /* \"#utility.yul\":5749:5772   */\n      mcopy\n        /* \"#utility.yul\":5806:5807   */\n      0x00\n        /* \"#utility.yul\":5797:5803   */\n      dup4\n        /* \"#utility.yul\":5792:5795   */\n      dup4\n        /* \"#utility.yul\":5788:5804   */\n      add\n        /* \"#utility.yul\":5781:5808   */\n      mstore\n        /* \"#utility.yul\":5676:5815   */\n      pop\n      pop\n      pop\n      jump\t// out\n        /* \"#utility.yul\":5821:6174   */\n    tag_85:\n        /* \"#utility.yul\":5897:5900   */\n      0x00\n        /* \"#utility.yul\":5925:5963   */\n      tag_163\n        /* \"#utility.yul\":5957:5962   */\n      dup3\n        /* \"#utility.yul\":5925:5963   */\n      tag_82\n      jump\t// in\n    tag_163:\n        /* \"#utility.yul\":5979:6039   */\n      tag_164\n        /* \"#utility.yul\":6032:6038   */\n      dup2\n        /* \"#utility.yul\":6027:6030   */\n      dup6\n        /* \"#utility.yul\":5979:6039   */\n      tag_83\n      jump\t// in\n    tag_164:\n        /* \"#utility.yul\":5972:6039   */\n      swap4\n      pop\n        /* \"#utility.yul\":6048:6113   */\n      tag_165\n        /* \"#utility.yul\":6106:6112   */\n      dup2\n        /* \"#utility.yul\":6101:6104   */\n      dup6\n        /* \"#utility.yul\":6094:6098   */\n      0x20\n        /* \"#utility.yul\":6087:6092   */\n      dup7\n        /* \"#utility.yul\":6083:6099   */\n      add\n        /* \"#utility.yul\":6048:6113   */\n      tag_84\n      jump\t// in\n    tag_165:\n        /* \"#utility.yul\":6138:6167   */\n      tag_166\n        /* \"#utility.yul\":6160:6166   */\n      dup2\n        /* \"#utility.yul\":6138:6167   */\n      tag_67\n      jump\t// in\n    tag_166:\n        /* \"#utility.yul\":6133:6136   */\n      dup5\n        /* \"#utility.yul\":6129:6168   */\n      add\n        /* \"#utility.yul\":6122:6168   */\n      swap2\n      pop\n        /* \"#utility.yul\":5901:6174   */\n      pop\n        /* \"#utility.yul\":5821:6174   */\n      swap3\n      swap2\n      pop\n      pop\n      jump\t// out\n        /* \"#utility.yul\":6180:6372   */\n    tag_86:\n        /* \"#utility.yul\":6267:6277   */\n      0x00\n        /* \"#utility.yul\":6302:6366   */\n      tag_168\n        /* \"#utility.yul\":6362:6365   */\n      dup4\n        /* \"#utility.yul\":6354:6360   */\n      dup4\n        /* \"#utility.yul\":6302:6366   */\n      tag_85\n      jump\t// in\n    tag_168:\n        /* \"#utility.yul\":6288:6366   */\n      swap1\n      pop\n        /* \"#utility.yul\":6180:6372   */\n      swap3\n      swap2\n      pop\n      pop\n      jump\t// out\n        /* \"#utility.yul\":6378:6500   */\n    tag_87:\n        /* \"#utility.yul\":6457:6461   */\n      0x00\n        /* \"#utility.yul\":6489:6493   */\n      0x20\n        /* \"#utility.yul\":6484:6487   */\n      dup3\n        /* \"#utility.yul\":6480:6494   */\n      add\n        /* \"#utility.yul\":6472:6494   */\n      swap1\n      pop\n        /* \"#utility.yul\":6378:6500   */\n      swap2\n      swap1\n      pop\n      jump\t// out\n        /* \"#utility.yul\":6532:7515   */\n    tag_88:\n        /* \"#utility.yul\":6669:6672   */\n      0x00\n        /* \"#utility.yul\":6698:6761   */\n      tag_171\n        /* \"#utility.yul\":6755:6760   */\n      dup3\n        /* \"#utility.yul\":6698:6761   */\n      tag_79\n      jump\t// in\n    tag_171:\n        /* \"#utility.yul\":6777:6872   */\n      tag_172\n        /* \"#utility.yul\":6865:6871   */\n      dup2\n        /* \"#utility.yul\":6860:6863   */\n      dup6\n        /* \"#utility.yul\":6777:6872   */\n      tag_80\n      jump\t// in\n    tag_172:\n        /* \"#utility.yul\":6770:6872   */\n      swap4\n      pop\n        /* \"#utility.yul\":6898:6901   */\n      dup4\n        /* \"#utility.yul\":6943:6947   */\n      0x20\n        /* \"#utility.yul\":6935:6941   */\n      dup3\n        /* \"#utility.yul\":6931:6948   */\n      mul\n        /* \"#utility.yul\":6926:6929   */\n      dup6\n        /* \"#utility.yul\":6922:6949   */\n      add\n        /* \"#utility.yul\":6973:7038   */\n      tag_173\n        /* \"#utility.yul\":7032:7037   */\n      dup6\n        /* \"#utility.yul\":6973:7038   */\n      tag_81\n      jump\t// in\n    tag_173:\n        /* \"#utility.yul\":7061:7068   */\n      dup1\n        /* \"#utility.yul\":7092:7093   */\n      0x00\n        /* \"#utility.yul\":7077:7470   */\n    tag_174:\n        /* \"#utility.yul\":7102:7108   */\n      dup6\n        /* \"#utility.yul\":7099:7100   */\n      dup2\n        /* \"#utility.yul\":7096:7109   */\n      lt\n        /* \"#utility.yul\":7077:7470   */\n      iszero\n      tag_176\n      jumpi\n        /* \"#utility.yul\":7173:7182   */\n      dup5\n        /* \"#utility.yul\":7167:7171   */\n      dup5\n        /* \"#utility.yul\":7163:7183   */\n      sub\n        /* \"#utility.yul\":7158:7161   */\n      dup10\n        /* \"#utility.yul\":7151:7184   */\n      mstore\n        /* \"#utility.yul\":7224:7230   */\n      dup2\n        /* \"#utility.yul\":7218:7231   */\n      mload\n        /* \"#utility.yul\":7252:7334   */\n      tag_177\n        /* \"#utility.yul\":7329:7333   */\n      dup6\n        /* \"#utility.yul\":7314:7327   */\n      dup3\n        /* \"#utility.yul\":7252:7334   */\n      tag_86\n      jump\t// in\n    tag_177:\n        /* \"#utility.yul\":7244:7334   */\n      swap5\n      pop\n        /* \"#utility.yul\":7357:7426   */\n      tag_178\n        /* \"#utility.yul\":7419:7425   */\n      dup4\n        /* \"#utility.yul\":7357:7426   */\n      tag_87\n      jump\t// in\n    tag_178:\n        /* \"#utility.yul\":7347:7426   */\n      swap3\n      pop\n        /* \"#utility.yul\":7455:7459   */\n      0x20\n        /* \"#utility.yul\":7450:7453   */\n      dup11\n        /* \"#utility.yul\":7446:7460   */\n      add\n        /* \"#utility.yul\":7439:7460   */\n      swap10\n      pop\n        /* \"#utility.yul\":7137:7470   */\n      pop\n        /* \"#utility.yul\":7124:7125   */\n      0x01\n        /* \"#utility.yul\":7121:7122   */\n      dup2\n        /* \"#utility.yul\":7117:7126   */\n      add\n        /* \"#utility.yul\":7112:7126   */\n      swap1\n      pop\n        /* \"#utility.yul\":7077:7470   */\n      jump(tag_174)\n    tag_176:\n        /* \"#utility.yul\":7081:7095   */\n      pop\n        /* \"#utility.yul\":7486:7490   */\n      dup3\n        /* \"#utility.yul\":7479:7490   */\n      swap8\n      pop\n        /* \"#utility.yul\":7506:7509   */\n      dup8\n        /* \"#utility.yul\":7499:7509   */\n      swap6\n      pop\n        /* \"#utility.yul\":6674:7515   */\n      pop\n      pop\n      pop\n      pop\n      pop\n        /* \"#utility.yul\":6532:7515   */\n      swap3\n      swap2\n      pop\n      pop\n      jump\t// out\n        /* \"#utility.yul\":7521:7930   */\n    tag_11:\n        /* \"#utility.yul\":7682:7686   */\n      0x00\n        /* \"#utility.yul\":7720:7722   */\n      0x20\n        /* \"#utility.yul\":7709:7718   */\n      dup3\n        /* \"#utility.yul\":7705:7723   */\n      add\n        /* \"#utility.yul\":7697:7723   */\n      swap1\n      pop\n        /* \"#utility.yul\":7769:7778   */\n      dup2\n        /* \"#utility.yul\":7763:7767   */\n      dup2\n        /* \"#utility.yul\":7759:7779   */\n      sub\n        /* \"#utility.yul\":7755:7756   */\n      0x00\n        /* \"#utility.yul\":7744:7753   */\n      dup4\n        /* \"#utility.yul\":7740:7757   */\n      add\n        /* \"#utility.yul\":7733:7780   */\n      mstore\n        /* \"#utility.yul\":7797:7923   */\n      tag_180\n        /* \"#utility.yul\":7918:7922   */\n      dup2\n        /* \"#utility.yul\":7909:7915   */\n      dup5\n        /* \"#utility.yul\":7797:7923   */\n      tag_88\n      jump\t// in\n    tag_180:\n        /* \"#utility.yul\":7789:7923   */\n      swap1\n      pop\n        /* \"#utility.yul\":7521:7930   */\n      swap3\n      swap2\n      pop\n      pop\n      jump\t// out\n        /* \"#utility.yul\":7936:8013   */\n    tag_89:\n        /* \"#utility.yul\":7973:7980   */\n      0x00\n        /* \"#utility.yul\":8002:8007   */\n      dup2\n        /* \"#utility.yul\":7991:8007   */\n      swap1\n      pop\n        /* \"#utility.yul\":7936:8013   */\n      swap2\n      swap1\n      pop\n      jump\t// out\n        /* \"#utility.yul\":8019:8141   */\n    tag_90:\n        /* \"#utility.yul\":8092:8116   */\n      tag_183\n        /* \"#utility.yul\":8110:8115   */\n      dup2\n        /* \"#utility.yul\":8092:8116   */\n      tag_89\n      jump\t// in\n    tag_183:\n        /* \"#utility.yul\":8085:8090   */\n      dup2\n        /* \"#utility.yul\":8082:8117   */\n      eq\n        /* \"#utility.yul\":8072:8135   */\n      tag_184\n      jumpi\n        /* \"#utility.yul\":8131:8132   */\n      0x00\n        /* \"#utility.yul\":8128:8129   */\n      dup1\n        /* \"#utility.yul\":8121:8133   */\n      revert\n        /* \"#utility.yul\":8072:8135   */\n    tag_184:\n        /* \"#utility.yul\":8019:8141   */\n      pop\n      jump\t// out\n        /* \"#utility.yul\":8147:8286   */\n    tag_91:\n        /* \"#utility.yul\":8193:8198   */\n      0x00\n        /* \"#utility.yul\":8231:8237   */\n      dup2\n        /* \"#utility.yul\":8218:8238   */\n      calldataload\n        /* \"#utility.yul\":8209:8238   */\n      swap1\n      pop\n        /* \"#utility.yul\":8247:8280   */\n      tag_186\n        /* \"#utility.yul\":8274:8279   */\n      dup2\n        /* \"#utility.yul\":8247:8280   */\n      tag_90\n      jump\t// in\n    tag_186:\n        /* \"#utility.yul\":8147:8286   */\n      swap3\n      swap2\n      pop\n      pop\n      jump\t// out\n        /* \"#utility.yul\":8292:8621   */\n    tag_15:\n        /* \"#utility.yul\":8351:8357   */\n      0x00\n        /* \"#utility.yul\":8400:8402   */\n      0x20\n        /* \"#utility.yul\":8388:8397   */\n      dup3\n        /* \"#utility.yul\":8379:8386   */\n      dup5\n        /* \"#utility.yul\":8375:8398   */\n      sub\n        /* \"#utility.yul\":8371:8403   */\n      slt\n        /* \"#utility.yul\":8368:8487   */\n      iszero\n      tag_188\n      jumpi\n        /* \"#utility.yul\":8406:8485   */\n      tag_189\n      tag_64\n      jump\t// in\n    tag_189:\n        /* \"#utility.yul\":8368:8487   */\n    tag_188:\n        /* \"#utility.yul\":8526:8527   */\n      0x00\n        /* \"#utility.yul\":8551:8604   */\n      tag_190\n        /* \"#utility.yul\":8596:8603   */\n      dup5\n        /* \"#utility.yul\":8587:8593   */\n      dup3\n        /* \"#utility.yul\":8576:8585   */\n      dup6\n        /* \"#utility.yul\":8572:8594   */\n      add\n        /* \"#utility.yul\":8551:8604   */\n      tag_91\n      jump\t// in\n    tag_190:\n        /* \"#utility.yul\":8541:8604   */\n      swap2\n      pop\n        /* \"#utility.yul\":8497:8614   */\n      pop\n        /* \"#utility.yul\":8292:8621   */\n      swap3\n      swap2\n      pop\n      pop\n      jump\t// out\n        /* \"#utility.yul\":8627:8745   */\n    tag_92:\n        /* \"#utility.yul\":8714:8738   */\n      tag_192\n        /* \"#utility.yul\":8732:8737   */\n      dup2\n        /* \"#utility.yul\":8714:8738   */\n      tag_89\n      jump\t// in\n    tag_192:\n        /* \"#utility.yul\":8709:8712   */\n      dup3\n        /* \"#utility.yul\":8702:8739   */\n      mstore\n        /* \"#utility.yul\":8627:8745   */\n      pop\n      pop\n      jump\t// out\n        /* \"#utility.yul\":8751:8973   */\n    tag_21:\n        /* \"#utility.yul\":8844:8848   */\n      0x00\n        /* \"#utility.yul\":8882:8884   */\n      0x20\n        /* \"#utility.yul\":8871:8880   */\n      dup3\n        /* \"#utility.yul\":8867:8885   */\n      add\n        /* \"#utility.yul\":8859:8885   */\n      swap1\n      pop\n        /* \"#utility.yul\":8895:8966   */\n      tag_194\n        /* \"#utility.yul\":8963:8964   */\n      0x00\n        /* \"#utility.yul\":8952:8961   */\n      dup4\n        /* \"#utility.yul\":8948:8965   */\n      add\n        /* \"#utility.yul\":8939:8945   */\n      dup5\n        /* \"#utility.yul\":8895:8966   */\n      tag_92\n      jump\t// in\n    tag_194:\n        /* \"#utility.yul\":8751:8973   */\n      swap3\n      swap2\n      pop\n      pop\n      jump\t// out\n        /* \"#utility.yul\":8979:9159   */\n    tag_36:\n        /* \"#utility.yul\":9027:9104   */\n      0x4e487b7100000000000000000000000000000000000000000000000000000000\n        /* \"#utility.yul\":9024:9025   */\n      0x00\n        /* \"#utility.yul\":9017:9105   */\n      mstore\n        /* \"#utility.yul\":9124:9128   */\n      0x32\n        /* \"#utility.yul\":9121:9122   */\n      0x04\n        /* \"#utility.yul\":9114:9129   */\n      mstore\n        /* \"#utility.yul\":9148:9152   */\n      0x24\n        /* \"#utility.yul\":9145:9146   */\n      0x00\n        /* \"#utility.yul\":9138:9153   */\n      revert\n        /* \"#utility.yul\":9165:9312   */\n    tag_93:\n        /* \"#utility.yul\":9266:9277   */\n      0x00\n        /* \"#utility.yul\":9303:9306   */\n      dup2\n        /* \"#utility.yul\":9288:9306   */\n      swap1\n      pop\n        /* \"#utility.yul\":9165:9312   */\n      swap3\n      swap2\n      pop\n      pop\n      jump\t// out\n        /* \"#utility.yul\":9318:9704   */\n    tag_94:\n        /* \"#utility.yul\":9422:9425   */\n      0x00\n        /* \"#utility.yul\":9450:9488   */\n      tag_198\n        /* \"#utility.yul\":9482:9487   */\n      dup3\n        /* \"#utility.yul\":9450:9488   */\n      tag_82\n      jump\t// in\n    tag_198:\n        /* \"#utility.yul\":9504:9592   */\n      tag_199\n        /* \"#utility.yul\":9585:9591   */\n      dup2\n        /* \"#utility.yul\":9580:9583   */\n      dup6\n        /* \"#utility.yul\":9504:9592   */\n      tag_93\n      jump\t// in\n    tag_199:\n        /* \"#utility.yul\":9497:9592   */\n      swap4\n      pop\n        /* \"#utility.yul\":9601:9666   */\n      tag_200\n        /* \"#utility.yul\":9659:9665   */\n      dup2\n        /* \"#utility.yul\":9654:9657   */\n      dup6\n        /* \"#utility.yul\":9647:9651   */\n      0x20\n        /* \"#utility.yul\":9640:9645   */\n      dup7\n        /* \"#utility.yul\":9636:9652   */\n      add\n        /* \"#utility.yul\":9601:9666   */\n      tag_84\n      jump\t// in\n    tag_200:\n        /* \"#utility.yul\":9691:9697   */\n      dup1\n        /* \"#utility.yul\":9686:9689   */\n      dup5\n        /* \"#utility.yul\":9682:9698   */\n      add\n        /* \"#utility.yul\":9675:9698   */\n      swap2\n      pop\n        /* \"#utility.yul\":9426:9704   */\n      pop\n        /* \"#utility.yul\":9318:9704   */\n      swap3\n      swap2\n      pop\n      pop\n      jump\t// out\n        /* \"#utility.yul\":9710:9981   */\n    tag_38:\n        /* \"#utility.yul\":9840:9843   */\n      0x00\n        /* \"#utility.yul\":9862:9955   */\n      tag_202\n        /* \"#utility.yul\":9951:9954   */\n      dup3\n        /* \"#utility.yul\":9942:9948   */\n      dup5\n        /* \"#utility.yul\":9862:9955   */\n      tag_94\n      jump\t// in\n    tag_202:\n        /* \"#utility.yul\":9855:9955   */\n      swap2\n      pop\n        /* \"#utility.yul\":9972:9975   */\n      dup2\n        /* \"#utility.yul\":9965:9975   */\n      swap1\n      pop\n        /* \"#utility.yul\":9710:9981   */\n      swap3\n      swap2\n      pop\n      pop\n      jump\t// out\n        /* \"#utility.yul\":9987:10086   */\n    tag_95:\n        /* \"#utility.yul\":10039:10045   */\n      0x00\n        /* \"#utility.yul\":10073:10078   */\n      dup2\n        /* \"#utility.yul\":10067:10079   */\n      mload\n        /* \"#utility.yul\":10057:10079   */\n      swap1\n      pop\n        /* \"#utility.yul\":9987:10086   */\n      swap2\n      swap1\n      pop\n      jump\t// out\n        /* \"#utility.yul\":10092:10261   */\n    tag_96:\n        /* \"#utility.yul\":10176:10187   */\n      0x00\n        /* \"#utility.yul\":10210:10216   */\n      dup3\n        /* \"#utility.yul\":10205:10208   */\n      dup3\n        /* \"#utility.yul\":10198:10217   */\n      mstore\n        /* \"#utility.yul\":10250:10254   */\n      0x20\n        /* \"#utility.yul\":10245:10248   */\n      dup3\n        /* \"#utility.yul\":10241:10255   */\n      add\n        /* \"#utility.yul\":10226:10255   */\n      swap1\n      pop\n        /* \"#utility.yul\":10092:10261   */\n      swap3\n      swap2\n      pop\n      pop\n      jump\t// out\n        /* \"#utility.yul\":10267:10644   */\n    tag_97:\n        /* \"#utility.yul\":10355:10358   */\n      0x00\n        /* \"#utility.yul\":10383:10422   */\n      tag_206\n        /* \"#utility.yul\":10416:10421   */\n      dup3\n        /* \"#utility.yul\":10383:10422   */\n      tag_95\n      jump\t// in\n    tag_206:\n        /* \"#utility.yul\":10438:10509   */\n      tag_207\n        /* \"#utility.yul\":10502:10508   */\n      dup2\n        /* \"#utility.yul\":10497:10500   */\n      dup6\n        /* \"#utility.yul\":10438:10509   */\n      tag_96\n      jump\t// in\n    tag_207:\n        /* \"#utility.yul\":10431:10509   */\n      swap4\n      pop\n        /* \"#utility.yul\":10518:10583   */\n      tag_208\n        /* \"#utility.yul\":10576:10582   */\n      dup2\n        /* \"#utility.yul\":10571:10574   */\n      dup6\n        /* \"#utility.yul\":10564:10568   */\n      0x20\n        /* \"#utility.yul\":10557:10562   */\n      dup7\n        /* \"#utility.yul\":10553:10569   */\n      add\n        /* \"#utility.yul\":10518:10583   */\n      tag_84\n      jump\t// in\n    tag_208:\n        /* \"#utility.yul\":10608:10637   */\n      tag_209\n        /* \"#utility.yul\":10630:10636   */\n      dup2\n        /* \"#utility.yul\":10608:10637   */\n      tag_67\n      jump\t// in\n    tag_209:\n        /* \"#utility.yul\":10603:10606   */\n      dup5\n        /* \"#utility.yul\":10599:10638   */\n      add\n        /* \"#utility.yul\":10592:10638   */\n      swap2\n      pop\n        /* \"#utility.yul\":10359:10644   */\n      pop\n        /* \"#utility.yul\":10267:10644   */\n      swap3\n      swap2\n      pop\n      pop\n      jump\t// out\n        /* \"#utility.yul\":10650:10963   */\n    tag_46:\n        /* \"#utility.yul\":10763:10767   */\n      0x00\n        /* \"#utility.yul\":10801:10803   */\n      0x20\n        /* \"#utility.yul\":10790:10799   */\n      dup3\n        /* \"#utility.yul\":10786:10804   */\n      add\n        /* \"#utility.yul\":10778:10804   */\n      swap1\n      pop\n        /* \"#utility.yul\":10850:10859   */\n      dup2\n        /* \"#utility.yul\":10844:10848   */\n      dup2\n        /* \"#utility.yul\":10840:10860   */\n      sub\n        /* \"#utility.yul\":10836:10837   */\n      0x00\n        /* \"#utility.yul\":10825:10834   */\n      dup4\n        /* \"#utility.yul\":10821:10838   */\n      add\n        /* \"#utility.yul\":10814:10861   */\n      mstore\n        /* \"#utility.yul\":10878:10956   */\n      tag_211\n        /* \"#utility.yul\":10951:10955   */\n      dup2\n        /* \"#utility.yul\":10942:10948   */\n      dup5\n        /* \"#utility.yul\":10878:10956   */\n      tag_97\n      jump\t// in\n    tag_211:\n        /* \"#utility.yul\":10870:10956   */\n      swap1\n      pop\n        /* \"#utility.yul\":10650:10963   */\n      swap3\n      swap2\n      pop\n      pop\n      jump\t// out\n        /* \"#utility.yul\":10969:11277   */\n    tag_98:\n        /* \"#utility.yul\":11031:11035   */\n      0x00\n        /* \"#utility.yul\":11121:11139   */\n      0xffffffffffffffff\n        /* \"#utility.yul\":11113:11119   */\n      dup3\n        /* \"#utility.yul\":11110:11140   */\n      gt\n        /* \"#utility.yul\":11107:11163   */\n      iszero\n      tag_213\n      jumpi\n        /* \"#utility.yul\":11143:11161   */\n      tag_214\n      tag_28\n      jump\t// in\n    tag_214:\n        /* \"#utility.yul\":11107:11163   */\n    tag_213:\n        /* \"#utility.yul\":11181:11210   */\n      tag_215\n        /* \"#utility.yul\":11203:11209   */\n      dup3\n        /* \"#utility.yul\":11181:11210   */\n      tag_67\n      jump\t// in\n    tag_215:\n        /* \"#utility.yul\":11173:11210   */\n      swap1\n      pop\n        /* \"#utility.yul\":11265:11269   */\n      0x20\n        /* \"#utility.yul\":11259:11263   */\n      dup2\n        /* \"#utility.yul\":11255:11270   */\n      add\n        /* \"#utility.yul\":11247:11270   */\n      swap1\n      pop\n        /* \"#utility.yul\":10969:11277   */\n      swap2\n      swap1\n      pop\n      jump\t// out\n        /* \"#utility.yul\":11283:11717   */\n    tag_99:\n        /* \"#utility.yul\":11372:11377   */\n      0x00\n        /* \"#utility.yul\":11397:11463   */\n      tag_217\n        /* \"#utility.yul\":11413:11462   */\n      tag_218\n        /* \"#utility.yul\":11455:11461   */\n      dup5\n        /* \"#utility.yul\":11413:11462   */\n      tag_98\n      jump\t// in\n    tag_218:\n        /* \"#utility.yul\":11397:11463   */\n      tag_69\n      jump\t// in\n    tag_217:\n        /* \"#utility.yul\":11388:11463   */\n      swap1\n      pop\n        /* \"#utility.yul\":11486:11492   */\n      dup3\n        /* \"#utility.yul\":11479:11484   */\n      dup2\n        /* \"#utility.yul\":11472:11493   */\n      mstore\n        /* \"#utility.yul\":11524:11528   */\n      0x20\n        /* \"#utility.yul\":11517:11522   */\n      dup2\n        /* \"#utility.yul\":11513:11529   */\n      add\n        /* \"#utility.yul\":11562:11565   */\n      dup5\n        /* \"#utility.yul\":11553:11559   */\n      dup5\n        /* \"#utility.yul\":11548:11551   */\n      dup5\n        /* \"#utility.yul\":11544:11560   */\n      add\n        /* \"#utility.yul\":11541:11566   */\n      gt\n        /* \"#utility.yul\":11538:11650   */\n      iszero\n      tag_219\n      jumpi\n        /* \"#utility.yul\":11569:11648   */\n      tag_220\n      tag_72\n      jump\t// in\n    tag_220:\n        /* \"#utility.yul\":11538:11650   */\n    tag_219:\n        /* \"#utility.yul\":11659:11711   */\n      tag_221\n        /* \"#utility.yul\":11704:11710   */\n      dup5\n        /* \"#utility.yul\":11699:11702   */\n      dup3\n        /* \"#utility.yul\":11694:11697   */\n      dup6\n        /* \"#utility.yul\":11659:11711   */\n      tag_84\n      jump\t// in\n    tag_221:\n        /* \"#utility.yul\":11378:11717   */\n      pop\n        /* \"#utility.yul\":11283:11717   */\n      swap4\n      swap3\n      pop\n      pop\n      pop\n      jump\t// out\n        /* \"#utility.yul\":11737:12092   */\n    tag_100:\n        /* \"#utility.yul\":11804:11809   */\n      0x00\n        /* \"#utility.yul\":11853:11856   */\n      dup3\n        /* \"#utility.yul\":11846:11850   */\n      0x1f\n        /* \"#utility.yul\":11838:11844   */\n      dup4\n        /* \"#utility.yul\":11834:11851   */\n      add\n        /* \"#utility.yul\":11830:11857   */\n      slt\n        /* \"#utility.yul\":11820:11942   */\n      tag_223\n      jumpi\n        /* \"#utility.yul\":11861:11940   */\n      tag_224\n      tag_66\n      jump\t// in\n    tag_224:\n        /* \"#utility.yul\":11820:11942   */\n    tag_223:\n        /* \"#utility.yul\":11971:11977   */\n      dup2\n        /* \"#utility.yul\":11965:11978   */\n      mload\n        /* \"#utility.yul\":11996:12086   */\n      tag_225\n        /* \"#utility.yul\":12082:12085   */\n      dup5\n        /* \"#utility.yul\":12074:12080   */\n      dup3\n        /* \"#utility.yul\":12067:12071   */\n      0x20\n        /* \"#utility.yul\":12059:12065   */\n      dup7\n        /* \"#utility.yul\":12055:12072   */\n      add\n        /* \"#utility.yul\":11996:12086   */\n      tag_99\n      jump\t// in\n    tag_225:\n        /* \"#utility.yul\":11987:12086   */\n      swap2\n      pop\n        /* \"#utility.yul\":11810:12092   */\n      pop\n        /* \"#utility.yul\":11737:12092   */\n      swap3\n      swap2\n      pop\n      pop\n      jump\t// out\n        /* \"#utility.yul\":12098:12622   */\n    tag_62:\n        /* \"#utility.yul\":12178:12184   */\n      0x00\n        /* \"#utility.yul\":12227:12229   */\n      0x20\n        /* \"#utility.yul\":12215:12224   */\n      dup3\n        /* \"#utility.yul\":12206:12213   */\n      dup5\n        /* \"#utility.yul\":12202:12225   */\n      sub\n        /* \"#utility.yul\":12198:12230   */\n      slt\n        /* \"#utility.yul\":12195:12314   */\n      iszero\n      tag_227\n      jumpi\n        /* \"#utility.yul\":12233:12312   */\n      tag_228\n      tag_64\n      jump\t// in\n    tag_228:\n        /* \"#utility.yul\":12195:12314   */\n    tag_227:\n        /* \"#utility.yul\":12374:12375   */\n      0x00\n        /* \"#utility.yul\":12363:12372   */\n      dup3\n        /* \"#utility.yul\":12359:12376   */\n      add\n        /* \"#utility.yul\":12353:12377   */\n      mload\n        /* \"#utility.yul\":12404:12422   */\n      0xffffffffffffffff\n        /* \"#utility.yul\":12396:12402   */\n      dup2\n        /* \"#utility.yul\":12393:12423   */\n      gt\n        /* \"#utility.yul\":12390:12507   */\n      iszero\n      tag_229\n      jumpi\n        /* \"#utility.yul\":12426:12505   */\n      tag_230\n      tag_65\n      jump\t// in\n    tag_230:\n        /* \"#utility.yul\":12390:12507   */\n    tag_229:\n        /* \"#utility.yul\":12531:12605   */\n      tag_231\n        /* \"#utility.yul\":12597:12604   */\n      dup5\n        /* \"#utility.yul\":12588:12594   */\n      dup3\n        /* \"#utility.yul\":12577:12586   */\n      dup6\n        /* \"#utility.yul\":12573:12595   */\n      add\n        /* \"#utility.yul\":12531:12605   */\n      tag_100\n      jump\t// in\n    tag_231:\n        /* \"#utility.yul\":12521:12605   */\n      swap2\n      pop\n        /* \"#utility.yul\":12324:12615   */\n      pop\n        /* \"#utility.yul\":12098:12622   */\n      swap3\n      swap2\n      pop\n      pop\n      jump\t// out\n\n    auxdata: 0xa2646970667358221220336d833c1e5ef33c039e7a8fc0a1af4e9b6e7d98d1049ef642c8fecd97d3ff9e64736f6c634300081a0033\n}\n",
				"bytecode": {
					"linkReferences": {},
					"object": "6080604052348015600e575f80fd5b50610a438061001c5f395ff3fe60806040526004361061003e575f3560e01c80631e897afb1461004257806329e99f07146100725780634e70b1dc1461009a5780636466414b146100c4575b5f80fd5b61005c60048036038101906100579190610631565b6100e0565b6040516100699190610793565b60405180910390f35b34801561007d575f80fd5b50610098600480360381019061009391906107e6565b61023f565b005b3480156100a5575f80fd5b506100ae610389565b6040516100bb9190610820565b60405180910390f35b6100de60048036038101906100d991906107e6565b61038e565b005b6060815167ffffffffffffffff8111156100fd576100fc610427565b5b60405190808252806020026020018201604052801561013057816020015b606081526020019060019003908161011b5790505b5090505f5b8251811015610239575f803073ffffffffffffffffffffffffffffffffffffffff1685848151811061016a57610169610839565b5b602002602001015160405161017f91906108a0565b5f60405180830381855af49150503d805f81146101b7576040519150601f19603f3d011682016040523d82523d5f602084013e6101bc565b606091505b50915091508161020b576101cf81610397565b6040517f08c379a00000000000000000000000000000000000000000000000000000000081526004016102029190610908565b60405180910390fd5b8084848151811061021f5761021e610839565b5b602002602001018190525050508080600101915050610135565b50919050565b5f816040516024016102519190610820565b6040516020818303038152906040527f6466414b000000000000000000000000000000000000000000000000000000007bffffffffffffffffffffffffffffffffffffffffffffffffffffffff19166020820180517bffffffffffffffffffffffffffffffffffffffffffffffffffffffff838183161783525050505090505f803073ffffffffffffffffffffffffffffffffffffffff16836040516102f791906108a0565b5f60405180830381855af49150503d805f811461032f576040519150601f19603f3d011682016040523d82523d5f602084013e610334565b606091505b5091509150816103835761034781610397565b6040517f08c379a000000000000000000000000000000000000000000000000000000000815260040161037a9190610908565b60405180910390fd5b50505050565b5f5481565b805f8190555050565b60606044825110156103e0576040518060400160405280601d81526020017f5472616e73616374696f6e2072657665727465642073696c656e746c7900000081525090506103fd565b600482019150818060200190518101906103fa91906109c6565b90505b919050565b5f604051905090565b5f80fd5b5f80fd5b5f80fd5b5f601f19601f8301169050919050565b7f4e487b71000000000000000000000000000000000000000000000000000000005f52604160045260245ffd5b61045d82610417565b810181811067ffffffffffffffff8211171561047c5761047b610427565b5b80604052505050565b5f61048e610402565b905061049a8282610454565b919050565b5f67ffffffffffffffff8211156104b9576104b8610427565b5b602082029050602081019050919050565b5f80fd5b5f80fd5b5f67ffffffffffffffff8211156104ec576104eb610427565b5b6104f582610417565b9050602081019050919050565b828183375f83830152505050565b5f61052261051d846104d2565b610485565b90508281526020810184848401111561053e5761053d6104ce565b5b610549848285610502565b509392505050565b5f82601f83011261056557610564610413565b5b8135610575848260208601610510565b91505092915050565b5f61059061058b8461049f565b610485565b905080838252602082019050602084028301858111156105b3576105b26104ca565b5b835b818110156105fa57803567ffffffffffffffff8111156105d8576105d7610413565b5b8086016105e58982610551565b855260208501945050506020810190506105b5565b5050509392505050565b5f82601f83011261061857610617610413565b5b813561062884826020860161057e565b91505092915050565b5f602082840312156106465761064561040b565b5b5f82013567ffffffffffffffff8111156106635761066261040f565b5b61066f84828501610604565b91505092915050565b5f81519050919050565b5f82825260208201905092915050565b5f819050602082019050919050565b5f81519050919050565b5f82825260208201905092915050565b8281835e5f83830152505050565b5f6106d3826106a1565b6106dd81856106ab565b93506106ed8185602086016106bb565b6106f681610417565b840191505092915050565b5f61070c83836106c9565b905092915050565b5f602082019050919050565b5f61072a82610678565b6107348185610682565b93508360208202850161074685610692565b805f5b8581101561078157848403895281516107628582610701565b945061076d83610714565b925060208a01995050600181019050610749565b50829750879550505050505092915050565b5f6020820190508181035f8301526107ab8184610720565b905092915050565b5f819050919050565b6107c5816107b3565b81146107cf575f80fd5b50565b5f813590506107e0816107bc565b92915050565b5f602082840312156107fb576107fa61040b565b5b5f610808848285016107d2565b91505092915050565b61081a816107b3565b82525050565b5f6020820190506108335f830184610811565b92915050565b7f4e487b71000000000000000000000000000000000000000000000000000000005f52603260045260245ffd5b5f81905092915050565b5f61087a826106a1565b6108848185610866565b93506108948185602086016106bb565b80840191505092915050565b5f6108ab8284610870565b915081905092915050565b5f81519050919050565b5f82825260208201905092915050565b5f6108da826108b6565b6108e481856108c0565b93506108f48185602086016106bb565b6108fd81610417565b840191505092915050565b5f6020820190508181035f83015261092081846108d0565b905092915050565b5f67ffffffffffffffff82111561094257610941610427565b5b61094b82610417565b9050602081019050919050565b5f61096a61096584610928565b610485565b905082815260208101848484011115610986576109856104ce565b5b6109918482856106bb565b509392505050565b5f82601f8301126109ad576109ac610413565b5b81516109bd848260208601610958565b91505092915050565b5f602082840312156109db576109da61040b565b5b5f82015167ffffffffffffffff8111156109f8576109f761040f565b5b610a0484828501610999565b9150509291505056fea2646970667358221220336d833c1e5ef33c039e7a8fc0a1af4e9b6e7d98d1049ef642c8fecd97d3ff9e64736f6c634300081a0033",
					"opcodes": "PUSH1 0x80 PUSH1 0x40 MSTORE CALLVALUE DUP1 ISZERO PUSH1 0xE JUMPI PUSH0 DUP1 REVERT JUMPDEST POP PUSH2 0xA43 DUP1 PUSH2 0x1C PUSH0 CODECOPY PUSH0 RETURN INVALID PUSH1 0x80 PUSH1 0x40 MSTORE PUSH1 0x4 CALLDATASIZE LT PUSH2 0x3E JUMPI PUSH0 CALLDATALOAD PUSH1 0xE0 SHR DUP1 PUSH4 0x1E897AFB EQ PUSH2 0x42 JUMPI DUP1 PUSH4 0x29E99F07 EQ PUSH2 0x72 JUMPI DUP1 PUSH4 0x4E70B1DC EQ PUSH2 0x9A JUMPI DUP1 PUSH4 0x6466414B EQ PUSH2 0xC4 JUMPI JUMPDEST PUSH0 DUP1 REVERT JUMPDEST PUSH2 0x5C PUSH1 0x4 DUP1 CALLDATASIZE SUB DUP2 ADD SWAP1 PUSH2 0x57 SWAP2 SWAP1 PUSH2 0x631 JUMP JUMPDEST PUSH2 0xE0 JUMP JUMPDEST PUSH1 0x40 MLOAD PUSH2 0x69 SWAP2 SWAP1 PUSH2 0x793 JUMP JUMPDEST PUSH1 0x40 MLOAD DUP1 SWAP2 SUB SWAP1 RETURN JUMPDEST CALLVALUE DUP1 ISZERO PUSH2 0x7D JUMPI PUSH0 DUP1 REVERT JUMPDEST POP PUSH2 0x98 PUSH1 0x4 DUP1 CALLDATASIZE SUB DUP2 ADD SWAP1 PUSH2 0x93 SWAP2 SWAP1 PUSH2 0x7E6 JUMP JUMPDEST PUSH2 0x23F JUMP JUMPDEST STOP JUMPDEST CALLVALUE DUP1 ISZERO PUSH2 0xA5 JUMPI PUSH0 DUP1 REVERT JUMPDEST POP PUSH2 0xAE PUSH2 0x389 JUMP JUMPDEST PUSH1 0x40 MLOAD PUSH2 0xBB SWAP2 SWAP1 PUSH2 0x820 JUMP JUMPDEST PUSH1 0x40 MLOAD DUP1 SWAP2 SUB SWAP1 RETURN JUMPDEST PUSH2 0xDE PUSH1 0x4 DUP1 CALLDATASIZE SUB DUP2 ADD SWAP1 PUSH2 0xD9 SWAP2 SWAP1 PUSH2 0x7E6 JUMP JUMPDEST PUSH2 0x38E JUMP JUMPDEST STOP JUMPDEST PUSH1 0x60 DUP2 MLOAD PUSH8 0xFFFFFFFFFFFFFFFF DUP2 GT ISZERO PUSH2 0xFD JUMPI PUSH2 0xFC PUSH2 0x427 JUMP JUMPDEST JUMPDEST PUSH1 0x40 MLOAD SWAP1 DUP1 DUP3 MSTORE DUP1 PUSH1 0x20 MUL PUSH1 0x20 ADD DUP3 ADD PUSH1 0x40 MSTORE DUP1 ISZERO PUSH2 0x130 JUMPI DUP2 PUSH1 0x20 ADD JUMPDEST PUSH1 0x60 DUP2 MSTORE PUSH1 0x20 ADD SWAP1 PUSH1 0x1 SWAP1 SUB SWAP1 DUP2 PUSH2 0x11B JUMPI SWAP1 POP JUMPDEST POP SWAP1 POP PUSH0 JUMPDEST DUP3 MLOAD DUP2 LT ISZERO PUSH2 0x239 JUMPI PUSH0 DUP1 ADDRESS PUSH20 0xFFFFFFFFFFFFFFFFFFFFFFFFFFFFFFFFFFFFFFFF AND DUP6 DUP5 DUP2 MLOAD DUP2 LT PUSH2 0x16A JUMPI PUSH2 0x169 PUSH2 0x839 JUMP JUMPDEST JUMPDEST PUSH1 0x20 MUL PUSH1 0x20 ADD ADD MLOAD PUSH1 0x40 MLOAD PUSH2 0x17F SWAP2 SWAP1 PUSH2 0x8A0 JUMP JUMPDEST PUSH0 PUSH1 0x40 MLOAD DUP1 DUP4 SUB DUP2 DUP6 GAS DELEGATECALL SWAP2 POP POP RETURNDATASIZE DUP1 PUSH0 DUP2 EQ PUSH2 0x1B7 JUMPI PUSH1 0x40 MLOAD SWAP2 POP PUSH1 0x1F NOT PUSH1 0x3F RETURNDATASIZE ADD AND DUP3 ADD PUSH1 0x40 MSTORE RETURNDATASIZE DUP3 MSTORE RETURNDATASIZE PUSH0 PUSH1 0x20 DUP5 ADD RETURNDATACOPY PUSH2 0x1BC JUMP JUMPDEST PUSH1 0x60 SWAP2 POP JUMPDEST POP SWAP2 POP SWAP2 POP DUP2 PUSH2 0x20B JUMPI PUSH2 0x1CF DUP2 PUSH2 0x397 JUMP JUMPDEST PUSH1 0x40 MLOAD PUSH32 0x8C379A000000000000000000000000000000000000000000000000000000000 DUP2 MSTORE PUSH1 0x4 ADD PUSH2 0x202 SWAP2 SWAP1 PUSH2 0x908 JUMP JUMPDEST PUSH1 0x40 MLOAD DUP1 SWAP2 SUB SWAP1 REVERT JUMPDEST DUP1 DUP5 DUP5 DUP2 MLOAD DUP2 LT PUSH2 0x21F JUMPI PUSH2 0x21E PUSH2 0x839 JUMP JUMPDEST JUMPDEST PUSH1 0x20 MUL PUSH1 0x20 ADD ADD DUP2 SWAP1 MSTORE POP POP POP DUP1 DUP1 PUSH1 0x1 ADD SWAP2 POP POP PUSH2 0x135 JUMP JUMPDEST POP SWAP2 SWAP1 POP JUMP JUMPDEST PUSH0 DUP2 PUSH1 0x40 MLOAD PUSH1 0x24 ADD PUSH2 0x251 SWAP2 SWAP1 PUSH2 0x820 JUMP JUMPDEST PUSH1 0x40 MLOAD PUSH1 0x20 DUP2 DUP4 SUB SUB DUP2 MSTORE SWAP1 PUSH1 0x40 MSTORE PUSH32 0x6466414B00000000000000000000000000000000000000000000000000000000 PUSH28 0xFFFFFFFFFFFFFFFFFFFFFFFFFFFFFFFFFFFFFFFFFFFFFFFFFFFFFFFF NOT AND PUSH1 0x20 DUP3 ADD DUP1 MLOAD PUSH28 0xFFFFFFFFFFFFFFFFFFFFFFFFFFFFFFFFFFFFFFFFFFFFFFFFFFFFFFFF DUP4 DUP2 DUP4 AND OR DUP4 MSTORE POP POP POP POP SWAP1 POP PUSH0 DUP1 ADDRESS PUSH20 0xFFFFFFFFFFFFFFFFFFFFFFFFFFFFFFFFFFFFFFFF AND DUP4 PUSH1 0x40 MLOAD PUSH2 0x2F7 SWAP2 SWAP1 PUSH2 0x8A0 JUMP JUMPDEST PUSH0 PUSH1 0x40 MLOAD DUP1 DUP4 SUB DUP2 DUP6 GAS DELEGATECALL SWAP2 POP POP RETURNDATASIZE DUP1 PUSH0 DUP2 EQ PUSH2 0x32F JUMPI PUSH1 0x40 MLOAD SWAP2 POP PUSH1 0x1F NOT PUSH1 0x3F RETURNDATASIZE ADD AND DUP3 ADD PUSH1 0x40 MSTORE RETURNDATASIZE DUP3 MSTORE RETURNDATASIZE PUSH0 PUSH1 0x20 DUP5 ADD RETURNDATACOPY PUSH2 0x334 JUMP JUMPDEST PUSH1 0x60 SWAP2 POP JUMPDEST POP SWAP2 POP SWAP2 POP DUP2 PUSH2 0x383 JUMPI PUSH2 0x347 DUP2 PUSH2 0x397 JUMP JUMPDEST PUSH1 0x40 MLOAD PUSH32 0x8C379A000000000000000000000000000000000000000000000000000000000 DUP2 MSTORE PUSH1 0x4 ADD PUSH2 0x37A SWAP2 SWAP1 PUSH2 0x908 JUMP JUMPDEST PUSH1 0x40 MLOAD DUP1 SWAP2 SUB SWAP1 REVERT JUMPDEST POP POP POP POP JUMP JUMPDEST PUSH0 SLOAD DUP2 JUMP JUMPDEST DUP1 PUSH0 DUP2 SWAP1 SSTORE POP POP JUMP JUMPDEST PUSH1 0x60 PUSH1 0x44 DUP3 MLOAD LT ISZERO PUSH2 0x3E0 JUMPI PUSH1 0x40 MLOAD DUP1 PUSH1 0x40 ADD PUSH1 0x40 MSTORE DUP1 PUSH1 0x1D DUP2 MSTORE PUSH1 0x20 ADD PUSH32 0x5472616E73616374696F6E2072657665727465642073696C656E746C79000000 DUP2 MSTORE POP SWAP1 POP PUSH2 0x3FD JUMP JUMPDEST PUSH1 0x4 DUP3 ADD SWAP2 POP DUP2 DUP1 PUSH1 0x20 ADD SWAP1 MLOAD DUP2 ADD SWAP1 PUSH2 0x3FA SWAP2 SWAP1 PUSH2 0x9C6 JUMP JUMPDEST SWAP1 POP JUMPDEST SWAP2 SWAP1 POP JUMP JUMPDEST PUSH0 PUSH1 0x40 MLOAD SWAP1 POP SWAP1 JUMP JUMPDEST PUSH0 DUP1 REVERT JUMPDEST PUSH0 DUP1 REVERT JUMPDEST PUSH0 DUP1 REVERT JUMPDEST PUSH0 PUSH1 0x1F NOT PUSH1 0x1F DUP4 ADD AND SWAP1 POP SWAP2 SWAP1 POP JUMP JUMPDEST PUSH32 0x4E487B7100000000000000000000000000000000000000000000000000000000 PUSH0 MSTORE PUSH1 0x41 PUSH1 0x4 MSTORE PUSH1 0x24 PUSH0 REVERT JUMPDEST PUSH2 0x45D DUP3 PUSH2 0x417 JUMP JUMPDEST DUP2 ADD DUP2 DUP2 LT PUSH8 0xFFFFFFFFFFFFFFFF DUP3 GT OR ISZERO PUSH2 0x47C JUMPI PUSH2 0x47B PUSH2 0x427 JUMP JUMPDEST JUMPDEST DUP1 PUSH1 0x40 MSTORE POP POP POP JUMP JUMPDEST PUSH0 PUSH2 0x48E PUSH2 0x402 JUMP JUMPDEST SWAP1 POP PUSH2 0x49A DUP3 DUP3 PUSH2 0x454 JUMP JUMPDEST SWAP2 SWAP1 POP JUMP JUMPDEST PUSH0 PUSH8 0xFFFFFFFFFFFFFFFF DUP3 GT ISZERO PUSH2 0x4B9 JUMPI PUSH2 0x4B8 PUSH2 0x427 JUMP JUMPDEST JUMPDEST PUSH1 0x20 DUP3 MUL SWAP1 POP PUSH1 0x20 DUP2 ADD SWAP1 POP SWAP2 SWAP1 POP JUMP JUMPDEST PUSH0 DUP1 REVERT JUMPDEST PUSH0 DUP1 REVERT JUMPDEST PUSH0 PUSH8 0xFFFFFFFFFFFFFFFF DUP3 GT ISZERO PUSH2 0x4EC JUMPI PUSH2 0x4EB PUSH2 0x427 JUMP JUMPDEST JUMPDEST PUSH2 0x4F5 DUP3 PUSH2 0x417 JUMP JUMPDEST SWAP1 POP PUSH1 0x20 DUP2 ADD SWAP1 POP SWAP2 SWAP1 POP JUMP JUMPDEST DUP3 DUP2 DUP4 CALLDATACOPY PUSH0 DUP4 DUP4 ADD MSTORE POP POP POP JUMP JUMPDEST PUSH0 PUSH2 0x522 PUSH2 0x51D DUP5 PUSH2 0x4D2 JUMP JUMPDEST PUSH2 0x485 JUMP JUMPDEST SWAP1 POP DUP3 DUP2 MSTORE PUSH1 0x20 DUP2 ADD DUP5 DUP5 DUP5 ADD GT ISZERO PUSH2 0x53E JUMPI PUSH2 0x53D PUSH2 0x4CE JUMP JUMPDEST JUMPDEST PUSH2 0x549 DUP5 DUP3 DUP6 PUSH2 0x502 JUMP JUMPDEST POP SWAP4 SWAP3 POP POP POP JUMP JUMPDEST PUSH0 DUP3 PUSH1 0x1F DUP4 ADD SLT PUSH2 0x565 JUMPI PUSH2 0x564 PUSH2 0x413 JUMP JUMPDEST JUMPDEST DUP2 CALLDATALOAD PUSH2 0x575 DUP5 DUP3 PUSH1 0x20 DUP7 ADD PUSH2 0x510 JUMP JUMPDEST SWAP2 POP POP SWAP3 SWAP2 POP POP JUMP JUMPDEST PUSH0 PUSH2 0x590 PUSH2 0x58B DUP5 PUSH2 0x49F JUMP JUMPDEST PUSH2 0x485 JUMP JUMPDEST SWAP1 POP DUP1 DUP4 DUP3 MSTORE PUSH1 0x20 DUP3 ADD SWAP1 POP PUSH1 0x20 DUP5 MUL DUP4 ADD DUP6 DUP2 GT ISZERO PUSH2 0x5B3 JUMPI PUSH2 0x5B2 PUSH2 0x4CA JUMP JUMPDEST JUMPDEST DUP4 JUMPDEST DUP2 DUP2 LT ISZERO PUSH2 0x5FA JUMPI DUP1 CALLDATALOAD PUSH8 0xFFFFFFFFFFFFFFFF DUP2 GT ISZERO PUSH2 0x5D8 JUMPI PUSH2 0x5D7 PUSH2 0x413 JUMP JUMPDEST JUMPDEST DUP1 DUP7 ADD PUSH2 0x5E5 DUP10 DUP3 PUSH2 0x551 JUMP JUMPDEST DUP6 MSTORE PUSH1 0x20 DUP6 ADD SWAP5 POP POP POP PUSH1 0x20 DUP2 ADD SWAP1 POP PUSH2 0x5B5 JUMP JUMPDEST POP POP POP SWAP4 SWAP3 POP POP POP JUMP JUMPDEST PUSH0 DUP3 PUSH1 0x1F DUP4 ADD SLT PUSH2 0x618 JUMPI PUSH2 0x617 PUSH2 0x413 JUMP JUMPDEST JUMPDEST DUP2 CALLDATALOAD PUSH2 0x628 DUP5 DUP3 PUSH1 0x20 DUP7 ADD PUSH2 0x57E JUMP JUMPDEST SWAP2 POP POP SWAP3 SWAP2 POP POP JUMP JUMPDEST PUSH0 PUSH1 0x20 DUP3 DUP5 SUB SLT ISZERO PUSH2 0x646 JUMPI PUSH2 0x645 PUSH2 0x40B JUMP JUMPDEST JUMPDEST PUSH0 DUP3 ADD CALLDATALOAD PUSH8 0xFFFFFFFFFFFFFFFF DUP2 GT ISZERO PUSH2 0x663 JUMPI PUSH2 0x662 PUSH2 0x40F JUMP JUMPDEST JUMPDEST PUSH2 0x66F DUP5 DUP3 DUP6 ADD PUSH2 0x604 JUMP JUMPDEST SWAP2 POP POP SWAP3 SWAP2 POP POP JUMP JUMPDEST PUSH0 DUP2 MLOAD SWAP1 POP SWAP2 SWAP1 POP JUMP JUMPDEST PUSH0 DUP3 DUP3 MSTORE PUSH1 0x20 DUP3 ADD SWAP1 POP SWAP3 SWAP2 POP POP JUMP JUMPDEST PUSH0 DUP2 SWAP1 POP PUSH1 0x20 DUP3 ADD SWAP1 POP SWAP2 SWAP1 POP JUMP JUMPDEST PUSH0 DUP2 MLOAD SWAP1 POP SWAP2 SWAP1 POP JUMP JUMPDEST PUSH0 DUP3 DUP3 MSTORE PUSH1 0x20 DUP3 ADD SWAP1 POP SWAP3 SWAP2 POP POP JUMP JUMPDEST DUP3 DUP2 DUP4 MCOPY PUSH0 DUP4 DUP4 ADD MSTORE POP POP POP JUMP JUMPDEST PUSH0 PUSH2 0x6D3 DUP3 PUSH2 0x6A1 JUMP JUMPDEST PUSH2 0x6DD DUP2 DUP6 PUSH2 0x6AB JUMP JUMPDEST SWAP4 POP PUSH2 0x6ED DUP2 DUP6 PUSH1 0x20 DUP7 ADD PUSH2 0x6BB JUMP JUMPDEST PUSH2 0x6F6 DUP2 PUSH2 0x417 JUMP JUMPDEST DUP5 ADD SWAP2 POP POP SWAP3 SWAP2 POP POP JUMP JUMPDEST PUSH0 PUSH2 0x70C DUP4 DUP4 PUSH2 0x6C9 JUMP JUMPDEST SWAP1 POP SWAP3 SWAP2 POP POP JUMP JUMPDEST PUSH0 PUSH1 0x20 DUP3 ADD SWAP1 POP SWAP2 SWAP1 POP JUMP JUMPDEST PUSH0 PUSH2 0x72A DUP3 PUSH2 0x678 JUMP JUMPDEST PUSH2 0x734 DUP2 DUP6 PUSH2 0x682 JUMP JUMPDEST SWAP4 POP DUP4 PUSH1 0x20 DUP3 MUL DUP6 ADD PUSH2 0x746 DUP6 PUSH2 0x692 JUMP JUMPDEST DUP1 PUSH0 JUMPDEST DUP6 DUP2 LT ISZERO PUSH2 0x781 JUMPI DUP5 DUP5 SUB DUP10 MSTORE DUP2 MLOAD PUSH2 0x762 DUP6 DUP3 PUSH2 0x701 JUMP JUMPDEST SWAP5 POP PUSH2 0x76D DUP4 PUSH2 0x714 JUMP JUMPDEST SWAP3 POP PUSH1 0x20 DUP11 ADD SWAP10 POP POP PUSH1 0x1 DUP2 ADD SWAP1 POP PUSH2 0x749 JUMP JUMPDEST POP DUP3 SWAP8 POP DUP8 SWAP6 POP POP POP POP POP POP SWAP3 SWAP2 POP POP JUMP JUMPDEST PUSH0 PUSH1 0x20 DUP3 ADD SWAP1 POP DUP2 DUP2 SUB PUSH0 DUP4 ADD MSTORE PUSH2 0x7AB DUP2 DUP5 PUSH2 0x720 JUMP JUMPDEST SWAP1 POP SWAP3 SWAP2 POP POP JUMP JUMPDEST PUSH0 DUP2 SWAP1 POP SWAP2 SWAP1 POP JUMP JUMPDEST PUSH2 0x7C5 DUP2 PUSH2 0x7B3 JUMP JUMPDEST DUP2 EQ PUSH2 0x7CF JUMPI PUSH0 DUP1 REVERT JUMPDEST POP JUMP JUMPDEST PUSH0 DUP2 CALLDATALOAD SWAP1 POP PUSH2 0x7E0 DUP2 PUSH2 0x7BC JUMP JUMPDEST SWAP3 SWAP2 POP POP JUMP JUMPDEST PUSH0 PUSH1 0x20 DUP3 DUP5 SUB SLT ISZERO PUSH2 0x7FB JUMPI PUSH2 0x7FA PUSH2 0x40B JUMP JUMPDEST JUMPDEST PUSH0 PUSH2 0x808 DUP5 DUP3 DUP6 ADD PUSH2 0x7D2 JUMP JUMPDEST SWAP2 POP POP SWAP3 SWAP2 POP POP JUMP JUMPDEST PUSH2 0x81A DUP2 PUSH2 0x7B3 JUMP JUMPDEST DUP3 MSTORE POP POP JUMP JUMPDEST PUSH0 PUSH1 0x20 DUP3 ADD SWAP1 POP PUSH2 0x833 PUSH0 DUP4 ADD DUP5 PUSH2 0x811 JUMP JUMPDEST SWAP3 SWAP2 POP POP JUMP JUMPDEST PUSH32 0x4E487B7100000000000000000000000000000000000000000000000000000000 PUSH0 MSTORE PUSH1 0x32 PUSH1 0x4 MSTORE PUSH1 0x24 PUSH0 REVERT JUMPDEST PUSH0 DUP2 SWAP1 POP SWAP3 SWAP2 POP POP JUMP JUMPDEST PUSH0 PUSH2 0x87A DUP3 PUSH2 0x6A1 JUMP JUMPDEST PUSH2 0x884 DUP2 DUP6 PUSH2 0x866 JUMP JUMPDEST SWAP4 POP PUSH2 0x894 DUP2 DUP6 PUSH1 0x20 DUP7 ADD PUSH2 0x6BB JUMP JUMPDEST DUP1 DUP5 ADD SWAP2 POP POP SWAP3 SWAP2 POP POP JUMP JUMPDEST PUSH0 PUSH2 0x8AB DUP3 DUP5 PUSH2 0x870 JUMP JUMPDEST SWAP2 POP DUP2 SWAP1 POP SWAP3 SWAP2 POP POP JUMP JUMPDEST PUSH0 DUP2 MLOAD SWAP1 POP SWAP2 SWAP1 POP JUMP JUMPDEST PUSH0 DUP3 DUP3 MSTORE PUSH1 0x20 DUP3 ADD SWAP1 POP SWAP3 SWAP2 POP POP JUMP JUMPDEST PUSH0 PUSH2 0x8DA DUP3 PUSH2 0x8B6 JUMP JUMPDEST PUSH2 0x8E4 DUP2 DUP6 PUSH2 0x8C0 JUMP JUMPDEST SWAP4 POP PUSH2 0x8F4 DUP2 DUP6 PUSH1 0x20 DUP7 ADD PUSH2 0x6BB JUMP JUMPDEST PUSH2 0x8FD DUP2 PUSH2 0x417 JUMP JUMPDEST DUP5 ADD SWAP2 POP POP SWAP3 SWAP2 POP POP JUMP JUMPDEST PUSH0 PUSH1 0x20 DUP3 ADD SWAP1 POP DUP2 DUP2 SUB PUSH0 DUP4 ADD MSTORE PUSH2 0x920 DUP2 DUP5 PUSH2 0x8D0 JUMP JUMPDEST SWAP1 POP SWAP3 SWAP2 POP POP JUMP JUMPDEST PUSH0 PUSH8 0xFFFFFFFFFFFFFFFF DUP3 GT ISZERO PUSH2 0x942 JUMPI PUSH2 0x941 PUSH2 0x427 JUMP JUMPDEST JUMPDEST PUSH2 0x94B DUP3 PUSH2 0x417 JUMP JUMPDEST SWAP1 POP PUSH1 0x20 DUP2 ADD SWAP1 POP SWAP2 SWAP1 POP JUMP JUMPDEST PUSH0 PUSH2 0x96A PUSH2 0x965 DUP5 PUSH2 0x928 JUMP JUMPDEST PUSH2 0x485 JUMP JUMPDEST SWAP1 POP DUP3 DUP2 MSTORE PUSH1 0x20 DUP2 ADD DUP5 DUP5 DUP5 ADD GT ISZERO PUSH2 0x986 JUMPI PUSH2 0x985 PUSH2 0x4CE JUMP JUMPDEST JUMPDEST PUSH2 0x991 DUP5 DUP3 DUP6 PUSH2 0x6BB JUMP JUMPDEST POP SWAP4 SWAP3 POP POP POP JUMP JUMPDEST PUSH0 DUP3 PUSH1 0x1F DUP4 ADD SLT PUSH2 0x9AD JUMPI PUSH2 0x9AC PUSH2 0x413 JUMP JUMPDEST JUMPDEST DUP2 MLOAD PUSH2 0x9BD DUP5 DUP3 PUSH1 0x20 DUP7 ADD PUSH2 0x958 JUMP JUMPDEST SWAP2 POP POP SWAP3 SWAP2 POP POP JUMP JUMPDEST PUSH0 PUSH1 0x20 DUP3 DUP5 SUB SLT ISZERO PUSH2 0x9DB JUMPI PUSH2 0x9DA PUSH2 0x40B JUMP JUMPDEST JUMPDEST PUSH0 DUP3 ADD MLOAD PUSH8 0xFFFFFFFFFFFFFFFF DUP2 GT ISZERO PUSH2 0x9F8 JUMPI PUSH2 0x9F7 PUSH2 0x40F JUMP JUMPDEST JUMPDEST PUSH2 0xA04 DUP5 DUP3 DUP6 ADD PUSH2 0x999 JUMP JUMPDEST SWAP2 POP POP SWAP3 SWAP2 POP POP JUMP INVALID LOG2 PUSH5 0x6970667358 0x22 SLT KECCAK256 CALLER PUSH14 0x833C1E5EF33C039E7A8FC0A1AF4E SWAP12 PUSH15 0x7D98D1049EF642C8FECD97D3FF9E64 PUSH20 0x6F6C634300081A00330000000000000000000000 "
				},
				"gasEstimates": {
					"creation": {
						"codeDepositCost": "525400",
						"executionCost": "560",
						"totalCost": "525960"
					},
					"external": {
						"batch(bytes[])": "infinite",
						"num()": "2446",
						"setVars(uint256)": "22534",
						"test(uint256)": "infinite"
					},
					"internal": {
						"getRevertMsg(bytes memory)": "infinite"
					}
				},
				"methodIdentifiers": {
					"batch(bytes[])": "1e897afb",
					"num()": "4e70b1dc",
					"setVars(uint256)": "6466414b",
					"test(uint256)": "29e99f07"
				}
			},
			"storageLayout": {
				"storage": [
					{
						"astId": 3,
						"contract": "testbatch.sol:RouterOnPool",
						"label": "num",
						"offset": 0,
						"slot": "0",
						"type": "t_uint256"
					}
				],
				"types": {
					"t_uint256": {
						"encoding": "inplace",
						"label": "uint256",
						"numberOfBytes": "32"
					}
				}
			},
			"userdoc": {
				"kind": "user",
				"methods": {},
				"version": 1
			}
		}
	}
}