{
	"testbatch.sol": {
		"TestRevert": {
			"abi": [
				{
					"inputs": [],
					"name": "batch",
					"outputs": [
						{
							"internalType": "bytes[]",
							"name": "results",
							"type": "bytes[]"
						}
					],
					"stateMutability": "payable",
					"type": "function"
				},
				{
					"inputs": [],
					"name": "num",
					"outputs": [
						{
							"internalType": "uint256",
							"name": "",
							"type": "uint256"
						}
					],
					"stateMutability": "view",
					"type": "function"
				},
				{
					"inputs": [],
					"name": "rever",
					"outputs": [],
					"stateMutability": "nonpayable",
					"type": "function"
				},
				{
					"inputs": [
						{
							"internalType": "uint256",
							"name": "_num",
							"type": "uint256"
						}
					],
					"name": "setVars",
					"outputs": [],
					"stateMutability": "nonpayable",
					"type": "function"
				}
			],
			"devdoc": {
				"kind": "dev",
				"methods": {},
				"version": 1
			},
			"evm": {
				"assembly": "    /* \"testbatch.sol\":1714:2578  contract TestRevert {... */\n  mstore(0x40, 0x80)\n  callvalue\n  dup1\n  iszero\n  tag_1\n  jumpi\n  0x00\n  dup1\n  revert\ntag_1:\n  pop\n  dataSize(sub_0)\n  dup1\n  dataOffset(sub_0)\n  0x00\n  codecopy\n  0x00\n  return\nstop\n\nsub_0: assembly {\n        /* \"testbatch.sol\":1714:2578  contract TestRevert {... */\n      mstore(0x40, 0x80)\n      jumpi(tag_1, lt(calldatasize, 0x04))\n      shr(0xe0, calldataload(0x00))\n      dup1\n      0x4e70b1dc\n      eq\n      tag_2\n      jumpi\n      dup1\n      0x58525206\n      eq\n      tag_3\n      jumpi\n      dup1\n      0x6466414b\n      eq\n      tag_4\n      jumpi\n      dup1\n      0xaf713566\n      eq\n      tag_5\n      jumpi\n    tag_1:\n      0x00\n      dup1\n      revert\n        /* \"testbatch.sol\":1743:1761  uint256 public num */\n    tag_2:\n      callvalue\n      dup1\n      iszero\n      tag_6\n      jumpi\n      0x00\n      dup1\n      revert\n    tag_6:\n      pop\n      tag_7\n      tag_8\n      jump\t// in\n    tag_7:\n      mload(0x40)\n      tag_9\n      swap2\n      swap1\n      tag_10\n      jump\t// in\n    tag_9:\n      mload(0x40)\n      dup1\n      swap2\n      sub\n      swap1\n      return\n        /* \"testbatch.sol\":2467:2571  function rever() public {... */\n    tag_3:\n      callvalue\n      dup1\n      iszero\n      tag_11\n      jumpi\n      0x00\n      dup1\n      revert\n    tag_11:\n      pop\n      tag_12\n      tag_13\n      jump\t// in\n    tag_12:\n      stop\n        /* \"testbatch.sol\":2392:2459  function setVars(uint _num) external  {... */\n    tag_4:\n      callvalue\n      dup1\n      iszero\n      tag_14\n      jumpi\n      0x00\n      dup1\n      revert\n    tag_14:\n      pop\n      tag_15\n      0x04\n      dup1\n      calldatasize\n      sub\n      dup2\n      add\n      swap1\n      tag_16\n      swap2\n      swap1\n      tag_17\n      jump\t// in\n    tag_16:\n      tag_18\n      jump\t// in\n    tag_15:\n      stop\n        /* \"testbatch.sol\":1770:2384  function batch() external payable returns (bytes[] memory results) {... */\n    tag_5:\n      tag_19\n      tag_20\n      jump\t// in\n    tag_19:\n      mload(0x40)\n      tag_21\n      swap2\n      swap1\n      tag_22\n      jump\t// in\n    tag_21:\n      mload(0x40)\n      dup1\n      swap2\n      sub\n      swap1\n      return\n        /* \"testbatch.sol\":1743:1761  uint256 public num */\n    tag_8:\n      sload(0x00)\n      dup2\n      jump\t// out\n        /* \"testbatch.sol\":2467:2571  function rever() public {... */\n    tag_13:\n        /* \"testbatch.sol\":2512:2520  uint arr */\n      0x00\n        /* \"testbatch.sol\":2537:2541  1 +2 */\n      0x03\n        /* \"testbatch.sol\":2531:2541  arr = 1 +2 */\n      swap1\n      pop\n        /* \"testbatch.sol\":2491:2571  {... */\n      pop\n        /* \"testbatch.sol\":2467:2571  function rever() public {... */\n      jump\t// out\n        /* \"testbatch.sol\":2392:2459  function setVars(uint _num) external  {... */\n    tag_18:\n        /* \"testbatch.sol\":2447:2451  _num */\n      dup1\n        /* \"testbatch.sol\":2441:2444  num */\n      0x00\n        /* \"testbatch.sol\":2441:2451  num = _num */\n      dup2\n      swap1\n      sstore\n      pop\n        /* \"testbatch.sol\":2392:2459  function setVars(uint _num) external  {... */\n      pop\n      jump\t// out\n        /* \"testbatch.sol\":1770:2384  function batch() external payable returns (bytes[] memory results) {... */\n    tag_20:\n        /* \"testbatch.sol\":1813:1835  bytes[] memory results */\n      0x60\n        /* \"testbatch.sol\":1850:1872  bytes memory payload_1 */\n      0x00\n        /* \"testbatch.sol\":1919:1920  1 */\n      0x01\n        /* \"testbatch.sol\":1875:1921  abi.encodeWithSignature(\"setVars(uint256)\", 1) */\n      add(0x24, mload(0x40))\n      tag_26\n      swap2\n      swap1\n      tag_27\n      jump\t// in\n    tag_26:\n      mload(0x40)\n      0x20\n      dup2\n      dup4\n      sub\n      sub\n      dup2\n      mstore\n      swap1\n      0x40\n      mstore\n      and(not(0xffffffffffffffffffffffffffffffffffffffffffffffffffffffff), 0x6466414b00000000000000000000000000000000000000000000000000000000)\n      0x20\n      dup3\n      add\n      dup1\n      mload\n      0xffffffffffffffffffffffffffffffffffffffffffffffffffffffff\n      dup4\n      dup2\n      dup4\n      and\n      or\n      dup4\n      mstore\n      pop\n      pop\n      pop\n      pop\n        /* \"testbatch.sol\":1850:1921  bytes memory payload_1 = abi.encodeWithSignature(\"setVars(uint256)\", 1) */\n      swap1\n      pop\n        /* \"testbatch.sol\":1932:1954  bytes memory payload_2 */\n      0x00\n        /* \"testbatch.sol\":1957:1991  abi.encodeWithSignature(\"rever()\") */\n      add(0x24, mload(0x40))\n      mload(0x40)\n      0x20\n      dup2\n      dup4\n      sub\n      sub\n      dup2\n      mstore\n      swap1\n      0x40\n      mstore\n      and(not(0xffffffffffffffffffffffffffffffffffffffffffffffffffffffff), 0x5852520600000000000000000000000000000000000000000000000000000000)\n      0x20\n      dup3\n      add\n      dup1\n      mload\n      0xffffffffffffffffffffffffffffffffffffffffffffffffffffffff\n      dup4\n      dup2\n      dup4\n      and\n      or\n      dup4\n      mstore\n      pop\n      pop\n      pop\n      pop\n        /* \"testbatch.sol\":1932:1991  bytes memory payload_2 = abi.encodeWithSignature(\"rever()\") */\n      swap1\n      pop\n        /* \"testbatch.sol\":2012:2032  bytes[] memory calls */\n      0x00\n        /* \"testbatch.sol\":2047:2048  2 */\n      0x02\n        /* \"testbatch.sol\":2035:2049  new bytes[](2) */\n      0xffffffffffffffff\n      dup2\n      gt\n      iszero\n      tag_28\n      jumpi\n      tag_29\n      tag_30\n      jump\t// in\n    tag_29:\n    tag_28:\n      mload(0x40)\n      swap1\n      dup1\n      dup3\n      mstore\n      dup1\n      0x20\n      mul\n      0x20\n      add\n      dup3\n      add\n      0x40\n      mstore\n      dup1\n      iszero\n      tag_31\n      jumpi\n      dup2\n      0x20\n      add\n    tag_32:\n      0x60\n      dup2\n      mstore\n      0x20\n      add\n      swap1\n      0x01\n      swap1\n      sub\n      swap1\n      dup2\n      tag_32\n      jumpi\n      swap1\n      pop\n    tag_31:\n      pop\n        /* \"testbatch.sol\":2012:2049  bytes[] memory calls = new bytes[](2) */\n      swap1\n      pop\n        /* \"testbatch.sol\":2071:2080  payload_1 */\n      dup3\n        /* \"testbatch.sol\":2060:2065  calls */\n      dup2\n        /* \"testbatch.sol\":2066:2067  0 */\n      0x00\n        /* \"testbatch.sol\":2060:2068  calls[0] */\n      dup2\n      mload\n      dup2\n      lt\n      tag_33\n      jumpi\n      tag_34\n      tag_35\n      jump\t// in\n    tag_34:\n    tag_33:\n      0x20\n      mul\n      0x20\n      add\n      add\n        /* \"testbatch.sol\":2060:2080  calls[0] = payload_1 */\n      dup2\n      swap1\n      mstore\n      pop\n        /* \"testbatch.sol\":2102:2111  payload_2 */\n      dup2\n        /* \"testbatch.sol\":2091:2096  calls */\n      dup2\n        /* \"testbatch.sol\":2097:2098  1 */\n      0x01\n        /* \"testbatch.sol\":2091:2099  calls[1] */\n      dup2\n      mload\n      dup2\n      lt\n      tag_36\n      jumpi\n      tag_37\n      tag_35\n      jump\t// in\n    tag_37:\n    tag_36:\n      0x20\n      mul\n      0x20\n      add\n      add\n        /* \"testbatch.sol\":2091:2111  calls[1] = payload_2 */\n      dup2\n      swap1\n      mstore\n      pop\n        /* \"testbatch.sol\":2146:2147  2 */\n      0x02\n        /* \"testbatch.sol\":2134:2148  new bytes[](2) */\n      0xffffffffffffffff\n      dup2\n      gt\n      iszero\n      tag_38\n      jumpi\n      tag_39\n      tag_30\n      jump\t// in\n    tag_39:\n    tag_38:\n      mload(0x40)\n      swap1\n      dup1\n      dup3\n      mstore\n      dup1\n      0x20\n      mul\n      0x20\n      add\n      dup3\n      add\n      0x40\n      mstore\n      dup1\n      iszero\n      tag_40\n      jumpi\n      dup2\n      0x20\n      add\n    tag_41:\n      0x60\n      dup2\n      mstore\n      0x20\n      add\n      swap1\n      0x01\n      swap1\n      sub\n      swap1\n      dup2\n      tag_41\n      jumpi\n      swap1\n      pop\n    tag_40:\n      pop\n        /* \"testbatch.sol\":2124:2148  results = new bytes[](2) */\n      swap4\n      pop\n        /* \"testbatch.sol\":2174:2183  uint256 i */\n      0x00\n        /* \"testbatch.sol\":2169:2377  for (uint256 i; i < 2; i++) {... */\n    tag_42:\n        /* \"testbatch.sol\":2189:2190  2 */\n      0x02\n        /* \"testbatch.sol\":2185:2186  i */\n      dup2\n        /* \"testbatch.sol\":2185:2190  i < 2 */\n      lt\n        /* \"testbatch.sol\":2169:2377  for (uint256 i; i < 2; i++) {... */\n      iszero\n      tag_43\n      jumpi\n        /* \"testbatch.sol\":2215:2227  bool success */\n      0x00\n        /* \"testbatch.sol\":2229:2248  bytes memory result */\n      dup1\n        /* \"testbatch.sol\":2260:2264  this */\n      address\n        /* \"testbatch.sol\":2252:2278  address(this).delegatecall */\n      0xffffffffffffffffffffffffffffffffffffffff\n      and\n        /* \"testbatch.sol\":2279:2284  calls */\n      dup5\n        /* \"testbatch.sol\":2285:2286  i */\n      dup5\n        /* \"testbatch.sol\":2279:2287  calls[i] */\n      dup2\n      mload\n      dup2\n      lt\n      tag_45\n      jumpi\n      tag_46\n      tag_35\n      jump\t// in\n    tag_46:\n    tag_45:\n      0x20\n      mul\n      0x20\n      add\n      add\n      mload\n        /* \"testbatch.sol\":2252:2288  address(this).delegatecall(calls[i]) */\n      mload(0x40)\n      tag_47\n      swap2\n      swap1\n      tag_48\n      jump\t// in\n    tag_47:\n      0x00\n      mload(0x40)\n      dup1\n      dup4\n      sub\n      dup2\n      dup6\n      gas\n      delegatecall\n      swap2\n      pop\n      pop\n      returndatasize\n      dup1\n      0x00\n      dup2\n      eq\n      tag_51\n      jumpi\n      mload(0x40)\n      swap2\n      pop\n      and(add(returndatasize, 0x3f), not(0x1f))\n      dup3\n      add\n      0x40\n      mstore\n      returndatasize\n      dup3\n      mstore\n      returndatasize\n      0x00\n      0x20\n      dup5\n      add\n      returndatacopy\n      jump(tag_50)\n    tag_51:\n      0x60\n      swap2\n      pop\n    tag_50:\n      pop\n        /* \"testbatch.sol\":2214:2288  (bool success, bytes memory result) = address(this).delegatecall(calls[i]) */\n      swap2\n      pop\n      swap2\n      pop\n        /* \"testbatch.sol\":2308:2315  success */\n      dup2\n        /* \"testbatch.sol\":2303:2331  if (!success) revert(\"fail\") */\n      tag_52\n      jumpi\n        /* \"testbatch.sol\":2317:2331  revert(\"fail\") */\n      mload(0x40)\n      0x08c379a000000000000000000000000000000000000000000000000000000000\n      dup2\n      mstore\n      0x04\n      add\n      tag_53\n      swap1\n      tag_54\n      jump\t// in\n    tag_53:\n      mload(0x40)\n      dup1\n      swap2\n      sub\n      swap1\n      revert\n        /* \"testbatch.sol\":2303:2331  if (!success) revert(\"fail\") */\n    tag_52:\n        /* \"testbatch.sol\":2359:2365  result */\n      dup1\n        /* \"testbatch.sol\":2346:2353  results */\n      dup8\n        /* \"testbatch.sol\":2354:2355  i */\n      dup5\n        /* \"testbatch.sol\":2346:2356  results[i] */\n      dup2\n      mload\n      dup2\n      lt\n      tag_55\n      jumpi\n      tag_56\n      tag_35\n      jump\t// in\n    tag_56:\n    tag_55:\n      0x20\n      mul\n      0x20\n      add\n      add\n        /* \"testbatch.sol\":2346:2365  results[i] = result */\n      dup2\n      swap1\n      mstore\n      pop\n        /* \"testbatch.sol\":2197:2377  {... */\n      pop\n      pop\n        /* \"testbatch.sol\":2192:2195  i++ */\n      dup1\n      dup1\n      0x01\n      add\n      swap2\n      pop\n      pop\n        /* \"testbatch.sol\":2169:2377  for (uint256 i; i < 2; i++) {... */\n      jump(tag_42)\n    tag_43:\n      pop\n        /* \"testbatch.sol\":1837:2384  {... */\n      pop\n      pop\n      pop\n        /* \"testbatch.sol\":1770:2384  function batch() external payable returns (bytes[] memory results) {... */\n      swap1\n      jump\t// out\n        /* \"#utility.yul\":7:84   */\n    tag_57:\n        /* \"#utility.yul\":44:51   */\n      0x00\n        /* \"#utility.yul\":73:78   */\n      dup2\n        /* \"#utility.yul\":62:78   */\n      swap1\n      pop\n        /* \"#utility.yul\":7:84   */\n      swap2\n      swap1\n      pop\n      jump\t// out\n        /* \"#utility.yul\":90:208   */\n    tag_58:\n        /* \"#utility.yul\":177:201   */\n      tag_88\n        /* \"#utility.yul\":195:200   */\n      dup2\n        /* \"#utility.yul\":177:201   */\n      tag_57\n      jump\t// in\n    tag_88:\n        /* \"#utility.yul\":172:175   */\n      dup3\n        /* \"#utility.yul\":165:202   */\n      mstore\n        /* \"#utility.yul\":90:208   */\n      pop\n      pop\n      jump\t// out\n        /* \"#utility.yul\":214:436   */\n    tag_10:\n        /* \"#utility.yul\":307:311   */\n      0x00\n        /* \"#utility.yul\":345:347   */\n      0x20\n        /* \"#utility.yul\":334:343   */\n      dup3\n        /* \"#utility.yul\":330:348   */\n      add\n        /* \"#utility.yul\":322:348   */\n      swap1\n      pop\n        /* \"#utility.yul\":358:429   */\n      tag_90\n        /* \"#utility.yul\":426:427   */\n      0x00\n        /* \"#utility.yul\":415:424   */\n      dup4\n        /* \"#utility.yul\":411:428   */\n      add\n        /* \"#utility.yul\":402:408   */\n      dup5\n        /* \"#utility.yul\":358:429   */\n      tag_58\n      jump\t// in\n    tag_90:\n        /* \"#utility.yul\":214:436   */\n      swap3\n      swap2\n      pop\n      pop\n      jump\t// out\n        /* \"#utility.yul\":523:640   */\n    tag_60:\n        /* \"#utility.yul\":632:633   */\n      0x00\n        /* \"#utility.yul\":629:630   */\n      dup1\n        /* \"#utility.yul\":622:634   */\n      revert\n        /* \"#utility.yul\":769:891   */\n    tag_62:\n        /* \"#utility.yul\":842:866   */\n      tag_95\n        /* \"#utility.yul\":860:865   */\n      dup2\n        /* \"#utility.yul\":842:866   */\n      tag_57\n      jump\t// in\n    tag_95:\n        /* \"#utility.yul\":835:840   */\n      dup2\n        /* \"#utility.yul\":832:867   */\n      eq\n        /* \"#utility.yul\":822:885   */\n      tag_96\n      jumpi\n        /* \"#utility.yul\":881:882   */\n      0x00\n        /* \"#utility.yul\":878:879   */\n      dup1\n        /* \"#utility.yul\":871:883   */\n      revert\n        /* \"#utility.yul\":822:885   */\n    tag_96:\n        /* \"#utility.yul\":769:891   */\n      pop\n      jump\t// out\n        /* \"#utility.yul\":897:1036   */\n    tag_63:\n        /* \"#utility.yul\":943:948   */\n      0x00\n        /* \"#utility.yul\":981:987   */\n      dup2\n        /* \"#utility.yul\":968:988   */\n      calldataload\n        /* \"#utility.yul\":959:988   */\n      swap1\n      pop\n        /* \"#utility.yul\":997:1030   */\n      tag_98\n        /* \"#utility.yul\":1024:1029   */\n      dup2\n        /* \"#utility.yul\":997:1030   */\n      tag_62\n      jump\t// in\n    tag_98:\n        /* \"#utility.yul\":897:1036   */\n      swap3\n      swap2\n      pop\n      pop\n      jump\t// out\n        /* \"#utility.yul\":1042:1371   */\n    tag_17:\n        /* \"#utility.yul\":1101:1107   */\n      0x00\n        /* \"#utility.yul\":1150:1152   */\n      0x20\n        /* \"#utility.yul\":1138:1147   */\n      dup3\n        /* \"#utility.yul\":1129:1136   */\n      dup5\n        /* \"#utility.yul\":1125:1148   */\n      sub\n        /* \"#utility.yul\":1121:1153   */\n      slt\n        /* \"#utility.yul\":1118:1237   */\n      iszero\n      tag_100\n      jumpi\n        /* \"#utility.yul\":1156:1235   */\n      tag_101\n      tag_60\n      jump\t// in\n    tag_101:\n        /* \"#utility.yul\":1118:1237   */\n    tag_100:\n        /* \"#utility.yul\":1276:1277   */\n      0x00\n        /* \"#utility.yul\":1301:1354   */\n      tag_102\n        /* \"#utility.yul\":1346:1353   */\n      dup5\n        /* \"#utility.yul\":1337:1343   */\n      dup3\n        /* \"#utility.yul\":1326:1335   */\n      dup6\n        /* \"#utility.yul\":1322:1344   */\n      add\n        /* \"#utility.yul\":1301:1354   */\n      tag_63\n      jump\t// in\n    tag_102:\n        /* \"#utility.yul\":1291:1354   */\n      swap2\n      pop\n        /* \"#utility.yul\":1247:1364   */\n      pop\n        /* \"#utility.yul\":1042:1371   */\n      swap3\n      swap2\n      pop\n      pop\n      jump\t// out\n        /* \"#utility.yul\":1377:1500   */\n    tag_64:\n        /* \"#utility.yul\":1453:1459   */\n      0x00\n        /* \"#utility.yul\":1487:1492   */\n      dup2\n        /* \"#utility.yul\":1481:1493   */\n      mload\n        /* \"#utility.yul\":1471:1493   */\n      swap1\n      pop\n        /* \"#utility.yul\":1377:1500   */\n      swap2\n      swap1\n      pop\n      jump\t// out\n        /* \"#utility.yul\":1506:1699   */\n    tag_65:\n        /* \"#utility.yul\":1614:1625   */\n      0x00\n        /* \"#utility.yul\":1648:1654   */\n      dup3\n        /* \"#utility.yul\":1643:1646   */\n      dup3\n        /* \"#utility.yul\":1636:1655   */\n      mstore\n        /* \"#utility.yul\":1688:1692   */\n      0x20\n        /* \"#utility.yul\":1683:1686   */\n      dup3\n        /* \"#utility.yul\":1679:1693   */\n      add\n        /* \"#utility.yul\":1664:1693   */\n      swap1\n      pop\n        /* \"#utility.yul\":1506:1699   */\n      swap3\n      swap2\n      pop\n      pop\n      jump\t// out\n        /* \"#utility.yul\":1705:1846   */\n    tag_66:\n        /* \"#utility.yul\":1781:1785   */\n      0x00\n        /* \"#utility.yul\":1804:1807   */\n      dup2\n        /* \"#utility.yul\":1796:1807   */\n      swap1\n      pop\n        /* \"#utility.yul\":1834:1838   */\n      0x20\n        /* \"#utility.yul\":1829:1832   */\n      dup3\n        /* \"#utility.yul\":1825:1839   */\n      add\n        /* \"#utility.yul\":1817:1839   */\n      swap1\n      pop\n        /* \"#utility.yul\":1705:1846   */\n      swap2\n      swap1\n      pop\n      jump\t// out\n        /* \"#utility.yul\":1852:1950   */\n    tag_67:\n        /* \"#utility.yul\":1903:1909   */\n      0x00\n        /* \"#utility.yul\":1937:1942   */\n      dup2\n        /* \"#utility.yul\":1931:1943   */\n      mload\n        /* \"#utility.yul\":1921:1943   */\n      swap1\n      pop\n        /* \"#utility.yul\":1852:1950   */\n      swap2\n      swap1\n      pop\n      jump\t// out\n        /* \"#utility.yul\":1956:2114   */\n    tag_68:\n        /* \"#utility.yul\":2029:2040   */\n      0x00\n        /* \"#utility.yul\":2063:2069   */\n      dup3\n        /* \"#utility.yul\":2058:2061   */\n      dup3\n        /* \"#utility.yul\":2051:2070   */\n      mstore\n        /* \"#utility.yul\":2103:2107   */\n      0x20\n        /* \"#utility.yul\":2098:2101   */\n      dup3\n        /* \"#utility.yul\":2094:2108   */\n      add\n        /* \"#utility.yul\":2079:2108   */\n      swap1\n      pop\n        /* \"#utility.yul\":1956:2114   */\n      swap3\n      swap2\n      pop\n      pop\n      jump\t// out\n        /* \"#utility.yul\":2120:2259   */\n    tag_69:\n        /* \"#utility.yul\":2209:2215   */\n      dup3\n        /* \"#utility.yul\":2204:2207   */\n      dup2\n        /* \"#utility.yul\":2199:2202   */\n      dup4\n        /* \"#utility.yul\":2193:2216   */\n      mcopy\n        /* \"#utility.yul\":2250:2251   */\n      0x00\n        /* \"#utility.yul\":2241:2247   */\n      dup4\n        /* \"#utility.yul\":2236:2239   */\n      dup4\n        /* \"#utility.yul\":2232:2248   */\n      add\n        /* \"#utility.yul\":2225:2252   */\n      mstore\n        /* \"#utility.yul\":2120:2259   */\n      pop\n      pop\n      pop\n      jump\t// out\n        /* \"#utility.yul\":2265:2367   */\n    tag_70:\n        /* \"#utility.yul\":2306:2312   */\n      0x00\n        /* \"#utility.yul\":2357:2359   */\n      0x1f\n        /* \"#utility.yul\":2353:2360   */\n      not\n        /* \"#utility.yul\":2348:2350   */\n      0x1f\n        /* \"#utility.yul\":2341:2346   */\n      dup4\n        /* \"#utility.yul\":2337:2351   */\n      add\n        /* \"#utility.yul\":2333:2361   */\n      and\n        /* \"#utility.yul\":2323:2361   */\n      swap1\n      pop\n        /* \"#utility.yul\":2265:2367   */\n      swap2\n      swap1\n      pop\n      jump\t// out\n        /* \"#utility.yul\":2373:2726   */\n    tag_71:\n        /* \"#utility.yul\":2449:2452   */\n      0x00\n        /* \"#utility.yul\":2477:2515   */\n      tag_111\n        /* \"#utility.yul\":2509:2514   */\n      dup3\n        /* \"#utility.yul\":2477:2515   */\n      tag_67\n      jump\t// in\n    tag_111:\n        /* \"#utility.yul\":2531:2591   */\n      tag_112\n        /* \"#utility.yul\":2584:2590   */\n      dup2\n        /* \"#utility.yul\":2579:2582   */\n      dup6\n        /* \"#utility.yul\":2531:2591   */\n      tag_68\n      jump\t// in\n    tag_112:\n        /* \"#utility.yul\":2524:2591   */\n      swap4\n      pop\n        /* \"#utility.yul\":2600:2665   */\n      tag_113\n        /* \"#utility.yul\":2658:2664   */\n      dup2\n        /* \"#utility.yul\":2653:2656   */\n      dup6\n        /* \"#utility.yul\":2646:2650   */\n      0x20\n        /* \"#utility.yul\":2639:2644   */\n      dup7\n        /* \"#utility.yul\":2635:2651   */\n      add\n        /* \"#utility.yul\":2600:2665   */\n      tag_69\n      jump\t// in\n    tag_113:\n        /* \"#utility.yul\":2690:2719   */\n      tag_114\n        /* \"#utility.yul\":2712:2718   */\n      dup2\n        /* \"#utility.yul\":2690:2719   */\n      tag_70\n      jump\t// in\n    tag_114:\n        /* \"#utility.yul\":2685:2688   */\n      dup5\n        /* \"#utility.yul\":2681:2720   */\n      add\n        /* \"#utility.yul\":2674:2720   */\n      swap2\n      pop\n        /* \"#utility.yul\":2453:2726   */\n      pop\n        /* \"#utility.yul\":2373:2726   */\n      swap3\n      swap2\n      pop\n      pop\n      jump\t// out\n        /* \"#utility.yul\":2732:2924   */\n    tag_72:\n        /* \"#utility.yul\":2819:2829   */\n      0x00\n        /* \"#utility.yul\":2854:2918   */\n      tag_116\n        /* \"#utility.yul\":2914:2917   */\n      dup4\n        /* \"#utility.yul\":2906:2912   */\n      dup4\n        /* \"#utility.yul\":2854:2918   */\n      tag_71\n      jump\t// in\n    tag_116:\n        /* \"#utility.yul\":2840:2918   */\n      swap1\n      pop\n        /* \"#utility.yul\":2732:2924   */\n      swap3\n      swap2\n      pop\n      pop\n      jump\t// out\n        /* \"#utility.yul\":2930:3052   */\n    tag_73:\n        /* \"#utility.yul\":3009:3013   */\n      0x00\n        /* \"#utility.yul\":3041:3045   */\n      0x20\n        /* \"#utility.yul\":3036:3039   */\n      dup3\n        /* \"#utility.yul\":3032:3046   */\n      add\n        /* \"#utility.yul\":3024:3046   */\n      swap1\n      pop\n        /* \"#utility.yul\":2930:3052   */\n      swap2\n      swap1\n      pop\n      jump\t// out\n        /* \"#utility.yul\":3084:4067   */\n    tag_74:\n        /* \"#utility.yul\":3221:3224   */\n      0x00\n        /* \"#utility.yul\":3250:3313   */\n      tag_119\n        /* \"#utility.yul\":3307:3312   */\n      dup3\n        /* \"#utility.yul\":3250:3313   */\n      tag_64\n      jump\t// in\n    tag_119:\n        /* \"#utility.yul\":3329:3424   */\n      tag_120\n        /* \"#utility.yul\":3417:3423   */\n      dup2\n        /* \"#utility.yul\":3412:3415   */\n      dup6\n        /* \"#utility.yul\":3329:3424   */\n      tag_65\n      jump\t// in\n    tag_120:\n        /* \"#utility.yul\":3322:3424   */\n      swap4\n      pop\n        /* \"#utility.yul\":3450:3453   */\n      dup4\n        /* \"#utility.yul\":3495:3499   */\n      0x20\n        /* \"#utility.yul\":3487:3493   */\n      dup3\n        /* \"#utility.yul\":3483:3500   */\n      mul\n        /* \"#utility.yul\":3478:3481   */\n      dup6\n        /* \"#utility.yul\":3474:3501   */\n      add\n        /* \"#utility.yul\":3525:3590   */\n      tag_121\n        /* \"#utility.yul\":3584:3589   */\n      dup6\n        /* \"#utility.yul\":3525:3590   */\n      tag_66\n      jump\t// in\n    tag_121:\n        /* \"#utility.yul\":3613:3620   */\n      dup1\n        /* \"#utility.yul\":3644:3645   */\n      0x00\n        /* \"#utility.yul\":3629:4022   */\n    tag_122:\n        /* \"#utility.yul\":3654:3660   */\n      dup6\n        /* \"#utility.yul\":3651:3652   */\n      dup2\n        /* \"#utility.yul\":3648:3661   */\n      lt\n        /* \"#utility.yul\":3629:4022   */\n      iszero\n      tag_124\n      jumpi\n        /* \"#utility.yul\":3725:3734   */\n      dup5\n        /* \"#utility.yul\":3719:3723   */\n      dup5\n        /* \"#utility.yul\":3715:3735   */\n      sub\n        /* \"#utility.yul\":3710:3713   */\n      dup10\n        /* \"#utility.yul\":3703:3736   */\n      mstore\n        /* \"#utility.yul\":3776:3782   */\n      dup2\n        /* \"#utility.yul\":3770:3783   */\n      mload\n        /* \"#utility.yul\":3804:3886   */\n      tag_125\n        /* \"#utility.yul\":3881:3885   */\n      dup6\n        /* \"#utility.yul\":3866:3879   */\n      dup3\n        /* \"#utility.yul\":3804:3886   */\n      tag_72\n      jump\t// in\n    tag_125:\n        /* \"#utility.yul\":3796:3886   */\n      swap5\n      pop\n        /* \"#utility.yul\":3909:3978   */\n      tag_126\n        /* \"#utility.yul\":3971:3977   */\n      dup4\n        /* \"#utility.yul\":3909:3978   */\n      tag_73\n      jump\t// in\n    tag_126:\n        /* \"#utility.yul\":3899:3978   */\n      swap3\n      pop\n        /* \"#utility.yul\":4007:4011   */\n      0x20\n        /* \"#utility.yul\":4002:4005   */\n      dup11\n        /* \"#utility.yul\":3998:4012   */\n      add\n        /* \"#utility.yul\":3991:4012   */\n      swap10\n      pop\n        /* \"#utility.yul\":3689:4022   */\n      pop\n        /* \"#utility.yul\":3676:3677   */\n      0x01\n        /* \"#utility.yul\":3673:3674   */\n      dup2\n        /* \"#utility.yul\":3669:3678   */\n      add\n        /* \"#utility.yul\":3664:3678   */\n      swap1\n      pop\n        /* \"#utility.yul\":3629:4022   */\n      jump(tag_122)\n    tag_124:\n        /* \"#utility.yul\":3633:3647   */\n      pop\n        /* \"#utility.yul\":4038:4042   */\n      dup3\n        /* \"#utility.yul\":4031:4042   */\n      swap8\n      pop\n        /* \"#utility.yul\":4058:4061   */\n      dup8\n        /* \"#utility.yul\":4051:4061   */\n      swap6\n      pop\n        /* \"#utility.yul\":3226:4067   */\n      pop\n      pop\n      pop\n      pop\n      pop\n        /* \"#utility.yul\":3084:4067   */\n      swap3\n      swap2\n      pop\n      pop\n      jump\t// out\n        /* \"#utility.yul\":4073:4482   */\n    tag_22:\n        /* \"#utility.yul\":4234:4238   */\n      0x00\n        /* \"#utility.yul\":4272:4274   */\n      0x20\n        /* \"#utility.yul\":4261:4270   */\n      dup3\n        /* \"#utility.yul\":4257:4275   */\n      add\n        /* \"#utility.yul\":4249:4275   */\n      swap1\n      pop\n        /* \"#utility.yul\":4321:4330   */\n      dup2\n        /* \"#utility.yul\":4315:4319   */\n      dup2\n        /* \"#utility.yul\":4311:4331   */\n      sub\n        /* \"#utility.yul\":4307:4308   */\n      0x00\n        /* \"#utility.yul\":4296:4305   */\n      dup4\n        /* \"#utility.yul\":4292:4309   */\n      add\n        /* \"#utility.yul\":4285:4332   */\n      mstore\n        /* \"#utility.yul\":4349:4475   */\n      tag_128\n        /* \"#utility.yul\":4470:4474   */\n      dup2\n        /* \"#utility.yul\":4461:4467   */\n      dup5\n        /* \"#utility.yul\":4349:4475   */\n      tag_74\n      jump\t// in\n    tag_128:\n        /* \"#utility.yul\":4341:4475   */\n      swap1\n      pop\n        /* \"#utility.yul\":4073:4482   */\n      swap3\n      swap2\n      pop\n      pop\n      jump\t// out\n        /* \"#utility.yul\":4488:4573   */\n    tag_75:\n        /* \"#utility.yul\":4533:4540   */\n      0x00\n        /* \"#utility.yul\":4562:4567   */\n      dup2\n        /* \"#utility.yul\":4551:4567   */\n      swap1\n      pop\n        /* \"#utility.yul\":4488:4573   */\n      swap2\n      swap1\n      pop\n      jump\t// out\n        /* \"#utility.yul\":4579:4665   */\n    tag_76:\n        /* \"#utility.yul\":4614:4621   */\n      0x00\n        /* \"#utility.yul\":4654:4658   */\n      0xff\n        /* \"#utility.yul\":4647:4652   */\n      dup3\n        /* \"#utility.yul\":4643:4659   */\n      and\n        /* \"#utility.yul\":4632:4659   */\n      swap1\n      pop\n        /* \"#utility.yul\":4579:4665   */\n      swap2\n      swap1\n      pop\n      jump\t// out\n        /* \"#utility.yul\":4671:4731   */\n    tag_77:\n        /* \"#utility.yul\":4699:4702   */\n      0x00\n        /* \"#utility.yul\":4720:4725   */\n      dup2\n        /* \"#utility.yul\":4713:4725   */\n      swap1\n      pop\n        /* \"#utility.yul\":4671:4731   */\n      swap2\n      swap1\n      pop\n      jump\t// out\n        /* \"#utility.yul\":4737:4891   */\n    tag_78:\n        /* \"#utility.yul\":4793:4802   */\n      0x00\n        /* \"#utility.yul\":4826:4885   */\n      tag_133\n        /* \"#utility.yul\":4842:4884   */\n      tag_134\n        /* \"#utility.yul\":4851:4883   */\n      tag_135\n        /* \"#utility.yul\":4877:4882   */\n      dup5\n        /* \"#utility.yul\":4851:4883   */\n      tag_75\n      jump\t// in\n    tag_135:\n        /* \"#utility.yul\":4842:4884   */\n      tag_77\n      jump\t// in\n    tag_134:\n        /* \"#utility.yul\":4826:4885   */\n      tag_76\n      jump\t// in\n    tag_133:\n        /* \"#utility.yul\":4813:4885   */\n      swap1\n      pop\n        /* \"#utility.yul\":4737:4891   */\n      swap2\n      swap1\n      pop\n      jump\t// out\n        /* \"#utility.yul\":4897:5040   */\n    tag_79:\n        /* \"#utility.yul\":4990:5033   */\n      tag_137\n        /* \"#utility.yul\":5027:5032   */\n      dup2\n        /* \"#utility.yul\":4990:5033   */\n      tag_78\n      jump\t// in\n    tag_137:\n        /* \"#utility.yul\":4985:4988   */\n      dup3\n        /* \"#utility.yul\":4978:5034   */\n      mstore\n        /* \"#utility.yul\":4897:5040   */\n      pop\n      pop\n      jump\t// out\n        /* \"#utility.yul\":5046:5280   */\n    tag_27:\n        /* \"#utility.yul\":5145:5149   */\n      0x00\n        /* \"#utility.yul\":5183:5185   */\n      0x20\n        /* \"#utility.yul\":5172:5181   */\n      dup3\n        /* \"#utility.yul\":5168:5186   */\n      add\n        /* \"#utility.yul\":5160:5186   */\n      swap1\n      pop\n        /* \"#utility.yul\":5196:5273   */\n      tag_139\n        /* \"#utility.yul\":5270:5271   */\n      0x00\n        /* \"#utility.yul\":5259:5268   */\n      dup4\n        /* \"#utility.yul\":5255:5272   */\n      add\n        /* \"#utility.yul\":5246:5252   */\n      dup5\n        /* \"#utility.yul\":5196:5273   */\n      tag_79\n      jump\t// in\n    tag_139:\n        /* \"#utility.yul\":5046:5280   */\n      swap3\n      swap2\n      pop\n      pop\n      jump\t// out\n        /* \"#utility.yul\":5286:5466   */\n    tag_30:\n        /* \"#utility.yul\":5334:5411   */\n      0x4e487b7100000000000000000000000000000000000000000000000000000000\n        /* \"#utility.yul\":5331:5332   */\n      0x00\n        /* \"#utility.yul\":5324:5412   */\n      mstore\n        /* \"#utility.yul\":5431:5435   */\n      0x41\n        /* \"#utility.yul\":5428:5429   */\n      0x04\n        /* \"#utility.yul\":5421:5436   */\n      mstore\n        /* \"#utility.yul\":5455:5459   */\n      0x24\n        /* \"#utility.yul\":5452:5453   */\n      0x00\n        /* \"#utility.yul\":5445:5460   */\n      revert\n        /* \"#utility.yul\":5472:5652   */\n    tag_35:\n        /* \"#utility.yul\":5520:5597   */\n      0x4e487b7100000000000000000000000000000000000000000000000000000000\n        /* \"#utility.yul\":5517:5518   */\n      0x00\n        /* \"#utility.yul\":5510:5598   */\n      mstore\n        /* \"#utility.yul\":5617:5621   */\n      0x32\n        /* \"#utility.yul\":5614:5615   */\n      0x04\n        /* \"#utility.yul\":5607:5622   */\n      mstore\n        /* \"#utility.yul\":5641:5645   */\n      0x24\n        /* \"#utility.yul\":5638:5639   */\n      0x00\n        /* \"#utility.yul\":5631:5646   */\n      revert\n        /* \"#utility.yul\":5658:5805   */\n    tag_80:\n        /* \"#utility.yul\":5759:5770   */\n      0x00\n        /* \"#utility.yul\":5796:5799   */\n      dup2\n        /* \"#utility.yul\":5781:5799   */\n      swap1\n      pop\n        /* \"#utility.yul\":5658:5805   */\n      swap3\n      swap2\n      pop\n      pop\n      jump\t// out\n        /* \"#utility.yul\":5811:6197   */\n    tag_81:\n        /* \"#utility.yul\":5915:5918   */\n      0x00\n        /* \"#utility.yul\":5943:5981   */\n      tag_144\n        /* \"#utility.yul\":5975:5980   */\n      dup3\n        /* \"#utility.yul\":5943:5981   */\n      tag_67\n      jump\t// in\n    tag_144:\n        /* \"#utility.yul\":5997:6085   */\n      tag_145\n        /* \"#utility.yul\":6078:6084   */\n      dup2\n        /* \"#utility.yul\":6073:6076   */\n      dup6\n        /* \"#utility.yul\":5997:6085   */\n      tag_80\n      jump\t// in\n    tag_145:\n        /* \"#utility.yul\":5990:6085   */\n      swap4\n      pop\n        /* \"#utility.yul\":6094:6159   */\n      tag_146\n        /* \"#utility.yul\":6152:6158   */\n      dup2\n        /* \"#utility.yul\":6147:6150   */\n      dup6\n        /* \"#utility.yul\":6140:6144   */\n      0x20\n        /* \"#utility.yul\":6133:6138   */\n      dup7\n        /* \"#utility.yul\":6129:6145   */\n      add\n        /* \"#utility.yul\":6094:6159   */\n      tag_69\n      jump\t// in\n    tag_146:\n        /* \"#utility.yul\":6184:6190   */\n      dup1\n        /* \"#utility.yul\":6179:6182   */\n      dup5\n        /* \"#utility.yul\":6175:6191   */\n      add\n        /* \"#utility.yul\":6168:6191   */\n      swap2\n      pop\n        /* \"#utility.yul\":5919:6197   */\n      pop\n        /* \"#utility.yul\":5811:6197   */\n      swap3\n      swap2\n      pop\n      pop\n      jump\t// out\n        /* \"#utility.yul\":6203:6474   */\n    tag_48:\n        /* \"#utility.yul\":6333:6336   */\n      0x00\n        /* \"#utility.yul\":6355:6448   */\n      tag_148\n        /* \"#utility.yul\":6444:6447   */\n      dup3\n        /* \"#utility.yul\":6435:6441   */\n      dup5\n        /* \"#utility.yul\":6355:6448   */\n      tag_81\n      jump\t// in\n    tag_148:\n        /* \"#utility.yul\":6348:6448   */\n      swap2\n      pop\n        /* \"#utility.yul\":6465:6468   */\n      dup2\n        /* \"#utility.yul\":6458:6468   */\n      swap1\n      pop\n        /* \"#utility.yul\":6203:6474   */\n      swap3\n      swap2\n      pop\n      pop\n      jump\t// out\n        /* \"#utility.yul\":6480:6649   */\n    tag_82:\n        /* \"#utility.yul\":6564:6575   */\n      0x00\n        /* \"#utility.yul\":6598:6604   */\n      dup3\n        /* \"#utility.yul\":6593:6596   */\n      dup3\n        /* \"#utility.yul\":6586:6605   */\n      mstore\n        /* \"#utility.yul\":6638:6642   */\n      0x20\n        /* \"#utility.yul\":6633:6636   */\n      dup3\n        /* \"#utility.yul\":6629:6643   */\n      add\n        /* \"#utility.yul\":6614:6643   */\n      swap1\n      pop\n        /* \"#utility.yul\":6480:6649   */\n      swap3\n      swap2\n      pop\n      pop\n      jump\t// out\n        /* \"#utility.yul\":6655:6809   */\n    tag_83:\n        /* \"#utility.yul\":6795:6801   */\n      0x6661696c00000000000000000000000000000000000000000000000000000000\n        /* \"#utility.yul\":6791:6792   */\n      0x00\n        /* \"#utility.yul\":6783:6789   */\n      dup3\n        /* \"#utility.yul\":6779:6793   */\n      add\n        /* \"#utility.yul\":6772:6802   */\n      mstore\n        /* \"#utility.yul\":6655:6809   */\n      pop\n      jump\t// out\n        /* \"#utility.yul\":6815:7180   */\n    tag_84:\n        /* \"#utility.yul\":6957:6960   */\n      0x00\n        /* \"#utility.yul\":6978:7044   */\n      tag_152\n        /* \"#utility.yul\":7042:7043   */\n      0x04\n        /* \"#utility.yul\":7037:7040   */\n      dup4\n        /* \"#utility.yul\":6978:7044   */\n      tag_82\n      jump\t// in\n    tag_152:\n        /* \"#utility.yul\":6971:7044   */\n      swap2\n      pop\n        /* \"#utility.yul\":7053:7146   */\n      tag_153\n        /* \"#utility.yul\":7142:7145   */\n      dup3\n        /* \"#utility.yul\":7053:7146   */\n      tag_83\n      jump\t// in\n    tag_153:\n        /* \"#utility.yul\":7171:7173   */\n      0x20\n        /* \"#utility.yul\":7166:7169   */\n      dup3\n        /* \"#utility.yul\":7162:7174   */\n      add\n        /* \"#utility.yul\":7155:7174   */\n      swap1\n      pop\n        /* \"#utility.yul\":6815:7180   */\n      swap2\n      swap1\n      pop\n      jump\t// out\n        /* \"#utility.yul\":7186:7605   */\n    tag_54:\n        /* \"#utility.yul\":7352:7356   */\n      0x00\n        /* \"#utility.yul\":7390:7392   */\n      0x20\n        /* \"#utility.yul\":7379:7388   */\n      dup3\n        /* \"#utility.yul\":7375:7393   */\n      add\n        /* \"#utility.yul\":7367:7393   */\n      swap1\n      pop\n        /* \"#utility.yul\":7439:7448   */\n      dup2\n        /* \"#utility.yul\":7433:7437   */\n      dup2\n        /* \"#utility.yul\":7429:7449   */\n      sub\n        /* \"#utility.yul\":7425:7426   */\n      0x00\n        /* \"#utility.yul\":7414:7423   */\n      dup4\n        /* \"#utility.yul\":7410:7427   */\n      add\n        /* \"#utility.yul\":7403:7450   */\n      mstore\n        /* \"#utility.yul\":7467:7598   */\n      tag_155\n        /* \"#utility.yul\":7593:7597   */\n      dup2\n        /* \"#utility.yul\":7467:7598   */\n      tag_84\n      jump\t// in\n    tag_155:\n        /* \"#utility.yul\":7459:7598   */\n      swap1\n      pop\n        /* \"#utility.yul\":7186:7605   */\n      swap2\n      swap1\n      pop\n      jump\t// out\n\n    auxdata: 0xa264697066735822122036342e5a51e8789d551f4a6bb8c1947eb8f995e2447b8ee7c25ae18efd587bca64736f6c634300081a0033\n}\n",
				"bytecode": {
					"linkReferences": {},
					"object": "6080604052348015600e575f80fd5b506107718061001c5f395ff3fe60806040526004361061003e575f3560e01c80634e70b1dc14610042578063585252061461006c5780636466414b14610082578063af713566146100aa575b5f80fd5b34801561004d575f80fd5b506100566100c8565b60405161006391906103f5565b60405180910390f35b348015610077575f80fd5b506100806100cd565b005b34801561008d575f80fd5b506100a860048036038101906100a3919061043c565b6100d5565b005b6100b26100de565b6040516100bf9190610592565b60405180910390f35b5f5481565b5f6003905050565b805f8190555050565b60605f60016040516024016100f39190610600565b6040516020818303038152906040527f6466414b000000000000000000000000000000000000000000000000000000007bffffffffffffffffffffffffffffffffffffffffffffffffffffffff19166020820180517bffffffffffffffffffffffffffffffffffffffffffffffffffffffff838183161783525050505090505f6040516024016040516020818303038152906040527f58525206000000000000000000000000000000000000000000000000000000007bffffffffffffffffffffffffffffffffffffffffffffffffffffffff19166020820180517bffffffffffffffffffffffffffffffffffffffffffffffffffffffff838183161783525050505090505f600267ffffffffffffffff81111561021457610213610619565b5b60405190808252806020026020018201604052801561024757816020015b60608152602001906001900390816102325790505b50905082815f8151811061025e5761025d610646565b5b6020026020010181905250818160018151811061027e5761027d610646565b5b6020026020010181905250600267ffffffffffffffff8111156102a4576102a3610619565b5b6040519080825280602002602001820160405280156102d757816020015b60608152602001906001900390816102c25790505b5093505f5b60028110156103d6575f803073ffffffffffffffffffffffffffffffffffffffff1684848151811061031157610310610646565b5b602002602001015160405161032691906106ad565b5f60405180830381855af49150503d805f811461035e576040519150601f19603f3d011682016040523d82523d5f602084013e610363565b606091505b5091509150816103a8576040517f08c379a000000000000000000000000000000000000000000000000000000000815260040161039f9061071d565b60405180910390fd5b808784815181106103bc576103bb610646565b5b6020026020010181905250505080806001019150506102dc565b5050505090565b5f819050919050565b6103ef816103dd565b82525050565b5f6020820190506104085f8301846103e6565b92915050565b5f80fd5b61041b816103dd565b8114610425575f80fd5b50565b5f8135905061043681610412565b92915050565b5f602082840312156104515761045061040e565b5b5f61045e84828501610428565b91505092915050565b5f81519050919050565b5f82825260208201905092915050565b5f819050602082019050919050565b5f81519050919050565b5f82825260208201905092915050565b8281835e5f83830152505050565b5f601f19601f8301169050919050565b5f6104d282610490565b6104dc818561049a565b93506104ec8185602086016104aa565b6104f5816104b8565b840191505092915050565b5f61050b83836104c8565b905092915050565b5f602082019050919050565b5f61052982610467565b6105338185610471565b93508360208202850161054585610481565b805f5b8581101561058057848403895281516105618582610500565b945061056c83610513565b925060208a01995050600181019050610548565b50829750879550505050505092915050565b5f6020820190508181035f8301526105aa818461051f565b905092915050565b5f819050919050565b5f60ff82169050919050565b5f819050919050565b5f6105ea6105e56105e0846105b2565b6105c7565b6105bb565b9050919050565b6105fa816105d0565b82525050565b5f6020820190506106135f8301846105f1565b92915050565b7f4e487b71000000000000000000000000000000000000000000000000000000005f52604160045260245ffd5b7f4e487b71000000000000000000000000000000000000000000000000000000005f52603260045260245ffd5b5f81905092915050565b5f61068782610490565b6106918185610673565b93506106a18185602086016104aa565b80840191505092915050565b5f6106b8828461067d565b915081905092915050565b5f82825260208201905092915050565b7f6661696c000000000000000000000000000000000000000000000000000000005f82015250565b5f6107076004836106c3565b9150610712826106d3565b602082019050919050565b5f6020820190508181035f830152610734816106fb565b905091905056fea264697066735822122036342e5a51e8789d551f4a6bb8c1947eb8f995e2447b8ee7c25ae18efd587bca64736f6c634300081a0033",
					"opcodes": "PUSH1 0x80 PUSH1 0x40 MSTORE CALLVALUE DUP1 ISZERO PUSH1 0xE JUMPI PUSH0 DUP1 REVERT JUMPDEST POP PUSH2 0x771 DUP1 PUSH2 0x1C PUSH0 CODECOPY PUSH0 RETURN INVALID PUSH1 0x80 PUSH1 0x40 MSTORE PUSH1 0x4 CALLDATASIZE LT PUSH2 0x3E JUMPI PUSH0 CALLDATALOAD PUSH1 0xE0 SHR DUP1 PUSH4 0x4E70B1DC EQ PUSH2 0x42 JUMPI DUP1 PUSH4 0x58525206 EQ PUSH2 0x6C JUMPI DUP1 PUSH4 0x6466414B EQ PUSH2 0x82 JUMPI DUP1 PUSH4 0xAF713566 EQ PUSH2 0xAA JUMPI JUMPDEST PUSH0 DUP1 REVERT JUMPDEST CALLVALUE DUP1 ISZERO PUSH2 0x4D JUMPI PUSH0 DUP1 REVERT JUMPDEST POP PUSH2 0x56 PUSH2 0xC8 JUMP JUMPDEST PUSH1 0x40 MLOAD PUSH2 0x63 SWAP2 SWAP1 PUSH2 0x3F5 JUMP JUMPDEST PUSH1 0x40 MLOAD DUP1 SWAP2 SUB SWAP1 RETURN JUMPDEST CALLVALUE DUP1 ISZERO PUSH2 0x77 JUMPI PUSH0 DUP1 REVERT JUMPDEST POP PUSH2 0x80 PUSH2 0xCD JUMP JUMPDEST STOP JUMPDEST CALLVALUE DUP1 ISZERO PUSH2 0x8D JUMPI PUSH0 DUP1 REVERT JUMPDEST POP PUSH2 0xA8 PUSH1 0x4 DUP1 CALLDATASIZE SUB DUP2 ADD SWAP1 PUSH2 0xA3 SWAP2 SWAP1 PUSH2 0x43C JUMP JUMPDEST PUSH2 0xD5 JUMP JUMPDEST STOP JUMPDEST PUSH2 0xB2 PUSH2 0xDE JUMP JUMPDEST PUSH1 0x40 MLOAD PUSH2 0xBF SWAP2 SWAP1 PUSH2 0x592 JUMP JUMPDEST PUSH1 0x40 MLOAD DUP1 SWAP2 SUB SWAP1 RETURN JUMPDEST PUSH0 SLOAD DUP2 JUMP JUMPDEST PUSH0 PUSH1 0x3 SWAP1 POP POP JUMP JUMPDEST DUP1 PUSH0 DUP2 SWAP1 SSTORE POP POP JUMP JUMPDEST PUSH1 0x60 PUSH0 PUSH1 0x1 PUSH1 0x40 MLOAD PUSH1 0x24 ADD PUSH2 0xF3 SWAP2 SWAP1 PUSH2 0x600 JUMP JUMPDEST PUSH1 0x40 MLOAD PUSH1 0x20 DUP2 DUP4 SUB SUB DUP2 MSTORE SWAP1 PUSH1 0x40 MSTORE PUSH32 0x6466414B00000000000000000000000000000000000000000000000000000000 PUSH28 0xFFFFFFFFFFFFFFFFFFFFFFFFFFFFFFFFFFFFFFFFFFFFFFFFFFFFFFFF NOT AND PUSH1 0x20 DUP3 ADD DUP1 MLOAD PUSH28 0xFFFFFFFFFFFFFFFFFFFFFFFFFFFFFFFFFFFFFFFFFFFFFFFFFFFFFFFF DUP4 DUP2 DUP4 AND OR DUP4 MSTORE POP POP POP POP SWAP1 POP PUSH0 PUSH1 0x40 MLOAD PUSH1 0x24 ADD PUSH1 0x40 MLOAD PUSH1 0x20 DUP2 DUP4 SUB SUB DUP2 MSTORE SWAP1 PUSH1 0x40 MSTORE PUSH32 0x5852520600000000000000000000000000000000000000000000000000000000 PUSH28 0xFFFFFFFFFFFFFFFFFFFFFFFFFFFFFFFFFFFFFFFFFFFFFFFFFFFFFFFF NOT AND PUSH1 0x20 DUP3 ADD DUP1 MLOAD PUSH28 0xFFFFFFFFFFFFFFFFFFFFFFFFFFFFFFFFFFFFFFFFFFFFFFFFFFFFFFFF DUP4 DUP2 DUP4 AND OR DUP4 MSTORE POP POP POP POP SWAP1 POP PUSH0 PUSH1 0x2 PUSH8 0xFFFFFFFFFFFFFFFF DUP2 GT ISZERO PUSH2 0x214 JUMPI PUSH2 0x213 PUSH2 0x619 JUMP JUMPDEST JUMPDEST PUSH1 0x40 MLOAD SWAP1 DUP1 DUP3 MSTORE DUP1 PUSH1 0x20 MUL PUSH1 0x20 ADD DUP3 ADD PUSH1 0x40 MSTORE DUP1 ISZERO PUSH2 0x247 JUMPI DUP2 PUSH1 0x20 ADD JUMPDEST PUSH1 0x60 DUP2 MSTORE PUSH1 0x20 ADD SWAP1 PUSH1 0x1 SWAP1 SUB SWAP1 DUP2 PUSH2 0x232 JUMPI SWAP1 POP JUMPDEST POP SWAP1 POP DUP3 DUP2 PUSH0 DUP2 MLOAD DUP2 LT PUSH2 0x25E JUMPI PUSH2 0x25D PUSH2 0x646 JUMP JUMPDEST JUMPDEST PUSH1 0x20 MUL PUSH1 0x20 ADD ADD DUP2 SWAP1 MSTORE POP DUP2 DUP2 PUSH1 0x1 DUP2 MLOAD DUP2 LT PUSH2 0x27E JUMPI PUSH2 0x27D PUSH2 0x646 JUMP JUMPDEST JUMPDEST PUSH1 0x20 MUL PUSH1 0x20 ADD ADD DUP2 SWAP1 MSTORE POP PUSH1 0x2 PUSH8 0xFFFFFFFFFFFFFFFF DUP2 GT ISZERO PUSH2 0x2A4 JUMPI PUSH2 0x2A3 PUSH2 0x619 JUMP JUMPDEST JUMPDEST PUSH1 0x40 MLOAD SWAP1 DUP1 DUP3 MSTORE DUP1 PUSH1 0x20 MUL PUSH1 0x20 ADD DUP3 ADD PUSH1 0x40 MSTORE DUP1 ISZERO PUSH2 0x2D7 JUMPI DUP2 PUSH1 0x20 ADD JUMPDEST PUSH1 0x60 DUP2 MSTORE PUSH1 0x20 ADD SWAP1 PUSH1 0x1 SWAP1 SUB SWAP1 DUP2 PUSH2 0x2C2 JUMPI SWAP1 POP JUMPDEST POP SWAP4 POP PUSH0 JUMPDEST PUSH1 0x2 DUP2 LT ISZERO PUSH2 0x3D6 JUMPI PUSH0 DUP1 ADDRESS PUSH20 0xFFFFFFFFFFFFFFFFFFFFFFFFFFFFFFFFFFFFFFFF AND DUP5 DUP5 DUP2 MLOAD DUP2 LT PUSH2 0x311 JUMPI PUSH2 0x310 PUSH2 0x646 JUMP JUMPDEST JUMPDEST PUSH1 0x20 MUL PUSH1 0x20 ADD ADD MLOAD PUSH1 0x40 MLOAD PUSH2 0x326 SWAP2 SWAP1 PUSH2 0x6AD JUMP JUMPDEST PUSH0 PUSH1 0x40 MLOAD DUP1 DUP4 SUB DUP2 DUP6 GAS DELEGATECALL SWAP2 POP POP RETURNDATASIZE DUP1 PUSH0 DUP2 EQ PUSH2 0x35E JUMPI PUSH1 0x40 MLOAD SWAP2 POP PUSH1 0x1F NOT PUSH1 0x3F RETURNDATASIZE ADD AND DUP3 ADD PUSH1 0x40 MSTORE RETURNDATASIZE DUP3 MSTORE RETURNDATASIZE PUSH0 PUSH1 0x20 DUP5 ADD RETURNDATACOPY PUSH2 0x363 JUMP JUMPDEST PUSH1 0x60 SWAP2 POP JUMPDEST POP SWAP2 POP SWAP2 POP DUP2 PUSH2 0x3A8 JUMPI PUSH1 0x40 MLOAD PUSH32 0x8C379A000000000000000000000000000000000000000000000000000000000 DUP2 MSTORE PUSH1 0x4 ADD PUSH2 0x39F SWAP1 PUSH2 0x71D JUMP JUMPDEST PUSH1 0x40 MLOAD DUP1 SWAP2 SUB SWAP1 REVERT JUMPDEST DUP1 DUP8 DUP5 DUP2 MLOAD DUP2 LT PUSH2 0x3BC JUMPI PUSH2 0x3BB PUSH2 0x646 JUMP JUMPDEST JUMPDEST PUSH1 0x20 MUL PUSH1 0x20 ADD ADD DUP2 SWAP1 MSTORE POP POP POP DUP1 DUP1 PUSH1 0x1 ADD SWAP2 POP POP PUSH2 0x2DC JUMP JUMPDEST POP POP POP POP SWAP1 JUMP JUMPDEST PUSH0 DUP2 SWAP1 POP SWAP2 SWAP1 POP JUMP JUMPDEST PUSH2 0x3EF DUP2 PUSH2 0x3DD JUMP JUMPDEST DUP3 MSTORE POP POP JUMP JUMPDEST PUSH0 PUSH1 0x20 DUP3 ADD SWAP1 POP PUSH2 0x408 PUSH0 DUP4 ADD DUP5 PUSH2 0x3E6 JUMP JUMPDEST SWAP3 SWAP2 POP POP JUMP JUMPDEST PUSH0 DUP1 REVERT JUMPDEST PUSH2 0x41B DUP2 PUSH2 0x3DD JUMP JUMPDEST DUP2 EQ PUSH2 0x425 JUMPI PUSH0 DUP1 REVERT JUMPDEST POP JUMP JUMPDEST PUSH0 DUP2 CALLDATALOAD SWAP1 POP PUSH2 0x436 DUP2 PUSH2 0x412 JUMP JUMPDEST SWAP3 SWAP2 POP POP JUMP JUMPDEST PUSH0 PUSH1 0x20 DUP3 DUP5 SUB SLT ISZERO PUSH2 0x451 JUMPI PUSH2 0x450 PUSH2 0x40E JUMP JUMPDEST JUMPDEST PUSH0 PUSH2 0x45E DUP5 DUP3 DUP6 ADD PUSH2 0x428 JUMP JUMPDEST SWAP2 POP POP SWAP3 SWAP2 POP POP JUMP JUMPDEST PUSH0 DUP2 MLOAD SWAP1 POP SWAP2 SWAP1 POP JUMP JUMPDEST PUSH0 DUP3 DUP3 MSTORE PUSH1 0x20 DUP3 ADD SWAP1 POP SWAP3 SWAP2 POP POP JUMP JUMPDEST PUSH0 DUP2 SWAP1 POP PUSH1 0x20 DUP3 ADD SWAP1 POP SWAP2 SWAP1 POP JUMP JUMPDEST PUSH0 DUP2 MLOAD SWAP1 POP SWAP2 SWAP1 POP JUMP JUMPDEST PUSH0 DUP3 DUP3 MSTORE PUSH1 0x20 DUP3 ADD SWAP1 POP SWAP3 SWAP2 POP POP JUMP JUMPDEST DUP3 DUP2 DUP4 MCOPY PUSH0 DUP4 DUP4 ADD MSTORE POP POP POP JUMP JUMPDEST PUSH0 PUSH1 0x1F NOT PUSH1 0x1F DUP4 ADD AND SWAP1 POP SWAP2 SWAP1 POP JUMP JUMPDEST PUSH0 PUSH2 0x4D2 DUP3 PUSH2 0x490 JUMP JUMPDEST PUSH2 0x4DC DUP2 DUP6 PUSH2 0x49A JUMP JUMPDEST SWAP4 POP PUSH2 0x4EC DUP2 DUP6 PUSH1 0x20 DUP7 ADD PUSH2 0x4AA JUMP JUMPDEST PUSH2 0x4F5 DUP2 PUSH2 0x4B8 JUMP JUMPDEST DUP5 ADD SWAP2 POP POP SWAP3 SWAP2 POP POP JUMP JUMPDEST PUSH0 PUSH2 0x50B DUP4 DUP4 PUSH2 0x4C8 JUMP JUMPDEST SWAP1 POP SWAP3 SWAP2 POP POP JUMP JUMPDEST PUSH0 PUSH1 0x20 DUP3 ADD SWAP1 POP SWAP2 SWAP1 POP JUMP JUMPDEST PUSH0 PUSH2 0x529 DUP3 PUSH2 0x467 JUMP JUMPDEST PUSH2 0x533 DUP2 DUP6 PUSH2 0x471 JUMP JUMPDEST SWAP4 POP DUP4 PUSH1 0x20 DUP3 MUL DUP6 ADD PUSH2 0x545 DUP6 PUSH2 0x481 JUMP JUMPDEST DUP1 PUSH0 JUMPDEST DUP6 DUP2 LT ISZERO PUSH2 0x580 JUMPI DUP5 DUP5 SUB DUP10 MSTORE DUP2 MLOAD PUSH2 0x561 DUP6 DUP3 PUSH2 0x500 JUMP JUMPDEST SWAP5 POP PUSH2 0x56C DUP4 PUSH2 0x513 JUMP JUMPDEST SWAP3 POP PUSH1 0x20 DUP11 ADD SWAP10 POP POP PUSH1 0x1 DUP2 ADD SWAP1 POP PUSH2 0x548 JUMP JUMPDEST POP DUP3 SWAP8 POP DUP8 SWAP6 POP POP POP POP POP POP SWAP3 SWAP2 POP POP JUMP JUMPDEST PUSH0 PUSH1 0x20 DUP3 ADD SWAP1 POP DUP2 DUP2 SUB PUSH0 DUP4 ADD MSTORE PUSH2 0x5AA DUP2 DUP5 PUSH2 0x51F JUMP JUMPDEST SWAP1 POP SWAP3 SWAP2 POP POP JUMP JUMPDEST PUSH0 DUP2 SWAP1 POP SWAP2 SWAP1 POP JUMP JUMPDEST PUSH0 PUSH1 0xFF DUP3 AND SWAP1 POP SWAP2 SWAP1 POP JUMP JUMPDEST PUSH0 DUP2 SWAP1 POP SWAP2 SWAP1 POP JUMP JUMPDEST PUSH0 PUSH2 0x5EA PUSH2 0x5E5 PUSH2 0x5E0 DUP5 PUSH2 0x5B2 JUMP JUMPDEST PUSH2 0x5C7 JUMP JUMPDEST PUSH2 0x5BB JUMP JUMPDEST SWAP1 POP SWAP2 SWAP1 POP JUMP JUMPDEST PUSH2 0x5FA DUP2 PUSH2 0x5D0 JUMP JUMPDEST DUP3 MSTORE POP POP JUMP JUMPDEST PUSH0 PUSH1 0x20 DUP3 ADD SWAP1 POP PUSH2 0x613 PUSH0 DUP4 ADD DUP5 PUSH2 0x5F1 JUMP JUMPDEST SWAP3 SWAP2 POP POP JUMP JUMPDEST PUSH32 0x4E487B7100000000000000000000000000000000000000000000000000000000 PUSH0 MSTORE PUSH1 0x41 PUSH1 0x4 MSTORE PUSH1 0x24 PUSH0 REVERT JUMPDEST PUSH32 0x4E487B7100000000000000000000000000000000000000000000000000000000 PUSH0 MSTORE PUSH1 0x32 PUSH1 0x4 MSTORE PUSH1 0x24 PUSH0 REVERT JUMPDEST PUSH0 DUP2 SWAP1 POP SWAP3 SWAP2 POP POP JUMP JUMPDEST PUSH0 PUSH2 0x687 DUP3 PUSH2 0x490 JUMP JUMPDEST PUSH2 0x691 DUP2 DUP6 PUSH2 0x673 JUMP JUMPDEST SWAP4 POP PUSH2 0x6A1 DUP2 DUP6 PUSH1 0x20 DUP7 ADD PUSH2 0x4AA JUMP JUMPDEST DUP1 DUP5 ADD SWAP2 POP POP SWAP3 SWAP2 POP POP JUMP JUMPDEST PUSH0 PUSH2 0x6B8 DUP3 DUP5 PUSH2 0x67D JUMP JUMPDEST SWAP2 POP DUP2 SWAP1 POP SWAP3 SWAP2 POP POP JUMP JUMPDEST PUSH0 DUP3 DUP3 MSTORE PUSH1 0x20 DUP3 ADD SWAP1 POP SWAP3 SWAP2 POP POP JUMP JUMPDEST PUSH32 0x6661696C00000000000000000000000000000000000000000000000000000000 PUSH0 DUP3 ADD MSTORE POP JUMP JUMPDEST PUSH0 PUSH2 0x707 PUSH1 0x4 DUP4 PUSH2 0x6C3 JUMP JUMPDEST SWAP2 POP PUSH2 0x712 DUP3 PUSH2 0x6D3 JUMP JUMPDEST PUSH1 0x20 DUP3 ADD SWAP1 POP SWAP2 SWAP1 POP JUMP JUMPDEST PUSH0 PUSH1 0x20 DUP3 ADD SWAP1 POP DUP2 DUP2 SUB PUSH0 DUP4 ADD MSTORE PUSH2 0x734 DUP2 PUSH2 0x6FB JUMP JUMPDEST SWAP1 POP SWAP2 SWAP1 POP JUMP INVALID LOG2 PUSH5 0x6970667358 0x22 SLT KECCAK256 CALLDATASIZE CALLVALUE 0x2E GAS MLOAD 0xE8 PUSH25 0x9D551F4A6BB8C1947EB8F995E2447B8EE7C25AE18EFD587BCA PUSH5 0x736F6C6343 STOP ADDMOD BYTE STOP CALLER "
				},
				"gasEstimates": {
					"creation": {
						"codeDepositCost": "381000",
						"executionCost": "416",
						"totalCost": "381416"
					},
					"external": {
						"batch()": "infinite",
						"num()": "2402",
						"rever()": "155",
						"setVars(uint256)": "22536"
					}
				},
				"methodIdentifiers": {
					"batch()": "af713566",
					"num()": "4e70b1dc",
					"rever()": "58525206",
					"setVars(uint256)": "6466414b"
				}
			},
			"storageLayout": {
				"storage": [
					{
						"astId": 137,
						"contract": "testbatch.sol:TestRevert",
						"label": "num",
						"offset": 0,
						"slot": "0",
						"type": "t_uint256"
					}
				],
				"types": {
					"t_uint256": {
						"encoding": "inplace",
						"label": "uint256",
						"numberOfBytes": "32"
					}
				}
			},
			"userdoc": {
				"kind": "user",
				"methods": {},
				"version": 1
			}
		}
	}
}