{
	"testCasting.sol": {
		"RouterOnPool": {
			"abi": [
				{
					"inputs": [
						{
							"internalType": "bytes32",
							"name": "bytes32_",
							"type": "bytes32"
						}
					],
					"name": "bytes32ToAddress",
					"outputs": [
						{
							"internalType": "address",
							"name": "",
							"type": "address"
						}
					],
					"stateMutability": "pure",
					"type": "function"
				},
				{
					"inputs": [],
					"name": "cast",
					"outputs": [
						{
							"internalType": "bytes32",
							"name": "",
							"type": "bytes32"
						}
					],
					"stateMutability": "view",
					"type": "function"
				},
				{
					"inputs": [],
					"name": "num",
					"outputs": [
						{
							"internalType": "uint256",
							"name": "",
							"type": "uint256"
						}
					],
					"stateMutability": "view",
					"type": "function"
				},
				{
					"inputs": [],
					"name": "num1",
					"outputs": [
						{
							"internalType": "uint256",
							"name": "",
							"type": "uint256"
						}
					],
					"stateMutability": "view",
					"type": "function"
				},
				{
					"inputs": [],
					"name": "test",
					"outputs": [],
					"stateMutability": "nonpayable",
					"type": "function"
				}
			],
			"devdoc": {
				"kind": "dev",
				"methods": {},
				"version": 1
			},
			"evm": {
				"assembly": "    /* \"testCasting.sol\":68:798  contract RouterOnPool {... */\n  mstore(0x40, 0x80)\n    /* \"testCasting.sol\":142:144  12 */\n  0x0c\n    /* \"testCasting.sol\":123:144  uint public num1 = 12 */\n  0x01\n  sstore\n    /* \"testCasting.sol\":68:798  contract RouterOnPool {... */\n  callvalue\n  dup1\n  iszero\n  tag_1\n  jumpi\n  0x00\n  dup1\n  revert\ntag_1:\n  pop\n  dataSize(sub_0)\n  dup1\n  dataOffset(sub_0)\n  0x00\n  codecopy\n  0x00\n  return\nstop\n\nsub_0: assembly {\n        /* \"testCasting.sol\":68:798  contract RouterOnPool {... */\n      mstore(0x40, 0x80)\n      callvalue\n      dup1\n      iszero\n      tag_1\n      jumpi\n      0x00\n      dup1\n      revert\n    tag_1:\n      pop\n      jumpi(tag_2, lt(calldatasize, 0x04))\n      shr(0xe0, calldataload(0x00))\n      dup1\n      0x3b9eac4b\n      eq\n      tag_3\n      jumpi\n      dup1\n      0x4e70b1dc\n      eq\n      tag_4\n      jumpi\n      dup1\n      0x5ced058e\n      eq\n      tag_5\n      jumpi\n      dup1\n      0x96d373e5\n      eq\n      tag_6\n      jumpi\n      dup1\n      0xf8a8fd6d\n      eq\n      tag_7\n      jumpi\n    tag_2:\n      0x00\n      dup1\n      revert\n        /* \"testCasting.sol\":123:144  uint public num1 = 12 */\n    tag_3:\n      tag_8\n      tag_9\n      jump\t// in\n    tag_8:\n      mload(0x40)\n      tag_10\n      swap2\n      swap1\n      tag_11\n      jump\t// in\n    tag_10:\n      mload(0x40)\n      dup1\n      swap2\n      sub\n      swap1\n      return\n        /* \"testCasting.sol\":99:114  uint public num */\n    tag_4:\n      tag_12\n      tag_13\n      jump\t// in\n    tag_12:\n      mload(0x40)\n      tag_14\n      swap2\n      swap1\n      tag_11\n      jump\t// in\n    tag_14:\n      mload(0x40)\n      dup1\n      swap2\n      sub\n      swap1\n      return\n        /* \"testCasting.sol\":420:730  function bytes32ToAddress(bytes32 bytes32_) public pure returns(address) {... */\n    tag_5:\n      tag_15\n      0x04\n      dup1\n      calldatasize\n      sub\n      dup2\n      add\n      swap1\n      tag_16\n      swap2\n      swap1\n      tag_17\n      jump\t// in\n    tag_16:\n      tag_18\n      jump\t// in\n    tag_15:\n      mload(0x40)\n      tag_19\n      swap2\n      swap1\n      tag_20\n      jump\t// in\n    tag_19:\n      mload(0x40)\n      dup1\n      swap2\n      sub\n      swap1\n      return\n        /* \"testCasting.sol\":153:410  function cast() public view returns(bytes32) {... */\n    tag_6:\n      tag_21\n      tag_22\n      jump\t// in\n    tag_21:\n      mload(0x40)\n      tag_23\n      swap2\n      swap1\n      tag_24\n      jump\t// in\n    tag_23:\n      mload(0x40)\n      dup1\n      swap2\n      sub\n      swap1\n      return\n        /* \"testCasting.sol\":740:793  function test() public {... */\n    tag_7:\n      tag_25\n      tag_26\n      jump\t// in\n    tag_25:\n      stop\n        /* \"testCasting.sol\":123:144  uint public num1 = 12 */\n    tag_9:\n      sload(0x01)\n      dup2\n      jump\t// out\n        /* \"testCasting.sol\":99:114  uint public num */\n    tag_13:\n      sload(0x00)\n      dup2\n      jump\t// out\n        /* \"testCasting.sol\":420:730  function bytes32ToAddress(bytes32 bytes32_) public pure returns(address) {... */\n    tag_18:\n        /* \"testCasting.sol\":484:491  address */\n      0x00\n        /* \"testCasting.sol\":504:517  uint256 value */\n      dup1\n        /* \"testCasting.sol\":528:536  bytes32_ */\n      dup3\n        /* \"testCasting.sol\":520:537  uint256(bytes32_) */\n      0x00\n      shr\n        /* \"testCasting.sol\":504:537  uint256 value = uint256(bytes32_) */\n      swap1\n      pop\n        /* \"testCasting.sol\":608:625  type(uint160).max */\n      0xffffffffffffffffffffffffffffffffffffffff\n        /* \"testCasting.sol\":600:625  value > type(uint160).max */\n      dup1\n      and\n        /* \"testCasting.sol\":600:605  value */\n      dup2\n        /* \"testCasting.sol\":600:625  value > type(uint160).max */\n      gt\n        /* \"testCasting.sol\":596:672  if (value > type(uint160).max) {... */\n      iszero\n      tag_28\n      jumpi\n        /* \"testCasting.sol\":642:660  revert(\"Erroirsr\") */\n      mload(0x40)\n      0x08c379a000000000000000000000000000000000000000000000000000000000\n      dup2\n      mstore\n      0x04\n      add\n      tag_29\n      swap1\n      tag_30\n      jump\t// in\n    tag_29:\n      mload(0x40)\n      dup1\n      swap2\n      sub\n      swap1\n      revert\n        /* \"testCasting.sol\":596:672  if (value > type(uint160).max) {... */\n    tag_28:\n        /* \"testCasting.sol\":715:720  value */\n      dup1\n        /* \"testCasting.sol\":692:722  return address(uint160(value)) */\n      swap2\n      pop\n      pop\n        /* \"testCasting.sol\":420:730  function bytes32ToAddress(bytes32 bytes32_) public pure returns(address) {... */\n      swap2\n      swap1\n      pop\n      jump\t// out\n        /* \"testCasting.sol\":153:410  function cast() public view returns(bytes32) {... */\n    tag_22:\n        /* \"testCasting.sol\":189:196  bytes32 */\n      0x00\n        /* \"testCasting.sol\":255:282  address WHITELISTED_ADDRESS */\n      dup1\n        /* \"testCasting.sol\":285:327  0x228e0f99adf8bf367100BBFD9b090Bc0b15c89a9 */\n      0x228e0f99adf8bf367100bbfd9b090bc0b15c89a9\n        /* \"testCasting.sol\":255:327  address WHITELISTED_ADDRESS = 0x228e0f99adf8bf367100BBFD9b090Bc0b15c89a9 */\n      swap1\n      pop\n        /* \"testCasting.sol\":379:398  WHITELISTED_ADDRESS */\n      dup1\n        /* \"testCasting.sol\":355:401  uint256(uint160(address(WHITELISTED_ADDRESS))) */\n      0xffffffffffffffffffffffffffffffffffffffff\n      and\n        /* \"testCasting.sol\":347:402  bytes32(uint256(uint160(address(WHITELISTED_ADDRESS)))) */\n      0x00\n      shl\n        /* \"testCasting.sol\":340:402  return bytes32(uint256(uint160(address(WHITELISTED_ADDRESS)))) */\n      swap2\n      pop\n      pop\n        /* \"testCasting.sol\":153:410  function cast() public view returns(bytes32) {... */\n      swap1\n      jump\t// out\n        /* \"testCasting.sol\":740:793  function test() public {... */\n    tag_26:\n        /* \"testCasting.sol\":781:785  num1 */\n      0x01\n        /* \"testCasting.sol\":774:785  delete num1 */\n      0x00\n      swap1\n      sstore\n        /* \"testCasting.sol\":740:793  function test() public {... */\n      jump\t// out\n        /* \"#utility.yul\":7:84   */\n    tag_33:\n        /* \"#utility.yul\":44:51   */\n      0x00\n        /* \"#utility.yul\":73:78   */\n      dup2\n        /* \"#utility.yul\":62:78   */\n      swap1\n      pop\n        /* \"#utility.yul\":7:84   */\n      swap2\n      swap1\n      pop\n      jump\t// out\n        /* \"#utility.yul\":90:208   */\n    tag_34:\n        /* \"#utility.yul\":177:201   */\n      tag_51\n        /* \"#utility.yul\":195:200   */\n      dup2\n        /* \"#utility.yul\":177:201   */\n      tag_33\n      jump\t// in\n    tag_51:\n        /* \"#utility.yul\":172:175   */\n      dup3\n        /* \"#utility.yul\":165:202   */\n      mstore\n        /* \"#utility.yul\":90:208   */\n      pop\n      pop\n      jump\t// out\n        /* \"#utility.yul\":214:436   */\n    tag_11:\n        /* \"#utility.yul\":307:311   */\n      0x00\n        /* \"#utility.yul\":345:347   */\n      0x20\n        /* \"#utility.yul\":334:343   */\n      dup3\n        /* \"#utility.yul\":330:348   */\n      add\n        /* \"#utility.yul\":322:348   */\n      swap1\n      pop\n        /* \"#utility.yul\":358:429   */\n      tag_53\n        /* \"#utility.yul\":426:427   */\n      0x00\n        /* \"#utility.yul\":415:424   */\n      dup4\n        /* \"#utility.yul\":411:428   */\n      add\n        /* \"#utility.yul\":402:408   */\n      dup5\n        /* \"#utility.yul\":358:429   */\n      tag_34\n      jump\t// in\n    tag_53:\n        /* \"#utility.yul\":214:436   */\n      swap3\n      swap2\n      pop\n      pop\n      jump\t// out\n        /* \"#utility.yul\":523:640   */\n    tag_36:\n        /* \"#utility.yul\":632:633   */\n      0x00\n        /* \"#utility.yul\":629:630   */\n      dup1\n        /* \"#utility.yul\":622:634   */\n      revert\n        /* \"#utility.yul\":769:846   */\n    tag_38:\n        /* \"#utility.yul\":806:813   */\n      0x00\n        /* \"#utility.yul\":835:840   */\n      dup2\n        /* \"#utility.yul\":824:840   */\n      swap1\n      pop\n        /* \"#utility.yul\":769:846   */\n      swap2\n      swap1\n      pop\n      jump\t// out\n        /* \"#utility.yul\":852:974   */\n    tag_39:\n        /* \"#utility.yul\":925:949   */\n      tag_59\n        /* \"#utility.yul\":943:948   */\n      dup2\n        /* \"#utility.yul\":925:949   */\n      tag_38\n      jump\t// in\n    tag_59:\n        /* \"#utility.yul\":918:923   */\n      dup2\n        /* \"#utility.yul\":915:950   */\n      eq\n        /* \"#utility.yul\":905:968   */\n      tag_60\n      jumpi\n        /* \"#utility.yul\":964:965   */\n      0x00\n        /* \"#utility.yul\":961:962   */\n      dup1\n        /* \"#utility.yul\":954:966   */\n      revert\n        /* \"#utility.yul\":905:968   */\n    tag_60:\n        /* \"#utility.yul\":852:974   */\n      pop\n      jump\t// out\n        /* \"#utility.yul\":980:1119   */\n    tag_40:\n        /* \"#utility.yul\":1026:1031   */\n      0x00\n        /* \"#utility.yul\":1064:1070   */\n      dup2\n        /* \"#utility.yul\":1051:1071   */\n      calldataload\n        /* \"#utility.yul\":1042:1071   */\n      swap1\n      pop\n        /* \"#utility.yul\":1080:1113   */\n      tag_62\n        /* \"#utility.yul\":1107:1112   */\n      dup2\n        /* \"#utility.yul\":1080:1113   */\n      tag_39\n      jump\t// in\n    tag_62:\n        /* \"#utility.yul\":980:1119   */\n      swap3\n      swap2\n      pop\n      pop\n      jump\t// out\n        /* \"#utility.yul\":1125:1454   */\n    tag_17:\n        /* \"#utility.yul\":1184:1190   */\n      0x00\n        /* \"#utility.yul\":1233:1235   */\n      0x20\n        /* \"#utility.yul\":1221:1230   */\n      dup3\n        /* \"#utility.yul\":1212:1219   */\n      dup5\n        /* \"#utility.yul\":1208:1231   */\n      sub\n        /* \"#utility.yul\":1204:1236   */\n      slt\n        /* \"#utility.yul\":1201:1320   */\n      iszero\n      tag_64\n      jumpi\n        /* \"#utility.yul\":1239:1318   */\n      tag_65\n      tag_36\n      jump\t// in\n    tag_65:\n        /* \"#utility.yul\":1201:1320   */\n    tag_64:\n        /* \"#utility.yul\":1359:1360   */\n      0x00\n        /* \"#utility.yul\":1384:1437   */\n      tag_66\n        /* \"#utility.yul\":1429:1436   */\n      dup5\n        /* \"#utility.yul\":1420:1426   */\n      dup3\n        /* \"#utility.yul\":1409:1418   */\n      dup6\n        /* \"#utility.yul\":1405:1427   */\n      add\n        /* \"#utility.yul\":1384:1437   */\n      tag_40\n      jump\t// in\n    tag_66:\n        /* \"#utility.yul\":1374:1437   */\n      swap2\n      pop\n        /* \"#utility.yul\":1330:1447   */\n      pop\n        /* \"#utility.yul\":1125:1454   */\n      swap3\n      swap2\n      pop\n      pop\n      jump\t// out\n        /* \"#utility.yul\":1460:1586   */\n    tag_41:\n        /* \"#utility.yul\":1497:1504   */\n      0x00\n        /* \"#utility.yul\":1537:1579   */\n      0xffffffffffffffffffffffffffffffffffffffff\n        /* \"#utility.yul\":1530:1535   */\n      dup3\n        /* \"#utility.yul\":1526:1580   */\n      and\n        /* \"#utility.yul\":1515:1580   */\n      swap1\n      pop\n        /* \"#utility.yul\":1460:1586   */\n      swap2\n      swap1\n      pop\n      jump\t// out\n        /* \"#utility.yul\":1592:1688   */\n    tag_42:\n        /* \"#utility.yul\":1629:1636   */\n      0x00\n        /* \"#utility.yul\":1658:1682   */\n      tag_69\n        /* \"#utility.yul\":1676:1681   */\n      dup3\n        /* \"#utility.yul\":1658:1682   */\n      tag_41\n      jump\t// in\n    tag_69:\n        /* \"#utility.yul\":1647:1682   */\n      swap1\n      pop\n        /* \"#utility.yul\":1592:1688   */\n      swap2\n      swap1\n      pop\n      jump\t// out\n        /* \"#utility.yul\":1694:1812   */\n    tag_43:\n        /* \"#utility.yul\":1781:1805   */\n      tag_71\n        /* \"#utility.yul\":1799:1804   */\n      dup2\n        /* \"#utility.yul\":1781:1805   */\n      tag_42\n      jump\t// in\n    tag_71:\n        /* \"#utility.yul\":1776:1779   */\n      dup3\n        /* \"#utility.yul\":1769:1806   */\n      mstore\n        /* \"#utility.yul\":1694:1812   */\n      pop\n      pop\n      jump\t// out\n        /* \"#utility.yul\":1818:2040   */\n    tag_20:\n        /* \"#utility.yul\":1911:1915   */\n      0x00\n        /* \"#utility.yul\":1949:1951   */\n      0x20\n        /* \"#utility.yul\":1938:1947   */\n      dup3\n        /* \"#utility.yul\":1934:1952   */\n      add\n        /* \"#utility.yul\":1926:1952   */\n      swap1\n      pop\n        /* \"#utility.yul\":1962:2033   */\n      tag_73\n        /* \"#utility.yul\":2030:2031   */\n      0x00\n        /* \"#utility.yul\":2019:2028   */\n      dup4\n        /* \"#utility.yul\":2015:2032   */\n      add\n        /* \"#utility.yul\":2006:2012   */\n      dup5\n        /* \"#utility.yul\":1962:2033   */\n      tag_43\n      jump\t// in\n    tag_73:\n        /* \"#utility.yul\":1818:2040   */\n      swap3\n      swap2\n      pop\n      pop\n      jump\t// out\n        /* \"#utility.yul\":2046:2164   */\n    tag_44:\n        /* \"#utility.yul\":2133:2157   */\n      tag_75\n        /* \"#utility.yul\":2151:2156   */\n      dup2\n        /* \"#utility.yul\":2133:2157   */\n      tag_38\n      jump\t// in\n    tag_75:\n        /* \"#utility.yul\":2128:2131   */\n      dup3\n        /* \"#utility.yul\":2121:2158   */\n      mstore\n        /* \"#utility.yul\":2046:2164   */\n      pop\n      pop\n      jump\t// out\n        /* \"#utility.yul\":2170:2392   */\n    tag_24:\n        /* \"#utility.yul\":2263:2267   */\n      0x00\n        /* \"#utility.yul\":2301:2303   */\n      0x20\n        /* \"#utility.yul\":2290:2299   */\n      dup3\n        /* \"#utility.yul\":2286:2304   */\n      add\n        /* \"#utility.yul\":2278:2304   */\n      swap1\n      pop\n        /* \"#utility.yul\":2314:2385   */\n      tag_77\n        /* \"#utility.yul\":2382:2383   */\n      0x00\n        /* \"#utility.yul\":2371:2380   */\n      dup4\n        /* \"#utility.yul\":2367:2384   */\n      add\n        /* \"#utility.yul\":2358:2364   */\n      dup5\n        /* \"#utility.yul\":2314:2385   */\n      tag_44\n      jump\t// in\n    tag_77:\n        /* \"#utility.yul\":2170:2392   */\n      swap3\n      swap2\n      pop\n      pop\n      jump\t// out\n        /* \"#utility.yul\":2398:2567   */\n    tag_45:\n        /* \"#utility.yul\":2482:2493   */\n      0x00\n        /* \"#utility.yul\":2516:2522   */\n      dup3\n        /* \"#utility.yul\":2511:2514   */\n      dup3\n        /* \"#utility.yul\":2504:2523   */\n      mstore\n        /* \"#utility.yul\":2556:2560   */\n      0x20\n        /* \"#utility.yul\":2551:2554   */\n      dup3\n        /* \"#utility.yul\":2547:2561   */\n      add\n        /* \"#utility.yul\":2532:2561   */\n      swap1\n      pop\n        /* \"#utility.yul\":2398:2567   */\n      swap3\n      swap2\n      pop\n      pop\n      jump\t// out\n        /* \"#utility.yul\":2573:2731   */\n    tag_46:\n        /* \"#utility.yul\":2713:2723   */\n      0x4572726f69727372000000000000000000000000000000000000000000000000\n        /* \"#utility.yul\":2709:2710   */\n      0x00\n        /* \"#utility.yul\":2701:2707   */\n      dup3\n        /* \"#utility.yul\":2697:2711   */\n      add\n        /* \"#utility.yul\":2690:2724   */\n      mstore\n        /* \"#utility.yul\":2573:2731   */\n      pop\n      jump\t// out\n        /* \"#utility.yul\":2737:3102   */\n    tag_47:\n        /* \"#utility.yul\":2879:2882   */\n      0x00\n        /* \"#utility.yul\":2900:2966   */\n      tag_81\n        /* \"#utility.yul\":2964:2965   */\n      0x08\n        /* \"#utility.yul\":2959:2962   */\n      dup4\n        /* \"#utility.yul\":2900:2966   */\n      tag_45\n      jump\t// in\n    tag_81:\n        /* \"#utility.yul\":2893:2966   */\n      swap2\n      pop\n        /* \"#utility.yul\":2975:3068   */\n      tag_82\n        /* \"#utility.yul\":3064:3067   */\n      dup3\n        /* \"#utility.yul\":2975:3068   */\n      tag_46\n      jump\t// in\n    tag_82:\n        /* \"#utility.yul\":3093:3095   */\n      0x20\n        /* \"#utility.yul\":3088:3091   */\n      dup3\n        /* \"#utility.yul\":3084:3096   */\n      add\n        /* \"#utility.yul\":3077:3096   */\n      swap1\n      pop\n        /* \"#utility.yul\":2737:3102   */\n      swap2\n      swap1\n      pop\n      jump\t// out\n        /* \"#utility.yul\":3108:3527   */\n    tag_30:\n        /* \"#utility.yul\":3274:3278   */\n      0x00\n        /* \"#utility.yul\":3312:3314   */\n      0x20\n        /* \"#utility.yul\":3301:3310   */\n      dup3\n        /* \"#utility.yul\":3297:3315   */\n      add\n        /* \"#utility.yul\":3289:3315   */\n      swap1\n      pop\n        /* \"#utility.yul\":3361:3370   */\n      dup2\n        /* \"#utility.yul\":3355:3359   */\n      dup2\n        /* \"#utility.yul\":3351:3371   */\n      sub\n        /* \"#utility.yul\":3347:3348   */\n      0x00\n        /* \"#utility.yul\":3336:3345   */\n      dup4\n        /* \"#utility.yul\":3332:3349   */\n      add\n        /* \"#utility.yul\":3325:3372   */\n      mstore\n        /* \"#utility.yul\":3389:3520   */\n      tag_84\n        /* \"#utility.yul\":3515:3519   */\n      dup2\n        /* \"#utility.yul\":3389:3520   */\n      tag_47\n      jump\t// in\n    tag_84:\n        /* \"#utility.yul\":3381:3520   */\n      swap1\n      pop\n        /* \"#utility.yul\":3108:3527   */\n      swap2\n      swap1\n      pop\n      jump\t// out\n\n    auxdata: 0xa26469706673582212203362ad5b7c2276d82c55bd2a930bfa2b6291bccb52c48969aeab9001a3fd750e64736f6c63430008160033\n}\n",
				"bytecode": {
					"linkReferences": {},
					"object": "6080604052600c600155348015610014575f80fd5b50610361806100225f395ff3fe608060405234801561000f575f80fd5b5060043610610055575f3560e01c80633b9eac4b146100595780634e70b1dc146100775780635ced058e1461009557806396d373e5146100c5578063f8a8fd6d146100e3575b5f80fd5b6100616100ed565b60405161006e91906101b8565b60405180910390f35b61007f6100f3565b60405161008c91906101b8565b60405180910390f35b6100af60048036038101906100aa9190610208565b6100f8565b6040516100bc9190610272565b60405180910390f35b6100cd610161565b6040516100da919061029a565b60405180910390f35b6100eb610199565b005b60015481565b5f5481565b5f80825f1c905073ffffffffffffffffffffffffffffffffffffffff8016811115610158576040517f08c379a000000000000000000000000000000000000000000000000000000000815260040161014f9061030d565b60405180910390fd5b80915050919050565b5f8073228e0f99adf8bf367100bbfd9b090bc0b15c89a990508073ffffffffffffffffffffffffffffffffffffffff165f1b91505090565b60015f9055565b5f819050919050565b6101b2816101a0565b82525050565b5f6020820190506101cb5f8301846101a9565b92915050565b5f80fd5b5f819050919050565b6101e7816101d5565b81146101f1575f80fd5b50565b5f81359050610202816101de565b92915050565b5f6020828403121561021d5761021c6101d1565b5b5f61022a848285016101f4565b91505092915050565b5f73ffffffffffffffffffffffffffffffffffffffff82169050919050565b5f61025c82610233565b9050919050565b61026c81610252565b82525050565b5f6020820190506102855f830184610263565b92915050565b610294816101d5565b82525050565b5f6020820190506102ad5f83018461028b565b92915050565b5f82825260208201905092915050565b7f4572726f697273720000000000000000000000000000000000000000000000005f82015250565b5f6102f76008836102b3565b9150610302826102c3565b602082019050919050565b5f6020820190508181035f830152610324816102eb565b905091905056fea26469706673582212203362ad5b7c2276d82c55bd2a930bfa2b6291bccb52c48969aeab9001a3fd750e64736f6c63430008160033",
					"opcodes": "PUSH1 0x80 PUSH1 0x40 MSTORE PUSH1 0xC PUSH1 0x1 SSTORE CALLVALUE DUP1 ISZERO PUSH2 0x14 JUMPI PUSH0 DUP1 REVERT JUMPDEST POP PUSH2 0x361 DUP1 PUSH2 0x22 PUSH0 CODECOPY PUSH0 RETURN INVALID PUSH1 0x80 PUSH1 0x40 MSTORE CALLVALUE DUP1 ISZERO PUSH2 0xF JUMPI PUSH0 DUP1 REVERT JUMPDEST POP PUSH1 0x4 CALLDATASIZE LT PUSH2 0x55 JUMPI PUSH0 CALLDATALOAD PUSH1 0xE0 SHR DUP1 PUSH4 0x3B9EAC4B EQ PUSH2 0x59 JUMPI DUP1 PUSH4 0x4E70B1DC EQ PUSH2 0x77 JUMPI DUP1 PUSH4 0x5CED058E EQ PUSH2 0x95 JUMPI DUP1 PUSH4 0x96D373E5 EQ PUSH2 0xC5 JUMPI DUP1 PUSH4 0xF8A8FD6D EQ PUSH2 0xE3 JUMPI JUMPDEST PUSH0 DUP1 REVERT JUMPDEST PUSH2 0x61 PUSH2 0xED JUMP JUMPDEST PUSH1 0x40 MLOAD PUSH2 0x6E SWAP2 SWAP1 PUSH2 0x1B8 JUMP JUMPDEST PUSH1 0x40 MLOAD DUP1 SWAP2 SUB SWAP1 RETURN JUMPDEST PUSH2 0x7F PUSH2 0xF3 JUMP JUMPDEST PUSH1 0x40 MLOAD PUSH2 0x8C SWAP2 SWAP1 PUSH2 0x1B8 JUMP JUMPDEST PUSH1 0x40 MLOAD DUP1 SWAP2 SUB SWAP1 RETURN JUMPDEST PUSH2 0xAF PUSH1 0x4 DUP1 CALLDATASIZE SUB DUP2 ADD SWAP1 PUSH2 0xAA SWAP2 SWAP1 PUSH2 0x208 JUMP JUMPDEST PUSH2 0xF8 JUMP JUMPDEST PUSH1 0x40 MLOAD PUSH2 0xBC SWAP2 SWAP1 PUSH2 0x272 JUMP JUMPDEST PUSH1 0x40 MLOAD DUP1 SWAP2 SUB SWAP1 RETURN JUMPDEST PUSH2 0xCD PUSH2 0x161 JUMP JUMPDEST PUSH1 0x40 MLOAD PUSH2 0xDA SWAP2 SWAP1 PUSH2 0x29A JUMP JUMPDEST PUSH1 0x40 MLOAD DUP1 SWAP2 SUB SWAP1 RETURN JUMPDEST PUSH2 0xEB PUSH2 0x199 JUMP JUMPDEST STOP JUMPDEST PUSH1 0x1 SLOAD DUP2 JUMP JUMPDEST PUSH0 SLOAD DUP2 JUMP JUMPDEST PUSH0 DUP1 DUP3 PUSH0 SHR SWAP1 POP PUSH20 0xFFFFFFFFFFFFFFFFFFFFFFFFFFFFFFFFFFFFFFFF DUP1 AND DUP2 GT ISZERO PUSH2 0x158 JUMPI PUSH1 0x40 MLOAD PUSH32 0x8C379A000000000000000000000000000000000000000000000000000000000 DUP2 MSTORE PUSH1 0x4 ADD PUSH2 0x14F SWAP1 PUSH2 0x30D JUMP JUMPDEST PUSH1 0x40 MLOAD DUP1 SWAP2 SUB SWAP1 REVERT JUMPDEST DUP1 SWAP2 POP POP SWAP2 SWAP1 POP JUMP JUMPDEST PUSH0 DUP1 PUSH20 0x228E0F99ADF8BF367100BBFD9B090BC0B15C89A9 SWAP1 POP DUP1 PUSH20 0xFFFFFFFFFFFFFFFFFFFFFFFFFFFFFFFFFFFFFFFF AND PUSH0 SHL SWAP2 POP POP SWAP1 JUMP JUMPDEST PUSH1 0x1 PUSH0 SWAP1 SSTORE JUMP JUMPDEST PUSH0 DUP2 SWAP1 POP SWAP2 SWAP1 POP JUMP JUMPDEST PUSH2 0x1B2 DUP2 PUSH2 0x1A0 JUMP JUMPDEST DUP3 MSTORE POP POP JUMP JUMPDEST PUSH0 PUSH1 0x20 DUP3 ADD SWAP1 POP PUSH2 0x1CB PUSH0 DUP4 ADD DUP5 PUSH2 0x1A9 JUMP JUMPDEST SWAP3 SWAP2 POP POP JUMP JUMPDEST PUSH0 DUP1 REVERT JUMPDEST PUSH0 DUP2 SWAP1 POP SWAP2 SWAP1 POP JUMP JUMPDEST PUSH2 0x1E7 DUP2 PUSH2 0x1D5 JUMP JUMPDEST DUP2 EQ PUSH2 0x1F1 JUMPI PUSH0 DUP1 REVERT JUMPDEST POP JUMP JUMPDEST PUSH0 DUP2 CALLDATALOAD SWAP1 POP PUSH2 0x202 DUP2 PUSH2 0x1DE JUMP JUMPDEST SWAP3 SWAP2 POP POP JUMP JUMPDEST PUSH0 PUSH1 0x20 DUP3 DUP5 SUB SLT ISZERO PUSH2 0x21D JUMPI PUSH2 0x21C PUSH2 0x1D1 JUMP JUMPDEST JUMPDEST PUSH0 PUSH2 0x22A DUP5 DUP3 DUP6 ADD PUSH2 0x1F4 JUMP JUMPDEST SWAP2 POP POP SWAP3 SWAP2 POP POP JUMP JUMPDEST PUSH0 PUSH20 0xFFFFFFFFFFFFFFFFFFFFFFFFFFFFFFFFFFFFFFFF DUP3 AND SWAP1 POP SWAP2 SWAP1 POP JUMP JUMPDEST PUSH0 PUSH2 0x25C DUP3 PUSH2 0x233 JUMP JUMPDEST SWAP1 POP SWAP2 SWAP1 POP JUMP JUMPDEST PUSH2 0x26C DUP2 PUSH2 0x252 JUMP JUMPDEST DUP3 MSTORE POP POP JUMP JUMPDEST PUSH0 PUSH1 0x20 DUP3 ADD SWAP1 POP PUSH2 0x285 PUSH0 DUP4 ADD DUP5 PUSH2 0x263 JUMP JUMPDEST SWAP3 SWAP2 POP POP JUMP JUMPDEST PUSH2 0x294 DUP2 PUSH2 0x1D5 JUMP JUMPDEST DUP3 MSTORE POP POP JUMP JUMPDEST PUSH0 PUSH1 0x20 DUP3 ADD SWAP1 POP PUSH2 0x2AD PUSH0 DUP4 ADD DUP5 PUSH2 0x28B JUMP JUMPDEST SWAP3 SWAP2 POP POP JUMP JUMPDEST PUSH0 DUP3 DUP3 MSTORE PUSH1 0x20 DUP3 ADD SWAP1 POP SWAP3 SWAP2 POP POP JUMP JUMPDEST PUSH32 0x4572726F69727372000000000000000000000000000000000000000000000000 PUSH0 DUP3 ADD MSTORE POP JUMP JUMPDEST PUSH0 PUSH2 0x2F7 PUSH1 0x8 DUP4 PUSH2 0x2B3 JUMP JUMPDEST SWAP2 POP PUSH2 0x302 DUP3 PUSH2 0x2C3 JUMP JUMPDEST PUSH1 0x20 DUP3 ADD SWAP1 POP SWAP2 SWAP1 POP JUMP JUMPDEST PUSH0 PUSH1 0x20 DUP3 ADD SWAP1 POP DUP2 DUP2 SUB PUSH0 DUP4 ADD MSTORE PUSH2 0x324 DUP2 PUSH2 0x2EB JUMP JUMPDEST SWAP1 POP SWAP2 SWAP1 POP JUMP INVALID LOG2 PUSH5 0x6970667358 0x22 SLT KECCAK256 CALLER PUSH3 0xAD5B7C 0x22 PUSH23 0xD82C55BD2A930BFA2B6291BCCB52C48969AEAB9001A3FD PUSH22 0xE64736F6C6343000816003300000000000000000000 "
				},
				"gasEstimates": {
					"creation": {
						"codeDepositCost": "173000",
						"executionCost": "22324",
						"totalCost": "195324"
					},
					"external": {
						"bytes32ToAddress(bytes32)": "755",
						"cast()": "400",
						"num()": "2424",
						"num1()": "2403",
						"test()": "5217"
					}
				},
				"methodIdentifiers": {
					"bytes32ToAddress(bytes32)": "5ced058e",
					"cast()": "96d373e5",
					"num()": "4e70b1dc",
					"num1()": "3b9eac4b",
					"test()": "f8a8fd6d"
				}
			},
			"storageLayout": {
				"storage": [
					{
						"astId": 3,
						"contract": "testCasting.sol:RouterOnPool",
						"label": "num",
						"offset": 0,
						"slot": "0",
						"type": "t_uint256"
					},
					{
						"astId": 6,
						"contract": "testCasting.sol:RouterOnPool",
						"label": "num1",
						"offset": 0,
						"slot": "1",
						"type": "t_uint256"
					}
				],
				"types": {
					"t_uint256": {
						"encoding": "inplace",
						"label": "uint256",
						"numberOfBytes": "32"
					}
				}
			},
			"userdoc": {
				"kind": "user",
				"methods": {},
				"version": 1
			}
		}
	}
}