{
	"testCasting.sol": {
		"RouterOnPool": {
			"abi": [
				{
					"inputs": [],
					"name": "cast",
					"outputs": [
						{
							"internalType": "uint128",
							"name": "",
							"type": "uint128"
						}
					],
					"stateMutability": "view",
					"type": "function"
				},
				{
					"inputs": [],
					"name": "num",
					"outputs": [
						{
							"internalType": "uint256",
							"name": "",
							"type": "uint256"
						}
					],
					"stateMutability": "view",
					"type": "function"
				}
			],
			"devdoc": {
				"kind": "dev",
				"methods": {},
				"version": 1
			},
			"evm": {
				"assembly": "    /* \"testCasting.sol\":68:273  contract RouterOnPool {... */\n  mstore(0x40, 0x80)\n  callvalue\n  dup1\n  iszero\n  tag_1\n  jumpi\n  0x00\n  dup1\n  revert\ntag_1:\n  pop\n  dataSize(sub_0)\n  dup1\n  dataOffset(sub_0)\n  0x00\n  codecopy\n  0x00\n  return\nstop\n\nsub_0: assembly {\n        /* \"testCasting.sol\":68:273  contract RouterOnPool {... */\n      mstore(0x40, 0x80)\n      callvalue\n      dup1\n      iszero\n      tag_1\n      jumpi\n      0x00\n      dup1\n      revert\n    tag_1:\n      pop\n      jumpi(tag_2, lt(calldatasize, 0x04))\n      shr(0xe0, calldataload(0x00))\n      dup1\n      0x4e70b1dc\n      eq\n      tag_3\n      jumpi\n      dup1\n      0x96d373e5\n      eq\n      tag_4\n      jumpi\n    tag_2:\n      0x00\n      dup1\n      revert\n        /* \"testCasting.sol\":99:114  uint public num */\n    tag_3:\n      tag_5\n      tag_6\n      jump\t// in\n    tag_5:\n      mload(0x40)\n      tag_7\n      swap2\n      swap1\n      tag_8\n      jump\t// in\n    tag_7:\n      mload(0x40)\n      dup1\n      swap2\n      sub\n      swap1\n      return\n        /* \"testCasting.sol\":123:268  function cast() public view returns(uint128) {... */\n    tag_4:\n      tag_9\n      tag_10\n      jump\t// in\n    tag_9:\n      mload(0x40)\n      tag_11\n      swap2\n      swap1\n      tag_12\n      jump\t// in\n    tag_11:\n      mload(0x40)\n      dup1\n      swap2\n      sub\n      swap1\n      return\n        /* \"testCasting.sol\":99:114  uint public num */\n    tag_6:\n      sload(0x00)\n      dup2\n      jump\t// out\n        /* \"testCasting.sol\":123:268  function cast() public view returns(uint128) {... */\n    tag_10:\n        /* \"testCasting.sol\":159:166  uint128 */\n      0x00\n        /* \"testCasting.sol\":242:259  type(uint256).max */\n      0xffffffffffffffffffffffffffffffffffffffffffffffffffffffffffffffff\n        /* \"testCasting.sol\":227:260  return uint128(type(uint256).max) */\n      swap1\n      pop\n        /* \"testCasting.sol\":123:268  function cast() public view returns(uint128) {... */\n      swap1\n      jump\t// out\n        /* \"#utility.yul\":7:84   */\n    tag_14:\n        /* \"#utility.yul\":44:51   */\n      0x00\n        /* \"#utility.yul\":73:78   */\n      dup2\n        /* \"#utility.yul\":62:78   */\n      swap1\n      pop\n        /* \"#utility.yul\":7:84   */\n      swap2\n      swap1\n      pop\n      jump\t// out\n        /* \"#utility.yul\":90:208   */\n    tag_15:\n        /* \"#utility.yul\":177:201   */\n      tag_21\n        /* \"#utility.yul\":195:200   */\n      dup2\n        /* \"#utility.yul\":177:201   */\n      tag_14\n      jump\t// in\n    tag_21:\n        /* \"#utility.yul\":172:175   */\n      dup3\n        /* \"#utility.yul\":165:202   */\n      mstore\n        /* \"#utility.yul\":90:208   */\n      pop\n      pop\n      jump\t// out\n        /* \"#utility.yul\":214:436   */\n    tag_8:\n        /* \"#utility.yul\":307:311   */\n      0x00\n        /* \"#utility.yul\":345:347   */\n      0x20\n        /* \"#utility.yul\":334:343   */\n      dup3\n        /* \"#utility.yul\":330:348   */\n      add\n        /* \"#utility.yul\":322:348   */\n      swap1\n      pop\n        /* \"#utility.yul\":358:429   */\n      tag_23\n        /* \"#utility.yul\":426:427   */\n      0x00\n        /* \"#utility.yul\":415:424   */\n      dup4\n        /* \"#utility.yul\":411:428   */\n      add\n        /* \"#utility.yul\":402:408   */\n      dup5\n        /* \"#utility.yul\":358:429   */\n      tag_15\n      jump\t// in\n    tag_23:\n        /* \"#utility.yul\":214:436   */\n      swap3\n      swap2\n      pop\n      pop\n      jump\t// out\n        /* \"#utility.yul\":442:560   */\n    tag_16:\n        /* \"#utility.yul\":479:486   */\n      0x00\n        /* \"#utility.yul\":519:553   */\n      0xffffffffffffffffffffffffffffffff\n        /* \"#utility.yul\":512:517   */\n      dup3\n        /* \"#utility.yul\":508:554   */\n      and\n        /* \"#utility.yul\":497:554   */\n      swap1\n      pop\n        /* \"#utility.yul\":442:560   */\n      swap2\n      swap1\n      pop\n      jump\t// out\n        /* \"#utility.yul\":566:684   */\n    tag_17:\n        /* \"#utility.yul\":653:677   */\n      tag_26\n        /* \"#utility.yul\":671:676   */\n      dup2\n        /* \"#utility.yul\":653:677   */\n      tag_16\n      jump\t// in\n    tag_26:\n        /* \"#utility.yul\":648:651   */\n      dup3\n        /* \"#utility.yul\":641:678   */\n      mstore\n        /* \"#utility.yul\":566:684   */\n      pop\n      pop\n      jump\t// out\n        /* \"#utility.yul\":690:912   */\n    tag_12:\n        /* \"#utility.yul\":783:787   */\n      0x00\n        /* \"#utility.yul\":821:823   */\n      0x20\n        /* \"#utility.yul\":810:819   */\n      dup3\n        /* \"#utility.yul\":806:824   */\n      add\n        /* \"#utility.yul\":798:824   */\n      swap1\n      pop\n        /* \"#utility.yul\":834:905   */\n      tag_28\n        /* \"#utility.yul\":902:903   */\n      0x00\n        /* \"#utility.yul\":891:900   */\n      dup4\n        /* \"#utility.yul\":887:904   */\n      add\n        /* \"#utility.yul\":878:884   */\n      dup5\n        /* \"#utility.yul\":834:905   */\n      tag_17\n      jump\t// in\n    tag_28:\n        /* \"#utility.yul\":690:912   */\n      swap3\n      swap2\n      pop\n      pop\n      jump\t// out\n\n    auxdata: 0xa2646970667358221220e20bab28f16a85d0629146572555a7049b776c7d6a08bdaa24b6ddc4bbef82f964736f6c63430008160033\n}\n",
				"bytecode": {
					"linkReferences": {},
					"object": "608060405234801561000f575f80fd5b5061014a8061001d5f395ff3fe608060405234801561000f575f80fd5b5060043610610034575f3560e01c80634e70b1dc1461003857806396d373e514610056575b5f80fd5b610040610074565b60405161004d91906100b8565b60405180910390f35b61005e610079565b60405161006b91906100fb565b60405180910390f35b5f5481565b5f7fffffffffffffffffffffffffffffffffffffffffffffffffffffffffffffffff905090565b5f819050919050565b6100b2816100a0565b82525050565b5f6020820190506100cb5f8301846100a9565b92915050565b5f6fffffffffffffffffffffffffffffffff82169050919050565b6100f5816100d1565b82525050565b5f60208201905061010e5f8301846100ec565b9291505056fea2646970667358221220e20bab28f16a85d0629146572555a7049b776c7d6a08bdaa24b6ddc4bbef82f964736f6c63430008160033",
					"opcodes": "PUSH1 0x80 PUSH1 0x40 MSTORE CALLVALUE DUP1 ISZERO PUSH2 0xF JUMPI PUSH0 DUP1 REVERT JUMPDEST POP PUSH2 0x14A DUP1 PUSH2 0x1D PUSH0 CODECOPY PUSH0 RETURN INVALID PUSH1 0x80 PUSH1 0x40 MSTORE CALLVALUE DUP1 ISZERO PUSH2 0xF JUMPI PUSH0 DUP1 REVERT JUMPDEST POP PUSH1 0x4 CALLDATASIZE LT PUSH2 0x34 JUMPI PUSH0 CALLDATALOAD PUSH1 0xE0 SHR DUP1 PUSH4 0x4E70B1DC EQ PUSH2 0x38 JUMPI DUP1 PUSH4 0x96D373E5 EQ PUSH2 0x56 JUMPI JUMPDEST PUSH0 DUP1 REVERT JUMPDEST PUSH2 0x40 PUSH2 0x74 JUMP JUMPDEST PUSH1 0x40 MLOAD PUSH2 0x4D SWAP2 SWAP1 PUSH2 0xB8 JUMP JUMPDEST PUSH1 0x40 MLOAD DUP1 SWAP2 SUB SWAP1 RETURN JUMPDEST PUSH2 0x5E PUSH2 0x79 JUMP JUMPDEST PUSH1 0x40 MLOAD PUSH2 0x6B SWAP2 SWAP1 PUSH2 0xFB JUMP JUMPDEST PUSH1 0x40 MLOAD DUP1 SWAP2 SUB SWAP1 RETURN JUMPDEST PUSH0 SLOAD DUP2 JUMP JUMPDEST PUSH0 PUSH32 0xFFFFFFFFFFFFFFFFFFFFFFFFFFFFFFFFFFFFFFFFFFFFFFFFFFFFFFFFFFFFFFFF SWAP1 POP SWAP1 JUMP JUMPDEST PUSH0 DUP2 SWAP1 POP SWAP2 SWAP1 POP JUMP JUMPDEST PUSH2 0xB2 DUP2 PUSH2 0xA0 JUMP JUMPDEST DUP3 MSTORE POP POP JUMP JUMPDEST PUSH0 PUSH1 0x20 DUP3 ADD SWAP1 POP PUSH2 0xCB PUSH0 DUP4 ADD DUP5 PUSH2 0xA9 JUMP JUMPDEST SWAP3 SWAP2 POP POP JUMP JUMPDEST PUSH0 PUSH16 0xFFFFFFFFFFFFFFFFFFFFFFFFFFFFFFFF DUP3 AND SWAP1 POP SWAP2 SWAP1 POP JUMP JUMPDEST PUSH2 0xF5 DUP2 PUSH2 0xD1 JUMP JUMPDEST DUP3 MSTORE POP POP JUMP JUMPDEST PUSH0 PUSH1 0x20 DUP3 ADD SWAP1 POP PUSH2 0x10E PUSH0 DUP4 ADD DUP5 PUSH2 0xEC JUMP JUMPDEST SWAP3 SWAP2 POP POP JUMP INVALID LOG2 PUSH5 0x6970667358 0x22 SLT KECCAK256 0xE2 SIGNEXTEND 0xAB 0x28 CALL PUSH11 0x85D0629146572555A7049B PUSH24 0x6C7D6A08BDAA24B6DDC4BBEF82F964736F6C634300081600 CALLER "
				},
				"gasEstimates": {
					"creation": {
						"codeDepositCost": "66000",
						"executionCost": "115",
						"totalCost": "66115"
					},
					"external": {
						"cast()": "338",
						"num()": "2402"
					}
				},
				"methodIdentifiers": {
					"cast()": "96d373e5",
					"num()": "4e70b1dc"
				}
			},
			"storageLayout": {
				"storage": [
					{
						"astId": 3,
						"contract": "testCasting.sol:RouterOnPool",
						"label": "num",
						"offset": 0,
						"slot": "0",
						"type": "t_uint256"
					}
				],
				"types": {
					"t_uint256": {
						"encoding": "inplace",
						"label": "uint256",
						"numberOfBytes": "32"
					}
				}
			},
			"userdoc": {
				"kind": "user",
				"methods": {},
				"version": 1
			}
		}
	}
}