{
	"veToken/testMappingShadow.sol": {
		"Araay": {
			"abi": [
				{
					"inputs": [],
					"name": "te",
					"outputs": [
						{
							"internalType": "bool",
							"name": "",
							"type": "bool"
						}
					],
					"stateMutability": "pure",
					"type": "function"
				},
				{
					"inputs": [
						{
							"internalType": "uint128",
							"name": "wTime",
							"type": "uint128"
						}
					],
					"name": "totalSupplyAt",
					"outputs": [
						{
							"internalType": "uint128",
							"name": "totalSupply",
							"type": "uint128"
						}
					],
					"stateMutability": "view",
					"type": "function"
				}
			],
			"devdoc": {
				"kind": "dev",
				"methods": {},
				"version": 1
			},
			"evm": {
				"assembly": "    /* \"veToken/testMappingShadow.sol\":68:253  contract Araay {... */\n  mstore(0x40, 0x80)\n  callvalue\n  dup1\n  iszero\n  tag_1\n  jumpi\n  0x00\n  dup1\n  revert\ntag_1:\n  pop\n  dataSize(sub_0)\n  dup1\n  dataOffset(sub_0)\n  0x00\n  codecopy\n  0x00\n  return\nstop\n\nsub_0: assembly {\n        /* \"veToken/testMappingShadow.sol\":68:253  contract Araay {... */\n      mstore(0x40, 0x80)\n      callvalue\n      dup1\n      iszero\n      tag_1\n      jumpi\n      0x00\n      dup1\n      revert\n    tag_1:\n      pop\n      jumpi(tag_2, lt(calldatasize, 0x04))\n      shr(0xe0, calldataload(0x00))\n      dup1\n      0x25fc790f\n      eq\n      tag_3\n      jumpi\n      dup1\n      0x947975d9\n      eq\n      tag_4\n      jumpi\n    tag_2:\n      0x00\n      dup1\n      revert\n        /* \"veToken/testMappingShadow.sol\":175:246  function te() public pure returns(bool) {... */\n    tag_3:\n      tag_5\n      tag_6\n      jump\t// in\n    tag_5:\n      mload(0x40)\n      tag_7\n      swap2\n      swap1\n      tag_8\n      jump\t// in\n    tag_7:\n      mload(0x40)\n      dup1\n      swap2\n      sub\n      swap1\n      return\n        /* \"veToken/testMappingShadow.sol\":98:164  mapping(uint128 wTime => uint128 totalSupply) public totalSupplyAt */\n    tag_4:\n      tag_9\n      0x04\n      dup1\n      calldatasize\n      sub\n      dup2\n      add\n      swap1\n      tag_10\n      swap2\n      swap1\n      tag_11\n      jump\t// in\n    tag_10:\n      tag_12\n      jump\t// in\n    tag_9:\n      mload(0x40)\n      tag_13\n      swap2\n      swap1\n      tag_14\n      jump\t// in\n    tag_13:\n      mload(0x40)\n      dup1\n      swap2\n      sub\n      swap1\n      return\n        /* \"veToken/testMappingShadow.sol\":175:246  function te() public pure returns(bool) {... */\n    tag_6:\n        /* \"veToken/testMappingShadow.sol\":209:213  bool */\n      0x00\n        /* \"veToken/testMappingShadow.sol\":237:238  0 */\n      dup1\n        /* \"veToken/testMappingShadow.sol\":233:234  0 */\n      0x00\n        /* \"veToken/testMappingShadow.sol\":233:238  0 > 0 */\n      gt\n        /* \"veToken/testMappingShadow.sol\":226:238  return 0 > 0 */\n      swap1\n      pop\n        /* \"veToken/testMappingShadow.sol\":175:246  function te() public pure returns(bool) {... */\n      swap1\n      jump\t// out\n        /* \"veToken/testMappingShadow.sol\":98:164  mapping(uint128 wTime => uint128 totalSupply) public totalSupplyAt */\n    tag_12:\n      mstore(0x20, 0x00)\n      dup1\n      0x00\n      mstore\n      keccak256(0x00, 0x40)\n      0x00\n      swap2\n      pop\n      sload\n      swap1\n      0x0100\n      exp\n      swap1\n      div\n      0xffffffffffffffffffffffffffffffff\n      and\n      dup2\n      jump\t// out\n        /* \"#utility.yul\":7:97   */\n    tag_16:\n        /* \"#utility.yul\":41:48   */\n      0x00\n        /* \"#utility.yul\":84:89   */\n      dup2\n        /* \"#utility.yul\":77:90   */\n      iszero\n        /* \"#utility.yul\":70:91   */\n      iszero\n        /* \"#utility.yul\":59:91   */\n      swap1\n      pop\n        /* \"#utility.yul\":7:97   */\n      swap2\n      swap1\n      pop\n      jump\t// out\n        /* \"#utility.yul\":103:212   */\n    tag_17:\n        /* \"#utility.yul\":184:205   */\n      tag_28\n        /* \"#utility.yul\":199:204   */\n      dup2\n        /* \"#utility.yul\":184:205   */\n      tag_16\n      jump\t// in\n    tag_28:\n        /* \"#utility.yul\":179:182   */\n      dup3\n        /* \"#utility.yul\":172:206   */\n      mstore\n        /* \"#utility.yul\":103:212   */\n      pop\n      pop\n      jump\t// out\n        /* \"#utility.yul\":218:428   */\n    tag_8:\n        /* \"#utility.yul\":305:309   */\n      0x00\n        /* \"#utility.yul\":343:345   */\n      0x20\n        /* \"#utility.yul\":332:341   */\n      dup3\n        /* \"#utility.yul\":328:346   */\n      add\n        /* \"#utility.yul\":320:346   */\n      swap1\n      pop\n        /* \"#utility.yul\":356:421   */\n      tag_30\n        /* \"#utility.yul\":418:419   */\n      0x00\n        /* \"#utility.yul\":407:416   */\n      dup4\n        /* \"#utility.yul\":403:420   */\n      add\n        /* \"#utility.yul\":394:400   */\n      dup5\n        /* \"#utility.yul\":356:421   */\n      tag_17\n      jump\t// in\n    tag_30:\n        /* \"#utility.yul\":218:428   */\n      swap3\n      swap2\n      pop\n      pop\n      jump\t// out\n        /* \"#utility.yul\":515:632   */\n    tag_19:\n        /* \"#utility.yul\":624:625   */\n      0x00\n        /* \"#utility.yul\":621:622   */\n      dup1\n        /* \"#utility.yul\":614:626   */\n      revert\n        /* \"#utility.yul\":761:879   */\n    tag_21:\n        /* \"#utility.yul\":798:805   */\n      0x00\n        /* \"#utility.yul\":838:872   */\n      0xffffffffffffffffffffffffffffffff\n        /* \"#utility.yul\":831:836   */\n      dup3\n        /* \"#utility.yul\":827:873   */\n      and\n        /* \"#utility.yul\":816:873   */\n      swap1\n      pop\n        /* \"#utility.yul\":761:879   */\n      swap2\n      swap1\n      pop\n      jump\t// out\n        /* \"#utility.yul\":885:1007   */\n    tag_22:\n        /* \"#utility.yul\":958:982   */\n      tag_36\n        /* \"#utility.yul\":976:981   */\n      dup2\n        /* \"#utility.yul\":958:982   */\n      tag_21\n      jump\t// in\n    tag_36:\n        /* \"#utility.yul\":951:956   */\n      dup2\n        /* \"#utility.yul\":948:983   */\n      eq\n        /* \"#utility.yul\":938:1001   */\n      tag_37\n      jumpi\n        /* \"#utility.yul\":997:998   */\n      0x00\n        /* \"#utility.yul\":994:995   */\n      dup1\n        /* \"#utility.yul\":987:999   */\n      revert\n        /* \"#utility.yul\":938:1001   */\n    tag_37:\n        /* \"#utility.yul\":885:1007   */\n      pop\n      jump\t// out\n        /* \"#utility.yul\":1013:1152   */\n    tag_23:\n        /* \"#utility.yul\":1059:1064   */\n      0x00\n        /* \"#utility.yul\":1097:1103   */\n      dup2\n        /* \"#utility.yul\":1084:1104   */\n      calldataload\n        /* \"#utility.yul\":1075:1104   */\n      swap1\n      pop\n        /* \"#utility.yul\":1113:1146   */\n      tag_39\n        /* \"#utility.yul\":1140:1145   */\n      dup2\n        /* \"#utility.yul\":1113:1146   */\n      tag_22\n      jump\t// in\n    tag_39:\n        /* \"#utility.yul\":1013:1152   */\n      swap3\n      swap2\n      pop\n      pop\n      jump\t// out\n        /* \"#utility.yul\":1158:1487   */\n    tag_11:\n        /* \"#utility.yul\":1217:1223   */\n      0x00\n        /* \"#utility.yul\":1266:1268   */\n      0x20\n        /* \"#utility.yul\":1254:1263   */\n      dup3\n        /* \"#utility.yul\":1245:1252   */\n      dup5\n        /* \"#utility.yul\":1241:1264   */\n      sub\n        /* \"#utility.yul\":1237:1269   */\n      slt\n        /* \"#utility.yul\":1234:1353   */\n      iszero\n      tag_41\n      jumpi\n        /* \"#utility.yul\":1272:1351   */\n      tag_42\n      tag_19\n      jump\t// in\n    tag_42:\n        /* \"#utility.yul\":1234:1353   */\n    tag_41:\n        /* \"#utility.yul\":1392:1393   */\n      0x00\n        /* \"#utility.yul\":1417:1470   */\n      tag_43\n        /* \"#utility.yul\":1462:1469   */\n      dup5\n        /* \"#utility.yul\":1453:1459   */\n      dup3\n        /* \"#utility.yul\":1442:1451   */\n      dup6\n        /* \"#utility.yul\":1438:1460   */\n      add\n        /* \"#utility.yul\":1417:1470   */\n      tag_23\n      jump\t// in\n    tag_43:\n        /* \"#utility.yul\":1407:1470   */\n      swap2\n      pop\n        /* \"#utility.yul\":1363:1480   */\n      pop\n        /* \"#utility.yul\":1158:1487   */\n      swap3\n      swap2\n      pop\n      pop\n      jump\t// out\n        /* \"#utility.yul\":1493:1611   */\n    tag_24:\n        /* \"#utility.yul\":1580:1604   */\n      tag_45\n        /* \"#utility.yul\":1598:1603   */\n      dup2\n        /* \"#utility.yul\":1580:1604   */\n      tag_21\n      jump\t// in\n    tag_45:\n        /* \"#utility.yul\":1575:1578   */\n      dup3\n        /* \"#utility.yul\":1568:1605   */\n      mstore\n        /* \"#utility.yul\":1493:1611   */\n      pop\n      pop\n      jump\t// out\n        /* \"#utility.yul\":1617:1839   */\n    tag_14:\n        /* \"#utility.yul\":1710:1714   */\n      0x00\n        /* \"#utility.yul\":1748:1750   */\n      0x20\n        /* \"#utility.yul\":1737:1746   */\n      dup3\n        /* \"#utility.yul\":1733:1751   */\n      add\n        /* \"#utility.yul\":1725:1751   */\n      swap1\n      pop\n        /* \"#utility.yul\":1761:1832   */\n      tag_47\n        /* \"#utility.yul\":1829:1830   */\n      0x00\n        /* \"#utility.yul\":1818:1827   */\n      dup4\n        /* \"#utility.yul\":1814:1831   */\n      add\n        /* \"#utility.yul\":1805:1811   */\n      dup5\n        /* \"#utility.yul\":1761:1832   */\n      tag_24\n      jump\t// in\n    tag_47:\n        /* \"#utility.yul\":1617:1839   */\n      swap3\n      swap2\n      pop\n      pop\n      jump\t// out\n\n    auxdata: 0xa2646970667358221220691d190d9c89889e9f055bb1e760f3a93470be915c76596f1d46b9def1d8c3ee64736f6c63430008160033\n}\n",
				"bytecode": {
					"linkReferences": {},
					"object": "608060405234801561000f575f80fd5b506101bf8061001d5f395ff3fe608060405234801561000f575f80fd5b5060043610610034575f3560e01c806325fc790f14610038578063947975d914610056575b5f80fd5b610040610086565b60405161004d91906100d4565b60405180910390f35b610070600480360381019061006b9190610136565b61008f565b60405161007d9190610170565b60405180910390f35b5f805f11905090565b5f602052805f5260405f205f915054906101000a90046fffffffffffffffffffffffffffffffff1681565b5f8115159050919050565b6100ce816100ba565b82525050565b5f6020820190506100e75f8301846100c5565b92915050565b5f80fd5b5f6fffffffffffffffffffffffffffffffff82169050919050565b610115816100f1565b811461011f575f80fd5b50565b5f813590506101308161010c565b92915050565b5f6020828403121561014b5761014a6100ed565b5b5f61015884828501610122565b91505092915050565b61016a816100f1565b82525050565b5f6020820190506101835f830184610161565b9291505056fea2646970667358221220691d190d9c89889e9f055bb1e760f3a93470be915c76596f1d46b9def1d8c3ee64736f6c63430008160033",
					"opcodes": "PUSH1 0x80 PUSH1 0x40 MSTORE CALLVALUE DUP1 ISZERO PUSH2 0xF JUMPI PUSH0 DUP1 REVERT JUMPDEST POP PUSH2 0x1BF DUP1 PUSH2 0x1D PUSH0 CODECOPY PUSH0 RETURN INVALID PUSH1 0x80 PUSH1 0x40 MSTORE CALLVALUE DUP1 ISZERO PUSH2 0xF JUMPI PUSH0 DUP1 REVERT JUMPDEST POP PUSH1 0x4 CALLDATASIZE LT PUSH2 0x34 JUMPI PUSH0 CALLDATALOAD PUSH1 0xE0 SHR DUP1 PUSH4 0x25FC790F EQ PUSH2 0x38 JUMPI DUP1 PUSH4 0x947975D9 EQ PUSH2 0x56 JUMPI JUMPDEST PUSH0 DUP1 REVERT JUMPDEST PUSH2 0x40 PUSH2 0x86 JUMP JUMPDEST PUSH1 0x40 MLOAD PUSH2 0x4D SWAP2 SWAP1 PUSH2 0xD4 JUMP JUMPDEST PUSH1 0x40 MLOAD DUP1 SWAP2 SUB SWAP1 RETURN JUMPDEST PUSH2 0x70 PUSH1 0x4 DUP1 CALLDATASIZE SUB DUP2 ADD SWAP1 PUSH2 0x6B SWAP2 SWAP1 PUSH2 0x136 JUMP JUMPDEST PUSH2 0x8F JUMP JUMPDEST PUSH1 0x40 MLOAD PUSH2 0x7D SWAP2 SWAP1 PUSH2 0x170 JUMP JUMPDEST PUSH1 0x40 MLOAD DUP1 SWAP2 SUB SWAP1 RETURN JUMPDEST PUSH0 DUP1 PUSH0 GT SWAP1 POP SWAP1 JUMP JUMPDEST PUSH0 PUSH1 0x20 MSTORE DUP1 PUSH0 MSTORE PUSH1 0x40 PUSH0 KECCAK256 PUSH0 SWAP2 POP SLOAD SWAP1 PUSH2 0x100 EXP SWAP1 DIV PUSH16 0xFFFFFFFFFFFFFFFFFFFFFFFFFFFFFFFF AND DUP2 JUMP JUMPDEST PUSH0 DUP2 ISZERO ISZERO SWAP1 POP SWAP2 SWAP1 POP JUMP JUMPDEST PUSH2 0xCE DUP2 PUSH2 0xBA JUMP JUMPDEST DUP3 MSTORE POP POP JUMP JUMPDEST PUSH0 PUSH1 0x20 DUP3 ADD SWAP1 POP PUSH2 0xE7 PUSH0 DUP4 ADD DUP5 PUSH2 0xC5 JUMP JUMPDEST SWAP3 SWAP2 POP POP JUMP JUMPDEST PUSH0 DUP1 REVERT JUMPDEST PUSH0 PUSH16 0xFFFFFFFFFFFFFFFFFFFFFFFFFFFFFFFF DUP3 AND SWAP1 POP SWAP2 SWAP1 POP JUMP JUMPDEST PUSH2 0x115 DUP2 PUSH2 0xF1 JUMP JUMPDEST DUP2 EQ PUSH2 0x11F JUMPI PUSH0 DUP1 REVERT JUMPDEST POP JUMP JUMPDEST PUSH0 DUP2 CALLDATALOAD SWAP1 POP PUSH2 0x130 DUP2 PUSH2 0x10C JUMP JUMPDEST SWAP3 SWAP2 POP POP JUMP JUMPDEST PUSH0 PUSH1 0x20 DUP3 DUP5 SUB SLT ISZERO PUSH2 0x14B JUMPI PUSH2 0x14A PUSH2 0xED JUMP JUMPDEST JUMPDEST PUSH0 PUSH2 0x158 DUP5 DUP3 DUP6 ADD PUSH2 0x122 JUMP JUMPDEST SWAP2 POP POP SWAP3 SWAP2 POP POP JUMP JUMPDEST PUSH2 0x16A DUP2 PUSH2 0xF1 JUMP JUMPDEST DUP3 MSTORE POP POP JUMP JUMPDEST PUSH0 PUSH1 0x20 DUP3 ADD SWAP1 POP PUSH2 0x183 PUSH0 DUP4 ADD DUP5 PUSH2 0x161 JUMP JUMPDEST SWAP3 SWAP2 POP POP JUMP INVALID LOG2 PUSH5 0x6970667358 0x22 SLT KECCAK256 PUSH10 0x1D190D9C89889E9F055B 0xB1 0xE7 PUSH1 0xF3 0xA9 CALLVALUE PUSH17 0xBE915C76596F1D46B9DEF1D8C3EE64736F PUSH13 0x63430008160033000000000000 "
				},
				"gasEstimates": {
					"creation": {
						"codeDepositCost": "89400",
						"executionCost": "133",
						"totalCost": "89533"
					},
					"external": {
						"te()": "321",
						"totalSupplyAt(uint128)": "infinite"
					}
				},
				"methodIdentifiers": {
					"te()": "25fc790f",
					"totalSupplyAt(uint128)": "947975d9"
				}
			},
			"storageLayout": {
				"storage": [
					{
						"astId": 5,
						"contract": "veToken/testMappingShadow.sol:Araay",
						"label": "totalSupplyAt",
						"offset": 0,
						"slot": "0",
						"type": "t_mapping(t_uint128,t_uint128)"
					}
				],
				"types": {
					"t_mapping(t_uint128,t_uint128)": {
						"encoding": "mapping",
						"key": "t_uint128",
						"label": "mapping(uint128 => uint128)",
						"numberOfBytes": "32",
						"value": "t_uint128"
					},
					"t_uint128": {
						"encoding": "inplace",
						"label": "uint128",
						"numberOfBytes": "16"
					}
				}
			},
			"userdoc": {
				"kind": "user",
				"methods": {},
				"version": 1
			}
		}
	}
}