{
	"veToken/testShadowPointer.sol": {
		"Araay": {
			"abi": [
				{
					"inputs": [
						{
							"internalType": "bytes32",
							"name": "lockId",
							"type": "bytes32"
						},
						{
							"internalType": "uint256",
							"name": "",
							"type": "uint256"
						}
					],
					"name": "lockHistory",
					"outputs": [
						{
							"internalType": "uint256",
							"name": "bias",
							"type": "uint256"
						},
						{
							"internalType": "uint256",
							"name": "slope",
							"type": "uint256"
						}
					],
					"stateMutability": "view",
					"type": "function"
				},
				{
					"inputs": [
						{
							"internalType": "address",
							"name": "user",
							"type": "address"
						},
						{
							"internalType": "uint256",
							"name": "",
							"type": "uint256"
						}
					],
					"name": "userHistory",
					"outputs": [
						{
							"internalType": "uint256",
							"name": "bias",
							"type": "uint256"
						},
						{
							"internalType": "uint256",
							"name": "slope",
							"type": "uint256"
						}
					],
					"stateMutability": "view",
					"type": "function"
				}
			],
			"devdoc": {
				"kind": "dev",
				"methods": {},
				"version": 1
			},
			"evm": {
				"assembly": "    /* \"veToken/testShadowPointer.sol\":68:402  contract Araay {... */\n  mstore(0x40, 0x80)\n  callvalue\n  dup1\n  iszero\n  tag_1\n  jumpi\n  0x00\n  dup1\n  revert\ntag_1:\n  pop\n  dataSize(sub_0)\n  dup1\n  dataOffset(sub_0)\n  0x00\n  codecopy\n  0x00\n  return\nstop\n\nsub_0: assembly {\n        /* \"veToken/testShadowPointer.sol\":68:402  contract Araay {... */\n      mstore(0x40, 0x80)\n      callvalue\n      dup1\n      iszero\n      tag_1\n      jumpi\n      0x00\n      dup1\n      revert\n    tag_1:\n      pop\n      jumpi(tag_2, lt(calldatasize, 0x04))\n      shr(0xe0, calldataload(0x00))\n      dup1\n      0x22e8b990\n      eq\n      tag_3\n      jumpi\n      dup1\n      0xbc701e96\n      eq\n      tag_4\n      jumpi\n    tag_2:\n      0x00\n      dup1\n      revert\n        /* \"veToken/testShadowPointer.sol\":244:308  mapping(address user => VeBalance[] vePoints) public userHistory */\n    tag_3:\n      tag_5\n      0x04\n      dup1\n      calldatasize\n      sub\n      dup2\n      add\n      swap1\n      tag_6\n      swap2\n      swap1\n      tag_7\n      jump\t// in\n    tag_6:\n      tag_8\n      jump\t// in\n    tag_5:\n      mload(0x40)\n      tag_9\n      swap3\n      swap2\n      swap1\n      tag_10\n      jump\t// in\n    tag_9:\n      mload(0x40)\n      dup1\n      swap2\n      sub\n      swap1\n      return\n        /* \"veToken/testShadowPointer.sol\":171:237  mapping(bytes32 lockId => VeBalance[] vePoints) public lockHistory */\n    tag_4:\n      tag_11\n      0x04\n      dup1\n      calldatasize\n      sub\n      dup2\n      add\n      swap1\n      tag_12\n      swap2\n      swap1\n      tag_13\n      jump\t// in\n    tag_12:\n      tag_14\n      jump\t// in\n    tag_11:\n      mload(0x40)\n      tag_15\n      swap3\n      swap2\n      swap1\n      tag_10\n      jump\t// in\n    tag_15:\n      mload(0x40)\n      dup1\n      swap2\n      sub\n      swap1\n      return\n        /* \"veToken/testShadowPointer.sol\":244:308  mapping(address user => VeBalance[] vePoints) public userHistory */\n    tag_8:\n      mstore(0x20, 0x01)\n      dup2\n      0x00\n      mstore\n      keccak256(0x00, 0x40)\n      dup2\n      dup2\n      sload\n      dup2\n      lt\n      tag_16\n      jumpi\n      0x00\n      dup1\n      revert\n    tag_16:\n      swap1\n      0x00\n      mstore\n      keccak256(0x00, 0x20)\n      swap1\n      0x02\n      mul\n      add\n      0x00\n      swap2\n      pop\n      swap2\n      pop\n      pop\n      dup1\n      0x00\n      add\n      sload\n      swap1\n      dup1\n      0x01\n      add\n      sload\n      swap1\n      pop\n      dup3\n      jump\t// out\n        /* \"veToken/testShadowPointer.sol\":171:237  mapping(bytes32 lockId => VeBalance[] vePoints) public lockHistory */\n    tag_14:\n      mstore(0x20, 0x00)\n      dup2\n      0x00\n      mstore\n      keccak256(0x00, 0x40)\n      dup2\n      dup2\n      sload\n      dup2\n      lt\n      tag_18\n      jumpi\n      0x00\n      dup1\n      revert\n    tag_18:\n      swap1\n      0x00\n      mstore\n      keccak256(0x00, 0x20)\n      swap1\n      0x02\n      mul\n      add\n      0x00\n      swap2\n      pop\n      swap2\n      pop\n      pop\n      dup1\n      0x00\n      add\n      sload\n      swap1\n      dup1\n      0x01\n      add\n      sload\n      swap1\n      pop\n      dup3\n      jump\t// out\n        /* \"#utility.yul\":88:205   */\n    tag_21:\n        /* \"#utility.yul\":197:198   */\n      0x00\n        /* \"#utility.yul\":194:195   */\n      dup1\n        /* \"#utility.yul\":187:199   */\n      revert\n        /* \"#utility.yul\":334:460   */\n    tag_23:\n        /* \"#utility.yul\":371:378   */\n      0x00\n        /* \"#utility.yul\":411:453   */\n      0xffffffffffffffffffffffffffffffffffffffff\n        /* \"#utility.yul\":404:409   */\n      dup3\n        /* \"#utility.yul\":400:454   */\n      and\n        /* \"#utility.yul\":389:454   */\n      swap1\n      pop\n        /* \"#utility.yul\":334:460   */\n      swap2\n      swap1\n      pop\n      jump\t// out\n        /* \"#utility.yul\":466:562   */\n    tag_24:\n        /* \"#utility.yul\":503:510   */\n      0x00\n        /* \"#utility.yul\":532:556   */\n      tag_40\n        /* \"#utility.yul\":550:555   */\n      dup3\n        /* \"#utility.yul\":532:556   */\n      tag_23\n      jump\t// in\n    tag_40:\n        /* \"#utility.yul\":521:556   */\n      swap1\n      pop\n        /* \"#utility.yul\":466:562   */\n      swap2\n      swap1\n      pop\n      jump\t// out\n        /* \"#utility.yul\":568:690   */\n    tag_25:\n        /* \"#utility.yul\":641:665   */\n      tag_42\n        /* \"#utility.yul\":659:664   */\n      dup2\n        /* \"#utility.yul\":641:665   */\n      tag_24\n      jump\t// in\n    tag_42:\n        /* \"#utility.yul\":634:639   */\n      dup2\n        /* \"#utility.yul\":631:666   */\n      eq\n        /* \"#utility.yul\":621:684   */\n      tag_43\n      jumpi\n        /* \"#utility.yul\":680:681   */\n      0x00\n        /* \"#utility.yul\":677:678   */\n      dup1\n        /* \"#utility.yul\":670:682   */\n      revert\n        /* \"#utility.yul\":621:684   */\n    tag_43:\n        /* \"#utility.yul\":568:690   */\n      pop\n      jump\t// out\n        /* \"#utility.yul\":696:835   */\n    tag_26:\n        /* \"#utility.yul\":742:747   */\n      0x00\n        /* \"#utility.yul\":780:786   */\n      dup2\n        /* \"#utility.yul\":767:787   */\n      calldataload\n        /* \"#utility.yul\":758:787   */\n      swap1\n      pop\n        /* \"#utility.yul\":796:829   */\n      tag_45\n        /* \"#utility.yul\":823:828   */\n      dup2\n        /* \"#utility.yul\":796:829   */\n      tag_25\n      jump\t// in\n    tag_45:\n        /* \"#utility.yul\":696:835   */\n      swap3\n      swap2\n      pop\n      pop\n      jump\t// out\n        /* \"#utility.yul\":841:918   */\n    tag_27:\n        /* \"#utility.yul\":878:885   */\n      0x00\n        /* \"#utility.yul\":907:912   */\n      dup2\n        /* \"#utility.yul\":896:912   */\n      swap1\n      pop\n        /* \"#utility.yul\":841:918   */\n      swap2\n      swap1\n      pop\n      jump\t// out\n        /* \"#utility.yul\":924:1046   */\n    tag_28:\n        /* \"#utility.yul\":997:1021   */\n      tag_48\n        /* \"#utility.yul\":1015:1020   */\n      dup2\n        /* \"#utility.yul\":997:1021   */\n      tag_27\n      jump\t// in\n    tag_48:\n        /* \"#utility.yul\":990:995   */\n      dup2\n        /* \"#utility.yul\":987:1022   */\n      eq\n        /* \"#utility.yul\":977:1040   */\n      tag_49\n      jumpi\n        /* \"#utility.yul\":1036:1037   */\n      0x00\n        /* \"#utility.yul\":1033:1034   */\n      dup1\n        /* \"#utility.yul\":1026:1038   */\n      revert\n        /* \"#utility.yul\":977:1040   */\n    tag_49:\n        /* \"#utility.yul\":924:1046   */\n      pop\n      jump\t// out\n        /* \"#utility.yul\":1052:1191   */\n    tag_29:\n        /* \"#utility.yul\":1098:1103   */\n      0x00\n        /* \"#utility.yul\":1136:1142   */\n      dup2\n        /* \"#utility.yul\":1123:1143   */\n      calldataload\n        /* \"#utility.yul\":1114:1143   */\n      swap1\n      pop\n        /* \"#utility.yul\":1152:1185   */\n      tag_51\n        /* \"#utility.yul\":1179:1184   */\n      dup2\n        /* \"#utility.yul\":1152:1185   */\n      tag_28\n      jump\t// in\n    tag_51:\n        /* \"#utility.yul\":1052:1191   */\n      swap3\n      swap2\n      pop\n      pop\n      jump\t// out\n        /* \"#utility.yul\":1197:1671   */\n    tag_7:\n        /* \"#utility.yul\":1265:1271   */\n      0x00\n        /* \"#utility.yul\":1273:1279   */\n      dup1\n        /* \"#utility.yul\":1322:1324   */\n      0x40\n        /* \"#utility.yul\":1310:1319   */\n      dup4\n        /* \"#utility.yul\":1301:1308   */\n      dup6\n        /* \"#utility.yul\":1297:1320   */\n      sub\n        /* \"#utility.yul\":1293:1325   */\n      slt\n        /* \"#utility.yul\":1290:1409   */\n      iszero\n      tag_53\n      jumpi\n        /* \"#utility.yul\":1328:1407   */\n      tag_54\n      tag_21\n      jump\t// in\n    tag_54:\n        /* \"#utility.yul\":1290:1409   */\n    tag_53:\n        /* \"#utility.yul\":1448:1449   */\n      0x00\n        /* \"#utility.yul\":1473:1526   */\n      tag_55\n        /* \"#utility.yul\":1518:1525   */\n      dup6\n        /* \"#utility.yul\":1509:1515   */\n      dup3\n        /* \"#utility.yul\":1498:1507   */\n      dup7\n        /* \"#utility.yul\":1494:1516   */\n      add\n        /* \"#utility.yul\":1473:1526   */\n      tag_26\n      jump\t// in\n    tag_55:\n        /* \"#utility.yul\":1463:1526   */\n      swap3\n      pop\n        /* \"#utility.yul\":1419:1536   */\n      pop\n        /* \"#utility.yul\":1575:1577   */\n      0x20\n        /* \"#utility.yul\":1601:1654   */\n      tag_56\n        /* \"#utility.yul\":1646:1653   */\n      dup6\n        /* \"#utility.yul\":1637:1643   */\n      dup3\n        /* \"#utility.yul\":1626:1635   */\n      dup7\n        /* \"#utility.yul\":1622:1644   */\n      add\n        /* \"#utility.yul\":1601:1654   */\n      tag_29\n      jump\t// in\n    tag_56:\n        /* \"#utility.yul\":1591:1654   */\n      swap2\n      pop\n        /* \"#utility.yul\":1546:1664   */\n      pop\n        /* \"#utility.yul\":1197:1671   */\n      swap3\n      pop\n      swap3\n      swap1\n      pop\n      jump\t// out\n        /* \"#utility.yul\":1677:1795   */\n    tag_30:\n        /* \"#utility.yul\":1764:1788   */\n      tag_58\n        /* \"#utility.yul\":1782:1787   */\n      dup2\n        /* \"#utility.yul\":1764:1788   */\n      tag_27\n      jump\t// in\n    tag_58:\n        /* \"#utility.yul\":1759:1762   */\n      dup3\n        /* \"#utility.yul\":1752:1789   */\n      mstore\n        /* \"#utility.yul\":1677:1795   */\n      pop\n      pop\n      jump\t// out\n        /* \"#utility.yul\":1801:2133   */\n    tag_10:\n        /* \"#utility.yul\":1922:1926   */\n      0x00\n        /* \"#utility.yul\":1960:1962   */\n      0x40\n        /* \"#utility.yul\":1949:1958   */\n      dup3\n        /* \"#utility.yul\":1945:1963   */\n      add\n        /* \"#utility.yul\":1937:1963   */\n      swap1\n      pop\n        /* \"#utility.yul\":1973:2044   */\n      tag_60\n        /* \"#utility.yul\":2041:2042   */\n      0x00\n        /* \"#utility.yul\":2030:2039   */\n      dup4\n        /* \"#utility.yul\":2026:2043   */\n      add\n        /* \"#utility.yul\":2017:2023   */\n      dup6\n        /* \"#utility.yul\":1973:2044   */\n      tag_30\n      jump\t// in\n    tag_60:\n        /* \"#utility.yul\":2054:2126   */\n      tag_61\n        /* \"#utility.yul\":2122:2124   */\n      0x20\n        /* \"#utility.yul\":2111:2120   */\n      dup4\n        /* \"#utility.yul\":2107:2125   */\n      add\n        /* \"#utility.yul\":2098:2104   */\n      dup5\n        /* \"#utility.yul\":2054:2126   */\n      tag_30\n      jump\t// in\n    tag_61:\n        /* \"#utility.yul\":1801:2133   */\n      swap4\n      swap3\n      pop\n      pop\n      pop\n      jump\t// out\n        /* \"#utility.yul\":2139:2216   */\n    tag_31:\n        /* \"#utility.yul\":2176:2183   */\n      0x00\n        /* \"#utility.yul\":2205:2210   */\n      dup2\n        /* \"#utility.yul\":2194:2210   */\n      swap1\n      pop\n        /* \"#utility.yul\":2139:2216   */\n      swap2\n      swap1\n      pop\n      jump\t// out\n        /* \"#utility.yul\":2222:2344   */\n    tag_32:\n        /* \"#utility.yul\":2295:2319   */\n      tag_64\n        /* \"#utility.yul\":2313:2318   */\n      dup2\n        /* \"#utility.yul\":2295:2319   */\n      tag_31\n      jump\t// in\n    tag_64:\n        /* \"#utility.yul\":2288:2293   */\n      dup2\n        /* \"#utility.yul\":2285:2320   */\n      eq\n        /* \"#utility.yul\":2275:2338   */\n      tag_65\n      jumpi\n        /* \"#utility.yul\":2334:2335   */\n      0x00\n        /* \"#utility.yul\":2331:2332   */\n      dup1\n        /* \"#utility.yul\":2324:2336   */\n      revert\n        /* \"#utility.yul\":2275:2338   */\n    tag_65:\n        /* \"#utility.yul\":2222:2344   */\n      pop\n      jump\t// out\n        /* \"#utility.yul\":2350:2489   */\n    tag_33:\n        /* \"#utility.yul\":2396:2401   */\n      0x00\n        /* \"#utility.yul\":2434:2440   */\n      dup2\n        /* \"#utility.yul\":2421:2441   */\n      calldataload\n        /* \"#utility.yul\":2412:2441   */\n      swap1\n      pop\n        /* \"#utility.yul\":2450:2483   */\n      tag_67\n        /* \"#utility.yul\":2477:2482   */\n      dup2\n        /* \"#utility.yul\":2450:2483   */\n      tag_32\n      jump\t// in\n    tag_67:\n        /* \"#utility.yul\":2350:2489   */\n      swap3\n      swap2\n      pop\n      pop\n      jump\t// out\n        /* \"#utility.yul\":2495:2969   */\n    tag_13:\n        /* \"#utility.yul\":2563:2569   */\n      0x00\n        /* \"#utility.yul\":2571:2577   */\n      dup1\n        /* \"#utility.yul\":2620:2622   */\n      0x40\n        /* \"#utility.yul\":2608:2617   */\n      dup4\n        /* \"#utility.yul\":2599:2606   */\n      dup6\n        /* \"#utility.yul\":2595:2618   */\n      sub\n        /* \"#utility.yul\":2591:2623   */\n      slt\n        /* \"#utility.yul\":2588:2707   */\n      iszero\n      tag_69\n      jumpi\n        /* \"#utility.yul\":2626:2705   */\n      tag_70\n      tag_21\n      jump\t// in\n    tag_70:\n        /* \"#utility.yul\":2588:2707   */\n    tag_69:\n        /* \"#utility.yul\":2746:2747   */\n      0x00\n        /* \"#utility.yul\":2771:2824   */\n      tag_71\n        /* \"#utility.yul\":2816:2823   */\n      dup6\n        /* \"#utility.yul\":2807:2813   */\n      dup3\n        /* \"#utility.yul\":2796:2805   */\n      dup7\n        /* \"#utility.yul\":2792:2814   */\n      add\n        /* \"#utility.yul\":2771:2824   */\n      tag_33\n      jump\t// in\n    tag_71:\n        /* \"#utility.yul\":2761:2824   */\n      swap3\n      pop\n        /* \"#utility.yul\":2717:2834   */\n      pop\n        /* \"#utility.yul\":2873:2875   */\n      0x20\n        /* \"#utility.yul\":2899:2952   */\n      tag_72\n        /* \"#utility.yul\":2944:2951   */\n      dup6\n        /* \"#utility.yul\":2935:2941   */\n      dup3\n        /* \"#utility.yul\":2924:2933   */\n      dup7\n        /* \"#utility.yul\":2920:2942   */\n      add\n        /* \"#utility.yul\":2899:2952   */\n      tag_29\n      jump\t// in\n    tag_72:\n        /* \"#utility.yul\":2889:2952   */\n      swap2\n      pop\n        /* \"#utility.yul\":2844:2962   */\n      pop\n        /* \"#utility.yul\":2495:2969   */\n      swap3\n      pop\n      swap3\n      swap1\n      pop\n      jump\t// out\n\n    auxdata: 0xa2646970667358221220e6d4a8d7311086e8715599d4ebca0303e40cfa4fda24f229f8666c12edadbcaf64736f6c63430008160033\n}\n",
				"bytecode": {
					"linkReferences": {},
					"object": "608060405234801561000f575f80fd5b506102b98061001d5f395ff3fe608060405234801561000f575f80fd5b5060043610610034575f3560e01c806322e8b99014610038578063bc701e9614610069575b5f80fd5b610052600480360381019061004d919061019e565b61009a565b6040516100609291906101eb565b60405180910390f35b610083600480360381019061007e9190610245565b6100d4565b6040516100919291906101eb565b60405180910390f35b6001602052815f5260405f2081815481106100b3575f80fd5b905f5260205f2090600202015f9150915050805f0154908060010154905082565b5f602052815f5260405f2081815481106100ec575f80fd5b905f5260205f2090600202015f9150915050805f0154908060010154905082565b5f80fd5b5f73ffffffffffffffffffffffffffffffffffffffff82169050919050565b5f61013a82610111565b9050919050565b61014a81610130565b8114610154575f80fd5b50565b5f8135905061016581610141565b92915050565b5f819050919050565b61017d8161016b565b8114610187575f80fd5b50565b5f8135905061019881610174565b92915050565b5f80604083850312156101b4576101b361010d565b5b5f6101c185828601610157565b92505060206101d28582860161018a565b9150509250929050565b6101e58161016b565b82525050565b5f6040820190506101fe5f8301856101dc565b61020b60208301846101dc565b9392505050565b5f819050919050565b61022481610212565b811461022e575f80fd5b50565b5f8135905061023f8161021b565b92915050565b5f806040838503121561025b5761025a61010d565b5b5f61026885828601610231565b92505060206102798582860161018a565b915050925092905056fea2646970667358221220e6d4a8d7311086e8715599d4ebca0303e40cfa4fda24f229f8666c12edadbcaf64736f6c63430008160033",
					"opcodes": "PUSH1 0x80 PUSH1 0x40 MSTORE CALLVALUE DUP1 ISZERO PUSH2 0xF JUMPI PUSH0 DUP1 REVERT JUMPDEST POP PUSH2 0x2B9 DUP1 PUSH2 0x1D PUSH0 CODECOPY PUSH0 RETURN INVALID PUSH1 0x80 PUSH1 0x40 MSTORE CALLVALUE DUP1 ISZERO PUSH2 0xF JUMPI PUSH0 DUP1 REVERT JUMPDEST POP PUSH1 0x4 CALLDATASIZE LT PUSH2 0x34 JUMPI PUSH0 CALLDATALOAD PUSH1 0xE0 SHR DUP1 PUSH4 0x22E8B990 EQ PUSH2 0x38 JUMPI DUP1 PUSH4 0xBC701E96 EQ PUSH2 0x69 JUMPI JUMPDEST PUSH0 DUP1 REVERT JUMPDEST PUSH2 0x52 PUSH1 0x4 DUP1 CALLDATASIZE SUB DUP2 ADD SWAP1 PUSH2 0x4D SWAP2 SWAP1 PUSH2 0x19E JUMP JUMPDEST PUSH2 0x9A JUMP JUMPDEST PUSH1 0x40 MLOAD PUSH2 0x60 SWAP3 SWAP2 SWAP1 PUSH2 0x1EB JUMP JUMPDEST PUSH1 0x40 MLOAD DUP1 SWAP2 SUB SWAP1 RETURN JUMPDEST PUSH2 0x83 PUSH1 0x4 DUP1 CALLDATASIZE SUB DUP2 ADD SWAP1 PUSH2 0x7E SWAP2 SWAP1 PUSH2 0x245 JUMP JUMPDEST PUSH2 0xD4 JUMP JUMPDEST PUSH1 0x40 MLOAD PUSH2 0x91 SWAP3 SWAP2 SWAP1 PUSH2 0x1EB JUMP JUMPDEST PUSH1 0x40 MLOAD DUP1 SWAP2 SUB SWAP1 RETURN JUMPDEST PUSH1 0x1 PUSH1 0x20 MSTORE DUP2 PUSH0 MSTORE PUSH1 0x40 PUSH0 KECCAK256 DUP2 DUP2 SLOAD DUP2 LT PUSH2 0xB3 JUMPI PUSH0 DUP1 REVERT JUMPDEST SWAP1 PUSH0 MSTORE PUSH1 0x20 PUSH0 KECCAK256 SWAP1 PUSH1 0x2 MUL ADD PUSH0 SWAP2 POP SWAP2 POP POP DUP1 PUSH0 ADD SLOAD SWAP1 DUP1 PUSH1 0x1 ADD SLOAD SWAP1 POP DUP3 JUMP JUMPDEST PUSH0 PUSH1 0x20 MSTORE DUP2 PUSH0 MSTORE PUSH1 0x40 PUSH0 KECCAK256 DUP2 DUP2 SLOAD DUP2 LT PUSH2 0xEC JUMPI PUSH0 DUP1 REVERT JUMPDEST SWAP1 PUSH0 MSTORE PUSH1 0x20 PUSH0 KECCAK256 SWAP1 PUSH1 0x2 MUL ADD PUSH0 SWAP2 POP SWAP2 POP POP DUP1 PUSH0 ADD SLOAD SWAP1 DUP1 PUSH1 0x1 ADD SLOAD SWAP1 POP DUP3 JUMP JUMPDEST PUSH0 DUP1 REVERT JUMPDEST PUSH0 PUSH20 0xFFFFFFFFFFFFFFFFFFFFFFFFFFFFFFFFFFFFFFFF DUP3 AND SWAP1 POP SWAP2 SWAP1 POP JUMP JUMPDEST PUSH0 PUSH2 0x13A DUP3 PUSH2 0x111 JUMP JUMPDEST SWAP1 POP SWAP2 SWAP1 POP JUMP JUMPDEST PUSH2 0x14A DUP2 PUSH2 0x130 JUMP JUMPDEST DUP2 EQ PUSH2 0x154 JUMPI PUSH0 DUP1 REVERT JUMPDEST POP JUMP JUMPDEST PUSH0 DUP2 CALLDATALOAD SWAP1 POP PUSH2 0x165 DUP2 PUSH2 0x141 JUMP JUMPDEST SWAP3 SWAP2 POP POP JUMP JUMPDEST PUSH0 DUP2 SWAP1 POP SWAP2 SWAP1 POP JUMP JUMPDEST PUSH2 0x17D DUP2 PUSH2 0x16B JUMP JUMPDEST DUP2 EQ PUSH2 0x187 JUMPI PUSH0 DUP1 REVERT JUMPDEST POP JUMP JUMPDEST PUSH0 DUP2 CALLDATALOAD SWAP1 POP PUSH2 0x198 DUP2 PUSH2 0x174 JUMP JUMPDEST SWAP3 SWAP2 POP POP JUMP JUMPDEST PUSH0 DUP1 PUSH1 0x40 DUP4 DUP6 SUB SLT ISZERO PUSH2 0x1B4 JUMPI PUSH2 0x1B3 PUSH2 0x10D JUMP JUMPDEST JUMPDEST PUSH0 PUSH2 0x1C1 DUP6 DUP3 DUP7 ADD PUSH2 0x157 JUMP JUMPDEST SWAP3 POP POP PUSH1 0x20 PUSH2 0x1D2 DUP6 DUP3 DUP7 ADD PUSH2 0x18A JUMP JUMPDEST SWAP2 POP POP SWAP3 POP SWAP3 SWAP1 POP JUMP JUMPDEST PUSH2 0x1E5 DUP2 PUSH2 0x16B JUMP JUMPDEST DUP3 MSTORE POP POP JUMP JUMPDEST PUSH0 PUSH1 0x40 DUP3 ADD SWAP1 POP PUSH2 0x1FE PUSH0 DUP4 ADD DUP6 PUSH2 0x1DC JUMP JUMPDEST PUSH2 0x20B PUSH1 0x20 DUP4 ADD DUP5 PUSH2 0x1DC JUMP JUMPDEST SWAP4 SWAP3 POP POP POP JUMP JUMPDEST PUSH0 DUP2 SWAP1 POP SWAP2 SWAP1 POP JUMP JUMPDEST PUSH2 0x224 DUP2 PUSH2 0x212 JUMP JUMPDEST DUP2 EQ PUSH2 0x22E JUMPI PUSH0 DUP1 REVERT JUMPDEST POP JUMP JUMPDEST PUSH0 DUP2 CALLDATALOAD SWAP1 POP PUSH2 0x23F DUP2 PUSH2 0x21B JUMP JUMPDEST SWAP3 SWAP2 POP POP JUMP JUMPDEST PUSH0 DUP1 PUSH1 0x40 DUP4 DUP6 SUB SLT ISZERO PUSH2 0x25B JUMPI PUSH2 0x25A PUSH2 0x10D JUMP JUMPDEST JUMPDEST PUSH0 PUSH2 0x268 DUP6 DUP3 DUP7 ADD PUSH2 0x231 JUMP JUMPDEST SWAP3 POP POP PUSH1 0x20 PUSH2 0x279 DUP6 DUP3 DUP7 ADD PUSH2 0x18A JUMP JUMPDEST SWAP2 POP POP SWAP3 POP SWAP3 SWAP1 POP JUMP INVALID LOG2 PUSH5 0x6970667358 0x22 SLT KECCAK256 0xE6 0xD4 0xA8 0xD7 BALANCE LT DUP7 0xE8 PUSH18 0x5599D4EBCA0303E40CFA4FDA24F229F8666C SLT 0xED 0xAD 0xBC 0xAF PUSH5 0x736F6C6343 STOP ADDMOD AND STOP CALLER "
				},
				"gasEstimates": {
					"creation": {
						"codeDepositCost": "139400",
						"executionCost": "181",
						"totalCost": "139581"
					},
					"external": {
						"lockHistory(bytes32,uint256)": "infinite",
						"userHistory(address,uint256)": "infinite"
					},
					"internal": {
						"pushCheckpoint(struct Araay.VeBalance storage ref[] storage pointer)": "infinite"
					}
				},
				"methodIdentifiers": {
					"lockHistory(bytes32,uint256)": "bc701e96",
					"userHistory(address,uint256)": "22e8b990"
				}
			},
			"storageLayout": {
				"storage": [
					{
						"astId": 12,
						"contract": "veToken/testShadowPointer.sol:Araay",
						"label": "lockHistory",
						"offset": 0,
						"slot": "0",
						"type": "t_mapping(t_bytes32,t_array(t_struct(VeBalance)6_storage)dyn_storage)"
					},
					{
						"astId": 18,
						"contract": "veToken/testShadowPointer.sol:Araay",
						"label": "userHistory",
						"offset": 0,
						"slot": "1",
						"type": "t_mapping(t_address,t_array(t_struct(VeBalance)6_storage)dyn_storage)"
					}
				],
				"types": {
					"t_address": {
						"encoding": "inplace",
						"label": "address",
						"numberOfBytes": "20"
					},
					"t_array(t_struct(VeBalance)6_storage)dyn_storage": {
						"base": "t_struct(VeBalance)6_storage",
						"encoding": "dynamic_array",
						"label": "struct Araay.VeBalance[]",
						"numberOfBytes": "32"
					},
					"t_bytes32": {
						"encoding": "inplace",
						"label": "bytes32",
						"numberOfBytes": "32"
					},
					"t_mapping(t_address,t_array(t_struct(VeBalance)6_storage)dyn_storage)": {
						"encoding": "mapping",
						"key": "t_address",
						"label": "mapping(address => struct Araay.VeBalance[])",
						"numberOfBytes": "32",
						"value": "t_array(t_struct(VeBalance)6_storage)dyn_storage"
					},
					"t_mapping(t_bytes32,t_array(t_struct(VeBalance)6_storage)dyn_storage)": {
						"encoding": "mapping",
						"key": "t_bytes32",
						"label": "mapping(bytes32 => struct Araay.VeBalance[])",
						"numberOfBytes": "32",
						"value": "t_array(t_struct(VeBalance)6_storage)dyn_storage"
					},
					"t_struct(VeBalance)6_storage": {
						"encoding": "inplace",
						"label": "struct Araay.VeBalance",
						"members": [
							{
								"astId": 3,
								"contract": "veToken/testShadowPointer.sol:Araay",
								"label": "bias",
								"offset": 0,
								"slot": "0",
								"type": "t_uint256"
							},
							{
								"astId": 5,
								"contract": "veToken/testShadowPointer.sol:Araay",
								"label": "slope",
								"offset": 0,
								"slot": "1",
								"type": "t_uint256"
							}
						],
						"numberOfBytes": "64"
					},
					"t_uint256": {
						"encoding": "inplace",
						"label": "uint256",
						"numberOfBytes": "32"
					}
				}
			},
			"userdoc": {
				"kind": "user",
				"methods": {},
				"version": 1
			}
		}
	}
}