{
	"testLinkedLibrary.sol": {
		"Pool": {
			"abi": [
				{
					"inputs": [],
					"name": "gasAfter_msgSender",
					"outputs": [
						{
							"internalType": "uint256",
							"name": "",
							"type": "uint256"
						}
					],
					"stateMutability": "view",
					"type": "function"
				},
				{
					"inputs": [],
					"name": "gasAfter_user",
					"outputs": [
						{
							"internalType": "uint256",
							"name": "",
							"type": "uint256"
						}
					],
					"stateMutability": "view",
					"type": "function"
				},
				{
					"inputs": [],
					"name": "gasBefore_msgSender",
					"outputs": [
						{
							"internalType": "uint256",
							"name": "",
							"type": "uint256"
						}
					],
					"stateMutability": "view",
					"type": "function"
				},
				{
					"inputs": [],
					"name": "gasBefore_user",
					"outputs": [
						{
							"internalType": "uint256",
							"name": "",
							"type": "uint256"
						}
					],
					"stateMutability": "view",
					"type": "function"
				},
				{
					"inputs": [],
					"name": "isSame",
					"outputs": [
						{
							"internalType": "bool",
							"name": "",
							"type": "bool"
						}
					],
					"stateMutability": "view",
					"type": "function"
				},
				{
					"inputs": [],
					"name": "stake",
					"outputs": [],
					"stateMutability": "nonpayable",
					"type": "function"
				},
				{
					"inputs": [],
					"name": "state",
					"outputs": [
						{
							"internalType": "address",
							"name": "",
							"type": "address"
						}
					],
					"stateMutability": "view",
					"type": "function"
				},
				{
					"inputs": [],
					"name": "testSender1",
					"outputs": [],
					"stateMutability": "nonpayable",
					"type": "function"
				},
				{
					"inputs": [],
					"name": "testSender2",
					"outputs": [],
					"stateMutability": "nonpayable",
					"type": "function"
				},
				{
					"inputs": [],
					"name": "user",
					"outputs": [
						{
							"internalType": "address",
							"name": "",
							"type": "address"
						}
					],
					"stateMutability": "view",
					"type": "function"
				}
			],
			"devdoc": {
				"kind": "dev",
				"methods": {},
				"version": 1
			},
			"evm": {
				"assembly": "    /* \"testLinkedLibrary.sol\":681:2105  contract Pool {... */\n  mstore(0x40, 0x80)\n  callvalue\n  dup1\n  iszero\n  tag_1\n  jumpi\n  0x00\n  dup1\n  revert\ntag_1:\n  pop\n  dataSize(sub_0)\n  dup1\n  dataOffset(sub_0)\n  0x00\n  codecopy\n  0x00\n  return\nstop\n\nsub_0: assembly {\n        /* \"testLinkedLibrary.sol\":681:2105  contract Pool {... */\n      mstore(0x40, 0x80)\n      callvalue\n      dup1\n      iszero\n      tag_1\n      jumpi\n      0x00\n      dup1\n      revert\n    tag_1:\n      pop\n      jumpi(tag_2, lt(calldatasize, 0x04))\n      shr(0xe0, calldataload(0x00))\n      dup1\n      0x4f8632ba\n      gt\n      tag_13\n      jumpi\n      dup1\n      0x4f8632ba\n      eq\n      tag_8\n      jumpi\n      dup1\n      0x591fb03e\n      eq\n      tag_9\n      jumpi\n      dup1\n      0xc19d93fb\n      eq\n      tag_10\n      jumpi\n      dup1\n      0xc35dfee8\n      eq\n      tag_11\n      jumpi\n      dup1\n      0xfe090e5f\n      eq\n      tag_12\n      jumpi\n      jump(tag_2)\n    tag_13:\n      dup1\n      0x14d93340\n      eq\n      tag_3\n      jumpi\n      dup1\n      0x16a19d59\n      eq\n      tag_4\n      jumpi\n      dup1\n      0x31e2e06a\n      eq\n      tag_5\n      jumpi\n      dup1\n      0x3a4b66f1\n      eq\n      tag_6\n      jumpi\n      dup1\n      0x470eb79f\n      eq\n      tag_7\n      jumpi\n    tag_2:\n      0x00\n      dup1\n      revert\n        /* \"testLinkedLibrary.sol\":1236:1640  function testSender1() external {... */\n    tag_3:\n      tag_14\n      tag_15\n      jump\t// in\n    tag_14:\n      stop\n        /* \"testLinkedLibrary.sol\":1131:1160  uint256 public gasBefore_user */\n    tag_4:\n      tag_16\n      tag_17\n      jump\t// in\n    tag_16:\n      mload(0x40)\n      tag_18\n      swap2\n      swap1\n      tag_19\n      jump\t// in\n    tag_18:\n      mload(0x40)\n      dup1\n      swap2\n      sub\n      swap1\n      return\n        /* \"testLinkedLibrary.sol\":1032:1066  uint256 public gasBefore_msgSender */\n    tag_5:\n      tag_20\n      tag_21\n      jump\t// in\n    tag_20:\n      mload(0x40)\n      tag_22\n      swap2\n      swap1\n      tag_19\n      jump\t// in\n    tag_22:\n      mload(0x40)\n      dup1\n      swap2\n      sub\n      swap1\n      return\n        /* \"testLinkedLibrary.sol\":859:938  function stake() external {... */\n    tag_6:\n      tag_23\n      tag_24\n      jump\t// in\n    tag_23:\n      stop\n        /* \"testLinkedLibrary.sol\":1073:1106  uint256 public gasAfter_msgSender */\n    tag_7:\n      tag_25\n      tag_26\n      jump\t// in\n    tag_25:\n      mload(0x40)\n      tag_27\n      swap2\n      swap1\n      tag_19\n      jump\t// in\n    tag_27:\n      mload(0x40)\n      dup1\n      swap2\n      sub\n      swap1\n      return\n        /* \"testLinkedLibrary.sol\":705:724  address public user */\n    tag_8:\n      tag_28\n      tag_29\n      jump\t// in\n    tag_28:\n      mload(0x40)\n      tag_30\n      swap2\n      swap1\n      tag_31\n      jump\t// in\n    tag_30:\n      mload(0x40)\n      dup1\n      swap2\n      sub\n      swap1\n      return\n        /* \"testLinkedLibrary.sol\":760:851  function isSame() external view returns(bool) {... */\n    tag_9:\n      tag_32\n      tag_33\n      jump\t// in\n    tag_32:\n      mload(0x40)\n      tag_34\n      swap2\n      swap1\n      tag_35\n      jump\t// in\n    tag_34:\n      mload(0x40)\n      dup1\n      swap2\n      sub\n      swap1\n      return\n        /* \"testLinkedLibrary.sol\":731:751  address public state */\n    tag_10:\n      tag_36\n      tag_37\n      jump\t// in\n    tag_36:\n      mload(0x40)\n      tag_38\n      swap2\n      swap1\n      tag_31\n      jump\t// in\n    tag_38:\n      mload(0x40)\n      dup1\n      swap2\n      sub\n      swap1\n      return\n        /* \"testLinkedLibrary.sol\":1167:1195  uint256 public gasAfter_user */\n    tag_11:\n      tag_39\n      tag_40\n      jump\t// in\n    tag_39:\n      mload(0x40)\n      tag_41\n      swap2\n      swap1\n      tag_19\n      jump\t// in\n    tag_41:\n      mload(0x40)\n      dup1\n      swap2\n      sub\n      swap1\n      return\n        /* \"testLinkedLibrary.sol\":1677:2102  function testSender2() external {... */\n    tag_12:\n      tag_42\n      tag_43\n      jump\t// in\n    tag_42:\n      stop\n        /* \"testLinkedLibrary.sol\":1236:1640  function testSender1() external {... */\n    tag_15:\n        /* \"testLinkedLibrary.sol\":1319:1328  gasleft() */\n      gas\n        /* \"testLinkedLibrary.sol\":1297:1316  gasBefore_msgSender */\n      0x02\n        /* \"testLinkedLibrary.sol\":1297:1328  gasBefore_msgSender = gasleft() */\n      dup2\n      swap1\n      sstore\n      pop\n        /* \"testLinkedLibrary.sol\":1375:1405  DataTypes.Excecute1 memory ex1 */\n      0x00\n        /* \"testLinkedLibrary.sol\":1408:1471  DataTypes.Excecute1({... */\n      mload(0x40)\n      dup1\n      0x20\n      add\n      0x40\n      mstore\n      dup1\n        /* \"testLinkedLibrary.sol\":1451:1459  10 ether */\n      0x8ac7230489e80000\n        /* \"testLinkedLibrary.sol\":1408:1471  DataTypes.Excecute1({... */\n      dup2\n      mstore\n      pop\n        /* \"testLinkedLibrary.sol\":1375:1471  DataTypes.Excecute1 memory ex1 = DataTypes.Excecute1({... */\n      swap1\n      pop\n        /* \"testLinkedLibrary.sol\":1511:1522  uint256 ret */\n      0x00\n        /* \"testLinkedLibrary.sol\":1525:1534  PoolLogic */\n      linkerSymbol(\"a0641e4a8fb69f98d66c1e6e7c648f5f826df856465ae2d5bf889fcdbfeb0012\")\n        /* \"testLinkedLibrary.sol\":1525:1549  PoolLogic.executeSender1 */\n      0xd6fdcc6b\n        /* \"testLinkedLibrary.sol\":1550:1553  ex1 */\n      dup4\n        /* \"testLinkedLibrary.sol\":1525:1554  PoolLogic.executeSender1(ex1) */\n      mload(0x40)\n      dup3\n      0xffffffff\n      and\n      0xe0\n      shl\n      dup2\n      mstore\n      0x04\n      add\n      tag_45\n      swap2\n      swap1\n      tag_46\n      jump\t// in\n    tag_45:\n      0x20\n      mload(0x40)\n      dup1\n      dup4\n      sub\n      dup2\n      dup7\n      gas\n      delegatecall\n      iszero\n      dup1\n      iszero\n      tag_48\n      jumpi\n      returndatasize\n      0x00\n      dup1\n      returndatacopy\n      revert(0x00, returndatasize)\n    tag_48:\n      pop\n      pop\n      pop\n      pop\n      mload(0x40)\n      returndatasize\n      not(0x1f)\n      0x1f\n      dup3\n      add\n      and\n      dup3\n      add\n      dup1\n      0x40\n      mstore\n      pop\n      dup2\n      add\n      swap1\n      tag_49\n      swap2\n      swap1\n      tag_50\n      jump\t// in\n    tag_49:\n        /* \"testLinkedLibrary.sol\":1511:1554  uint256 ret = PoolLogic.executeSender1(ex1) */\n      swap1\n      pop\n        /* \"testLinkedLibrary.sol\":1580:1588  11 ether */\n      0x98a7d9b8314c0000\n        /* \"testLinkedLibrary.sol\":1573:1576  ret */\n      dup2\n        /* \"testLinkedLibrary.sol\":1573:1588  ret == 11 ether */\n      eq\n        /* \"testLinkedLibrary.sol\":1565:1589  require(ret == 11 ether) */\n      tag_51\n      jumpi\n      0x00\n      dup1\n      revert\n    tag_51:\n        /* \"testLinkedLibrary.sol\":1623:1632  gasleft() */\n      gas\n        /* \"testLinkedLibrary.sol\":1602:1620  gasAfter_msgSender */\n      0x03\n        /* \"testLinkedLibrary.sol\":1602:1632  gasAfter_msgSender = gasleft() */\n      dup2\n      swap1\n      sstore\n      pop\n        /* \"testLinkedLibrary.sol\":1268:1640  {... */\n      pop\n      pop\n        /* \"testLinkedLibrary.sol\":1236:1640  function testSender1() external {... */\n      jump\t// out\n        /* \"testLinkedLibrary.sol\":1131:1160  uint256 public gasBefore_user */\n    tag_17:\n      sload(0x04)\n      dup2\n      jump\t// out\n        /* \"testLinkedLibrary.sol\":1032:1066  uint256 public gasBefore_msgSender */\n    tag_21:\n      sload(0x02)\n      dup2\n      jump\t// out\n        /* \"testLinkedLibrary.sol\":859:938  function stake() external {... */\n    tag_24:\n        /* \"testLinkedLibrary.sol\":906:915  PoolLogic */\n      linkerSymbol(\"a0641e4a8fb69f98d66c1e6e7c648f5f826df856465ae2d5bf889fcdbfeb0012\")\n        /* \"testLinkedLibrary.sol\":906:928  PoolLogic.executeStake */\n      0xfe647291\n        /* \"testLinkedLibrary.sol\":906:930  PoolLogic.executeStake() */\n      mload(0x40)\n      dup2\n      0xffffffff\n      and\n      0xe0\n      shl\n      dup2\n      mstore\n      0x04\n      add\n      0x20\n      mload(0x40)\n      dup1\n      dup4\n      sub\n      dup2\n      dup7\n      gas\n      delegatecall\n      iszero\n      dup1\n      iszero\n      tag_54\n      jumpi\n      returndatasize\n      0x00\n      dup1\n      returndatacopy\n      revert(0x00, returndatasize)\n    tag_54:\n      pop\n      pop\n      pop\n      pop\n      mload(0x40)\n      returndatasize\n      not(0x1f)\n      0x1f\n      dup3\n      add\n      and\n      dup3\n      add\n      dup1\n      0x40\n      mstore\n      pop\n      dup2\n      add\n      swap1\n      tag_55\n      swap2\n      swap1\n      tag_56\n      jump\t// in\n    tag_55:\n        /* \"testLinkedLibrary.sol\":898:903  state */\n      0x01\n      0x00\n        /* \"testLinkedLibrary.sol\":898:930  state = PoolLogic.executeStake() */\n      0x0100\n      exp\n      dup2\n      sload\n      dup2\n      0xffffffffffffffffffffffffffffffffffffffff\n      mul\n      not\n      and\n      swap1\n      dup4\n      0xffffffffffffffffffffffffffffffffffffffff\n      and\n      mul\n      or\n      swap1\n      sstore\n      pop\n        /* \"testLinkedLibrary.sol\":859:938  function stake() external {... */\n      jump\t// out\n        /* \"testLinkedLibrary.sol\":1073:1106  uint256 public gasAfter_msgSender */\n    tag_26:\n      sload(0x03)\n      dup2\n      jump\t// out\n        /* \"testLinkedLibrary.sol\":705:724  address public user */\n    tag_29:\n      0x00\n      dup1\n      sload\n      swap1\n      0x0100\n      exp\n      swap1\n      div\n      0xffffffffffffffffffffffffffffffffffffffff\n      and\n      dup2\n      jump\t// out\n        /* \"testLinkedLibrary.sol\":760:851  function isSame() external view returns(bool) {... */\n    tag_33:\n        /* \"testLinkedLibrary.sol\":800:804  bool */\n      0x00\n        /* \"testLinkedLibrary.sol\":833:843  msg.sender */\n      caller\n        /* \"testLinkedLibrary.sol\":824:843  state == msg.sender */\n      0xffffffffffffffffffffffffffffffffffffffff\n      and\n        /* \"testLinkedLibrary.sol\":824:829  state */\n      0x01\n      0x00\n      swap1\n      sload\n      swap1\n      0x0100\n      exp\n      swap1\n      div\n      0xffffffffffffffffffffffffffffffffffffffff\n      and\n        /* \"testLinkedLibrary.sol\":824:843  state == msg.sender */\n      0xffffffffffffffffffffffffffffffffffffffff\n      and\n      eq\n        /* \"testLinkedLibrary.sol\":817:843  return state == msg.sender */\n      swap1\n      pop\n        /* \"testLinkedLibrary.sol\":760:851  function isSame() external view returns(bool) {... */\n      swap1\n      jump\t// out\n        /* \"testLinkedLibrary.sol\":731:751  address public state */\n    tag_37:\n      0x01\n      0x00\n      swap1\n      sload\n      swap1\n      0x0100\n      exp\n      swap1\n      div\n      0xffffffffffffffffffffffffffffffffffffffff\n      and\n      dup2\n      jump\t// out\n        /* \"testLinkedLibrary.sol\":1167:1195  uint256 public gasAfter_user */\n    tag_40:\n      sload(0x05)\n      dup2\n      jump\t// out\n        /* \"testLinkedLibrary.sol\":1677:2102  function testSender2() external {... */\n    tag_43:\n        /* \"testLinkedLibrary.sol\":1755:1764  gasleft() */\n      gas\n        /* \"testLinkedLibrary.sol\":1738:1752  gasBefore_user */\n      0x04\n        /* \"testLinkedLibrary.sol\":1738:1764  gasBefore_user = gasleft() */\n      dup2\n      swap1\n      sstore\n      pop\n        /* \"testLinkedLibrary.sol\":1811:1841  DataTypes.Excecute2 memory ex2 */\n      0x00\n        /* \"testLinkedLibrary.sol\":1844:1938  DataTypes.Excecute2({... */\n      mload(0x40)\n      dup1\n      0x40\n      add\n      0x40\n      mstore\n      dup1\n        /* \"testLinkedLibrary.sol\":1885:1895  msg.sender */\n      caller\n        /* \"testLinkedLibrary.sol\":1844:1938  DataTypes.Excecute2({... */\n      0xffffffffffffffffffffffffffffffffffffffff\n      and\n      dup2\n      mstore\n      0x20\n      add\n        /* \"testLinkedLibrary.sol\":1918:1926  10 ether */\n      0x8ac7230489e80000\n        /* \"testLinkedLibrary.sol\":1844:1938  DataTypes.Excecute2({... */\n      dup2\n      mstore\n      pop\n        /* \"testLinkedLibrary.sol\":1811:1938  DataTypes.Excecute2 memory ex2 = DataTypes.Excecute2({... */\n      swap1\n      pop\n        /* \"testLinkedLibrary.sol\":1978:1989  uint256 ret */\n      0x00\n        /* \"testLinkedLibrary.sol\":1992:2001  PoolLogic */\n      linkerSymbol(\"a0641e4a8fb69f98d66c1e6e7c648f5f826df856465ae2d5bf889fcdbfeb0012\")\n        /* \"testLinkedLibrary.sol\":1992:2016  PoolLogic.executeSender2 */\n      0x3828adda\n        /* \"testLinkedLibrary.sol\":2017:2020  ex2 */\n      dup4\n        /* \"testLinkedLibrary.sol\":1992:2021  PoolLogic.executeSender2(ex2) */\n      mload(0x40)\n      dup3\n      0xffffffff\n      and\n      0xe0\n      shl\n      dup2\n      mstore\n      0x04\n      add\n      tag_59\n      swap2\n      swap1\n      tag_60\n      jump\t// in\n    tag_59:\n      0x20\n      mload(0x40)\n      dup1\n      dup4\n      sub\n      dup2\n      dup7\n      gas\n      delegatecall\n      iszero\n      dup1\n      iszero\n      tag_62\n      jumpi\n      returndatasize\n      0x00\n      dup1\n      returndatacopy\n      revert(0x00, returndatasize)\n    tag_62:\n      pop\n      pop\n      pop\n      pop\n      mload(0x40)\n      returndatasize\n      not(0x1f)\n      0x1f\n      dup3\n      add\n      and\n      dup3\n      add\n      dup1\n      0x40\n      mstore\n      pop\n      dup2\n      add\n      swap1\n      tag_63\n      swap2\n      swap1\n      tag_50\n      jump\t// in\n    tag_63:\n        /* \"testLinkedLibrary.sol\":1978:2021  uint256 ret = PoolLogic.executeSender2(ex2) */\n      swap1\n      pop\n        /* \"testLinkedLibrary.sol\":2047:2055  11 ether */\n      0x98a7d9b8314c0000\n        /* \"testLinkedLibrary.sol\":2040:2043  ret */\n      dup2\n        /* \"testLinkedLibrary.sol\":2040:2055  ret == 11 ether */\n      eq\n        /* \"testLinkedLibrary.sol\":2032:2056  require(ret == 11 ether) */\n      tag_64\n      jumpi\n      0x00\n      dup1\n      revert\n    tag_64:\n        /* \"testLinkedLibrary.sol\":2085:2094  gasleft() */\n      gas\n        /* \"testLinkedLibrary.sol\":2069:2082  gasAfter_user */\n      0x05\n        /* \"testLinkedLibrary.sol\":2069:2094  gasAfter_user = gasleft() */\n      dup2\n      swap1\n      sstore\n      pop\n        /* \"testLinkedLibrary.sol\":1709:2102  {... */\n      pop\n      pop\n        /* \"testLinkedLibrary.sol\":1677:2102  function testSender2() external {... */\n      jump\t// out\n        /* \"#utility.yul\":7:84   */\n    tag_65:\n        /* \"#utility.yul\":44:51   */\n      0x00\n        /* \"#utility.yul\":73:78   */\n      dup2\n        /* \"#utility.yul\":62:78   */\n      swap1\n      pop\n        /* \"#utility.yul\":7:84   */\n      swap2\n      swap1\n      pop\n      jump\t// out\n        /* \"#utility.yul\":90:208   */\n    tag_66:\n        /* \"#utility.yul\":177:201   */\n      tag_86\n        /* \"#utility.yul\":195:200   */\n      dup2\n        /* \"#utility.yul\":177:201   */\n      tag_65\n      jump\t// in\n    tag_86:\n        /* \"#utility.yul\":172:175   */\n      dup3\n        /* \"#utility.yul\":165:202   */\n      mstore\n        /* \"#utility.yul\":90:208   */\n      pop\n      pop\n      jump\t// out\n        /* \"#utility.yul\":214:436   */\n    tag_19:\n        /* \"#utility.yul\":307:311   */\n      0x00\n        /* \"#utility.yul\":345:347   */\n      0x20\n        /* \"#utility.yul\":334:343   */\n      dup3\n        /* \"#utility.yul\":330:348   */\n      add\n        /* \"#utility.yul\":322:348   */\n      swap1\n      pop\n        /* \"#utility.yul\":358:429   */\n      tag_88\n        /* \"#utility.yul\":426:427   */\n      0x00\n        /* \"#utility.yul\":415:424   */\n      dup4\n        /* \"#utility.yul\":411:428   */\n      add\n        /* \"#utility.yul\":402:408   */\n      dup5\n        /* \"#utility.yul\":358:429   */\n      tag_66\n      jump\t// in\n    tag_88:\n        /* \"#utility.yul\":214:436   */\n      swap3\n      swap2\n      pop\n      pop\n      jump\t// out\n        /* \"#utility.yul\":442:568   */\n    tag_67:\n        /* \"#utility.yul\":479:486   */\n      0x00\n        /* \"#utility.yul\":519:561   */\n      0xffffffffffffffffffffffffffffffffffffffff\n        /* \"#utility.yul\":512:517   */\n      dup3\n        /* \"#utility.yul\":508:562   */\n      and\n        /* \"#utility.yul\":497:562   */\n      swap1\n      pop\n        /* \"#utility.yul\":442:568   */\n      swap2\n      swap1\n      pop\n      jump\t// out\n        /* \"#utility.yul\":574:670   */\n    tag_68:\n        /* \"#utility.yul\":611:618   */\n      0x00\n        /* \"#utility.yul\":640:664   */\n      tag_91\n        /* \"#utility.yul\":658:663   */\n      dup3\n        /* \"#utility.yul\":640:664   */\n      tag_67\n      jump\t// in\n    tag_91:\n        /* \"#utility.yul\":629:664   */\n      swap1\n      pop\n        /* \"#utility.yul\":574:670   */\n      swap2\n      swap1\n      pop\n      jump\t// out\n        /* \"#utility.yul\":676:794   */\n    tag_69:\n        /* \"#utility.yul\":763:787   */\n      tag_93\n        /* \"#utility.yul\":781:786   */\n      dup2\n        /* \"#utility.yul\":763:787   */\n      tag_68\n      jump\t// in\n    tag_93:\n        /* \"#utility.yul\":758:761   */\n      dup3\n        /* \"#utility.yul\":751:788   */\n      mstore\n        /* \"#utility.yul\":676:794   */\n      pop\n      pop\n      jump\t// out\n        /* \"#utility.yul\":800:1022   */\n    tag_31:\n        /* \"#utility.yul\":893:897   */\n      0x00\n        /* \"#utility.yul\":931:933   */\n      0x20\n        /* \"#utility.yul\":920:929   */\n      dup3\n        /* \"#utility.yul\":916:934   */\n      add\n        /* \"#utility.yul\":908:934   */\n      swap1\n      pop\n        /* \"#utility.yul\":944:1015   */\n      tag_95\n        /* \"#utility.yul\":1012:1013   */\n      0x00\n        /* \"#utility.yul\":1001:1010   */\n      dup4\n        /* \"#utility.yul\":997:1014   */\n      add\n        /* \"#utility.yul\":988:994   */\n      dup5\n        /* \"#utility.yul\":944:1015   */\n      tag_69\n      jump\t// in\n    tag_95:\n        /* \"#utility.yul\":800:1022   */\n      swap3\n      swap2\n      pop\n      pop\n      jump\t// out\n        /* \"#utility.yul\":1028:1118   */\n    tag_70:\n        /* \"#utility.yul\":1062:1069   */\n      0x00\n        /* \"#utility.yul\":1105:1110   */\n      dup2\n        /* \"#utility.yul\":1098:1111   */\n      iszero\n        /* \"#utility.yul\":1091:1112   */\n      iszero\n        /* \"#utility.yul\":1080:1112   */\n      swap1\n      pop\n        /* \"#utility.yul\":1028:1118   */\n      swap2\n      swap1\n      pop\n      jump\t// out\n        /* \"#utility.yul\":1124:1233   */\n    tag_71:\n        /* \"#utility.yul\":1205:1226   */\n      tag_98\n        /* \"#utility.yul\":1220:1225   */\n      dup2\n        /* \"#utility.yul\":1205:1226   */\n      tag_70\n      jump\t// in\n    tag_98:\n        /* \"#utility.yul\":1200:1203   */\n      dup3\n        /* \"#utility.yul\":1193:1227   */\n      mstore\n        /* \"#utility.yul\":1124:1233   */\n      pop\n      pop\n      jump\t// out\n        /* \"#utility.yul\":1239:1449   */\n    tag_35:\n        /* \"#utility.yul\":1326:1330   */\n      0x00\n        /* \"#utility.yul\":1364:1366   */\n      0x20\n        /* \"#utility.yul\":1353:1362   */\n      dup3\n        /* \"#utility.yul\":1349:1367   */\n      add\n        /* \"#utility.yul\":1341:1367   */\n      swap1\n      pop\n        /* \"#utility.yul\":1377:1442   */\n      tag_100\n        /* \"#utility.yul\":1439:1440   */\n      0x00\n        /* \"#utility.yul\":1428:1437   */\n      dup4\n        /* \"#utility.yul\":1424:1441   */\n      add\n        /* \"#utility.yul\":1415:1421   */\n      dup5\n        /* \"#utility.yul\":1377:1442   */\n      tag_71\n      jump\t// in\n    tag_100:\n        /* \"#utility.yul\":1239:1449   */\n      swap3\n      swap2\n      pop\n      pop\n      jump\t// out\n        /* \"#utility.yul\":1455:1571   */\n    tag_72:\n        /* \"#utility.yul\":1540:1564   */\n      tag_102\n        /* \"#utility.yul\":1558:1563   */\n      dup2\n        /* \"#utility.yul\":1540:1564   */\n      tag_65\n      jump\t// in\n    tag_102:\n        /* \"#utility.yul\":1535:1538   */\n      dup3\n        /* \"#utility.yul\":1528:1565   */\n      mstore\n        /* \"#utility.yul\":1455:1571   */\n      pop\n      pop\n      jump\t// out\n        /* \"#utility.yul\":1641:1994   */\n    tag_73:\n        /* \"#utility.yul\":1798:1802   */\n      0x20\n        /* \"#utility.yul\":1793:1796   */\n      dup3\n        /* \"#utility.yul\":1789:1803   */\n      add\n        /* \"#utility.yul\":1887:1891   */\n      0x00\n        /* \"#utility.yul\":1880:1885   */\n      dup3\n        /* \"#utility.yul\":1876:1892   */\n      add\n        /* \"#utility.yul\":1870:1893   */\n      mload\n        /* \"#utility.yul\":1906:1977   */\n      tag_104\n        /* \"#utility.yul\":1971:1975   */\n      0x00\n        /* \"#utility.yul\":1966:1969   */\n      dup6\n        /* \"#utility.yul\":1962:1976   */\n      add\n        /* \"#utility.yul\":1948:1960   */\n      dup3\n        /* \"#utility.yul\":1906:1977   */\n      tag_72\n      jump\t// in\n    tag_104:\n        /* \"#utility.yul\":1813:1987   */\n      pop\n        /* \"#utility.yul\":1767:1994   */\n      pop\n        /* \"#utility.yul\":1641:1994   */\n      pop\n      pop\n      jump\t// out\n        /* \"#utility.yul\":2000:2342   */\n    tag_46:\n        /* \"#utility.yul\":2153:2157   */\n      0x00\n        /* \"#utility.yul\":2191:2193   */\n      0x20\n        /* \"#utility.yul\":2180:2189   */\n      dup3\n        /* \"#utility.yul\":2176:2194   */\n      add\n        /* \"#utility.yul\":2168:2194   */\n      swap1\n      pop\n        /* \"#utility.yul\":2204:2335   */\n      tag_106\n        /* \"#utility.yul\":2332:2333   */\n      0x00\n        /* \"#utility.yul\":2321:2330   */\n      dup4\n        /* \"#utility.yul\":2317:2334   */\n      add\n        /* \"#utility.yul\":2308:2314   */\n      dup5\n        /* \"#utility.yul\":2204:2335   */\n      tag_73\n      jump\t// in\n    tag_106:\n        /* \"#utility.yul\":2000:2342   */\n      swap3\n      swap2\n      pop\n      pop\n      jump\t// out\n        /* \"#utility.yul\":2429:2546   */\n    tag_75:\n        /* \"#utility.yul\":2538:2539   */\n      0x00\n        /* \"#utility.yul\":2535:2536   */\n      dup1\n        /* \"#utility.yul\":2528:2540   */\n      revert\n        /* \"#utility.yul\":2675:2797   */\n    tag_77:\n        /* \"#utility.yul\":2748:2772   */\n      tag_111\n        /* \"#utility.yul\":2766:2771   */\n      dup2\n        /* \"#utility.yul\":2748:2772   */\n      tag_65\n      jump\t// in\n    tag_111:\n        /* \"#utility.yul\":2741:2746   */\n      dup2\n        /* \"#utility.yul\":2738:2773   */\n      eq\n        /* \"#utility.yul\":2728:2791   */\n      tag_112\n      jumpi\n        /* \"#utility.yul\":2787:2788   */\n      0x00\n        /* \"#utility.yul\":2784:2785   */\n      dup1\n        /* \"#utility.yul\":2777:2789   */\n      revert\n        /* \"#utility.yul\":2728:2791   */\n    tag_112:\n        /* \"#utility.yul\":2675:2797   */\n      pop\n      jump\t// out\n        /* \"#utility.yul\":2803:2946   */\n    tag_78:\n        /* \"#utility.yul\":2860:2865   */\n      0x00\n        /* \"#utility.yul\":2891:2897   */\n      dup2\n        /* \"#utility.yul\":2885:2898   */\n      mload\n        /* \"#utility.yul\":2876:2898   */\n      swap1\n      pop\n        /* \"#utility.yul\":2907:2940   */\n      tag_114\n        /* \"#utility.yul\":2934:2939   */\n      dup2\n        /* \"#utility.yul\":2907:2940   */\n      tag_77\n      jump\t// in\n    tag_114:\n        /* \"#utility.yul\":2803:2946   */\n      swap3\n      swap2\n      pop\n      pop\n      jump\t// out\n        /* \"#utility.yul\":2952:3303   */\n    tag_50:\n        /* \"#utility.yul\":3022:3028   */\n      0x00\n        /* \"#utility.yul\":3071:3073   */\n      0x20\n        /* \"#utility.yul\":3059:3068   */\n      dup3\n        /* \"#utility.yul\":3050:3057   */\n      dup5\n        /* \"#utility.yul\":3046:3069   */\n      sub\n        /* \"#utility.yul\":3042:3074   */\n      slt\n        /* \"#utility.yul\":3039:3158   */\n      iszero\n      tag_116\n      jumpi\n        /* \"#utility.yul\":3077:3156   */\n      tag_117\n      tag_75\n      jump\t// in\n    tag_117:\n        /* \"#utility.yul\":3039:3158   */\n    tag_116:\n        /* \"#utility.yul\":3197:3198   */\n      0x00\n        /* \"#utility.yul\":3222:3286   */\n      tag_118\n        /* \"#utility.yul\":3278:3285   */\n      dup5\n        /* \"#utility.yul\":3269:3275   */\n      dup3\n        /* \"#utility.yul\":3258:3267   */\n      dup6\n        /* \"#utility.yul\":3254:3276   */\n      add\n        /* \"#utility.yul\":3222:3286   */\n      tag_78\n      jump\t// in\n    tag_118:\n        /* \"#utility.yul\":3212:3286   */\n      swap2\n      pop\n        /* \"#utility.yul\":3168:3296   */\n      pop\n        /* \"#utility.yul\":2952:3303   */\n      swap3\n      swap2\n      pop\n      pop\n      jump\t// out\n        /* \"#utility.yul\":3309:3431   */\n    tag_79:\n        /* \"#utility.yul\":3382:3406   */\n      tag_120\n        /* \"#utility.yul\":3400:3405   */\n      dup2\n        /* \"#utility.yul\":3382:3406   */\n      tag_68\n      jump\t// in\n    tag_120:\n        /* \"#utility.yul\":3375:3380   */\n      dup2\n        /* \"#utility.yul\":3372:3407   */\n      eq\n        /* \"#utility.yul\":3362:3425   */\n      tag_121\n      jumpi\n        /* \"#utility.yul\":3421:3422   */\n      0x00\n        /* \"#utility.yul\":3418:3419   */\n      dup1\n        /* \"#utility.yul\":3411:3423   */\n      revert\n        /* \"#utility.yul\":3362:3425   */\n    tag_121:\n        /* \"#utility.yul\":3309:3431   */\n      pop\n      jump\t// out\n        /* \"#utility.yul\":3437:3580   */\n    tag_80:\n        /* \"#utility.yul\":3494:3499   */\n      0x00\n        /* \"#utility.yul\":3525:3531   */\n      dup2\n        /* \"#utility.yul\":3519:3532   */\n      mload\n        /* \"#utility.yul\":3510:3532   */\n      swap1\n      pop\n        /* \"#utility.yul\":3541:3574   */\n      tag_123\n        /* \"#utility.yul\":3568:3573   */\n      dup2\n        /* \"#utility.yul\":3541:3574   */\n      tag_79\n      jump\t// in\n    tag_123:\n        /* \"#utility.yul\":3437:3580   */\n      swap3\n      swap2\n      pop\n      pop\n      jump\t// out\n        /* \"#utility.yul\":3586:3937   */\n    tag_56:\n        /* \"#utility.yul\":3656:3662   */\n      0x00\n        /* \"#utility.yul\":3705:3707   */\n      0x20\n        /* \"#utility.yul\":3693:3702   */\n      dup3\n        /* \"#utility.yul\":3684:3691   */\n      dup5\n        /* \"#utility.yul\":3680:3703   */\n      sub\n        /* \"#utility.yul\":3676:3708   */\n      slt\n        /* \"#utility.yul\":3673:3792   */\n      iszero\n      tag_125\n      jumpi\n        /* \"#utility.yul\":3711:3790   */\n      tag_126\n      tag_75\n      jump\t// in\n    tag_126:\n        /* \"#utility.yul\":3673:3792   */\n    tag_125:\n        /* \"#utility.yul\":3831:3832   */\n      0x00\n        /* \"#utility.yul\":3856:3920   */\n      tag_127\n        /* \"#utility.yul\":3912:3919   */\n      dup5\n        /* \"#utility.yul\":3903:3909   */\n      dup3\n        /* \"#utility.yul\":3892:3901   */\n      dup6\n        /* \"#utility.yul\":3888:3910   */\n      add\n        /* \"#utility.yul\":3856:3920   */\n      tag_80\n      jump\t// in\n    tag_127:\n        /* \"#utility.yul\":3846:3920   */\n      swap2\n      pop\n        /* \"#utility.yul\":3802:3930   */\n      pop\n        /* \"#utility.yul\":3586:3937   */\n      swap3\n      swap2\n      pop\n      pop\n      jump\t// out\n        /* \"#utility.yul\":3943:4059   */\n    tag_81:\n        /* \"#utility.yul\":4028:4052   */\n      tag_129\n        /* \"#utility.yul\":4046:4051   */\n      dup2\n        /* \"#utility.yul\":4028:4052   */\n      tag_68\n      jump\t// in\n    tag_129:\n        /* \"#utility.yul\":4023:4026   */\n      dup3\n        /* \"#utility.yul\":4016:4053   */\n      mstore\n        /* \"#utility.yul\":3943:4059   */\n      pop\n      pop\n      jump\t// out\n        /* \"#utility.yul\":4129:4664   */\n    tag_82:\n        /* \"#utility.yul\":4286:4290   */\n      0x40\n        /* \"#utility.yul\":4281:4284   */\n      dup3\n        /* \"#utility.yul\":4277:4291   */\n      add\n        /* \"#utility.yul\":4373:4377   */\n      0x00\n        /* \"#utility.yul\":4366:4371   */\n      dup3\n        /* \"#utility.yul\":4362:4378   */\n      add\n        /* \"#utility.yul\":4356:4379   */\n      mload\n        /* \"#utility.yul\":4392:4463   */\n      tag_131\n        /* \"#utility.yul\":4457:4461   */\n      0x00\n        /* \"#utility.yul\":4452:4455   */\n      dup6\n        /* \"#utility.yul\":4448:4462   */\n      add\n        /* \"#utility.yul\":4434:4446   */\n      dup3\n        /* \"#utility.yul\":4392:4463   */\n      tag_81\n      jump\t// in\n    tag_131:\n        /* \"#utility.yul\":4301:4473   */\n      pop\n        /* \"#utility.yul\":4557:4561   */\n      0x20\n        /* \"#utility.yul\":4550:4555   */\n      dup3\n        /* \"#utility.yul\":4546:4562   */\n      add\n        /* \"#utility.yul\":4540:4563   */\n      mload\n        /* \"#utility.yul\":4576:4647   */\n      tag_132\n        /* \"#utility.yul\":4641:4645   */\n      0x20\n        /* \"#utility.yul\":4636:4639   */\n      dup6\n        /* \"#utility.yul\":4632:4646   */\n      add\n        /* \"#utility.yul\":4618:4630   */\n      dup3\n        /* \"#utility.yul\":4576:4647   */\n      tag_72\n      jump\t// in\n    tag_132:\n        /* \"#utility.yul\":4483:4657   */\n      pop\n        /* \"#utility.yul\":4255:4664   */\n      pop\n        /* \"#utility.yul\":4129:4664   */\n      pop\n      pop\n      jump\t// out\n        /* \"#utility.yul\":4670:5012   */\n    tag_60:\n        /* \"#utility.yul\":4823:4827   */\n      0x00\n        /* \"#utility.yul\":4861:4863   */\n      0x40\n        /* \"#utility.yul\":4850:4859   */\n      dup3\n        /* \"#utility.yul\":4846:4864   */\n      add\n        /* \"#utility.yul\":4838:4864   */\n      swap1\n      pop\n        /* \"#utility.yul\":4874:5005   */\n      tag_134\n        /* \"#utility.yul\":5002:5003   */\n      0x00\n        /* \"#utility.yul\":4991:5000   */\n      dup4\n        /* \"#utility.yul\":4987:5004   */\n      add\n        /* \"#utility.yul\":4978:4984   */\n      dup5\n        /* \"#utility.yul\":4874:5005   */\n      tag_82\n      jump\t// in\n    tag_134:\n        /* \"#utility.yul\":4670:5012   */\n      swap3\n      swap2\n      pop\n      pop\n      jump\t// out\n\n    auxdata: 0xa264697066735822122038bb58231f53b772cc1818014496d5748a434378141c0d196a979af77b9a599864736f6c63430008180033\n}\n",
				"bytecode": {
					"linkReferences": {
						"testLinkedLibrary.sol": {
							"PoolLogic": [
								{
									"length": 20,
									"start": 465
								},
								{
									"length": 20,
									"start": 627
								},
								{
									"length": 20,
									"start": 1031
								}
							]
						}
					},
					"object": "608060405234801561000f575f80fd5b506106b58061001d5f395ff3fe608060405234801561000f575f80fd5b506004361061009c575f3560e01c80634f8632ba116100645780634f8632ba1461010e578063591fb03e1461012c578063c19d93fb1461014a578063c35dfee814610168578063fe090e5f146101865761009c565b806314d93340146100a057806316a19d59146100aa57806331e2e06a146100c85780633a4b66f1146100e6578063470eb79f146100f0575b5f80fd5b6100a8610190565b005b6100b2610248565b6040516100bf9190610496565b60405180910390f35b6100d061024e565b6040516100dd9190610496565b60405180910390f35b6100ee610254565b005b6100f8610300565b6040516101059190610496565b60405180910390f35b610116610306565b60405161012391906104ee565b60405180910390f35b610134610329565b6040516101419190610521565b60405180910390f35b61015261037f565b60405161015f91906104ee565b60405180910390f35b6101706103a4565b60405161017d9190610496565b60405180910390f35b61018e6103aa565b005b5a6002819055505f6040518060200160405280678ac7230489e8000081525090505f73__$a0641e4a8fb69f98d66c1e6e7c648f5f82$__63d6fdcc6b836040518263ffffffff1660e01b81526004016101e99190610563565b602060405180830381865af4158015610204573d5f803e3d5ffd5b505050506040513d601f19601f8201168201806040525081019061022891906105aa565b90506798a7d9b8314c0000811461023d575f80fd5b5a6003819055505050565b60045481565b60025481565b73__$a0641e4a8fb69f98d66c1e6e7c648f5f82$__63fe6472916040518163ffffffff1660e01b8152600401602060405180830381865af415801561029b573d5f803e3d5ffd5b505050506040513d601f19601f820116820180604052508101906102bf91906105ff565b60015f6101000a81548173ffffffffffffffffffffffffffffffffffffffff021916908373ffffffffffffffffffffffffffffffffffffffff160217905550565b60035481565b5f8054906101000a900473ffffffffffffffffffffffffffffffffffffffff1681565b5f3373ffffffffffffffffffffffffffffffffffffffff1660015f9054906101000a900473ffffffffffffffffffffffffffffffffffffffff1673ffffffffffffffffffffffffffffffffffffffff1614905090565b60015f9054906101000a900473ffffffffffffffffffffffffffffffffffffffff1681565b60055481565b5a6004819055505f60405180604001604052803373ffffffffffffffffffffffffffffffffffffffff168152602001678ac7230489e8000081525090505f73__$a0641e4a8fb69f98d66c1e6e7c648f5f82$__633828adda836040518263ffffffff1660e01b815260040161041f9190610666565b602060405180830381865af415801561043a573d5f803e3d5ffd5b505050506040513d601f19601f8201168201806040525081019061045e91906105aa565b90506798a7d9b8314c00008114610473575f80fd5b5a6005819055505050565b5f819050919050565b6104908161047e565b82525050565b5f6020820190506104a95f830184610487565b92915050565b5f73ffffffffffffffffffffffffffffffffffffffff82169050919050565b5f6104d8826104af565b9050919050565b6104e8816104ce565b82525050565b5f6020820190506105015f8301846104df565b92915050565b5f8115159050919050565b61051b81610507565b82525050565b5f6020820190506105345f830184610512565b92915050565b6105438161047e565b82525050565b602082015f82015161055d5f85018261053a565b50505050565b5f6020820190506105765f830184610549565b92915050565b5f80fd5b6105898161047e565b8114610593575f80fd5b50565b5f815190506105a481610580565b92915050565b5f602082840312156105bf576105be61057c565b5b5f6105cc84828501610596565b91505092915050565b6105de816104ce565b81146105e8575f80fd5b50565b5f815190506105f9816105d5565b92915050565b5f602082840312156106145761061361057c565b5b5f610621848285016105eb565b91505092915050565b610633816104ce565b82525050565b604082015f82015161064d5f85018261062a565b506020820151610660602085018261053a565b50505050565b5f6040820190506106795f830184610639565b9291505056fea264697066735822122038bb58231f53b772cc1818014496d5748a434378141c0d196a979af77b9a599864736f6c63430008180033",
					"opcodes": "PUSH1 0x80 PUSH1 0x40 MSTORE CALLVALUE DUP1 ISZERO PUSH2 0xF JUMPI PUSH0 DUP1 REVERT JUMPDEST POP PUSH2 0x6B5 DUP1 PUSH2 0x1D PUSH0 CODECOPY PUSH0 RETURN INVALID PUSH1 0x80 PUSH1 0x40 MSTORE CALLVALUE DUP1 ISZERO PUSH2 0xF JUMPI PUSH0 DUP1 REVERT JUMPDEST POP PUSH1 0x4 CALLDATASIZE LT PUSH2 0x9C JUMPI PUSH0 CALLDATALOAD PUSH1 0xE0 SHR DUP1 PUSH4 0x4F8632BA GT PUSH2 0x64 JUMPI DUP1 PUSH4 0x4F8632BA EQ PUSH2 0x10E JUMPI DUP1 PUSH4 0x591FB03E EQ PUSH2 0x12C JUMPI DUP1 PUSH4 0xC19D93FB EQ PUSH2 0x14A JUMPI DUP1 PUSH4 0xC35DFEE8 EQ PUSH2 0x168 JUMPI DUP1 PUSH4 0xFE090E5F EQ PUSH2 0x186 JUMPI PUSH2 0x9C JUMP JUMPDEST DUP1 PUSH4 0x14D93340 EQ PUSH2 0xA0 JUMPI DUP1 PUSH4 0x16A19D59 EQ PUSH2 0xAA JUMPI DUP1 PUSH4 0x31E2E06A EQ PUSH2 0xC8 JUMPI DUP1 PUSH4 0x3A4B66F1 EQ PUSH2 0xE6 JUMPI DUP1 PUSH4 0x470EB79F EQ PUSH2 0xF0 JUMPI JUMPDEST PUSH0 DUP1 REVERT JUMPDEST PUSH2 0xA8 PUSH2 0x190 JUMP JUMPDEST STOP JUMPDEST PUSH2 0xB2 PUSH2 0x248 JUMP JUMPDEST PUSH1 0x40 MLOAD PUSH2 0xBF SWAP2 SWAP1 PUSH2 0x496 JUMP JUMPDEST PUSH1 0x40 MLOAD DUP1 SWAP2 SUB SWAP1 RETURN JUMPDEST PUSH2 0xD0 PUSH2 0x24E JUMP JUMPDEST PUSH1 0x40 MLOAD PUSH2 0xDD SWAP2 SWAP1 PUSH2 0x496 JUMP JUMPDEST PUSH1 0x40 MLOAD DUP1 SWAP2 SUB SWAP1 RETURN JUMPDEST PUSH2 0xEE PUSH2 0x254 JUMP JUMPDEST STOP JUMPDEST PUSH2 0xF8 PUSH2 0x300 JUMP JUMPDEST PUSH1 0x40 MLOAD PUSH2 0x105 SWAP2 SWAP1 PUSH2 0x496 JUMP JUMPDEST PUSH1 0x40 MLOAD DUP1 SWAP2 SUB SWAP1 RETURN JUMPDEST PUSH2 0x116 PUSH2 0x306 JUMP JUMPDEST PUSH1 0x40 MLOAD PUSH2 0x123 SWAP2 SWAP1 PUSH2 0x4EE JUMP JUMPDEST PUSH1 0x40 MLOAD DUP1 SWAP2 SUB SWAP1 RETURN JUMPDEST PUSH2 0x134 PUSH2 0x329 JUMP JUMPDEST PUSH1 0x40 MLOAD PUSH2 0x141 SWAP2 SWAP1 PUSH2 0x521 JUMP JUMPDEST PUSH1 0x40 MLOAD DUP1 SWAP2 SUB SWAP1 RETURN JUMPDEST PUSH2 0x152 PUSH2 0x37F JUMP JUMPDEST PUSH1 0x40 MLOAD PUSH2 0x15F SWAP2 SWAP1 PUSH2 0x4EE JUMP JUMPDEST PUSH1 0x40 MLOAD DUP1 SWAP2 SUB SWAP1 RETURN JUMPDEST PUSH2 0x170 PUSH2 0x3A4 JUMP JUMPDEST PUSH1 0x40 MLOAD PUSH2 0x17D SWAP2 SWAP1 PUSH2 0x496 JUMP JUMPDEST PUSH1 0x40 MLOAD DUP1 SWAP2 SUB SWAP1 RETURN JUMPDEST PUSH2 0x18E PUSH2 0x3AA JUMP JUMPDEST STOP JUMPDEST GAS PUSH1 0x2 DUP2 SWAP1 SSTORE POP PUSH0 PUSH1 0x40 MLOAD DUP1 PUSH1 0x20 ADD PUSH1 0x40 MSTORE DUP1 PUSH8 0x8AC7230489E80000 DUP2 MSTORE POP SWAP1 POP PUSH0 PUSH20 0x0 PUSH4 0xD6FDCC6B DUP4 PUSH1 0x40 MLOAD DUP3 PUSH4 0xFFFFFFFF AND PUSH1 0xE0 SHL DUP2 MSTORE PUSH1 0x4 ADD PUSH2 0x1E9 SWAP2 SWAP1 PUSH2 0x563 JUMP JUMPDEST PUSH1 0x20 PUSH1 0x40 MLOAD DUP1 DUP4 SUB DUP2 DUP7 GAS DELEGATECALL ISZERO DUP1 ISZERO PUSH2 0x204 JUMPI RETURNDATASIZE PUSH0 DUP1 RETURNDATACOPY RETURNDATASIZE PUSH0 REVERT JUMPDEST POP POP POP POP PUSH1 0x40 MLOAD RETURNDATASIZE PUSH1 0x1F NOT PUSH1 0x1F DUP3 ADD AND DUP3 ADD DUP1 PUSH1 0x40 MSTORE POP DUP2 ADD SWAP1 PUSH2 0x228 SWAP2 SWAP1 PUSH2 0x5AA JUMP JUMPDEST SWAP1 POP PUSH8 0x98A7D9B8314C0000 DUP2 EQ PUSH2 0x23D JUMPI PUSH0 DUP1 REVERT JUMPDEST GAS PUSH1 0x3 DUP2 SWAP1 SSTORE POP POP POP JUMP JUMPDEST PUSH1 0x4 SLOAD DUP2 JUMP JUMPDEST PUSH1 0x2 SLOAD DUP2 JUMP JUMPDEST PUSH20 0x0 PUSH4 0xFE647291 PUSH1 0x40 MLOAD DUP2 PUSH4 0xFFFFFFFF AND PUSH1 0xE0 SHL DUP2 MSTORE PUSH1 0x4 ADD PUSH1 0x20 PUSH1 0x40 MLOAD DUP1 DUP4 SUB DUP2 DUP7 GAS DELEGATECALL ISZERO DUP1 ISZERO PUSH2 0x29B JUMPI RETURNDATASIZE PUSH0 DUP1 RETURNDATACOPY RETURNDATASIZE PUSH0 REVERT JUMPDEST POP POP POP POP PUSH1 0x40 MLOAD RETURNDATASIZE PUSH1 0x1F NOT PUSH1 0x1F DUP3 ADD AND DUP3 ADD DUP1 PUSH1 0x40 MSTORE POP DUP2 ADD SWAP1 PUSH2 0x2BF SWAP2 SWAP1 PUSH2 0x5FF JUMP JUMPDEST PUSH1 0x1 PUSH0 PUSH2 0x100 EXP DUP2 SLOAD DUP2 PUSH20 0xFFFFFFFFFFFFFFFFFFFFFFFFFFFFFFFFFFFFFFFF MUL NOT AND SWAP1 DUP4 PUSH20 0xFFFFFFFFFFFFFFFFFFFFFFFFFFFFFFFFFFFFFFFF AND MUL OR SWAP1 SSTORE POP JUMP JUMPDEST PUSH1 0x3 SLOAD DUP2 JUMP JUMPDEST PUSH0 DUP1 SLOAD SWAP1 PUSH2 0x100 EXP SWAP1 DIV PUSH20 0xFFFFFFFFFFFFFFFFFFFFFFFFFFFFFFFFFFFFFFFF AND DUP2 JUMP JUMPDEST PUSH0 CALLER PUSH20 0xFFFFFFFFFFFFFFFFFFFFFFFFFFFFFFFFFFFFFFFF AND PUSH1 0x1 PUSH0 SWAP1 SLOAD SWAP1 PUSH2 0x100 EXP SWAP1 DIV PUSH20 0xFFFFFFFFFFFFFFFFFFFFFFFFFFFFFFFFFFFFFFFF AND PUSH20 0xFFFFFFFFFFFFFFFFFFFFFFFFFFFFFFFFFFFFFFFF AND EQ SWAP1 POP SWAP1 JUMP JUMPDEST PUSH1 0x1 PUSH0 SWAP1 SLOAD SWAP1 PUSH2 0x100 EXP SWAP1 DIV PUSH20 0xFFFFFFFFFFFFFFFFFFFFFFFFFFFFFFFFFFFFFFFF AND DUP2 JUMP JUMPDEST PUSH1 0x5 SLOAD DUP2 JUMP JUMPDEST GAS PUSH1 0x4 DUP2 SWAP1 SSTORE POP PUSH0 PUSH1 0x40 MLOAD DUP1 PUSH1 0x40 ADD PUSH1 0x40 MSTORE DUP1 CALLER PUSH20 0xFFFFFFFFFFFFFFFFFFFFFFFFFFFFFFFFFFFFFFFF AND DUP2 MSTORE PUSH1 0x20 ADD PUSH8 0x8AC7230489E80000 DUP2 MSTORE POP SWAP1 POP PUSH0 PUSH20 0x0 PUSH4 0x3828ADDA DUP4 PUSH1 0x40 MLOAD DUP3 PUSH4 0xFFFFFFFF AND PUSH1 0xE0 SHL DUP2 MSTORE PUSH1 0x4 ADD PUSH2 0x41F SWAP2 SWAP1 PUSH2 0x666 JUMP JUMPDEST PUSH1 0x20 PUSH1 0x40 MLOAD DUP1 DUP4 SUB DUP2 DUP7 GAS DELEGATECALL ISZERO DUP1 ISZERO PUSH2 0x43A JUMPI RETURNDATASIZE PUSH0 DUP1 RETURNDATACOPY RETURNDATASIZE PUSH0 REVERT JUMPDEST POP POP POP POP PUSH1 0x40 MLOAD RETURNDATASIZE PUSH1 0x1F NOT PUSH1 0x1F DUP3 ADD AND DUP3 ADD DUP1 PUSH1 0x40 MSTORE POP DUP2 ADD SWAP1 PUSH2 0x45E SWAP2 SWAP1 PUSH2 0x5AA JUMP JUMPDEST SWAP1 POP PUSH8 0x98A7D9B8314C0000 DUP2 EQ PUSH2 0x473 JUMPI PUSH0 DUP1 REVERT JUMPDEST GAS PUSH1 0x5 DUP2 SWAP1 SSTORE POP POP POP JUMP JUMPDEST PUSH0 DUP2 SWAP1 POP SWAP2 SWAP1 POP JUMP JUMPDEST PUSH2 0x490 DUP2 PUSH2 0x47E JUMP JUMPDEST DUP3 MSTORE POP POP JUMP JUMPDEST PUSH0 PUSH1 0x20 DUP3 ADD SWAP1 POP PUSH2 0x4A9 PUSH0 DUP4 ADD DUP5 PUSH2 0x487 JUMP JUMPDEST SWAP3 SWAP2 POP POP JUMP JUMPDEST PUSH0 PUSH20 0xFFFFFFFFFFFFFFFFFFFFFFFFFFFFFFFFFFFFFFFF DUP3 AND SWAP1 POP SWAP2 SWAP1 POP JUMP JUMPDEST PUSH0 PUSH2 0x4D8 DUP3 PUSH2 0x4AF JUMP JUMPDEST SWAP1 POP SWAP2 SWAP1 POP JUMP JUMPDEST PUSH2 0x4E8 DUP2 PUSH2 0x4CE JUMP JUMPDEST DUP3 MSTORE POP POP JUMP JUMPDEST PUSH0 PUSH1 0x20 DUP3 ADD SWAP1 POP PUSH2 0x501 PUSH0 DUP4 ADD DUP5 PUSH2 0x4DF JUMP JUMPDEST SWAP3 SWAP2 POP POP JUMP JUMPDEST PUSH0 DUP2 ISZERO ISZERO SWAP1 POP SWAP2 SWAP1 POP JUMP JUMPDEST PUSH2 0x51B DUP2 PUSH2 0x507 JUMP JUMPDEST DUP3 MSTORE POP POP JUMP JUMPDEST PUSH0 PUSH1 0x20 DUP3 ADD SWAP1 POP PUSH2 0x534 PUSH0 DUP4 ADD DUP5 PUSH2 0x512 JUMP JUMPDEST SWAP3 SWAP2 POP POP JUMP JUMPDEST PUSH2 0x543 DUP2 PUSH2 0x47E JUMP JUMPDEST DUP3 MSTORE POP POP JUMP JUMPDEST PUSH1 0x20 DUP3 ADD PUSH0 DUP3 ADD MLOAD PUSH2 0x55D PUSH0 DUP6 ADD DUP3 PUSH2 0x53A JUMP JUMPDEST POP POP POP POP JUMP JUMPDEST PUSH0 PUSH1 0x20 DUP3 ADD SWAP1 POP PUSH2 0x576 PUSH0 DUP4 ADD DUP5 PUSH2 0x549 JUMP JUMPDEST SWAP3 SWAP2 POP POP JUMP JUMPDEST PUSH0 DUP1 REVERT JUMPDEST PUSH2 0x589 DUP2 PUSH2 0x47E JUMP JUMPDEST DUP2 EQ PUSH2 0x593 JUMPI PUSH0 DUP1 REVERT JUMPDEST POP JUMP JUMPDEST PUSH0 DUP2 MLOAD SWAP1 POP PUSH2 0x5A4 DUP2 PUSH2 0x580 JUMP JUMPDEST SWAP3 SWAP2 POP POP JUMP JUMPDEST PUSH0 PUSH1 0x20 DUP3 DUP5 SUB SLT ISZERO PUSH2 0x5BF JUMPI PUSH2 0x5BE PUSH2 0x57C JUMP JUMPDEST JUMPDEST PUSH0 PUSH2 0x5CC DUP5 DUP3 DUP6 ADD PUSH2 0x596 JUMP JUMPDEST SWAP2 POP POP SWAP3 SWAP2 POP POP JUMP JUMPDEST PUSH2 0x5DE DUP2 PUSH2 0x4CE JUMP JUMPDEST DUP2 EQ PUSH2 0x5E8 JUMPI PUSH0 DUP1 REVERT JUMPDEST POP JUMP JUMPDEST PUSH0 DUP2 MLOAD SWAP1 POP PUSH2 0x5F9 DUP2 PUSH2 0x5D5 JUMP JUMPDEST SWAP3 SWAP2 POP POP JUMP JUMPDEST PUSH0 PUSH1 0x20 DUP3 DUP5 SUB SLT ISZERO PUSH2 0x614 JUMPI PUSH2 0x613 PUSH2 0x57C JUMP JUMPDEST JUMPDEST PUSH0 PUSH2 0x621 DUP5 DUP3 DUP6 ADD PUSH2 0x5EB JUMP JUMPDEST SWAP2 POP POP SWAP3 SWAP2 POP POP JUMP JUMPDEST PUSH2 0x633 DUP2 PUSH2 0x4CE JUMP JUMPDEST DUP3 MSTORE POP POP JUMP JUMPDEST PUSH1 0x40 DUP3 ADD PUSH0 DUP3 ADD MLOAD PUSH2 0x64D PUSH0 DUP6 ADD DUP3 PUSH2 0x62A JUMP JUMPDEST POP PUSH1 0x20 DUP3 ADD MLOAD PUSH2 0x660 PUSH1 0x20 DUP6 ADD DUP3 PUSH2 0x53A JUMP JUMPDEST POP POP POP POP JUMP JUMPDEST PUSH0 PUSH1 0x40 DUP3 ADD SWAP1 POP PUSH2 0x679 PUSH0 DUP4 ADD DUP5 PUSH2 0x639 JUMP JUMPDEST SWAP3 SWAP2 POP POP JUMP INVALID LOG2 PUSH5 0x6970667358 0x22 SLT KECCAK256 CODESIZE 0xBB PC 0x23 0x1F MSTORE8 0xB7 PUSH19 0xCC1818014496D5748A434378141C0D196A979A 0xF7 PUSH28 0x9A599864736F6C634300081800330000000000000000000000000000 "
				},
				"gasEstimates": {
					"creation": {
						"codeDepositCost": "343400",
						"executionCost": "378",
						"totalCost": "343778"
					},
					"external": {
						"gasAfter_msgSender()": "2514",
						"gasAfter_user()": "2491",
						"gasBefore_msgSender()": "2470",
						"gasBefore_user()": "2448",
						"isSame()": "2512",
						"stake()": "infinite",
						"state()": "2552",
						"testSender1()": "infinite",
						"testSender2()": "infinite",
						"user()": "2505"
					}
				},
				"methodIdentifiers": {
					"gasAfter_msgSender()": "470eb79f",
					"gasAfter_user()": "c35dfee8",
					"gasBefore_msgSender()": "31e2e06a",
					"gasBefore_user()": "16a19d59",
					"isSame()": "591fb03e",
					"stake()": "3a4b66f1",
					"state()": "c19d93fb",
					"testSender1()": "14d93340",
					"testSender2()": "fe090e5f",
					"user()": "4f8632ba"
				}
			},
			"storageLayout": {
				"storage": [
					{
						"astId": 102,
						"contract": "testLinkedLibrary.sol:Pool",
						"label": "user",
						"offset": 0,
						"slot": "0",
						"type": "t_address"
					},
					{
						"astId": 104,
						"contract": "testLinkedLibrary.sol:Pool",
						"label": "state",
						"offset": 0,
						"slot": "1",
						"type": "t_address"
					},
					{
						"astId": 127,
						"contract": "testLinkedLibrary.sol:Pool",
						"label": "gasBefore_msgSender",
						"offset": 0,
						"slot": "2",
						"type": "t_uint256"
					},
					{
						"astId": 129,
						"contract": "testLinkedLibrary.sol:Pool",
						"label": "gasAfter_msgSender",
						"offset": 0,
						"slot": "3",
						"type": "t_uint256"
					},
					{
						"astId": 131,
						"contract": "testLinkedLibrary.sol:Pool",
						"label": "gasBefore_user",
						"offset": 0,
						"slot": "4",
						"type": "t_uint256"
					},
					{
						"astId": 133,
						"contract": "testLinkedLibrary.sol:Pool",
						"label": "gasAfter_user",
						"offset": 0,
						"slot": "5",
						"type": "t_uint256"
					}
				],
				"types": {
					"t_address": {
						"encoding": "inplace",
						"label": "address",
						"numberOfBytes": "20"
					},
					"t_uint256": {
						"encoding": "inplace",
						"label": "uint256",
						"numberOfBytes": "32"
					}
				}
			},
			"userdoc": {
				"kind": "user",
				"methods": {},
				"version": 1
			}
		}
	}
}