{
	"teststmap.sol": {
		"Timestmap": {
			"abi": [
				{
					"inputs": [],
					"name": "_currTimestamp",
					"outputs": [
						{
							"internalType": "uint256",
							"name": "",
							"type": "uint256"
						}
					],
					"stateMutability": "view",
					"type": "function"
				},
				{
					"inputs": [],
					"name": "_lastReceivedTimestamp",
					"outputs": [
						{
							"internalType": "uint256",
							"name": "",
							"type": "uint256"
						}
					],
					"stateMutability": "view",
					"type": "function"
				},
				{
					"inputs": [],
					"name": "checktime",
					"outputs": [
						{
							"internalType": "bool",
							"name": "",
							"type": "bool"
						}
					],
					"stateMutability": "nonpayable",
					"type": "function"
				},
				{
					"inputs": [],
					"name": "currTimestamp",
					"outputs": [
						{
							"internalType": "uint256",
							"name": "",
							"type": "uint256"
						}
					],
					"stateMutability": "view",
					"type": "function"
				},
				{
					"inputs": [],
					"name": "lastReceivedTimestamp",
					"outputs": [
						{
							"internalType": "uint256",
							"name": "",
							"type": "uint256"
						}
					],
					"stateMutability": "view",
					"type": "function"
				},
				{
					"inputs": [],
					"name": "ret",
					"outputs": [
						{
							"internalType": "uint256",
							"name": "",
							"type": "uint256"
						}
					],
					"stateMutability": "pure",
					"type": "function"
				},
				{
					"inputs": [],
					"name": "ret1",
					"outputs": [
						{
							"internalType": "uint256",
							"name": "",
							"type": "uint256"
						}
					],
					"stateMutability": "pure",
					"type": "function"
				}
			],
			"devdoc": {
				"kind": "dev",
				"methods": {},
				"version": 1
			},
			"evm": {
				"assembly": "    /* \"teststmap.sol\":67:893  contract Timestmap {... */\n  mstore(0x40, 0x80)\n    /* \"teststmap.sol\":131:132  0 */\n  0x00\n    /* \"teststmap.sol\":95:132  uint public lastReceivedTimestamp = 0 */\n  dup1\n  sstore\n    /* \"teststmap.sol\":167:172  86411 */\n  0x01518b\n    /* \"teststmap.sol\":139:172  uint public currTimestamp = 86411 */\n  0x01\n  sstore\n    /* \"teststmap.sol\":67:893  contract Timestmap {... */\n  callvalue\n  dup1\n  iszero\n  tag_1\n  jumpi\n  0x00\n  dup1\n  revert\ntag_1:\n  pop\n  dataSize(sub_0)\n  dup1\n  dataOffset(sub_0)\n  0x00\n  codecopy\n  0x00\n  return\nstop\n\nsub_0: assembly {\n        /* \"teststmap.sol\":67:893  contract Timestmap {... */\n      mstore(0x40, 0x80)\n      callvalue\n      dup1\n      iszero\n      tag_1\n      jumpi\n      0x00\n      dup1\n      revert\n    tag_1:\n      pop\n      jumpi(tag_2, lt(calldatasize, 0x04))\n      shr(0xe0, calldataload(0x00))\n      dup1\n      0x266de1e0\n      gt\n      tag_10\n      jumpi\n      dup1\n      0x266de1e0\n      eq\n      tag_6\n      jumpi\n      dup1\n      0x5819e99c\n      eq\n      tag_7\n      jumpi\n      dup1\n      0xb2130962\n      eq\n      tag_8\n      jumpi\n      dup1\n      0xe5d8832a\n      eq\n      tag_9\n      jumpi\n      jump(tag_2)\n    tag_10:\n      dup1\n      0x1a266887\n      eq\n      tag_3\n      jumpi\n      dup1\n      0x1b08d96f\n      eq\n      tag_4\n      jumpi\n      dup1\n      0x25f58251\n      eq\n      tag_5\n      jumpi\n    tag_2:\n      0x00\n      dup1\n      revert\n        /* \"teststmap.sol\":813:890  function ret1() public pure returns(uint256) {... */\n    tag_3:\n      tag_11\n      tag_12\n      jump\t// in\n    tag_11:\n      mload(0x40)\n      tag_13\n      swap2\n      swap1\n      tag_14\n      jump\t// in\n    tag_13:\n      mload(0x40)\n      dup1\n      swap2\n      sub\n      swap1\n      return\n        /* \"teststmap.sol\":636:805  function ret() public pure returns(uint256) {... */\n    tag_4:\n      tag_15\n      tag_16\n      jump\t// in\n    tag_15:\n      mload(0x40)\n      tag_17\n      swap2\n      swap1\n      tag_14\n      jump\t// in\n    tag_17:\n      mload(0x40)\n      dup1\n      swap2\n      sub\n      swap1\n      return\n        /* \"teststmap.sol\":224:250  uint public _currTimestamp */\n    tag_5:\n      tag_18\n      tag_19\n      jump\t// in\n    tag_18:\n      mload(0x40)\n      tag_20\n      swap2\n      swap1\n      tag_14\n      jump\t// in\n    tag_20:\n      mload(0x40)\n      dup1\n      swap2\n      sub\n      swap1\n      return\n        /* \"teststmap.sol\":259:628  function checktime() public returns (bool) {    ... */\n    tag_6:\n      tag_21\n      tag_22\n      jump\t// in\n    tag_21:\n      mload(0x40)\n      tag_23\n      swap2\n      swap1\n      tag_24\n      jump\t// in\n    tag_23:\n      mload(0x40)\n      dup1\n      swap2\n      sub\n      swap1\n      return\n        /* \"teststmap.sol\":183:217  uint public _lastReceivedTimestamp */\n    tag_7:\n      tag_25\n      tag_26\n      jump\t// in\n    tag_25:\n      mload(0x40)\n      tag_27\n      swap2\n      swap1\n      tag_14\n      jump\t// in\n    tag_27:\n      mload(0x40)\n      dup1\n      swap2\n      sub\n      swap1\n      return\n        /* \"teststmap.sol\":139:172  uint public currTimestamp = 86411 */\n    tag_8:\n      tag_28\n      tag_29\n      jump\t// in\n    tag_28:\n      mload(0x40)\n      tag_30\n      swap2\n      swap1\n      tag_14\n      jump\t// in\n    tag_30:\n      mload(0x40)\n      dup1\n      swap2\n      sub\n      swap1\n      return\n        /* \"teststmap.sol\":95:132  uint public lastReceivedTimestamp = 0 */\n    tag_9:\n      tag_31\n      tag_32\n      jump\t// in\n    tag_31:\n      mload(0x40)\n      tag_33\n      swap2\n      swap1\n      tag_14\n      jump\t// in\n    tag_33:\n      mload(0x40)\n      dup1\n      swap2\n      sub\n      swap1\n      return\n        /* \"teststmap.sol\":813:890  function ret1() public pure returns(uint256) {... */\n    tag_12:\n        /* \"teststmap.sol\":849:856  uint256 */\n      0x00\n        /* \"teststmap.sol\":876:882  1 days */\n      0x015180\n        /* \"teststmap.sol\":869:882  return 1 days */\n      swap1\n      pop\n        /* \"teststmap.sol\":813:890  function ret1() public pure returns(uint256) {... */\n      swap1\n      jump\t// out\n        /* \"teststmap.sol\":636:805  function ret() public pure returns(uint256) {... */\n    tag_16:\n        /* \"teststmap.sol\":671:678  uint256 */\n      0x00\n        /* \"teststmap.sol\":691:703  uint256 curr */\n      dup1\n        /* \"teststmap.sol\":706:711  86411 */\n      0x01518b\n        /* \"teststmap.sol\":691:711  uint256 curr = 86411 */\n      swap1\n      pop\n        /* \"teststmap.sol\":722:734  uint256 last */\n      0x00\n        /* \"teststmap.sol\":737:742  86400 */\n      0x015180\n        /* \"teststmap.sol\":722:742  uint256 last = 86400 */\n      swap1\n      pop\n        /* \"teststmap.sol\":775:779  last */\n      dup1\n        /* \"teststmap.sol\":768:772  curr */\n      dup3\n        /* \"teststmap.sol\":768:779  curr / last */\n      tag_36\n      swap2\n      swap1\n      tag_37\n      jump\t// in\n    tag_36:\n        /* \"teststmap.sol\":753:780  return uint256(curr / last) */\n      swap3\n      pop\n      pop\n      pop\n        /* \"teststmap.sol\":636:805  function ret() public pure returns(uint256) {... */\n      swap1\n      jump\t// out\n        /* \"teststmap.sol\":224:250  uint public _currTimestamp */\n    tag_19:\n      sload(0x03)\n      dup2\n      jump\t// out\n        /* \"teststmap.sol\":259:628  function checktime() public returns (bool) {    ... */\n    tag_22:\n        /* \"teststmap.sol\":296:300  bool */\n      0x00\n        /* \"teststmap.sol\":356:362  1 days */\n      0x015180\n        /* \"teststmap.sol\":339:352  currTimestamp */\n      sload(0x01)\n        /* \"teststmap.sol\":339:363  currTimestamp / (1 days) */\n      tag_39\n      swap2\n      swap1\n      tag_37\n      jump\t// in\n    tag_39:\n        /* \"teststmap.sol\":321:335  _currTimestamp */\n      0x03\n        /* \"teststmap.sol\":321:363  _currTimestamp  = currTimestamp / (1 days) */\n      dup2\n      swap1\n      sstore\n      pop\n        /* \"teststmap.sol\":471:477  1 days */\n      0x015180\n        /* \"teststmap.sol\":446:467  lastReceivedTimestamp */\n      sload(0x00)\n        /* \"teststmap.sol\":446:478  lastReceivedTimestamp / (1 days) */\n      tag_40\n      swap2\n      swap1\n      tag_37\n      jump\t// in\n    tag_40:\n        /* \"teststmap.sol\":421:443  _lastReceivedTimestamp */\n      0x02\n        /* \"teststmap.sol\":421:478  _lastReceivedTimestamp = lastReceivedTimestamp / (1 days) */\n      dup2\n      swap1\n      sstore\n      pop\n        /* \"teststmap.sol\":563:569  1 days */\n      0x015180\n        /* \"teststmap.sol\":538:559  lastReceivedTimestamp */\n      sload(0x00)\n        /* \"teststmap.sol\":538:570  lastReceivedTimestamp / (1 days) */\n      tag_41\n      swap2\n      swap1\n      tag_37\n      jump\t// in\n    tag_41:\n        /* \"teststmap.sol\":526:532  1 days */\n      0x015180\n        /* \"teststmap.sol\":509:522  currTimestamp */\n      sload(0x01)\n        /* \"teststmap.sol\":509:533  currTimestamp / (1 days) */\n      tag_42\n      swap2\n      swap1\n      tag_37\n      jump\t// in\n    tag_42:\n        /* \"teststmap.sol\":508:571  (currTimestamp / (1 days)) > (lastReceivedTimestamp / (1 days)) */\n      gt\n        /* \"teststmap.sol\":504:621  if ((currTimestamp / (1 days)) > (lastReceivedTimestamp / (1 days))) {... */\n      iszero\n      tag_43\n      jumpi\n        /* \"teststmap.sol\":605:609  true */\n      0x01\n        /* \"teststmap.sol\":598:609  return true */\n      swap1\n      pop\n      jump(tag_38)\n        /* \"teststmap.sol\":504:621  if ((currTimestamp / (1 days)) > (lastReceivedTimestamp / (1 days))) {... */\n    tag_43:\n        /* \"teststmap.sol\":259:628  function checktime() public returns (bool) {    ... */\n    tag_38:\n      swap1\n      jump\t// out\n        /* \"teststmap.sol\":183:217  uint public _lastReceivedTimestamp */\n    tag_26:\n      sload(0x02)\n      dup2\n      jump\t// out\n        /* \"teststmap.sol\":139:172  uint public currTimestamp = 86411 */\n    tag_29:\n      sload(0x01)\n      dup2\n      jump\t// out\n        /* \"teststmap.sol\":95:132  uint public lastReceivedTimestamp = 0 */\n    tag_32:\n      sload(0x00)\n      dup2\n      jump\t// out\n        /* \"#utility.yul\":7:84   */\n    tag_44:\n        /* \"#utility.yul\":44:51   */\n      0x00\n        /* \"#utility.yul\":73:78   */\n      dup2\n        /* \"#utility.yul\":62:78   */\n      swap1\n      pop\n        /* \"#utility.yul\":7:84   */\n      swap2\n      swap1\n      pop\n      jump\t// out\n        /* \"#utility.yul\":90:208   */\n    tag_45:\n        /* \"#utility.yul\":177:201   */\n      tag_53\n        /* \"#utility.yul\":195:200   */\n      dup2\n        /* \"#utility.yul\":177:201   */\n      tag_44\n      jump\t// in\n    tag_53:\n        /* \"#utility.yul\":172:175   */\n      dup3\n        /* \"#utility.yul\":165:202   */\n      mstore\n        /* \"#utility.yul\":90:208   */\n      pop\n      pop\n      jump\t// out\n        /* \"#utility.yul\":214:436   */\n    tag_14:\n        /* \"#utility.yul\":307:311   */\n      0x00\n        /* \"#utility.yul\":345:347   */\n      0x20\n        /* \"#utility.yul\":334:343   */\n      dup3\n        /* \"#utility.yul\":330:348   */\n      add\n        /* \"#utility.yul\":322:348   */\n      swap1\n      pop\n        /* \"#utility.yul\":358:429   */\n      tag_55\n        /* \"#utility.yul\":426:427   */\n      0x00\n        /* \"#utility.yul\":415:424   */\n      dup4\n        /* \"#utility.yul\":411:428   */\n      add\n        /* \"#utility.yul\":402:408   */\n      dup5\n        /* \"#utility.yul\":358:429   */\n      tag_45\n      jump\t// in\n    tag_55:\n        /* \"#utility.yul\":214:436   */\n      swap3\n      swap2\n      pop\n      pop\n      jump\t// out\n        /* \"#utility.yul\":442:532   */\n    tag_46:\n        /* \"#utility.yul\":476:483   */\n      0x00\n        /* \"#utility.yul\":519:524   */\n      dup2\n        /* \"#utility.yul\":512:525   */\n      iszero\n        /* \"#utility.yul\":505:526   */\n      iszero\n        /* \"#utility.yul\":494:526   */\n      swap1\n      pop\n        /* \"#utility.yul\":442:532   */\n      swap2\n      swap1\n      pop\n      jump\t// out\n        /* \"#utility.yul\":538:647   */\n    tag_47:\n        /* \"#utility.yul\":619:640   */\n      tag_58\n        /* \"#utility.yul\":634:639   */\n      dup2\n        /* \"#utility.yul\":619:640   */\n      tag_46\n      jump\t// in\n    tag_58:\n        /* \"#utility.yul\":614:617   */\n      dup3\n        /* \"#utility.yul\":607:641   */\n      mstore\n        /* \"#utility.yul\":538:647   */\n      pop\n      pop\n      jump\t// out\n        /* \"#utility.yul\":653:863   */\n    tag_24:\n        /* \"#utility.yul\":740:744   */\n      0x00\n        /* \"#utility.yul\":778:780   */\n      0x20\n        /* \"#utility.yul\":767:776   */\n      dup3\n        /* \"#utility.yul\":763:781   */\n      add\n        /* \"#utility.yul\":755:781   */\n      swap1\n      pop\n        /* \"#utility.yul\":791:856   */\n      tag_60\n        /* \"#utility.yul\":853:854   */\n      0x00\n        /* \"#utility.yul\":842:851   */\n      dup4\n        /* \"#utility.yul\":838:855   */\n      add\n        /* \"#utility.yul\":829:835   */\n      dup5\n        /* \"#utility.yul\":791:856   */\n      tag_47\n      jump\t// in\n    tag_60:\n        /* \"#utility.yul\":653:863   */\n      swap3\n      swap2\n      pop\n      pop\n      jump\t// out\n        /* \"#utility.yul\":869:1049   */\n    tag_48:\n        /* \"#utility.yul\":917:994   */\n      0x4e487b7100000000000000000000000000000000000000000000000000000000\n        /* \"#utility.yul\":914:915   */\n      0x00\n        /* \"#utility.yul\":907:995   */\n      mstore\n        /* \"#utility.yul\":1014:1018   */\n      0x12\n        /* \"#utility.yul\":1011:1012   */\n      0x04\n        /* \"#utility.yul\":1004:1019   */\n      mstore\n        /* \"#utility.yul\":1038:1042   */\n      0x24\n        /* \"#utility.yul\":1035:1036   */\n      0x00\n        /* \"#utility.yul\":1028:1043   */\n      revert\n        /* \"#utility.yul\":1241:1426   */\n    tag_37:\n        /* \"#utility.yul\":1281:1282   */\n      0x00\n        /* \"#utility.yul\":1298:1318   */\n      tag_64\n        /* \"#utility.yul\":1316:1317   */\n      dup3\n        /* \"#utility.yul\":1298:1318   */\n      tag_44\n      jump\t// in\n    tag_64:\n        /* \"#utility.yul\":1293:1318   */\n      swap2\n      pop\n        /* \"#utility.yul\":1332:1352   */\n      tag_65\n        /* \"#utility.yul\":1350:1351   */\n      dup4\n        /* \"#utility.yul\":1332:1352   */\n      tag_44\n      jump\t// in\n    tag_65:\n        /* \"#utility.yul\":1327:1352   */\n      swap3\n      pop\n        /* \"#utility.yul\":1371:1372   */\n      dup3\n        /* \"#utility.yul\":1361:1396   */\n      tag_66\n      jumpi\n        /* \"#utility.yul\":1376:1394   */\n      tag_67\n      tag_48\n      jump\t// in\n    tag_67:\n        /* \"#utility.yul\":1361:1396   */\n    tag_66:\n        /* \"#utility.yul\":1418:1419   */\n      dup3\n        /* \"#utility.yul\":1415:1416   */\n      dup3\n        /* \"#utility.yul\":1411:1420   */\n      div\n        /* \"#utility.yul\":1406:1420   */\n      swap1\n      pop\n        /* \"#utility.yul\":1241:1426   */\n      swap3\n      swap2\n      pop\n      pop\n      jump\t// out\n\n    auxdata: 0xa26469706673582212203e34c1644f18365547b4b6ba27fbdb8ebb446443ea4fb494c93e38d3764b3ae364736f6c63430008160033\n}\n",
				"bytecode": {
					"linkReferences": {},
					"object": "60806040525f80556201518b600155348015610019575f80fd5b506102ed806100275f395ff3fe608060405234801561000f575f80fd5b506004361061007b575f3560e01c8063266de1e011610059578063266de1e0146100d95780635819e99c146100f7578063b213096214610115578063e5d8832a146101335761007b565b80631a2668871461007f5780631b08d96f1461009d57806325f58251146100bb575b5f80fd5b610087610151565b604051610094919061020e565b60405180910390f35b6100a561015b565b6040516100b2919061020e565b60405180910390f35b6100c361017d565b6040516100d0919061020e565b60405180910390f35b6100e1610183565b6040516100ee9190610241565b60405180910390f35b6100ff6101e5565b60405161010c919061020e565b60405180910390f35b61011d6101eb565b60405161012a919061020e565b60405180910390f35b61013b6101f1565b604051610148919061020e565b60405180910390f35b5f62015180905090565b5f806201518b90505f62015180905080826101769190610287565b9250505090565b60035481565b5f620151806001546101959190610287565b600381905550620151805f546101ab9190610287565b600281905550620151805f546101c19190610287565b620151806001546101d29190610287565b11156101e157600190506101e2565b5b90565b60025481565b60015481565b5f5481565b5f819050919050565b610208816101f6565b82525050565b5f6020820190506102215f8301846101ff565b92915050565b5f8115159050919050565b61023b81610227565b82525050565b5f6020820190506102545f830184610232565b92915050565b7f4e487b71000000000000000000000000000000000000000000000000000000005f52601260045260245ffd5b5f610291826101f6565b915061029c836101f6565b9250826102ac576102ab61025a565b5b82820490509291505056fea26469706673582212203e34c1644f18365547b4b6ba27fbdb8ebb446443ea4fb494c93e38d3764b3ae364736f6c63430008160033",
					"opcodes": "PUSH1 0x80 PUSH1 0x40 MSTORE PUSH0 DUP1 SSTORE PUSH3 0x1518B PUSH1 0x1 SSTORE CALLVALUE DUP1 ISZERO PUSH2 0x19 JUMPI PUSH0 DUP1 REVERT JUMPDEST POP PUSH2 0x2ED DUP1 PUSH2 0x27 PUSH0 CODECOPY PUSH0 RETURN INVALID PUSH1 0x80 PUSH1 0x40 MSTORE CALLVALUE DUP1 ISZERO PUSH2 0xF JUMPI PUSH0 DUP1 REVERT JUMPDEST POP PUSH1 0x4 CALLDATASIZE LT PUSH2 0x7B JUMPI PUSH0 CALLDATALOAD PUSH1 0xE0 SHR DUP1 PUSH4 0x266DE1E0 GT PUSH2 0x59 JUMPI DUP1 PUSH4 0x266DE1E0 EQ PUSH2 0xD9 JUMPI DUP1 PUSH4 0x5819E99C EQ PUSH2 0xF7 JUMPI DUP1 PUSH4 0xB2130962 EQ PUSH2 0x115 JUMPI DUP1 PUSH4 0xE5D8832A EQ PUSH2 0x133 JUMPI PUSH2 0x7B JUMP JUMPDEST DUP1 PUSH4 0x1A266887 EQ PUSH2 0x7F JUMPI DUP1 PUSH4 0x1B08D96F EQ PUSH2 0x9D JUMPI DUP1 PUSH4 0x25F58251 EQ PUSH2 0xBB JUMPI JUMPDEST PUSH0 DUP1 REVERT JUMPDEST PUSH2 0x87 PUSH2 0x151 JUMP JUMPDEST PUSH1 0x40 MLOAD PUSH2 0x94 SWAP2 SWAP1 PUSH2 0x20E JUMP JUMPDEST PUSH1 0x40 MLOAD DUP1 SWAP2 SUB SWAP1 RETURN JUMPDEST PUSH2 0xA5 PUSH2 0x15B JUMP JUMPDEST PUSH1 0x40 MLOAD PUSH2 0xB2 SWAP2 SWAP1 PUSH2 0x20E JUMP JUMPDEST PUSH1 0x40 MLOAD DUP1 SWAP2 SUB SWAP1 RETURN JUMPDEST PUSH2 0xC3 PUSH2 0x17D JUMP JUMPDEST PUSH1 0x40 MLOAD PUSH2 0xD0 SWAP2 SWAP1 PUSH2 0x20E JUMP JUMPDEST PUSH1 0x40 MLOAD DUP1 SWAP2 SUB SWAP1 RETURN JUMPDEST PUSH2 0xE1 PUSH2 0x183 JUMP JUMPDEST PUSH1 0x40 MLOAD PUSH2 0xEE SWAP2 SWAP1 PUSH2 0x241 JUMP JUMPDEST PUSH1 0x40 MLOAD DUP1 SWAP2 SUB SWAP1 RETURN JUMPDEST PUSH2 0xFF PUSH2 0x1E5 JUMP JUMPDEST PUSH1 0x40 MLOAD PUSH2 0x10C SWAP2 SWAP1 PUSH2 0x20E JUMP JUMPDEST PUSH1 0x40 MLOAD DUP1 SWAP2 SUB SWAP1 RETURN JUMPDEST PUSH2 0x11D PUSH2 0x1EB JUMP JUMPDEST PUSH1 0x40 MLOAD PUSH2 0x12A SWAP2 SWAP1 PUSH2 0x20E JUMP JUMPDEST PUSH1 0x40 MLOAD DUP1 SWAP2 SUB SWAP1 RETURN JUMPDEST PUSH2 0x13B PUSH2 0x1F1 JUMP JUMPDEST PUSH1 0x40 MLOAD PUSH2 0x148 SWAP2 SWAP1 PUSH2 0x20E JUMP JUMPDEST PUSH1 0x40 MLOAD DUP1 SWAP2 SUB SWAP1 RETURN JUMPDEST PUSH0 PUSH3 0x15180 SWAP1 POP SWAP1 JUMP JUMPDEST PUSH0 DUP1 PUSH3 0x1518B SWAP1 POP PUSH0 PUSH3 0x15180 SWAP1 POP DUP1 DUP3 PUSH2 0x176 SWAP2 SWAP1 PUSH2 0x287 JUMP JUMPDEST SWAP3 POP POP POP SWAP1 JUMP JUMPDEST PUSH1 0x3 SLOAD DUP2 JUMP JUMPDEST PUSH0 PUSH3 0x15180 PUSH1 0x1 SLOAD PUSH2 0x195 SWAP2 SWAP1 PUSH2 0x287 JUMP JUMPDEST PUSH1 0x3 DUP2 SWAP1 SSTORE POP PUSH3 0x15180 PUSH0 SLOAD PUSH2 0x1AB SWAP2 SWAP1 PUSH2 0x287 JUMP JUMPDEST PUSH1 0x2 DUP2 SWAP1 SSTORE POP PUSH3 0x15180 PUSH0 SLOAD PUSH2 0x1C1 SWAP2 SWAP1 PUSH2 0x287 JUMP JUMPDEST PUSH3 0x15180 PUSH1 0x1 SLOAD PUSH2 0x1D2 SWAP2 SWAP1 PUSH2 0x287 JUMP JUMPDEST GT ISZERO PUSH2 0x1E1 JUMPI PUSH1 0x1 SWAP1 POP PUSH2 0x1E2 JUMP JUMPDEST JUMPDEST SWAP1 JUMP JUMPDEST PUSH1 0x2 SLOAD DUP2 JUMP JUMPDEST PUSH1 0x1 SLOAD DUP2 JUMP JUMPDEST PUSH0 SLOAD DUP2 JUMP JUMPDEST PUSH0 DUP2 SWAP1 POP SWAP2 SWAP1 POP JUMP JUMPDEST PUSH2 0x208 DUP2 PUSH2 0x1F6 JUMP JUMPDEST DUP3 MSTORE POP POP JUMP JUMPDEST PUSH0 PUSH1 0x20 DUP3 ADD SWAP1 POP PUSH2 0x221 PUSH0 DUP4 ADD DUP5 PUSH2 0x1FF JUMP JUMPDEST SWAP3 SWAP2 POP POP JUMP JUMPDEST PUSH0 DUP2 ISZERO ISZERO SWAP1 POP SWAP2 SWAP1 POP JUMP JUMPDEST PUSH2 0x23B DUP2 PUSH2 0x227 JUMP JUMPDEST DUP3 MSTORE POP POP JUMP JUMPDEST PUSH0 PUSH1 0x20 DUP3 ADD SWAP1 POP PUSH2 0x254 PUSH0 DUP4 ADD DUP5 PUSH2 0x232 JUMP JUMPDEST SWAP3 SWAP2 POP POP JUMP JUMPDEST PUSH32 0x4E487B7100000000000000000000000000000000000000000000000000000000 PUSH0 MSTORE PUSH1 0x12 PUSH1 0x4 MSTORE PUSH1 0x24 PUSH0 REVERT JUMPDEST PUSH0 PUSH2 0x291 DUP3 PUSH2 0x1F6 JUMP JUMPDEST SWAP2 POP PUSH2 0x29C DUP4 PUSH2 0x1F6 JUMP JUMPDEST SWAP3 POP DUP3 PUSH2 0x2AC JUMPI PUSH2 0x2AB PUSH2 0x25A JUMP JUMPDEST JUMPDEST DUP3 DUP3 DIV SWAP1 POP SWAP3 SWAP2 POP POP JUMP INVALID LOG2 PUSH5 0x6970667358 0x22 SLT KECCAK256 RETURNDATACOPY CALLVALUE 0xC1 PUSH5 0x4F18365547 0xB4 0xB6 0xBA 0x27 0xFB 0xDB DUP15 0xBB PREVRANDAO PUSH5 0x43EA4FB494 0xC9 RETURNDATACOPY CODESIZE 0xD3 PUSH23 0x4B3AE364736F6C63430008160033000000000000000000 "
				},
				"gasEstimates": {
					"creation": {
						"codeDepositCost": "149800",
						"executionCost": "27305",
						"totalCost": "177105"
					},
					"external": {
						"_currTimestamp()": "2470",
						"_lastReceivedTimestamp()": "2447",
						"checktime()": "infinite",
						"currTimestamp()": "2469",
						"lastReceivedTimestamp()": "2490",
						"ret()": "infinite",
						"ret1()": "333"
					}
				},
				"methodIdentifiers": {
					"_currTimestamp()": "25f58251",
					"_lastReceivedTimestamp()": "5819e99c",
					"checktime()": "266de1e0",
					"currTimestamp()": "b2130962",
					"lastReceivedTimestamp()": "e5d8832a",
					"ret()": "1b08d96f",
					"ret1()": "1a266887"
				}
			},
			"storageLayout": {
				"storage": [
					{
						"astId": 4,
						"contract": "teststmap.sol:Timestmap",
						"label": "lastReceivedTimestamp",
						"offset": 0,
						"slot": "0",
						"type": "t_uint256"
					},
					{
						"astId": 7,
						"contract": "teststmap.sol:Timestmap",
						"label": "currTimestamp",
						"offset": 0,
						"slot": "1",
						"type": "t_uint256"
					},
					{
						"astId": 9,
						"contract": "teststmap.sol:Timestmap",
						"label": "_lastReceivedTimestamp",
						"offset": 0,
						"slot": "2",
						"type": "t_uint256"
					},
					{
						"astId": 11,
						"contract": "teststmap.sol:Timestmap",
						"label": "_currTimestamp",
						"offset": 0,
						"slot": "3",
						"type": "t_uint256"
					}
				],
				"types": {
					"t_uint256": {
						"encoding": "inplace",
						"label": "uint256",
						"numberOfBytes": "32"
					}
				}
			},
			"userdoc": {
				"kind": "user",
				"methods": {},
				"version": 1
			}
		}
	}
}