{
	"teststmap.sol": {
		"Caller": {
			"abi": [
				{
					"inputs": [],
					"name": "ret",
					"outputs": [
						{
							"internalType": "bytes32",
							"name": "",
							"type": "bytes32"
						}
					],
					"stateMutability": "view",
					"type": "function"
				}
			],
			"devdoc": {
				"kind": "dev",
				"methods": {},
				"version": 1
			},
			"evm": {
				"assembly": "    /* \"teststmap.sol\":901:1368  contract Caller {... */\n  mstore(0x40, 0x80)\n  callvalue\n  dup1\n  iszero\n  tag_1\n  jumpi\n  0x00\n  dup1\n  revert\ntag_1:\n  pop\n  dataSize(sub_0)\n  dup1\n  dataOffset(sub_0)\n  0x00\n  codecopy\n  0x00\n  return\nstop\n\nsub_0: assembly {\n        /* \"teststmap.sol\":901:1368  contract Caller {... */\n      mstore(0x40, 0x80)\n      callvalue\n      dup1\n      iszero\n      tag_1\n      jumpi\n      0x00\n      dup1\n      revert\n    tag_1:\n      pop\n      jumpi(tag_2, lt(calldatasize, 0x04))\n      shr(0xe0, calldataload(0x00))\n      dup1\n      0x1b08d96f\n      eq\n      tag_3\n      jumpi\n    tag_2:\n      0x00\n      dup1\n      revert\n        /* \"teststmap.sol\":926:1188  function ret() public view returns(bytes32) {... */\n    tag_3:\n      tag_4\n      tag_5\n      jump\t// in\n    tag_4:\n      mload(0x40)\n      tag_6\n      swap2\n      swap1\n      tag_7\n      jump\t// in\n    tag_6:\n      mload(0x40)\n      dup1\n      swap2\n      sub\n      swap1\n      return\n    tag_5:\n        /* \"teststmap.sol\":961:968  bytes32 */\n      0x00\n        /* \"teststmap.sol\":991:1006  bytes32 vaultId */\n      dup1\n        /* \"teststmap.sol\":1066:1078  uint256 salt */\n      0x00\n        /* \"teststmap.sol\":1096:1097  1 */\n      0x01\n        /* \"teststmap.sol\":1081:1093  block.number */\n      number\n        /* \"teststmap.sol\":1081:1097  block.number - 1 */\n      tag_9\n      swap2\n      swap1\n      tag_10\n      jump\t// in\n    tag_9:\n        /* \"teststmap.sol\":1066:1097  uint256 salt = block.number - 1 */\n      swap1\n      pop\n        /* \"teststmap.sol\":1122:1144  _generateVaultId(salt) */\n      tag_11\n        /* \"teststmap.sol\":1139:1143  salt */\n      dup2\n        /* \"teststmap.sol\":1122:1138  _generateVaultId */\n      tag_12\n        /* \"teststmap.sol\":1122:1144  _generateVaultId(salt) */\n      jump\t// in\n    tag_11:\n        /* \"teststmap.sol\":1112:1144  vaultId = _generateVaultId(salt) */\n      swap2\n      pop\n        /* \"teststmap.sol\":1017:1156  {... */\n      pop\n        /* \"teststmap.sol\":1173:1180  vaultId */\n      dup1\n        /* \"teststmap.sol\":1166:1180  return vaultId */\n      swap2\n      pop\n      pop\n        /* \"teststmap.sol\":926:1188  function ret() public view returns(bytes32) {... */\n      swap1\n      jump\t// out\n        /* \"teststmap.sol\":1202:1365  function _generateVaultId(uint256 salt) internal view returns (bytes32) {... */\n    tag_12:\n        /* \"teststmap.sol\":1265:1272  bytes32 */\n      0x00\n        /* \"teststmap.sol\":1321:1331  msg.sender */\n      caller\n        /* \"teststmap.sol\":1333:1348  block.timestamp */\n      timestamp\n        /* \"teststmap.sol\":1350:1354  salt */\n      dup4\n        /* \"teststmap.sol\":1310:1355  abi.encode(msg.sender, block.timestamp, salt) */\n      add(0x20, mload(0x40))\n      tag_14\n      swap4\n      swap3\n      swap2\n      swap1\n      tag_15\n      jump\t// in\n    tag_14:\n      mload(0x40)\n      0x20\n      dup2\n      dup4\n      sub\n      sub\n      dup2\n      mstore\n      swap1\n      0x40\n      mstore\n        /* \"teststmap.sol\":1300:1356  keccak256(abi.encode(msg.sender, block.timestamp, salt)) */\n      dup1\n      mload\n      swap1\n      0x20\n      add\n      keccak256\n        /* \"teststmap.sol\":1285:1357  return bytes32(keccak256(abi.encode(msg.sender, block.timestamp, salt))) */\n      swap1\n      pop\n        /* \"teststmap.sol\":1202:1365  function _generateVaultId(uint256 salt) internal view returns (bytes32) {... */\n      swap2\n      swap1\n      pop\n      jump\t// out\n        /* \"#utility.yul\":7:84   */\n    tag_16:\n        /* \"#utility.yul\":44:51   */\n      0x00\n        /* \"#utility.yul\":73:78   */\n      dup2\n        /* \"#utility.yul\":62:78   */\n      swap1\n      pop\n        /* \"#utility.yul\":7:84   */\n      swap2\n      swap1\n      pop\n      jump\t// out\n        /* \"#utility.yul\":90:208   */\n    tag_17:\n        /* \"#utility.yul\":177:201   */\n      tag_27\n        /* \"#utility.yul\":195:200   */\n      dup2\n        /* \"#utility.yul\":177:201   */\n      tag_16\n      jump\t// in\n    tag_27:\n        /* \"#utility.yul\":172:175   */\n      dup3\n        /* \"#utility.yul\":165:202   */\n      mstore\n        /* \"#utility.yul\":90:208   */\n      pop\n      pop\n      jump\t// out\n        /* \"#utility.yul\":214:436   */\n    tag_7:\n        /* \"#utility.yul\":307:311   */\n      0x00\n        /* \"#utility.yul\":345:347   */\n      0x20\n        /* \"#utility.yul\":334:343   */\n      dup3\n        /* \"#utility.yul\":330:348   */\n      add\n        /* \"#utility.yul\":322:348   */\n      swap1\n      pop\n        /* \"#utility.yul\":358:429   */\n      tag_29\n        /* \"#utility.yul\":426:427   */\n      0x00\n        /* \"#utility.yul\":415:424   */\n      dup4\n        /* \"#utility.yul\":411:428   */\n      add\n        /* \"#utility.yul\":402:408   */\n      dup5\n        /* \"#utility.yul\":358:429   */\n      tag_17\n      jump\t// in\n    tag_29:\n        /* \"#utility.yul\":214:436   */\n      swap3\n      swap2\n      pop\n      pop\n      jump\t// out\n        /* \"#utility.yul\":442:519   */\n    tag_18:\n        /* \"#utility.yul\":479:486   */\n      0x00\n        /* \"#utility.yul\":508:513   */\n      dup2\n        /* \"#utility.yul\":497:513   */\n      swap1\n      pop\n        /* \"#utility.yul\":442:519   */\n      swap2\n      swap1\n      pop\n      jump\t// out\n        /* \"#utility.yul\":525:705   */\n    tag_19:\n        /* \"#utility.yul\":573:650   */\n      0x4e487b7100000000000000000000000000000000000000000000000000000000\n        /* \"#utility.yul\":570:571   */\n      0x00\n        /* \"#utility.yul\":563:651   */\n      mstore\n        /* \"#utility.yul\":670:674   */\n      0x11\n        /* \"#utility.yul\":667:668   */\n      0x04\n        /* \"#utility.yul\":660:675   */\n      mstore\n        /* \"#utility.yul\":694:698   */\n      0x24\n        /* \"#utility.yul\":691:692   */\n      0x00\n        /* \"#utility.yul\":684:699   */\n      revert\n        /* \"#utility.yul\":711:905   */\n    tag_10:\n        /* \"#utility.yul\":751:755   */\n      0x00\n        /* \"#utility.yul\":771:791   */\n      tag_33\n        /* \"#utility.yul\":789:790   */\n      dup3\n        /* \"#utility.yul\":771:791   */\n      tag_18\n      jump\t// in\n    tag_33:\n        /* \"#utility.yul\":766:791   */\n      swap2\n      pop\n        /* \"#utility.yul\":805:825   */\n      tag_34\n        /* \"#utility.yul\":823:824   */\n      dup4\n        /* \"#utility.yul\":805:825   */\n      tag_18\n      jump\t// in\n    tag_34:\n        /* \"#utility.yul\":800:825   */\n      swap3\n      pop\n        /* \"#utility.yul\":849:850   */\n      dup3\n        /* \"#utility.yul\":846:847   */\n      dup3\n        /* \"#utility.yul\":842:851   */\n      sub\n        /* \"#utility.yul\":834:851   */\n      swap1\n      pop\n        /* \"#utility.yul\":873:874   */\n      dup2\n        /* \"#utility.yul\":867:871   */\n      dup2\n        /* \"#utility.yul\":864:875   */\n      gt\n        /* \"#utility.yul\":861:898   */\n      iszero\n      tag_35\n      jumpi\n        /* \"#utility.yul\":878:896   */\n      tag_36\n      tag_19\n      jump\t// in\n    tag_36:\n        /* \"#utility.yul\":861:898   */\n    tag_35:\n        /* \"#utility.yul\":711:905   */\n      swap3\n      swap2\n      pop\n      pop\n      jump\t// out\n        /* \"#utility.yul\":911:1037   */\n    tag_20:\n        /* \"#utility.yul\":948:955   */\n      0x00\n        /* \"#utility.yul\":988:1030   */\n      0xffffffffffffffffffffffffffffffffffffffff\n        /* \"#utility.yul\":981:986   */\n      dup3\n        /* \"#utility.yul\":977:1031   */\n      and\n        /* \"#utility.yul\":966:1031   */\n      swap1\n      pop\n        /* \"#utility.yul\":911:1037   */\n      swap2\n      swap1\n      pop\n      jump\t// out\n        /* \"#utility.yul\":1043:1139   */\n    tag_21:\n        /* \"#utility.yul\":1080:1087   */\n      0x00\n        /* \"#utility.yul\":1109:1133   */\n      tag_39\n        /* \"#utility.yul\":1127:1132   */\n      dup3\n        /* \"#utility.yul\":1109:1133   */\n      tag_20\n      jump\t// in\n    tag_39:\n        /* \"#utility.yul\":1098:1133   */\n      swap1\n      pop\n        /* \"#utility.yul\":1043:1139   */\n      swap2\n      swap1\n      pop\n      jump\t// out\n        /* \"#utility.yul\":1145:1263   */\n    tag_22:\n        /* \"#utility.yul\":1232:1256   */\n      tag_41\n        /* \"#utility.yul\":1250:1255   */\n      dup2\n        /* \"#utility.yul\":1232:1256   */\n      tag_21\n      jump\t// in\n    tag_41:\n        /* \"#utility.yul\":1227:1230   */\n      dup3\n        /* \"#utility.yul\":1220:1257   */\n      mstore\n        /* \"#utility.yul\":1145:1263   */\n      pop\n      pop\n      jump\t// out\n        /* \"#utility.yul\":1269:1387   */\n    tag_23:\n        /* \"#utility.yul\":1356:1380   */\n      tag_43\n        /* \"#utility.yul\":1374:1379   */\n      dup2\n        /* \"#utility.yul\":1356:1380   */\n      tag_18\n      jump\t// in\n    tag_43:\n        /* \"#utility.yul\":1351:1354   */\n      dup3\n        /* \"#utility.yul\":1344:1381   */\n      mstore\n        /* \"#utility.yul\":1269:1387   */\n      pop\n      pop\n      jump\t// out\n        /* \"#utility.yul\":1393:1835   */\n    tag_15:\n        /* \"#utility.yul\":1542:1546   */\n      0x00\n        /* \"#utility.yul\":1580:1582   */\n      0x60\n        /* \"#utility.yul\":1569:1578   */\n      dup3\n        /* \"#utility.yul\":1565:1583   */\n      add\n        /* \"#utility.yul\":1557:1583   */\n      swap1\n      pop\n        /* \"#utility.yul\":1593:1664   */\n      tag_45\n        /* \"#utility.yul\":1661:1662   */\n      0x00\n        /* \"#utility.yul\":1650:1659   */\n      dup4\n        /* \"#utility.yul\":1646:1663   */\n      add\n        /* \"#utility.yul\":1637:1643   */\n      dup7\n        /* \"#utility.yul\":1593:1664   */\n      tag_22\n      jump\t// in\n    tag_45:\n        /* \"#utility.yul\":1674:1746   */\n      tag_46\n        /* \"#utility.yul\":1742:1744   */\n      0x20\n        /* \"#utility.yul\":1731:1740   */\n      dup4\n        /* \"#utility.yul\":1727:1745   */\n      add\n        /* \"#utility.yul\":1718:1724   */\n      dup6\n        /* \"#utility.yul\":1674:1746   */\n      tag_23\n      jump\t// in\n    tag_46:\n        /* \"#utility.yul\":1756:1828   */\n      tag_47\n        /* \"#utility.yul\":1824:1826   */\n      0x40\n        /* \"#utility.yul\":1813:1822   */\n      dup4\n        /* \"#utility.yul\":1809:1827   */\n      add\n        /* \"#utility.yul\":1800:1806   */\n      dup5\n        /* \"#utility.yul\":1756:1828   */\n      tag_23\n      jump\t// in\n    tag_47:\n        /* \"#utility.yul\":1393:1835   */\n      swap5\n      swap4\n      pop\n      pop\n      pop\n      pop\n      jump\t// out\n\n    auxdata: 0xa264697066735822122009576078e5dc71abdba73a959d9aa86e6cf96bfd98ca5584da5823d9a9939b7a64736f6c63430008160033\n}\n",
				"bytecode": {
					"linkReferences": {},
					"object": "608060405234801561000f575f80fd5b506101f68061001d5f395ff3fe608060405234801561000f575f80fd5b5060043610610029575f3560e01c80631b08d96f1461002d575b5f80fd5b61003561004b565b60405161004291906100bb565b60405180910390f35b5f805f60014361005b919061010a565b905061006681610070565b9150508091505090565b5f3342836040516020016100869392919061018b565b604051602081830303815290604052805190602001209050919050565b5f819050919050565b6100b5816100a3565b82525050565b5f6020820190506100ce5f8301846100ac565b92915050565b5f819050919050565b7f4e487b71000000000000000000000000000000000000000000000000000000005f52601160045260245ffd5b5f610114826100d4565b915061011f836100d4565b9250828203905081811115610137576101366100dd565b5b92915050565b5f73ffffffffffffffffffffffffffffffffffffffff82169050919050565b5f6101668261013d565b9050919050565b6101768161015c565b82525050565b610185816100d4565b82525050565b5f60608201905061019e5f83018661016d565b6101ab602083018561017c565b6101b8604083018461017c565b94935050505056fea264697066735822122009576078e5dc71abdba73a959d9aa86e6cf96bfd98ca5584da5823d9a9939b7a64736f6c63430008160033",
					"opcodes": "PUSH1 0x80 PUSH1 0x40 MSTORE CALLVALUE DUP1 ISZERO PUSH2 0xF JUMPI PUSH0 DUP1 REVERT JUMPDEST POP PUSH2 0x1F6 DUP1 PUSH2 0x1D PUSH0 CODECOPY PUSH0 RETURN INVALID PUSH1 0x80 PUSH1 0x40 MSTORE CALLVALUE DUP1 ISZERO PUSH2 0xF JUMPI PUSH0 DUP1 REVERT JUMPDEST POP PUSH1 0x4 CALLDATASIZE LT PUSH2 0x29 JUMPI PUSH0 CALLDATALOAD PUSH1 0xE0 SHR DUP1 PUSH4 0x1B08D96F EQ PUSH2 0x2D JUMPI JUMPDEST PUSH0 DUP1 REVERT JUMPDEST PUSH2 0x35 PUSH2 0x4B JUMP JUMPDEST PUSH1 0x40 MLOAD PUSH2 0x42 SWAP2 SWAP1 PUSH2 0xBB JUMP JUMPDEST PUSH1 0x40 MLOAD DUP1 SWAP2 SUB SWAP1 RETURN JUMPDEST PUSH0 DUP1 PUSH0 PUSH1 0x1 NUMBER PUSH2 0x5B SWAP2 SWAP1 PUSH2 0x10A JUMP JUMPDEST SWAP1 POP PUSH2 0x66 DUP2 PUSH2 0x70 JUMP JUMPDEST SWAP2 POP POP DUP1 SWAP2 POP POP SWAP1 JUMP JUMPDEST PUSH0 CALLER TIMESTAMP DUP4 PUSH1 0x40 MLOAD PUSH1 0x20 ADD PUSH2 0x86 SWAP4 SWAP3 SWAP2 SWAP1 PUSH2 0x18B JUMP JUMPDEST PUSH1 0x40 MLOAD PUSH1 0x20 DUP2 DUP4 SUB SUB DUP2 MSTORE SWAP1 PUSH1 0x40 MSTORE DUP1 MLOAD SWAP1 PUSH1 0x20 ADD KECCAK256 SWAP1 POP SWAP2 SWAP1 POP JUMP JUMPDEST PUSH0 DUP2 SWAP1 POP SWAP2 SWAP1 POP JUMP JUMPDEST PUSH2 0xB5 DUP2 PUSH2 0xA3 JUMP JUMPDEST DUP3 MSTORE POP POP JUMP JUMPDEST PUSH0 PUSH1 0x20 DUP3 ADD SWAP1 POP PUSH2 0xCE PUSH0 DUP4 ADD DUP5 PUSH2 0xAC JUMP JUMPDEST SWAP3 SWAP2 POP POP JUMP JUMPDEST PUSH0 DUP2 SWAP1 POP SWAP2 SWAP1 POP JUMP JUMPDEST PUSH32 0x4E487B7100000000000000000000000000000000000000000000000000000000 PUSH0 MSTORE PUSH1 0x11 PUSH1 0x4 MSTORE PUSH1 0x24 PUSH0 REVERT JUMPDEST PUSH0 PUSH2 0x114 DUP3 PUSH2 0xD4 JUMP JUMPDEST SWAP2 POP PUSH2 0x11F DUP4 PUSH2 0xD4 JUMP JUMPDEST SWAP3 POP DUP3 DUP3 SUB SWAP1 POP DUP2 DUP2 GT ISZERO PUSH2 0x137 JUMPI PUSH2 0x136 PUSH2 0xDD JUMP JUMPDEST JUMPDEST SWAP3 SWAP2 POP POP JUMP JUMPDEST PUSH0 PUSH20 0xFFFFFFFFFFFFFFFFFFFFFFFFFFFFFFFFFFFFFFFF DUP3 AND SWAP1 POP SWAP2 SWAP1 POP JUMP JUMPDEST PUSH0 PUSH2 0x166 DUP3 PUSH2 0x13D JUMP JUMPDEST SWAP1 POP SWAP2 SWAP1 POP JUMP JUMPDEST PUSH2 0x176 DUP2 PUSH2 0x15C JUMP JUMPDEST DUP3 MSTORE POP POP JUMP JUMPDEST PUSH2 0x185 DUP2 PUSH2 0xD4 JUMP JUMPDEST DUP3 MSTORE POP POP JUMP JUMPDEST PUSH0 PUSH1 0x60 DUP3 ADD SWAP1 POP PUSH2 0x19E PUSH0 DUP4 ADD DUP7 PUSH2 0x16D JUMP JUMPDEST PUSH2 0x1AB PUSH1 0x20 DUP4 ADD DUP6 PUSH2 0x17C JUMP JUMPDEST PUSH2 0x1B8 PUSH1 0x40 DUP4 ADD DUP5 PUSH2 0x17C JUMP JUMPDEST SWAP5 SWAP4 POP POP POP POP JUMP INVALID LOG2 PUSH5 0x6970667358 0x22 SLT KECCAK256 MULMOD JUMPI PUSH1 0x78 0xE5 0xDC PUSH18 0xABDBA73A959D9AA86E6CF96BFD98CA5584DA PC 0x23 0xD9 0xA9 SWAP4 SWAP12 PUSH27 0x64736F6C6343000816003300000000000000000000000000000000 "
				},
				"gasEstimates": {
					"creation": {
						"codeDepositCost": "100400",
						"executionCost": "145",
						"totalCost": "100545"
					},
					"external": {
						"ret()": "infinite"
					},
					"internal": {
						"_generateVaultId(uint256)": "infinite"
					}
				},
				"methodIdentifiers": {
					"ret()": "1b08d96f"
				}
			},
			"storageLayout": {
				"storage": [],
				"types": null
			},
			"userdoc": {
				"kind": "user",
				"methods": {},
				"version": 1
			}
		}
	}
}