{
	"1. arrays/testArrayLength.sol": {
		"arrays": {
			"abi": [
				{
					"inputs": [],
					"name": "claimMultiple",
					"outputs": [
						{
							"internalType": "uint256",
							"name": "",
							"type": "uint256"
						}
					],
					"stateMutability": "view",
					"type": "function"
				},
				{
					"inputs": [],
					"name": "testNested",
					"outputs": [
						{
							"internalType": "uint256",
							"name": "",
							"type": "uint256"
						}
					],
					"stateMutability": "pure",
					"type": "function"
				}
			],
			"devdoc": {
				"kind": "dev",
				"methods": {},
				"version": 1
			},
			"evm": {
				"assembly": "    /* \"1. arrays/testArrayLength.sol\":71:1048  contract arrays {... */\n  mstore(0x40, 0x80)\n  callvalue\n  dup1\n  iszero\n  tag_1\n  jumpi\n  0x00\n  dup1\n  revert\ntag_1:\n  pop\n  dataSize(sub_0)\n  dup1\n  dataOffset(sub_0)\n  0x00\n  codecopy\n  0x00\n  return\nstop\n\nsub_0: assembly {\n        /* \"1. arrays/testArrayLength.sol\":71:1048  contract arrays {... */\n      mstore(0x40, 0x80)\n      callvalue\n      dup1\n      iszero\n      tag_1\n      jumpi\n      0x00\n      dup1\n      revert\n    tag_1:\n      pop\n      jumpi(tag_2, lt(calldatasize, 0x04))\n      shr(0xe0, calldataload(0x00))\n      dup1\n      0x7108b385\n      eq\n      tag_3\n      jumpi\n      dup1\n      0xfbd4b8cc\n      eq\n      tag_4\n      jumpi\n    tag_2:\n      0x00\n      dup1\n      revert\n        /* \"1. arrays/testArrayLength.sol\":101:325  function claimMultiple() public view returns(uint256) {... */\n    tag_3:\n      tag_5\n      tag_6\n      jump\t// in\n    tag_5:\n      mload(0x40)\n      tag_7\n      swap2\n      swap1\n      tag_8\n      jump\t// in\n    tag_7:\n      mload(0x40)\n      dup1\n      swap2\n      sub\n      swap1\n      return\n        /* \"1. arrays/testArrayLength.sol\":335:931  function testNested() public pure returns(uint256) {... */\n    tag_4:\n      tag_9\n      tag_10\n      jump\t// in\n    tag_9:\n      mload(0x40)\n      tag_11\n      swap2\n      swap1\n      tag_8\n      jump\t// in\n    tag_11:\n      mload(0x40)\n      dup1\n      swap2\n      sub\n      swap1\n      return\n        /* \"1. arrays/testArrayLength.sol\":101:325  function claimMultiple() public view returns(uint256) {... */\n    tag_6:\n        /* \"1. arrays/testArrayLength.sol\":146:153  uint256 */\n      0x00\n        /* \"1. arrays/testArrayLength.sol\":168:191  uint128[] memory rounds */\n      0x60\n        /* \"1. arrays/testArrayLength.sol\":204:224  uint256 roundsLength */\n      0x00\n        /* \"1. arrays/testArrayLength.sol\":227:233  rounds */\n      dup2\n        /* \"1. arrays/testArrayLength.sol\":227:240  rounds.length */\n      mload\n        /* \"1. arrays/testArrayLength.sol\":204:240  uint256 roundsLength = rounds.length */\n      swap1\n      pop\n        /* \"1. arrays/testArrayLength.sol\":305:317  roundsLength */\n      dup1\n        /* \"1. arrays/testArrayLength.sol\":298:317  return roundsLength */\n      swap3\n      pop\n      pop\n      pop\n        /* \"1. arrays/testArrayLength.sol\":101:325  function claimMultiple() public view returns(uint256) {... */\n      swap1\n      jump\t// out\n        /* \"1. arrays/testArrayLength.sol\":335:931  function testNested() public pure returns(uint256) {... */\n    tag_10:\n        /* \"1. arrays/testArrayLength.sol\":377:384  uint256 */\n      0x00\n        /* \"1. arrays/testArrayLength.sol\":511:537  uint256[][4] memory values */\n      tag_14\n      tag_15\n      jump\t// in\n    tag_14:\n        /* \"1. arrays/testArrayLength.sol\":590:591  2 */\n      0x02\n        /* \"1. arrays/testArrayLength.sol\":576:592  new uint256[](2) */\n      0xffffffffffffffff\n      dup2\n      gt\n      iszero\n      tag_16\n      jumpi\n      tag_17\n      tag_18\n      jump\t// in\n    tag_17:\n    tag_16:\n      mload(0x40)\n      swap1\n      dup1\n      dup3\n      mstore\n      dup1\n      0x20\n      mul\n      0x20\n      add\n      dup3\n      add\n      0x40\n      mstore\n      dup1\n      iszero\n      tag_19\n      jumpi\n      dup2\n      0x20\n      add\n      0x20\n      dup3\n      mul\n      dup1\n      calldatasize\n      dup4\n      calldatacopy\n      dup1\n      dup3\n      add\n      swap2\n      pop\n      pop\n      swap1\n      pop\n    tag_19:\n      pop\n        /* \"1. arrays/testArrayLength.sol\":564:570  values */\n      dup2\n        /* \"1. arrays/testArrayLength.sol\":571:572  0 */\n      0x00\n        /* \"1. arrays/testArrayLength.sol\":564:573  values[0] */\n      0x04\n      dup2\n      lt\n      tag_20\n      jumpi\n      tag_21\n      tag_22\n      jump\t// in\n    tag_21:\n    tag_20:\n      0x20\n      mul\n      add\n        /* \"1. arrays/testArrayLength.sol\":564:592  values[0] = new uint256[](2) */\n      dup2\n      swap1\n      mstore\n      pop\n        /* \"1. arrays/testArrayLength.sol\":629:630  3 */\n      0x03\n        /* \"1. arrays/testArrayLength.sol\":615:631  new uint256[](3) */\n      0xffffffffffffffff\n      dup2\n      gt\n      iszero\n      tag_23\n      jumpi\n      tag_24\n      tag_18\n      jump\t// in\n    tag_24:\n    tag_23:\n      mload(0x40)\n      swap1\n      dup1\n      dup3\n      mstore\n      dup1\n      0x20\n      mul\n      0x20\n      add\n      dup3\n      add\n      0x40\n      mstore\n      dup1\n      iszero\n      tag_25\n      jumpi\n      dup2\n      0x20\n      add\n      0x20\n      dup3\n      mul\n      dup1\n      calldatasize\n      dup4\n      calldatacopy\n      dup1\n      dup3\n      add\n      swap2\n      pop\n      pop\n      swap1\n      pop\n    tag_25:\n      pop\n        /* \"1. arrays/testArrayLength.sol\":603:609  values */\n      dup2\n        /* \"1. arrays/testArrayLength.sol\":610:611  1 */\n      0x01\n        /* \"1. arrays/testArrayLength.sol\":603:612  values[1] */\n      0x04\n      dup2\n      lt\n      tag_26\n      jumpi\n      tag_27\n      tag_22\n      jump\t// in\n    tag_27:\n    tag_26:\n      0x20\n      mul\n      add\n        /* \"1. arrays/testArrayLength.sol\":603:631  values[1] = new uint256[](3) */\n      dup2\n      swap1\n      mstore\n      pop\n        /* \"1. arrays/testArrayLength.sol\":712:713  1 */\n      0x01\n        /* \"1. arrays/testArrayLength.sol\":697:703  values */\n      dup2\n        /* \"1. arrays/testArrayLength.sol\":704:705  0 */\n      0x00\n        /* \"1. arrays/testArrayLength.sol\":697:706  values[0] */\n      0x04\n      dup2\n      lt\n      tag_28\n      jumpi\n      tag_29\n      tag_22\n      jump\t// in\n    tag_29:\n    tag_28:\n      0x20\n      mul\n      add\n      mload\n        /* \"1. arrays/testArrayLength.sol\":707:708  0 */\n      0x00\n        /* \"1. arrays/testArrayLength.sol\":697:709  values[0][0] */\n      dup2\n      mload\n      dup2\n      lt\n      tag_30\n      jumpi\n      tag_31\n      tag_22\n      jump\t// in\n    tag_31:\n    tag_30:\n      0x20\n      mul\n      0x20\n      add\n      add\n        /* \"1. arrays/testArrayLength.sol\":697:713  values[0][0] = 1 */\n      dup2\n      dup2\n      mstore\n      pop\n      pop\n        /* \"1. arrays/testArrayLength.sol\":739:740  2 */\n      0x02\n        /* \"1. arrays/testArrayLength.sol\":724:730  values */\n      dup2\n        /* \"1. arrays/testArrayLength.sol\":731:732  0 */\n      0x00\n        /* \"1. arrays/testArrayLength.sol\":724:733  values[0] */\n      0x04\n      dup2\n      lt\n      tag_32\n      jumpi\n      tag_33\n      tag_22\n      jump\t// in\n    tag_33:\n    tag_32:\n      0x20\n      mul\n      add\n      mload\n        /* \"1. arrays/testArrayLength.sol\":734:735  1 */\n      0x01\n        /* \"1. arrays/testArrayLength.sol\":724:736  values[0][1] */\n      dup2\n      mload\n      dup2\n      lt\n      tag_34\n      jumpi\n      tag_35\n      tag_22\n      jump\t// in\n    tag_35:\n    tag_34:\n      0x20\n      mul\n      0x20\n      add\n      add\n        /* \"1. arrays/testArrayLength.sol\":724:740  values[0][1] = 2 */\n      dup2\n      dup2\n      mstore\n      pop\n      pop\n        /* \"1. arrays/testArrayLength.sol\":795:796  3 */\n      0x03\n        /* \"1. arrays/testArrayLength.sol\":780:786  values */\n      dup2\n        /* \"1. arrays/testArrayLength.sol\":787:788  1 */\n      0x01\n        /* \"1. arrays/testArrayLength.sol\":780:789  values[1] */\n      0x04\n      dup2\n      lt\n      tag_36\n      jumpi\n      tag_37\n      tag_22\n      jump\t// in\n    tag_37:\n    tag_36:\n      0x20\n      mul\n      add\n      mload\n        /* \"1. arrays/testArrayLength.sol\":790:791  0 */\n      0x00\n        /* \"1. arrays/testArrayLength.sol\":780:792  values[1][0] */\n      dup2\n      mload\n      dup2\n      lt\n      tag_38\n      jumpi\n      tag_39\n      tag_22\n      jump\t// in\n    tag_39:\n    tag_38:\n      0x20\n      mul\n      0x20\n      add\n      add\n        /* \"1. arrays/testArrayLength.sol\":780:796  values[1][0] = 3 */\n      dup2\n      dup2\n      mstore\n      pop\n      pop\n        /* \"1. arrays/testArrayLength.sol\":822:823  4 */\n      0x04\n        /* \"1. arrays/testArrayLength.sol\":807:813  values */\n      dup2\n        /* \"1. arrays/testArrayLength.sol\":814:815  1 */\n      0x01\n        /* \"1. arrays/testArrayLength.sol\":807:816  values[1] */\n      0x04\n      dup2\n      lt\n      tag_40\n      jumpi\n      tag_41\n      tag_22\n      jump\t// in\n    tag_41:\n    tag_40:\n      0x20\n      mul\n      add\n      mload\n        /* \"1. arrays/testArrayLength.sol\":817:818  1 */\n      0x01\n        /* \"1. arrays/testArrayLength.sol\":807:819  values[1][1] */\n      dup2\n      mload\n      dup2\n      lt\n      tag_42\n      jumpi\n      tag_43\n      tag_22\n      jump\t// in\n    tag_43:\n    tag_42:\n      0x20\n      mul\n      0x20\n      add\n      add\n        /* \"1. arrays/testArrayLength.sol\":807:823  values[1][1] = 4 */\n      dup2\n      dup2\n      mstore\n      pop\n      pop\n        /* \"1. arrays/testArrayLength.sol\":849:850  5 */\n      0x05\n        /* \"1. arrays/testArrayLength.sol\":834:840  values */\n      dup2\n        /* \"1. arrays/testArrayLength.sol\":841:842  1 */\n      0x01\n        /* \"1. arrays/testArrayLength.sol\":834:843  values[1] */\n      0x04\n      dup2\n      lt\n      tag_44\n      jumpi\n      tag_45\n      tag_22\n      jump\t// in\n    tag_45:\n    tag_44:\n      0x20\n      mul\n      add\n      mload\n        /* \"1. arrays/testArrayLength.sol\":844:845  2 */\n      0x02\n        /* \"1. arrays/testArrayLength.sol\":834:846  values[1][2] */\n      dup2\n      mload\n      dup2\n      lt\n      tag_46\n      jumpi\n      tag_47\n      tag_22\n      jump\t// in\n    tag_47:\n    tag_46:\n      0x20\n      mul\n      0x20\n      add\n      add\n        /* \"1. arrays/testArrayLength.sol\":834:850  values[1][2] = 5 */\n      dup2\n      dup2\n      mstore\n      pop\n      pop\n        /* \"1. arrays/testArrayLength.sol\":911:917  values */\n      dup1\n        /* \"1. arrays/testArrayLength.sol\":918:919  1 */\n      0x01\n        /* \"1. arrays/testArrayLength.sol\":911:920  values[1] */\n      0x04\n      dup2\n      lt\n      tag_48\n      jumpi\n      tag_49\n      tag_22\n      jump\t// in\n    tag_49:\n    tag_48:\n      0x20\n      mul\n      add\n      mload\n        /* \"1. arrays/testArrayLength.sol\":921:922  2 */\n      0x02\n        /* \"1. arrays/testArrayLength.sol\":911:923  values[1][2] */\n      dup2\n      mload\n      dup2\n      lt\n      tag_50\n      jumpi\n      tag_51\n      tag_22\n      jump\t// in\n    tag_51:\n    tag_50:\n      0x20\n      mul\n      0x20\n      add\n      add\n      mload\n        /* \"1. arrays/testArrayLength.sol\":904:923  return values[1][2] */\n      swap2\n      pop\n      pop\n        /* \"1. arrays/testArrayLength.sol\":335:931  function testNested() public pure returns(uint256) {... */\n      swap1\n      jump\t// out\n    tag_15:\n      mload(0x40)\n      dup1\n      0x80\n      add\n      0x40\n      mstore\n      dup1\n      0x04\n      swap1\n    tag_52:\n      0x60\n      dup2\n      mstore\n      0x20\n      add\n      swap1\n      0x01\n      swap1\n      sub\n      swap1\n      dup2\n      tag_52\n      jumpi\n      swap1\n      pop\n      pop\n      swap1\n      jump\t// out\n        /* \"#utility.yul\":7:84   */\n    tag_53:\n        /* \"#utility.yul\":44:51   */\n      0x00\n        /* \"#utility.yul\":73:78   */\n      dup2\n        /* \"#utility.yul\":62:78   */\n      swap1\n      pop\n        /* \"#utility.yul\":7:84   */\n      swap2\n      swap1\n      pop\n      jump\t// out\n        /* \"#utility.yul\":90:208   */\n    tag_54:\n        /* \"#utility.yul\":177:201   */\n      tag_58\n        /* \"#utility.yul\":195:200   */\n      dup2\n        /* \"#utility.yul\":177:201   */\n      tag_53\n      jump\t// in\n    tag_58:\n        /* \"#utility.yul\":172:175   */\n      dup3\n        /* \"#utility.yul\":165:202   */\n      mstore\n        /* \"#utility.yul\":90:208   */\n      pop\n      pop\n      jump\t// out\n        /* \"#utility.yul\":214:436   */\n    tag_8:\n        /* \"#utility.yul\":307:311   */\n      0x00\n        /* \"#utility.yul\":345:347   */\n      0x20\n        /* \"#utility.yul\":334:343   */\n      dup3\n        /* \"#utility.yul\":330:348   */\n      add\n        /* \"#utility.yul\":322:348   */\n      swap1\n      pop\n        /* \"#utility.yul\":358:429   */\n      tag_60\n        /* \"#utility.yul\":426:427   */\n      0x00\n        /* \"#utility.yul\":415:424   */\n      dup4\n        /* \"#utility.yul\":411:428   */\n      add\n        /* \"#utility.yul\":402:408   */\n      dup5\n        /* \"#utility.yul\":358:429   */\n      tag_54\n      jump\t// in\n    tag_60:\n        /* \"#utility.yul\":214:436   */\n      swap3\n      swap2\n      pop\n      pop\n      jump\t// out\n        /* \"#utility.yul\":442:622   */\n    tag_18:\n        /* \"#utility.yul\":490:567   */\n      0x4e487b7100000000000000000000000000000000000000000000000000000000\n        /* \"#utility.yul\":487:488   */\n      0x00\n        /* \"#utility.yul\":480:568   */\n      mstore\n        /* \"#utility.yul\":587:591   */\n      0x41\n        /* \"#utility.yul\":584:585   */\n      0x04\n        /* \"#utility.yul\":577:592   */\n      mstore\n        /* \"#utility.yul\":611:615   */\n      0x24\n        /* \"#utility.yul\":608:609   */\n      0x00\n        /* \"#utility.yul\":601:616   */\n      revert\n        /* \"#utility.yul\":628:808   */\n    tag_22:\n        /* \"#utility.yul\":676:753   */\n      0x4e487b7100000000000000000000000000000000000000000000000000000000\n        /* \"#utility.yul\":673:674   */\n      0x00\n        /* \"#utility.yul\":666:754   */\n      mstore\n        /* \"#utility.yul\":773:777   */\n      0x32\n        /* \"#utility.yul\":770:771   */\n      0x04\n        /* \"#utility.yul\":763:778   */\n      mstore\n        /* \"#utility.yul\":797:801   */\n      0x24\n        /* \"#utility.yul\":794:795   */\n      0x00\n        /* \"#utility.yul\":787:802   */\n      revert\n\n    auxdata: 0xa2646970667358221220509f15e8b57bae63da44b7b2e90d658b12e569e481512f519ecff8fe10c682e464736f6c63430008160033\n}\n",
				"bytecode": {
					"linkReferences": {},
					"object": "608060405234801561000f575f80fd5b506103988061001d5f395ff3fe608060405234801561000f575f80fd5b5060043610610034575f3560e01c80637108b38514610038578063fbd4b8cc14610056575b5f80fd5b610040610074565b60405161004d91906102ef565b60405180910390f35b61005e610084565b60405161006b91906102ef565b60405180910390f35b5f60605f81519050809250505090565b5f61008d6102b0565b600267ffffffffffffffff8111156100a8576100a7610308565b5b6040519080825280602002602001820160405280156100d65781602001602082028036833780820191505090505b50815f600481106100ea576100e9610335565b5b6020020181905250600367ffffffffffffffff81111561010d5761010c610308565b5b60405190808252806020026020018201604052801561013b5781602001602082028036833780820191505090505b50816001600481106101505761014f610335565b5b60200201819052506001815f6004811061016d5761016c610335565b5b60200201515f8151811061018457610183610335565b5b6020026020010181815250506002815f600481106101a5576101a4610335565b5b60200201516001815181106101bd576101bc610335565b5b6020026020010181815250506003816001600481106101df576101de610335565b5b60200201515f815181106101f6576101f5610335565b5b60200260200101818152505060048160016004811061021857610217610335565b5b60200201516001815181106102305761022f610335565b5b60200260200101818152505060058160016004811061025257610251610335565b5b602002015160028151811061026a57610269610335565b5b6020026020010181815250508060016004811061028a57610289610335565b5b60200201516002815181106102a2576102a1610335565b5b602002602001015191505090565b60405180608001604052806004905b60608152602001906001900390816102bf5790505090565b5f819050919050565b6102e9816102d7565b82525050565b5f6020820190506103025f8301846102e0565b92915050565b7f4e487b71000000000000000000000000000000000000000000000000000000005f52604160045260245ffd5b7f4e487b71000000000000000000000000000000000000000000000000000000005f52603260045260245ffdfea2646970667358221220509f15e8b57bae63da44b7b2e90d658b12e569e481512f519ecff8fe10c682e464736f6c63430008160033",
					"opcodes": "PUSH1 0x80 PUSH1 0x40 MSTORE CALLVALUE DUP1 ISZERO PUSH2 0xF JUMPI PUSH0 DUP1 REVERT JUMPDEST POP PUSH2 0x398 DUP1 PUSH2 0x1D PUSH0 CODECOPY PUSH0 RETURN INVALID PUSH1 0x80 PUSH1 0x40 MSTORE CALLVALUE DUP1 ISZERO PUSH2 0xF JUMPI PUSH0 DUP1 REVERT JUMPDEST POP PUSH1 0x4 CALLDATASIZE LT PUSH2 0x34 JUMPI PUSH0 CALLDATALOAD PUSH1 0xE0 SHR DUP1 PUSH4 0x7108B385 EQ PUSH2 0x38 JUMPI DUP1 PUSH4 0xFBD4B8CC EQ PUSH2 0x56 JUMPI JUMPDEST PUSH0 DUP1 REVERT JUMPDEST PUSH2 0x40 PUSH2 0x74 JUMP JUMPDEST PUSH1 0x40 MLOAD PUSH2 0x4D SWAP2 SWAP1 PUSH2 0x2EF JUMP JUMPDEST PUSH1 0x40 MLOAD DUP1 SWAP2 SUB SWAP1 RETURN JUMPDEST PUSH2 0x5E PUSH2 0x84 JUMP JUMPDEST PUSH1 0x40 MLOAD PUSH2 0x6B SWAP2 SWAP1 PUSH2 0x2EF JUMP JUMPDEST PUSH1 0x40 MLOAD DUP1 SWAP2 SUB SWAP1 RETURN JUMPDEST PUSH0 PUSH1 0x60 PUSH0 DUP2 MLOAD SWAP1 POP DUP1 SWAP3 POP POP POP SWAP1 JUMP JUMPDEST PUSH0 PUSH2 0x8D PUSH2 0x2B0 JUMP JUMPDEST PUSH1 0x2 PUSH8 0xFFFFFFFFFFFFFFFF DUP2 GT ISZERO PUSH2 0xA8 JUMPI PUSH2 0xA7 PUSH2 0x308 JUMP JUMPDEST JUMPDEST PUSH1 0x40 MLOAD SWAP1 DUP1 DUP3 MSTORE DUP1 PUSH1 0x20 MUL PUSH1 0x20 ADD DUP3 ADD PUSH1 0x40 MSTORE DUP1 ISZERO PUSH2 0xD6 JUMPI DUP2 PUSH1 0x20 ADD PUSH1 0x20 DUP3 MUL DUP1 CALLDATASIZE DUP4 CALLDATACOPY DUP1 DUP3 ADD SWAP2 POP POP SWAP1 POP JUMPDEST POP DUP2 PUSH0 PUSH1 0x4 DUP2 LT PUSH2 0xEA JUMPI PUSH2 0xE9 PUSH2 0x335 JUMP JUMPDEST JUMPDEST PUSH1 0x20 MUL ADD DUP2 SWAP1 MSTORE POP PUSH1 0x3 PUSH8 0xFFFFFFFFFFFFFFFF DUP2 GT ISZERO PUSH2 0x10D JUMPI PUSH2 0x10C PUSH2 0x308 JUMP JUMPDEST JUMPDEST PUSH1 0x40 MLOAD SWAP1 DUP1 DUP3 MSTORE DUP1 PUSH1 0x20 MUL PUSH1 0x20 ADD DUP3 ADD PUSH1 0x40 MSTORE DUP1 ISZERO PUSH2 0x13B JUMPI DUP2 PUSH1 0x20 ADD PUSH1 0x20 DUP3 MUL DUP1 CALLDATASIZE DUP4 CALLDATACOPY DUP1 DUP3 ADD SWAP2 POP POP SWAP1 POP JUMPDEST POP DUP2 PUSH1 0x1 PUSH1 0x4 DUP2 LT PUSH2 0x150 JUMPI PUSH2 0x14F PUSH2 0x335 JUMP JUMPDEST JUMPDEST PUSH1 0x20 MUL ADD DUP2 SWAP1 MSTORE POP PUSH1 0x1 DUP2 PUSH0 PUSH1 0x4 DUP2 LT PUSH2 0x16D JUMPI PUSH2 0x16C PUSH2 0x335 JUMP JUMPDEST JUMPDEST PUSH1 0x20 MUL ADD MLOAD PUSH0 DUP2 MLOAD DUP2 LT PUSH2 0x184 JUMPI PUSH2 0x183 PUSH2 0x335 JUMP JUMPDEST JUMPDEST PUSH1 0x20 MUL PUSH1 0x20 ADD ADD DUP2 DUP2 MSTORE POP POP PUSH1 0x2 DUP2 PUSH0 PUSH1 0x4 DUP2 LT PUSH2 0x1A5 JUMPI PUSH2 0x1A4 PUSH2 0x335 JUMP JUMPDEST JUMPDEST PUSH1 0x20 MUL ADD MLOAD PUSH1 0x1 DUP2 MLOAD DUP2 LT PUSH2 0x1BD JUMPI PUSH2 0x1BC PUSH2 0x335 JUMP JUMPDEST JUMPDEST PUSH1 0x20 MUL PUSH1 0x20 ADD ADD DUP2 DUP2 MSTORE POP POP PUSH1 0x3 DUP2 PUSH1 0x1 PUSH1 0x4 DUP2 LT PUSH2 0x1DF JUMPI PUSH2 0x1DE PUSH2 0x335 JUMP JUMPDEST JUMPDEST PUSH1 0x20 MUL ADD MLOAD PUSH0 DUP2 MLOAD DUP2 LT PUSH2 0x1F6 JUMPI PUSH2 0x1F5 PUSH2 0x335 JUMP JUMPDEST JUMPDEST PUSH1 0x20 MUL PUSH1 0x20 ADD ADD DUP2 DUP2 MSTORE POP POP PUSH1 0x4 DUP2 PUSH1 0x1 PUSH1 0x4 DUP2 LT PUSH2 0x218 JUMPI PUSH2 0x217 PUSH2 0x335 JUMP JUMPDEST JUMPDEST PUSH1 0x20 MUL ADD MLOAD PUSH1 0x1 DUP2 MLOAD DUP2 LT PUSH2 0x230 JUMPI PUSH2 0x22F PUSH2 0x335 JUMP JUMPDEST JUMPDEST PUSH1 0x20 MUL PUSH1 0x20 ADD ADD DUP2 DUP2 MSTORE POP POP PUSH1 0x5 DUP2 PUSH1 0x1 PUSH1 0x4 DUP2 LT PUSH2 0x252 JUMPI PUSH2 0x251 PUSH2 0x335 JUMP JUMPDEST JUMPDEST PUSH1 0x20 MUL ADD MLOAD PUSH1 0x2 DUP2 MLOAD DUP2 LT PUSH2 0x26A JUMPI PUSH2 0x269 PUSH2 0x335 JUMP JUMPDEST JUMPDEST PUSH1 0x20 MUL PUSH1 0x20 ADD ADD DUP2 DUP2 MSTORE POP POP DUP1 PUSH1 0x1 PUSH1 0x4 DUP2 LT PUSH2 0x28A JUMPI PUSH2 0x289 PUSH2 0x335 JUMP JUMPDEST JUMPDEST PUSH1 0x20 MUL ADD MLOAD PUSH1 0x2 DUP2 MLOAD DUP2 LT PUSH2 0x2A2 JUMPI PUSH2 0x2A1 PUSH2 0x335 JUMP JUMPDEST JUMPDEST PUSH1 0x20 MUL PUSH1 0x20 ADD ADD MLOAD SWAP2 POP POP SWAP1 JUMP JUMPDEST PUSH1 0x40 MLOAD DUP1 PUSH1 0x80 ADD PUSH1 0x40 MSTORE DUP1 PUSH1 0x4 SWAP1 JUMPDEST PUSH1 0x60 DUP2 MSTORE PUSH1 0x20 ADD SWAP1 PUSH1 0x1 SWAP1 SUB SWAP1 DUP2 PUSH2 0x2BF JUMPI SWAP1 POP POP SWAP1 JUMP JUMPDEST PUSH0 DUP2 SWAP1 POP SWAP2 SWAP1 POP JUMP JUMPDEST PUSH2 0x2E9 DUP2 PUSH2 0x2D7 JUMP JUMPDEST DUP3 MSTORE POP POP JUMP JUMPDEST PUSH0 PUSH1 0x20 DUP3 ADD SWAP1 POP PUSH2 0x302 PUSH0 DUP4 ADD DUP5 PUSH2 0x2E0 JUMP JUMPDEST SWAP3 SWAP2 POP POP JUMP JUMPDEST PUSH32 0x4E487B7100000000000000000000000000000000000000000000000000000000 PUSH0 MSTORE PUSH1 0x41 PUSH1 0x4 MSTORE PUSH1 0x24 PUSH0 REVERT JUMPDEST PUSH32 0x4E487B7100000000000000000000000000000000000000000000000000000000 PUSH0 MSTORE PUSH1 0x32 PUSH1 0x4 MSTORE PUSH1 0x24 PUSH0 REVERT INVALID LOG2 PUSH5 0x6970667358 0x22 SLT KECCAK256 POP SWAP16 ISZERO 0xE8 0xB5 PUSH28 0xAE63DA44B7B2E90D658B12E569E481512F519ECFF8FE10C682E46473 PUSH16 0x6C634300081600330000000000000000 "
				},
				"gasEstimates": {
					"creation": {
						"codeDepositCost": "184000",
						"executionCost": "224",
						"totalCost": "184224"
					},
					"external": {
						"claimMultiple()": "330",
						"testNested()": "infinite"
					}
				},
				"methodIdentifiers": {
					"claimMultiple()": "7108b385",
					"testNested()": "fbd4b8cc"
				}
			},
			"storageLayout": {
				"storage": [],
				"types": null
			},
			"userdoc": {
				"kind": "user",
				"methods": {},
				"version": 1
			}
		}
	}
}