{
	"1. arrays/testRemoveArray.sol": {
		"testarrrays": {
			"abi": [
				{
					"inputs": [
						{
							"internalType": "uint256[]",
							"name": "originalArr",
							"type": "uint256[]"
						},
						{
							"internalType": "uint256[]",
							"name": "arrToRemove",
							"type": "uint256[]"
						}
					],
					"name": "_removeFromArray",
					"outputs": [
						{
							"internalType": "uint256[]",
							"name": "",
							"type": "uint256[]"
						}
					],
					"stateMutability": "pure",
					"type": "function"
				},
				{
					"inputs": [
						{
							"internalType": "uint256[]",
							"name": "tokenIds",
							"type": "uint256[]"
						}
					],
					"name": "dupArrayCheck1",
					"outputs": [
						{
							"internalType": "uint256[]",
							"name": "",
							"type": "uint256[]"
						}
					],
					"stateMutability": "pure",
					"type": "function"
				},
				{
					"inputs": [
						{
							"internalType": "uint256[]",
							"name": "tokenIds",
							"type": "uint256[]"
						}
					],
					"name": "dupArrayCheck2",
					"outputs": [
						{
							"internalType": "uint256[]",
							"name": "",
							"type": "uint256[]"
						}
					],
					"stateMutability": "pure",
					"type": "function"
				}
			],
			"devdoc": {
				"kind": "dev",
				"methods": {},
				"version": 1
			},
			"evm": {
				"assembly": "    /* \"1. arrays/testRemoveArray.sol\":0:1867  contract testarrrays {... */\n  mstore(0x40, 0x80)\n  callvalue\n  dup1\n  iszero\n  tag_1\n  jumpi\n  0x00\n  dup1\n  revert\ntag_1:\n  pop\n  dataSize(sub_0)\n  dup1\n  dataOffset(sub_0)\n  0x00\n  codecopy\n  0x00\n  return\nstop\n\nsub_0: assembly {\n        /* \"1. arrays/testRemoveArray.sol\":0:1867  contract testarrrays {... */\n      mstore(0x40, 0x80)\n      callvalue\n      dup1\n      iszero\n      tag_1\n      jumpi\n      0x00\n      dup1\n      revert\n    tag_1:\n      pop\n      jumpi(tag_2, lt(calldatasize, 0x04))\n      shr(0xe0, calldataload(0x00))\n      dup1\n      0x3b182234\n      eq\n      tag_3\n      jumpi\n      dup1\n      0x5239e100\n      eq\n      tag_4\n      jumpi\n      dup1\n      0xb0e07abb\n      eq\n      tag_5\n      jumpi\n    tag_2:\n      0x00\n      dup1\n      revert\n        /* \"1. arrays/testRemoveArray.sol\":937:1352  function dupArrayCheck1(uint256[] memory tokenIds) public pure returns (uint256[] memory) {... */\n    tag_3:\n      tag_6\n      0x04\n      dup1\n      calldatasize\n      sub\n      dup2\n      add\n      swap1\n      tag_7\n      swap2\n      swap1\n      tag_8\n      jump\t// in\n    tag_7:\n      tag_9\n      jump\t// in\n    tag_6:\n      mload(0x40)\n      tag_10\n      swap2\n      swap1\n      tag_11\n      jump\t// in\n    tag_10:\n      mload(0x40)\n      dup1\n      swap2\n      sub\n      swap1\n      return\n        /* \"1. arrays/testRemoveArray.sol\":1360:1864  function dupArrayCheck2(uint256[] memory tokenIds) public pure returns (uint256[] memory) {... */\n    tag_4:\n      tag_12\n      0x04\n      dup1\n      calldatasize\n      sub\n      dup2\n      add\n      swap1\n      tag_13\n      swap2\n      swap1\n      tag_8\n      jump\t// in\n    tag_13:\n      tag_14\n      jump\t// in\n    tag_12:\n      mload(0x40)\n      tag_15\n      swap2\n      swap1\n      tag_11\n      jump\t// in\n    tag_15:\n      mload(0x40)\n      dup1\n      swap2\n      sub\n      swap1\n      return\n        /* \"1. arrays/testRemoveArray.sol\":34:929  function _removeFromArray(uint256[] memory originalArr, uint256[] memory arrToRemove) external  pure returns (uint256[] memory) {... */\n    tag_5:\n      tag_16\n      0x04\n      dup1\n      calldatasize\n      sub\n      dup2\n      add\n      swap1\n      tag_17\n      swap2\n      swap1\n      tag_18\n      jump\t// in\n    tag_17:\n      tag_19\n      jump\t// in\n    tag_16:\n      mload(0x40)\n      tag_20\n      swap2\n      swap1\n      tag_11\n      jump\t// in\n    tag_20:\n      mload(0x40)\n      dup1\n      swap2\n      sub\n      swap1\n      return\n        /* \"1. arrays/testRemoveArray.sol\":937:1352  function dupArrayCheck1(uint256[] memory tokenIds) public pure returns (uint256[] memory) {... */\n    tag_9:\n        /* \"1. arrays/testRemoveArray.sol\":1009:1025  uint256[] memory */\n      0x60\n        /* \"1. arrays/testRemoveArray.sol\":1038:1058  uint256 incomingNfts */\n      0x00\n        /* \"1. arrays/testRemoveArray.sol\":1061:1069  tokenIds */\n      dup3\n        /* \"1. arrays/testRemoveArray.sol\":1061:1076  tokenIds.length */\n      mload\n        /* \"1. arrays/testRemoveArray.sol\":1038:1076  uint256 incomingNfts = tokenIds.length */\n      swap1\n      pop\n        /* \"1. arrays/testRemoveArray.sol\":1108:1109  1 */\n      0x01\n        /* \"1. arrays/testRemoveArray.sol\":1093:1105  incomingNfts */\n      dup2\n        /* \"1. arrays/testRemoveArray.sol\":1093:1109  incomingNfts > 1 */\n      gt\n        /* \"1. arrays/testRemoveArray.sol\":1089:1345  if (incomingNfts > 1) {... */\n      iszero\n      tag_22\n      jumpi\n        /* \"1. arrays/testRemoveArray.sol\":1131:1140  uint256 i */\n      0x00\n        /* \"1. arrays/testRemoveArray.sol\":1126:1334  for (uint256 i; i < incomingNfts - 1; ++i) {... */\n    tag_23:\n        /* \"1. arrays/testRemoveArray.sol\":1161:1162  1 */\n      0x01\n        /* \"1. arrays/testRemoveArray.sol\":1146:1158  incomingNfts */\n      dup3\n        /* \"1. arrays/testRemoveArray.sol\":1146:1162  incomingNfts - 1 */\n      tag_26\n      swap2\n      swap1\n      tag_27\n      jump\t// in\n    tag_26:\n        /* \"1. arrays/testRemoveArray.sol\":1142:1143  i */\n      dup2\n        /* \"1. arrays/testRemoveArray.sol\":1142:1162  i < incomingNfts - 1 */\n      lt\n        /* \"1. arrays/testRemoveArray.sol\":1126:1334  for (uint256 i; i < incomingNfts - 1; ++i) {... */\n      iszero\n      tag_24\n      jumpi\n        /* \"1. arrays/testRemoveArray.sol\":1193:1202  uint256 j */\n      0x00\n        /* \"1. arrays/testRemoveArray.sol\":1209:1210  1 */\n      0x01\n        /* \"1. arrays/testRemoveArray.sol\":1205:1206  i */\n      dup3\n        /* \"1. arrays/testRemoveArray.sol\":1205:1210  i + 1 */\n      tag_31\n      swap2\n      swap1\n      tag_32\n      jump\t// in\n    tag_31:\n        /* \"1. arrays/testRemoveArray.sol\":1193:1210  uint256 j = i + 1 */\n      swap1\n      pop\n        /* \"1. arrays/testRemoveArray.sol\":1188:1319  for (uint256 j = i + 1; j < incomingNfts; ++j) {... */\n    tag_28:\n        /* \"1. arrays/testRemoveArray.sol\":1216:1228  incomingNfts */\n      dup3\n        /* \"1. arrays/testRemoveArray.sol\":1212:1213  j */\n      dup2\n        /* \"1. arrays/testRemoveArray.sol\":1212:1228  j < incomingNfts */\n      lt\n        /* \"1. arrays/testRemoveArray.sol\":1188:1319  for (uint256 j = i + 1; j < incomingNfts; ++j) {... */\n      iszero\n      tag_29\n      jumpi\n        /* \"1. arrays/testRemoveArray.sol\":1278:1286  tokenIds */\n      dup5\n        /* \"1. arrays/testRemoveArray.sol\":1287:1288  j */\n      dup2\n        /* \"1. arrays/testRemoveArray.sol\":1278:1289  tokenIds[j] */\n      dup2\n      mload\n      dup2\n      lt\n      tag_33\n      jumpi\n      tag_34\n      tag_35\n      jump\t// in\n    tag_34:\n    tag_33:\n      0x20\n      mul\n      0x20\n      add\n      add\n      mload\n        /* \"1. arrays/testRemoveArray.sol\":1263:1271  tokenIds */\n      dup6\n        /* \"1. arrays/testRemoveArray.sol\":1272:1273  i */\n      dup4\n        /* \"1. arrays/testRemoveArray.sol\":1263:1274  tokenIds[i] */\n      dup2\n      mload\n      dup2\n      lt\n      tag_36\n      jumpi\n      tag_37\n      tag_35\n      jump\t// in\n    tag_37:\n    tag_36:\n      0x20\n      mul\n      0x20\n      add\n      add\n      mload\n        /* \"1. arrays/testRemoveArray.sol\":1263:1289  tokenIds[i] == tokenIds[j] */\n      sub\n        /* \"1. arrays/testRemoveArray.sol\":1260:1299  if(tokenIds[i] == tokenIds[j]) revert() */\n      tag_38\n      jumpi\n        /* \"1. arrays/testRemoveArray.sol\":1291:1299  revert() */\n      0x00\n      dup1\n      revert\n        /* \"1. arrays/testRemoveArray.sol\":1260:1299  if(tokenIds[i] == tokenIds[j]) revert() */\n    tag_38:\n        /* \"1. arrays/testRemoveArray.sol\":1230:1233  ++j */\n      dup1\n      0x01\n      add\n      swap1\n      pop\n        /* \"1. arrays/testRemoveArray.sol\":1188:1319  for (uint256 j = i + 1; j < incomingNfts; ++j) {... */\n      jump(tag_28)\n    tag_29:\n      pop\n        /* \"1. arrays/testRemoveArray.sol\":1164:1167  ++i */\n      dup1\n      0x01\n      add\n      swap1\n      pop\n        /* \"1. arrays/testRemoveArray.sol\":1126:1334  for (uint256 i; i < incomingNfts - 1; ++i) {... */\n      jump(tag_23)\n    tag_24:\n      pop\n        /* \"1. arrays/testRemoveArray.sol\":1089:1345  if (incomingNfts > 1) {... */\n    tag_22:\n        /* \"1. arrays/testRemoveArray.sol\":1027:1352  {... */\n      pop\n        /* \"1. arrays/testRemoveArray.sol\":937:1352  function dupArrayCheck1(uint256[] memory tokenIds) public pure returns (uint256[] memory) {... */\n      swap2\n      swap1\n      pop\n      jump\t// out\n        /* \"1. arrays/testRemoveArray.sol\":1360:1864  function dupArrayCheck2(uint256[] memory tokenIds) public pure returns (uint256[] memory) {... */\n    tag_14:\n        /* \"1. arrays/testRemoveArray.sol\":1432:1448  uint256[] memory */\n      0x60\n        /* \"1. arrays/testRemoveArray.sol\":1461:1481  uint256 incomingNfts */\n      0x00\n        /* \"1. arrays/testRemoveArray.sol\":1484:1492  tokenIds */\n      dup3\n        /* \"1. arrays/testRemoveArray.sol\":1484:1499  tokenIds.length */\n      mload\n        /* \"1. arrays/testRemoveArray.sol\":1461:1499  uint256 incomingNfts = tokenIds.length */\n      swap1\n      pop\n        /* \"1. arrays/testRemoveArray.sol\":1530:1531  1 */\n      0x01\n        /* \"1. arrays/testRemoveArray.sol\":1515:1527  incomingNfts */\n      dup2\n        /* \"1. arrays/testRemoveArray.sol\":1515:1531  incomingNfts > 1 */\n      gt\n        /* \"1. arrays/testRemoveArray.sol\":1512:1857  if(incomingNfts > 1) {... */\n      iszero\n      tag_40\n      jumpi\n        /* \"1. arrays/testRemoveArray.sol\":1552:1561  uint256 i */\n      0x00\n        /* \"1. arrays/testRemoveArray.sol\":1548:1846  for(uint256 i; i < incomingNfts; ++i) {... */\n    tag_41:\n        /* \"1. arrays/testRemoveArray.sol\":1567:1579  incomingNfts */\n      dup2\n        /* \"1. arrays/testRemoveArray.sol\":1563:1564  i */\n      dup2\n        /* \"1. arrays/testRemoveArray.sol\":1563:1579  i < incomingNfts */\n      lt\n        /* \"1. arrays/testRemoveArray.sol\":1548:1846  for(uint256 i; i < incomingNfts; ++i) {... */\n      iszero\n      tag_42\n      jumpi\n        /* \"1. arrays/testRemoveArray.sol\":1609:1618  uint256 j */\n      0x00\n        /* \"1. arrays/testRemoveArray.sol\":1605:1831  for(uint256 j; j < incomingNfts; ++j) {... */\n    tag_44:\n        /* \"1. arrays/testRemoveArray.sol\":1624:1636  incomingNfts */\n      dup3\n        /* \"1. arrays/testRemoveArray.sol\":1620:1621  j */\n      dup2\n        /* \"1. arrays/testRemoveArray.sol\":1620:1636  j < incomingNfts */\n      lt\n        /* \"1. arrays/testRemoveArray.sol\":1605:1831  for(uint256 j; j < incomingNfts; ++j) {... */\n      iszero\n      tag_45\n      jumpi\n        /* \"1. arrays/testRemoveArray.sol\":1695:1696  j */\n      dup1\n        /* \"1. arrays/testRemoveArray.sol\":1690:1691  i */\n      dup3\n        /* \"1. arrays/testRemoveArray.sol\":1690:1696  i == j */\n      sub\n        /* \"1. arrays/testRemoveArray.sol\":1687:1706  if(i == j) continue */\n      iszero\n        /* \"1. arrays/testRemoveArray.sol\":1698:1706  continue */\n      tag_46\n        /* \"1. arrays/testRemoveArray.sol\":1687:1706  if(i == j) continue */\n      jumpi\n        /* \"1. arrays/testRemoveArray.sol\":1790:1798  tokenIds */\n      dup5\n        /* \"1. arrays/testRemoveArray.sol\":1799:1800  j */\n      dup2\n        /* \"1. arrays/testRemoveArray.sol\":1790:1801  tokenIds[j] */\n      dup2\n      mload\n      dup2\n      lt\n      tag_48\n      jumpi\n      tag_49\n      tag_35\n      jump\t// in\n    tag_49:\n    tag_48:\n      0x20\n      mul\n      0x20\n      add\n      add\n      mload\n        /* \"1. arrays/testRemoveArray.sol\":1775:1783  tokenIds */\n      dup6\n        /* \"1. arrays/testRemoveArray.sol\":1784:1785  i */\n      dup4\n        /* \"1. arrays/testRemoveArray.sol\":1775:1786  tokenIds[i] */\n      dup2\n      mload\n      dup2\n      lt\n      tag_50\n      jumpi\n      tag_51\n      tag_35\n      jump\t// in\n    tag_51:\n    tag_50:\n      0x20\n      mul\n      0x20\n      add\n      add\n      mload\n        /* \"1. arrays/testRemoveArray.sol\":1775:1801  tokenIds[i] == tokenIds[j] */\n      sub\n        /* \"1. arrays/testRemoveArray.sol\":1772:1811  if(tokenIds[i] == tokenIds[j]) revert() */\n      tag_52\n      jumpi\n        /* \"1. arrays/testRemoveArray.sol\":1803:1811  revert() */\n      0x00\n      dup1\n      revert\n        /* \"1. arrays/testRemoveArray.sol\":1772:1811  if(tokenIds[i] == tokenIds[j]) revert() */\n    tag_52:\n        /* \"1. arrays/testRemoveArray.sol\":1605:1831  for(uint256 j; j < incomingNfts; ++j) {... */\n    tag_46:\n        /* \"1. arrays/testRemoveArray.sol\":1638:1641  ++j */\n      dup1\n      0x01\n      add\n      swap1\n      pop\n        /* \"1. arrays/testRemoveArray.sol\":1605:1831  for(uint256 j; j < incomingNfts; ++j) {... */\n      jump(tag_44)\n    tag_45:\n      pop\n        /* \"1. arrays/testRemoveArray.sol\":1581:1584  ++i */\n      dup1\n      0x01\n      add\n      swap1\n      pop\n        /* \"1. arrays/testRemoveArray.sol\":1548:1846  for(uint256 i; i < incomingNfts; ++i) {... */\n      jump(tag_41)\n    tag_42:\n      pop\n        /* \"1. arrays/testRemoveArray.sol\":1512:1857  if(incomingNfts > 1) {... */\n    tag_40:\n        /* \"1. arrays/testRemoveArray.sol\":1450:1864  {... */\n      pop\n        /* \"1. arrays/testRemoveArray.sol\":1360:1864  function dupArrayCheck2(uint256[] memory tokenIds) public pure returns (uint256[] memory) {... */\n      swap2\n      swap1\n      pop\n      jump\t// out\n        /* \"1. arrays/testRemoveArray.sol\":34:929  function _removeFromArray(uint256[] memory originalArr, uint256[] memory arrToRemove) external  pure returns (uint256[] memory) {... */\n    tag_19:\n        /* \"1. arrays/testRemoveArray.sol\":144:160  uint256[] memory */\n      0x60\n        /* \"1. arrays/testRemoveArray.sol\":173:195  uint256 originalLength */\n      0x00\n        /* \"1. arrays/testRemoveArray.sol\":198:209  originalArr */\n      dup4\n        /* \"1. arrays/testRemoveArray.sol\":198:216  originalArr.length */\n      mload\n        /* \"1. arrays/testRemoveArray.sol\":173:216  uint256 originalLength = originalArr.length */\n      swap1\n      pop\n        /* \"1. arrays/testRemoveArray.sol\":227:249  uint256 toRemoveLength */\n      0x00\n        /* \"1. arrays/testRemoveArray.sol\":252:263  arrToRemove */\n      dup4\n        /* \"1. arrays/testRemoveArray.sol\":252:270  arrToRemove.length */\n      mload\n        /* \"1. arrays/testRemoveArray.sol\":227:270  uint256 toRemoveLength = arrToRemove.length */\n      swap1\n      pop\n        /* \"1. arrays/testRemoveArray.sol\":291:314  uint256[] memory resArr */\n      0x00\n        /* \"1. arrays/testRemoveArray.sol\":348:362  toRemoveLength */\n      dup2\n        /* \"1. arrays/testRemoveArray.sol\":331:345  originalLength */\n      dup4\n        /* \"1. arrays/testRemoveArray.sol\":331:362  originalLength - toRemoveLength */\n      tag_54\n      swap2\n      swap1\n      tag_27\n      jump\t// in\n    tag_54:\n        /* \"1. arrays/testRemoveArray.sol\":317:363  new uint256[](originalLength - toRemoveLength) */\n      0xffffffffffffffff\n      dup2\n      gt\n      iszero\n      tag_55\n      jumpi\n      tag_56\n      tag_57\n      jump\t// in\n    tag_56:\n    tag_55:\n      mload(0x40)\n      swap1\n      dup1\n      dup3\n      mstore\n      dup1\n      0x20\n      mul\n      0x20\n      add\n      dup3\n      add\n      0x40\n      mstore\n      dup1\n      iszero\n      tag_58\n      jumpi\n      dup2\n      0x20\n      add\n      0x20\n      dup3\n      mul\n      dup1\n      calldatasize\n      dup4\n      calldatacopy\n      dup1\n      dup3\n      add\n      swap2\n      pop\n      pop\n      swap1\n      pop\n    tag_58:\n      pop\n        /* \"1. arrays/testRemoveArray.sol\":291:363  uint256[] memory resArr = new uint256[](originalLength - toRemoveLength) */\n      swap1\n      pop\n        /* \"1. arrays/testRemoveArray.sol\":374:383  uint256 k */\n      0x00\n        /* \"1. arrays/testRemoveArray.sol\":400:409  uint256 i */\n      dup1\n        /* \"1. arrays/testRemoveArray.sol\":396:896  for(uint256 i; i < originalLength; ++i){... */\n    tag_59:\n        /* \"1. arrays/testRemoveArray.sol\":415:429  originalLength */\n      dup5\n        /* \"1. arrays/testRemoveArray.sol\":411:412  i */\n      dup2\n        /* \"1. arrays/testRemoveArray.sol\":411:429  i < originalLength */\n      lt\n        /* \"1. arrays/testRemoveArray.sol\":396:896  for(uint256 i; i < originalLength; ++i){... */\n      iszero\n      tag_60\n      jumpi\n        /* \"1. arrays/testRemoveArray.sol\":450:465  bool shouldKeep */\n      0x00\n        /* \"1. arrays/testRemoveArray.sol\":468:472  true */\n      0x01\n        /* \"1. arrays/testRemoveArray.sol\":450:472  bool shouldKeep = true */\n      swap1\n      pop\n        /* \"1. arrays/testRemoveArray.sol\":564:573  uint256 j */\n      0x00\n        /* \"1. arrays/testRemoveArray.sol\":560:759  for(uint256 j; j < toRemoveLength; ++j){... */\n    tag_62:\n        /* \"1. arrays/testRemoveArray.sol\":579:593  toRemoveLength */\n      dup6\n        /* \"1. arrays/testRemoveArray.sol\":575:576  j */\n      dup2\n        /* \"1. arrays/testRemoveArray.sol\":575:593  j < toRemoveLength */\n      lt\n        /* \"1. arrays/testRemoveArray.sol\":560:759  for(uint256 j; j < toRemoveLength; ++j){... */\n      iszero\n      tag_63\n      jumpi\n        /* \"1. arrays/testRemoveArray.sol\":639:650  arrToRemove */\n      dup9\n        /* \"1. arrays/testRemoveArray.sol\":651:652  j */\n      dup2\n        /* \"1. arrays/testRemoveArray.sol\":639:653  arrToRemove[j] */\n      dup2\n      mload\n      dup2\n      lt\n      tag_65\n      jumpi\n      tag_66\n      tag_35\n      jump\t// in\n    tag_66:\n    tag_65:\n      0x20\n      mul\n      0x20\n      add\n      add\n      mload\n        /* \"1. arrays/testRemoveArray.sol\":621:632  originalArr */\n      dup11\n        /* \"1. arrays/testRemoveArray.sol\":633:634  i */\n      dup5\n        /* \"1. arrays/testRemoveArray.sol\":621:635  originalArr[i] */\n      dup2\n      mload\n      dup2\n      lt\n      tag_67\n      jumpi\n      tag_68\n      tag_35\n      jump\t// in\n    tag_68:\n    tag_67:\n      0x20\n      mul\n      0x20\n      add\n      add\n      mload\n        /* \"1. arrays/testRemoveArray.sol\":621:653  originalArr[i] == arrToRemove[j] */\n      sub\n        /* \"1. arrays/testRemoveArray.sol\":618:743  if(originalArr[i] == arrToRemove[j]){... */\n      tag_69\n      jumpi\n        /* \"1. arrays/testRemoveArray.sol\":690:695  false */\n      0x00\n        /* \"1. arrays/testRemoveArray.sol\":677:695  shouldKeep = false */\n      swap2\n      pop\n        /* \"1. arrays/testRemoveArray.sol\":718:723  break */\n      jump(tag_63)\n        /* \"1. arrays/testRemoveArray.sol\":618:743  if(originalArr[i] == arrToRemove[j]){... */\n    tag_69:\n        /* \"1. arrays/testRemoveArray.sol\":595:598  ++j */\n      dup1\n      0x01\n      add\n      swap1\n      pop\n        /* \"1. arrays/testRemoveArray.sol\":560:759  for(uint256 j; j < toRemoveLength; ++j){... */\n      jump(tag_62)\n    tag_63:\n      pop\n        /* \"1. arrays/testRemoveArray.sol\":778:788  shouldKeep */\n      dup1\n        /* \"1. arrays/testRemoveArray.sol\":775:873  if(shouldKeep) {... */\n      iszero\n      tag_70\n      jumpi\n        /* \"1. arrays/testRemoveArray.sol\":821:832  originalArr */\n      dup9\n        /* \"1. arrays/testRemoveArray.sol\":833:834  i */\n      dup3\n        /* \"1. arrays/testRemoveArray.sol\":821:835  originalArr[i] */\n      dup2\n      mload\n      dup2\n      lt\n      tag_71\n      jumpi\n      tag_72\n      tag_35\n      jump\t// in\n    tag_72:\n    tag_71:\n      0x20\n      mul\n      0x20\n      add\n      add\n      mload\n        /* \"1. arrays/testRemoveArray.sol\":809:815  resArr */\n      dup5\n        /* \"1. arrays/testRemoveArray.sol\":816:817  k */\n      dup5\n        /* \"1. arrays/testRemoveArray.sol\":809:818  resArr[k] */\n      dup2\n      mload\n      dup2\n      lt\n      tag_73\n      jumpi\n      tag_74\n      tag_35\n      jump\t// in\n    tag_74:\n    tag_73:\n      0x20\n      mul\n      0x20\n      add\n      add\n        /* \"1. arrays/testRemoveArray.sol\":809:835  resArr[k] = originalArr[i] */\n      dup2\n      dup2\n      mstore\n      pop\n      pop\n        /* \"1. arrays/testRemoveArray.sol\":854:857  ++k */\n      dup3\n      tag_75\n      swap1\n      tag_76\n      jump\t// in\n    tag_75:\n      swap3\n      pop\n        /* \"1. arrays/testRemoveArray.sol\":775:873  if(shouldKeep) {... */\n    tag_70:\n        /* \"1. arrays/testRemoveArray.sol\":435:896  {... */\n      pop\n        /* \"1. arrays/testRemoveArray.sol\":431:434  ++i */\n      dup1\n      0x01\n      add\n      swap1\n      pop\n        /* \"1. arrays/testRemoveArray.sol\":396:896  for(uint256 i; i < originalLength; ++i){... */\n      jump(tag_59)\n    tag_60:\n      pop\n        /* \"1. arrays/testRemoveArray.sol\":915:921  resArr */\n      dup2\n        /* \"1. arrays/testRemoveArray.sol\":908:921  return resArr */\n      swap5\n      pop\n      pop\n      pop\n      pop\n      pop\n        /* \"1. arrays/testRemoveArray.sol\":34:929  function _removeFromArray(uint256[] memory originalArr, uint256[] memory arrToRemove) external  pure returns (uint256[] memory) {... */\n      swap3\n      swap2\n      pop\n      pop\n      jump\t// out\n        /* \"#utility.yul\":7:82   */\n    tag_77:\n        /* \"#utility.yul\":40:46   */\n      0x00\n        /* \"#utility.yul\":73:75   */\n      0x40\n        /* \"#utility.yul\":67:76   */\n      mload\n        /* \"#utility.yul\":57:76   */\n      swap1\n      pop\n        /* \"#utility.yul\":7:82   */\n      swap1\n      jump\t// out\n        /* \"#utility.yul\":88:205   */\n    tag_78:\n        /* \"#utility.yul\":197:198   */\n      0x00\n        /* \"#utility.yul\":194:195   */\n      dup1\n        /* \"#utility.yul\":187:199   */\n      revert\n        /* \"#utility.yul\":211:328   */\n    tag_79:\n        /* \"#utility.yul\":320:321   */\n      0x00\n        /* \"#utility.yul\":317:318   */\n      dup1\n        /* \"#utility.yul\":310:322   */\n      revert\n        /* \"#utility.yul\":334:451   */\n    tag_80:\n        /* \"#utility.yul\":443:444   */\n      0x00\n        /* \"#utility.yul\":440:441   */\n      dup1\n        /* \"#utility.yul\":433:445   */\n      revert\n        /* \"#utility.yul\":457:559   */\n    tag_81:\n        /* \"#utility.yul\":498:504   */\n      0x00\n        /* \"#utility.yul\":549:551   */\n      0x1f\n        /* \"#utility.yul\":545:552   */\n      not\n        /* \"#utility.yul\":540:542   */\n      0x1f\n        /* \"#utility.yul\":533:538   */\n      dup4\n        /* \"#utility.yul\":529:543   */\n      add\n        /* \"#utility.yul\":525:553   */\n      and\n        /* \"#utility.yul\":515:553   */\n      swap1\n      pop\n        /* \"#utility.yul\":457:559   */\n      swap2\n      swap1\n      pop\n      jump\t// out\n        /* \"#utility.yul\":565:745   */\n    tag_57:\n        /* \"#utility.yul\":613:690   */\n      0x4e487b7100000000000000000000000000000000000000000000000000000000\n        /* \"#utility.yul\":610:611   */\n      0x00\n        /* \"#utility.yul\":603:691   */\n      mstore\n        /* \"#utility.yul\":710:714   */\n      0x41\n        /* \"#utility.yul\":707:708   */\n      0x04\n        /* \"#utility.yul\":700:715   */\n      mstore\n        /* \"#utility.yul\":734:738   */\n      0x24\n        /* \"#utility.yul\":731:732   */\n      0x00\n        /* \"#utility.yul\":724:739   */\n      revert\n        /* \"#utility.yul\":751:1032   */\n    tag_82:\n        /* \"#utility.yul\":834:861   */\n      tag_107\n        /* \"#utility.yul\":856:860   */\n      dup3\n        /* \"#utility.yul\":834:861   */\n      tag_81\n      jump\t// in\n    tag_107:\n        /* \"#utility.yul\":826:832   */\n      dup2\n        /* \"#utility.yul\":822:862   */\n      add\n        /* \"#utility.yul\":964:970   */\n      dup2\n        /* \"#utility.yul\":952:962   */\n      dup2\n        /* \"#utility.yul\":949:971   */\n      lt\n        /* \"#utility.yul\":928:946   */\n      0xffffffffffffffff\n        /* \"#utility.yul\":916:926   */\n      dup3\n        /* \"#utility.yul\":913:947   */\n      gt\n        /* \"#utility.yul\":910:972   */\n      or\n        /* \"#utility.yul\":907:995   */\n      iszero\n      tag_108\n      jumpi\n        /* \"#utility.yul\":975:993   */\n      tag_109\n      tag_57\n      jump\t// in\n    tag_109:\n        /* \"#utility.yul\":907:995   */\n    tag_108:\n        /* \"#utility.yul\":1015:1025   */\n      dup1\n        /* \"#utility.yul\":1011:1013   */\n      0x40\n        /* \"#utility.yul\":1004:1026   */\n      mstore\n        /* \"#utility.yul\":794:1032   */\n      pop\n        /* \"#utility.yul\":751:1032   */\n      pop\n      pop\n      jump\t// out\n        /* \"#utility.yul\":1038:1167   */\n    tag_83:\n        /* \"#utility.yul\":1072:1078   */\n      0x00\n        /* \"#utility.yul\":1099:1119   */\n      tag_111\n      tag_77\n      jump\t// in\n    tag_111:\n        /* \"#utility.yul\":1089:1119   */\n      swap1\n      pop\n        /* \"#utility.yul\":1128:1161   */\n      tag_112\n        /* \"#utility.yul\":1156:1160   */\n      dup3\n        /* \"#utility.yul\":1148:1154   */\n      dup3\n        /* \"#utility.yul\":1128:1161   */\n      tag_82\n      jump\t// in\n    tag_112:\n        /* \"#utility.yul\":1038:1167   */\n      swap2\n      swap1\n      pop\n      jump\t// out\n        /* \"#utility.yul\":1173:1484   */\n    tag_84:\n        /* \"#utility.yul\":1250:1254   */\n      0x00\n        /* \"#utility.yul\":1340:1358   */\n      0xffffffffffffffff\n        /* \"#utility.yul\":1332:1338   */\n      dup3\n        /* \"#utility.yul\":1329:1359   */\n      gt\n        /* \"#utility.yul\":1326:1382   */\n      iszero\n      tag_114\n      jumpi\n        /* \"#utility.yul\":1362:1380   */\n      tag_115\n      tag_57\n      jump\t// in\n    tag_115:\n        /* \"#utility.yul\":1326:1382   */\n    tag_114:\n        /* \"#utility.yul\":1412:1416   */\n      0x20\n        /* \"#utility.yul\":1404:1410   */\n      dup3\n        /* \"#utility.yul\":1400:1417   */\n      mul\n        /* \"#utility.yul\":1392:1417   */\n      swap1\n      pop\n        /* \"#utility.yul\":1472:1476   */\n      0x20\n        /* \"#utility.yul\":1466:1470   */\n      dup2\n        /* \"#utility.yul\":1462:1477   */\n      add\n        /* \"#utility.yul\":1454:1477   */\n      swap1\n      pop\n        /* \"#utility.yul\":1173:1484   */\n      swap2\n      swap1\n      pop\n      jump\t// out\n        /* \"#utility.yul\":1490:1607   */\n    tag_85:\n        /* \"#utility.yul\":1599:1600   */\n      0x00\n        /* \"#utility.yul\":1596:1597   */\n      dup1\n        /* \"#utility.yul\":1589:1601   */\n      revert\n        /* \"#utility.yul\":1613:1690   */\n    tag_86:\n        /* \"#utility.yul\":1650:1657   */\n      0x00\n        /* \"#utility.yul\":1679:1684   */\n      dup2\n        /* \"#utility.yul\":1668:1684   */\n      swap1\n      pop\n        /* \"#utility.yul\":1613:1690   */\n      swap2\n      swap1\n      pop\n      jump\t// out\n        /* \"#utility.yul\":1696:1818   */\n    tag_87:\n        /* \"#utility.yul\":1769:1793   */\n      tag_119\n        /* \"#utility.yul\":1787:1792   */\n      dup2\n        /* \"#utility.yul\":1769:1793   */\n      tag_86\n      jump\t// in\n    tag_119:\n        /* \"#utility.yul\":1762:1767   */\n      dup2\n        /* \"#utility.yul\":1759:1794   */\n      eq\n        /* \"#utility.yul\":1749:1812   */\n      tag_120\n      jumpi\n        /* \"#utility.yul\":1808:1809   */\n      0x00\n        /* \"#utility.yul\":1805:1806   */\n      dup1\n        /* \"#utility.yul\":1798:1810   */\n      revert\n        /* \"#utility.yul\":1749:1812   */\n    tag_120:\n        /* \"#utility.yul\":1696:1818   */\n      pop\n      jump\t// out\n        /* \"#utility.yul\":1824:1963   */\n    tag_88:\n        /* \"#utility.yul\":1870:1875   */\n      0x00\n        /* \"#utility.yul\":1908:1914   */\n      dup2\n        /* \"#utility.yul\":1895:1915   */\n      calldataload\n        /* \"#utility.yul\":1886:1915   */\n      swap1\n      pop\n        /* \"#utility.yul\":1924:1957   */\n      tag_122\n        /* \"#utility.yul\":1951:1956   */\n      dup2\n        /* \"#utility.yul\":1924:1957   */\n      tag_87\n      jump\t// in\n    tag_122:\n        /* \"#utility.yul\":1824:1963   */\n      swap3\n      swap2\n      pop\n      pop\n      jump\t// out\n        /* \"#utility.yul\":1986:2696   */\n    tag_89:\n        /* \"#utility.yul\":2082:2087   */\n      0x00\n        /* \"#utility.yul\":2107:2188   */\n      tag_124\n        /* \"#utility.yul\":2123:2187   */\n      tag_125\n        /* \"#utility.yul\":2180:2186   */\n      dup5\n        /* \"#utility.yul\":2123:2187   */\n      tag_84\n      jump\t// in\n    tag_125:\n        /* \"#utility.yul\":2107:2188   */\n      tag_83\n      jump\t// in\n    tag_124:\n        /* \"#utility.yul\":2098:2188   */\n      swap1\n      pop\n        /* \"#utility.yul\":2208:2213   */\n      dup1\n        /* \"#utility.yul\":2237:2243   */\n      dup4\n        /* \"#utility.yul\":2230:2235   */\n      dup3\n        /* \"#utility.yul\":2223:2244   */\n      mstore\n        /* \"#utility.yul\":2271:2275   */\n      0x20\n        /* \"#utility.yul\":2264:2269   */\n      dup3\n        /* \"#utility.yul\":2260:2276   */\n      add\n        /* \"#utility.yul\":2253:2276   */\n      swap1\n      pop\n        /* \"#utility.yul\":2324:2328   */\n      0x20\n        /* \"#utility.yul\":2316:2322   */\n      dup5\n        /* \"#utility.yul\":2312:2329   */\n      mul\n        /* \"#utility.yul\":2304:2310   */\n      dup4\n        /* \"#utility.yul\":2300:2330   */\n      add\n        /* \"#utility.yul\":2353:2356   */\n      dup6\n        /* \"#utility.yul\":2345:2351   */\n      dup2\n        /* \"#utility.yul\":2342:2357   */\n      gt\n        /* \"#utility.yul\":2339:2461   */\n      iszero\n      tag_126\n      jumpi\n        /* \"#utility.yul\":2372:2451   */\n      tag_127\n      tag_85\n      jump\t// in\n    tag_127:\n        /* \"#utility.yul\":2339:2461   */\n    tag_126:\n        /* \"#utility.yul\":2487:2493   */\n      dup4\n        /* \"#utility.yul\":2470:2690   */\n    tag_128:\n        /* \"#utility.yul\":2504:2510   */\n      dup2\n        /* \"#utility.yul\":2499:2502   */\n      dup2\n        /* \"#utility.yul\":2496:2511   */\n      lt\n        /* \"#utility.yul\":2470:2690   */\n      iszero\n      tag_130\n      jumpi\n        /* \"#utility.yul\":2579:2582   */\n      dup1\n        /* \"#utility.yul\":2608:2645   */\n      tag_131\n        /* \"#utility.yul\":2641:2644   */\n      dup9\n        /* \"#utility.yul\":2629:2639   */\n      dup3\n        /* \"#utility.yul\":2608:2645   */\n      tag_88\n      jump\t// in\n    tag_131:\n        /* \"#utility.yul\":2603:2606   */\n      dup5\n        /* \"#utility.yul\":2596:2646   */\n      mstore\n        /* \"#utility.yul\":2675:2679   */\n      0x20\n        /* \"#utility.yul\":2670:2673   */\n      dup5\n        /* \"#utility.yul\":2666:2680   */\n      add\n        /* \"#utility.yul\":2659:2680   */\n      swap4\n      pop\n        /* \"#utility.yul\":2546:2690   */\n      pop\n        /* \"#utility.yul\":2530:2534   */\n      0x20\n        /* \"#utility.yul\":2525:2528   */\n      dup2\n        /* \"#utility.yul\":2521:2535   */\n      add\n        /* \"#utility.yul\":2514:2535   */\n      swap1\n      pop\n        /* \"#utility.yul\":2470:2690   */\n      jump(tag_128)\n    tag_130:\n        /* \"#utility.yul\":2474:2495   */\n      pop\n        /* \"#utility.yul\":2088:2696   */\n      pop\n      pop\n        /* \"#utility.yul\":1986:2696   */\n      swap4\n      swap3\n      pop\n      pop\n      pop\n      jump\t// out\n        /* \"#utility.yul\":2719:3089   */\n    tag_90:\n        /* \"#utility.yul\":2790:2795   */\n      0x00\n        /* \"#utility.yul\":2839:2842   */\n      dup3\n        /* \"#utility.yul\":2832:2836   */\n      0x1f\n        /* \"#utility.yul\":2824:2830   */\n      dup4\n        /* \"#utility.yul\":2820:2837   */\n      add\n        /* \"#utility.yul\":2816:2843   */\n      slt\n        /* \"#utility.yul\":2806:2928   */\n      tag_133\n      jumpi\n        /* \"#utility.yul\":2847:2926   */\n      tag_134\n      tag_80\n      jump\t// in\n    tag_134:\n        /* \"#utility.yul\":2806:2928   */\n    tag_133:\n        /* \"#utility.yul\":2964:2970   */\n      dup2\n        /* \"#utility.yul\":2951:2971   */\n      calldataload\n        /* \"#utility.yul\":2989:3083   */\n      tag_135\n        /* \"#utility.yul\":3079:3082   */\n      dup5\n        /* \"#utility.yul\":3071:3077   */\n      dup3\n        /* \"#utility.yul\":3064:3068   */\n      0x20\n        /* \"#utility.yul\":3056:3062   */\n      dup7\n        /* \"#utility.yul\":3052:3069   */\n      add\n        /* \"#utility.yul\":2989:3083   */\n      tag_89\n      jump\t// in\n    tag_135:\n        /* \"#utility.yul\":2980:3083   */\n      swap2\n      pop\n        /* \"#utility.yul\":2796:3089   */\n      pop\n        /* \"#utility.yul\":2719:3089   */\n      swap3\n      swap2\n      pop\n      pop\n      jump\t// out\n        /* \"#utility.yul\":3095:3634   */\n    tag_8:\n        /* \"#utility.yul\":3179:3185   */\n      0x00\n        /* \"#utility.yul\":3228:3230   */\n      0x20\n        /* \"#utility.yul\":3216:3225   */\n      dup3\n        /* \"#utility.yul\":3207:3214   */\n      dup5\n        /* \"#utility.yul\":3203:3226   */\n      sub\n        /* \"#utility.yul\":3199:3231   */\n      slt\n        /* \"#utility.yul\":3196:3315   */\n      iszero\n      tag_137\n      jumpi\n        /* \"#utility.yul\":3234:3313   */\n      tag_138\n      tag_78\n      jump\t// in\n    tag_138:\n        /* \"#utility.yul\":3196:3315   */\n    tag_137:\n        /* \"#utility.yul\":3382:3383   */\n      0x00\n        /* \"#utility.yul\":3371:3380   */\n      dup3\n        /* \"#utility.yul\":3367:3384   */\n      add\n        /* \"#utility.yul\":3354:3385   */\n      calldataload\n        /* \"#utility.yul\":3412:3430   */\n      0xffffffffffffffff\n        /* \"#utility.yul\":3404:3410   */\n      dup2\n        /* \"#utility.yul\":3401:3431   */\n      gt\n        /* \"#utility.yul\":3398:3515   */\n      iszero\n      tag_139\n      jumpi\n        /* \"#utility.yul\":3434:3513   */\n      tag_140\n      tag_79\n      jump\t// in\n    tag_140:\n        /* \"#utility.yul\":3398:3515   */\n    tag_139:\n        /* \"#utility.yul\":3539:3617   */\n      tag_141\n        /* \"#utility.yul\":3609:3616   */\n      dup5\n        /* \"#utility.yul\":3600:3606   */\n      dup3\n        /* \"#utility.yul\":3589:3598   */\n      dup6\n        /* \"#utility.yul\":3585:3607   */\n      add\n        /* \"#utility.yul\":3539:3617   */\n      tag_90\n      jump\t// in\n    tag_141:\n        /* \"#utility.yul\":3529:3617   */\n      swap2\n      pop\n        /* \"#utility.yul\":3325:3627   */\n      pop\n        /* \"#utility.yul\":3095:3634   */\n      swap3\n      swap2\n      pop\n      pop\n      jump\t// out\n        /* \"#utility.yul\":3640:3754   */\n    tag_91:\n        /* \"#utility.yul\":3707:3713   */\n      0x00\n        /* \"#utility.yul\":3741:3746   */\n      dup2\n        /* \"#utility.yul\":3735:3747   */\n      mload\n        /* \"#utility.yul\":3725:3747   */\n      swap1\n      pop\n        /* \"#utility.yul\":3640:3754   */\n      swap2\n      swap1\n      pop\n      jump\t// out\n        /* \"#utility.yul\":3760:3944   */\n    tag_92:\n        /* \"#utility.yul\":3859:3870   */\n      0x00\n        /* \"#utility.yul\":3893:3899   */\n      dup3\n        /* \"#utility.yul\":3888:3891   */\n      dup3\n        /* \"#utility.yul\":3881:3900   */\n      mstore\n        /* \"#utility.yul\":3933:3937   */\n      0x20\n        /* \"#utility.yul\":3928:3931   */\n      dup3\n        /* \"#utility.yul\":3924:3938   */\n      add\n        /* \"#utility.yul\":3909:3938   */\n      swap1\n      pop\n        /* \"#utility.yul\":3760:3944   */\n      swap3\n      swap2\n      pop\n      pop\n      jump\t// out\n        /* \"#utility.yul\":3950:4082   */\n    tag_93:\n        /* \"#utility.yul\":4017:4021   */\n      0x00\n        /* \"#utility.yul\":4040:4043   */\n      dup2\n        /* \"#utility.yul\":4032:4043   */\n      swap1\n      pop\n        /* \"#utility.yul\":4070:4074   */\n      0x20\n        /* \"#utility.yul\":4065:4068   */\n      dup3\n        /* \"#utility.yul\":4061:4075   */\n      add\n        /* \"#utility.yul\":4053:4075   */\n      swap1\n      pop\n        /* \"#utility.yul\":3950:4082   */\n      swap2\n      swap1\n      pop\n      jump\t// out\n        /* \"#utility.yul\":4088:4196   */\n    tag_94:\n        /* \"#utility.yul\":4165:4189   */\n      tag_146\n        /* \"#utility.yul\":4183:4188   */\n      dup2\n        /* \"#utility.yul\":4165:4189   */\n      tag_86\n      jump\t// in\n    tag_146:\n        /* \"#utility.yul\":4160:4163   */\n      dup3\n        /* \"#utility.yul\":4153:4190   */\n      mstore\n        /* \"#utility.yul\":4088:4196   */\n      pop\n      pop\n      jump\t// out\n        /* \"#utility.yul\":4202:4381   */\n    tag_95:\n        /* \"#utility.yul\":4271:4281   */\n      0x00\n        /* \"#utility.yul\":4292:4338   */\n      tag_148\n        /* \"#utility.yul\":4334:4337   */\n      dup4\n        /* \"#utility.yul\":4326:4332   */\n      dup4\n        /* \"#utility.yul\":4292:4338   */\n      tag_94\n      jump\t// in\n    tag_148:\n        /* \"#utility.yul\":4370:4374   */\n      0x20\n        /* \"#utility.yul\":4365:4368   */\n      dup4\n        /* \"#utility.yul\":4361:4375   */\n      add\n        /* \"#utility.yul\":4347:4375   */\n      swap1\n      pop\n        /* \"#utility.yul\":4202:4381   */\n      swap3\n      swap2\n      pop\n      pop\n      jump\t// out\n        /* \"#utility.yul\":4387:4500   */\n    tag_96:\n        /* \"#utility.yul\":4457:4461   */\n      0x00\n        /* \"#utility.yul\":4489:4493   */\n      0x20\n        /* \"#utility.yul\":4484:4487   */\n      dup3\n        /* \"#utility.yul\":4480:4494   */\n      add\n        /* \"#utility.yul\":4472:4494   */\n      swap1\n      pop\n        /* \"#utility.yul\":4387:4500   */\n      swap2\n      swap1\n      pop\n      jump\t// out\n        /* \"#utility.yul\":4536:5268   */\n    tag_97:\n        /* \"#utility.yul\":4655:4658   */\n      0x00\n        /* \"#utility.yul\":4684:4738   */\n      tag_151\n        /* \"#utility.yul\":4732:4737   */\n      dup3\n        /* \"#utility.yul\":4684:4738   */\n      tag_91\n      jump\t// in\n    tag_151:\n        /* \"#utility.yul\":4754:4840   */\n      tag_152\n        /* \"#utility.yul\":4833:4839   */\n      dup2\n        /* \"#utility.yul\":4828:4831   */\n      dup6\n        /* \"#utility.yul\":4754:4840   */\n      tag_92\n      jump\t// in\n    tag_152:\n        /* \"#utility.yul\":4747:4840   */\n      swap4\n      pop\n        /* \"#utility.yul\":4864:4920   */\n      tag_153\n        /* \"#utility.yul\":4914:4919   */\n      dup4\n        /* \"#utility.yul\":4864:4920   */\n      tag_93\n      jump\t// in\n    tag_153:\n        /* \"#utility.yul\":4943:4950   */\n      dup1\n        /* \"#utility.yul\":4974:4975   */\n      0x00\n        /* \"#utility.yul\":4959:5243   */\n    tag_154:\n        /* \"#utility.yul\":4984:4990   */\n      dup4\n        /* \"#utility.yul\":4981:4982   */\n      dup2\n        /* \"#utility.yul\":4978:4991   */\n      lt\n        /* \"#utility.yul\":4959:5243   */\n      iszero\n      tag_156\n      jumpi\n        /* \"#utility.yul\":5060:5066   */\n      dup2\n        /* \"#utility.yul\":5054:5067   */\n      mload\n        /* \"#utility.yul\":5087:5150   */\n      tag_157\n        /* \"#utility.yul\":5146:5149   */\n      dup9\n        /* \"#utility.yul\":5131:5144   */\n      dup3\n        /* \"#utility.yul\":5087:5150   */\n      tag_95\n      jump\t// in\n    tag_157:\n        /* \"#utility.yul\":5080:5150   */\n      swap8\n      pop\n        /* \"#utility.yul\":5173:5233   */\n      tag_158\n        /* \"#utility.yul\":5226:5232   */\n      dup4\n        /* \"#utility.yul\":5173:5233   */\n      tag_96\n      jump\t// in\n    tag_158:\n        /* \"#utility.yul\":5163:5233   */\n      swap3\n      pop\n        /* \"#utility.yul\":5019:5243   */\n      pop\n        /* \"#utility.yul\":5006:5007   */\n      0x01\n        /* \"#utility.yul\":5003:5004   */\n      dup2\n        /* \"#utility.yul\":4999:5008   */\n      add\n        /* \"#utility.yul\":4994:5008   */\n      swap1\n      pop\n        /* \"#utility.yul\":4959:5243   */\n      jump(tag_154)\n    tag_156:\n        /* \"#utility.yul\":4963:4977   */\n      pop\n        /* \"#utility.yul\":5259:5262   */\n      dup6\n        /* \"#utility.yul\":5252:5262   */\n      swap4\n      pop\n        /* \"#utility.yul\":4660:5268   */\n      pop\n      pop\n      pop\n        /* \"#utility.yul\":4536:5268   */\n      swap3\n      swap2\n      pop\n      pop\n      jump\t// out\n        /* \"#utility.yul\":5274:5647   */\n    tag_11:\n        /* \"#utility.yul\":5417:5421   */\n      0x00\n        /* \"#utility.yul\":5455:5457   */\n      0x20\n        /* \"#utility.yul\":5444:5453   */\n      dup3\n        /* \"#utility.yul\":5440:5458   */\n      add\n        /* \"#utility.yul\":5432:5458   */\n      swap1\n      pop\n        /* \"#utility.yul\":5504:5513   */\n      dup2\n        /* \"#utility.yul\":5498:5502   */\n      dup2\n        /* \"#utility.yul\":5494:5514   */\n      sub\n        /* \"#utility.yul\":5490:5491   */\n      0x00\n        /* \"#utility.yul\":5479:5488   */\n      dup4\n        /* \"#utility.yul\":5475:5492   */\n      add\n        /* \"#utility.yul\":5468:5515   */\n      mstore\n        /* \"#utility.yul\":5532:5640   */\n      tag_160\n        /* \"#utility.yul\":5635:5639   */\n      dup2\n        /* \"#utility.yul\":5626:5632   */\n      dup5\n        /* \"#utility.yul\":5532:5640   */\n      tag_97\n      jump\t// in\n    tag_160:\n        /* \"#utility.yul\":5524:5640   */\n      swap1\n      pop\n        /* \"#utility.yul\":5274:5647   */\n      swap3\n      swap2\n      pop\n      pop\n      jump\t// out\n        /* \"#utility.yul\":5653:6547   */\n    tag_18:\n        /* \"#utility.yul\":5771:5777   */\n      0x00\n        /* \"#utility.yul\":5779:5785   */\n      dup1\n        /* \"#utility.yul\":5828:5830   */\n      0x40\n        /* \"#utility.yul\":5816:5825   */\n      dup4\n        /* \"#utility.yul\":5807:5814   */\n      dup6\n        /* \"#utility.yul\":5803:5826   */\n      sub\n        /* \"#utility.yul\":5799:5831   */\n      slt\n        /* \"#utility.yul\":5796:5915   */\n      iszero\n      tag_162\n      jumpi\n        /* \"#utility.yul\":5834:5913   */\n      tag_163\n      tag_78\n      jump\t// in\n    tag_163:\n        /* \"#utility.yul\":5796:5915   */\n    tag_162:\n        /* \"#utility.yul\":5982:5983   */\n      0x00\n        /* \"#utility.yul\":5971:5980   */\n      dup4\n        /* \"#utility.yul\":5967:5984   */\n      add\n        /* \"#utility.yul\":5954:5985   */\n      calldataload\n        /* \"#utility.yul\":6012:6030   */\n      0xffffffffffffffff\n        /* \"#utility.yul\":6004:6010   */\n      dup2\n        /* \"#utility.yul\":6001:6031   */\n      gt\n        /* \"#utility.yul\":5998:6115   */\n      iszero\n      tag_164\n      jumpi\n        /* \"#utility.yul\":6034:6113   */\n      tag_165\n      tag_79\n      jump\t// in\n    tag_165:\n        /* \"#utility.yul\":5998:6115   */\n    tag_164:\n        /* \"#utility.yul\":6139:6217   */\n      tag_166\n        /* \"#utility.yul\":6209:6216   */\n      dup6\n        /* \"#utility.yul\":6200:6206   */\n      dup3\n        /* \"#utility.yul\":6189:6198   */\n      dup7\n        /* \"#utility.yul\":6185:6207   */\n      add\n        /* \"#utility.yul\":6139:6217   */\n      tag_90\n      jump\t// in\n    tag_166:\n        /* \"#utility.yul\":6129:6217   */\n      swap3\n      pop\n        /* \"#utility.yul\":5925:6227   */\n      pop\n        /* \"#utility.yul\":6294:6296   */\n      0x20\n        /* \"#utility.yul\":6283:6292   */\n      dup4\n        /* \"#utility.yul\":6279:6297   */\n      add\n        /* \"#utility.yul\":6266:6298   */\n      calldataload\n        /* \"#utility.yul\":6325:6343   */\n      0xffffffffffffffff\n        /* \"#utility.yul\":6317:6323   */\n      dup2\n        /* \"#utility.yul\":6314:6344   */\n      gt\n        /* \"#utility.yul\":6311:6428   */\n      iszero\n      tag_167\n      jumpi\n        /* \"#utility.yul\":6347:6426   */\n      tag_168\n      tag_79\n      jump\t// in\n    tag_168:\n        /* \"#utility.yul\":6311:6428   */\n    tag_167:\n        /* \"#utility.yul\":6452:6530   */\n      tag_169\n        /* \"#utility.yul\":6522:6529   */\n      dup6\n        /* \"#utility.yul\":6513:6519   */\n      dup3\n        /* \"#utility.yul\":6502:6511   */\n      dup7\n        /* \"#utility.yul\":6498:6520   */\n      add\n        /* \"#utility.yul\":6452:6530   */\n      tag_90\n      jump\t// in\n    tag_169:\n        /* \"#utility.yul\":6442:6530   */\n      swap2\n      pop\n        /* \"#utility.yul\":6237:6540   */\n      pop\n        /* \"#utility.yul\":5653:6547   */\n      swap3\n      pop\n      swap3\n      swap1\n      pop\n      jump\t// out\n        /* \"#utility.yul\":6553:6733   */\n    tag_98:\n        /* \"#utility.yul\":6601:6678   */\n      0x4e487b7100000000000000000000000000000000000000000000000000000000\n        /* \"#utility.yul\":6598:6599   */\n      0x00\n        /* \"#utility.yul\":6591:6679   */\n      mstore\n        /* \"#utility.yul\":6698:6702   */\n      0x11\n        /* \"#utility.yul\":6695:6696   */\n      0x04\n        /* \"#utility.yul\":6688:6703   */\n      mstore\n        /* \"#utility.yul\":6722:6726   */\n      0x24\n        /* \"#utility.yul\":6719:6720   */\n      0x00\n        /* \"#utility.yul\":6712:6727   */\n      revert\n        /* \"#utility.yul\":6739:6933   */\n    tag_27:\n        /* \"#utility.yul\":6779:6783   */\n      0x00\n        /* \"#utility.yul\":6799:6819   */\n      tag_172\n        /* \"#utility.yul\":6817:6818   */\n      dup3\n        /* \"#utility.yul\":6799:6819   */\n      tag_86\n      jump\t// in\n    tag_172:\n        /* \"#utility.yul\":6794:6819   */\n      swap2\n      pop\n        /* \"#utility.yul\":6833:6853   */\n      tag_173\n        /* \"#utility.yul\":6851:6852   */\n      dup4\n        /* \"#utility.yul\":6833:6853   */\n      tag_86\n      jump\t// in\n    tag_173:\n        /* \"#utility.yul\":6828:6853   */\n      swap3\n      pop\n        /* \"#utility.yul\":6877:6878   */\n      dup3\n        /* \"#utility.yul\":6874:6875   */\n      dup3\n        /* \"#utility.yul\":6870:6879   */\n      sub\n        /* \"#utility.yul\":6862:6879   */\n      swap1\n      pop\n        /* \"#utility.yul\":6901:6902   */\n      dup2\n        /* \"#utility.yul\":6895:6899   */\n      dup2\n        /* \"#utility.yul\":6892:6903   */\n      gt\n        /* \"#utility.yul\":6889:6926   */\n      iszero\n      tag_174\n      jumpi\n        /* \"#utility.yul\":6906:6924   */\n      tag_175\n      tag_98\n      jump\t// in\n    tag_175:\n        /* \"#utility.yul\":6889:6926   */\n    tag_174:\n        /* \"#utility.yul\":6739:6933   */\n      swap3\n      swap2\n      pop\n      pop\n      jump\t// out\n        /* \"#utility.yul\":6939:7130   */\n    tag_32:\n        /* \"#utility.yul\":6979:6982   */\n      0x00\n        /* \"#utility.yul\":6998:7018   */\n      tag_177\n        /* \"#utility.yul\":7016:7017   */\n      dup3\n        /* \"#utility.yul\":6998:7018   */\n      tag_86\n      jump\t// in\n    tag_177:\n        /* \"#utility.yul\":6993:7018   */\n      swap2\n      pop\n        /* \"#utility.yul\":7032:7052   */\n      tag_178\n        /* \"#utility.yul\":7050:7051   */\n      dup4\n        /* \"#utility.yul\":7032:7052   */\n      tag_86\n      jump\t// in\n    tag_178:\n        /* \"#utility.yul\":7027:7052   */\n      swap3\n      pop\n        /* \"#utility.yul\":7075:7076   */\n      dup3\n        /* \"#utility.yul\":7072:7073   */\n      dup3\n        /* \"#utility.yul\":7068:7077   */\n      add\n        /* \"#utility.yul\":7061:7077   */\n      swap1\n      pop\n        /* \"#utility.yul\":7096:7099   */\n      dup1\n        /* \"#utility.yul\":7093:7094   */\n      dup3\n        /* \"#utility.yul\":7090:7100   */\n      gt\n        /* \"#utility.yul\":7087:7123   */\n      iszero\n      tag_179\n      jumpi\n        /* \"#utility.yul\":7103:7121   */\n      tag_180\n      tag_98\n      jump\t// in\n    tag_180:\n        /* \"#utility.yul\":7087:7123   */\n    tag_179:\n        /* \"#utility.yul\":6939:7130   */\n      swap3\n      swap2\n      pop\n      pop\n      jump\t// out\n        /* \"#utility.yul\":7136:7316   */\n    tag_35:\n        /* \"#utility.yul\":7184:7261   */\n      0x4e487b7100000000000000000000000000000000000000000000000000000000\n        /* \"#utility.yul\":7181:7182   */\n      0x00\n        /* \"#utility.yul\":7174:7262   */\n      mstore\n        /* \"#utility.yul\":7281:7285   */\n      0x32\n        /* \"#utility.yul\":7278:7279   */\n      0x04\n        /* \"#utility.yul\":7271:7286   */\n      mstore\n        /* \"#utility.yul\":7305:7309   */\n      0x24\n        /* \"#utility.yul\":7302:7303   */\n      0x00\n        /* \"#utility.yul\":7295:7310   */\n      revert\n        /* \"#utility.yul\":7322:7555   */\n    tag_76:\n        /* \"#utility.yul\":7361:7364   */\n      0x00\n        /* \"#utility.yul\":7384:7408   */\n      tag_183\n        /* \"#utility.yul\":7402:7407   */\n      dup3\n        /* \"#utility.yul\":7384:7408   */\n      tag_86\n      jump\t// in\n    tag_183:\n        /* \"#utility.yul\":7375:7408   */\n      swap2\n      pop\n        /* \"#utility.yul\":7430:7496   */\n      0xffffffffffffffffffffffffffffffffffffffffffffffffffffffffffffffff\n        /* \"#utility.yul\":7423:7428   */\n      dup3\n        /* \"#utility.yul\":7420:7497   */\n      sub\n        /* \"#utility.yul\":7417:7520   */\n      tag_184\n      jumpi\n        /* \"#utility.yul\":7500:7518   */\n      tag_185\n      tag_98\n      jump\t// in\n    tag_185:\n        /* \"#utility.yul\":7417:7520   */\n    tag_184:\n        /* \"#utility.yul\":7547:7548   */\n      0x01\n        /* \"#utility.yul\":7540:7545   */\n      dup3\n        /* \"#utility.yul\":7536:7549   */\n      add\n        /* \"#utility.yul\":7529:7549   */\n      swap1\n      pop\n        /* \"#utility.yul\":7322:7555   */\n      swap2\n      swap1\n      pop\n      jump\t// out\n\n    auxdata: 0xa26469706673582212205d76f2648082c7d9af63f3682c26f4d81668a1504ad66023eddc6eb4d1c2b53664736f6c63430008160033\n}\n",
				"bytecode": {
					"linkReferences": {},
					"object": "608060405234801561000f575f80fd5b506107938061001d5f395ff3fe608060405234801561000f575f80fd5b506004361061003f575f3560e01c80633b182234146100435780635239e10014610073578063b0e07abb146100a3575b5f80fd5b61005d600480360381019061005891906104c2565b6100d3565b60405161006a91906105c0565b60405180910390f35b61008d600480360381019061008891906104c2565b610170565b60405161009a91906105c0565b60405180910390f35b6100bd60048036038101906100b891906105e0565b6101fb565b6040516100ca91906105c0565b60405180910390f35b60605f82519050600181111561016a575f5b6001826100f29190610683565b811015610168575f60018261010791906106b6565b90505b8281101561015c57848181518110610125576101246106e9565b5b60200260200101518583815181106101405761013f6106e9565b5b602002602001015103610151575f80fd5b80600101905061010a565b508060010190506100e5565b505b50919050565b60605f8251905060018111156101f5575f5b818110156101f3575f5b828110156101e757808203156101dc578481815181106101af576101ae6106e9565b5b60200260200101518583815181106101ca576101c96106e9565b5b6020026020010151036101db575f80fd5b5b80600101905061018c565b50806001019050610182565b505b50919050565b60605f835190505f835190505f81836102149190610683565b67ffffffffffffffff81111561022d5761022c610353565b5b60405190808252806020026020018201604052801561025b5781602001602082028036833780820191505090505b5090505f805b84811015610320575f600190505f5b858110156102c65788818151811061028b5761028a6106e9565b5b60200260200101518a84815181106102a6576102a56106e9565b5b6020026020010151036102bb575f91506102c6565b806001019050610270565b508015610314578882815181106102e0576102df6106e9565b5b60200260200101518484815181106102fb576102fa6106e9565b5b6020026020010181815250508261031190610716565b92505b50806001019050610261565b508194505050505092915050565b5f604051905090565b5f80fd5b5f80fd5b5f80fd5b5f601f19601f8301169050919050565b7f4e487b71000000000000000000000000000000000000000000000000000000005f52604160045260245ffd5b61038982610343565b810181811067ffffffffffffffff821117156103a8576103a7610353565b5b80604052505050565b5f6103ba61032e565b90506103c68282610380565b919050565b5f67ffffffffffffffff8211156103e5576103e4610353565b5b602082029050602081019050919050565b5f80fd5b5f819050919050565b61040c816103fa565b8114610416575f80fd5b50565b5f8135905061042781610403565b92915050565b5f61043f61043a846103cb565b6103b1565b90508083825260208201905060208402830185811115610462576104616103f6565b5b835b8181101561048b57806104778882610419565b845260208401935050602081019050610464565b5050509392505050565b5f82601f8301126104a9576104a861033f565b5b81356104b984826020860161042d565b91505092915050565b5f602082840312156104d7576104d6610337565b5b5f82013567ffffffffffffffff8111156104f4576104f361033b565b5b61050084828501610495565b91505092915050565b5f81519050919050565b5f82825260208201905092915050565b5f819050602082019050919050565b61053b816103fa565b82525050565b5f61054c8383610532565b60208301905092915050565b5f602082019050919050565b5f61056e82610509565b6105788185610513565b935061058383610523565b805f5b838110156105b357815161059a8882610541565b97506105a583610558565b925050600181019050610586565b5085935050505092915050565b5f6020820190508181035f8301526105d88184610564565b905092915050565b5f80604083850312156105f6576105f5610337565b5b5f83013567ffffffffffffffff8111156106135761061261033b565b5b61061f85828601610495565b925050602083013567ffffffffffffffff8111156106405761063f61033b565b5b61064c85828601610495565b9150509250929050565b7f4e487b71000000000000000000000000000000000000000000000000000000005f52601160045260245ffd5b5f61068d826103fa565b9150610698836103fa565b92508282039050818111156106b0576106af610656565b5b92915050565b5f6106c0826103fa565b91506106cb836103fa565b92508282019050808211156106e3576106e2610656565b5b92915050565b7f4e487b71000000000000000000000000000000000000000000000000000000005f52603260045260245ffd5b5f610720826103fa565b91507fffffffffffffffffffffffffffffffffffffffffffffffffffffffffffffffff820361075257610751610656565b5b60018201905091905056fea26469706673582212205d76f2648082c7d9af63f3682c26f4d81668a1504ad66023eddc6eb4d1c2b53664736f6c63430008160033",
					"opcodes": "PUSH1 0x80 PUSH1 0x40 MSTORE CALLVALUE DUP1 ISZERO PUSH2 0xF JUMPI PUSH0 DUP1 REVERT JUMPDEST POP PUSH2 0x793 DUP1 PUSH2 0x1D PUSH0 CODECOPY PUSH0 RETURN INVALID PUSH1 0x80 PUSH1 0x40 MSTORE CALLVALUE DUP1 ISZERO PUSH2 0xF JUMPI PUSH0 DUP1 REVERT JUMPDEST POP PUSH1 0x4 CALLDATASIZE LT PUSH2 0x3F JUMPI PUSH0 CALLDATALOAD PUSH1 0xE0 SHR DUP1 PUSH4 0x3B182234 EQ PUSH2 0x43 JUMPI DUP1 PUSH4 0x5239E100 EQ PUSH2 0x73 JUMPI DUP1 PUSH4 0xB0E07ABB EQ PUSH2 0xA3 JUMPI JUMPDEST PUSH0 DUP1 REVERT JUMPDEST PUSH2 0x5D PUSH1 0x4 DUP1 CALLDATASIZE SUB DUP2 ADD SWAP1 PUSH2 0x58 SWAP2 SWAP1 PUSH2 0x4C2 JUMP JUMPDEST PUSH2 0xD3 JUMP JUMPDEST PUSH1 0x40 MLOAD PUSH2 0x6A SWAP2 SWAP1 PUSH2 0x5C0 JUMP JUMPDEST PUSH1 0x40 MLOAD DUP1 SWAP2 SUB SWAP1 RETURN JUMPDEST PUSH2 0x8D PUSH1 0x4 DUP1 CALLDATASIZE SUB DUP2 ADD SWAP1 PUSH2 0x88 SWAP2 SWAP1 PUSH2 0x4C2 JUMP JUMPDEST PUSH2 0x170 JUMP JUMPDEST PUSH1 0x40 MLOAD PUSH2 0x9A SWAP2 SWAP1 PUSH2 0x5C0 JUMP JUMPDEST PUSH1 0x40 MLOAD DUP1 SWAP2 SUB SWAP1 RETURN JUMPDEST PUSH2 0xBD PUSH1 0x4 DUP1 CALLDATASIZE SUB DUP2 ADD SWAP1 PUSH2 0xB8 SWAP2 SWAP1 PUSH2 0x5E0 JUMP JUMPDEST PUSH2 0x1FB JUMP JUMPDEST PUSH1 0x40 MLOAD PUSH2 0xCA SWAP2 SWAP1 PUSH2 0x5C0 JUMP JUMPDEST PUSH1 0x40 MLOAD DUP1 SWAP2 SUB SWAP1 RETURN JUMPDEST PUSH1 0x60 PUSH0 DUP3 MLOAD SWAP1 POP PUSH1 0x1 DUP2 GT ISZERO PUSH2 0x16A JUMPI PUSH0 JUMPDEST PUSH1 0x1 DUP3 PUSH2 0xF2 SWAP2 SWAP1 PUSH2 0x683 JUMP JUMPDEST DUP2 LT ISZERO PUSH2 0x168 JUMPI PUSH0 PUSH1 0x1 DUP3 PUSH2 0x107 SWAP2 SWAP1 PUSH2 0x6B6 JUMP JUMPDEST SWAP1 POP JUMPDEST DUP3 DUP2 LT ISZERO PUSH2 0x15C JUMPI DUP5 DUP2 DUP2 MLOAD DUP2 LT PUSH2 0x125 JUMPI PUSH2 0x124 PUSH2 0x6E9 JUMP JUMPDEST JUMPDEST PUSH1 0x20 MUL PUSH1 0x20 ADD ADD MLOAD DUP6 DUP4 DUP2 MLOAD DUP2 LT PUSH2 0x140 JUMPI PUSH2 0x13F PUSH2 0x6E9 JUMP JUMPDEST JUMPDEST PUSH1 0x20 MUL PUSH1 0x20 ADD ADD MLOAD SUB PUSH2 0x151 JUMPI PUSH0 DUP1 REVERT JUMPDEST DUP1 PUSH1 0x1 ADD SWAP1 POP PUSH2 0x10A JUMP JUMPDEST POP DUP1 PUSH1 0x1 ADD SWAP1 POP PUSH2 0xE5 JUMP JUMPDEST POP JUMPDEST POP SWAP2 SWAP1 POP JUMP JUMPDEST PUSH1 0x60 PUSH0 DUP3 MLOAD SWAP1 POP PUSH1 0x1 DUP2 GT ISZERO PUSH2 0x1F5 JUMPI PUSH0 JUMPDEST DUP2 DUP2 LT ISZERO PUSH2 0x1F3 JUMPI PUSH0 JUMPDEST DUP3 DUP2 LT ISZERO PUSH2 0x1E7 JUMPI DUP1 DUP3 SUB ISZERO PUSH2 0x1DC JUMPI DUP5 DUP2 DUP2 MLOAD DUP2 LT PUSH2 0x1AF JUMPI PUSH2 0x1AE PUSH2 0x6E9 JUMP JUMPDEST JUMPDEST PUSH1 0x20 MUL PUSH1 0x20 ADD ADD MLOAD DUP6 DUP4 DUP2 MLOAD DUP2 LT PUSH2 0x1CA JUMPI PUSH2 0x1C9 PUSH2 0x6E9 JUMP JUMPDEST JUMPDEST PUSH1 0x20 MUL PUSH1 0x20 ADD ADD MLOAD SUB PUSH2 0x1DB JUMPI PUSH0 DUP1 REVERT JUMPDEST JUMPDEST DUP1 PUSH1 0x1 ADD SWAP1 POP PUSH2 0x18C JUMP JUMPDEST POP DUP1 PUSH1 0x1 ADD SWAP1 POP PUSH2 0x182 JUMP JUMPDEST POP JUMPDEST POP SWAP2 SWAP1 POP JUMP JUMPDEST PUSH1 0x60 PUSH0 DUP4 MLOAD SWAP1 POP PUSH0 DUP4 MLOAD SWAP1 POP PUSH0 DUP2 DUP4 PUSH2 0x214 SWAP2 SWAP1 PUSH2 0x683 JUMP JUMPDEST PUSH8 0xFFFFFFFFFFFFFFFF DUP2 GT ISZERO PUSH2 0x22D JUMPI PUSH2 0x22C PUSH2 0x353 JUMP JUMPDEST JUMPDEST PUSH1 0x40 MLOAD SWAP1 DUP1 DUP3 MSTORE DUP1 PUSH1 0x20 MUL PUSH1 0x20 ADD DUP3 ADD PUSH1 0x40 MSTORE DUP1 ISZERO PUSH2 0x25B JUMPI DUP2 PUSH1 0x20 ADD PUSH1 0x20 DUP3 MUL DUP1 CALLDATASIZE DUP4 CALLDATACOPY DUP1 DUP3 ADD SWAP2 POP POP SWAP1 POP JUMPDEST POP SWAP1 POP PUSH0 DUP1 JUMPDEST DUP5 DUP2 LT ISZERO PUSH2 0x320 JUMPI PUSH0 PUSH1 0x1 SWAP1 POP PUSH0 JUMPDEST DUP6 DUP2 LT ISZERO PUSH2 0x2C6 JUMPI DUP9 DUP2 DUP2 MLOAD DUP2 LT PUSH2 0x28B JUMPI PUSH2 0x28A PUSH2 0x6E9 JUMP JUMPDEST JUMPDEST PUSH1 0x20 MUL PUSH1 0x20 ADD ADD MLOAD DUP11 DUP5 DUP2 MLOAD DUP2 LT PUSH2 0x2A6 JUMPI PUSH2 0x2A5 PUSH2 0x6E9 JUMP JUMPDEST JUMPDEST PUSH1 0x20 MUL PUSH1 0x20 ADD ADD MLOAD SUB PUSH2 0x2BB JUMPI PUSH0 SWAP2 POP PUSH2 0x2C6 JUMP JUMPDEST DUP1 PUSH1 0x1 ADD SWAP1 POP PUSH2 0x270 JUMP JUMPDEST POP DUP1 ISZERO PUSH2 0x314 JUMPI DUP9 DUP3 DUP2 MLOAD DUP2 LT PUSH2 0x2E0 JUMPI PUSH2 0x2DF PUSH2 0x6E9 JUMP JUMPDEST JUMPDEST PUSH1 0x20 MUL PUSH1 0x20 ADD ADD MLOAD DUP5 DUP5 DUP2 MLOAD DUP2 LT PUSH2 0x2FB JUMPI PUSH2 0x2FA PUSH2 0x6E9 JUMP JUMPDEST JUMPDEST PUSH1 0x20 MUL PUSH1 0x20 ADD ADD DUP2 DUP2 MSTORE POP POP DUP3 PUSH2 0x311 SWAP1 PUSH2 0x716 JUMP JUMPDEST SWAP3 POP JUMPDEST POP DUP1 PUSH1 0x1 ADD SWAP1 POP PUSH2 0x261 JUMP JUMPDEST POP DUP2 SWAP5 POP POP POP POP POP SWAP3 SWAP2 POP POP JUMP JUMPDEST PUSH0 PUSH1 0x40 MLOAD SWAP1 POP SWAP1 JUMP JUMPDEST PUSH0 DUP1 REVERT JUMPDEST PUSH0 DUP1 REVERT JUMPDEST PUSH0 DUP1 REVERT JUMPDEST PUSH0 PUSH1 0x1F NOT PUSH1 0x1F DUP4 ADD AND SWAP1 POP SWAP2 SWAP1 POP JUMP JUMPDEST PUSH32 0x4E487B7100000000000000000000000000000000000000000000000000000000 PUSH0 MSTORE PUSH1 0x41 PUSH1 0x4 MSTORE PUSH1 0x24 PUSH0 REVERT JUMPDEST PUSH2 0x389 DUP3 PUSH2 0x343 JUMP JUMPDEST DUP2 ADD DUP2 DUP2 LT PUSH8 0xFFFFFFFFFFFFFFFF DUP3 GT OR ISZERO PUSH2 0x3A8 JUMPI PUSH2 0x3A7 PUSH2 0x353 JUMP JUMPDEST JUMPDEST DUP1 PUSH1 0x40 MSTORE POP POP POP JUMP JUMPDEST PUSH0 PUSH2 0x3BA PUSH2 0x32E JUMP JUMPDEST SWAP1 POP PUSH2 0x3C6 DUP3 DUP3 PUSH2 0x380 JUMP JUMPDEST SWAP2 SWAP1 POP JUMP JUMPDEST PUSH0 PUSH8 0xFFFFFFFFFFFFFFFF DUP3 GT ISZERO PUSH2 0x3E5 JUMPI PUSH2 0x3E4 PUSH2 0x353 JUMP JUMPDEST JUMPDEST PUSH1 0x20 DUP3 MUL SWAP1 POP PUSH1 0x20 DUP2 ADD SWAP1 POP SWAP2 SWAP1 POP JUMP JUMPDEST PUSH0 DUP1 REVERT JUMPDEST PUSH0 DUP2 SWAP1 POP SWAP2 SWAP1 POP JUMP JUMPDEST PUSH2 0x40C DUP2 PUSH2 0x3FA JUMP JUMPDEST DUP2 EQ PUSH2 0x416 JUMPI PUSH0 DUP1 REVERT JUMPDEST POP JUMP JUMPDEST PUSH0 DUP2 CALLDATALOAD SWAP1 POP PUSH2 0x427 DUP2 PUSH2 0x403 JUMP JUMPDEST SWAP3 SWAP2 POP POP JUMP JUMPDEST PUSH0 PUSH2 0x43F PUSH2 0x43A DUP5 PUSH2 0x3CB JUMP JUMPDEST PUSH2 0x3B1 JUMP JUMPDEST SWAP1 POP DUP1 DUP4 DUP3 MSTORE PUSH1 0x20 DUP3 ADD SWAP1 POP PUSH1 0x20 DUP5 MUL DUP4 ADD DUP6 DUP2 GT ISZERO PUSH2 0x462 JUMPI PUSH2 0x461 PUSH2 0x3F6 JUMP JUMPDEST JUMPDEST DUP4 JUMPDEST DUP2 DUP2 LT ISZERO PUSH2 0x48B JUMPI DUP1 PUSH2 0x477 DUP9 DUP3 PUSH2 0x419 JUMP JUMPDEST DUP5 MSTORE PUSH1 0x20 DUP5 ADD SWAP4 POP POP PUSH1 0x20 DUP2 ADD SWAP1 POP PUSH2 0x464 JUMP JUMPDEST POP POP POP SWAP4 SWAP3 POP POP POP JUMP JUMPDEST PUSH0 DUP3 PUSH1 0x1F DUP4 ADD SLT PUSH2 0x4A9 JUMPI PUSH2 0x4A8 PUSH2 0x33F JUMP JUMPDEST JUMPDEST DUP2 CALLDATALOAD PUSH2 0x4B9 DUP5 DUP3 PUSH1 0x20 DUP7 ADD PUSH2 0x42D JUMP JUMPDEST SWAP2 POP POP SWAP3 SWAP2 POP POP JUMP JUMPDEST PUSH0 PUSH1 0x20 DUP3 DUP5 SUB SLT ISZERO PUSH2 0x4D7 JUMPI PUSH2 0x4D6 PUSH2 0x337 JUMP JUMPDEST JUMPDEST PUSH0 DUP3 ADD CALLDATALOAD PUSH8 0xFFFFFFFFFFFFFFFF DUP2 GT ISZERO PUSH2 0x4F4 JUMPI PUSH2 0x4F3 PUSH2 0x33B JUMP JUMPDEST JUMPDEST PUSH2 0x500 DUP5 DUP3 DUP6 ADD PUSH2 0x495 JUMP JUMPDEST SWAP2 POP POP SWAP3 SWAP2 POP POP JUMP JUMPDEST PUSH0 DUP2 MLOAD SWAP1 POP SWAP2 SWAP1 POP JUMP JUMPDEST PUSH0 DUP3 DUP3 MSTORE PUSH1 0x20 DUP3 ADD SWAP1 POP SWAP3 SWAP2 POP POP JUMP JUMPDEST PUSH0 DUP2 SWAP1 POP PUSH1 0x20 DUP3 ADD SWAP1 POP SWAP2 SWAP1 POP JUMP JUMPDEST PUSH2 0x53B DUP2 PUSH2 0x3FA JUMP JUMPDEST DUP3 MSTORE POP POP JUMP JUMPDEST PUSH0 PUSH2 0x54C DUP4 DUP4 PUSH2 0x532 JUMP JUMPDEST PUSH1 0x20 DUP4 ADD SWAP1 POP SWAP3 SWAP2 POP POP JUMP JUMPDEST PUSH0 PUSH1 0x20 DUP3 ADD SWAP1 POP SWAP2 SWAP1 POP JUMP JUMPDEST PUSH0 PUSH2 0x56E DUP3 PUSH2 0x509 JUMP JUMPDEST PUSH2 0x578 DUP2 DUP6 PUSH2 0x513 JUMP JUMPDEST SWAP4 POP PUSH2 0x583 DUP4 PUSH2 0x523 JUMP JUMPDEST DUP1 PUSH0 JUMPDEST DUP4 DUP2 LT ISZERO PUSH2 0x5B3 JUMPI DUP2 MLOAD PUSH2 0x59A DUP9 DUP3 PUSH2 0x541 JUMP JUMPDEST SWAP8 POP PUSH2 0x5A5 DUP4 PUSH2 0x558 JUMP JUMPDEST SWAP3 POP POP PUSH1 0x1 DUP2 ADD SWAP1 POP PUSH2 0x586 JUMP JUMPDEST POP DUP6 SWAP4 POP POP POP POP SWAP3 SWAP2 POP POP JUMP JUMPDEST PUSH0 PUSH1 0x20 DUP3 ADD SWAP1 POP DUP2 DUP2 SUB PUSH0 DUP4 ADD MSTORE PUSH2 0x5D8 DUP2 DUP5 PUSH2 0x564 JUMP JUMPDEST SWAP1 POP SWAP3 SWAP2 POP POP JUMP JUMPDEST PUSH0 DUP1 PUSH1 0x40 DUP4 DUP6 SUB SLT ISZERO PUSH2 0x5F6 JUMPI PUSH2 0x5F5 PUSH2 0x337 JUMP JUMPDEST JUMPDEST PUSH0 DUP4 ADD CALLDATALOAD PUSH8 0xFFFFFFFFFFFFFFFF DUP2 GT ISZERO PUSH2 0x613 JUMPI PUSH2 0x612 PUSH2 0x33B JUMP JUMPDEST JUMPDEST PUSH2 0x61F DUP6 DUP3 DUP7 ADD PUSH2 0x495 JUMP JUMPDEST SWAP3 POP POP PUSH1 0x20 DUP4 ADD CALLDATALOAD PUSH8 0xFFFFFFFFFFFFFFFF DUP2 GT ISZERO PUSH2 0x640 JUMPI PUSH2 0x63F PUSH2 0x33B JUMP JUMPDEST JUMPDEST PUSH2 0x64C DUP6 DUP3 DUP7 ADD PUSH2 0x495 JUMP JUMPDEST SWAP2 POP POP SWAP3 POP SWAP3 SWAP1 POP JUMP JUMPDEST PUSH32 0x4E487B7100000000000000000000000000000000000000000000000000000000 PUSH0 MSTORE PUSH1 0x11 PUSH1 0x4 MSTORE PUSH1 0x24 PUSH0 REVERT JUMPDEST PUSH0 PUSH2 0x68D DUP3 PUSH2 0x3FA JUMP JUMPDEST SWAP2 POP PUSH2 0x698 DUP4 PUSH2 0x3FA JUMP JUMPDEST SWAP3 POP DUP3 DUP3 SUB SWAP1 POP DUP2 DUP2 GT ISZERO PUSH2 0x6B0 JUMPI PUSH2 0x6AF PUSH2 0x656 JUMP JUMPDEST JUMPDEST SWAP3 SWAP2 POP POP JUMP JUMPDEST PUSH0 PUSH2 0x6C0 DUP3 PUSH2 0x3FA JUMP JUMPDEST SWAP2 POP PUSH2 0x6CB DUP4 PUSH2 0x3FA JUMP JUMPDEST SWAP3 POP DUP3 DUP3 ADD SWAP1 POP DUP1 DUP3 GT ISZERO PUSH2 0x6E3 JUMPI PUSH2 0x6E2 PUSH2 0x656 JUMP JUMPDEST JUMPDEST SWAP3 SWAP2 POP POP JUMP JUMPDEST PUSH32 0x4E487B7100000000000000000000000000000000000000000000000000000000 PUSH0 MSTORE PUSH1 0x32 PUSH1 0x4 MSTORE PUSH1 0x24 PUSH0 REVERT JUMPDEST PUSH0 PUSH2 0x720 DUP3 PUSH2 0x3FA JUMP JUMPDEST SWAP2 POP PUSH32 0xFFFFFFFFFFFFFFFFFFFFFFFFFFFFFFFFFFFFFFFFFFFFFFFFFFFFFFFFFFFFFFFF DUP3 SUB PUSH2 0x752 JUMPI PUSH2 0x751 PUSH2 0x656 JUMP JUMPDEST JUMPDEST PUSH1 0x1 DUP3 ADD SWAP1 POP SWAP2 SWAP1 POP JUMP INVALID LOG2 PUSH5 0x6970667358 0x22 SLT KECCAK256 0x5D PUSH23 0xF2648082C7D9AF63F3682C26F4D81668A1504AD66023ED 0xDC PUSH15 0xB4D1C2B53664736F6C634300081600 CALLER "
				},
				"gasEstimates": {
					"creation": {
						"codeDepositCost": "387800",
						"executionCost": "422",
						"totalCost": "388222"
					},
					"external": {
						"_removeFromArray(uint256[],uint256[])": "infinite",
						"dupArrayCheck1(uint256[])": "infinite",
						"dupArrayCheck2(uint256[])": "infinite"
					}
				},
				"methodIdentifiers": {
					"_removeFromArray(uint256[],uint256[])": "b0e07abb",
					"dupArrayCheck1(uint256[])": "3b182234",
					"dupArrayCheck2(uint256[])": "5239e100"
				}
			},
			"storageLayout": {
				"storage": [],
				"types": null
			},
			"userdoc": {
				"kind": "user",
				"methods": {},
				"version": 1
			}
		}
	}
}