{
	"data": {
		"bytecode": {
			"linkReferences": {},
			"object": "608060405234801561000f575f80fd5b5060e28061001c5f395ff3fe6080604052348015600e575f80fd5b50600436106026575f3560e01c8063e13a771614602a575b5f80fd5b60306044565b604051603b91906095565b60405180910390f35b5f807f13649b2456f1b42fef0f0040b3aaeabcd21a76a0f3f5defd4f583839455116e85f1b90505f601490505f815f1b905080935050505090565b5f819050919050565b608f81607f565b82525050565b5f60208201905060a65f8301846088565b9291505056fea2646970667358221220718b33593a01277751b5cce6e934c6dbf0519af2800a1990ef5af62362f11e8f64736f6c63430008160033",
			"opcodes": "PUSH1 0x80 PUSH1 0x40 MSTORE CALLVALUE DUP1 ISZERO PUSH2 0xF JUMPI PUSH0 DUP1 REVERT JUMPDEST POP PUSH1 0xE2 DUP1 PUSH2 0x1C PUSH0 CODECOPY PUSH0 RETURN INVALID PUSH1 0x80 PUSH1 0x40 MSTORE CALLVALUE DUP1 ISZERO PUSH1 0xE JUMPI PUSH0 DUP1 REVERT JUMPDEST POP PUSH1 0x4 CALLDATASIZE LT PUSH1 0x26 JUMPI PUSH0 CALLDATALOAD PUSH1 0xE0 SHR DUP1 PUSH4 0xE13A7716 EQ PUSH1 0x2A JUMPI JUMPDEST PUSH0 DUP1 REVERT JUMPDEST PUSH1 0x30 PUSH1 0x44 JUMP JUMPDEST PUSH1 0x40 MLOAD PUSH1 0x3B SWAP2 SWAP1 PUSH1 0x95 JUMP JUMPDEST PUSH1 0x40 MLOAD DUP1 SWAP2 SUB SWAP1 RETURN JUMPDEST PUSH0 DUP1 PUSH32 0x13649B2456F1B42FEF0F0040B3AAEABCD21A76A0F3F5DEFD4F583839455116E8 PUSH0 SHL SWAP1 POP PUSH0 PUSH1 0x14 SWAP1 POP PUSH0 DUP2 PUSH0 SHL SWAP1 POP DUP1 SWAP4 POP POP POP POP SWAP1 JUMP JUMPDEST PUSH0 DUP2 SWAP1 POP SWAP2 SWAP1 POP JUMP JUMPDEST PUSH1 0x8F DUP2 PUSH1 0x7F JUMP JUMPDEST DUP3 MSTORE POP POP JUMP JUMPDEST PUSH0 PUSH1 0x20 DUP3 ADD SWAP1 POP PUSH1 0xA6 PUSH0 DUP4 ADD DUP5 PUSH1 0x88 JUMP JUMPDEST SWAP3 SWAP2 POP POP JUMP INVALID LOG2 PUSH5 0x6970667358 0x22 SLT KECCAK256 PUSH18 0x8B33593A01277751B5CCE6E934C6DBF0519A CALLCODE DUP1 EXP NOT SWAP1 0xEF GAS 0xF6 0x23 PUSH3 0xF11E8F PUSH5 0x736F6C6343 STOP ADDMOD AND STOP CALLER "
		},
		"gasEstimates": {
			"creation": {
				"codeDepositCost": "45200",
				"executionCost": "97",
				"totalCost": "45297"
			},
			"external": {
				"testReturn()": "357"
			}
		},
		"methodIdentifiers": {
			"testReturn()": "e13a7716"
		}
	},
	"abi": [
		{
			"inputs": [],
			"name": "testReturn",
			"outputs": [
				{
					"internalType": "bytes32",
					"name": "",
					"type": "bytes32"
				}
			],
			"stateMutability": "view",
			"type": "function"
		}
	]
}