{
	"data": {
		"bytecode": {
			"linkReferences": {},
			"object": "608060405234801561000f575f80fd5b506103988061001d5f395ff3fe608060405234801561000f575f80fd5b5060043610610034575f3560e01c80637108b38514610038578063fbd4b8cc14610056575b5f80fd5b610040610074565b60405161004d91906102ef565b60405180910390f35b61005e610084565b60405161006b91906102ef565b60405180910390f35b5f60605f81519050809250505090565b5f61008d6102b0565b600267ffffffffffffffff8111156100a8576100a7610308565b5b6040519080825280602002602001820160405280156100d65781602001602082028036833780820191505090505b50815f600481106100ea576100e9610335565b5b6020020181905250600367ffffffffffffffff81111561010d5761010c610308565b5b60405190808252806020026020018201604052801561013b5781602001602082028036833780820191505090505b50816001600481106101505761014f610335565b5b60200201819052506001815f6004811061016d5761016c610335565b5b60200201515f8151811061018457610183610335565b5b6020026020010181815250506002815f600481106101a5576101a4610335565b5b60200201516001815181106101bd576101bc610335565b5b6020026020010181815250506003816001600481106101df576101de610335565b5b60200201515f815181106101f6576101f5610335565b5b60200260200101818152505060048160016004811061021857610217610335565b5b60200201516001815181106102305761022f610335565b5b60200260200101818152505060058160016004811061025257610251610335565b5b602002015160028151811061026a57610269610335565b5b6020026020010181815250508060016004811061028a57610289610335565b5b60200201516002815181106102a2576102a1610335565b5b602002602001015191505090565b60405180608001604052806004905b60608152602001906001900390816102bf5790505090565b5f819050919050565b6102e9816102d7565b82525050565b5f6020820190506103025f8301846102e0565b92915050565b7f4e487b71000000000000000000000000000000000000000000000000000000005f52604160045260245ffd5b7f4e487b71000000000000000000000000000000000000000000000000000000005f52603260045260245ffdfea264697066735822122062f54ebc007884183896ba3fde20c5b26f0aed217f5a42d17c972f438c9e3cb964736f6c63430008160033",
			"opcodes": "PUSH1 0x80 PUSH1 0x40 MSTORE CALLVALUE DUP1 ISZERO PUSH2 0xF JUMPI PUSH0 DUP1 REVERT JUMPDEST POP PUSH2 0x398 DUP1 PUSH2 0x1D PUSH0 CODECOPY PUSH0 RETURN INVALID PUSH1 0x80 PUSH1 0x40 MSTORE CALLVALUE DUP1 ISZERO PUSH2 0xF JUMPI PUSH0 DUP1 REVERT JUMPDEST POP PUSH1 0x4 CALLDATASIZE LT PUSH2 0x34 JUMPI PUSH0 CALLDATALOAD PUSH1 0xE0 SHR DUP1 PUSH4 0x7108B385 EQ PUSH2 0x38 JUMPI DUP1 PUSH4 0xFBD4B8CC EQ PUSH2 0x56 JUMPI JUMPDEST PUSH0 DUP1 REVERT JUMPDEST PUSH2 0x40 PUSH2 0x74 JUMP JUMPDEST PUSH1 0x40 MLOAD PUSH2 0x4D SWAP2 SWAP1 PUSH2 0x2EF JUMP JUMPDEST PUSH1 0x40 MLOAD DUP1 SWAP2 SUB SWAP1 RETURN JUMPDEST PUSH2 0x5E PUSH2 0x84 JUMP JUMPDEST PUSH1 0x40 MLOAD PUSH2 0x6B SWAP2 SWAP1 PUSH2 0x2EF JUMP JUMPDEST PUSH1 0x40 MLOAD DUP1 SWAP2 SUB SWAP1 RETURN JUMPDEST PUSH0 PUSH1 0x60 PUSH0 DUP2 MLOAD SWAP1 POP DUP1 SWAP3 POP POP POP SWAP1 JUMP JUMPDEST PUSH0 PUSH2 0x8D PUSH2 0x2B0 JUMP JUMPDEST PUSH1 0x2 PUSH8 0xFFFFFFFFFFFFFFFF DUP2 GT ISZERO PUSH2 0xA8 JUMPI PUSH2 0xA7 PUSH2 0x308 JUMP JUMPDEST JUMPDEST PUSH1 0x40 MLOAD SWAP1 DUP1 DUP3 MSTORE DUP1 PUSH1 0x20 MUL PUSH1 0x20 ADD DUP3 ADD PUSH1 0x40 MSTORE DUP1 ISZERO PUSH2 0xD6 JUMPI DUP2 PUSH1 0x20 ADD PUSH1 0x20 DUP3 MUL DUP1 CALLDATASIZE DUP4 CALLDATACOPY DUP1 DUP3 ADD SWAP2 POP POP SWAP1 POP JUMPDEST POP DUP2 PUSH0 PUSH1 0x4 DUP2 LT PUSH2 0xEA JUMPI PUSH2 0xE9 PUSH2 0x335 JUMP JUMPDEST JUMPDEST PUSH1 0x20 MUL ADD DUP2 SWAP1 MSTORE POP PUSH1 0x3 PUSH8 0xFFFFFFFFFFFFFFFF DUP2 GT ISZERO PUSH2 0x10D JUMPI PUSH2 0x10C PUSH2 0x308 JUMP JUMPDEST JUMPDEST PUSH1 0x40 MLOAD SWAP1 DUP1 DUP3 MSTORE DUP1 PUSH1 0x20 MUL PUSH1 0x20 ADD DUP3 ADD PUSH1 0x40 MSTORE DUP1 ISZERO PUSH2 0x13B JUMPI DUP2 PUSH1 0x20 ADD PUSH1 0x20 DUP3 MUL DUP1 CALLDATASIZE DUP4 CALLDATACOPY DUP1 DUP3 ADD SWAP2 POP POP SWAP1 POP JUMPDEST POP DUP2 PUSH1 0x1 PUSH1 0x4 DUP2 LT PUSH2 0x150 JUMPI PUSH2 0x14F PUSH2 0x335 JUMP JUMPDEST JUMPDEST PUSH1 0x20 MUL ADD DUP2 SWAP1 MSTORE POP PUSH1 0x1 DUP2 PUSH0 PUSH1 0x4 DUP2 LT PUSH2 0x16D JUMPI PUSH2 0x16C PUSH2 0x335 JUMP JUMPDEST JUMPDEST PUSH1 0x20 MUL ADD MLOAD PUSH0 DUP2 MLOAD DUP2 LT PUSH2 0x184 JUMPI PUSH2 0x183 PUSH2 0x335 JUMP JUMPDEST JUMPDEST PUSH1 0x20 MUL PUSH1 0x20 ADD ADD DUP2 DUP2 MSTORE POP POP PUSH1 0x2 DUP2 PUSH0 PUSH1 0x4 DUP2 LT PUSH2 0x1A5 JUMPI PUSH2 0x1A4 PUSH2 0x335 JUMP JUMPDEST JUMPDEST PUSH1 0x20 MUL ADD MLOAD PUSH1 0x1 DUP2 MLOAD DUP2 LT PUSH2 0x1BD JUMPI PUSH2 0x1BC PUSH2 0x335 JUMP JUMPDEST JUMPDEST PUSH1 0x20 MUL PUSH1 0x20 ADD ADD DUP2 DUP2 MSTORE POP POP PUSH1 0x3 DUP2 PUSH1 0x1 PUSH1 0x4 DUP2 LT PUSH2 0x1DF JUMPI PUSH2 0x1DE PUSH2 0x335 JUMP JUMPDEST JUMPDEST PUSH1 0x20 MUL ADD MLOAD PUSH0 DUP2 MLOAD DUP2 LT PUSH2 0x1F6 JUMPI PUSH2 0x1F5 PUSH2 0x335 JUMP JUMPDEST JUMPDEST PUSH1 0x20 MUL PUSH1 0x20 ADD ADD DUP2 DUP2 MSTORE POP POP PUSH1 0x4 DUP2 PUSH1 0x1 PUSH1 0x4 DUP2 LT PUSH2 0x218 JUMPI PUSH2 0x217 PUSH2 0x335 JUMP JUMPDEST JUMPDEST PUSH1 0x20 MUL ADD MLOAD PUSH1 0x1 DUP2 MLOAD DUP2 LT PUSH2 0x230 JUMPI PUSH2 0x22F PUSH2 0x335 JUMP JUMPDEST JUMPDEST PUSH1 0x20 MUL PUSH1 0x20 ADD ADD DUP2 DUP2 MSTORE POP POP PUSH1 0x5 DUP2 PUSH1 0x1 PUSH1 0x4 DUP2 LT PUSH2 0x252 JUMPI PUSH2 0x251 PUSH2 0x335 JUMP JUMPDEST JUMPDEST PUSH1 0x20 MUL ADD MLOAD PUSH1 0x2 DUP2 MLOAD DUP2 LT PUSH2 0x26A JUMPI PUSH2 0x269 PUSH2 0x335 JUMP JUMPDEST JUMPDEST PUSH1 0x20 MUL PUSH1 0x20 ADD ADD DUP2 DUP2 MSTORE POP POP DUP1 PUSH1 0x1 PUSH1 0x4 DUP2 LT PUSH2 0x28A JUMPI PUSH2 0x289 PUSH2 0x335 JUMP JUMPDEST JUMPDEST PUSH1 0x20 MUL ADD MLOAD PUSH1 0x2 DUP2 MLOAD DUP2 LT PUSH2 0x2A2 JUMPI PUSH2 0x2A1 PUSH2 0x335 JUMP JUMPDEST JUMPDEST PUSH1 0x20 MUL PUSH1 0x20 ADD ADD MLOAD SWAP2 POP POP SWAP1 JUMP JUMPDEST PUSH1 0x40 MLOAD DUP1 PUSH1 0x80 ADD PUSH1 0x40 MSTORE DUP1 PUSH1 0x4 SWAP1 JUMPDEST PUSH1 0x60 DUP2 MSTORE PUSH1 0x20 ADD SWAP1 PUSH1 0x1 SWAP1 SUB SWAP1 DUP2 PUSH2 0x2BF JUMPI SWAP1 POP POP SWAP1 JUMP JUMPDEST PUSH0 DUP2 SWAP1 POP SWAP2 SWAP1 POP JUMP JUMPDEST PUSH2 0x2E9 DUP2 PUSH2 0x2D7 JUMP JUMPDEST DUP3 MSTORE POP POP JUMP JUMPDEST PUSH0 PUSH1 0x20 DUP3 ADD SWAP1 POP PUSH2 0x302 PUSH0 DUP4 ADD DUP5 PUSH2 0x2E0 JUMP JUMPDEST SWAP3 SWAP2 POP POP JUMP JUMPDEST PUSH32 0x4E487B7100000000000000000000000000000000000000000000000000000000 PUSH0 MSTORE PUSH1 0x41 PUSH1 0x4 MSTORE PUSH1 0x24 PUSH0 REVERT JUMPDEST PUSH32 0x4E487B7100000000000000000000000000000000000000000000000000000000 PUSH0 MSTORE PUSH1 0x32 PUSH1 0x4 MSTORE PUSH1 0x24 PUSH0 REVERT INVALID LOG2 PUSH5 0x6970667358 0x22 SLT KECCAK256 PUSH3 0xF54EBC STOP PUSH25 0x84183896BA3FDE20C5B26F0AED217F5A42D17C972F438C9E3C 0xB9 PUSH5 0x736F6C6343 STOP ADDMOD AND STOP CALLER "
		},
		"gasEstimates": {
			"creation": {
				"codeDepositCost": "184000",
				"executionCost": "224",
				"totalCost": "184224"
			},
			"external": {
				"claimMultiple()": "330",
				"testNested()": "infinite"
			}
		},
		"methodIdentifiers": {
			"claimMultiple()": "7108b385",
			"testNested()": "fbd4b8cc"
		}
	},
	"abi": [
		{
			"inputs": [],
			"name": "claimMultiple",
			"outputs": [
				{
					"internalType": "uint256",
					"name": "",
					"type": "uint256"
				}
			],
			"stateMutability": "view",
			"type": "function"
		},
		{
			"inputs": [],
			"name": "testNested",
			"outputs": [
				{
					"internalType": "uint256",
					"name": "",
					"type": "uint256"
				}
			],
			"stateMutability": "pure",
			"type": "function"
		}
	]
}