{
	"data": {
		"bytecode": {
			"linkReferences": {},
			"object": "608060405234801561000f575f80fd5b506104308061001d5f395ff3fe608060405234801561000f575f80fd5b5060043610610086575f3560e01c8063b10cbd0c11610059578063b10cbd0c146100da578063b3bcfa82146100fa578063d2178b0814610104578063f3571f291461012257610086565b806306661abd1461008a578063371303c0146100a85780636d4ce63c146100b257806371c9f31c146100d0575b5f80fd5b610092610142565b60405161009f9190610319565b60405180910390f35b6100b0610147565b005b6100ba610161565b6040516100c79190610319565b60405180910390f35b6100d8610169565b005b6100e2610183565b6040516100f193929190610332565b60405180910390f35b610102610233565b005b61010c61024d565b6040516101199190610319565b60405180910390f35b61012a610256565b60405161013993929190610332565b60405180910390f35b5f5481565b60015f808282546101589190610394565b92505081905550565b5f8054905090565b6001805f82825461017a9190610394565b92505081905550565b5f805f805a90505f3390508060025f6101000a81548173ffffffffffffffffffffffffffffffffffffffff021916908373ffffffffffffffffffffffffffffffffffffffff1602179055508060035f6101000a81548173ffffffffffffffffffffffffffffffffffffffff021916908373ffffffffffffffffffffffffffffffffffffffff1602179055505f5a90505f818461021f91906103c7565b905083828296509650965050505050909192565b60015f8082825461024491906103c7565b92505081905550565b5f600154905090565b5f805f805a90503360025f6101000a81548173ffffffffffffffffffffffffffffffffffffffff021916908373ffffffffffffffffffffffffffffffffffffffff1602179055503360035f6101000a81548173ffffffffffffffffffffffffffffffffffffffff021916908373ffffffffffffffffffffffffffffffffffffffff1602179055505f5a90505f81836102ee91906103c7565b9050828282955095509550505050909192565b5f819050919050565b61031381610301565b82525050565b5f60208201905061032c5f83018461030a565b92915050565b5f6060820190506103455f83018661030a565b610352602083018561030a565b61035f604083018461030a565b949350505050565b7f4e487b71000000000000000000000000000000000000000000000000000000005f52601160045260245ffd5b5f61039e82610301565b91506103a983610301565b92508282019050808211156103c1576103c0610367565b5b92915050565b5f6103d182610301565b91506103dc83610301565b92508282039050818111156103f4576103f3610367565b5b9291505056fea26469706673582212205cecdd3ebe4c331fd9548a65f7779d61ddbe68e3776c78bfe8c365a1dea51fe964736f6c63430008160033",
			"opcodes": "PUSH1 0x80 PUSH1 0x40 MSTORE CALLVALUE DUP1 ISZERO PUSH2 0xF JUMPI PUSH0 DUP1 REVERT JUMPDEST POP PUSH2 0x430 DUP1 PUSH2 0x1D PUSH0 CODECOPY PUSH0 RETURN INVALID PUSH1 0x80 PUSH1 0x40 MSTORE CALLVALUE DUP1 ISZERO PUSH2 0xF JUMPI PUSH0 DUP1 REVERT JUMPDEST POP PUSH1 0x4 CALLDATASIZE LT PUSH2 0x86 JUMPI PUSH0 CALLDATALOAD PUSH1 0xE0 SHR DUP1 PUSH4 0xB10CBD0C GT PUSH2 0x59 JUMPI DUP1 PUSH4 0xB10CBD0C EQ PUSH2 0xDA JUMPI DUP1 PUSH4 0xB3BCFA82 EQ PUSH2 0xFA JUMPI DUP1 PUSH4 0xD2178B08 EQ PUSH2 0x104 JUMPI DUP1 PUSH4 0xF3571F29 EQ PUSH2 0x122 JUMPI PUSH2 0x86 JUMP JUMPDEST DUP1 PUSH4 0x6661ABD EQ PUSH2 0x8A JUMPI DUP1 PUSH4 0x371303C0 EQ PUSH2 0xA8 JUMPI DUP1 PUSH4 0x6D4CE63C EQ PUSH2 0xB2 JUMPI DUP1 PUSH4 0x71C9F31C EQ PUSH2 0xD0 JUMPI JUMPDEST PUSH0 DUP1 REVERT JUMPDEST PUSH2 0x92 PUSH2 0x142 JUMP JUMPDEST PUSH1 0x40 MLOAD PUSH2 0x9F SWAP2 SWAP1 PUSH2 0x319 JUMP JUMPDEST PUSH1 0x40 MLOAD DUP1 SWAP2 SUB SWAP1 RETURN JUMPDEST PUSH2 0xB0 PUSH2 0x147 JUMP JUMPDEST STOP JUMPDEST PUSH2 0xBA PUSH2 0x161 JUMP JUMPDEST PUSH1 0x40 MLOAD PUSH2 0xC7 SWAP2 SWAP1 PUSH2 0x319 JUMP JUMPDEST PUSH1 0x40 MLOAD DUP1 SWAP2 SUB SWAP1 RETURN JUMPDEST PUSH2 0xD8 PUSH2 0x169 JUMP JUMPDEST STOP JUMPDEST PUSH2 0xE2 PUSH2 0x183 JUMP JUMPDEST PUSH1 0x40 MLOAD PUSH2 0xF1 SWAP4 SWAP3 SWAP2 SWAP1 PUSH2 0x332 JUMP JUMPDEST PUSH1 0x40 MLOAD DUP1 SWAP2 SUB SWAP1 RETURN JUMPDEST PUSH2 0x102 PUSH2 0x233 JUMP JUMPDEST STOP JUMPDEST PUSH2 0x10C PUSH2 0x24D JUMP JUMPDEST PUSH1 0x40 MLOAD PUSH2 0x119 SWAP2 SWAP1 PUSH2 0x319 JUMP JUMPDEST PUSH1 0x40 MLOAD DUP1 SWAP2 SUB SWAP1 RETURN JUMPDEST PUSH2 0x12A PUSH2 0x256 JUMP JUMPDEST PUSH1 0x40 MLOAD PUSH2 0x139 SWAP4 SWAP3 SWAP2 SWAP1 PUSH2 0x332 JUMP JUMPDEST PUSH1 0x40 MLOAD DUP1 SWAP2 SUB SWAP1 RETURN JUMPDEST PUSH0 SLOAD DUP2 JUMP JUMPDEST PUSH1 0x1 PUSH0 DUP1 DUP3 DUP3 SLOAD PUSH2 0x158 SWAP2 SWAP1 PUSH2 0x394 JUMP JUMPDEST SWAP3 POP POP DUP2 SWAP1 SSTORE POP JUMP JUMPDEST PUSH0 DUP1 SLOAD SWAP1 POP SWAP1 JUMP JUMPDEST PUSH1 0x1 DUP1 PUSH0 DUP3 DUP3 SLOAD PUSH2 0x17A SWAP2 SWAP1 PUSH2 0x394 JUMP JUMPDEST SWAP3 POP POP DUP2 SWAP1 SSTORE POP JUMP JUMPDEST PUSH0 DUP1 PUSH0 DUP1 GAS SWAP1 POP PUSH0 CALLER SWAP1 POP DUP1 PUSH1 0x2 PUSH0 PUSH2 0x100 EXP DUP2 SLOAD DUP2 PUSH20 0xFFFFFFFFFFFFFFFFFFFFFFFFFFFFFFFFFFFFFFFF MUL NOT AND SWAP1 DUP4 PUSH20 0xFFFFFFFFFFFFFFFFFFFFFFFFFFFFFFFFFFFFFFFF AND MUL OR SWAP1 SSTORE POP DUP1 PUSH1 0x3 PUSH0 PUSH2 0x100 EXP DUP2 SLOAD DUP2 PUSH20 0xFFFFFFFFFFFFFFFFFFFFFFFFFFFFFFFFFFFFFFFF MUL NOT AND SWAP1 DUP4 PUSH20 0xFFFFFFFFFFFFFFFFFFFFFFFFFFFFFFFFFFFFFFFF AND MUL OR SWAP1 SSTORE POP PUSH0 GAS SWAP1 POP PUSH0 DUP2 DUP5 PUSH2 0x21F SWAP2 SWAP1 PUSH2 0x3C7 JUMP JUMPDEST SWAP1 POP DUP4 DUP3 DUP3 SWAP7 POP SWAP7 POP SWAP7 POP POP POP POP POP SWAP1 SWAP2 SWAP3 JUMP JUMPDEST PUSH1 0x1 PUSH0 DUP1 DUP3 DUP3 SLOAD PUSH2 0x244 SWAP2 SWAP1 PUSH2 0x3C7 JUMP JUMPDEST SWAP3 POP POP DUP2 SWAP1 SSTORE POP JUMP JUMPDEST PUSH0 PUSH1 0x1 SLOAD SWAP1 POP SWAP1 JUMP JUMPDEST PUSH0 DUP1 PUSH0 DUP1 GAS SWAP1 POP CALLER PUSH1 0x2 PUSH0 PUSH2 0x100 EXP DUP2 SLOAD DUP2 PUSH20 0xFFFFFFFFFFFFFFFFFFFFFFFFFFFFFFFFFFFFFFFF MUL NOT AND SWAP1 DUP4 PUSH20 0xFFFFFFFFFFFFFFFFFFFFFFFFFFFFFFFFFFFFFFFF AND MUL OR SWAP1 SSTORE POP CALLER PUSH1 0x3 PUSH0 PUSH2 0x100 EXP DUP2 SLOAD DUP2 PUSH20 0xFFFFFFFFFFFFFFFFFFFFFFFFFFFFFFFFFFFFFFFF MUL NOT AND SWAP1 DUP4 PUSH20 0xFFFFFFFFFFFFFFFFFFFFFFFFFFFFFFFFFFFFFFFF AND MUL OR SWAP1 SSTORE POP PUSH0 GAS SWAP1 POP PUSH0 DUP2 DUP4 PUSH2 0x2EE SWAP2 SWAP1 PUSH2 0x3C7 JUMP JUMPDEST SWAP1 POP DUP3 DUP3 DUP3 SWAP6 POP SWAP6 POP SWAP6 POP POP POP POP SWAP1 SWAP2 SWAP3 JUMP JUMPDEST PUSH0 DUP2 SWAP1 POP SWAP2 SWAP1 POP JUMP JUMPDEST PUSH2 0x313 DUP2 PUSH2 0x301 JUMP JUMPDEST DUP3 MSTORE POP POP JUMP JUMPDEST PUSH0 PUSH1 0x20 DUP3 ADD SWAP1 POP PUSH2 0x32C PUSH0 DUP4 ADD DUP5 PUSH2 0x30A JUMP JUMPDEST SWAP3 SWAP2 POP POP JUMP JUMPDEST PUSH0 PUSH1 0x60 DUP3 ADD SWAP1 POP PUSH2 0x345 PUSH0 DUP4 ADD DUP7 PUSH2 0x30A JUMP JUMPDEST PUSH2 0x352 PUSH1 0x20 DUP4 ADD DUP6 PUSH2 0x30A JUMP JUMPDEST PUSH2 0x35F PUSH1 0x40 DUP4 ADD DUP5 PUSH2 0x30A JUMP JUMPDEST SWAP5 SWAP4 POP POP POP POP JUMP JUMPDEST PUSH32 0x4E487B7100000000000000000000000000000000000000000000000000000000 PUSH0 MSTORE PUSH1 0x11 PUSH1 0x4 MSTORE PUSH1 0x24 PUSH0 REVERT JUMPDEST PUSH0 PUSH2 0x39E DUP3 PUSH2 0x301 JUMP JUMPDEST SWAP2 POP PUSH2 0x3A9 DUP4 PUSH2 0x301 JUMP JUMPDEST SWAP3 POP DUP3 DUP3 ADD SWAP1 POP DUP1 DUP3 GT ISZERO PUSH2 0x3C1 JUMPI PUSH2 0x3C0 PUSH2 0x367 JUMP JUMPDEST JUMPDEST SWAP3 SWAP2 POP POP JUMP JUMPDEST PUSH0 PUSH2 0x3D1 DUP3 PUSH2 0x301 JUMP JUMPDEST SWAP2 POP PUSH2 0x3DC DUP4 PUSH2 0x301 JUMP JUMPDEST SWAP3 POP DUP3 DUP3 SUB SWAP1 POP DUP2 DUP2 GT ISZERO PUSH2 0x3F4 JUMPI PUSH2 0x3F3 PUSH2 0x367 JUMP JUMPDEST JUMPDEST SWAP3 SWAP2 POP POP JUMP INVALID LOG2 PUSH5 0x6970667358 0x22 SLT KECCAK256 0x5C 0xEC 0xDD RETURNDATACOPY 0xBE 0x4C CALLER 0x1F 0xD9 SLOAD DUP11 PUSH6 0xF7779D61DDBE PUSH9 0xE3776C78BFE8C365A1 0xDE 0xA5 0x1F 0xE9 PUSH5 0x736F6C6343 STOP ADDMOD AND STOP CALLER "
		},
		"gasEstimates": {
			"creation": {
				"codeDepositCost": "214400",
				"executionCost": "255",
				"totalCost": "214655"
			},
			"external": {
				"count()": "2425",
				"dec()": "infinite",
				"get()": "2477",
				"get2()": "2476",
				"inc()": "infinite",
				"inc2()": "infinite",
				"msg1()": "infinite",
				"msg2()": "infinite"
			}
		},
		"methodIdentifiers": {
			"count()": "06661abd",
			"dec()": "b3bcfa82",
			"get()": "6d4ce63c",
			"get2()": "d2178b08",
			"inc()": "371303c0",
			"inc2()": "71c9f31c",
			"msg1()": "f3571f29",
			"msg2()": "b10cbd0c"
		}
	},
	"abi": [
		{
			"inputs": [],
			"name": "count",
			"outputs": [
				{
					"internalType": "uint256",
					"name": "",
					"type": "uint256"
				}
			],
			"stateMutability": "view",
			"type": "function"
		},
		{
			"inputs": [],
			"name": "dec",
			"outputs": [],
			"stateMutability": "nonpayable",
			"type": "function"
		},
		{
			"inputs": [],
			"name": "get",
			"outputs": [
				{
					"internalType": "uint256",
					"name": "",
					"type": "uint256"
				}
			],
			"stateMutability": "view",
			"type": "function"
		},
		{
			"inputs": [],
			"name": "get2",
			"outputs": [
				{
					"internalType": "uint256",
					"name": "",
					"type": "uint256"
				}
			],
			"stateMutability": "view",
			"type": "function"
		},
		{
			"inputs": [],
			"name": "inc",
			"outputs": [],
			"stateMutability": "nonpayable",
			"type": "function"
		},
		{
			"inputs": [],
			"name": "inc2",
			"outputs": [],
			"stateMutability": "nonpayable",
			"type": "function"
		},
		{
			"inputs": [],
			"name": "msg1",
			"outputs": [
				{
					"internalType": "uint256",
					"name": "",
					"type": "uint256"
				},
				{
					"internalType": "uint256",
					"name": "",
					"type": "uint256"
				},
				{
					"internalType": "uint256",
					"name": "",
					"type": "uint256"
				}
			],
			"stateMutability": "nonpayable",
			"type": "function"
		},
		{
			"inputs": [],
			"name": "msg2",
			"outputs": [
				{
					"internalType": "uint256",
					"name": "",
					"type": "uint256"
				},
				{
					"internalType": "uint256",
					"name": "",
					"type": "uint256"
				},
				{
					"internalType": "uint256",
					"name": "",
					"type": "uint256"
				}
			],
			"stateMutability": "nonpayable",
			"type": "function"
		}
	]
}