{
	"data": {
		"bytecode": {
			"linkReferences": {},
			"object": "608060405234801561000f575f80fd5b506104dc8061001d5f395ff3fe608060405234801561000f575f80fd5b5060043610610029575f3560e01c806342011ac91461002d575b5f80fd5b61003561004c565b60405161004392919061022b565b60405180910390f35b5f60605f600267ffffffffffffffff81111561006b5761006a610259565b5b6040519080825280602002602001820160405280156100995781602001602082028036833780820191505090505b5090506001815f815181106100b1576100b0610286565b5b6020026020010181815250506002816001815181106100d3576100d2610286565b5b6020026020010181815250505f33826040516020016100f392919061022b565b60405160208183030381529060405290505f808280602001905181019061011a919061044c565b91509150818195509550505050509091565b5f73ffffffffffffffffffffffffffffffffffffffff82169050919050565b5f6101558261012c565b9050919050565b6101658161014b565b82525050565b5f81519050919050565b5f82825260208201905092915050565b5f819050602082019050919050565b5f819050919050565b6101a681610194565b82525050565b5f6101b7838361019d565b60208301905092915050565b5f602082019050919050565b5f6101d98261016b565b6101e38185610175565b93506101ee83610185565b805f5b8381101561021e57815161020588826101ac565b9750610210836101c3565b9250506001810190506101f1565b5085935050505092915050565b5f60408201905061023e5f83018561015c565b818103602083015261025081846101cf565b90509392505050565b7f4e487b71000000000000000000000000000000000000000000000000000000005f52604160045260245ffd5b7f4e487b71000000000000000000000000000000000000000000000000000000005f52603260045260245ffd5b5f604051905090565b5f80fd5b5f80fd5b5f6102ce8261012c565b9050919050565b6102de816102c4565b81146102e8575f80fd5b50565b5f815190506102f9816102d5565b92915050565b5f80fd5b5f601f19601f8301169050919050565b61031c82610303565b810181811067ffffffffffffffff8211171561033b5761033a610259565b5b80604052505050565b5f61034d6102b3565b90506103598282610313565b919050565b5f67ffffffffffffffff82111561037857610377610259565b5b602082029050602081019050919050565b5f80fd5b61039681610194565b81146103a0575f80fd5b50565b5f815190506103b18161038d565b92915050565b5f6103c96103c48461035e565b610344565b905080838252602082019050602084028301858111156103ec576103eb610389565b5b835b81811015610415578061040188826103a3565b8452602084019350506020810190506103ee565b5050509392505050565b5f82601f830112610433576104326102ff565b5b81516104438482602086016103b7565b91505092915050565b5f8060408385031215610462576104616102bc565b5b5f61046f858286016102eb565b925050602083015167ffffffffffffffff8111156104905761048f6102c0565b5b61049c8582860161041f565b915050925092905056fea26469706673582212202c9189951bf21a6e6873515b8e57661c58b187db49c3fb9fc707a8efd71602e364736f6c63430008160033",
			"opcodes": "PUSH1 0x80 PUSH1 0x40 MSTORE CALLVALUE DUP1 ISZERO PUSH2 0xF JUMPI PUSH0 DUP1 REVERT JUMPDEST POP PUSH2 0x4DC DUP1 PUSH2 0x1D PUSH0 CODECOPY PUSH0 RETURN INVALID PUSH1 0x80 PUSH1 0x40 MSTORE CALLVALUE DUP1 ISZERO PUSH2 0xF JUMPI PUSH0 DUP1 REVERT JUMPDEST POP PUSH1 0x4 CALLDATASIZE LT PUSH2 0x29 JUMPI PUSH0 CALLDATALOAD PUSH1 0xE0 SHR DUP1 PUSH4 0x42011AC9 EQ PUSH2 0x2D JUMPI JUMPDEST PUSH0 DUP1 REVERT JUMPDEST PUSH2 0x35 PUSH2 0x4C JUMP JUMPDEST PUSH1 0x40 MLOAD PUSH2 0x43 SWAP3 SWAP2 SWAP1 PUSH2 0x22B JUMP JUMPDEST PUSH1 0x40 MLOAD DUP1 SWAP2 SUB SWAP1 RETURN JUMPDEST PUSH0 PUSH1 0x60 PUSH0 PUSH1 0x2 PUSH8 0xFFFFFFFFFFFFFFFF DUP2 GT ISZERO PUSH2 0x6B JUMPI PUSH2 0x6A PUSH2 0x259 JUMP JUMPDEST JUMPDEST PUSH1 0x40 MLOAD SWAP1 DUP1 DUP3 MSTORE DUP1 PUSH1 0x20 MUL PUSH1 0x20 ADD DUP3 ADD PUSH1 0x40 MSTORE DUP1 ISZERO PUSH2 0x99 JUMPI DUP2 PUSH1 0x20 ADD PUSH1 0x20 DUP3 MUL DUP1 CALLDATASIZE DUP4 CALLDATACOPY DUP1 DUP3 ADD SWAP2 POP POP SWAP1 POP JUMPDEST POP SWAP1 POP PUSH1 0x1 DUP2 PUSH0 DUP2 MLOAD DUP2 LT PUSH2 0xB1 JUMPI PUSH2 0xB0 PUSH2 0x286 JUMP JUMPDEST JUMPDEST PUSH1 0x20 MUL PUSH1 0x20 ADD ADD DUP2 DUP2 MSTORE POP POP PUSH1 0x2 DUP2 PUSH1 0x1 DUP2 MLOAD DUP2 LT PUSH2 0xD3 JUMPI PUSH2 0xD2 PUSH2 0x286 JUMP JUMPDEST JUMPDEST PUSH1 0x20 MUL PUSH1 0x20 ADD ADD DUP2 DUP2 MSTORE POP POP PUSH0 CALLER DUP3 PUSH1 0x40 MLOAD PUSH1 0x20 ADD PUSH2 0xF3 SWAP3 SWAP2 SWAP1 PUSH2 0x22B JUMP JUMPDEST PUSH1 0x40 MLOAD PUSH1 0x20 DUP2 DUP4 SUB SUB DUP2 MSTORE SWAP1 PUSH1 0x40 MSTORE SWAP1 POP PUSH0 DUP1 DUP3 DUP1 PUSH1 0x20 ADD SWAP1 MLOAD DUP2 ADD SWAP1 PUSH2 0x11A SWAP2 SWAP1 PUSH2 0x44C JUMP JUMPDEST SWAP2 POP SWAP2 POP DUP2 DUP2 SWAP6 POP SWAP6 POP POP POP POP POP SWAP1 SWAP2 JUMP JUMPDEST PUSH0 PUSH20 0xFFFFFFFFFFFFFFFFFFFFFFFFFFFFFFFFFFFFFFFF DUP3 AND SWAP1 POP SWAP2 SWAP1 POP JUMP JUMPDEST PUSH0 PUSH2 0x155 DUP3 PUSH2 0x12C JUMP JUMPDEST SWAP1 POP SWAP2 SWAP1 POP JUMP JUMPDEST PUSH2 0x165 DUP2 PUSH2 0x14B JUMP JUMPDEST DUP3 MSTORE POP POP JUMP JUMPDEST PUSH0 DUP2 MLOAD SWAP1 POP SWAP2 SWAP1 POP JUMP JUMPDEST PUSH0 DUP3 DUP3 MSTORE PUSH1 0x20 DUP3 ADD SWAP1 POP SWAP3 SWAP2 POP POP JUMP JUMPDEST PUSH0 DUP2 SWAP1 POP PUSH1 0x20 DUP3 ADD SWAP1 POP SWAP2 SWAP1 POP JUMP JUMPDEST PUSH0 DUP2 SWAP1 POP SWAP2 SWAP1 POP JUMP JUMPDEST PUSH2 0x1A6 DUP2 PUSH2 0x194 JUMP JUMPDEST DUP3 MSTORE POP POP JUMP JUMPDEST PUSH0 PUSH2 0x1B7 DUP4 DUP4 PUSH2 0x19D JUMP JUMPDEST PUSH1 0x20 DUP4 ADD SWAP1 POP SWAP3 SWAP2 POP POP JUMP JUMPDEST PUSH0 PUSH1 0x20 DUP3 ADD SWAP1 POP SWAP2 SWAP1 POP JUMP JUMPDEST PUSH0 PUSH2 0x1D9 DUP3 PUSH2 0x16B JUMP JUMPDEST PUSH2 0x1E3 DUP2 DUP6 PUSH2 0x175 JUMP JUMPDEST SWAP4 POP PUSH2 0x1EE DUP4 PUSH2 0x185 JUMP JUMPDEST DUP1 PUSH0 JUMPDEST DUP4 DUP2 LT ISZERO PUSH2 0x21E JUMPI DUP2 MLOAD PUSH2 0x205 DUP9 DUP3 PUSH2 0x1AC JUMP JUMPDEST SWAP8 POP PUSH2 0x210 DUP4 PUSH2 0x1C3 JUMP JUMPDEST SWAP3 POP POP PUSH1 0x1 DUP2 ADD SWAP1 POP PUSH2 0x1F1 JUMP JUMPDEST POP DUP6 SWAP4 POP POP POP POP SWAP3 SWAP2 POP POP JUMP JUMPDEST PUSH0 PUSH1 0x40 DUP3 ADD SWAP1 POP PUSH2 0x23E PUSH0 DUP4 ADD DUP6 PUSH2 0x15C JUMP JUMPDEST DUP2 DUP2 SUB PUSH1 0x20 DUP4 ADD MSTORE PUSH2 0x250 DUP2 DUP5 PUSH2 0x1CF JUMP JUMPDEST SWAP1 POP SWAP4 SWAP3 POP POP POP JUMP JUMPDEST PUSH32 0x4E487B7100000000000000000000000000000000000000000000000000000000 PUSH0 MSTORE PUSH1 0x41 PUSH1 0x4 MSTORE PUSH1 0x24 PUSH0 REVERT JUMPDEST PUSH32 0x4E487B7100000000000000000000000000000000000000000000000000000000 PUSH0 MSTORE PUSH1 0x32 PUSH1 0x4 MSTORE PUSH1 0x24 PUSH0 REVERT JUMPDEST PUSH0 PUSH1 0x40 MLOAD SWAP1 POP SWAP1 JUMP JUMPDEST PUSH0 DUP1 REVERT JUMPDEST PUSH0 DUP1 REVERT JUMPDEST PUSH0 PUSH2 0x2CE DUP3 PUSH2 0x12C JUMP JUMPDEST SWAP1 POP SWAP2 SWAP1 POP JUMP JUMPDEST PUSH2 0x2DE DUP2 PUSH2 0x2C4 JUMP JUMPDEST DUP2 EQ PUSH2 0x2E8 JUMPI PUSH0 DUP1 REVERT JUMPDEST POP JUMP JUMPDEST PUSH0 DUP2 MLOAD SWAP1 POP PUSH2 0x2F9 DUP2 PUSH2 0x2D5 JUMP JUMPDEST SWAP3 SWAP2 POP POP JUMP JUMPDEST PUSH0 DUP1 REVERT JUMPDEST PUSH0 PUSH1 0x1F NOT PUSH1 0x1F DUP4 ADD AND SWAP1 POP SWAP2 SWAP1 POP JUMP JUMPDEST PUSH2 0x31C DUP3 PUSH2 0x303 JUMP JUMPDEST DUP2 ADD DUP2 DUP2 LT PUSH8 0xFFFFFFFFFFFFFFFF DUP3 GT OR ISZERO PUSH2 0x33B JUMPI PUSH2 0x33A PUSH2 0x259 JUMP JUMPDEST JUMPDEST DUP1 PUSH1 0x40 MSTORE POP POP POP JUMP JUMPDEST PUSH0 PUSH2 0x34D PUSH2 0x2B3 JUMP JUMPDEST SWAP1 POP PUSH2 0x359 DUP3 DUP3 PUSH2 0x313 JUMP JUMPDEST SWAP2 SWAP1 POP JUMP JUMPDEST PUSH0 PUSH8 0xFFFFFFFFFFFFFFFF DUP3 GT ISZERO PUSH2 0x378 JUMPI PUSH2 0x377 PUSH2 0x259 JUMP JUMPDEST JUMPDEST PUSH1 0x20 DUP3 MUL SWAP1 POP PUSH1 0x20 DUP2 ADD SWAP1 POP SWAP2 SWAP1 POP JUMP JUMPDEST PUSH0 DUP1 REVERT JUMPDEST PUSH2 0x396 DUP2 PUSH2 0x194 JUMP JUMPDEST DUP2 EQ PUSH2 0x3A0 JUMPI PUSH0 DUP1 REVERT JUMPDEST POP JUMP JUMPDEST PUSH0 DUP2 MLOAD SWAP1 POP PUSH2 0x3B1 DUP2 PUSH2 0x38D JUMP JUMPDEST SWAP3 SWAP2 POP POP JUMP JUMPDEST PUSH0 PUSH2 0x3C9 PUSH2 0x3C4 DUP5 PUSH2 0x35E JUMP JUMPDEST PUSH2 0x344 JUMP JUMPDEST SWAP1 POP DUP1 DUP4 DUP3 MSTORE PUSH1 0x20 DUP3 ADD SWAP1 POP PUSH1 0x20 DUP5 MUL DUP4 ADD DUP6 DUP2 GT ISZERO PUSH2 0x3EC JUMPI PUSH2 0x3EB PUSH2 0x389 JUMP JUMPDEST JUMPDEST DUP4 JUMPDEST DUP2 DUP2 LT ISZERO PUSH2 0x415 JUMPI DUP1 PUSH2 0x401 DUP9 DUP3 PUSH2 0x3A3 JUMP JUMPDEST DUP5 MSTORE PUSH1 0x20 DUP5 ADD SWAP4 POP POP PUSH1 0x20 DUP2 ADD SWAP1 POP PUSH2 0x3EE JUMP JUMPDEST POP POP POP SWAP4 SWAP3 POP POP POP JUMP JUMPDEST PUSH0 DUP3 PUSH1 0x1F DUP4 ADD SLT PUSH2 0x433 JUMPI PUSH2 0x432 PUSH2 0x2FF JUMP JUMPDEST JUMPDEST DUP2 MLOAD PUSH2 0x443 DUP5 DUP3 PUSH1 0x20 DUP7 ADD PUSH2 0x3B7 JUMP JUMPDEST SWAP2 POP POP SWAP3 SWAP2 POP POP JUMP JUMPDEST PUSH0 DUP1 PUSH1 0x40 DUP4 DUP6 SUB SLT ISZERO PUSH2 0x462 JUMPI PUSH2 0x461 PUSH2 0x2BC JUMP JUMPDEST JUMPDEST PUSH0 PUSH2 0x46F DUP6 DUP3 DUP7 ADD PUSH2 0x2EB JUMP JUMPDEST SWAP3 POP POP PUSH1 0x20 DUP4 ADD MLOAD PUSH8 0xFFFFFFFFFFFFFFFF DUP2 GT ISZERO PUSH2 0x490 JUMPI PUSH2 0x48F PUSH2 0x2C0 JUMP JUMPDEST JUMPDEST PUSH2 0x49C DUP6 DUP3 DUP7 ADD PUSH2 0x41F JUMP JUMPDEST SWAP2 POP POP SWAP3 POP SWAP3 SWAP1 POP JUMP INVALID LOG2 PUSH5 0x6970667358 0x22 SLT KECCAK256 0x2C SWAP2 DUP10 SWAP6 SHL CALLCODE BYTE PUSH15 0x6873515B8E57661C58B187DB49C3FB SWAP16 0xC7 SMOD 0xA8 0xEF 0xD7 AND MUL 0xE3 PUSH5 0x736F6C6343 STOP ADDMOD AND STOP CALLER "
		},
		"gasEstimates": {
			"creation": {
				"codeDepositCost": "248800",
				"executionCost": "285",
				"totalCost": "249085"
			},
			"external": {
				"testEncode()": "infinite"
			}
		},
		"methodIdentifiers": {
			"testEncode()": "42011ac9"
		}
	},
	"abi": [
		{
			"inputs": [],
			"name": "testEncode",
			"outputs": [
				{
					"internalType": "address",
					"name": "",
					"type": "address"
				},
				{
					"internalType": "uint256[]",
					"name": "",
					"type": "uint256[]"
				}
			],
			"stateMutability": "view",
			"type": "function"
		}
	]
}