{
	"data": {
		"bytecode": {
			"linkReferences": {},
			"object": "608060405234801561000f575f80fd5b506107a58061001d5f395ff3fe608060405234801561000f575f80fd5b5060043610610091575f3560e01c80633197cbb6116100645780633197cbb614610131578063829950381461014f578063910f4cf31461016d578063a78ce23a14610177578063d88e3e3b146101a757610091565b806301f6b5a21461009557806316ada547146100c55780631b08d96f146100e35780632bb1ae7c14610101575b5f80fd5b6100af60048036038101906100aa9190610302565b6101d7565b6040516100bc9190610349565b60405180910390f35b6100cd6101e0565b6040516100da9190610371565b60405180910390f35b6100eb6101ef565b6040516100f89190610371565b60405180910390f35b61011b600480360381019061011691906103eb565b6101f4565b6040516101289190610371565b60405180910390f35b610139610206565b6040516101469190610455565b60405180910390f35b61015761021c565b6040516101649190610371565b60405180910390f35b610175610235565b005b610191600480360381019061018c9190610491565b610267565b60405161019e9190610371565b60405180910390f35b6101c160048036038101906101bc9190610516565b610296565b6040516101ce91906105de565b60405180910390f35b5f819050919050565b5f8062278d0790508091505090565b5f5481565b5f60025f819055505f54905092915050565b60015f9054906101000a900464ffffffffff1681565b5f80600c90508061022c9061062b565b90508091505090565b629e3400426102449190610652565b60015f6101000a81548164ffffffffff021916908364ffffffffff160217905550565b5f8082600381111561027c5761027b61068a565b5b600161028891906106c3565b60ff16905080915050919050565b60605f83836040516020016102ac929190610744565b60405160208183030381529060405290508091505092915050565b5f80fd5b5f80fd5b5f819050919050565b6102e1816102cf565b81146102eb575f80fd5b50565b5f813590506102fc816102d8565b92915050565b5f60208284031215610317576103166102c7565b5b5f610324848285016102ee565b91505092915050565b5f61ffff82169050919050565b6103438161032d565b82525050565b5f60208201905061035c5f83018461033a565b92915050565b61036b816102cf565b82525050565b5f6020820190506103845f830184610362565b92915050565b5f80fd5b5f80fd5b5f80fd5b5f8083601f8401126103ab576103aa61038a565b5b8235905067ffffffffffffffff8111156103c8576103c761038e565b5b6020830191508360018202830111156103e4576103e3610392565b5b9250929050565b5f8060208385031215610401576104006102c7565b5b5f83013567ffffffffffffffff81111561041e5761041d6102cb565b5b61042a85828601610396565b92509250509250929050565b5f64ffffffffff82169050919050565b61044f81610436565b82525050565b5f6020820190506104685f830184610446565b92915050565b6004811061047a575f80fd5b50565b5f8135905061048b8161046e565b92915050565b5f602082840312156104a6576104a56102c7565b5b5f6104b38482850161047d565b91505092915050565b5f73ffffffffffffffffffffffffffffffffffffffff82169050919050565b5f6104e5826104bc565b9050919050565b6104f5816104db565b81146104ff575f80fd5b50565b5f81359050610510816104ec565b92915050565b5f806040838503121561052c5761052b6102c7565b5b5f61053985828601610502565b925050602061054a85828601610502565b9150509250929050565b5f81519050919050565b5f82825260208201905092915050565b5f5b8381101561058b578082015181840152602081019050610570565b5f8484015250505050565b5f601f19601f8301169050919050565b5f6105b082610554565b6105ba818561055e565b93506105ca81856020860161056e565b6105d381610596565b840191505092915050565b5f6020820190508181035f8301526105f681846105a6565b905092915050565b7f4e487b71000000000000000000000000000000000000000000000000000000005f52601160045260245ffd5b5f610635826102cf565b91505f8203610647576106466105fe565b5b600182039050919050565b5f61065c82610436565b915061066783610436565b9250828201905064ffffffffff811115610684576106836105fe565b5b92915050565b7f4e487b71000000000000000000000000000000000000000000000000000000005f52602160045260245ffd5b5f60ff82169050919050565b5f6106cd826106b7565b91506106d8836106b7565b92508282026106e6816106b7565b91508082146106f8576106f76105fe565b5b5092915050565b5f8160601b9050919050565b5f610715826106ff565b9050919050565b5f6107268261070b565b9050919050565b61073e610739826104db565b61071c565b82525050565b5f61074f828561072d565b60148201915061075f828461072d565b601482019150819050939250505056fea2646970667358221220201e069fc6310877fa6f5e66e7fd8a978fe1c455646f5c726088e8f7be07278464736f6c63430008160033",
			"opcodes": "PUSH1 0x80 PUSH1 0x40 MSTORE CALLVALUE DUP1 ISZERO PUSH2 0xF JUMPI PUSH0 DUP1 REVERT JUMPDEST POP PUSH2 0x7A5 DUP1 PUSH2 0x1D PUSH0 CODECOPY PUSH0 RETURN INVALID PUSH1 0x80 PUSH1 0x40 MSTORE CALLVALUE DUP1 ISZERO PUSH2 0xF JUMPI PUSH0 DUP1 REVERT JUMPDEST POP PUSH1 0x4 CALLDATASIZE LT PUSH2 0x91 JUMPI PUSH0 CALLDATALOAD PUSH1 0xE0 SHR DUP1 PUSH4 0x3197CBB6 GT PUSH2 0x64 JUMPI DUP1 PUSH4 0x3197CBB6 EQ PUSH2 0x131 JUMPI DUP1 PUSH4 0x82995038 EQ PUSH2 0x14F JUMPI DUP1 PUSH4 0x910F4CF3 EQ PUSH2 0x16D JUMPI DUP1 PUSH4 0xA78CE23A EQ PUSH2 0x177 JUMPI DUP1 PUSH4 0xD88E3E3B EQ PUSH2 0x1A7 JUMPI PUSH2 0x91 JUMP JUMPDEST DUP1 PUSH4 0x1F6B5A2 EQ PUSH2 0x95 JUMPI DUP1 PUSH4 0x16ADA547 EQ PUSH2 0xC5 JUMPI DUP1 PUSH4 0x1B08D96F EQ PUSH2 0xE3 JUMPI DUP1 PUSH4 0x2BB1AE7C EQ PUSH2 0x101 JUMPI JUMPDEST PUSH0 DUP1 REVERT JUMPDEST PUSH2 0xAF PUSH1 0x4 DUP1 CALLDATASIZE SUB DUP2 ADD SWAP1 PUSH2 0xAA SWAP2 SWAP1 PUSH2 0x302 JUMP JUMPDEST PUSH2 0x1D7 JUMP JUMPDEST PUSH1 0x40 MLOAD PUSH2 0xBC SWAP2 SWAP1 PUSH2 0x349 JUMP JUMPDEST PUSH1 0x40 MLOAD DUP1 SWAP2 SUB SWAP1 RETURN JUMPDEST PUSH2 0xCD PUSH2 0x1E0 JUMP JUMPDEST PUSH1 0x40 MLOAD PUSH2 0xDA SWAP2 SWAP1 PUSH2 0x371 JUMP JUMPDEST PUSH1 0x40 MLOAD DUP1 SWAP2 SUB SWAP1 RETURN JUMPDEST PUSH2 0xEB PUSH2 0x1EF JUMP JUMPDEST PUSH1 0x40 MLOAD PUSH2 0xF8 SWAP2 SWAP1 PUSH2 0x371 JUMP JUMPDEST PUSH1 0x40 MLOAD DUP1 SWAP2 SUB SWAP1 RETURN JUMPDEST PUSH2 0x11B PUSH1 0x4 DUP1 CALLDATASIZE SUB DUP2 ADD SWAP1 PUSH2 0x116 SWAP2 SWAP1 PUSH2 0x3EB JUMP JUMPDEST PUSH2 0x1F4 JUMP JUMPDEST PUSH1 0x40 MLOAD PUSH2 0x128 SWAP2 SWAP1 PUSH2 0x371 JUMP JUMPDEST PUSH1 0x40 MLOAD DUP1 SWAP2 SUB SWAP1 RETURN JUMPDEST PUSH2 0x139 PUSH2 0x206 JUMP JUMPDEST PUSH1 0x40 MLOAD PUSH2 0x146 SWAP2 SWAP1 PUSH2 0x455 JUMP JUMPDEST PUSH1 0x40 MLOAD DUP1 SWAP2 SUB SWAP1 RETURN JUMPDEST PUSH2 0x157 PUSH2 0x21C JUMP JUMPDEST PUSH1 0x40 MLOAD PUSH2 0x164 SWAP2 SWAP1 PUSH2 0x371 JUMP JUMPDEST PUSH1 0x40 MLOAD DUP1 SWAP2 SUB SWAP1 RETURN JUMPDEST PUSH2 0x175 PUSH2 0x235 JUMP JUMPDEST STOP JUMPDEST PUSH2 0x191 PUSH1 0x4 DUP1 CALLDATASIZE SUB DUP2 ADD SWAP1 PUSH2 0x18C SWAP2 SWAP1 PUSH2 0x491 JUMP JUMPDEST PUSH2 0x267 JUMP JUMPDEST PUSH1 0x40 MLOAD PUSH2 0x19E SWAP2 SWAP1 PUSH2 0x371 JUMP JUMPDEST PUSH1 0x40 MLOAD DUP1 SWAP2 SUB SWAP1 RETURN JUMPDEST PUSH2 0x1C1 PUSH1 0x4 DUP1 CALLDATASIZE SUB DUP2 ADD SWAP1 PUSH2 0x1BC SWAP2 SWAP1 PUSH2 0x516 JUMP JUMPDEST PUSH2 0x296 JUMP JUMPDEST PUSH1 0x40 MLOAD PUSH2 0x1CE SWAP2 SWAP1 PUSH2 0x5DE JUMP JUMPDEST PUSH1 0x40 MLOAD DUP1 SWAP2 SUB SWAP1 RETURN JUMPDEST PUSH0 DUP2 SWAP1 POP SWAP2 SWAP1 POP JUMP JUMPDEST PUSH0 DUP1 PUSH3 0x278D07 SWAP1 POP DUP1 SWAP2 POP POP SWAP1 JUMP JUMPDEST PUSH0 SLOAD DUP2 JUMP JUMPDEST PUSH0 PUSH1 0x2 PUSH0 DUP2 SWAP1 SSTORE POP PUSH0 SLOAD SWAP1 POP SWAP3 SWAP2 POP POP JUMP JUMPDEST PUSH1 0x1 PUSH0 SWAP1 SLOAD SWAP1 PUSH2 0x100 EXP SWAP1 DIV PUSH5 0xFFFFFFFFFF AND DUP2 JUMP JUMPDEST PUSH0 DUP1 PUSH1 0xC SWAP1 POP DUP1 PUSH2 0x22C SWAP1 PUSH2 0x62B JUMP JUMPDEST SWAP1 POP DUP1 SWAP2 POP POP SWAP1 JUMP JUMPDEST PUSH3 0x9E3400 TIMESTAMP PUSH2 0x244 SWAP2 SWAP1 PUSH2 0x652 JUMP JUMPDEST PUSH1 0x1 PUSH0 PUSH2 0x100 EXP DUP2 SLOAD DUP2 PUSH5 0xFFFFFFFFFF MUL NOT AND SWAP1 DUP4 PUSH5 0xFFFFFFFFFF AND MUL OR SWAP1 SSTORE POP JUMP JUMPDEST PUSH0 DUP1 DUP3 PUSH1 0x3 DUP2 GT ISZERO PUSH2 0x27C JUMPI PUSH2 0x27B PUSH2 0x68A JUMP JUMPDEST JUMPDEST PUSH1 0x1 PUSH2 0x288 SWAP2 SWAP1 PUSH2 0x6C3 JUMP JUMPDEST PUSH1 0xFF AND SWAP1 POP DUP1 SWAP2 POP POP SWAP2 SWAP1 POP JUMP JUMPDEST PUSH1 0x60 PUSH0 DUP4 DUP4 PUSH1 0x40 MLOAD PUSH1 0x20 ADD PUSH2 0x2AC SWAP3 SWAP2 SWAP1 PUSH2 0x744 JUMP JUMPDEST PUSH1 0x40 MLOAD PUSH1 0x20 DUP2 DUP4 SUB SUB DUP2 MSTORE SWAP1 PUSH1 0x40 MSTORE SWAP1 POP DUP1 SWAP2 POP POP SWAP3 SWAP2 POP POP JUMP JUMPDEST PUSH0 DUP1 REVERT JUMPDEST PUSH0 DUP1 REVERT JUMPDEST PUSH0 DUP2 SWAP1 POP SWAP2 SWAP1 POP JUMP JUMPDEST PUSH2 0x2E1 DUP2 PUSH2 0x2CF JUMP JUMPDEST DUP2 EQ PUSH2 0x2EB JUMPI PUSH0 DUP1 REVERT JUMPDEST POP JUMP JUMPDEST PUSH0 DUP2 CALLDATALOAD SWAP1 POP PUSH2 0x2FC DUP2 PUSH2 0x2D8 JUMP JUMPDEST SWAP3 SWAP2 POP POP JUMP JUMPDEST PUSH0 PUSH1 0x20 DUP3 DUP5 SUB SLT ISZERO PUSH2 0x317 JUMPI PUSH2 0x316 PUSH2 0x2C7 JUMP JUMPDEST JUMPDEST PUSH0 PUSH2 0x324 DUP5 DUP3 DUP6 ADD PUSH2 0x2EE JUMP JUMPDEST SWAP2 POP POP SWAP3 SWAP2 POP POP JUMP JUMPDEST PUSH0 PUSH2 0xFFFF DUP3 AND SWAP1 POP SWAP2 SWAP1 POP JUMP JUMPDEST PUSH2 0x343 DUP2 PUSH2 0x32D JUMP JUMPDEST DUP3 MSTORE POP POP JUMP JUMPDEST PUSH0 PUSH1 0x20 DUP3 ADD SWAP1 POP PUSH2 0x35C PUSH0 DUP4 ADD DUP5 PUSH2 0x33A JUMP JUMPDEST SWAP3 SWAP2 POP POP JUMP JUMPDEST PUSH2 0x36B DUP2 PUSH2 0x2CF JUMP JUMPDEST DUP3 MSTORE POP POP JUMP JUMPDEST PUSH0 PUSH1 0x20 DUP3 ADD SWAP1 POP PUSH2 0x384 PUSH0 DUP4 ADD DUP5 PUSH2 0x362 JUMP JUMPDEST SWAP3 SWAP2 POP POP JUMP JUMPDEST PUSH0 DUP1 REVERT JUMPDEST PUSH0 DUP1 REVERT JUMPDEST PUSH0 DUP1 REVERT JUMPDEST PUSH0 DUP1 DUP4 PUSH1 0x1F DUP5 ADD SLT PUSH2 0x3AB JUMPI PUSH2 0x3AA PUSH2 0x38A JUMP JUMPDEST JUMPDEST DUP3 CALLDATALOAD SWAP1 POP PUSH8 0xFFFFFFFFFFFFFFFF DUP2 GT ISZERO PUSH2 0x3C8 JUMPI PUSH2 0x3C7 PUSH2 0x38E JUMP JUMPDEST JUMPDEST PUSH1 0x20 DUP4 ADD SWAP2 POP DUP4 PUSH1 0x1 DUP3 MUL DUP4 ADD GT ISZERO PUSH2 0x3E4 JUMPI PUSH2 0x3E3 PUSH2 0x392 JUMP JUMPDEST JUMPDEST SWAP3 POP SWAP3 SWAP1 POP JUMP JUMPDEST PUSH0 DUP1 PUSH1 0x20 DUP4 DUP6 SUB SLT ISZERO PUSH2 0x401 JUMPI PUSH2 0x400 PUSH2 0x2C7 JUMP JUMPDEST JUMPDEST PUSH0 DUP4 ADD CALLDATALOAD PUSH8 0xFFFFFFFFFFFFFFFF DUP2 GT ISZERO PUSH2 0x41E JUMPI PUSH2 0x41D PUSH2 0x2CB JUMP JUMPDEST JUMPDEST PUSH2 0x42A DUP6 DUP3 DUP7 ADD PUSH2 0x396 JUMP JUMPDEST SWAP3 POP SWAP3 POP POP SWAP3 POP SWAP3 SWAP1 POP JUMP JUMPDEST PUSH0 PUSH5 0xFFFFFFFFFF DUP3 AND SWAP1 POP SWAP2 SWAP1 POP JUMP JUMPDEST PUSH2 0x44F DUP2 PUSH2 0x436 JUMP JUMPDEST DUP3 MSTORE POP POP JUMP JUMPDEST PUSH0 PUSH1 0x20 DUP3 ADD SWAP1 POP PUSH2 0x468 PUSH0 DUP4 ADD DUP5 PUSH2 0x446 JUMP JUMPDEST SWAP3 SWAP2 POP POP JUMP JUMPDEST PUSH1 0x4 DUP2 LT PUSH2 0x47A JUMPI PUSH0 DUP1 REVERT JUMPDEST POP JUMP JUMPDEST PUSH0 DUP2 CALLDATALOAD SWAP1 POP PUSH2 0x48B DUP2 PUSH2 0x46E JUMP JUMPDEST SWAP3 SWAP2 POP POP JUMP JUMPDEST PUSH0 PUSH1 0x20 DUP3 DUP5 SUB SLT ISZERO PUSH2 0x4A6 JUMPI PUSH2 0x4A5 PUSH2 0x2C7 JUMP JUMPDEST JUMPDEST PUSH0 PUSH2 0x4B3 DUP5 DUP3 DUP6 ADD PUSH2 0x47D JUMP JUMPDEST SWAP2 POP POP SWAP3 SWAP2 POP POP JUMP JUMPDEST PUSH0 PUSH20 0xFFFFFFFFFFFFFFFFFFFFFFFFFFFFFFFFFFFFFFFF DUP3 AND SWAP1 POP SWAP2 SWAP1 POP JUMP JUMPDEST PUSH0 PUSH2 0x4E5 DUP3 PUSH2 0x4BC JUMP JUMPDEST SWAP1 POP SWAP2 SWAP1 POP JUMP JUMPDEST PUSH2 0x4F5 DUP2 PUSH2 0x4DB JUMP JUMPDEST DUP2 EQ PUSH2 0x4FF JUMPI PUSH0 DUP1 REVERT JUMPDEST POP JUMP JUMPDEST PUSH0 DUP2 CALLDATALOAD SWAP1 POP PUSH2 0x510 DUP2 PUSH2 0x4EC JUMP JUMPDEST SWAP3 SWAP2 POP POP JUMP JUMPDEST PUSH0 DUP1 PUSH1 0x40 DUP4 DUP6 SUB SLT ISZERO PUSH2 0x52C JUMPI PUSH2 0x52B PUSH2 0x2C7 JUMP JUMPDEST JUMPDEST PUSH0 PUSH2 0x539 DUP6 DUP3 DUP7 ADD PUSH2 0x502 JUMP JUMPDEST SWAP3 POP POP PUSH1 0x20 PUSH2 0x54A DUP6 DUP3 DUP7 ADD PUSH2 0x502 JUMP JUMPDEST SWAP2 POP POP SWAP3 POP SWAP3 SWAP1 POP JUMP JUMPDEST PUSH0 DUP2 MLOAD SWAP1 POP SWAP2 SWAP1 POP JUMP JUMPDEST PUSH0 DUP3 DUP3 MSTORE PUSH1 0x20 DUP3 ADD SWAP1 POP SWAP3 SWAP2 POP POP JUMP JUMPDEST PUSH0 JUMPDEST DUP4 DUP2 LT ISZERO PUSH2 0x58B JUMPI DUP1 DUP3 ADD MLOAD DUP2 DUP5 ADD MSTORE PUSH1 0x20 DUP2 ADD SWAP1 POP PUSH2 0x570 JUMP JUMPDEST PUSH0 DUP5 DUP5 ADD MSTORE POP POP POP POP JUMP JUMPDEST PUSH0 PUSH1 0x1F NOT PUSH1 0x1F DUP4 ADD AND SWAP1 POP SWAP2 SWAP1 POP JUMP JUMPDEST PUSH0 PUSH2 0x5B0 DUP3 PUSH2 0x554 JUMP JUMPDEST PUSH2 0x5BA DUP2 DUP6 PUSH2 0x55E JUMP JUMPDEST SWAP4 POP PUSH2 0x5CA DUP2 DUP6 PUSH1 0x20 DUP7 ADD PUSH2 0x56E JUMP JUMPDEST PUSH2 0x5D3 DUP2 PUSH2 0x596 JUMP JUMPDEST DUP5 ADD SWAP2 POP POP SWAP3 SWAP2 POP POP JUMP JUMPDEST PUSH0 PUSH1 0x20 DUP3 ADD SWAP1 POP DUP2 DUP2 SUB PUSH0 DUP4 ADD MSTORE PUSH2 0x5F6 DUP2 DUP5 PUSH2 0x5A6 JUMP JUMPDEST SWAP1 POP SWAP3 SWAP2 POP POP JUMP JUMPDEST PUSH32 0x4E487B7100000000000000000000000000000000000000000000000000000000 PUSH0 MSTORE PUSH1 0x11 PUSH1 0x4 MSTORE PUSH1 0x24 PUSH0 REVERT JUMPDEST PUSH0 PUSH2 0x635 DUP3 PUSH2 0x2CF JUMP JUMPDEST SWAP2 POP PUSH0 DUP3 SUB PUSH2 0x647 JUMPI PUSH2 0x646 PUSH2 0x5FE JUMP JUMPDEST JUMPDEST PUSH1 0x1 DUP3 SUB SWAP1 POP SWAP2 SWAP1 POP JUMP JUMPDEST PUSH0 PUSH2 0x65C DUP3 PUSH2 0x436 JUMP JUMPDEST SWAP2 POP PUSH2 0x667 DUP4 PUSH2 0x436 JUMP JUMPDEST SWAP3 POP DUP3 DUP3 ADD SWAP1 POP PUSH5 0xFFFFFFFFFF DUP2 GT ISZERO PUSH2 0x684 JUMPI PUSH2 0x683 PUSH2 0x5FE JUMP JUMPDEST JUMPDEST SWAP3 SWAP2 POP POP JUMP JUMPDEST PUSH32 0x4E487B7100000000000000000000000000000000000000000000000000000000 PUSH0 MSTORE PUSH1 0x21 PUSH1 0x4 MSTORE PUSH1 0x24 PUSH0 REVERT JUMPDEST PUSH0 PUSH1 0xFF DUP3 AND SWAP1 POP SWAP2 SWAP1 POP JUMP JUMPDEST PUSH0 PUSH2 0x6CD DUP3 PUSH2 0x6B7 JUMP JUMPDEST SWAP2 POP PUSH2 0x6D8 DUP4 PUSH2 0x6B7 JUMP JUMPDEST SWAP3 POP DUP3 DUP3 MUL PUSH2 0x6E6 DUP2 PUSH2 0x6B7 JUMP JUMPDEST SWAP2 POP DUP1 DUP3 EQ PUSH2 0x6F8 JUMPI PUSH2 0x6F7 PUSH2 0x5FE JUMP JUMPDEST JUMPDEST POP SWAP3 SWAP2 POP POP JUMP JUMPDEST PUSH0 DUP2 PUSH1 0x60 SHL SWAP1 POP SWAP2 SWAP1 POP JUMP JUMPDEST PUSH0 PUSH2 0x715 DUP3 PUSH2 0x6FF JUMP JUMPDEST SWAP1 POP SWAP2 SWAP1 POP JUMP JUMPDEST PUSH0 PUSH2 0x726 DUP3 PUSH2 0x70B JUMP JUMPDEST SWAP1 POP SWAP2 SWAP1 POP JUMP JUMPDEST PUSH2 0x73E PUSH2 0x739 DUP3 PUSH2 0x4DB JUMP JUMPDEST PUSH2 0x71C JUMP JUMPDEST DUP3 MSTORE POP POP JUMP JUMPDEST PUSH0 PUSH2 0x74F DUP3 DUP6 PUSH2 0x72D JUMP JUMPDEST PUSH1 0x14 DUP3 ADD SWAP2 POP PUSH2 0x75F DUP3 DUP5 PUSH2 0x72D JUMP JUMPDEST PUSH1 0x14 DUP3 ADD SWAP2 POP DUP2 SWAP1 POP SWAP4 SWAP3 POP POP POP JUMP INVALID LOG2 PUSH5 0x6970667358 0x22 SLT KECCAK256 KECCAK256 0x1E MOD SWAP16 0xC6 BALANCE ADDMOD PUSH24 0xFA6F5E66E7FD8A978FE1C455646F5C726088E8F7BE072784 PUSH5 0x736F6C6343 STOP ADDMOD AND STOP CALLER "
		},
		"gasEstimates": {
			"creation": {
				"codeDepositCost": "391400",
				"executionCost": "428",
				"totalCost": "391828"
			},
			"external": {
				"endTime()": "2466",
				"getChainId(uint256)": "600",
				"getPath(address,address)": "infinite",
				"ret()": "2469",
				"send(bytes)": "24941",
				"test3(uint8)": "infinite",
				"testEndTime()": "infinite",
				"testincrement()": "infinite",
				"time()": "368"
			}
		},
		"methodIdentifiers": {
			"endTime()": "3197cbb6",
			"getChainId(uint256)": "01f6b5a2",
			"getPath(address,address)": "d88e3e3b",
			"ret()": "1b08d96f",
			"send(bytes)": "2bb1ae7c",
			"test3(uint8)": "a78ce23a",
			"testEndTime()": "910f4cf3",
			"testincrement()": "82995038",
			"time()": "16ada547"
		}
	},
	"abi": [
		{
			"inputs": [
				{
					"internalType": "bytes",
					"name": "options",
					"type": "bytes"
				}
			],
			"name": "InvalidOptions",
			"type": "error"
		},
		{
			"inputs": [],
			"name": "endTime",
			"outputs": [
				{
					"internalType": "uint40",
					"name": "",
					"type": "uint40"
				}
			],
			"stateMutability": "view",
			"type": "function"
		},
		{
			"inputs": [
				{
					"internalType": "uint256",
					"name": "id",
					"type": "uint256"
				}
			],
			"name": "getChainId",
			"outputs": [
				{
					"internalType": "uint16",
					"name": "",
					"type": "uint16"
				}
			],
			"stateMutability": "pure",
			"type": "function"
		},
		{
			"inputs": [
				{
					"internalType": "address",
					"name": "remote",
					"type": "address"
				},
				{
					"internalType": "address",
					"name": "local",
					"type": "address"
				}
			],
			"name": "getPath",
			"outputs": [
				{
					"internalType": "bytes",
					"name": "",
					"type": "bytes"
				}
			],
			"stateMutability": "pure",
			"type": "function"
		},
		{
			"inputs": [],
			"name": "ret",
			"outputs": [
				{
					"internalType": "uint256",
					"name": "",
					"type": "uint256"
				}
			],
			"stateMutability": "view",
			"type": "function"
		},
		{
			"inputs": [
				{
					"internalType": "bytes",
					"name": "",
					"type": "bytes"
				}
			],
			"name": "send",
			"outputs": [
				{
					"internalType": "uint256",
					"name": "",
					"type": "uint256"
				}
			],
			"stateMutability": "nonpayable",
			"type": "function"
		},
		{
			"inputs": [
				{
					"internalType": "enum LZTest.VaultDuration",
					"name": "duration",
					"type": "uint8"
				}
			],
			"name": "test3",
			"outputs": [
				{
					"internalType": "uint256",
					"name": "",
					"type": "uint256"
				}
			],
			"stateMutability": "view",
			"type": "function"
		},
		{
			"inputs": [],
			"name": "testEndTime",
			"outputs": [],
			"stateMutability": "nonpayable",
			"type": "function"
		},
		{
			"inputs": [],
			"name": "testincrement",
			"outputs": [
				{
					"internalType": "uint256",
					"name": "",
					"type": "uint256"
				}
			],
			"stateMutability": "pure",
			"type": "function"
		},
		{
			"inputs": [],
			"name": "time",
			"outputs": [
				{
					"internalType": "uint256",
					"name": "",
					"type": "uint256"
				}
			],
			"stateMutability": "pure",
			"type": "function"
		}
	]
}