{
	"data": {
		"bytecode": {
			"linkReferences": {},
			"object": "608060405234801561000f575f80fd5b506103ae8061001d5f395ff3fe608060405234801561000f575f80fd5b5060043610610034575f3560e01c806322e8b99014610038578063be1c766b14610069575b5f80fd5b610052600480360381019061004d919061025e565b610087565b6040516100609291906102ab565b60405180910390f35b6100716100c0565b60405161007e91906102d2565b60405180910390f35b5f602052815f5260405f20818154811061009f575f80fd5b905f5260205f2090600202015f9150915050805f0154908060010154905082565b5f805f803373ffffffffffffffffffffffffffffffffffffffff1673ffffffffffffffffffffffffffffffffffffffff1681526020019081526020015f2060015f803373ffffffffffffffffffffffffffffffffffffffff1673ffffffffffffffffffffffffffffffffffffffff1681526020019081526020015f208054905061014a9190610318565b8154811061015b5761015a61034b565b5b905f5260205f2090600202016040518060400160405290815f820154815260200160018201548152505090505f803373ffffffffffffffffffffffffffffffffffffffff1673ffffffffffffffffffffffffffffffffffffffff1681526020019081526020015f208054905091505090565b5f80fd5b5f73ffffffffffffffffffffffffffffffffffffffff82169050919050565b5f6101fa826101d1565b9050919050565b61020a816101f0565b8114610214575f80fd5b50565b5f8135905061022581610201565b92915050565b5f819050919050565b61023d8161022b565b8114610247575f80fd5b50565b5f8135905061025881610234565b92915050565b5f8060408385031215610274576102736101cd565b5b5f61028185828601610217565b92505060206102928582860161024a565b9150509250929050565b6102a58161022b565b82525050565b5f6040820190506102be5f83018561029c565b6102cb602083018461029c565b9392505050565b5f6020820190506102e55f83018461029c565b92915050565b7f4e487b71000000000000000000000000000000000000000000000000000000005f52601160045260245ffd5b5f6103228261022b565b915061032d8361022b565b9250828203905081811115610345576103446102eb565b5b92915050565b7f4e487b71000000000000000000000000000000000000000000000000000000005f52603260045260245ffdfea2646970667358221220c07f0d5974ff656942cc0744aafa05fe342c2908a5d6635e7acbd381355b508464736f6c63430008160033",
			"opcodes": "PUSH1 0x80 PUSH1 0x40 MSTORE CALLVALUE DUP1 ISZERO PUSH2 0xF JUMPI PUSH0 DUP1 REVERT JUMPDEST POP PUSH2 0x3AE DUP1 PUSH2 0x1D PUSH0 CODECOPY PUSH0 RETURN INVALID PUSH1 0x80 PUSH1 0x40 MSTORE CALLVALUE DUP1 ISZERO PUSH2 0xF JUMPI PUSH0 DUP1 REVERT JUMPDEST POP PUSH1 0x4 CALLDATASIZE LT PUSH2 0x34 JUMPI PUSH0 CALLDATALOAD PUSH1 0xE0 SHR DUP1 PUSH4 0x22E8B990 EQ PUSH2 0x38 JUMPI DUP1 PUSH4 0xBE1C766B EQ PUSH2 0x69 JUMPI JUMPDEST PUSH0 DUP1 REVERT JUMPDEST PUSH2 0x52 PUSH1 0x4 DUP1 CALLDATASIZE SUB DUP2 ADD SWAP1 PUSH2 0x4D SWAP2 SWAP1 PUSH2 0x25E JUMP JUMPDEST PUSH2 0x87 JUMP JUMPDEST PUSH1 0x40 MLOAD PUSH2 0x60 SWAP3 SWAP2 SWAP1 PUSH2 0x2AB JUMP JUMPDEST PUSH1 0x40 MLOAD DUP1 SWAP2 SUB SWAP1 RETURN JUMPDEST PUSH2 0x71 PUSH2 0xC0 JUMP JUMPDEST PUSH1 0x40 MLOAD PUSH2 0x7E SWAP2 SWAP1 PUSH2 0x2D2 JUMP JUMPDEST PUSH1 0x40 MLOAD DUP1 SWAP2 SUB SWAP1 RETURN JUMPDEST PUSH0 PUSH1 0x20 MSTORE DUP2 PUSH0 MSTORE PUSH1 0x40 PUSH0 KECCAK256 DUP2 DUP2 SLOAD DUP2 LT PUSH2 0x9F JUMPI PUSH0 DUP1 REVERT JUMPDEST SWAP1 PUSH0 MSTORE PUSH1 0x20 PUSH0 KECCAK256 SWAP1 PUSH1 0x2 MUL ADD PUSH0 SWAP2 POP SWAP2 POP POP DUP1 PUSH0 ADD SLOAD SWAP1 DUP1 PUSH1 0x1 ADD SLOAD SWAP1 POP DUP3 JUMP JUMPDEST PUSH0 DUP1 PUSH0 DUP1 CALLER PUSH20 0xFFFFFFFFFFFFFFFFFFFFFFFFFFFFFFFFFFFFFFFF AND PUSH20 0xFFFFFFFFFFFFFFFFFFFFFFFFFFFFFFFFFFFFFFFF AND DUP2 MSTORE PUSH1 0x20 ADD SWAP1 DUP2 MSTORE PUSH1 0x20 ADD PUSH0 KECCAK256 PUSH1 0x1 PUSH0 DUP1 CALLER PUSH20 0xFFFFFFFFFFFFFFFFFFFFFFFFFFFFFFFFFFFFFFFF AND PUSH20 0xFFFFFFFFFFFFFFFFFFFFFFFFFFFFFFFFFFFFFFFF AND DUP2 MSTORE PUSH1 0x20 ADD SWAP1 DUP2 MSTORE PUSH1 0x20 ADD PUSH0 KECCAK256 DUP1 SLOAD SWAP1 POP PUSH2 0x14A SWAP2 SWAP1 PUSH2 0x318 JUMP JUMPDEST DUP2 SLOAD DUP2 LT PUSH2 0x15B JUMPI PUSH2 0x15A PUSH2 0x34B JUMP JUMPDEST JUMPDEST SWAP1 PUSH0 MSTORE PUSH1 0x20 PUSH0 KECCAK256 SWAP1 PUSH1 0x2 MUL ADD PUSH1 0x40 MLOAD DUP1 PUSH1 0x40 ADD PUSH1 0x40 MSTORE SWAP1 DUP2 PUSH0 DUP3 ADD SLOAD DUP2 MSTORE PUSH1 0x20 ADD PUSH1 0x1 DUP3 ADD SLOAD DUP2 MSTORE POP POP SWAP1 POP PUSH0 DUP1 CALLER PUSH20 0xFFFFFFFFFFFFFFFFFFFFFFFFFFFFFFFFFFFFFFFF AND PUSH20 0xFFFFFFFFFFFFFFFFFFFFFFFFFFFFFFFFFFFFFFFF AND DUP2 MSTORE PUSH1 0x20 ADD SWAP1 DUP2 MSTORE PUSH1 0x20 ADD PUSH0 KECCAK256 DUP1 SLOAD SWAP1 POP SWAP2 POP POP SWAP1 JUMP JUMPDEST PUSH0 DUP1 REVERT JUMPDEST PUSH0 PUSH20 0xFFFFFFFFFFFFFFFFFFFFFFFFFFFFFFFFFFFFFFFF DUP3 AND SWAP1 POP SWAP2 SWAP1 POP JUMP JUMPDEST PUSH0 PUSH2 0x1FA DUP3 PUSH2 0x1D1 JUMP JUMPDEST SWAP1 POP SWAP2 SWAP1 POP JUMP JUMPDEST PUSH2 0x20A DUP2 PUSH2 0x1F0 JUMP JUMPDEST DUP2 EQ PUSH2 0x214 JUMPI PUSH0 DUP1 REVERT JUMPDEST POP JUMP JUMPDEST PUSH0 DUP2 CALLDATALOAD SWAP1 POP PUSH2 0x225 DUP2 PUSH2 0x201 JUMP JUMPDEST SWAP3 SWAP2 POP POP JUMP JUMPDEST PUSH0 DUP2 SWAP1 POP SWAP2 SWAP1 POP JUMP JUMPDEST PUSH2 0x23D DUP2 PUSH2 0x22B JUMP JUMPDEST DUP2 EQ PUSH2 0x247 JUMPI PUSH0 DUP1 REVERT JUMPDEST POP JUMP JUMPDEST PUSH0 DUP2 CALLDATALOAD SWAP1 POP PUSH2 0x258 DUP2 PUSH2 0x234 JUMP JUMPDEST SWAP3 SWAP2 POP POP JUMP JUMPDEST PUSH0 DUP1 PUSH1 0x40 DUP4 DUP6 SUB SLT ISZERO PUSH2 0x274 JUMPI PUSH2 0x273 PUSH2 0x1CD JUMP JUMPDEST JUMPDEST PUSH0 PUSH2 0x281 DUP6 DUP3 DUP7 ADD PUSH2 0x217 JUMP JUMPDEST SWAP3 POP POP PUSH1 0x20 PUSH2 0x292 DUP6 DUP3 DUP7 ADD PUSH2 0x24A JUMP JUMPDEST SWAP2 POP POP SWAP3 POP SWAP3 SWAP1 POP JUMP JUMPDEST PUSH2 0x2A5 DUP2 PUSH2 0x22B JUMP JUMPDEST DUP3 MSTORE POP POP JUMP JUMPDEST PUSH0 PUSH1 0x40 DUP3 ADD SWAP1 POP PUSH2 0x2BE PUSH0 DUP4 ADD DUP6 PUSH2 0x29C JUMP JUMPDEST PUSH2 0x2CB PUSH1 0x20 DUP4 ADD DUP5 PUSH2 0x29C JUMP JUMPDEST SWAP4 SWAP3 POP POP POP JUMP JUMPDEST PUSH0 PUSH1 0x20 DUP3 ADD SWAP1 POP PUSH2 0x2E5 PUSH0 DUP4 ADD DUP5 PUSH2 0x29C JUMP JUMPDEST SWAP3 SWAP2 POP POP JUMP JUMPDEST PUSH32 0x4E487B7100000000000000000000000000000000000000000000000000000000 PUSH0 MSTORE PUSH1 0x11 PUSH1 0x4 MSTORE PUSH1 0x24 PUSH0 REVERT JUMPDEST PUSH0 PUSH2 0x322 DUP3 PUSH2 0x22B JUMP JUMPDEST SWAP2 POP PUSH2 0x32D DUP4 PUSH2 0x22B JUMP JUMPDEST SWAP3 POP DUP3 DUP3 SUB SWAP1 POP DUP2 DUP2 GT ISZERO PUSH2 0x345 JUMPI PUSH2 0x344 PUSH2 0x2EB JUMP JUMPDEST JUMPDEST SWAP3 SWAP2 POP POP JUMP JUMPDEST PUSH32 0x4E487B7100000000000000000000000000000000000000000000000000000000 PUSH0 MSTORE PUSH1 0x32 PUSH1 0x4 MSTORE PUSH1 0x24 PUSH0 REVERT INVALID LOG2 PUSH5 0x6970667358 0x22 SLT KECCAK256 0xC0 PUSH32 0xD5974FF656942CC0744AAFA05FE342C2908A5D6635E7ACBD381355B50846473 PUSH16 0x6C634300081600330000000000000000 "
		},
		"gasEstimates": {
			"creation": {
				"codeDepositCost": "188400",
				"executionCost": "230",
				"totalCost": "188630"
			},
			"external": {
				"getLength()": "infinite",
				"userHistory(address,uint256)": "infinite"
			}
		},
		"methodIdentifiers": {
			"getLength()": "be1c766b",
			"userHistory(address,uint256)": "22e8b990"
		}
	},
	"abi": [
		{
			"inputs": [],
			"name": "getLength",
			"outputs": [
				{
					"internalType": "uint256",
					"name": "",
					"type": "uint256"
				}
			],
			"stateMutability": "view",
			"type": "function"
		},
		{
			"inputs": [
				{
					"internalType": "address",
					"name": "user",
					"type": "address"
				},
				{
					"internalType": "uint256",
					"name": "",
					"type": "uint256"
				}
			],
			"name": "userHistory",
			"outputs": [
				{
					"internalType": "uint256",
					"name": "bias",
					"type": "uint256"
				},
				{
					"internalType": "uint256",
					"name": "slope",
					"type": "uint256"
				}
			],
			"stateMutability": "view",
			"type": "function"
		}
	]
}