{
	"data": {
		"bytecode": {
			"linkReferences": {},
			"object": "608060405234801561000f575f80fd5b506114ba8061001d5f395ff3fe608060405234801561000f575f80fd5b506004361061007b575f3560e01c8063672b122f11610059578063672b122f146100c55780636df4d241146100e457806373b2e80e14610114578063a6fae3ab146101445761007b565b80633edbff791461007f5780635909c12f146100895780636566b8b6146100a7575b5f80fd5b610087610174565b005b610091610189565b60405161009e9190610ae2565b60405180910390f35b6100af61018e565b6040516100bc9190610b15565b60405180910390f35b6100cd6101fb565b6040516100db929190610ca0565b60405180910390f35b6100fe60048036038101906100f99190610e59565b610854565b60405161010b9190610b15565b60405180910390f35b61012e60048036038101906101299190610f0d565b610969565b60405161013b9190610b15565b60405180910390f35b61015e60048036038101906101599190611049565b610986565b60405161016b919061110f565b60405180910390f35b5f61017d6101fb565b509050805f8190555050565b5f5481565b5f806101986101fb565b9150505f6101a65f83610986565b90505f735b38da6a701c568545dcfcb03fcb875f56beddc45f6040516020016101d092919061118c565b604051602081830303815290604052805190602001201990506101f38183610854565b935050505090565b5f60605f600467ffffffffffffffff81111561021a57610219610d1d565b5b6040519080825280602002602001820160405280156102485781602001602082028036833780820191505090505b509050735b38da6a701c568545dcfcb03fcb875f56beddc4815f81518110610273576102726111b3565b5b602002602001019073ffffffffffffffffffffffffffffffffffffffff16908173ffffffffffffffffffffffffffffffffffffffff16815250506001816001815181106102c3576102c26111b3565b5b602002602001019073ffffffffffffffffffffffffffffffffffffffff16908173ffffffffffffffffffffffffffffffffffffffff1681525050600281600281518110610313576103126111b3565b5b602002602001019073ffffffffffffffffffffffffffffffffffffffff16908173ffffffffffffffffffffffffffffffffffffffff1681525050600381600381518110610363576103626111b3565b5b602002602001019073ffffffffffffffffffffffffffffffffffffffff16908173ffffffffffffffffffffffffffffffffffffffff16815250505f600467ffffffffffffffff8111156103b9576103b8610d1d565b5b6040519080825280602002602001820160405280156103e75781602001602082028036833780820191505090505b5090505f815f815181106103fe576103fd6111b3565b5b6020026020010181815250506001816001815181106104205761041f6111b3565b5b602002602001018181525050600281600281518110610442576104416111b3565b5b602002602001018181525050600381600381518110610464576104636111b3565b5b6020026020010181815250505f8251118015610481575080518251145b6104c0576040517f08c379a00000000000000000000000000000000000000000000000000000000081526004016104b79061123a565b60405180910390fd5b5f80835190505b5f811461050957600181146104f45760026001826104e59190611285565b6104ef91906112e5565b6104f6565b5f5b90508161050290611315565b91506104c7565b508067ffffffffffffffff81111561052457610523610d1d565b5b60405190808252806020026020018201604052801561055757816020015b60608152602001906001900390816105425790505b5093505f835167ffffffffffffffff81111561057657610575610d1d565b5b6040519080825280602002602001820160405280156105a45781602001602082028036833780820191505090505b50855f815181106105b8576105b76111b3565b5b6020026020010181905290505f5b8451811015610657578481815181106105e2576105e16111b3565b5b60200260200101518482815181106105fd576105fc6111b3565b5b602002602001015160405160200161061692919061136b565b60405160208183030381529060405280519060200120198282815181106106405761063f6111b3565b5b6020026020010181815250508060010190506105c6565b505f600190505b82811015610808575f6002600184516106779190611285565b61068191906112e5565b90505f8167ffffffffffffffff81111561069e5761069d610d1d565b5b6040519080825280602002602001820160405280156106cc5781602001602082028036833780820191505090505b5090505f5b84518110156107d8575f8582815181106106ee576106ed6111b3565b5b602002602001015190505f86516001846107089190611285565b10610715575f801b61073d565b866001846107239190611285565b81518110610734576107336111b3565b5b60200260200101515b905080821161076d578181604051602001610759929190611392565b604051602081830303815290604052610790565b8082604051602001610780929190611392565b6040516020818303038152906040525b80519060200120846002856107a591906112e5565b815181106107b6576107b56111b3565b5b60200260200101818152505050506002816107d19190611285565b90506106d1565b50809350838884815181106107f0576107ef6111b3565b5b6020026020010181905250505080600101905061065e565b508460018361081791906113b9565b81518110610828576108276111b3565b5b60200260200101515f81518110610842576108416111b3565b5b60200260200101519550505050509091565b5f805f1b8303610899576040517f08c379a000000000000000000000000000000000000000000000000000000000815260040161089090611436565b60405180910390fd5b5f8390505f5b835181101561095b578381815181106108bb576108ba6111b3565b5b6020026020010151821161090a57818482815181106108dd576108dc6111b3565b5b60200260200101516040516020016108f6929190611392565b604051602081830303815290604052610947565b83818151811061091d5761091c6111b3565b5b602002602001015182604051602001610937929190611392565b6040516020818303038152906040525b80519060200120915080600101905061089f565b505f54811491505092915050565b6001602052805f5260405f205f915054906101000a900460ff1681565b60605f825190505f8490505f60018361099f91906113b9565b67ffffffffffffffff8111156109b8576109b7610d1d565b5b6040519080825280602002602001820160405280156109e65781602001602082028036833780820191505090505b5090505f5b8151811015610abd575f80600285610a039190611454565b14610a1a57600184610a1591906113b9565b610a28565b600184610a279190611285565b5b9050868281518110610a3d57610a3c6111b3565b5b602002602001015151811015610aa257868281518110610a6057610a5f6111b3565b5b60200260200101518181518110610a7a57610a796111b3565b5b6020026020010151838381518110610a9557610a946111b3565b5b6020026020010181815250505b600284610aaf91906112e5565b9350508060010190506109eb565b5080935050505092915050565b5f819050919050565b610adc81610aca565b82525050565b5f602082019050610af55f830184610ad3565b92915050565b5f8115159050919050565b610b0f81610afb565b82525050565b5f602082019050610b285f830184610b06565b92915050565b5f81519050919050565b5f82825260208201905092915050565b5f819050602082019050919050565b5f81519050919050565b5f82825260208201905092915050565b5f819050602082019050919050565b610b8981610aca565b82525050565b5f610b9a8383610b80565b60208301905092915050565b5f602082019050919050565b5f610bbc82610b57565b610bc68185610b61565b9350610bd183610b71565b805f5b83811015610c01578151610be88882610b8f565b9750610bf383610ba6565b925050600181019050610bd4565b5085935050505092915050565b5f610c198383610bb2565b905092915050565b5f602082019050919050565b5f610c3782610b2e565b610c418185610b38565b935083602082028501610c5385610b48565b805f5b85811015610c8e5784840389528151610c6f8582610c0e565b9450610c7a83610c21565b925060208a01995050600181019050610c56565b50829750879550505050505092915050565b5f604082019050610cb35f830185610ad3565b8181036020830152610cc58184610c2d565b90509392505050565b5f604051905090565b5f80fd5b5f80fd5b610ce881610aca565b8114610cf2575f80fd5b50565b5f81359050610d0381610cdf565b92915050565b5f80fd5b5f601f19601f8301169050919050565b7f4e487b71000000000000000000000000000000000000000000000000000000005f52604160045260245ffd5b610d5382610d0d565b810181811067ffffffffffffffff82111715610d7257610d71610d1d565b5b80604052505050565b5f610d84610cce565b9050610d908282610d4a565b919050565b5f67ffffffffffffffff821115610daf57610dae610d1d565b5b602082029050602081019050919050565b5f80fd5b5f610dd6610dd184610d95565b610d7b565b90508083825260208201905060208402830185811115610df957610df8610dc0565b5b835b81811015610e225780610e0e8882610cf5565b845260208401935050602081019050610dfb565b5050509392505050565b5f82601f830112610e4057610e3f610d09565b5b8135610e50848260208601610dc4565b91505092915050565b5f8060408385031215610e6f57610e6e610cd7565b5b5f610e7c85828601610cf5565b925050602083013567ffffffffffffffff811115610e9d57610e9c610cdb565b5b610ea985828601610e2c565b9150509250929050565b5f73ffffffffffffffffffffffffffffffffffffffff82169050919050565b5f610edc82610eb3565b9050919050565b610eec81610ed2565b8114610ef6575f80fd5b50565b5f81359050610f0781610ee3565b92915050565b5f60208284031215610f2257610f21610cd7565b5b5f610f2f84828501610ef9565b91505092915050565b5f819050919050565b610f4a81610f38565b8114610f54575f80fd5b50565b5f81359050610f6581610f41565b92915050565b5f67ffffffffffffffff821115610f8557610f84610d1d565b5b602082029050602081019050919050565b5f610fa8610fa384610f6b565b610d7b565b90508083825260208201905060208402830185811115610fcb57610fca610dc0565b5b835b8181101561101257803567ffffffffffffffff811115610ff057610fef610d09565b5b808601610ffd8982610e2c565b85526020850194505050602081019050610fcd565b5050509392505050565b5f82601f8301126110305761102f610d09565b5b8135611040848260208601610f96565b91505092915050565b5f806040838503121561105f5761105e610cd7565b5b5f61106c85828601610f57565b925050602083013567ffffffffffffffff81111561108d5761108c610cdb565b5b6110998582860161101c565b9150509250929050565b5f82825260208201905092915050565b5f6110bd82610b57565b6110c781856110a3565b93506110d283610b71565b805f5b838110156111025781516110e98882610b8f565b97506110f483610ba6565b9250506001810190506110d5565b5085935050505092915050565b5f6020820190508181035f83015261112781846110b3565b905092915050565b61113881610ed2565b82525050565b5f819050919050565b5f60ff82169050919050565b5f819050919050565b5f61117661117161116c8461113e565b611153565b611147565b9050919050565b6111868161115c565b82525050565b5f60408201905061119f5f83018561112f565b6111ac602083018461117d565b9392505050565b7f4e487b71000000000000000000000000000000000000000000000000000000005f52603260045260245ffd5b5f82825260208201905092915050565b7f77726f6e672044696d73000000000000000000000000000000000000000000005f82015250565b5f611224600a836111e0565b915061122f826111f0565b602082019050919050565b5f6020820190508181035f83015261125181611218565b9050919050565b7f4e487b71000000000000000000000000000000000000000000000000000000005f52601160045260245ffd5b5f61128f82610f38565b915061129a83610f38565b92508282019050808211156112b2576112b1611258565b5b92915050565b7f4e487b71000000000000000000000000000000000000000000000000000000005f52601260045260245ffd5b5f6112ef82610f38565b91506112fa83610f38565b92508261130a576113096112b8565b5b828204905092915050565b5f61131f82610f38565b91507fffffffffffffffffffffffffffffffffffffffffffffffffffffffffffffffff820361135157611350611258565b5b600182019050919050565b61136581610f38565b82525050565b5f60408201905061137e5f83018561112f565b61138b602083018461135c565b9392505050565b5f6040820190506113a55f830185610ad3565b6113b26020830184610ad3565b9392505050565b5f6113c382610f38565b91506113ce83610f38565b92508282039050818111156113e6576113e5611258565b5b92915050565b7f696e76616c6964206c6561662076616c756500000000000000000000000000005f82015250565b5f6114206012836111e0565b915061142b826113ec565b602082019050919050565b5f6020820190508181035f83015261144d81611414565b9050919050565b5f61145e82610f38565b915061146983610f38565b925082611479576114786112b8565b5b82820690509291505056fea2646970667358221220041688bd9c82e2fc0cd3eaa2da8a91f0a80acfca8e2a347475a5dfaffaf57e5164736f6c63430008160033",
			"opcodes": "PUSH1 0x80 PUSH1 0x40 MSTORE CALLVALUE DUP1 ISZERO PUSH2 0xF JUMPI PUSH0 DUP1 REVERT JUMPDEST POP PUSH2 0x14BA DUP1 PUSH2 0x1D PUSH0 CODECOPY PUSH0 RETURN INVALID PUSH1 0x80 PUSH1 0x40 MSTORE CALLVALUE DUP1 ISZERO PUSH2 0xF JUMPI PUSH0 DUP1 REVERT JUMPDEST POP PUSH1 0x4 CALLDATASIZE LT PUSH2 0x7B JUMPI PUSH0 CALLDATALOAD PUSH1 0xE0 SHR DUP1 PUSH4 0x672B122F GT PUSH2 0x59 JUMPI DUP1 PUSH4 0x672B122F EQ PUSH2 0xC5 JUMPI DUP1 PUSH4 0x6DF4D241 EQ PUSH2 0xE4 JUMPI DUP1 PUSH4 0x73B2E80E EQ PUSH2 0x114 JUMPI DUP1 PUSH4 0xA6FAE3AB EQ PUSH2 0x144 JUMPI PUSH2 0x7B JUMP JUMPDEST DUP1 PUSH4 0x3EDBFF79 EQ PUSH2 0x7F JUMPI DUP1 PUSH4 0x5909C12F EQ PUSH2 0x89 JUMPI DUP1 PUSH4 0x6566B8B6 EQ PUSH2 0xA7 JUMPI JUMPDEST PUSH0 DUP1 REVERT JUMPDEST PUSH2 0x87 PUSH2 0x174 JUMP JUMPDEST STOP JUMPDEST PUSH2 0x91 PUSH2 0x189 JUMP JUMPDEST PUSH1 0x40 MLOAD PUSH2 0x9E SWAP2 SWAP1 PUSH2 0xAE2 JUMP JUMPDEST PUSH1 0x40 MLOAD DUP1 SWAP2 SUB SWAP1 RETURN JUMPDEST PUSH2 0xAF PUSH2 0x18E JUMP JUMPDEST PUSH1 0x40 MLOAD PUSH2 0xBC SWAP2 SWAP1 PUSH2 0xB15 JUMP JUMPDEST PUSH1 0x40 MLOAD DUP1 SWAP2 SUB SWAP1 RETURN JUMPDEST PUSH2 0xCD PUSH2 0x1FB JUMP JUMPDEST PUSH1 0x40 MLOAD PUSH2 0xDB SWAP3 SWAP2 SWAP1 PUSH2 0xCA0 JUMP JUMPDEST PUSH1 0x40 MLOAD DUP1 SWAP2 SUB SWAP1 RETURN JUMPDEST PUSH2 0xFE PUSH1 0x4 DUP1 CALLDATASIZE SUB DUP2 ADD SWAP1 PUSH2 0xF9 SWAP2 SWAP1 PUSH2 0xE59 JUMP JUMPDEST PUSH2 0x854 JUMP JUMPDEST PUSH1 0x40 MLOAD PUSH2 0x10B SWAP2 SWAP1 PUSH2 0xB15 JUMP JUMPDEST PUSH1 0x40 MLOAD DUP1 SWAP2 SUB SWAP1 RETURN JUMPDEST PUSH2 0x12E PUSH1 0x4 DUP1 CALLDATASIZE SUB DUP2 ADD SWAP1 PUSH2 0x129 SWAP2 SWAP1 PUSH2 0xF0D JUMP JUMPDEST PUSH2 0x969 JUMP JUMPDEST PUSH1 0x40 MLOAD PUSH2 0x13B SWAP2 SWAP1 PUSH2 0xB15 JUMP JUMPDEST PUSH1 0x40 MLOAD DUP1 SWAP2 SUB SWAP1 RETURN JUMPDEST PUSH2 0x15E PUSH1 0x4 DUP1 CALLDATASIZE SUB DUP2 ADD SWAP1 PUSH2 0x159 SWAP2 SWAP1 PUSH2 0x1049 JUMP JUMPDEST PUSH2 0x986 JUMP JUMPDEST PUSH1 0x40 MLOAD PUSH2 0x16B SWAP2 SWAP1 PUSH2 0x110F JUMP JUMPDEST PUSH1 0x40 MLOAD DUP1 SWAP2 SUB SWAP1 RETURN JUMPDEST PUSH0 PUSH2 0x17D PUSH2 0x1FB JUMP JUMPDEST POP SWAP1 POP DUP1 PUSH0 DUP2 SWAP1 SSTORE POP POP JUMP JUMPDEST PUSH0 SLOAD DUP2 JUMP JUMPDEST PUSH0 DUP1 PUSH2 0x198 PUSH2 0x1FB JUMP JUMPDEST SWAP2 POP POP PUSH0 PUSH2 0x1A6 PUSH0 DUP4 PUSH2 0x986 JUMP JUMPDEST SWAP1 POP PUSH0 PUSH20 0x5B38DA6A701C568545DCFCB03FCB875F56BEDDC4 PUSH0 PUSH1 0x40 MLOAD PUSH1 0x20 ADD PUSH2 0x1D0 SWAP3 SWAP2 SWAP1 PUSH2 0x118C JUMP JUMPDEST PUSH1 0x40 MLOAD PUSH1 0x20 DUP2 DUP4 SUB SUB DUP2 MSTORE SWAP1 PUSH1 0x40 MSTORE DUP1 MLOAD SWAP1 PUSH1 0x20 ADD KECCAK256 NOT SWAP1 POP PUSH2 0x1F3 DUP2 DUP4 PUSH2 0x854 JUMP JUMPDEST SWAP4 POP POP POP POP SWAP1 JUMP JUMPDEST PUSH0 PUSH1 0x60 PUSH0 PUSH1 0x4 PUSH8 0xFFFFFFFFFFFFFFFF DUP2 GT ISZERO PUSH2 0x21A JUMPI PUSH2 0x219 PUSH2 0xD1D JUMP JUMPDEST JUMPDEST PUSH1 0x40 MLOAD SWAP1 DUP1 DUP3 MSTORE DUP1 PUSH1 0x20 MUL PUSH1 0x20 ADD DUP3 ADD PUSH1 0x40 MSTORE DUP1 ISZERO PUSH2 0x248 JUMPI DUP2 PUSH1 0x20 ADD PUSH1 0x20 DUP3 MUL DUP1 CALLDATASIZE DUP4 CALLDATACOPY DUP1 DUP3 ADD SWAP2 POP POP SWAP1 POP JUMPDEST POP SWAP1 POP PUSH20 0x5B38DA6A701C568545DCFCB03FCB875F56BEDDC4 DUP2 PUSH0 DUP2 MLOAD DUP2 LT PUSH2 0x273 JUMPI PUSH2 0x272 PUSH2 0x11B3 JUMP JUMPDEST JUMPDEST PUSH1 0x20 MUL PUSH1 0x20 ADD ADD SWAP1 PUSH20 0xFFFFFFFFFFFFFFFFFFFFFFFFFFFFFFFFFFFFFFFF AND SWAP1 DUP2 PUSH20 0xFFFFFFFFFFFFFFFFFFFFFFFFFFFFFFFFFFFFFFFF AND DUP2 MSTORE POP POP PUSH1 0x1 DUP2 PUSH1 0x1 DUP2 MLOAD DUP2 LT PUSH2 0x2C3 JUMPI PUSH2 0x2C2 PUSH2 0x11B3 JUMP JUMPDEST JUMPDEST PUSH1 0x20 MUL PUSH1 0x20 ADD ADD SWAP1 PUSH20 0xFFFFFFFFFFFFFFFFFFFFFFFFFFFFFFFFFFFFFFFF AND SWAP1 DUP2 PUSH20 0xFFFFFFFFFFFFFFFFFFFFFFFFFFFFFFFFFFFFFFFF AND DUP2 MSTORE POP POP PUSH1 0x2 DUP2 PUSH1 0x2 DUP2 MLOAD DUP2 LT PUSH2 0x313 JUMPI PUSH2 0x312 PUSH2 0x11B3 JUMP JUMPDEST JUMPDEST PUSH1 0x20 MUL PUSH1 0x20 ADD ADD SWAP1 PUSH20 0xFFFFFFFFFFFFFFFFFFFFFFFFFFFFFFFFFFFFFFFF AND SWAP1 DUP2 PUSH20 0xFFFFFFFFFFFFFFFFFFFFFFFFFFFFFFFFFFFFFFFF AND DUP2 MSTORE POP POP PUSH1 0x3 DUP2 PUSH1 0x3 DUP2 MLOAD DUP2 LT PUSH2 0x363 JUMPI PUSH2 0x362 PUSH2 0x11B3 JUMP JUMPDEST JUMPDEST PUSH1 0x20 MUL PUSH1 0x20 ADD ADD SWAP1 PUSH20 0xFFFFFFFFFFFFFFFFFFFFFFFFFFFFFFFFFFFFFFFF AND SWAP1 DUP2 PUSH20 0xFFFFFFFFFFFFFFFFFFFFFFFFFFFFFFFFFFFFFFFF AND DUP2 MSTORE POP POP PUSH0 PUSH1 0x4 PUSH8 0xFFFFFFFFFFFFFFFF DUP2 GT ISZERO PUSH2 0x3B9 JUMPI PUSH2 0x3B8 PUSH2 0xD1D JUMP JUMPDEST JUMPDEST PUSH1 0x40 MLOAD SWAP1 DUP1 DUP3 MSTORE DUP1 PUSH1 0x20 MUL PUSH1 0x20 ADD DUP3 ADD PUSH1 0x40 MSTORE DUP1 ISZERO PUSH2 0x3E7 JUMPI DUP2 PUSH1 0x20 ADD PUSH1 0x20 DUP3 MUL DUP1 CALLDATASIZE DUP4 CALLDATACOPY DUP1 DUP3 ADD SWAP2 POP POP SWAP1 POP JUMPDEST POP SWAP1 POP PUSH0 DUP2 PUSH0 DUP2 MLOAD DUP2 LT PUSH2 0x3FE JUMPI PUSH2 0x3FD PUSH2 0x11B3 JUMP JUMPDEST JUMPDEST PUSH1 0x20 MUL PUSH1 0x20 ADD ADD DUP2 DUP2 MSTORE POP POP PUSH1 0x1 DUP2 PUSH1 0x1 DUP2 MLOAD DUP2 LT PUSH2 0x420 JUMPI PUSH2 0x41F PUSH2 0x11B3 JUMP JUMPDEST JUMPDEST PUSH1 0x20 MUL PUSH1 0x20 ADD ADD DUP2 DUP2 MSTORE POP POP PUSH1 0x2 DUP2 PUSH1 0x2 DUP2 MLOAD DUP2 LT PUSH2 0x442 JUMPI PUSH2 0x441 PUSH2 0x11B3 JUMP JUMPDEST JUMPDEST PUSH1 0x20 MUL PUSH1 0x20 ADD ADD DUP2 DUP2 MSTORE POP POP PUSH1 0x3 DUP2 PUSH1 0x3 DUP2 MLOAD DUP2 LT PUSH2 0x464 JUMPI PUSH2 0x463 PUSH2 0x11B3 JUMP JUMPDEST JUMPDEST PUSH1 0x20 MUL PUSH1 0x20 ADD ADD DUP2 DUP2 MSTORE POP POP PUSH0 DUP3 MLOAD GT DUP1 ISZERO PUSH2 0x481 JUMPI POP DUP1 MLOAD DUP3 MLOAD EQ JUMPDEST PUSH2 0x4C0 JUMPI PUSH1 0x40 MLOAD PUSH32 0x8C379A000000000000000000000000000000000000000000000000000000000 DUP2 MSTORE PUSH1 0x4 ADD PUSH2 0x4B7 SWAP1 PUSH2 0x123A JUMP JUMPDEST PUSH1 0x40 MLOAD DUP1 SWAP2 SUB SWAP1 REVERT JUMPDEST PUSH0 DUP1 DUP4 MLOAD SWAP1 POP JUMPDEST PUSH0 DUP2 EQ PUSH2 0x509 JUMPI PUSH1 0x1 DUP2 EQ PUSH2 0x4F4 JUMPI PUSH1 0x2 PUSH1 0x1 DUP3 PUSH2 0x4E5 SWAP2 SWAP1 PUSH2 0x1285 JUMP JUMPDEST PUSH2 0x4EF SWAP2 SWAP1 PUSH2 0x12E5 JUMP JUMPDEST PUSH2 0x4F6 JUMP JUMPDEST PUSH0 JUMPDEST SWAP1 POP DUP2 PUSH2 0x502 SWAP1 PUSH2 0x1315 JUMP JUMPDEST SWAP2 POP PUSH2 0x4C7 JUMP JUMPDEST POP DUP1 PUSH8 0xFFFFFFFFFFFFFFFF DUP2 GT ISZERO PUSH2 0x524 JUMPI PUSH2 0x523 PUSH2 0xD1D JUMP JUMPDEST JUMPDEST PUSH1 0x40 MLOAD SWAP1 DUP1 DUP3 MSTORE DUP1 PUSH1 0x20 MUL PUSH1 0x20 ADD DUP3 ADD PUSH1 0x40 MSTORE DUP1 ISZERO PUSH2 0x557 JUMPI DUP2 PUSH1 0x20 ADD JUMPDEST PUSH1 0x60 DUP2 MSTORE PUSH1 0x20 ADD SWAP1 PUSH1 0x1 SWAP1 SUB SWAP1 DUP2 PUSH2 0x542 JUMPI SWAP1 POP JUMPDEST POP SWAP4 POP PUSH0 DUP4 MLOAD PUSH8 0xFFFFFFFFFFFFFFFF DUP2 GT ISZERO PUSH2 0x576 JUMPI PUSH2 0x575 PUSH2 0xD1D JUMP JUMPDEST JUMPDEST PUSH1 0x40 MLOAD SWAP1 DUP1 DUP3 MSTORE DUP1 PUSH1 0x20 MUL PUSH1 0x20 ADD DUP3 ADD PUSH1 0x40 MSTORE DUP1 ISZERO PUSH2 0x5A4 JUMPI DUP2 PUSH1 0x20 ADD PUSH1 0x20 DUP3 MUL DUP1 CALLDATASIZE DUP4 CALLDATACOPY DUP1 DUP3 ADD SWAP2 POP POP SWAP1 POP JUMPDEST POP DUP6 PUSH0 DUP2 MLOAD DUP2 LT PUSH2 0x5B8 JUMPI PUSH2 0x5B7 PUSH2 0x11B3 JUMP JUMPDEST JUMPDEST PUSH1 0x20 MUL PUSH1 0x20 ADD ADD DUP2 SWAP1 MSTORE SWAP1 POP PUSH0 JUMPDEST DUP5 MLOAD DUP2 LT ISZERO PUSH2 0x657 JUMPI DUP5 DUP2 DUP2 MLOAD DUP2 LT PUSH2 0x5E2 JUMPI PUSH2 0x5E1 PUSH2 0x11B3 JUMP JUMPDEST JUMPDEST PUSH1 0x20 MUL PUSH1 0x20 ADD ADD MLOAD DUP5 DUP3 DUP2 MLOAD DUP2 LT PUSH2 0x5FD JUMPI PUSH2 0x5FC PUSH2 0x11B3 JUMP JUMPDEST JUMPDEST PUSH1 0x20 MUL PUSH1 0x20 ADD ADD MLOAD PUSH1 0x40 MLOAD PUSH1 0x20 ADD PUSH2 0x616 SWAP3 SWAP2 SWAP1 PUSH2 0x136B JUMP JUMPDEST PUSH1 0x40 MLOAD PUSH1 0x20 DUP2 DUP4 SUB SUB DUP2 MSTORE SWAP1 PUSH1 0x40 MSTORE DUP1 MLOAD SWAP1 PUSH1 0x20 ADD KECCAK256 NOT DUP3 DUP3 DUP2 MLOAD DUP2 LT PUSH2 0x640 JUMPI PUSH2 0x63F PUSH2 0x11B3 JUMP JUMPDEST JUMPDEST PUSH1 0x20 MUL PUSH1 0x20 ADD ADD DUP2 DUP2 MSTORE POP POP DUP1 PUSH1 0x1 ADD SWAP1 POP PUSH2 0x5C6 JUMP JUMPDEST POP PUSH0 PUSH1 0x1 SWAP1 POP JUMPDEST DUP3 DUP2 LT ISZERO PUSH2 0x808 JUMPI PUSH0 PUSH1 0x2 PUSH1 0x1 DUP5 MLOAD PUSH2 0x677 SWAP2 SWAP1 PUSH2 0x1285 JUMP JUMPDEST PUSH2 0x681 SWAP2 SWAP1 PUSH2 0x12E5 JUMP JUMPDEST SWAP1 POP PUSH0 DUP2 PUSH8 0xFFFFFFFFFFFFFFFF DUP2 GT ISZERO PUSH2 0x69E JUMPI PUSH2 0x69D PUSH2 0xD1D JUMP JUMPDEST JUMPDEST PUSH1 0x40 MLOAD SWAP1 DUP1 DUP3 MSTORE DUP1 PUSH1 0x20 MUL PUSH1 0x20 ADD DUP3 ADD PUSH1 0x40 MSTORE DUP1 ISZERO PUSH2 0x6CC JUMPI DUP2 PUSH1 0x20 ADD PUSH1 0x20 DUP3 MUL DUP1 CALLDATASIZE DUP4 CALLDATACOPY DUP1 DUP3 ADD SWAP2 POP POP SWAP1 POP JUMPDEST POP SWAP1 POP PUSH0 JUMPDEST DUP5 MLOAD DUP2 LT ISZERO PUSH2 0x7D8 JUMPI PUSH0 DUP6 DUP3 DUP2 MLOAD DUP2 LT PUSH2 0x6EE JUMPI PUSH2 0x6ED PUSH2 0x11B3 JUMP JUMPDEST JUMPDEST PUSH1 0x20 MUL PUSH1 0x20 ADD ADD MLOAD SWAP1 POP PUSH0 DUP7 MLOAD PUSH1 0x1 DUP5 PUSH2 0x708 SWAP2 SWAP1 PUSH2 0x1285 JUMP JUMPDEST LT PUSH2 0x715 JUMPI PUSH0 DUP1 SHL PUSH2 0x73D JUMP JUMPDEST DUP7 PUSH1 0x1 DUP5 PUSH2 0x723 SWAP2 SWAP1 PUSH2 0x1285 JUMP JUMPDEST DUP2 MLOAD DUP2 LT PUSH2 0x734 JUMPI PUSH2 0x733 PUSH2 0x11B3 JUMP JUMPDEST JUMPDEST PUSH1 0x20 MUL PUSH1 0x20 ADD ADD MLOAD JUMPDEST SWAP1 POP DUP1 DUP3 GT PUSH2 0x76D JUMPI DUP2 DUP2 PUSH1 0x40 MLOAD PUSH1 0x20 ADD PUSH2 0x759 SWAP3 SWAP2 SWAP1 PUSH2 0x1392 JUMP JUMPDEST PUSH1 0x40 MLOAD PUSH1 0x20 DUP2 DUP4 SUB SUB DUP2 MSTORE SWAP1 PUSH1 0x40 MSTORE PUSH2 0x790 JUMP JUMPDEST DUP1 DUP3 PUSH1 0x40 MLOAD PUSH1 0x20 ADD PUSH2 0x780 SWAP3 SWAP2 SWAP1 PUSH2 0x1392 JUMP JUMPDEST PUSH1 0x40 MLOAD PUSH1 0x20 DUP2 DUP4 SUB SUB DUP2 MSTORE SWAP1 PUSH1 0x40 MSTORE JUMPDEST DUP1 MLOAD SWAP1 PUSH1 0x20 ADD KECCAK256 DUP5 PUSH1 0x2 DUP6 PUSH2 0x7A5 SWAP2 SWAP1 PUSH2 0x12E5 JUMP JUMPDEST DUP2 MLOAD DUP2 LT PUSH2 0x7B6 JUMPI PUSH2 0x7B5 PUSH2 0x11B3 JUMP JUMPDEST JUMPDEST PUSH1 0x20 MUL PUSH1 0x20 ADD ADD DUP2 DUP2 MSTORE POP POP POP POP PUSH1 0x2 DUP2 PUSH2 0x7D1 SWAP2 SWAP1 PUSH2 0x1285 JUMP JUMPDEST SWAP1 POP PUSH2 0x6D1 JUMP JUMPDEST POP DUP1 SWAP4 POP DUP4 DUP9 DUP5 DUP2 MLOAD DUP2 LT PUSH2 0x7F0 JUMPI PUSH2 0x7EF PUSH2 0x11B3 JUMP JUMPDEST JUMPDEST PUSH1 0x20 MUL PUSH1 0x20 ADD ADD DUP2 SWAP1 MSTORE POP POP POP DUP1 PUSH1 0x1 ADD SWAP1 POP PUSH2 0x65E JUMP JUMPDEST POP DUP5 PUSH1 0x1 DUP4 PUSH2 0x817 SWAP2 SWAP1 PUSH2 0x13B9 JUMP JUMPDEST DUP2 MLOAD DUP2 LT PUSH2 0x828 JUMPI PUSH2 0x827 PUSH2 0x11B3 JUMP JUMPDEST JUMPDEST PUSH1 0x20 MUL PUSH1 0x20 ADD ADD MLOAD PUSH0 DUP2 MLOAD DUP2 LT PUSH2 0x842 JUMPI PUSH2 0x841 PUSH2 0x11B3 JUMP JUMPDEST JUMPDEST PUSH1 0x20 MUL PUSH1 0x20 ADD ADD MLOAD SWAP6 POP POP POP POP POP SWAP1 SWAP2 JUMP JUMPDEST PUSH0 DUP1 PUSH0 SHL DUP4 SUB PUSH2 0x899 JUMPI PUSH1 0x40 MLOAD PUSH32 0x8C379A000000000000000000000000000000000000000000000000000000000 DUP2 MSTORE PUSH1 0x4 ADD PUSH2 0x890 SWAP1 PUSH2 0x1436 JUMP JUMPDEST PUSH1 0x40 MLOAD DUP1 SWAP2 SUB SWAP1 REVERT JUMPDEST PUSH0 DUP4 SWAP1 POP PUSH0 JUMPDEST DUP4 MLOAD DUP2 LT ISZERO PUSH2 0x95B JUMPI DUP4 DUP2 DUP2 MLOAD DUP2 LT PUSH2 0x8BB JUMPI PUSH2 0x8BA PUSH2 0x11B3 JUMP JUMPDEST JUMPDEST PUSH1 0x20 MUL PUSH1 0x20 ADD ADD MLOAD DUP3 GT PUSH2 0x90A JUMPI DUP2 DUP5 DUP3 DUP2 MLOAD DUP2 LT PUSH2 0x8DD JUMPI PUSH2 0x8DC PUSH2 0x11B3 JUMP JUMPDEST JUMPDEST PUSH1 0x20 MUL PUSH1 0x20 ADD ADD MLOAD PUSH1 0x40 MLOAD PUSH1 0x20 ADD PUSH2 0x8F6 SWAP3 SWAP2 SWAP1 PUSH2 0x1392 JUMP JUMPDEST PUSH1 0x40 MLOAD PUSH1 0x20 DUP2 DUP4 SUB SUB DUP2 MSTORE SWAP1 PUSH1 0x40 MSTORE PUSH2 0x947 JUMP JUMPDEST DUP4 DUP2 DUP2 MLOAD DUP2 LT PUSH2 0x91D JUMPI PUSH2 0x91C PUSH2 0x11B3 JUMP JUMPDEST JUMPDEST PUSH1 0x20 MUL PUSH1 0x20 ADD ADD MLOAD DUP3 PUSH1 0x40 MLOAD PUSH1 0x20 ADD PUSH2 0x937 SWAP3 SWAP2 SWAP1 PUSH2 0x1392 JUMP JUMPDEST PUSH1 0x40 MLOAD PUSH1 0x20 DUP2 DUP4 SUB SUB DUP2 MSTORE SWAP1 PUSH1 0x40 MSTORE JUMPDEST DUP1 MLOAD SWAP1 PUSH1 0x20 ADD KECCAK256 SWAP2 POP DUP1 PUSH1 0x1 ADD SWAP1 POP PUSH2 0x89F JUMP JUMPDEST POP PUSH0 SLOAD DUP2 EQ SWAP2 POP POP SWAP3 SWAP2 POP POP JUMP JUMPDEST PUSH1 0x1 PUSH1 0x20 MSTORE DUP1 PUSH0 MSTORE PUSH1 0x40 PUSH0 KECCAK256 PUSH0 SWAP2 POP SLOAD SWAP1 PUSH2 0x100 EXP SWAP1 DIV PUSH1 0xFF AND DUP2 JUMP JUMPDEST PUSH1 0x60 PUSH0 DUP3 MLOAD SWAP1 POP PUSH0 DUP5 SWAP1 POP PUSH0 PUSH1 0x1 DUP4 PUSH2 0x99F SWAP2 SWAP1 PUSH2 0x13B9 JUMP JUMPDEST PUSH8 0xFFFFFFFFFFFFFFFF DUP2 GT ISZERO PUSH2 0x9B8 JUMPI PUSH2 0x9B7 PUSH2 0xD1D JUMP JUMPDEST JUMPDEST PUSH1 0x40 MLOAD SWAP1 DUP1 DUP3 MSTORE DUP1 PUSH1 0x20 MUL PUSH1 0x20 ADD DUP3 ADD PUSH1 0x40 MSTORE DUP1 ISZERO PUSH2 0x9E6 JUMPI DUP2 PUSH1 0x20 ADD PUSH1 0x20 DUP3 MUL DUP1 CALLDATASIZE DUP4 CALLDATACOPY DUP1 DUP3 ADD SWAP2 POP POP SWAP1 POP JUMPDEST POP SWAP1 POP PUSH0 JUMPDEST DUP2 MLOAD DUP2 LT ISZERO PUSH2 0xABD JUMPI PUSH0 DUP1 PUSH1 0x2 DUP6 PUSH2 0xA03 SWAP2 SWAP1 PUSH2 0x1454 JUMP JUMPDEST EQ PUSH2 0xA1A JUMPI PUSH1 0x1 DUP5 PUSH2 0xA15 SWAP2 SWAP1 PUSH2 0x13B9 JUMP JUMPDEST PUSH2 0xA28 JUMP JUMPDEST PUSH1 0x1 DUP5 PUSH2 0xA27 SWAP2 SWAP1 PUSH2 0x1285 JUMP JUMPDEST JUMPDEST SWAP1 POP DUP7 DUP3 DUP2 MLOAD DUP2 LT PUSH2 0xA3D JUMPI PUSH2 0xA3C PUSH2 0x11B3 JUMP JUMPDEST JUMPDEST PUSH1 0x20 MUL PUSH1 0x20 ADD ADD MLOAD MLOAD DUP2 LT ISZERO PUSH2 0xAA2 JUMPI DUP7 DUP3 DUP2 MLOAD DUP2 LT PUSH2 0xA60 JUMPI PUSH2 0xA5F PUSH2 0x11B3 JUMP JUMPDEST JUMPDEST PUSH1 0x20 MUL PUSH1 0x20 ADD ADD MLOAD DUP2 DUP2 MLOAD DUP2 LT PUSH2 0xA7A JUMPI PUSH2 0xA79 PUSH2 0x11B3 JUMP JUMPDEST JUMPDEST PUSH1 0x20 MUL PUSH1 0x20 ADD ADD MLOAD DUP4 DUP4 DUP2 MLOAD DUP2 LT PUSH2 0xA95 JUMPI PUSH2 0xA94 PUSH2 0x11B3 JUMP JUMPDEST JUMPDEST PUSH1 0x20 MUL PUSH1 0x20 ADD ADD DUP2 DUP2 MSTORE POP POP JUMPDEST PUSH1 0x2 DUP5 PUSH2 0xAAF SWAP2 SWAP1 PUSH2 0x12E5 JUMP JUMPDEST SWAP4 POP POP DUP1 PUSH1 0x1 ADD SWAP1 POP PUSH2 0x9EB JUMP JUMPDEST POP DUP1 SWAP4 POP POP POP POP SWAP3 SWAP2 POP POP JUMP JUMPDEST PUSH0 DUP2 SWAP1 POP SWAP2 SWAP1 POP JUMP JUMPDEST PUSH2 0xADC DUP2 PUSH2 0xACA JUMP JUMPDEST DUP3 MSTORE POP POP JUMP JUMPDEST PUSH0 PUSH1 0x20 DUP3 ADD SWAP1 POP PUSH2 0xAF5 PUSH0 DUP4 ADD DUP5 PUSH2 0xAD3 JUMP JUMPDEST SWAP3 SWAP2 POP POP JUMP JUMPDEST PUSH0 DUP2 ISZERO ISZERO SWAP1 POP SWAP2 SWAP1 POP JUMP JUMPDEST PUSH2 0xB0F DUP2 PUSH2 0xAFB JUMP JUMPDEST DUP3 MSTORE POP POP JUMP JUMPDEST PUSH0 PUSH1 0x20 DUP3 ADD SWAP1 POP PUSH2 0xB28 PUSH0 DUP4 ADD DUP5 PUSH2 0xB06 JUMP JUMPDEST SWAP3 SWAP2 POP POP JUMP JUMPDEST PUSH0 DUP2 MLOAD SWAP1 POP SWAP2 SWAP1 POP JUMP JUMPDEST PUSH0 DUP3 DUP3 MSTORE PUSH1 0x20 DUP3 ADD SWAP1 POP SWAP3 SWAP2 POP POP JUMP JUMPDEST PUSH0 DUP2 SWAP1 POP PUSH1 0x20 DUP3 ADD SWAP1 POP SWAP2 SWAP1 POP JUMP JUMPDEST PUSH0 DUP2 MLOAD SWAP1 POP SWAP2 SWAP1 POP JUMP JUMPDEST PUSH0 DUP3 DUP3 MSTORE PUSH1 0x20 DUP3 ADD SWAP1 POP SWAP3 SWAP2 POP POP JUMP JUMPDEST PUSH0 DUP2 SWAP1 POP PUSH1 0x20 DUP3 ADD SWAP1 POP SWAP2 SWAP1 POP JUMP JUMPDEST PUSH2 0xB89 DUP2 PUSH2 0xACA JUMP JUMPDEST DUP3 MSTORE POP POP JUMP JUMPDEST PUSH0 PUSH2 0xB9A DUP4 DUP4 PUSH2 0xB80 JUMP JUMPDEST PUSH1 0x20 DUP4 ADD SWAP1 POP SWAP3 SWAP2 POP POP JUMP JUMPDEST PUSH0 PUSH1 0x20 DUP3 ADD SWAP1 POP SWAP2 SWAP1 POP JUMP JUMPDEST PUSH0 PUSH2 0xBBC DUP3 PUSH2 0xB57 JUMP JUMPDEST PUSH2 0xBC6 DUP2 DUP6 PUSH2 0xB61 JUMP JUMPDEST SWAP4 POP PUSH2 0xBD1 DUP4 PUSH2 0xB71 JUMP JUMPDEST DUP1 PUSH0 JUMPDEST DUP4 DUP2 LT ISZERO PUSH2 0xC01 JUMPI DUP2 MLOAD PUSH2 0xBE8 DUP9 DUP3 PUSH2 0xB8F JUMP JUMPDEST SWAP8 POP PUSH2 0xBF3 DUP4 PUSH2 0xBA6 JUMP JUMPDEST SWAP3 POP POP PUSH1 0x1 DUP2 ADD SWAP1 POP PUSH2 0xBD4 JUMP JUMPDEST POP DUP6 SWAP4 POP POP POP POP SWAP3 SWAP2 POP POP JUMP JUMPDEST PUSH0 PUSH2 0xC19 DUP4 DUP4 PUSH2 0xBB2 JUMP JUMPDEST SWAP1 POP SWAP3 SWAP2 POP POP JUMP JUMPDEST PUSH0 PUSH1 0x20 DUP3 ADD SWAP1 POP SWAP2 SWAP1 POP JUMP JUMPDEST PUSH0 PUSH2 0xC37 DUP3 PUSH2 0xB2E JUMP JUMPDEST PUSH2 0xC41 DUP2 DUP6 PUSH2 0xB38 JUMP JUMPDEST SWAP4 POP DUP4 PUSH1 0x20 DUP3 MUL DUP6 ADD PUSH2 0xC53 DUP6 PUSH2 0xB48 JUMP JUMPDEST DUP1 PUSH0 JUMPDEST DUP6 DUP2 LT ISZERO PUSH2 0xC8E JUMPI DUP5 DUP5 SUB DUP10 MSTORE DUP2 MLOAD PUSH2 0xC6F DUP6 DUP3 PUSH2 0xC0E JUMP JUMPDEST SWAP5 POP PUSH2 0xC7A DUP4 PUSH2 0xC21 JUMP JUMPDEST SWAP3 POP PUSH1 0x20 DUP11 ADD SWAP10 POP POP PUSH1 0x1 DUP2 ADD SWAP1 POP PUSH2 0xC56 JUMP JUMPDEST POP DUP3 SWAP8 POP DUP8 SWAP6 POP POP POP POP POP POP SWAP3 SWAP2 POP POP JUMP JUMPDEST PUSH0 PUSH1 0x40 DUP3 ADD SWAP1 POP PUSH2 0xCB3 PUSH0 DUP4 ADD DUP6 PUSH2 0xAD3 JUMP JUMPDEST DUP2 DUP2 SUB PUSH1 0x20 DUP4 ADD MSTORE PUSH2 0xCC5 DUP2 DUP5 PUSH2 0xC2D JUMP JUMPDEST SWAP1 POP SWAP4 SWAP3 POP POP POP JUMP JUMPDEST PUSH0 PUSH1 0x40 MLOAD SWAP1 POP SWAP1 JUMP JUMPDEST PUSH0 DUP1 REVERT JUMPDEST PUSH0 DUP1 REVERT JUMPDEST PUSH2 0xCE8 DUP2 PUSH2 0xACA JUMP JUMPDEST DUP2 EQ PUSH2 0xCF2 JUMPI PUSH0 DUP1 REVERT JUMPDEST POP JUMP JUMPDEST PUSH0 DUP2 CALLDATALOAD SWAP1 POP PUSH2 0xD03 DUP2 PUSH2 0xCDF JUMP JUMPDEST SWAP3 SWAP2 POP POP JUMP JUMPDEST PUSH0 DUP1 REVERT JUMPDEST PUSH0 PUSH1 0x1F NOT PUSH1 0x1F DUP4 ADD AND SWAP1 POP SWAP2 SWAP1 POP JUMP JUMPDEST PUSH32 0x4E487B7100000000000000000000000000000000000000000000000000000000 PUSH0 MSTORE PUSH1 0x41 PUSH1 0x4 MSTORE PUSH1 0x24 PUSH0 REVERT JUMPDEST PUSH2 0xD53 DUP3 PUSH2 0xD0D JUMP JUMPDEST DUP2 ADD DUP2 DUP2 LT PUSH8 0xFFFFFFFFFFFFFFFF DUP3 GT OR ISZERO PUSH2 0xD72 JUMPI PUSH2 0xD71 PUSH2 0xD1D JUMP JUMPDEST JUMPDEST DUP1 PUSH1 0x40 MSTORE POP POP POP JUMP JUMPDEST PUSH0 PUSH2 0xD84 PUSH2 0xCCE JUMP JUMPDEST SWAP1 POP PUSH2 0xD90 DUP3 DUP3 PUSH2 0xD4A JUMP JUMPDEST SWAP2 SWAP1 POP JUMP JUMPDEST PUSH0 PUSH8 0xFFFFFFFFFFFFFFFF DUP3 GT ISZERO PUSH2 0xDAF JUMPI PUSH2 0xDAE PUSH2 0xD1D JUMP JUMPDEST JUMPDEST PUSH1 0x20 DUP3 MUL SWAP1 POP PUSH1 0x20 DUP2 ADD SWAP1 POP SWAP2 SWAP1 POP JUMP JUMPDEST PUSH0 DUP1 REVERT JUMPDEST PUSH0 PUSH2 0xDD6 PUSH2 0xDD1 DUP5 PUSH2 0xD95 JUMP JUMPDEST PUSH2 0xD7B JUMP JUMPDEST SWAP1 POP DUP1 DUP4 DUP3 MSTORE PUSH1 0x20 DUP3 ADD SWAP1 POP PUSH1 0x20 DUP5 MUL DUP4 ADD DUP6 DUP2 GT ISZERO PUSH2 0xDF9 JUMPI PUSH2 0xDF8 PUSH2 0xDC0 JUMP JUMPDEST JUMPDEST DUP4 JUMPDEST DUP2 DUP2 LT ISZERO PUSH2 0xE22 JUMPI DUP1 PUSH2 0xE0E DUP9 DUP3 PUSH2 0xCF5 JUMP JUMPDEST DUP5 MSTORE PUSH1 0x20 DUP5 ADD SWAP4 POP POP PUSH1 0x20 DUP2 ADD SWAP1 POP PUSH2 0xDFB JUMP JUMPDEST POP POP POP SWAP4 SWAP3 POP POP POP JUMP JUMPDEST PUSH0 DUP3 PUSH1 0x1F DUP4 ADD SLT PUSH2 0xE40 JUMPI PUSH2 0xE3F PUSH2 0xD09 JUMP JUMPDEST JUMPDEST DUP2 CALLDATALOAD PUSH2 0xE50 DUP5 DUP3 PUSH1 0x20 DUP7 ADD PUSH2 0xDC4 JUMP JUMPDEST SWAP2 POP POP SWAP3 SWAP2 POP POP JUMP JUMPDEST PUSH0 DUP1 PUSH1 0x40 DUP4 DUP6 SUB SLT ISZERO PUSH2 0xE6F JUMPI PUSH2 0xE6E PUSH2 0xCD7 JUMP JUMPDEST JUMPDEST PUSH0 PUSH2 0xE7C DUP6 DUP3 DUP7 ADD PUSH2 0xCF5 JUMP JUMPDEST SWAP3 POP POP PUSH1 0x20 DUP4 ADD CALLDATALOAD PUSH8 0xFFFFFFFFFFFFFFFF DUP2 GT ISZERO PUSH2 0xE9D JUMPI PUSH2 0xE9C PUSH2 0xCDB JUMP JUMPDEST JUMPDEST PUSH2 0xEA9 DUP6 DUP3 DUP7 ADD PUSH2 0xE2C JUMP JUMPDEST SWAP2 POP POP SWAP3 POP SWAP3 SWAP1 POP JUMP JUMPDEST PUSH0 PUSH20 0xFFFFFFFFFFFFFFFFFFFFFFFFFFFFFFFFFFFFFFFF DUP3 AND SWAP1 POP SWAP2 SWAP1 POP JUMP JUMPDEST PUSH0 PUSH2 0xEDC DUP3 PUSH2 0xEB3 JUMP JUMPDEST SWAP1 POP SWAP2 SWAP1 POP JUMP JUMPDEST PUSH2 0xEEC DUP2 PUSH2 0xED2 JUMP JUMPDEST DUP2 EQ PUSH2 0xEF6 JUMPI PUSH0 DUP1 REVERT JUMPDEST POP JUMP JUMPDEST PUSH0 DUP2 CALLDATALOAD SWAP1 POP PUSH2 0xF07 DUP2 PUSH2 0xEE3 JUMP JUMPDEST SWAP3 SWAP2 POP POP JUMP JUMPDEST PUSH0 PUSH1 0x20 DUP3 DUP5 SUB SLT ISZERO PUSH2 0xF22 JUMPI PUSH2 0xF21 PUSH2 0xCD7 JUMP JUMPDEST JUMPDEST PUSH0 PUSH2 0xF2F DUP5 DUP3 DUP6 ADD PUSH2 0xEF9 JUMP JUMPDEST SWAP2 POP POP SWAP3 SWAP2 POP POP JUMP JUMPDEST PUSH0 DUP2 SWAP1 POP SWAP2 SWAP1 POP JUMP JUMPDEST PUSH2 0xF4A DUP2 PUSH2 0xF38 JUMP JUMPDEST DUP2 EQ PUSH2 0xF54 JUMPI PUSH0 DUP1 REVERT JUMPDEST POP JUMP JUMPDEST PUSH0 DUP2 CALLDATALOAD SWAP1 POP PUSH2 0xF65 DUP2 PUSH2 0xF41 JUMP JUMPDEST SWAP3 SWAP2 POP POP JUMP JUMPDEST PUSH0 PUSH8 0xFFFFFFFFFFFFFFFF DUP3 GT ISZERO PUSH2 0xF85 JUMPI PUSH2 0xF84 PUSH2 0xD1D JUMP JUMPDEST JUMPDEST PUSH1 0x20 DUP3 MUL SWAP1 POP PUSH1 0x20 DUP2 ADD SWAP1 POP SWAP2 SWAP1 POP JUMP JUMPDEST PUSH0 PUSH2 0xFA8 PUSH2 0xFA3 DUP5 PUSH2 0xF6B JUMP JUMPDEST PUSH2 0xD7B JUMP JUMPDEST SWAP1 POP DUP1 DUP4 DUP3 MSTORE PUSH1 0x20 DUP3 ADD SWAP1 POP PUSH1 0x20 DUP5 MUL DUP4 ADD DUP6 DUP2 GT ISZERO PUSH2 0xFCB JUMPI PUSH2 0xFCA PUSH2 0xDC0 JUMP JUMPDEST JUMPDEST DUP4 JUMPDEST DUP2 DUP2 LT ISZERO PUSH2 0x1012 JUMPI DUP1 CALLDATALOAD PUSH8 0xFFFFFFFFFFFFFFFF DUP2 GT ISZERO PUSH2 0xFF0 JUMPI PUSH2 0xFEF PUSH2 0xD09 JUMP JUMPDEST JUMPDEST DUP1 DUP7 ADD PUSH2 0xFFD DUP10 DUP3 PUSH2 0xE2C JUMP JUMPDEST DUP6 MSTORE PUSH1 0x20 DUP6 ADD SWAP5 POP POP POP PUSH1 0x20 DUP2 ADD SWAP1 POP PUSH2 0xFCD JUMP JUMPDEST POP POP POP SWAP4 SWAP3 POP POP POP JUMP JUMPDEST PUSH0 DUP3 PUSH1 0x1F DUP4 ADD SLT PUSH2 0x1030 JUMPI PUSH2 0x102F PUSH2 0xD09 JUMP JUMPDEST JUMPDEST DUP2 CALLDATALOAD PUSH2 0x1040 DUP5 DUP3 PUSH1 0x20 DUP7 ADD PUSH2 0xF96 JUMP JUMPDEST SWAP2 POP POP SWAP3 SWAP2 POP POP JUMP JUMPDEST PUSH0 DUP1 PUSH1 0x40 DUP4 DUP6 SUB SLT ISZERO PUSH2 0x105F JUMPI PUSH2 0x105E PUSH2 0xCD7 JUMP JUMPDEST JUMPDEST PUSH0 PUSH2 0x106C DUP6 DUP3 DUP7 ADD PUSH2 0xF57 JUMP JUMPDEST SWAP3 POP POP PUSH1 0x20 DUP4 ADD CALLDATALOAD PUSH8 0xFFFFFFFFFFFFFFFF DUP2 GT ISZERO PUSH2 0x108D JUMPI PUSH2 0x108C PUSH2 0xCDB JUMP JUMPDEST JUMPDEST PUSH2 0x1099 DUP6 DUP3 DUP7 ADD PUSH2 0x101C JUMP JUMPDEST SWAP2 POP POP SWAP3 POP SWAP3 SWAP1 POP JUMP JUMPDEST PUSH0 DUP3 DUP3 MSTORE PUSH1 0x20 DUP3 ADD SWAP1 POP SWAP3 SWAP2 POP POP JUMP JUMPDEST PUSH0 PUSH2 0x10BD DUP3 PUSH2 0xB57 JUMP JUMPDEST PUSH2 0x10C7 DUP2 DUP6 PUSH2 0x10A3 JUMP JUMPDEST SWAP4 POP PUSH2 0x10D2 DUP4 PUSH2 0xB71 JUMP JUMPDEST DUP1 PUSH0 JUMPDEST DUP4 DUP2 LT ISZERO PUSH2 0x1102 JUMPI DUP2 MLOAD PUSH2 0x10E9 DUP9 DUP3 PUSH2 0xB8F JUMP JUMPDEST SWAP8 POP PUSH2 0x10F4 DUP4 PUSH2 0xBA6 JUMP JUMPDEST SWAP3 POP POP PUSH1 0x1 DUP2 ADD SWAP1 POP PUSH2 0x10D5 JUMP JUMPDEST POP DUP6 SWAP4 POP POP POP POP SWAP3 SWAP2 POP POP JUMP JUMPDEST PUSH0 PUSH1 0x20 DUP3 ADD SWAP1 POP DUP2 DUP2 SUB PUSH0 DUP4 ADD MSTORE PUSH2 0x1127 DUP2 DUP5 PUSH2 0x10B3 JUMP JUMPDEST SWAP1 POP SWAP3 SWAP2 POP POP JUMP JUMPDEST PUSH2 0x1138 DUP2 PUSH2 0xED2 JUMP JUMPDEST DUP3 MSTORE POP POP JUMP JUMPDEST PUSH0 DUP2 SWAP1 POP SWAP2 SWAP1 POP JUMP JUMPDEST PUSH0 PUSH1 0xFF DUP3 AND SWAP1 POP SWAP2 SWAP1 POP JUMP JUMPDEST PUSH0 DUP2 SWAP1 POP SWAP2 SWAP1 POP JUMP JUMPDEST PUSH0 PUSH2 0x1176 PUSH2 0x1171 PUSH2 0x116C DUP5 PUSH2 0x113E JUMP JUMPDEST PUSH2 0x1153 JUMP JUMPDEST PUSH2 0x1147 JUMP JUMPDEST SWAP1 POP SWAP2 SWAP1 POP JUMP JUMPDEST PUSH2 0x1186 DUP2 PUSH2 0x115C JUMP JUMPDEST DUP3 MSTORE POP POP JUMP JUMPDEST PUSH0 PUSH1 0x40 DUP3 ADD SWAP1 POP PUSH2 0x119F PUSH0 DUP4 ADD DUP6 PUSH2 0x112F JUMP JUMPDEST PUSH2 0x11AC PUSH1 0x20 DUP4 ADD DUP5 PUSH2 0x117D JUMP JUMPDEST SWAP4 SWAP3 POP POP POP JUMP JUMPDEST PUSH32 0x4E487B7100000000000000000000000000000000000000000000000000000000 PUSH0 MSTORE PUSH1 0x32 PUSH1 0x4 MSTORE PUSH1 0x24 PUSH0 REVERT JUMPDEST PUSH0 DUP3 DUP3 MSTORE PUSH1 0x20 DUP3 ADD SWAP1 POP SWAP3 SWAP2 POP POP JUMP JUMPDEST PUSH32 0x77726F6E672044696D7300000000000000000000000000000000000000000000 PUSH0 DUP3 ADD MSTORE POP JUMP JUMPDEST PUSH0 PUSH2 0x1224 PUSH1 0xA DUP4 PUSH2 0x11E0 JUMP JUMPDEST SWAP2 POP PUSH2 0x122F DUP3 PUSH2 0x11F0 JUMP JUMPDEST PUSH1 0x20 DUP3 ADD SWAP1 POP SWAP2 SWAP1 POP JUMP JUMPDEST PUSH0 PUSH1 0x20 DUP3 ADD SWAP1 POP DUP2 DUP2 SUB PUSH0 DUP4 ADD MSTORE PUSH2 0x1251 DUP2 PUSH2 0x1218 JUMP JUMPDEST SWAP1 POP SWAP2 SWAP1 POP JUMP JUMPDEST PUSH32 0x4E487B7100000000000000000000000000000000000000000000000000000000 PUSH0 MSTORE PUSH1 0x11 PUSH1 0x4 MSTORE PUSH1 0x24 PUSH0 REVERT JUMPDEST PUSH0 PUSH2 0x128F DUP3 PUSH2 0xF38 JUMP JUMPDEST SWAP2 POP PUSH2 0x129A DUP4 PUSH2 0xF38 JUMP JUMPDEST SWAP3 POP DUP3 DUP3 ADD SWAP1 POP DUP1 DUP3 GT ISZERO PUSH2 0x12B2 JUMPI PUSH2 0x12B1 PUSH2 0x1258 JUMP JUMPDEST JUMPDEST SWAP3 SWAP2 POP POP JUMP JUMPDEST PUSH32 0x4E487B7100000000000000000000000000000000000000000000000000000000 PUSH0 MSTORE PUSH1 0x12 PUSH1 0x4 MSTORE PUSH1 0x24 PUSH0 REVERT JUMPDEST PUSH0 PUSH2 0x12EF DUP3 PUSH2 0xF38 JUMP JUMPDEST SWAP2 POP PUSH2 0x12FA DUP4 PUSH2 0xF38 JUMP JUMPDEST SWAP3 POP DUP3 PUSH2 0x130A JUMPI PUSH2 0x1309 PUSH2 0x12B8 JUMP JUMPDEST JUMPDEST DUP3 DUP3 DIV SWAP1 POP SWAP3 SWAP2 POP POP JUMP JUMPDEST PUSH0 PUSH2 0x131F DUP3 PUSH2 0xF38 JUMP JUMPDEST SWAP2 POP PUSH32 0xFFFFFFFFFFFFFFFFFFFFFFFFFFFFFFFFFFFFFFFFFFFFFFFFFFFFFFFFFFFFFFFF DUP3 SUB PUSH2 0x1351 JUMPI PUSH2 0x1350 PUSH2 0x1258 JUMP JUMPDEST JUMPDEST PUSH1 0x1 DUP3 ADD SWAP1 POP SWAP2 SWAP1 POP JUMP JUMPDEST PUSH2 0x1365 DUP2 PUSH2 0xF38 JUMP JUMPDEST DUP3 MSTORE POP POP JUMP JUMPDEST PUSH0 PUSH1 0x40 DUP3 ADD SWAP1 POP PUSH2 0x137E PUSH0 DUP4 ADD DUP6 PUSH2 0x112F JUMP JUMPDEST PUSH2 0x138B PUSH1 0x20 DUP4 ADD DUP5 PUSH2 0x135C JUMP JUMPDEST SWAP4 SWAP3 POP POP POP JUMP JUMPDEST PUSH0 PUSH1 0x40 DUP3 ADD SWAP1 POP PUSH2 0x13A5 PUSH0 DUP4 ADD DUP6 PUSH2 0xAD3 JUMP JUMPDEST PUSH2 0x13B2 PUSH1 0x20 DUP4 ADD DUP5 PUSH2 0xAD3 JUMP JUMPDEST SWAP4 SWAP3 POP POP POP JUMP JUMPDEST PUSH0 PUSH2 0x13C3 DUP3 PUSH2 0xF38 JUMP JUMPDEST SWAP2 POP PUSH2 0x13CE DUP4 PUSH2 0xF38 JUMP JUMPDEST SWAP3 POP DUP3 DUP3 SUB SWAP1 POP DUP2 DUP2 GT ISZERO PUSH2 0x13E6 JUMPI PUSH2 0x13E5 PUSH2 0x1258 JUMP JUMPDEST JUMPDEST SWAP3 SWAP2 POP POP JUMP JUMPDEST PUSH32 0x696E76616C6964206C6561662076616C75650000000000000000000000000000 PUSH0 DUP3 ADD MSTORE POP JUMP JUMPDEST PUSH0 PUSH2 0x1420 PUSH1 0x12 DUP4 PUSH2 0x11E0 JUMP JUMPDEST SWAP2 POP PUSH2 0x142B DUP3 PUSH2 0x13EC JUMP JUMPDEST PUSH1 0x20 DUP3 ADD SWAP1 POP SWAP2 SWAP1 POP JUMP JUMPDEST PUSH0 PUSH1 0x20 DUP3 ADD SWAP1 POP DUP2 DUP2 SUB PUSH0 DUP4 ADD MSTORE PUSH2 0x144D DUP2 PUSH2 0x1414 JUMP JUMPDEST SWAP1 POP SWAP2 SWAP1 POP JUMP JUMPDEST PUSH0 PUSH2 0x145E DUP3 PUSH2 0xF38 JUMP JUMPDEST SWAP2 POP PUSH2 0x1469 DUP4 PUSH2 0xF38 JUMP JUMPDEST SWAP3 POP DUP3 PUSH2 0x1479 JUMPI PUSH2 0x1478 PUSH2 0x12B8 JUMP JUMPDEST JUMPDEST DUP3 DUP3 MOD SWAP1 POP SWAP3 SWAP2 POP POP JUMP INVALID LOG2 PUSH5 0x6970667358 0x22 SLT KECCAK256 DIV AND DUP9 0xBD SWAP13 DUP3 0xE2 0xFC 0xC 0xD3 0xEA LOG2 0xDA DUP11 SWAP2 CREATE 0xA8 EXP 0xCF 0xCA DUP15 0x2A CALLVALUE PUSH21 0x75A5DFAFFAF57E5164736F6C634300081600330000 "
		},
		"gasEstimates": {
			"creation": {
				"codeDepositCost": "1061200",
				"executionCost": "1098",
				"totalCost": "1062298"
			},
			"external": {
				"ROOT()": "2447",
				"constructTree()": "infinite",
				"createProof(uint256,bytes32[][])": "infinite",
				"hasClaimed(address)": "2877",
				"setRoot()": "infinite",
				"testRoot()": "infinite",
				"verify(bytes32,bytes32[])": "infinite"
			}
		},
		"methodIdentifiers": {
			"ROOT()": "5909c12f",
			"constructTree()": "672b122f",
			"createProof(uint256,bytes32[][])": "a6fae3ab",
			"hasClaimed(address)": "73b2e80e",
			"setRoot()": "3edbff79",
			"testRoot()": "6566b8b6",
			"verify(bytes32,bytes32[])": "6df4d241"
		}
	},
	"abi": [
		{
			"inputs": [],
			"name": "ROOT",
			"outputs": [
				{
					"internalType": "bytes32",
					"name": "",
					"type": "bytes32"
				}
			],
			"stateMutability": "view",
			"type": "function"
		},
		{
			"inputs": [],
			"name": "constructTree",
			"outputs": [
				{
					"internalType": "bytes32",
					"name": "root",
					"type": "bytes32"
				},
				{
					"internalType": "bytes32[][]",
					"name": "tree",
					"type": "bytes32[][]"
				}
			],
			"stateMutability": "pure",
			"type": "function"
		},
		{
			"inputs": [
				{
					"internalType": "uint256",
					"name": "memberIndex",
					"type": "uint256"
				},
				{
					"internalType": "bytes32[][]",
					"name": "tree",
					"type": "bytes32[][]"
				}
			],
			"name": "createProof",
			"outputs": [
				{
					"internalType": "bytes32[]",
					"name": "",
					"type": "bytes32[]"
				}
			],
			"stateMutability": "pure",
			"type": "function"
		},
		{
			"inputs": [
				{
					"internalType": "address",
					"name": "",
					"type": "address"
				}
			],
			"name": "hasClaimed",
			"outputs": [
				{
					"internalType": "bool",
					"name": "",
					"type": "bool"
				}
			],
			"stateMutability": "view",
			"type": "function"
		},
		{
			"inputs": [],
			"name": "setRoot",
			"outputs": [],
			"stateMutability": "nonpayable",
			"type": "function"
		},
		{
			"inputs": [],
			"name": "testRoot",
			"outputs": [
				{
					"internalType": "bool",
					"name": "",
					"type": "bool"
				}
			],
			"stateMutability": "view",
			"type": "function"
		},
		{
			"inputs": [
				{
					"internalType": "bytes32",
					"name": "leaf",
					"type": "bytes32"
				},
				{
					"internalType": "bytes32[]",
					"name": "siblings",
					"type": "bytes32[]"
				}
			],
			"name": "verify",
			"outputs": [
				{
					"internalType": "bool",
					"name": "",
					"type": "bool"
				}
			],
			"stateMutability": "view",
			"type": "function"
		}
	]
}