{
	"data": {
		"bytecode": {
			"linkReferences": {
				"testLinkedLibrary.sol": {
					"PoolLogic": [
						{
							"length": 20,
							"start": 464
						},
						{
							"length": 20,
							"start": 626
						},
						{
							"length": 20,
							"start": 1030
						}
					]
				}
			},
			"object": "6080604052348015600e575f80fd5b506106b58061001c5f395ff3fe608060405234801561000f575f80fd5b506004361061009c575f3560e01c80634f8632ba116100645780634f8632ba1461010e578063591fb03e1461012c578063c19d93fb1461014a578063c35dfee814610168578063fe090e5f146101865761009c565b806314d93340146100a057806316a19d59146100aa57806331e2e06a146100c85780633a4b66f1146100e6578063470eb79f146100f0575b5f80fd5b6100a8610190565b005b6100b2610248565b6040516100bf9190610496565b60405180910390f35b6100d061024e565b6040516100dd9190610496565b60405180910390f35b6100ee610254565b005b6100f8610300565b6040516101059190610496565b60405180910390f35b610116610306565b60405161012391906104ee565b60405180910390f35b610134610329565b6040516101419190610521565b60405180910390f35b61015261037f565b60405161015f91906104ee565b60405180910390f35b6101706103a4565b60405161017d9190610496565b60405180910390f35b61018e6103aa565b005b5a6002819055505f6040518060200160405280678ac7230489e8000081525090505f73__$a0641e4a8fb69f98d66c1e6e7c648f5f82$__63d6fdcc6b836040518263ffffffff1660e01b81526004016101e99190610563565b602060405180830381865af4158015610204573d5f803e3d5ffd5b505050506040513d601f19601f8201168201806040525081019061022891906105aa565b90506798a7d9b8314c0000811461023d575f80fd5b5a6003819055505050565b60045481565b60025481565b73__$a0641e4a8fb69f98d66c1e6e7c648f5f82$__63fe6472916040518163ffffffff1660e01b8152600401602060405180830381865af415801561029b573d5f803e3d5ffd5b505050506040513d601f19601f820116820180604052508101906102bf91906105ff565b60015f6101000a81548173ffffffffffffffffffffffffffffffffffffffff021916908373ffffffffffffffffffffffffffffffffffffffff160217905550565b60035481565b5f8054906101000a900473ffffffffffffffffffffffffffffffffffffffff1681565b5f3373ffffffffffffffffffffffffffffffffffffffff1660015f9054906101000a900473ffffffffffffffffffffffffffffffffffffffff1673ffffffffffffffffffffffffffffffffffffffff1614905090565b60015f9054906101000a900473ffffffffffffffffffffffffffffffffffffffff1681565b60055481565b5a6004819055505f60405180604001604052803373ffffffffffffffffffffffffffffffffffffffff168152602001678ac7230489e8000081525090505f73__$a0641e4a8fb69f98d66c1e6e7c648f5f82$__633828adda836040518263ffffffff1660e01b815260040161041f9190610666565b602060405180830381865af415801561043a573d5f803e3d5ffd5b505050506040513d601f19601f8201168201806040525081019061045e91906105aa565b90506798a7d9b8314c00008114610473575f80fd5b5a6005819055505050565b5f819050919050565b6104908161047e565b82525050565b5f6020820190506104a95f830184610487565b92915050565b5f73ffffffffffffffffffffffffffffffffffffffff82169050919050565b5f6104d8826104af565b9050919050565b6104e8816104ce565b82525050565b5f6020820190506105015f8301846104df565b92915050565b5f8115159050919050565b61051b81610507565b82525050565b5f6020820190506105345f830184610512565b92915050565b6105438161047e565b82525050565b602082015f82015161055d5f85018261053a565b50505050565b5f6020820190506105765f830184610549565b92915050565b5f80fd5b6105898161047e565b8114610593575f80fd5b50565b5f815190506105a481610580565b92915050565b5f602082840312156105bf576105be61057c565b5b5f6105cc84828501610596565b91505092915050565b6105de816104ce565b81146105e8575f80fd5b50565b5f815190506105f9816105d5565b92915050565b5f602082840312156106145761061361057c565b5b5f610621848285016105eb565b91505092915050565b610633816104ce565b82525050565b604082015f82015161064d5f85018261062a565b506020820151610660602085018261053a565b50505050565b5f6040820190506106795f830184610639565b9291505056fea26469706673582212205ae2ba3576460a1e72c973a347f06bca6e8d6879d81ae8bf62b2477eb5155ead64736f6c634300081a0033",
			"opcodes": "PUSH1 0x80 PUSH1 0x40 MSTORE CALLVALUE DUP1 ISZERO PUSH1 0xE JUMPI PUSH0 DUP1 REVERT JUMPDEST POP PUSH2 0x6B5 DUP1 PUSH2 0x1C PUSH0 CODECOPY PUSH0 RETURN INVALID PUSH1 0x80 PUSH1 0x40 MSTORE CALLVALUE DUP1 ISZERO PUSH2 0xF JUMPI PUSH0 DUP1 REVERT JUMPDEST POP PUSH1 0x4 CALLDATASIZE LT PUSH2 0x9C JUMPI PUSH0 CALLDATALOAD PUSH1 0xE0 SHR DUP1 PUSH4 0x4F8632BA GT PUSH2 0x64 JUMPI DUP1 PUSH4 0x4F8632BA EQ PUSH2 0x10E JUMPI DUP1 PUSH4 0x591FB03E EQ PUSH2 0x12C JUMPI DUP1 PUSH4 0xC19D93FB EQ PUSH2 0x14A JUMPI DUP1 PUSH4 0xC35DFEE8 EQ PUSH2 0x168 JUMPI DUP1 PUSH4 0xFE090E5F EQ PUSH2 0x186 JUMPI PUSH2 0x9C JUMP JUMPDEST DUP1 PUSH4 0x14D93340 EQ PUSH2 0xA0 JUMPI DUP1 PUSH4 0x16A19D59 EQ PUSH2 0xAA JUMPI DUP1 PUSH4 0x31E2E06A EQ PUSH2 0xC8 JUMPI DUP1 PUSH4 0x3A4B66F1 EQ PUSH2 0xE6 JUMPI DUP1 PUSH4 0x470EB79F EQ PUSH2 0xF0 JUMPI JUMPDEST PUSH0 DUP1 REVERT JUMPDEST PUSH2 0xA8 PUSH2 0x190 JUMP JUMPDEST STOP JUMPDEST PUSH2 0xB2 PUSH2 0x248 JUMP JUMPDEST PUSH1 0x40 MLOAD PUSH2 0xBF SWAP2 SWAP1 PUSH2 0x496 JUMP JUMPDEST PUSH1 0x40 MLOAD DUP1 SWAP2 SUB SWAP1 RETURN JUMPDEST PUSH2 0xD0 PUSH2 0x24E JUMP JUMPDEST PUSH1 0x40 MLOAD PUSH2 0xDD SWAP2 SWAP1 PUSH2 0x496 JUMP JUMPDEST PUSH1 0x40 MLOAD DUP1 SWAP2 SUB SWAP1 RETURN JUMPDEST PUSH2 0xEE PUSH2 0x254 JUMP JUMPDEST STOP JUMPDEST PUSH2 0xF8 PUSH2 0x300 JUMP JUMPDEST PUSH1 0x40 MLOAD PUSH2 0x105 SWAP2 SWAP1 PUSH2 0x496 JUMP JUMPDEST PUSH1 0x40 MLOAD DUP1 SWAP2 SUB SWAP1 RETURN JUMPDEST PUSH2 0x116 PUSH2 0x306 JUMP JUMPDEST PUSH1 0x40 MLOAD PUSH2 0x123 SWAP2 SWAP1 PUSH2 0x4EE JUMP JUMPDEST PUSH1 0x40 MLOAD DUP1 SWAP2 SUB SWAP1 RETURN JUMPDEST PUSH2 0x134 PUSH2 0x329 JUMP JUMPDEST PUSH1 0x40 MLOAD PUSH2 0x141 SWAP2 SWAP1 PUSH2 0x521 JUMP JUMPDEST PUSH1 0x40 MLOAD DUP1 SWAP2 SUB SWAP1 RETURN JUMPDEST PUSH2 0x152 PUSH2 0x37F JUMP JUMPDEST PUSH1 0x40 MLOAD PUSH2 0x15F SWAP2 SWAP1 PUSH2 0x4EE JUMP JUMPDEST PUSH1 0x40 MLOAD DUP1 SWAP2 SUB SWAP1 RETURN JUMPDEST PUSH2 0x170 PUSH2 0x3A4 JUMP JUMPDEST PUSH1 0x40 MLOAD PUSH2 0x17D SWAP2 SWAP1 PUSH2 0x496 JUMP JUMPDEST PUSH1 0x40 MLOAD DUP1 SWAP2 SUB SWAP1 RETURN JUMPDEST PUSH2 0x18E PUSH2 0x3AA JUMP JUMPDEST STOP JUMPDEST GAS PUSH1 0x2 DUP2 SWAP1 SSTORE POP PUSH0 PUSH1 0x40 MLOAD DUP1 PUSH1 0x20 ADD PUSH1 0x40 MSTORE DUP1 PUSH8 0x8AC7230489E80000 DUP2 MSTORE POP SWAP1 POP PUSH0 PUSH20 0x0 PUSH4 0xD6FDCC6B DUP4 PUSH1 0x40 MLOAD DUP3 PUSH4 0xFFFFFFFF AND PUSH1 0xE0 SHL DUP2 MSTORE PUSH1 0x4 ADD PUSH2 0x1E9 SWAP2 SWAP1 PUSH2 0x563 JUMP JUMPDEST PUSH1 0x20 PUSH1 0x40 MLOAD DUP1 DUP4 SUB DUP2 DUP7 GAS DELEGATECALL ISZERO DUP1 ISZERO PUSH2 0x204 JUMPI RETURNDATASIZE PUSH0 DUP1 RETURNDATACOPY RETURNDATASIZE PUSH0 REVERT JUMPDEST POP POP POP POP PUSH1 0x40 MLOAD RETURNDATASIZE PUSH1 0x1F NOT PUSH1 0x1F DUP3 ADD AND DUP3 ADD DUP1 PUSH1 0x40 MSTORE POP DUP2 ADD SWAP1 PUSH2 0x228 SWAP2 SWAP1 PUSH2 0x5AA JUMP JUMPDEST SWAP1 POP PUSH8 0x98A7D9B8314C0000 DUP2 EQ PUSH2 0x23D JUMPI PUSH0 DUP1 REVERT JUMPDEST GAS PUSH1 0x3 DUP2 SWAP1 SSTORE POP POP POP JUMP JUMPDEST PUSH1 0x4 SLOAD DUP2 JUMP JUMPDEST PUSH1 0x2 SLOAD DUP2 JUMP JUMPDEST PUSH20 0x0 PUSH4 0xFE647291 PUSH1 0x40 MLOAD DUP2 PUSH4 0xFFFFFFFF AND PUSH1 0xE0 SHL DUP2 MSTORE PUSH1 0x4 ADD PUSH1 0x20 PUSH1 0x40 MLOAD DUP1 DUP4 SUB DUP2 DUP7 GAS DELEGATECALL ISZERO DUP1 ISZERO PUSH2 0x29B JUMPI RETURNDATASIZE PUSH0 DUP1 RETURNDATACOPY RETURNDATASIZE PUSH0 REVERT JUMPDEST POP POP POP POP PUSH1 0x40 MLOAD RETURNDATASIZE PUSH1 0x1F NOT PUSH1 0x1F DUP3 ADD AND DUP3 ADD DUP1 PUSH1 0x40 MSTORE POP DUP2 ADD SWAP1 PUSH2 0x2BF SWAP2 SWAP1 PUSH2 0x5FF JUMP JUMPDEST PUSH1 0x1 PUSH0 PUSH2 0x100 EXP DUP2 SLOAD DUP2 PUSH20 0xFFFFFFFFFFFFFFFFFFFFFFFFFFFFFFFFFFFFFFFF MUL NOT AND SWAP1 DUP4 PUSH20 0xFFFFFFFFFFFFFFFFFFFFFFFFFFFFFFFFFFFFFFFF AND MUL OR SWAP1 SSTORE POP JUMP JUMPDEST PUSH1 0x3 SLOAD DUP2 JUMP JUMPDEST PUSH0 DUP1 SLOAD SWAP1 PUSH2 0x100 EXP SWAP1 DIV PUSH20 0xFFFFFFFFFFFFFFFFFFFFFFFFFFFFFFFFFFFFFFFF AND DUP2 JUMP JUMPDEST PUSH0 CALLER PUSH20 0xFFFFFFFFFFFFFFFFFFFFFFFFFFFFFFFFFFFFFFFF AND PUSH1 0x1 PUSH0 SWAP1 SLOAD SWAP1 PUSH2 0x100 EXP SWAP1 DIV PUSH20 0xFFFFFFFFFFFFFFFFFFFFFFFFFFFFFFFFFFFFFFFF AND PUSH20 0xFFFFFFFFFFFFFFFFFFFFFFFFFFFFFFFFFFFFFFFF AND EQ SWAP1 POP SWAP1 JUMP JUMPDEST PUSH1 0x1 PUSH0 SWAP1 SLOAD SWAP1 PUSH2 0x100 EXP SWAP1 DIV PUSH20 0xFFFFFFFFFFFFFFFFFFFFFFFFFFFFFFFFFFFFFFFF AND DUP2 JUMP JUMPDEST PUSH1 0x5 SLOAD DUP2 JUMP JUMPDEST GAS PUSH1 0x4 DUP2 SWAP1 SSTORE POP PUSH0 PUSH1 0x40 MLOAD DUP1 PUSH1 0x40 ADD PUSH1 0x40 MSTORE DUP1 CALLER PUSH20 0xFFFFFFFFFFFFFFFFFFFFFFFFFFFFFFFFFFFFFFFF AND DUP2 MSTORE PUSH1 0x20 ADD PUSH8 0x8AC7230489E80000 DUP2 MSTORE POP SWAP1 POP PUSH0 PUSH20 0x0 PUSH4 0x3828ADDA DUP4 PUSH1 0x40 MLOAD DUP3 PUSH4 0xFFFFFFFF AND PUSH1 0xE0 SHL DUP2 MSTORE PUSH1 0x4 ADD PUSH2 0x41F SWAP2 SWAP1 PUSH2 0x666 JUMP JUMPDEST PUSH1 0x20 PUSH1 0x40 MLOAD DUP1 DUP4 SUB DUP2 DUP7 GAS DELEGATECALL ISZERO DUP1 ISZERO PUSH2 0x43A JUMPI RETURNDATASIZE PUSH0 DUP1 RETURNDATACOPY RETURNDATASIZE PUSH0 REVERT JUMPDEST POP POP POP POP PUSH1 0x40 MLOAD RETURNDATASIZE PUSH1 0x1F NOT PUSH1 0x1F DUP3 ADD AND DUP3 ADD DUP1 PUSH1 0x40 MSTORE POP DUP2 ADD SWAP1 PUSH2 0x45E SWAP2 SWAP1 PUSH2 0x5AA JUMP JUMPDEST SWAP1 POP PUSH8 0x98A7D9B8314C0000 DUP2 EQ PUSH2 0x473 JUMPI PUSH0 DUP1 REVERT JUMPDEST GAS PUSH1 0x5 DUP2 SWAP1 SSTORE POP POP POP JUMP JUMPDEST PUSH0 DUP2 SWAP1 POP SWAP2 SWAP1 POP JUMP JUMPDEST PUSH2 0x490 DUP2 PUSH2 0x47E JUMP JUMPDEST DUP3 MSTORE POP POP JUMP JUMPDEST PUSH0 PUSH1 0x20 DUP3 ADD SWAP1 POP PUSH2 0x4A9 PUSH0 DUP4 ADD DUP5 PUSH2 0x487 JUMP JUMPDEST SWAP3 SWAP2 POP POP JUMP JUMPDEST PUSH0 PUSH20 0xFFFFFFFFFFFFFFFFFFFFFFFFFFFFFFFFFFFFFFFF DUP3 AND SWAP1 POP SWAP2 SWAP1 POP JUMP JUMPDEST PUSH0 PUSH2 0x4D8 DUP3 PUSH2 0x4AF JUMP JUMPDEST SWAP1 POP SWAP2 SWAP1 POP JUMP JUMPDEST PUSH2 0x4E8 DUP2 PUSH2 0x4CE JUMP JUMPDEST DUP3 MSTORE POP POP JUMP JUMPDEST PUSH0 PUSH1 0x20 DUP3 ADD SWAP1 POP PUSH2 0x501 PUSH0 DUP4 ADD DUP5 PUSH2 0x4DF JUMP JUMPDEST SWAP3 SWAP2 POP POP JUMP JUMPDEST PUSH0 DUP2 ISZERO ISZERO SWAP1 POP SWAP2 SWAP1 POP JUMP JUMPDEST PUSH2 0x51B DUP2 PUSH2 0x507 JUMP JUMPDEST DUP3 MSTORE POP POP JUMP JUMPDEST PUSH0 PUSH1 0x20 DUP3 ADD SWAP1 POP PUSH2 0x534 PUSH0 DUP4 ADD DUP5 PUSH2 0x512 JUMP JUMPDEST SWAP3 SWAP2 POP POP JUMP JUMPDEST PUSH2 0x543 DUP2 PUSH2 0x47E JUMP JUMPDEST DUP3 MSTORE POP POP JUMP JUMPDEST PUSH1 0x20 DUP3 ADD PUSH0 DUP3 ADD MLOAD PUSH2 0x55D PUSH0 DUP6 ADD DUP3 PUSH2 0x53A JUMP JUMPDEST POP POP POP POP JUMP JUMPDEST PUSH0 PUSH1 0x20 DUP3 ADD SWAP1 POP PUSH2 0x576 PUSH0 DUP4 ADD DUP5 PUSH2 0x549 JUMP JUMPDEST SWAP3 SWAP2 POP POP JUMP JUMPDEST PUSH0 DUP1 REVERT JUMPDEST PUSH2 0x589 DUP2 PUSH2 0x47E JUMP JUMPDEST DUP2 EQ PUSH2 0x593 JUMPI PUSH0 DUP1 REVERT JUMPDEST POP JUMP JUMPDEST PUSH0 DUP2 MLOAD SWAP1 POP PUSH2 0x5A4 DUP2 PUSH2 0x580 JUMP JUMPDEST SWAP3 SWAP2 POP POP JUMP JUMPDEST PUSH0 PUSH1 0x20 DUP3 DUP5 SUB SLT ISZERO PUSH2 0x5BF JUMPI PUSH2 0x5BE PUSH2 0x57C JUMP JUMPDEST JUMPDEST PUSH0 PUSH2 0x5CC DUP5 DUP3 DUP6 ADD PUSH2 0x596 JUMP JUMPDEST SWAP2 POP POP SWAP3 SWAP2 POP POP JUMP JUMPDEST PUSH2 0x5DE DUP2 PUSH2 0x4CE JUMP JUMPDEST DUP2 EQ PUSH2 0x5E8 JUMPI PUSH0 DUP1 REVERT JUMPDEST POP JUMP JUMPDEST PUSH0 DUP2 MLOAD SWAP1 POP PUSH2 0x5F9 DUP2 PUSH2 0x5D5 JUMP JUMPDEST SWAP3 SWAP2 POP POP JUMP JUMPDEST PUSH0 PUSH1 0x20 DUP3 DUP5 SUB SLT ISZERO PUSH2 0x614 JUMPI PUSH2 0x613 PUSH2 0x57C JUMP JUMPDEST JUMPDEST PUSH0 PUSH2 0x621 DUP5 DUP3 DUP6 ADD PUSH2 0x5EB JUMP JUMPDEST SWAP2 POP POP SWAP3 SWAP2 POP POP JUMP JUMPDEST PUSH2 0x633 DUP2 PUSH2 0x4CE JUMP JUMPDEST DUP3 MSTORE POP POP JUMP JUMPDEST PUSH1 0x40 DUP3 ADD PUSH0 DUP3 ADD MLOAD PUSH2 0x64D PUSH0 DUP6 ADD DUP3 PUSH2 0x62A JUMP JUMPDEST POP PUSH1 0x20 DUP3 ADD MLOAD PUSH2 0x660 PUSH1 0x20 DUP6 ADD DUP3 PUSH2 0x53A JUMP JUMPDEST POP POP POP POP JUMP JUMPDEST PUSH0 PUSH1 0x40 DUP3 ADD SWAP1 POP PUSH2 0x679 PUSH0 DUP4 ADD DUP5 PUSH2 0x639 JUMP JUMPDEST SWAP3 SWAP2 POP POP JUMP INVALID LOG2 PUSH5 0x6970667358 0x22 SLT KECCAK256 GAS 0xE2 0xBA CALLDATALOAD PUSH23 0x460A1E72C973A347F06BCA6E8D6879D81AE8BF62B2477E 0xB5 ISZERO MCOPY 0xAD PUSH5 0x736F6C6343 STOP ADDMOD BYTE STOP CALLER "
		},
		"gasEstimates": {
			"creation": {
				"codeDepositCost": "343400",
				"executionCost": "378",
				"totalCost": "343778"
			},
			"external": {
				"gasAfter_msgSender()": "2514",
				"gasAfter_user()": "2491",
				"gasBefore_msgSender()": "2470",
				"gasBefore_user()": "2448",
				"isSame()": "2512",
				"stake()": "infinite",
				"state()": "2552",
				"testSender1()": "infinite",
				"testSender2()": "infinite",
				"user()": "2505"
			}
		},
		"methodIdentifiers": {
			"gasAfter_msgSender()": "470eb79f",
			"gasAfter_user()": "c35dfee8",
			"gasBefore_msgSender()": "31e2e06a",
			"gasBefore_user()": "16a19d59",
			"isSame()": "591fb03e",
			"stake()": "3a4b66f1",
			"state()": "c19d93fb",
			"testSender1()": "14d93340",
			"testSender2()": "fe090e5f",
			"user()": "4f8632ba"
		}
	},
	"abi": [
		{
			"inputs": [],
			"name": "gasAfter_msgSender",
			"outputs": [
				{
					"internalType": "uint256",
					"name": "",
					"type": "uint256"
				}
			],
			"stateMutability": "view",
			"type": "function"
		},
		{
			"inputs": [],
			"name": "gasAfter_user",
			"outputs": [
				{
					"internalType": "uint256",
					"name": "",
					"type": "uint256"
				}
			],
			"stateMutability": "view",
			"type": "function"
		},
		{
			"inputs": [],
			"name": "gasBefore_msgSender",
			"outputs": [
				{
					"internalType": "uint256",
					"name": "",
					"type": "uint256"
				}
			],
			"stateMutability": "view",
			"type": "function"
		},
		{
			"inputs": [],
			"name": "gasBefore_user",
			"outputs": [
				{
					"internalType": "uint256",
					"name": "",
					"type": "uint256"
				}
			],
			"stateMutability": "view",
			"type": "function"
		},
		{
			"inputs": [],
			"name": "isSame",
			"outputs": [
				{
					"internalType": "bool",
					"name": "",
					"type": "bool"
				}
			],
			"stateMutability": "view",
			"type": "function"
		},
		{
			"inputs": [],
			"name": "stake",
			"outputs": [],
			"stateMutability": "nonpayable",
			"type": "function"
		},
		{
			"inputs": [],
			"name": "state",
			"outputs": [
				{
					"internalType": "address",
					"name": "",
					"type": "address"
				}
			],
			"stateMutability": "view",
			"type": "function"
		},
		{
			"inputs": [],
			"name": "testSender1",
			"outputs": [],
			"stateMutability": "nonpayable",
			"type": "function"
		},
		{
			"inputs": [],
			"name": "testSender2",
			"outputs": [],
			"stateMutability": "nonpayable",
			"type": "function"
		},
		{
			"inputs": [],
			"name": "user",
			"outputs": [
				{
					"internalType": "address",
					"name": "",
					"type": "address"
				}
			],
			"stateMutability": "view",
			"type": "function"
		}
	]
}