{
	"data": {
		"bytecode": {
			"linkReferences": {},
			"object": "608060405234801561000f575f80fd5b506106078061001d5f395ff3fe608060405234801561000f575f80fd5b50600436106100a7575f3560e01c8063a280b8d21161006f578063a280b8d21461012d578063b951486d1461014b578063c13d5ce114610169578063ce42c31014610187578063d4c207ad146101a5578063e4a8fb9a146101c3576100a7565b8063182ec12a146100ab5780633afae612146100c95780634bdf4a6d146100e75780636fd3af761461010557806396d373e514610123575b5f80fd5b6100b36101e1565b6040516100c091906104ba565b60405180910390f35b6100d1610263565b6040516100de91906104ba565b60405180910390f35b6100ef6102a8565b6040516100fc91906104ba565b60405180910390f35b61010d6102ad565b60405161011a91906104ba565b60405180910390f35b61012b6102ec565b005b610135610322565b60405161014291906104ba565b60405180910390f35b61015361035f565b60405161016091906104ba565b60405180910390f35b610171610365565b60405161017e91906104ba565b60405180910390f35b61018f6103a2565b60405161019c91906104ba565b60405180910390f35b6101ad61042c565b6040516101ba91906104ba565b60405180910390f35b6101cb610469565b6040516101d891906104ba565b60405180910390f35b5f80671111d67bb1bb000090505f600a90505f670de0b6b3a764000082846102099190610500565b610213919061056e565b90505f8060018460016102269190610500565b6102309190610500565b90505f828486846102419190610500565b61024b919061056e565b610255919061059e565b905080965050505050505090565b5f8067112210df8222b00090505f683635c9adc5dea0000090505f670de0b6b3a764000082846102939190610500565b61029d919061056e565b905080935050505090565b5f5481565b5f8067112210df8222b00090505f620f424090505f670de0b6b3a764000082846102d79190610500565b6102e1919061056e565b905080935050505090565b5f612b6790505f62012fd19050606482610306919061056e565b600181905550606481610319919061056e565b5f819055505050565b5f8067112210df8222b00090505f600a90505f670de0b6b3a7640000828461034a9190610500565b610354919061056e565b905080935050505090565b60015481565b5f8067112210df8222b00090505f600190505f670de0b6b3a7640000828461038d9190610500565b610397919061056e565b905080935050505090565b5f80671111d67bb1bb000090505f683635c9adc5dea0000090505f670de0b6b3a764000082846103d29190610500565b6103dc919061056e565b90505f8060018460016103ef9190610500565b6103f99190610500565b90505f8284868461040a9190610500565b610414919061056e565b61041e919061059e565b905080965050505050505090565b5f8061271090505f670de0b6b3a764000090505f614e5290505f8382846104539190610500565b61045d919061056e565b90508094505050505090565b5f8067112210df8222b00090505f80670de0b6b3a7640000828461048d9190610500565b610497919061056e565b905080935050505090565b5f819050919050565b6104b4816104a2565b82525050565b5f6020820190506104cd5f8301846104ab565b92915050565b7f4e487b71000000000000000000000000000000000000000000000000000000005f52601160045260245ffd5b5f61050a826104a2565b9150610515836104a2565b9250828202610523816104a2565b9150828204841483151761053a576105396104d3565b5b5092915050565b7f4e487b71000000000000000000000000000000000000000000000000000000005f52601260045260245ffd5b5f610578826104a2565b9150610583836104a2565b92508261059357610592610541565b5b828204905092915050565b5f6105a8826104a2565b91506105b3836104a2565b92508282019050808211156105cb576105ca6104d3565b5b9291505056fea2646970667358221220ec530db0524bd8c13191608c82cf7ecc1f9e0cce5e24d24cf4f9d66a0b03e12164736f6c63430008160033",
			"opcodes": "PUSH1 0x80 PUSH1 0x40 MSTORE CALLVALUE DUP1 ISZERO PUSH2 0xF JUMPI PUSH0 DUP1 REVERT JUMPDEST POP PUSH2 0x607 DUP1 PUSH2 0x1D PUSH0 CODECOPY PUSH0 RETURN INVALID PUSH1 0x80 PUSH1 0x40 MSTORE CALLVALUE DUP1 ISZERO PUSH2 0xF JUMPI PUSH0 DUP1 REVERT JUMPDEST POP PUSH1 0x4 CALLDATASIZE LT PUSH2 0xA7 JUMPI PUSH0 CALLDATALOAD PUSH1 0xE0 SHR DUP1 PUSH4 0xA280B8D2 GT PUSH2 0x6F JUMPI DUP1 PUSH4 0xA280B8D2 EQ PUSH2 0x12D JUMPI DUP1 PUSH4 0xB951486D EQ PUSH2 0x14B JUMPI DUP1 PUSH4 0xC13D5CE1 EQ PUSH2 0x169 JUMPI DUP1 PUSH4 0xCE42C310 EQ PUSH2 0x187 JUMPI DUP1 PUSH4 0xD4C207AD EQ PUSH2 0x1A5 JUMPI DUP1 PUSH4 0xE4A8FB9A EQ PUSH2 0x1C3 JUMPI PUSH2 0xA7 JUMP JUMPDEST DUP1 PUSH4 0x182EC12A EQ PUSH2 0xAB JUMPI DUP1 PUSH4 0x3AFAE612 EQ PUSH2 0xC9 JUMPI DUP1 PUSH4 0x4BDF4A6D EQ PUSH2 0xE7 JUMPI DUP1 PUSH4 0x6FD3AF76 EQ PUSH2 0x105 JUMPI DUP1 PUSH4 0x96D373E5 EQ PUSH2 0x123 JUMPI JUMPDEST PUSH0 DUP1 REVERT JUMPDEST PUSH2 0xB3 PUSH2 0x1E1 JUMP JUMPDEST PUSH1 0x40 MLOAD PUSH2 0xC0 SWAP2 SWAP1 PUSH2 0x4BA JUMP JUMPDEST PUSH1 0x40 MLOAD DUP1 SWAP2 SUB SWAP1 RETURN JUMPDEST PUSH2 0xD1 PUSH2 0x263 JUMP JUMPDEST PUSH1 0x40 MLOAD PUSH2 0xDE SWAP2 SWAP1 PUSH2 0x4BA JUMP JUMPDEST PUSH1 0x40 MLOAD DUP1 SWAP2 SUB SWAP1 RETURN JUMPDEST PUSH2 0xEF PUSH2 0x2A8 JUMP JUMPDEST PUSH1 0x40 MLOAD PUSH2 0xFC SWAP2 SWAP1 PUSH2 0x4BA JUMP JUMPDEST PUSH1 0x40 MLOAD DUP1 SWAP2 SUB SWAP1 RETURN JUMPDEST PUSH2 0x10D PUSH2 0x2AD JUMP JUMPDEST PUSH1 0x40 MLOAD PUSH2 0x11A SWAP2 SWAP1 PUSH2 0x4BA JUMP JUMPDEST PUSH1 0x40 MLOAD DUP1 SWAP2 SUB SWAP1 RETURN JUMPDEST PUSH2 0x12B PUSH2 0x2EC JUMP JUMPDEST STOP JUMPDEST PUSH2 0x135 PUSH2 0x322 JUMP JUMPDEST PUSH1 0x40 MLOAD PUSH2 0x142 SWAP2 SWAP1 PUSH2 0x4BA JUMP JUMPDEST PUSH1 0x40 MLOAD DUP1 SWAP2 SUB SWAP1 RETURN JUMPDEST PUSH2 0x153 PUSH2 0x35F JUMP JUMPDEST PUSH1 0x40 MLOAD PUSH2 0x160 SWAP2 SWAP1 PUSH2 0x4BA JUMP JUMPDEST PUSH1 0x40 MLOAD DUP1 SWAP2 SUB SWAP1 RETURN JUMPDEST PUSH2 0x171 PUSH2 0x365 JUMP JUMPDEST PUSH1 0x40 MLOAD PUSH2 0x17E SWAP2 SWAP1 PUSH2 0x4BA JUMP JUMPDEST PUSH1 0x40 MLOAD DUP1 SWAP2 SUB SWAP1 RETURN JUMPDEST PUSH2 0x18F PUSH2 0x3A2 JUMP JUMPDEST PUSH1 0x40 MLOAD PUSH2 0x19C SWAP2 SWAP1 PUSH2 0x4BA JUMP JUMPDEST PUSH1 0x40 MLOAD DUP1 SWAP2 SUB SWAP1 RETURN JUMPDEST PUSH2 0x1AD PUSH2 0x42C JUMP JUMPDEST PUSH1 0x40 MLOAD PUSH2 0x1BA SWAP2 SWAP1 PUSH2 0x4BA JUMP JUMPDEST PUSH1 0x40 MLOAD DUP1 SWAP2 SUB SWAP1 RETURN JUMPDEST PUSH2 0x1CB PUSH2 0x469 JUMP JUMPDEST PUSH1 0x40 MLOAD PUSH2 0x1D8 SWAP2 SWAP1 PUSH2 0x4BA JUMP JUMPDEST PUSH1 0x40 MLOAD DUP1 SWAP2 SUB SWAP1 RETURN JUMPDEST PUSH0 DUP1 PUSH8 0x1111D67BB1BB0000 SWAP1 POP PUSH0 PUSH1 0xA SWAP1 POP PUSH0 PUSH8 0xDE0B6B3A7640000 DUP3 DUP5 PUSH2 0x209 SWAP2 SWAP1 PUSH2 0x500 JUMP JUMPDEST PUSH2 0x213 SWAP2 SWAP1 PUSH2 0x56E JUMP JUMPDEST SWAP1 POP PUSH0 DUP1 PUSH1 0x1 DUP5 PUSH1 0x1 PUSH2 0x226 SWAP2 SWAP1 PUSH2 0x500 JUMP JUMPDEST PUSH2 0x230 SWAP2 SWAP1 PUSH2 0x500 JUMP JUMPDEST SWAP1 POP PUSH0 DUP3 DUP5 DUP7 DUP5 PUSH2 0x241 SWAP2 SWAP1 PUSH2 0x500 JUMP JUMPDEST PUSH2 0x24B SWAP2 SWAP1 PUSH2 0x56E JUMP JUMPDEST PUSH2 0x255 SWAP2 SWAP1 PUSH2 0x59E JUMP JUMPDEST SWAP1 POP DUP1 SWAP7 POP POP POP POP POP POP POP SWAP1 JUMP JUMPDEST PUSH0 DUP1 PUSH8 0x112210DF8222B000 SWAP1 POP PUSH0 PUSH9 0x3635C9ADC5DEA00000 SWAP1 POP PUSH0 PUSH8 0xDE0B6B3A7640000 DUP3 DUP5 PUSH2 0x293 SWAP2 SWAP1 PUSH2 0x500 JUMP JUMPDEST PUSH2 0x29D SWAP2 SWAP1 PUSH2 0x56E JUMP JUMPDEST SWAP1 POP DUP1 SWAP4 POP POP POP POP SWAP1 JUMP JUMPDEST PUSH0 SLOAD DUP2 JUMP JUMPDEST PUSH0 DUP1 PUSH8 0x112210DF8222B000 SWAP1 POP PUSH0 PUSH3 0xF4240 SWAP1 POP PUSH0 PUSH8 0xDE0B6B3A7640000 DUP3 DUP5 PUSH2 0x2D7 SWAP2 SWAP1 PUSH2 0x500 JUMP JUMPDEST PUSH2 0x2E1 SWAP2 SWAP1 PUSH2 0x56E JUMP JUMPDEST SWAP1 POP DUP1 SWAP4 POP POP POP POP SWAP1 JUMP JUMPDEST PUSH0 PUSH2 0x2B67 SWAP1 POP PUSH0 PUSH3 0x12FD1 SWAP1 POP PUSH1 0x64 DUP3 PUSH2 0x306 SWAP2 SWAP1 PUSH2 0x56E JUMP JUMPDEST PUSH1 0x1 DUP2 SWAP1 SSTORE POP PUSH1 0x64 DUP2 PUSH2 0x319 SWAP2 SWAP1 PUSH2 0x56E JUMP JUMPDEST PUSH0 DUP2 SWAP1 SSTORE POP POP POP JUMP JUMPDEST PUSH0 DUP1 PUSH8 0x112210DF8222B000 SWAP1 POP PUSH0 PUSH1 0xA SWAP1 POP PUSH0 PUSH8 0xDE0B6B3A7640000 DUP3 DUP5 PUSH2 0x34A SWAP2 SWAP1 PUSH2 0x500 JUMP JUMPDEST PUSH2 0x354 SWAP2 SWAP1 PUSH2 0x56E JUMP JUMPDEST SWAP1 POP DUP1 SWAP4 POP POP POP POP SWAP1 JUMP JUMPDEST PUSH1 0x1 SLOAD DUP2 JUMP JUMPDEST PUSH0 DUP1 PUSH8 0x112210DF8222B000 SWAP1 POP PUSH0 PUSH1 0x1 SWAP1 POP PUSH0 PUSH8 0xDE0B6B3A7640000 DUP3 DUP5 PUSH2 0x38D SWAP2 SWAP1 PUSH2 0x500 JUMP JUMPDEST PUSH2 0x397 SWAP2 SWAP1 PUSH2 0x56E JUMP JUMPDEST SWAP1 POP DUP1 SWAP4 POP POP POP POP SWAP1 JUMP JUMPDEST PUSH0 DUP1 PUSH8 0x1111D67BB1BB0000 SWAP1 POP PUSH0 PUSH9 0x3635C9ADC5DEA00000 SWAP1 POP PUSH0 PUSH8 0xDE0B6B3A7640000 DUP3 DUP5 PUSH2 0x3D2 SWAP2 SWAP1 PUSH2 0x500 JUMP JUMPDEST PUSH2 0x3DC SWAP2 SWAP1 PUSH2 0x56E JUMP JUMPDEST SWAP1 POP PUSH0 DUP1 PUSH1 0x1 DUP5 PUSH1 0x1 PUSH2 0x3EF SWAP2 SWAP1 PUSH2 0x500 JUMP JUMPDEST PUSH2 0x3F9 SWAP2 SWAP1 PUSH2 0x500 JUMP JUMPDEST SWAP1 POP PUSH0 DUP3 DUP5 DUP7 DUP5 PUSH2 0x40A SWAP2 SWAP1 PUSH2 0x500 JUMP JUMPDEST PUSH2 0x414 SWAP2 SWAP1 PUSH2 0x56E JUMP JUMPDEST PUSH2 0x41E SWAP2 SWAP1 PUSH2 0x59E JUMP JUMPDEST SWAP1 POP DUP1 SWAP7 POP POP POP POP POP POP POP SWAP1 JUMP JUMPDEST PUSH0 DUP1 PUSH2 0x2710 SWAP1 POP PUSH0 PUSH8 0xDE0B6B3A7640000 SWAP1 POP PUSH0 PUSH2 0x4E52 SWAP1 POP PUSH0 DUP4 DUP3 DUP5 PUSH2 0x453 SWAP2 SWAP1 PUSH2 0x500 JUMP JUMPDEST PUSH2 0x45D SWAP2 SWAP1 PUSH2 0x56E JUMP JUMPDEST SWAP1 POP DUP1 SWAP5 POP POP POP POP POP SWAP1 JUMP JUMPDEST PUSH0 DUP1 PUSH8 0x112210DF8222B000 SWAP1 POP PUSH0 DUP1 PUSH8 0xDE0B6B3A7640000 DUP3 DUP5 PUSH2 0x48D SWAP2 SWAP1 PUSH2 0x500 JUMP JUMPDEST PUSH2 0x497 SWAP2 SWAP1 PUSH2 0x56E JUMP JUMPDEST SWAP1 POP DUP1 SWAP4 POP POP POP POP SWAP1 JUMP JUMPDEST PUSH0 DUP2 SWAP1 POP SWAP2 SWAP1 POP JUMP JUMPDEST PUSH2 0x4B4 DUP2 PUSH2 0x4A2 JUMP JUMPDEST DUP3 MSTORE POP POP JUMP JUMPDEST PUSH0 PUSH1 0x20 DUP3 ADD SWAP1 POP PUSH2 0x4CD PUSH0 DUP4 ADD DUP5 PUSH2 0x4AB JUMP JUMPDEST SWAP3 SWAP2 POP POP JUMP JUMPDEST PUSH32 0x4E487B7100000000000000000000000000000000000000000000000000000000 PUSH0 MSTORE PUSH1 0x11 PUSH1 0x4 MSTORE PUSH1 0x24 PUSH0 REVERT JUMPDEST PUSH0 PUSH2 0x50A DUP3 PUSH2 0x4A2 JUMP JUMPDEST SWAP2 POP PUSH2 0x515 DUP4 PUSH2 0x4A2 JUMP JUMPDEST SWAP3 POP DUP3 DUP3 MUL PUSH2 0x523 DUP2 PUSH2 0x4A2 JUMP JUMPDEST SWAP2 POP DUP3 DUP3 DIV DUP5 EQ DUP4 ISZERO OR PUSH2 0x53A JUMPI PUSH2 0x539 PUSH2 0x4D3 JUMP JUMPDEST JUMPDEST POP SWAP3 SWAP2 POP POP JUMP JUMPDEST PUSH32 0x4E487B7100000000000000000000000000000000000000000000000000000000 PUSH0 MSTORE PUSH1 0x12 PUSH1 0x4 MSTORE PUSH1 0x24 PUSH0 REVERT JUMPDEST PUSH0 PUSH2 0x578 DUP3 PUSH2 0x4A2 JUMP JUMPDEST SWAP2 POP PUSH2 0x583 DUP4 PUSH2 0x4A2 JUMP JUMPDEST SWAP3 POP DUP3 PUSH2 0x593 JUMPI PUSH2 0x592 PUSH2 0x541 JUMP JUMPDEST JUMPDEST DUP3 DUP3 DIV SWAP1 POP SWAP3 SWAP2 POP POP JUMP JUMPDEST PUSH0 PUSH2 0x5A8 DUP3 PUSH2 0x4A2 JUMP JUMPDEST SWAP2 POP PUSH2 0x5B3 DUP4 PUSH2 0x4A2 JUMP JUMPDEST SWAP3 POP DUP3 DUP3 ADD SWAP1 POP DUP1 DUP3 GT ISZERO PUSH2 0x5CB JUMPI PUSH2 0x5CA PUSH2 0x4D3 JUMP JUMPDEST JUMPDEST SWAP3 SWAP2 POP POP JUMP INVALID LOG2 PUSH5 0x6970667358 0x22 SLT KECCAK256 0xEC MSTORE8 0xD 0xB0 MSTORE 0x4B 0xD8 0xC1 BALANCE SWAP2 PUSH1 0x8C DUP3 0xCF PUSH31 0xCC1F9E0CCE5E24D24CF4F9D66A0B03E12164736F6C63430008160033000000 "
		},
		"gasEstimates": {
			"creation": {
				"codeDepositCost": "308600",
				"executionCost": "347",
				"totalCost": "308947"
			},
			"external": {
				"cast()": "infinite",
				"indexPrecision()": "infinite",
				"indexPrecision2()": "infinite",
				"lower()": "2447",
				"nftPrecision()": "infinite",
				"sec1()": "infinite",
				"sec2()": "infinite",
				"sec3()": "infinite",
				"sec4()": "infinite",
				"sec5()": "infinite",
				"upper()": "2469"
			}
		},
		"methodIdentifiers": {
			"cast()": "96d373e5",
			"indexPrecision()": "182ec12a",
			"indexPrecision2()": "ce42c310",
			"lower()": "b951486d",
			"nftPrecision()": "d4c207ad",
			"sec1()": "6fd3af76",
			"sec2()": "3afae612",
			"sec3()": "a280b8d2",
			"sec4()": "c13d5ce1",
			"sec5()": "e4a8fb9a",
			"upper()": "4bdf4a6d"
		}
	},
	"abi": [
		{
			"inputs": [],
			"name": "cast",
			"outputs": [],
			"stateMutability": "nonpayable",
			"type": "function"
		},
		{
			"inputs": [],
			"name": "indexPrecision",
			"outputs": [
				{
					"internalType": "uint256",
					"name": "",
					"type": "uint256"
				}
			],
			"stateMutability": "pure",
			"type": "function"
		},
		{
			"inputs": [],
			"name": "indexPrecision2",
			"outputs": [
				{
					"internalType": "uint256",
					"name": "",
					"type": "uint256"
				}
			],
			"stateMutability": "pure",
			"type": "function"
		},
		{
			"inputs": [],
			"name": "lower",
			"outputs": [
				{
					"internalType": "uint256",
					"name": "",
					"type": "uint256"
				}
			],
			"stateMutability": "view",
			"type": "function"
		},
		{
			"inputs": [],
			"name": "nftPrecision",
			"outputs": [
				{
					"internalType": "uint256",
					"name": "",
					"type": "uint256"
				}
			],
			"stateMutability": "pure",
			"type": "function"
		},
		{
			"inputs": [],
			"name": "sec1",
			"outputs": [
				{
					"internalType": "uint256",
					"name": "",
					"type": "uint256"
				}
			],
			"stateMutability": "view",
			"type": "function"
		},
		{
			"inputs": [],
			"name": "sec2",
			"outputs": [
				{
					"internalType": "uint256",
					"name": "",
					"type": "uint256"
				}
			],
			"stateMutability": "view",
			"type": "function"
		},
		{
			"inputs": [],
			"name": "sec3",
			"outputs": [
				{
					"internalType": "uint256",
					"name": "",
					"type": "uint256"
				}
			],
			"stateMutability": "view",
			"type": "function"
		},
		{
			"inputs": [],
			"name": "sec4",
			"outputs": [
				{
					"internalType": "uint256",
					"name": "",
					"type": "uint256"
				}
			],
			"stateMutability": "view",
			"type": "function"
		},
		{
			"inputs": [],
			"name": "sec5",
			"outputs": [
				{
					"internalType": "uint256",
					"name": "",
					"type": "uint256"
				}
			],
			"stateMutability": "view",
			"type": "function"
		},
		{
			"inputs": [],
			"name": "upper",
			"outputs": [
				{
					"internalType": "uint256",
					"name": "",
					"type": "uint256"
				}
			],
			"stateMutability": "view",
			"type": "function"
		}
	]
}