{
	"data": {
		"bytecode": {
			"linkReferences": {},
			"object": "608060405234801561000f575f80fd5b506102ce8061001d5f395ff3fe608060405234801561000f575f80fd5b506004361061003f575f3560e01c80634437152a146100435780638976af671461005f578063f7260d3e14610069575b5f80fd5b61005d600480360381019061005891906101d1565b610087565b005b6100676100c9565b005b610071610150565b60405161007e9190610257565b60405180910390f35b805f806101000a81548173ffffffffffffffffffffffffffffffffffffffff021916908373ffffffffffffffffffffffffffffffffffffffff16021790555050565b5f8054906101000a900473ffffffffffffffffffffffffffffffffffffffff1673ffffffffffffffffffffffffffffffffffffffff1663356cbed7336040518263ffffffff1660e01b8152600401610121919061027f565b5f604051808303815f87803b158015610138575f80fd5b505af115801561014a573d5f803e3d5ffd5b50505050565b5f8054906101000a900473ffffffffffffffffffffffffffffffffffffffff1681565b5f80fd5b5f73ffffffffffffffffffffffffffffffffffffffff82169050919050565b5f6101a082610177565b9050919050565b6101b081610196565b81146101ba575f80fd5b50565b5f813590506101cb816101a7565b92915050565b5f602082840312156101e6576101e5610173565b5b5f6101f3848285016101bd565b91505092915050565b5f819050919050565b5f61021f61021a61021584610177565b6101fc565b610177565b9050919050565b5f61023082610205565b9050919050565b5f61024182610226565b9050919050565b61025181610237565b82525050565b5f60208201905061026a5f830184610248565b92915050565b61027981610196565b82525050565b5f6020820190506102925f830184610270565b9291505056fea26469706673582212200f8da0e260f298826bc53156e20fc01c6b2434f4a926397342f82c22acb980e364736f6c63430008160033",
			"opcodes": "PUSH1 0x80 PUSH1 0x40 MSTORE CALLVALUE DUP1 ISZERO PUSH2 0xF JUMPI PUSH0 DUP1 REVERT JUMPDEST POP PUSH2 0x2CE DUP1 PUSH2 0x1D PUSH0 CODECOPY PUSH0 RETURN INVALID PUSH1 0x80 PUSH1 0x40 MSTORE CALLVALUE DUP1 ISZERO PUSH2 0xF JUMPI PUSH0 DUP1 REVERT JUMPDEST POP PUSH1 0x4 CALLDATASIZE LT PUSH2 0x3F JUMPI PUSH0 CALLDATALOAD PUSH1 0xE0 SHR DUP1 PUSH4 0x4437152A EQ PUSH2 0x43 JUMPI DUP1 PUSH4 0x8976AF67 EQ PUSH2 0x5F JUMPI DUP1 PUSH4 0xF7260D3E EQ PUSH2 0x69 JUMPI JUMPDEST PUSH0 DUP1 REVERT JUMPDEST PUSH2 0x5D PUSH1 0x4 DUP1 CALLDATASIZE SUB DUP2 ADD SWAP1 PUSH2 0x58 SWAP2 SWAP1 PUSH2 0x1D1 JUMP JUMPDEST PUSH2 0x87 JUMP JUMPDEST STOP JUMPDEST PUSH2 0x67 PUSH2 0xC9 JUMP JUMPDEST STOP JUMPDEST PUSH2 0x71 PUSH2 0x150 JUMP JUMPDEST PUSH1 0x40 MLOAD PUSH2 0x7E SWAP2 SWAP1 PUSH2 0x257 JUMP JUMPDEST PUSH1 0x40 MLOAD DUP1 SWAP2 SUB SWAP1 RETURN JUMPDEST DUP1 PUSH0 DUP1 PUSH2 0x100 EXP DUP2 SLOAD DUP2 PUSH20 0xFFFFFFFFFFFFFFFFFFFFFFFFFFFFFFFFFFFFFFFF MUL NOT AND SWAP1 DUP4 PUSH20 0xFFFFFFFFFFFFFFFFFFFFFFFFFFFFFFFFFFFFFFFF AND MUL OR SWAP1 SSTORE POP POP JUMP JUMPDEST PUSH0 DUP1 SLOAD SWAP1 PUSH2 0x100 EXP SWAP1 DIV PUSH20 0xFFFFFFFFFFFFFFFFFFFFFFFFFFFFFFFFFFFFFFFF AND PUSH20 0xFFFFFFFFFFFFFFFFFFFFFFFFFFFFFFFFFFFFFFFF AND PUSH4 0x356CBED7 CALLER PUSH1 0x40 MLOAD DUP3 PUSH4 0xFFFFFFFF AND PUSH1 0xE0 SHL DUP2 MSTORE PUSH1 0x4 ADD PUSH2 0x121 SWAP2 SWAP1 PUSH2 0x27F JUMP JUMPDEST PUSH0 PUSH1 0x40 MLOAD DUP1 DUP4 SUB DUP2 PUSH0 DUP8 DUP1 EXTCODESIZE ISZERO DUP1 ISZERO PUSH2 0x138 JUMPI PUSH0 DUP1 REVERT JUMPDEST POP GAS CALL ISZERO DUP1 ISZERO PUSH2 0x14A JUMPI RETURNDATASIZE PUSH0 DUP1 RETURNDATACOPY RETURNDATASIZE PUSH0 REVERT JUMPDEST POP POP POP POP JUMP JUMPDEST PUSH0 DUP1 SLOAD SWAP1 PUSH2 0x100 EXP SWAP1 DIV PUSH20 0xFFFFFFFFFFFFFFFFFFFFFFFFFFFFFFFFFFFFFFFF AND DUP2 JUMP JUMPDEST PUSH0 DUP1 REVERT JUMPDEST PUSH0 PUSH20 0xFFFFFFFFFFFFFFFFFFFFFFFFFFFFFFFFFFFFFFFF DUP3 AND SWAP1 POP SWAP2 SWAP1 POP JUMP JUMPDEST PUSH0 PUSH2 0x1A0 DUP3 PUSH2 0x177 JUMP JUMPDEST SWAP1 POP SWAP2 SWAP1 POP JUMP JUMPDEST PUSH2 0x1B0 DUP2 PUSH2 0x196 JUMP JUMPDEST DUP2 EQ PUSH2 0x1BA JUMPI PUSH0 DUP1 REVERT JUMPDEST POP JUMP JUMPDEST PUSH0 DUP2 CALLDATALOAD SWAP1 POP PUSH2 0x1CB DUP2 PUSH2 0x1A7 JUMP JUMPDEST SWAP3 SWAP2 POP POP JUMP JUMPDEST PUSH0 PUSH1 0x20 DUP3 DUP5 SUB SLT ISZERO PUSH2 0x1E6 JUMPI PUSH2 0x1E5 PUSH2 0x173 JUMP JUMPDEST JUMPDEST PUSH0 PUSH2 0x1F3 DUP5 DUP3 DUP6 ADD PUSH2 0x1BD JUMP JUMPDEST SWAP2 POP POP SWAP3 SWAP2 POP POP JUMP JUMPDEST PUSH0 DUP2 SWAP1 POP SWAP2 SWAP1 POP JUMP JUMPDEST PUSH0 PUSH2 0x21F PUSH2 0x21A PUSH2 0x215 DUP5 PUSH2 0x177 JUMP JUMPDEST PUSH2 0x1FC JUMP JUMPDEST PUSH2 0x177 JUMP JUMPDEST SWAP1 POP SWAP2 SWAP1 POP JUMP JUMPDEST PUSH0 PUSH2 0x230 DUP3 PUSH2 0x205 JUMP JUMPDEST SWAP1 POP SWAP2 SWAP1 POP JUMP JUMPDEST PUSH0 PUSH2 0x241 DUP3 PUSH2 0x226 JUMP JUMPDEST SWAP1 POP SWAP2 SWAP1 POP JUMP JUMPDEST PUSH2 0x251 DUP2 PUSH2 0x237 JUMP JUMPDEST DUP3 MSTORE POP POP JUMP JUMPDEST PUSH0 PUSH1 0x20 DUP3 ADD SWAP1 POP PUSH2 0x26A PUSH0 DUP4 ADD DUP5 PUSH2 0x248 JUMP JUMPDEST SWAP3 SWAP2 POP POP JUMP JUMPDEST PUSH2 0x279 DUP2 PUSH2 0x196 JUMP JUMPDEST DUP3 MSTORE POP POP JUMP JUMPDEST PUSH0 PUSH1 0x20 DUP3 ADD SWAP1 POP PUSH2 0x292 PUSH0 DUP4 ADD DUP5 PUSH2 0x270 JUMP JUMPDEST SWAP3 SWAP2 POP POP JUMP INVALID LOG2 PUSH5 0x6970667358 0x22 SLT KECCAK256 0xF DUP14 LOG0 0xE2 PUSH1 0xF2 SWAP9 DUP3 PUSH12 0xC53156E20FC01C6B2434F4A9 0x26 CODECOPY PUSH20 0x42F82C22ACB980E364736F6C6343000816003300 "
		},
		"gasEstimates": {
			"creation": {
				"codeDepositCost": "143600",
				"executionCost": "188",
				"totalCost": "143788"
			},
			"external": {
				"callExt()": "infinite",
				"receiver()": "infinite",
				"setPool(address)": "24693"
			}
		},
		"methodIdentifiers": {
			"callExt()": "8976af67",
			"receiver()": "f7260d3e",
			"setPool(address)": "4437152a"
		}
	},
	"abi": [
		{
			"inputs": [],
			"name": "callExt",
			"outputs": [],
			"stateMutability": "nonpayable",
			"type": "function"
		},
		{
			"inputs": [],
			"name": "receiver",
			"outputs": [
				{
					"internalType": "contract PoolReceiver",
					"name": "",
					"type": "address"
				}
			],
			"stateMutability": "view",
			"type": "function"
		},
		{
			"inputs": [
				{
					"internalType": "address",
					"name": "receiver_",
					"type": "address"
				}
			],
			"name": "setPool",
			"outputs": [],
			"stateMutability": "nonpayable",
			"type": "function"
		}
	]
}