{
	"data": {
		"bytecode": {
			"linkReferences": {},
			"object": "608060405234801561000f575f80fd5b50610c428061001d5f395ff3fe608060405260043610610054575f3560e01c806316f0115b146100585780631e897afb1461008257806329e99f07146100b25780634437152a146100da5780634e70b1dc146101025780636466414b1461012c575b5f80fd5b348015610063575f80fd5b5061006c610148565b60405161007991906105dd565b60405180910390f35b61009c60048036038101906100979190610668565b61016d565b6040516100a991906107f8565b60405180910390f35b3480156100bd575f80fd5b506100d860048036038101906100d3919061084b565b6102dc565b005b3480156100e5575f80fd5b5061010060048036038101906100fb91906108b1565b610426565b005b34801561010d575f80fd5b50610116610469565b60405161012391906108eb565b60405180910390f35b6101466004803603810190610141919061084b565b61046e565b005b60015f9054906101000a900473ffffffffffffffffffffffffffffffffffffffff1681565b60608282905067ffffffffffffffff81111561018c5761018b610904565b5b6040519080825280602002602001820160405280156101bf57816020015b60608152602001906001900390816101aa5790505b5090505f5b838390508110156102d5575f803073ffffffffffffffffffffffffffffffffffffffff168686858181106101fb576101fa610931565b5b905060200281019061020d919061096a565b60405161021b929190610a08565b5f60405180830381855af49150503d805f8114610253576040519150601f19603f3d011682016040523d82523d5f602084013e610258565b606091505b5091509150816102a75761026b816104f8565b6040517f08c379a000000000000000000000000000000000000000000000000000000000815260040161029e9190610a72565b60405180910390fd5b808484815181106102bb576102ba610931565b5b6020026020010181905250505080806001019150506101c4565b5092915050565b5f816040516024016102ee91906108eb565b6040516020818303038152906040527f6466414b000000000000000000000000000000000000000000000000000000007bffffffffffffffffffffffffffffffffffffffffffffffffffffffff19166020820180517bffffffffffffffffffffffffffffffffffffffffffffffffffffffff838183161783525050505090505f803073ffffffffffffffffffffffffffffffffffffffff16836040516103949190610ac2565b5f60405180830381855af49150503d805f81146103cc576040519150601f19603f3d011682016040523d82523d5f602084013e6103d1565b606091505b509150915081610420576103e4816104f8565b6040517f08c379a00000000000000000000000000000000000000000000000000000000081526004016104179190610a72565b60405180910390fd5b50505050565b8060015f6101000a81548173ffffffffffffffffffffffffffffffffffffffff021916908373ffffffffffffffffffffffffffffffffffffffff16021790555050565b5f5481565b60015f9054906101000a900473ffffffffffffffffffffffffffffffffffffffff1673ffffffffffffffffffffffffffffffffffffffff16636466414b826040518263ffffffff1660e01b81526004016104c891906108eb565b5f604051808303815f87803b1580156104df575f80fd5b505af11580156104f1573d5f803e3d5ffd5b5050505050565b6060604482511015610541576040518060400160405280601d81526020017f5472616e73616374696f6e2072657665727465642073696c656e746c79000000815250905061055e565b6004820191508180602001905181019061055b9190610bc5565b90505b919050565b5f73ffffffffffffffffffffffffffffffffffffffff82169050919050565b5f819050919050565b5f6105a56105a061059b84610563565b610582565b610563565b9050919050565b5f6105b68261058b565b9050919050565b5f6105c7826105ac565b9050919050565b6105d7816105bd565b82525050565b5f6020820190506105f05f8301846105ce565b92915050565b5f604051905090565b5f80fd5b5f80fd5b5f80fd5b5f80fd5b5f80fd5b5f8083601f84011261062857610627610607565b5b8235905067ffffffffffffffff8111156106455761064461060b565b5b6020830191508360208202830111156106615761066061060f565b5b9250929050565b5f806020838503121561067e5761067d6105ff565b5b5f83013567ffffffffffffffff81111561069b5761069a610603565b5b6106a785828601610613565b92509250509250929050565b5f81519050919050565b5f82825260208201905092915050565b5f819050602082019050919050565b5f81519050919050565b5f82825260208201905092915050565b5f5b838110156107135780820151818401526020810190506106f8565b5f8484015250505050565b5f601f19601f8301169050919050565b5f610738826106dc565b61074281856106e6565b93506107528185602086016106f6565b61075b8161071e565b840191505092915050565b5f610771838361072e565b905092915050565b5f602082019050919050565b5f61078f826106b3565b61079981856106bd565b9350836020820285016107ab856106cd565b805f5b858110156107e657848403895281516107c78582610766565b94506107d283610779565b925060208a019950506001810190506107ae565b50829750879550505050505092915050565b5f6020820190508181035f8301526108108184610785565b905092915050565b5f819050919050565b61082a81610818565b8114610834575f80fd5b50565b5f8135905061084581610821565b92915050565b5f602082840312156108605761085f6105ff565b5b5f61086d84828501610837565b91505092915050565b5f61088082610563565b9050919050565b61089081610876565b811461089a575f80fd5b50565b5f813590506108ab81610887565b92915050565b5f602082840312156108c6576108c56105ff565b5b5f6108d38482850161089d565b91505092915050565b6108e581610818565b82525050565b5f6020820190506108fe5f8301846108dc565b92915050565b7f4e487b71000000000000000000000000000000000000000000000000000000005f52604160045260245ffd5b7f4e487b71000000000000000000000000000000000000000000000000000000005f52603260045260245ffd5b5f80fd5b5f80fd5b5f80fd5b5f80833560016020038436030381126109865761098561095e565b5b80840192508235915067ffffffffffffffff8211156109a8576109a7610962565b5b6020830192506001820236038313156109c4576109c3610966565b5b509250929050565b5f81905092915050565b828183375f83830152505050565b5f6109ef83856109cc565b93506109fc8385846109d6565b82840190509392505050565b5f610a148284866109e4565b91508190509392505050565b5f81519050919050565b5f82825260208201905092915050565b5f610a4482610a20565b610a4e8185610a2a565b9350610a5e8185602086016106f6565b610a678161071e565b840191505092915050565b5f6020820190508181035f830152610a8a8184610a3a565b905092915050565b5f610a9c826106dc565b610aa681856109cc565b9350610ab68185602086016106f6565b80840191505092915050565b5f610acd8284610a92565b915081905092915050565b5f80fd5b610ae58261071e565b810181811067ffffffffffffffff82111715610b0457610b03610904565b5b80604052505050565b5f610b166105f6565b9050610b228282610adc565b919050565b5f67ffffffffffffffff821115610b4157610b40610904565b5b610b4a8261071e565b9050602081019050919050565b5f610b69610b6484610b27565b610b0d565b905082815260208101848484011115610b8557610b84610ad8565b5b610b908482856106f6565b509392505050565b5f82601f830112610bac57610bab610607565b5b8151610bbc848260208601610b57565b91505092915050565b5f60208284031215610bda57610bd96105ff565b5b5f82015167ffffffffffffffff811115610bf757610bf6610603565b5b610c0384828501610b98565b9150509291505056fea2646970667358221220ebdf8194fbecbd7985cacb68838a83a5f549c5891c5d032120339dcc71d2901164736f6c63430008160033",
			"opcodes": "PUSH1 0x80 PUSH1 0x40 MSTORE CALLVALUE DUP1 ISZERO PUSH2 0xF JUMPI PUSH0 DUP1 REVERT JUMPDEST POP PUSH2 0xC42 DUP1 PUSH2 0x1D PUSH0 CODECOPY PUSH0 RETURN INVALID PUSH1 0x80 PUSH1 0x40 MSTORE PUSH1 0x4 CALLDATASIZE LT PUSH2 0x54 JUMPI PUSH0 CALLDATALOAD PUSH1 0xE0 SHR DUP1 PUSH4 0x16F0115B EQ PUSH2 0x58 JUMPI DUP1 PUSH4 0x1E897AFB EQ PUSH2 0x82 JUMPI DUP1 PUSH4 0x29E99F07 EQ PUSH2 0xB2 JUMPI DUP1 PUSH4 0x4437152A EQ PUSH2 0xDA JUMPI DUP1 PUSH4 0x4E70B1DC EQ PUSH2 0x102 JUMPI DUP1 PUSH4 0x6466414B EQ PUSH2 0x12C JUMPI JUMPDEST PUSH0 DUP1 REVERT JUMPDEST CALLVALUE DUP1 ISZERO PUSH2 0x63 JUMPI PUSH0 DUP1 REVERT JUMPDEST POP PUSH2 0x6C PUSH2 0x148 JUMP JUMPDEST PUSH1 0x40 MLOAD PUSH2 0x79 SWAP2 SWAP1 PUSH2 0x5DD JUMP JUMPDEST PUSH1 0x40 MLOAD DUP1 SWAP2 SUB SWAP1 RETURN JUMPDEST PUSH2 0x9C PUSH1 0x4 DUP1 CALLDATASIZE SUB DUP2 ADD SWAP1 PUSH2 0x97 SWAP2 SWAP1 PUSH2 0x668 JUMP JUMPDEST PUSH2 0x16D JUMP JUMPDEST PUSH1 0x40 MLOAD PUSH2 0xA9 SWAP2 SWAP1 PUSH2 0x7F8 JUMP JUMPDEST PUSH1 0x40 MLOAD DUP1 SWAP2 SUB SWAP1 RETURN JUMPDEST CALLVALUE DUP1 ISZERO PUSH2 0xBD JUMPI PUSH0 DUP1 REVERT JUMPDEST POP PUSH2 0xD8 PUSH1 0x4 DUP1 CALLDATASIZE SUB DUP2 ADD SWAP1 PUSH2 0xD3 SWAP2 SWAP1 PUSH2 0x84B JUMP JUMPDEST PUSH2 0x2DC JUMP JUMPDEST STOP JUMPDEST CALLVALUE DUP1 ISZERO PUSH2 0xE5 JUMPI PUSH0 DUP1 REVERT JUMPDEST POP PUSH2 0x100 PUSH1 0x4 DUP1 CALLDATASIZE SUB DUP2 ADD SWAP1 PUSH2 0xFB SWAP2 SWAP1 PUSH2 0x8B1 JUMP JUMPDEST PUSH2 0x426 JUMP JUMPDEST STOP JUMPDEST CALLVALUE DUP1 ISZERO PUSH2 0x10D JUMPI PUSH0 DUP1 REVERT JUMPDEST POP PUSH2 0x116 PUSH2 0x469 JUMP JUMPDEST PUSH1 0x40 MLOAD PUSH2 0x123 SWAP2 SWAP1 PUSH2 0x8EB JUMP JUMPDEST PUSH1 0x40 MLOAD DUP1 SWAP2 SUB SWAP1 RETURN JUMPDEST PUSH2 0x146 PUSH1 0x4 DUP1 CALLDATASIZE SUB DUP2 ADD SWAP1 PUSH2 0x141 SWAP2 SWAP1 PUSH2 0x84B JUMP JUMPDEST PUSH2 0x46E JUMP JUMPDEST STOP JUMPDEST PUSH1 0x1 PUSH0 SWAP1 SLOAD SWAP1 PUSH2 0x100 EXP SWAP1 DIV PUSH20 0xFFFFFFFFFFFFFFFFFFFFFFFFFFFFFFFFFFFFFFFF AND DUP2 JUMP JUMPDEST PUSH1 0x60 DUP3 DUP3 SWAP1 POP PUSH8 0xFFFFFFFFFFFFFFFF DUP2 GT ISZERO PUSH2 0x18C JUMPI PUSH2 0x18B PUSH2 0x904 JUMP JUMPDEST JUMPDEST PUSH1 0x40 MLOAD SWAP1 DUP1 DUP3 MSTORE DUP1 PUSH1 0x20 MUL PUSH1 0x20 ADD DUP3 ADD PUSH1 0x40 MSTORE DUP1 ISZERO PUSH2 0x1BF JUMPI DUP2 PUSH1 0x20 ADD JUMPDEST PUSH1 0x60 DUP2 MSTORE PUSH1 0x20 ADD SWAP1 PUSH1 0x1 SWAP1 SUB SWAP1 DUP2 PUSH2 0x1AA JUMPI SWAP1 POP JUMPDEST POP SWAP1 POP PUSH0 JUMPDEST DUP4 DUP4 SWAP1 POP DUP2 LT ISZERO PUSH2 0x2D5 JUMPI PUSH0 DUP1 ADDRESS PUSH20 0xFFFFFFFFFFFFFFFFFFFFFFFFFFFFFFFFFFFFFFFF AND DUP7 DUP7 DUP6 DUP2 DUP2 LT PUSH2 0x1FB JUMPI PUSH2 0x1FA PUSH2 0x931 JUMP JUMPDEST JUMPDEST SWAP1 POP PUSH1 0x20 MUL DUP2 ADD SWAP1 PUSH2 0x20D SWAP2 SWAP1 PUSH2 0x96A JUMP JUMPDEST PUSH1 0x40 MLOAD PUSH2 0x21B SWAP3 SWAP2 SWAP1 PUSH2 0xA08 JUMP JUMPDEST PUSH0 PUSH1 0x40 MLOAD DUP1 DUP4 SUB DUP2 DUP6 GAS DELEGATECALL SWAP2 POP POP RETURNDATASIZE DUP1 PUSH0 DUP2 EQ PUSH2 0x253 JUMPI PUSH1 0x40 MLOAD SWAP2 POP PUSH1 0x1F NOT PUSH1 0x3F RETURNDATASIZE ADD AND DUP3 ADD PUSH1 0x40 MSTORE RETURNDATASIZE DUP3 MSTORE RETURNDATASIZE PUSH0 PUSH1 0x20 DUP5 ADD RETURNDATACOPY PUSH2 0x258 JUMP JUMPDEST PUSH1 0x60 SWAP2 POP JUMPDEST POP SWAP2 POP SWAP2 POP DUP2 PUSH2 0x2A7 JUMPI PUSH2 0x26B DUP2 PUSH2 0x4F8 JUMP JUMPDEST PUSH1 0x40 MLOAD PUSH32 0x8C379A000000000000000000000000000000000000000000000000000000000 DUP2 MSTORE PUSH1 0x4 ADD PUSH2 0x29E SWAP2 SWAP1 PUSH2 0xA72 JUMP JUMPDEST PUSH1 0x40 MLOAD DUP1 SWAP2 SUB SWAP1 REVERT JUMPDEST DUP1 DUP5 DUP5 DUP2 MLOAD DUP2 LT PUSH2 0x2BB JUMPI PUSH2 0x2BA PUSH2 0x931 JUMP JUMPDEST JUMPDEST PUSH1 0x20 MUL PUSH1 0x20 ADD ADD DUP2 SWAP1 MSTORE POP POP POP DUP1 DUP1 PUSH1 0x1 ADD SWAP2 POP POP PUSH2 0x1C4 JUMP JUMPDEST POP SWAP3 SWAP2 POP POP JUMP JUMPDEST PUSH0 DUP2 PUSH1 0x40 MLOAD PUSH1 0x24 ADD PUSH2 0x2EE SWAP2 SWAP1 PUSH2 0x8EB JUMP JUMPDEST PUSH1 0x40 MLOAD PUSH1 0x20 DUP2 DUP4 SUB SUB DUP2 MSTORE SWAP1 PUSH1 0x40 MSTORE PUSH32 0x6466414B00000000000000000000000000000000000000000000000000000000 PUSH28 0xFFFFFFFFFFFFFFFFFFFFFFFFFFFFFFFFFFFFFFFFFFFFFFFFFFFFFFFF NOT AND PUSH1 0x20 DUP3 ADD DUP1 MLOAD PUSH28 0xFFFFFFFFFFFFFFFFFFFFFFFFFFFFFFFFFFFFFFFFFFFFFFFFFFFFFFFF DUP4 DUP2 DUP4 AND OR DUP4 MSTORE POP POP POP POP SWAP1 POP PUSH0 DUP1 ADDRESS PUSH20 0xFFFFFFFFFFFFFFFFFFFFFFFFFFFFFFFFFFFFFFFF AND DUP4 PUSH1 0x40 MLOAD PUSH2 0x394 SWAP2 SWAP1 PUSH2 0xAC2 JUMP JUMPDEST PUSH0 PUSH1 0x40 MLOAD DUP1 DUP4 SUB DUP2 DUP6 GAS DELEGATECALL SWAP2 POP POP RETURNDATASIZE DUP1 PUSH0 DUP2 EQ PUSH2 0x3CC JUMPI PUSH1 0x40 MLOAD SWAP2 POP PUSH1 0x1F NOT PUSH1 0x3F RETURNDATASIZE ADD AND DUP3 ADD PUSH1 0x40 MSTORE RETURNDATASIZE DUP3 MSTORE RETURNDATASIZE PUSH0 PUSH1 0x20 DUP5 ADD RETURNDATACOPY PUSH2 0x3D1 JUMP JUMPDEST PUSH1 0x60 SWAP2 POP JUMPDEST POP SWAP2 POP SWAP2 POP DUP2 PUSH2 0x420 JUMPI PUSH2 0x3E4 DUP2 PUSH2 0x4F8 JUMP JUMPDEST PUSH1 0x40 MLOAD PUSH32 0x8C379A000000000000000000000000000000000000000000000000000000000 DUP2 MSTORE PUSH1 0x4 ADD PUSH2 0x417 SWAP2 SWAP1 PUSH2 0xA72 JUMP JUMPDEST PUSH1 0x40 MLOAD DUP1 SWAP2 SUB SWAP1 REVERT JUMPDEST POP POP POP POP JUMP JUMPDEST DUP1 PUSH1 0x1 PUSH0 PUSH2 0x100 EXP DUP2 SLOAD DUP2 PUSH20 0xFFFFFFFFFFFFFFFFFFFFFFFFFFFFFFFFFFFFFFFF MUL NOT AND SWAP1 DUP4 PUSH20 0xFFFFFFFFFFFFFFFFFFFFFFFFFFFFFFFFFFFFFFFF AND MUL OR SWAP1 SSTORE POP POP JUMP JUMPDEST PUSH0 SLOAD DUP2 JUMP JUMPDEST PUSH1 0x1 PUSH0 SWAP1 SLOAD SWAP1 PUSH2 0x100 EXP SWAP1 DIV PUSH20 0xFFFFFFFFFFFFFFFFFFFFFFFFFFFFFFFFFFFFFFFF AND PUSH20 0xFFFFFFFFFFFFFFFFFFFFFFFFFFFFFFFFFFFFFFFF AND PUSH4 0x6466414B DUP3 PUSH1 0x40 MLOAD DUP3 PUSH4 0xFFFFFFFF AND PUSH1 0xE0 SHL DUP2 MSTORE PUSH1 0x4 ADD PUSH2 0x4C8 SWAP2 SWAP1 PUSH2 0x8EB JUMP JUMPDEST PUSH0 PUSH1 0x40 MLOAD DUP1 DUP4 SUB DUP2 PUSH0 DUP8 DUP1 EXTCODESIZE ISZERO DUP1 ISZERO PUSH2 0x4DF JUMPI PUSH0 DUP1 REVERT JUMPDEST POP GAS CALL ISZERO DUP1 ISZERO PUSH2 0x4F1 JUMPI RETURNDATASIZE PUSH0 DUP1 RETURNDATACOPY RETURNDATASIZE PUSH0 REVERT JUMPDEST POP POP POP POP POP JUMP JUMPDEST PUSH1 0x60 PUSH1 0x44 DUP3 MLOAD LT ISZERO PUSH2 0x541 JUMPI PUSH1 0x40 MLOAD DUP1 PUSH1 0x40 ADD PUSH1 0x40 MSTORE DUP1 PUSH1 0x1D DUP2 MSTORE PUSH1 0x20 ADD PUSH32 0x5472616E73616374696F6E2072657665727465642073696C656E746C79000000 DUP2 MSTORE POP SWAP1 POP PUSH2 0x55E JUMP JUMPDEST PUSH1 0x4 DUP3 ADD SWAP2 POP DUP2 DUP1 PUSH1 0x20 ADD SWAP1 MLOAD DUP2 ADD SWAP1 PUSH2 0x55B SWAP2 SWAP1 PUSH2 0xBC5 JUMP JUMPDEST SWAP1 POP JUMPDEST SWAP2 SWAP1 POP JUMP JUMPDEST PUSH0 PUSH20 0xFFFFFFFFFFFFFFFFFFFFFFFFFFFFFFFFFFFFFFFF DUP3 AND SWAP1 POP SWAP2 SWAP1 POP JUMP JUMPDEST PUSH0 DUP2 SWAP1 POP SWAP2 SWAP1 POP JUMP JUMPDEST PUSH0 PUSH2 0x5A5 PUSH2 0x5A0 PUSH2 0x59B DUP5 PUSH2 0x563 JUMP JUMPDEST PUSH2 0x582 JUMP JUMPDEST PUSH2 0x563 JUMP JUMPDEST SWAP1 POP SWAP2 SWAP1 POP JUMP JUMPDEST PUSH0 PUSH2 0x5B6 DUP3 PUSH2 0x58B JUMP JUMPDEST SWAP1 POP SWAP2 SWAP1 POP JUMP JUMPDEST PUSH0 PUSH2 0x5C7 DUP3 PUSH2 0x5AC JUMP JUMPDEST SWAP1 POP SWAP2 SWAP1 POP JUMP JUMPDEST PUSH2 0x5D7 DUP2 PUSH2 0x5BD JUMP JUMPDEST DUP3 MSTORE POP POP JUMP JUMPDEST PUSH0 PUSH1 0x20 DUP3 ADD SWAP1 POP PUSH2 0x5F0 PUSH0 DUP4 ADD DUP5 PUSH2 0x5CE JUMP JUMPDEST SWAP3 SWAP2 POP POP JUMP JUMPDEST PUSH0 PUSH1 0x40 MLOAD SWAP1 POP SWAP1 JUMP JUMPDEST PUSH0 DUP1 REVERT JUMPDEST PUSH0 DUP1 REVERT JUMPDEST PUSH0 DUP1 REVERT JUMPDEST PUSH0 DUP1 REVERT JUMPDEST PUSH0 DUP1 REVERT JUMPDEST PUSH0 DUP1 DUP4 PUSH1 0x1F DUP5 ADD SLT PUSH2 0x628 JUMPI PUSH2 0x627 PUSH2 0x607 JUMP JUMPDEST JUMPDEST DUP3 CALLDATALOAD SWAP1 POP PUSH8 0xFFFFFFFFFFFFFFFF DUP2 GT ISZERO PUSH2 0x645 JUMPI PUSH2 0x644 PUSH2 0x60B JUMP JUMPDEST JUMPDEST PUSH1 0x20 DUP4 ADD SWAP2 POP DUP4 PUSH1 0x20 DUP3 MUL DUP4 ADD GT ISZERO PUSH2 0x661 JUMPI PUSH2 0x660 PUSH2 0x60F JUMP JUMPDEST JUMPDEST SWAP3 POP SWAP3 SWAP1 POP JUMP JUMPDEST PUSH0 DUP1 PUSH1 0x20 DUP4 DUP6 SUB SLT ISZERO PUSH2 0x67E JUMPI PUSH2 0x67D PUSH2 0x5FF JUMP JUMPDEST JUMPDEST PUSH0 DUP4 ADD CALLDATALOAD PUSH8 0xFFFFFFFFFFFFFFFF DUP2 GT ISZERO PUSH2 0x69B JUMPI PUSH2 0x69A PUSH2 0x603 JUMP JUMPDEST JUMPDEST PUSH2 0x6A7 DUP6 DUP3 DUP7 ADD PUSH2 0x613 JUMP JUMPDEST SWAP3 POP SWAP3 POP POP SWAP3 POP SWAP3 SWAP1 POP JUMP JUMPDEST PUSH0 DUP2 MLOAD SWAP1 POP SWAP2 SWAP1 POP JUMP JUMPDEST PUSH0 DUP3 DUP3 MSTORE PUSH1 0x20 DUP3 ADD SWAP1 POP SWAP3 SWAP2 POP POP JUMP JUMPDEST PUSH0 DUP2 SWAP1 POP PUSH1 0x20 DUP3 ADD SWAP1 POP SWAP2 SWAP1 POP JUMP JUMPDEST PUSH0 DUP2 MLOAD SWAP1 POP SWAP2 SWAP1 POP JUMP JUMPDEST PUSH0 DUP3 DUP3 MSTORE PUSH1 0x20 DUP3 ADD SWAP1 POP SWAP3 SWAP2 POP POP JUMP JUMPDEST PUSH0 JUMPDEST DUP4 DUP2 LT ISZERO PUSH2 0x713 JUMPI DUP1 DUP3 ADD MLOAD DUP2 DUP5 ADD MSTORE PUSH1 0x20 DUP2 ADD SWAP1 POP PUSH2 0x6F8 JUMP JUMPDEST PUSH0 DUP5 DUP5 ADD MSTORE POP POP POP POP JUMP JUMPDEST PUSH0 PUSH1 0x1F NOT PUSH1 0x1F DUP4 ADD AND SWAP1 POP SWAP2 SWAP1 POP JUMP JUMPDEST PUSH0 PUSH2 0x738 DUP3 PUSH2 0x6DC JUMP JUMPDEST PUSH2 0x742 DUP2 DUP6 PUSH2 0x6E6 JUMP JUMPDEST SWAP4 POP PUSH2 0x752 DUP2 DUP6 PUSH1 0x20 DUP7 ADD PUSH2 0x6F6 JUMP JUMPDEST PUSH2 0x75B DUP2 PUSH2 0x71E JUMP JUMPDEST DUP5 ADD SWAP2 POP POP SWAP3 SWAP2 POP POP JUMP JUMPDEST PUSH0 PUSH2 0x771 DUP4 DUP4 PUSH2 0x72E JUMP JUMPDEST SWAP1 POP SWAP3 SWAP2 POP POP JUMP JUMPDEST PUSH0 PUSH1 0x20 DUP3 ADD SWAP1 POP SWAP2 SWAP1 POP JUMP JUMPDEST PUSH0 PUSH2 0x78F DUP3 PUSH2 0x6B3 JUMP JUMPDEST PUSH2 0x799 DUP2 DUP6 PUSH2 0x6BD JUMP JUMPDEST SWAP4 POP DUP4 PUSH1 0x20 DUP3 MUL DUP6 ADD PUSH2 0x7AB DUP6 PUSH2 0x6CD JUMP JUMPDEST DUP1 PUSH0 JUMPDEST DUP6 DUP2 LT ISZERO PUSH2 0x7E6 JUMPI DUP5 DUP5 SUB DUP10 MSTORE DUP2 MLOAD PUSH2 0x7C7 DUP6 DUP3 PUSH2 0x766 JUMP JUMPDEST SWAP5 POP PUSH2 0x7D2 DUP4 PUSH2 0x779 JUMP JUMPDEST SWAP3 POP PUSH1 0x20 DUP11 ADD SWAP10 POP POP PUSH1 0x1 DUP2 ADD SWAP1 POP PUSH2 0x7AE JUMP JUMPDEST POP DUP3 SWAP8 POP DUP8 SWAP6 POP POP POP POP POP POP SWAP3 SWAP2 POP POP JUMP JUMPDEST PUSH0 PUSH1 0x20 DUP3 ADD SWAP1 POP DUP2 DUP2 SUB PUSH0 DUP4 ADD MSTORE PUSH2 0x810 DUP2 DUP5 PUSH2 0x785 JUMP JUMPDEST SWAP1 POP SWAP3 SWAP2 POP POP JUMP JUMPDEST PUSH0 DUP2 SWAP1 POP SWAP2 SWAP1 POP JUMP JUMPDEST PUSH2 0x82A DUP2 PUSH2 0x818 JUMP JUMPDEST DUP2 EQ PUSH2 0x834 JUMPI PUSH0 DUP1 REVERT JUMPDEST POP JUMP JUMPDEST PUSH0 DUP2 CALLDATALOAD SWAP1 POP PUSH2 0x845 DUP2 PUSH2 0x821 JUMP JUMPDEST SWAP3 SWAP2 POP POP JUMP JUMPDEST PUSH0 PUSH1 0x20 DUP3 DUP5 SUB SLT ISZERO PUSH2 0x860 JUMPI PUSH2 0x85F PUSH2 0x5FF JUMP JUMPDEST JUMPDEST PUSH0 PUSH2 0x86D DUP5 DUP3 DUP6 ADD PUSH2 0x837 JUMP JUMPDEST SWAP2 POP POP SWAP3 SWAP2 POP POP JUMP JUMPDEST PUSH0 PUSH2 0x880 DUP3 PUSH2 0x563 JUMP JUMPDEST SWAP1 POP SWAP2 SWAP1 POP JUMP JUMPDEST PUSH2 0x890 DUP2 PUSH2 0x876 JUMP JUMPDEST DUP2 EQ PUSH2 0x89A JUMPI PUSH0 DUP1 REVERT JUMPDEST POP JUMP JUMPDEST PUSH0 DUP2 CALLDATALOAD SWAP1 POP PUSH2 0x8AB DUP2 PUSH2 0x887 JUMP JUMPDEST SWAP3 SWAP2 POP POP JUMP JUMPDEST PUSH0 PUSH1 0x20 DUP3 DUP5 SUB SLT ISZERO PUSH2 0x8C6 JUMPI PUSH2 0x8C5 PUSH2 0x5FF JUMP JUMPDEST JUMPDEST PUSH0 PUSH2 0x8D3 DUP5 DUP3 DUP6 ADD PUSH2 0x89D JUMP JUMPDEST SWAP2 POP POP SWAP3 SWAP2 POP POP JUMP JUMPDEST PUSH2 0x8E5 DUP2 PUSH2 0x818 JUMP JUMPDEST DUP3 MSTORE POP POP JUMP JUMPDEST PUSH0 PUSH1 0x20 DUP3 ADD SWAP1 POP PUSH2 0x8FE PUSH0 DUP4 ADD DUP5 PUSH2 0x8DC JUMP JUMPDEST SWAP3 SWAP2 POP POP JUMP JUMPDEST PUSH32 0x4E487B7100000000000000000000000000000000000000000000000000000000 PUSH0 MSTORE PUSH1 0x41 PUSH1 0x4 MSTORE PUSH1 0x24 PUSH0 REVERT JUMPDEST PUSH32 0x4E487B7100000000000000000000000000000000000000000000000000000000 PUSH0 MSTORE PUSH1 0x32 PUSH1 0x4 MSTORE PUSH1 0x24 PUSH0 REVERT JUMPDEST PUSH0 DUP1 REVERT JUMPDEST PUSH0 DUP1 REVERT JUMPDEST PUSH0 DUP1 REVERT JUMPDEST PUSH0 DUP1 DUP4 CALLDATALOAD PUSH1 0x1 PUSH1 0x20 SUB DUP5 CALLDATASIZE SUB SUB DUP2 SLT PUSH2 0x986 JUMPI PUSH2 0x985 PUSH2 0x95E JUMP JUMPDEST JUMPDEST DUP1 DUP5 ADD SWAP3 POP DUP3 CALLDATALOAD SWAP2 POP PUSH8 0xFFFFFFFFFFFFFFFF DUP3 GT ISZERO PUSH2 0x9A8 JUMPI PUSH2 0x9A7 PUSH2 0x962 JUMP JUMPDEST JUMPDEST PUSH1 0x20 DUP4 ADD SWAP3 POP PUSH1 0x1 DUP3 MUL CALLDATASIZE SUB DUP4 SGT ISZERO PUSH2 0x9C4 JUMPI PUSH2 0x9C3 PUSH2 0x966 JUMP JUMPDEST JUMPDEST POP SWAP3 POP SWAP3 SWAP1 POP JUMP JUMPDEST PUSH0 DUP2 SWAP1 POP SWAP3 SWAP2 POP POP JUMP JUMPDEST DUP3 DUP2 DUP4 CALLDATACOPY PUSH0 DUP4 DUP4 ADD MSTORE POP POP POP JUMP JUMPDEST PUSH0 PUSH2 0x9EF DUP4 DUP6 PUSH2 0x9CC JUMP JUMPDEST SWAP4 POP PUSH2 0x9FC DUP4 DUP6 DUP5 PUSH2 0x9D6 JUMP JUMPDEST DUP3 DUP5 ADD SWAP1 POP SWAP4 SWAP3 POP POP POP JUMP JUMPDEST PUSH0 PUSH2 0xA14 DUP3 DUP5 DUP7 PUSH2 0x9E4 JUMP JUMPDEST SWAP2 POP DUP2 SWAP1 POP SWAP4 SWAP3 POP POP POP JUMP JUMPDEST PUSH0 DUP2 MLOAD SWAP1 POP SWAP2 SWAP1 POP JUMP JUMPDEST PUSH0 DUP3 DUP3 MSTORE PUSH1 0x20 DUP3 ADD SWAP1 POP SWAP3 SWAP2 POP POP JUMP JUMPDEST PUSH0 PUSH2 0xA44 DUP3 PUSH2 0xA20 JUMP JUMPDEST PUSH2 0xA4E DUP2 DUP6 PUSH2 0xA2A JUMP JUMPDEST SWAP4 POP PUSH2 0xA5E DUP2 DUP6 PUSH1 0x20 DUP7 ADD PUSH2 0x6F6 JUMP JUMPDEST PUSH2 0xA67 DUP2 PUSH2 0x71E JUMP JUMPDEST DUP5 ADD SWAP2 POP POP SWAP3 SWAP2 POP POP JUMP JUMPDEST PUSH0 PUSH1 0x20 DUP3 ADD SWAP1 POP DUP2 DUP2 SUB PUSH0 DUP4 ADD MSTORE PUSH2 0xA8A DUP2 DUP5 PUSH2 0xA3A JUMP JUMPDEST SWAP1 POP SWAP3 SWAP2 POP POP JUMP JUMPDEST PUSH0 PUSH2 0xA9C DUP3 PUSH2 0x6DC JUMP JUMPDEST PUSH2 0xAA6 DUP2 DUP6 PUSH2 0x9CC JUMP JUMPDEST SWAP4 POP PUSH2 0xAB6 DUP2 DUP6 PUSH1 0x20 DUP7 ADD PUSH2 0x6F6 JUMP JUMPDEST DUP1 DUP5 ADD SWAP2 POP POP SWAP3 SWAP2 POP POP JUMP JUMPDEST PUSH0 PUSH2 0xACD DUP3 DUP5 PUSH2 0xA92 JUMP JUMPDEST SWAP2 POP DUP2 SWAP1 POP SWAP3 SWAP2 POP POP JUMP JUMPDEST PUSH0 DUP1 REVERT JUMPDEST PUSH2 0xAE5 DUP3 PUSH2 0x71E JUMP JUMPDEST DUP2 ADD DUP2 DUP2 LT PUSH8 0xFFFFFFFFFFFFFFFF DUP3 GT OR ISZERO PUSH2 0xB04 JUMPI PUSH2 0xB03 PUSH2 0x904 JUMP JUMPDEST JUMPDEST DUP1 PUSH1 0x40 MSTORE POP POP POP JUMP JUMPDEST PUSH0 PUSH2 0xB16 PUSH2 0x5F6 JUMP JUMPDEST SWAP1 POP PUSH2 0xB22 DUP3 DUP3 PUSH2 0xADC JUMP JUMPDEST SWAP2 SWAP1 POP JUMP JUMPDEST PUSH0 PUSH8 0xFFFFFFFFFFFFFFFF DUP3 GT ISZERO PUSH2 0xB41 JUMPI PUSH2 0xB40 PUSH2 0x904 JUMP JUMPDEST JUMPDEST PUSH2 0xB4A DUP3 PUSH2 0x71E JUMP JUMPDEST SWAP1 POP PUSH1 0x20 DUP2 ADD SWAP1 POP SWAP2 SWAP1 POP JUMP JUMPDEST PUSH0 PUSH2 0xB69 PUSH2 0xB64 DUP5 PUSH2 0xB27 JUMP JUMPDEST PUSH2 0xB0D JUMP JUMPDEST SWAP1 POP DUP3 DUP2 MSTORE PUSH1 0x20 DUP2 ADD DUP5 DUP5 DUP5 ADD GT ISZERO PUSH2 0xB85 JUMPI PUSH2 0xB84 PUSH2 0xAD8 JUMP JUMPDEST JUMPDEST PUSH2 0xB90 DUP5 DUP3 DUP6 PUSH2 0x6F6 JUMP JUMPDEST POP SWAP4 SWAP3 POP POP POP JUMP JUMPDEST PUSH0 DUP3 PUSH1 0x1F DUP4 ADD SLT PUSH2 0xBAC JUMPI PUSH2 0xBAB PUSH2 0x607 JUMP JUMPDEST JUMPDEST DUP2 MLOAD PUSH2 0xBBC DUP5 DUP3 PUSH1 0x20 DUP7 ADD PUSH2 0xB57 JUMP JUMPDEST SWAP2 POP POP SWAP3 SWAP2 POP POP JUMP JUMPDEST PUSH0 PUSH1 0x20 DUP3 DUP5 SUB SLT ISZERO PUSH2 0xBDA JUMPI PUSH2 0xBD9 PUSH2 0x5FF JUMP JUMPDEST JUMPDEST PUSH0 DUP3 ADD MLOAD PUSH8 0xFFFFFFFFFFFFFFFF DUP2 GT ISZERO PUSH2 0xBF7 JUMPI PUSH2 0xBF6 PUSH2 0x603 JUMP JUMPDEST JUMPDEST PUSH2 0xC03 DUP5 DUP3 DUP6 ADD PUSH2 0xB98 JUMP JUMPDEST SWAP2 POP POP SWAP3 SWAP2 POP POP JUMP INVALID LOG2 PUSH5 0x6970667358 0x22 SLT KECCAK256 0xEB 0xDF DUP2 SWAP5 0xFB 0xEC 0xBD PUSH26 0x85CACB68838A83A5F549C5891C5D032120339DCC71D290116473 PUSH16 0x6C634300081600330000000000000000 "
		},
		"gasEstimates": {
			"creation": {
				"codeDepositCost": "627600",
				"executionCost": "662",
				"totalCost": "628262"
			},
			"external": {
				"batch(bytes[])": "infinite",
				"num()": "2490",
				"pool()": "infinite",
				"setPool(address)": "24759",
				"setVars(uint256)": "infinite",
				"test(uint256)": "infinite"
			},
			"internal": {
				"getRevertMsg(bytes memory)": "infinite"
			}
		},
		"methodIdentifiers": {
			"batch(bytes[])": "1e897afb",
			"num()": "4e70b1dc",
			"pool()": "16f0115b",
			"setPool(address)": "4437152a",
			"setVars(uint256)": "6466414b",
			"test(uint256)": "29e99f07"
		}
	},
	"abi": [
		{
			"inputs": [
				{
					"internalType": "bytes[]",
					"name": "calls",
					"type": "bytes[]"
				}
			],
			"name": "batch",
			"outputs": [
				{
					"internalType": "bytes[]",
					"name": "results",
					"type": "bytes[]"
				}
			],
			"stateMutability": "payable",
			"type": "function"
		},
		{
			"inputs": [],
			"name": "num",
			"outputs": [
				{
					"internalType": "uint256",
					"name": "",
					"type": "uint256"
				}
			],
			"stateMutability": "view",
			"type": "function"
		},
		{
			"inputs": [],
			"name": "pool",
			"outputs": [
				{
					"internalType": "contract Pool",
					"name": "",
					"type": "address"
				}
			],
			"stateMutability": "view",
			"type": "function"
		},
		{
			"inputs": [
				{
					"internalType": "address",
					"name": "pool_",
					"type": "address"
				}
			],
			"name": "setPool",
			"outputs": [],
			"stateMutability": "nonpayable",
			"type": "function"
		},
		{
			"inputs": [
				{
					"internalType": "uint256",
					"name": "_num",
					"type": "uint256"
				}
			],
			"name": "setVars",
			"outputs": [],
			"stateMutability": "payable",
			"type": "function"
		},
		{
			"inputs": [
				{
					"internalType": "uint256",
					"name": "_num",
					"type": "uint256"
				}
			],
			"name": "test",
			"outputs": [],
			"stateMutability": "nonpayable",
			"type": "function"
		}
	]
}