{
	"data": {
		"bytecode": {
			"linkReferences": {},
			"object": "6080604052348015600e575f80fd5b50600c60035f8081526020019081526020015f2081905560025f8081526020019081526020015f208190555061056d806100475f395ff3fe608060405234801561000f575f80fd5b506004361061009c575f3560e01c8063652cfd6c11610064578063652cfd6c14610134578063b41e972c14610164578063bb15f03414610182578063cc9cf374146101a0578063e6e4ddc2146101be5761009c565b80630456f4c8146100a05780631b08d96f146100be5780631d8729f3146100dc57806321847341146100fa5780634dd76ea41461012a575b5f80fd5b6100a86101c8565b6040516100b591906102e3565b60405180910390f35b6100c66101ce565b6040516100d39190610325565b60405180910390f35b6100e46101fa565b6040516100f191906102e3565b60405180910390f35b610114600480360381019061010f9190610375565b6101ff565b60405161012191906102e3565b60405180910390f35b610132610214565b005b61014e60048036038101906101499190610465565b61024c565b60405161015b9190610325565b60405180910390f35b61016c610271565b60405161017991906102e3565b60405180910390f35b61018a610277565b60405161019791906102e3565b60405180910390f35b6101a861027d565b6040516101b591906102e3565b60405180910390f35b6101c6610283565b005b60055481565b6101d66102b9565b6101de6102b9565b6001815f0181815250506101f18161024c565b90508091505090565b5f5481565b6002602052805f5260405f205f915090505481565b5a6006819055505f6001549050808061022c906104bd565b915050600c8161023c9190610504565b6001819055505a60078190555050565b6102546102b9565b815f018051809190610265906104bd565b81525050819050919050565b60065481565b60075481565b60045481565b5a6004819055505f80549050808061029a906104bd565b915050600c816102aa9190610504565b5f819055505a60058190555050565b60405180602001604052805f81525090565b5f819050919050565b6102dd816102cb565b82525050565b5f6020820190506102f65f8301846102d4565b92915050565b610305816102cb565b82525050565b602082015f82015161031f5f8501826102fc565b50505050565b5f6020820190506103385f83018461030b565b92915050565b5f604051905090565b5f80fd5b610354816102cb565b811461035e575f80fd5b50565b5f8135905061036f8161034b565b92915050565b5f6020828403121561038a57610389610347565b5b5f61039784828501610361565b91505092915050565b5f80fd5b5f601f19601f8301169050919050565b7f4e487b71000000000000000000000000000000000000000000000000000000005f52604160045260245ffd5b6103ea826103a4565b810181811067ffffffffffffffff82111715610409576104086103b4565b5b80604052505050565b5f61041b61033e565b905061042782826103e1565b919050565b5f60208284031215610441576104406103a0565b5b61044b6020610412565b90505f61045a84828501610361565b5f8301525092915050565b5f6020828403121561047a57610479610347565b5b5f6104878482850161042c565b91505092915050565b7f4e487b71000000000000000000000000000000000000000000000000000000005f52601160045260245ffd5b5f6104c7826102cb565b91507fffffffffffffffffffffffffffffffffffffffffffffffffffffffffffffffff82036104f9576104f8610490565b5b600182019050919050565b5f61050e826102cb565b9150610519836102cb565b925082820190508082111561053157610530610490565b5b9291505056fea26469706673582212206ec37df40d19ed7e69f6bb86b93feba9789e14c3f71dec36724a6fa3f408e9a964736f6c634300081a0033",
			"opcodes": "PUSH1 0x80 PUSH1 0x40 MSTORE CALLVALUE DUP1 ISZERO PUSH1 0xE JUMPI PUSH0 DUP1 REVERT JUMPDEST POP PUSH1 0xC PUSH1 0x3 PUSH0 DUP1 DUP2 MSTORE PUSH1 0x20 ADD SWAP1 DUP2 MSTORE PUSH1 0x20 ADD PUSH0 KECCAK256 DUP2 SWAP1 SSTORE PUSH1 0x2 PUSH0 DUP1 DUP2 MSTORE PUSH1 0x20 ADD SWAP1 DUP2 MSTORE PUSH1 0x20 ADD PUSH0 KECCAK256 DUP2 SWAP1 SSTORE POP PUSH2 0x56D DUP1 PUSH2 0x47 PUSH0 CODECOPY PUSH0 RETURN INVALID PUSH1 0x80 PUSH1 0x40 MSTORE CALLVALUE DUP1 ISZERO PUSH2 0xF JUMPI PUSH0 DUP1 REVERT JUMPDEST POP PUSH1 0x4 CALLDATASIZE LT PUSH2 0x9C JUMPI PUSH0 CALLDATALOAD PUSH1 0xE0 SHR DUP1 PUSH4 0x652CFD6C GT PUSH2 0x64 JUMPI DUP1 PUSH4 0x652CFD6C EQ PUSH2 0x134 JUMPI DUP1 PUSH4 0xB41E972C EQ PUSH2 0x164 JUMPI DUP1 PUSH4 0xBB15F034 EQ PUSH2 0x182 JUMPI DUP1 PUSH4 0xCC9CF374 EQ PUSH2 0x1A0 JUMPI DUP1 PUSH4 0xE6E4DDC2 EQ PUSH2 0x1BE JUMPI PUSH2 0x9C JUMP JUMPDEST DUP1 PUSH4 0x456F4C8 EQ PUSH2 0xA0 JUMPI DUP1 PUSH4 0x1B08D96F EQ PUSH2 0xBE JUMPI DUP1 PUSH4 0x1D8729F3 EQ PUSH2 0xDC JUMPI DUP1 PUSH4 0x21847341 EQ PUSH2 0xFA JUMPI DUP1 PUSH4 0x4DD76EA4 EQ PUSH2 0x12A JUMPI JUMPDEST PUSH0 DUP1 REVERT JUMPDEST PUSH2 0xA8 PUSH2 0x1C8 JUMP JUMPDEST PUSH1 0x40 MLOAD PUSH2 0xB5 SWAP2 SWAP1 PUSH2 0x2E3 JUMP JUMPDEST PUSH1 0x40 MLOAD DUP1 SWAP2 SUB SWAP1 RETURN JUMPDEST PUSH2 0xC6 PUSH2 0x1CE JUMP JUMPDEST PUSH1 0x40 MLOAD PUSH2 0xD3 SWAP2 SWAP1 PUSH2 0x325 JUMP JUMPDEST PUSH1 0x40 MLOAD DUP1 SWAP2 SUB SWAP1 RETURN JUMPDEST PUSH2 0xE4 PUSH2 0x1FA JUMP JUMPDEST PUSH1 0x40 MLOAD PUSH2 0xF1 SWAP2 SWAP1 PUSH2 0x2E3 JUMP JUMPDEST PUSH1 0x40 MLOAD DUP1 SWAP2 SUB SWAP1 RETURN JUMPDEST PUSH2 0x114 PUSH1 0x4 DUP1 CALLDATASIZE SUB DUP2 ADD SWAP1 PUSH2 0x10F SWAP2 SWAP1 PUSH2 0x375 JUMP JUMPDEST PUSH2 0x1FF JUMP JUMPDEST PUSH1 0x40 MLOAD PUSH2 0x121 SWAP2 SWAP1 PUSH2 0x2E3 JUMP JUMPDEST PUSH1 0x40 MLOAD DUP1 SWAP2 SUB SWAP1 RETURN JUMPDEST PUSH2 0x132 PUSH2 0x214 JUMP JUMPDEST STOP JUMPDEST PUSH2 0x14E PUSH1 0x4 DUP1 CALLDATASIZE SUB DUP2 ADD SWAP1 PUSH2 0x149 SWAP2 SWAP1 PUSH2 0x465 JUMP JUMPDEST PUSH2 0x24C JUMP JUMPDEST PUSH1 0x40 MLOAD PUSH2 0x15B SWAP2 SWAP1 PUSH2 0x325 JUMP JUMPDEST PUSH1 0x40 MLOAD DUP1 SWAP2 SUB SWAP1 RETURN JUMPDEST PUSH2 0x16C PUSH2 0x271 JUMP JUMPDEST PUSH1 0x40 MLOAD PUSH2 0x179 SWAP2 SWAP1 PUSH2 0x2E3 JUMP JUMPDEST PUSH1 0x40 MLOAD DUP1 SWAP2 SUB SWAP1 RETURN JUMPDEST PUSH2 0x18A PUSH2 0x277 JUMP JUMPDEST PUSH1 0x40 MLOAD PUSH2 0x197 SWAP2 SWAP1 PUSH2 0x2E3 JUMP JUMPDEST PUSH1 0x40 MLOAD DUP1 SWAP2 SUB SWAP1 RETURN JUMPDEST PUSH2 0x1A8 PUSH2 0x27D JUMP JUMPDEST PUSH1 0x40 MLOAD PUSH2 0x1B5 SWAP2 SWAP1 PUSH2 0x2E3 JUMP JUMPDEST PUSH1 0x40 MLOAD DUP1 SWAP2 SUB SWAP1 RETURN JUMPDEST PUSH2 0x1C6 PUSH2 0x283 JUMP JUMPDEST STOP JUMPDEST PUSH1 0x5 SLOAD DUP2 JUMP JUMPDEST PUSH2 0x1D6 PUSH2 0x2B9 JUMP JUMPDEST PUSH2 0x1DE PUSH2 0x2B9 JUMP JUMPDEST PUSH1 0x1 DUP2 PUSH0 ADD DUP2 DUP2 MSTORE POP POP PUSH2 0x1F1 DUP2 PUSH2 0x24C JUMP JUMPDEST SWAP1 POP DUP1 SWAP2 POP POP SWAP1 JUMP JUMPDEST PUSH0 SLOAD DUP2 JUMP JUMPDEST PUSH1 0x2 PUSH1 0x20 MSTORE DUP1 PUSH0 MSTORE PUSH1 0x40 PUSH0 KECCAK256 PUSH0 SWAP2 POP SWAP1 POP SLOAD DUP2 JUMP JUMPDEST GAS PUSH1 0x6 DUP2 SWAP1 SSTORE POP PUSH0 PUSH1 0x1 SLOAD SWAP1 POP DUP1 DUP1 PUSH2 0x22C SWAP1 PUSH2 0x4BD JUMP JUMPDEST SWAP2 POP POP PUSH1 0xC DUP2 PUSH2 0x23C SWAP2 SWAP1 PUSH2 0x504 JUMP JUMPDEST PUSH1 0x1 DUP2 SWAP1 SSTORE POP GAS PUSH1 0x7 DUP2 SWAP1 SSTORE POP POP JUMP JUMPDEST PUSH2 0x254 PUSH2 0x2B9 JUMP JUMPDEST DUP2 PUSH0 ADD DUP1 MLOAD DUP1 SWAP2 SWAP1 PUSH2 0x265 SWAP1 PUSH2 0x4BD JUMP JUMPDEST DUP2 MSTORE POP POP DUP2 SWAP1 POP SWAP2 SWAP1 POP JUMP JUMPDEST PUSH1 0x6 SLOAD DUP2 JUMP JUMPDEST PUSH1 0x7 SLOAD DUP2 JUMP JUMPDEST PUSH1 0x4 SLOAD DUP2 JUMP JUMPDEST GAS PUSH1 0x4 DUP2 SWAP1 SSTORE POP PUSH0 DUP1 SLOAD SWAP1 POP DUP1 DUP1 PUSH2 0x29A SWAP1 PUSH2 0x4BD JUMP JUMPDEST SWAP2 POP POP PUSH1 0xC DUP2 PUSH2 0x2AA SWAP2 SWAP1 PUSH2 0x504 JUMP JUMPDEST PUSH0 DUP2 SWAP1 SSTORE POP GAS PUSH1 0x5 DUP2 SWAP1 SSTORE POP POP JUMP JUMPDEST PUSH1 0x40 MLOAD DUP1 PUSH1 0x20 ADD PUSH1 0x40 MSTORE DUP1 PUSH0 DUP2 MSTORE POP SWAP1 JUMP JUMPDEST PUSH0 DUP2 SWAP1 POP SWAP2 SWAP1 POP JUMP JUMPDEST PUSH2 0x2DD DUP2 PUSH2 0x2CB JUMP JUMPDEST DUP3 MSTORE POP POP JUMP JUMPDEST PUSH0 PUSH1 0x20 DUP3 ADD SWAP1 POP PUSH2 0x2F6 PUSH0 DUP4 ADD DUP5 PUSH2 0x2D4 JUMP JUMPDEST SWAP3 SWAP2 POP POP JUMP JUMPDEST PUSH2 0x305 DUP2 PUSH2 0x2CB JUMP JUMPDEST DUP3 MSTORE POP POP JUMP JUMPDEST PUSH1 0x20 DUP3 ADD PUSH0 DUP3 ADD MLOAD PUSH2 0x31F PUSH0 DUP6 ADD DUP3 PUSH2 0x2FC JUMP JUMPDEST POP POP POP POP JUMP JUMPDEST PUSH0 PUSH1 0x20 DUP3 ADD SWAP1 POP PUSH2 0x338 PUSH0 DUP4 ADD DUP5 PUSH2 0x30B JUMP JUMPDEST SWAP3 SWAP2 POP POP JUMP JUMPDEST PUSH0 PUSH1 0x40 MLOAD SWAP1 POP SWAP1 JUMP JUMPDEST PUSH0 DUP1 REVERT JUMPDEST PUSH2 0x354 DUP2 PUSH2 0x2CB JUMP JUMPDEST DUP2 EQ PUSH2 0x35E JUMPI PUSH0 DUP1 REVERT JUMPDEST POP JUMP JUMPDEST PUSH0 DUP2 CALLDATALOAD SWAP1 POP PUSH2 0x36F DUP2 PUSH2 0x34B JUMP JUMPDEST SWAP3 SWAP2 POP POP JUMP JUMPDEST PUSH0 PUSH1 0x20 DUP3 DUP5 SUB SLT ISZERO PUSH2 0x38A JUMPI PUSH2 0x389 PUSH2 0x347 JUMP JUMPDEST JUMPDEST PUSH0 PUSH2 0x397 DUP5 DUP3 DUP6 ADD PUSH2 0x361 JUMP JUMPDEST SWAP2 POP POP SWAP3 SWAP2 POP POP JUMP JUMPDEST PUSH0 DUP1 REVERT JUMPDEST PUSH0 PUSH1 0x1F NOT PUSH1 0x1F DUP4 ADD AND SWAP1 POP SWAP2 SWAP1 POP JUMP JUMPDEST PUSH32 0x4E487B7100000000000000000000000000000000000000000000000000000000 PUSH0 MSTORE PUSH1 0x41 PUSH1 0x4 MSTORE PUSH1 0x24 PUSH0 REVERT JUMPDEST PUSH2 0x3EA DUP3 PUSH2 0x3A4 JUMP JUMPDEST DUP2 ADD DUP2 DUP2 LT PUSH8 0xFFFFFFFFFFFFFFFF DUP3 GT OR ISZERO PUSH2 0x409 JUMPI PUSH2 0x408 PUSH2 0x3B4 JUMP JUMPDEST JUMPDEST DUP1 PUSH1 0x40 MSTORE POP POP POP JUMP JUMPDEST PUSH0 PUSH2 0x41B PUSH2 0x33E JUMP JUMPDEST SWAP1 POP PUSH2 0x427 DUP3 DUP3 PUSH2 0x3E1 JUMP JUMPDEST SWAP2 SWAP1 POP JUMP JUMPDEST PUSH0 PUSH1 0x20 DUP3 DUP5 SUB SLT ISZERO PUSH2 0x441 JUMPI PUSH2 0x440 PUSH2 0x3A0 JUMP JUMPDEST JUMPDEST PUSH2 0x44B PUSH1 0x20 PUSH2 0x412 JUMP JUMPDEST SWAP1 POP PUSH0 PUSH2 0x45A DUP5 DUP3 DUP6 ADD PUSH2 0x361 JUMP JUMPDEST PUSH0 DUP4 ADD MSTORE POP SWAP3 SWAP2 POP POP JUMP JUMPDEST PUSH0 PUSH1 0x20 DUP3 DUP5 SUB SLT ISZERO PUSH2 0x47A JUMPI PUSH2 0x479 PUSH2 0x347 JUMP JUMPDEST JUMPDEST PUSH0 PUSH2 0x487 DUP5 DUP3 DUP6 ADD PUSH2 0x42C JUMP JUMPDEST SWAP2 POP POP SWAP3 SWAP2 POP POP JUMP JUMPDEST PUSH32 0x4E487B7100000000000000000000000000000000000000000000000000000000 PUSH0 MSTORE PUSH1 0x11 PUSH1 0x4 MSTORE PUSH1 0x24 PUSH0 REVERT JUMPDEST PUSH0 PUSH2 0x4C7 DUP3 PUSH2 0x2CB JUMP JUMPDEST SWAP2 POP PUSH32 0xFFFFFFFFFFFFFFFFFFFFFFFFFFFFFFFFFFFFFFFFFFFFFFFFFFFFFFFFFFFFFFFF DUP3 SUB PUSH2 0x4F9 JUMPI PUSH2 0x4F8 PUSH2 0x490 JUMP JUMPDEST JUMPDEST PUSH1 0x1 DUP3 ADD SWAP1 POP SWAP2 SWAP1 POP JUMP JUMPDEST PUSH0 PUSH2 0x50E DUP3 PUSH2 0x2CB JUMP JUMPDEST SWAP2 POP PUSH2 0x519 DUP4 PUSH2 0x2CB JUMP JUMPDEST SWAP3 POP DUP3 DUP3 ADD SWAP1 POP DUP1 DUP3 GT ISZERO PUSH2 0x531 JUMPI PUSH2 0x530 PUSH2 0x490 JUMP JUMPDEST JUMPDEST SWAP3 SWAP2 POP POP JUMP INVALID LOG2 PUSH5 0x6970667358 0x22 SLT KECCAK256 PUSH15 0xC37DF40D19ED7E69F6BB86B93FEBA9 PUSH25 0x9E14C3F71DEC36724A6FA3F408E9A964736F6C634300081A00 CALLER "
		},
		"gasEstimates": {
			"creation": {
				"codeDepositCost": "277800",
				"executionCost": "44691",
				"totalCost": "322491"
			},
			"external": {
				"endTime_public()": "2469",
				"gas_privateVar_after()": "2469",
				"gas_privateVar_before()": "2447",
				"gas_publicVar_after()": "2426",
				"gas_publicVar_before()": "2491",
				"incre((uint256))": "infinite",
				"pubMapping(uint256)": "infinite",
				"ret()": "infinite",
				"setEndTimePrivate()": "infinite",
				"setEndTimePublic()": "infinite"
			}
		},
		"methodIdentifiers": {
			"endTime_public()": "1d8729f3",
			"gas_privateVar_after()": "bb15f034",
			"gas_privateVar_before()": "b41e972c",
			"gas_publicVar_after()": "0456f4c8",
			"gas_publicVar_before()": "cc9cf374",
			"incre((uint256))": "652cfd6c",
			"pubMapping(uint256)": "21847341",
			"ret()": "1b08d96f",
			"setEndTimePrivate()": "4dd76ea4",
			"setEndTimePublic()": "e6e4ddc2"
		}
	},
	"abi": [
		{
			"inputs": [],
			"stateMutability": "nonpayable",
			"type": "constructor"
		},
		{
			"inputs": [],
			"name": "endTime_public",
			"outputs": [
				{
					"internalType": "uint256",
					"name": "",
					"type": "uint256"
				}
			],
			"stateMutability": "view",
			"type": "function"
		},
		{
			"inputs": [],
			"name": "gas_privateVar_after",
			"outputs": [
				{
					"internalType": "uint256",
					"name": "",
					"type": "uint256"
				}
			],
			"stateMutability": "view",
			"type": "function"
		},
		{
			"inputs": [],
			"name": "gas_privateVar_before",
			"outputs": [
				{
					"internalType": "uint256",
					"name": "",
					"type": "uint256"
				}
			],
			"stateMutability": "view",
			"type": "function"
		},
		{
			"inputs": [],
			"name": "gas_publicVar_after",
			"outputs": [
				{
					"internalType": "uint256",
					"name": "",
					"type": "uint256"
				}
			],
			"stateMutability": "view",
			"type": "function"
		},
		{
			"inputs": [],
			"name": "gas_publicVar_before",
			"outputs": [
				{
					"internalType": "uint256",
					"name": "",
					"type": "uint256"
				}
			],
			"stateMutability": "view",
			"type": "function"
		},
		{
			"inputs": [
				{
					"components": [
						{
							"internalType": "uint256",
							"name": "one",
							"type": "uint256"
						}
					],
					"internalType": "struct TestIntPub.Test",
					"name": "test",
					"type": "tuple"
				}
			],
			"name": "incre",
			"outputs": [
				{
					"components": [
						{
							"internalType": "uint256",
							"name": "one",
							"type": "uint256"
						}
					],
					"internalType": "struct TestIntPub.Test",
					"name": "",
					"type": "tuple"
				}
			],
			"stateMutability": "pure",
			"type": "function"
		},
		{
			"inputs": [
				{
					"internalType": "uint256",
					"name": "user",
					"type": "uint256"
				}
			],
			"name": "pubMapping",
			"outputs": [
				{
					"internalType": "uint256",
					"name": "number",
					"type": "uint256"
				}
			],
			"stateMutability": "view",
			"type": "function"
		},
		{
			"inputs": [],
			"name": "ret",
			"outputs": [
				{
					"components": [
						{
							"internalType": "uint256",
							"name": "one",
							"type": "uint256"
						}
					],
					"internalType": "struct TestIntPub.Test",
					"name": "",
					"type": "tuple"
				}
			],
			"stateMutability": "pure",
			"type": "function"
		},
		{
			"inputs": [],
			"name": "setEndTimePrivate",
			"outputs": [],
			"stateMutability": "nonpayable",
			"type": "function"
		},
		{
			"inputs": [],
			"name": "setEndTimePublic",
			"outputs": [],
			"stateMutability": "nonpayable",
			"type": "function"
		}
	]
}