{
	"data": {
		"bytecode": {
			"linkReferences": {},
			"object": "608060405234801561000f575f80fd5b5061011f8061001d5f395ff3fe6080604052348015600e575f80fd5b50600436106026575f3560e01c80633f599ed214602a575b5f80fd5b60406004803603810190603c919060a6565b6042565b005b5050565b5f80fd5b5f80fd5b5f80fd5b5f80fd5b5f80fd5b5f8083601f840112606c57606b604e565b5b8235905067ffffffffffffffff81111560865760856052565b5b602083019150836020820283011115609f57609e6056565b5b9250929050565b5f806020838503121560b95760b86046565b5b5f83013567ffffffffffffffff81111560d35760d2604a565b5b60dd85828601605a565b9250925050925092905056fea26469706673582212205d9acf18d087f2a9582bb4e1fc1faa6e35cf9635e13cc6bf10a64a997b5baabb64736f6c63430008160033",
			"opcodes": "PUSH1 0x80 PUSH1 0x40 MSTORE CALLVALUE DUP1 ISZERO PUSH2 0xF JUMPI PUSH0 DUP1 REVERT JUMPDEST POP PUSH2 0x11F DUP1 PUSH2 0x1D PUSH0 CODECOPY PUSH0 RETURN INVALID PUSH1 0x80 PUSH1 0x40 MSTORE CALLVALUE DUP1 ISZERO PUSH1 0xE JUMPI PUSH0 DUP1 REVERT JUMPDEST POP PUSH1 0x4 CALLDATASIZE LT PUSH1 0x26 JUMPI PUSH0 CALLDATALOAD PUSH1 0xE0 SHR DUP1 PUSH4 0x3F599ED2 EQ PUSH1 0x2A JUMPI JUMPDEST PUSH0 DUP1 REVERT JUMPDEST PUSH1 0x40 PUSH1 0x4 DUP1 CALLDATASIZE SUB DUP2 ADD SWAP1 PUSH1 0x3C SWAP2 SWAP1 PUSH1 0xA6 JUMP JUMPDEST PUSH1 0x42 JUMP JUMPDEST STOP JUMPDEST POP POP JUMP JUMPDEST PUSH0 DUP1 REVERT JUMPDEST PUSH0 DUP1 REVERT JUMPDEST PUSH0 DUP1 REVERT JUMPDEST PUSH0 DUP1 REVERT JUMPDEST PUSH0 DUP1 REVERT JUMPDEST PUSH0 DUP1 DUP4 PUSH1 0x1F DUP5 ADD SLT PUSH1 0x6C JUMPI PUSH1 0x6B PUSH1 0x4E JUMP JUMPDEST JUMPDEST DUP3 CALLDATALOAD SWAP1 POP PUSH8 0xFFFFFFFFFFFFFFFF DUP2 GT ISZERO PUSH1 0x86 JUMPI PUSH1 0x85 PUSH1 0x52 JUMP JUMPDEST JUMPDEST PUSH1 0x20 DUP4 ADD SWAP2 POP DUP4 PUSH1 0x20 DUP3 MUL DUP4 ADD GT ISZERO PUSH1 0x9F JUMPI PUSH1 0x9E PUSH1 0x56 JUMP JUMPDEST JUMPDEST SWAP3 POP SWAP3 SWAP1 POP JUMP JUMPDEST PUSH0 DUP1 PUSH1 0x20 DUP4 DUP6 SUB SLT ISZERO PUSH1 0xB9 JUMPI PUSH1 0xB8 PUSH1 0x46 JUMP JUMPDEST JUMPDEST PUSH0 DUP4 ADD CALLDATALOAD PUSH8 0xFFFFFFFFFFFFFFFF DUP2 GT ISZERO PUSH1 0xD3 JUMPI PUSH1 0xD2 PUSH1 0x4A JUMP JUMPDEST JUMPDEST PUSH1 0xDD DUP6 DUP3 DUP7 ADD PUSH1 0x5A JUMP JUMPDEST SWAP3 POP SWAP3 POP POP SWAP3 POP SWAP3 SWAP1 POP JUMP INVALID LOG2 PUSH5 0x6970667358 0x22 SLT KECCAK256 0x5D SWAP11 0xCF XOR 0xD0 DUP8 CALLCODE 0xA9 PC 0x2B 0xB4 0xE1 0xFC 0x1F 0xAA PUSH15 0x35CF9635E13CC6BF10A64A997B5BAA 0xBB PUSH5 0x736F6C6343 STOP ADDMOD AND STOP CALLER "
		},
		"gasEstimates": {
			"creation": {
				"codeDepositCost": "57400",
				"executionCost": "103",
				"totalCost": "57503"
			},
			"external": {
				"strDeposit(uint256[])": "448"
			}
		},
		"methodIdentifiers": {
			"strDeposit(uint256[])": "3f599ed2"
		}
	},
	"abi": [
		{
			"inputs": [
				{
					"internalType": "uint256[]",
					"name": "rounds",
					"type": "uint256[]"
				}
			],
			"name": "strDeposit",
			"outputs": [],
			"stateMutability": "nonpayable",
			"type": "function"
		}
	]
}