{
	"data": {
		"bytecode": {
			"linkReferences": {},
			"object": "6080604052671e87f85809dc00005f55670f43fc2c04ee0000600155670de0b6b3a7640000600154671bc16d674ec8000061003a919061008e565b61004491906100fc565b600255348015610052575f80fd5b5061012c565b5f819050919050565b7f4e487b71000000000000000000000000000000000000000000000000000000005f52601160045260245ffd5b5f61009882610058565b91506100a383610058565b92508282026100b181610058565b915082820484148315176100c8576100c7610061565b5b5092915050565b7f4e487b71000000000000000000000000000000000000000000000000000000005f52601260045260245ffd5b5f61010682610058565b915061011183610058565b925082610121576101206100cf565b5b828204905092915050565b610100806101395f395ff3fe6080604052348015600e575f80fd5b5060043610603a575f3560e01c80631b10f04314603e57806354f703f8146058578063f9c10436146072575b5f80fd5b6044608c565b604051604f919060b3565b60405180910390f35b605e6092565b6040516069919060b3565b60405180910390f35b60786098565b6040516083919060b3565b60405180910390f35b60025481565b60015481565b5f5481565b5f819050919050565b60ad81609d565b82525050565b5f60208201905060c45f83018460a6565b9291505056fea2646970667358221220b3ce5744da86ac65687db9d84300410e49adb183e5c7fc2d50f05b54ce18923164736f6c63430008160033",
			"opcodes": "PUSH1 0x80 PUSH1 0x40 MSTORE PUSH8 0x1E87F85809DC0000 PUSH0 SSTORE PUSH8 0xF43FC2C04EE0000 PUSH1 0x1 SSTORE PUSH8 0xDE0B6B3A7640000 PUSH1 0x1 SLOAD PUSH8 0x1BC16D674EC80000 PUSH2 0x3A SWAP2 SWAP1 PUSH2 0x8E JUMP JUMPDEST PUSH2 0x44 SWAP2 SWAP1 PUSH2 0xFC JUMP JUMPDEST PUSH1 0x2 SSTORE CALLVALUE DUP1 ISZERO PUSH2 0x52 JUMPI PUSH0 DUP1 REVERT JUMPDEST POP PUSH2 0x12C JUMP JUMPDEST PUSH0 DUP2 SWAP1 POP SWAP2 SWAP1 POP JUMP JUMPDEST PUSH32 0x4E487B7100000000000000000000000000000000000000000000000000000000 PUSH0 MSTORE PUSH1 0x11 PUSH1 0x4 MSTORE PUSH1 0x24 PUSH0 REVERT JUMPDEST PUSH0 PUSH2 0x98 DUP3 PUSH2 0x58 JUMP JUMPDEST SWAP2 POP PUSH2 0xA3 DUP4 PUSH2 0x58 JUMP JUMPDEST SWAP3 POP DUP3 DUP3 MUL PUSH2 0xB1 DUP2 PUSH2 0x58 JUMP JUMPDEST SWAP2 POP DUP3 DUP3 DIV DUP5 EQ DUP4 ISZERO OR PUSH2 0xC8 JUMPI PUSH2 0xC7 PUSH2 0x61 JUMP JUMPDEST JUMPDEST POP SWAP3 SWAP2 POP POP JUMP JUMPDEST PUSH32 0x4E487B7100000000000000000000000000000000000000000000000000000000 PUSH0 MSTORE PUSH1 0x12 PUSH1 0x4 MSTORE PUSH1 0x24 PUSH0 REVERT JUMPDEST PUSH0 PUSH2 0x106 DUP3 PUSH2 0x58 JUMP JUMPDEST SWAP2 POP PUSH2 0x111 DUP4 PUSH2 0x58 JUMP JUMPDEST SWAP3 POP DUP3 PUSH2 0x121 JUMPI PUSH2 0x120 PUSH2 0xCF JUMP JUMPDEST JUMPDEST DUP3 DUP3 DIV SWAP1 POP SWAP3 SWAP2 POP POP JUMP JUMPDEST PUSH2 0x100 DUP1 PUSH2 0x139 PUSH0 CODECOPY PUSH0 RETURN INVALID PUSH1 0x80 PUSH1 0x40 MSTORE CALLVALUE DUP1 ISZERO PUSH1 0xE JUMPI PUSH0 DUP1 REVERT JUMPDEST POP PUSH1 0x4 CALLDATASIZE LT PUSH1 0x3A JUMPI PUSH0 CALLDATALOAD PUSH1 0xE0 SHR DUP1 PUSH4 0x1B10F043 EQ PUSH1 0x3E JUMPI DUP1 PUSH4 0x54F703F8 EQ PUSH1 0x58 JUMPI DUP1 PUSH4 0xF9C10436 EQ PUSH1 0x72 JUMPI JUMPDEST PUSH0 DUP1 REVERT JUMPDEST PUSH1 0x44 PUSH1 0x8C JUMP JUMPDEST PUSH1 0x40 MLOAD PUSH1 0x4F SWAP2 SWAP1 PUSH1 0xB3 JUMP JUMPDEST PUSH1 0x40 MLOAD DUP1 SWAP2 SUB SWAP1 RETURN JUMPDEST PUSH1 0x5E PUSH1 0x92 JUMP JUMPDEST PUSH1 0x40 MLOAD PUSH1 0x69 SWAP2 SWAP1 PUSH1 0xB3 JUMP JUMPDEST PUSH1 0x40 MLOAD DUP1 SWAP2 SUB SWAP1 RETURN JUMPDEST PUSH1 0x78 PUSH1 0x98 JUMP JUMPDEST PUSH1 0x40 MLOAD PUSH1 0x83 SWAP2 SWAP1 PUSH1 0xB3 JUMP JUMPDEST PUSH1 0x40 MLOAD DUP1 SWAP2 SUB SWAP1 RETURN JUMPDEST PUSH1 0x2 SLOAD DUP2 JUMP JUMPDEST PUSH1 0x1 SLOAD DUP2 JUMP JUMPDEST PUSH0 SLOAD DUP2 JUMP JUMPDEST PUSH0 DUP2 SWAP1 POP SWAP2 SWAP1 POP JUMP JUMPDEST PUSH1 0xAD DUP2 PUSH1 0x9D JUMP JUMPDEST DUP3 MSTORE POP POP JUMP JUMPDEST PUSH0 PUSH1 0x20 DUP3 ADD SWAP1 POP PUSH1 0xC4 PUSH0 DUP4 ADD DUP5 PUSH1 0xA6 JUMP JUMPDEST SWAP3 SWAP2 POP POP JUMP INVALID LOG2 PUSH5 0x6970667358 0x22 SLT KECCAK256 0xB3 0xCE JUMPI PREVRANDAO 0xDA DUP7 0xAC PUSH6 0x687DB9D84300 COINBASE 0xE 0x49 0xAD 0xB1 DUP4 0xE5 0xC7 0xFC 0x2D POP CREATE JUMPDEST SLOAD 0xCE XOR SWAP3 BALANCE PUSH5 0x736F6C6343 STOP ADDMOD AND STOP CALLER "
		},
		"gasEstimates": {
			"creation": {
				"codeDepositCost": "51200",
				"executionCost": "infinite",
				"totalCost": "infinite"
			},
			"external": {
				"boosted()": "2446",
				"boostedBal()": "2403",
				"factor()": "2425"
			}
		},
		"methodIdentifiers": {
			"boosted()": "f9c10436",
			"boostedBal()": "1b10f043",
			"factor()": "54f703f8"
		}
	},
	"abi": [
		{
			"inputs": [],
			"name": "boosted",
			"outputs": [
				{
					"internalType": "uint256",
					"name": "",
					"type": "uint256"
				}
			],
			"stateMutability": "view",
			"type": "function"
		},
		{
			"inputs": [],
			"name": "boostedBal",
			"outputs": [
				{
					"internalType": "uint256",
					"name": "",
					"type": "uint256"
				}
			],
			"stateMutability": "view",
			"type": "function"
		},
		{
			"inputs": [],
			"name": "factor",
			"outputs": [
				{
					"internalType": "uint256",
					"name": "",
					"type": "uint256"
				}
			],
			"stateMutability": "view",
			"type": "function"
		}
	]
}