{
	"data": {
		"bytecode": {
			"linkReferences": {},
			"object": "608060405234801561000f575f80fd5b5061078b8061001d5f395ff3fe60806040526004361061003e575f3560e01c80634e70b1dc14610042578063585252061461006c5780636466414b14610082578063af713566146100aa575b5f80fd5b34801561004d575f80fd5b506100566100c8565b60405161006391906103f5565b60405180910390f35b348015610077575f80fd5b506100806100cd565b005b34801561008d575f80fd5b506100a860048036038101906100a3919061043c565b6100d5565b005b6100b26100de565b6040516100bf91906105ac565b60405180910390f35b5f5481565b5f6003905050565b805f8190555050565b60605f60016040516024016100f3919061061a565b6040516020818303038152906040527f6466414b000000000000000000000000000000000000000000000000000000007bffffffffffffffffffffffffffffffffffffffffffffffffffffffff19166020820180517bffffffffffffffffffffffffffffffffffffffffffffffffffffffff838183161783525050505090505f6040516024016040516020818303038152906040527f58525206000000000000000000000000000000000000000000000000000000007bffffffffffffffffffffffffffffffffffffffffffffffffffffffff19166020820180517bffffffffffffffffffffffffffffffffffffffffffffffffffffffff838183161783525050505090505f600267ffffffffffffffff81111561021457610213610633565b5b60405190808252806020026020018201604052801561024757816020015b60608152602001906001900390816102325790505b50905082815f8151811061025e5761025d610660565b5b6020026020010181905250818160018151811061027e5761027d610660565b5b6020026020010181905250600267ffffffffffffffff8111156102a4576102a3610633565b5b6040519080825280602002602001820160405280156102d757816020015b60608152602001906001900390816102c25790505b5093505f5b60028110156103d6575f803073ffffffffffffffffffffffffffffffffffffffff1684848151811061031157610310610660565b5b602002602001015160405161032691906106c7565b5f60405180830381855af49150503d805f811461035e576040519150601f19603f3d011682016040523d82523d5f602084013e610363565b606091505b5091509150816103a8576040517f08c379a000000000000000000000000000000000000000000000000000000000815260040161039f90610737565b60405180910390fd5b808784815181106103bc576103bb610660565b5b6020026020010181905250505080806001019150506102dc565b5050505090565b5f819050919050565b6103ef816103dd565b82525050565b5f6020820190506104085f8301846103e6565b92915050565b5f80fd5b61041b816103dd565b8114610425575f80fd5b50565b5f8135905061043681610412565b92915050565b5f602082840312156104515761045061040e565b5b5f61045e84828501610428565b91505092915050565b5f81519050919050565b5f82825260208201905092915050565b5f819050602082019050919050565b5f81519050919050565b5f82825260208201905092915050565b5f5b838110156104c75780820151818401526020810190506104ac565b5f8484015250505050565b5f601f19601f8301169050919050565b5f6104ec82610490565b6104f6818561049a565b93506105068185602086016104aa565b61050f816104d2565b840191505092915050565b5f61052583836104e2565b905092915050565b5f602082019050919050565b5f61054382610467565b61054d8185610471565b93508360208202850161055f85610481565b805f5b8581101561059a578484038952815161057b858261051a565b94506105868361052d565b925060208a01995050600181019050610562565b50829750879550505050505092915050565b5f6020820190508181035f8301526105c48184610539565b905092915050565b5f819050919050565b5f60ff82169050919050565b5f819050919050565b5f6106046105ff6105fa846105cc565b6105e1565b6105d5565b9050919050565b610614816105ea565b82525050565b5f60208201905061062d5f83018461060b565b92915050565b7f4e487b71000000000000000000000000000000000000000000000000000000005f52604160045260245ffd5b7f4e487b71000000000000000000000000000000000000000000000000000000005f52603260045260245ffd5b5f81905092915050565b5f6106a182610490565b6106ab818561068d565b93506106bb8185602086016104aa565b80840191505092915050565b5f6106d28284610697565b915081905092915050565b5f82825260208201905092915050565b7f6661696c000000000000000000000000000000000000000000000000000000005f82015250565b5f6107216004836106dd565b915061072c826106ed565b602082019050919050565b5f6020820190508181035f83015261074e81610715565b905091905056fea2646970667358221220378705f5389d9810c5a79289bdd01f9590b7ce704912ebf1411e3d89f65f9c4664736f6c63430008160033",
			"opcodes": "PUSH1 0x80 PUSH1 0x40 MSTORE CALLVALUE DUP1 ISZERO PUSH2 0xF JUMPI PUSH0 DUP1 REVERT JUMPDEST POP PUSH2 0x78B DUP1 PUSH2 0x1D PUSH0 CODECOPY PUSH0 RETURN INVALID PUSH1 0x80 PUSH1 0x40 MSTORE PUSH1 0x4 CALLDATASIZE LT PUSH2 0x3E JUMPI PUSH0 CALLDATALOAD PUSH1 0xE0 SHR DUP1 PUSH4 0x4E70B1DC EQ PUSH2 0x42 JUMPI DUP1 PUSH4 0x58525206 EQ PUSH2 0x6C JUMPI DUP1 PUSH4 0x6466414B EQ PUSH2 0x82 JUMPI DUP1 PUSH4 0xAF713566 EQ PUSH2 0xAA JUMPI JUMPDEST PUSH0 DUP1 REVERT JUMPDEST CALLVALUE DUP1 ISZERO PUSH2 0x4D JUMPI PUSH0 DUP1 REVERT JUMPDEST POP PUSH2 0x56 PUSH2 0xC8 JUMP JUMPDEST PUSH1 0x40 MLOAD PUSH2 0x63 SWAP2 SWAP1 PUSH2 0x3F5 JUMP JUMPDEST PUSH1 0x40 MLOAD DUP1 SWAP2 SUB SWAP1 RETURN JUMPDEST CALLVALUE DUP1 ISZERO PUSH2 0x77 JUMPI PUSH0 DUP1 REVERT JUMPDEST POP PUSH2 0x80 PUSH2 0xCD JUMP JUMPDEST STOP JUMPDEST CALLVALUE DUP1 ISZERO PUSH2 0x8D JUMPI PUSH0 DUP1 REVERT JUMPDEST POP PUSH2 0xA8 PUSH1 0x4 DUP1 CALLDATASIZE SUB DUP2 ADD SWAP1 PUSH2 0xA3 SWAP2 SWAP1 PUSH2 0x43C JUMP JUMPDEST PUSH2 0xD5 JUMP JUMPDEST STOP JUMPDEST PUSH2 0xB2 PUSH2 0xDE JUMP JUMPDEST PUSH1 0x40 MLOAD PUSH2 0xBF SWAP2 SWAP1 PUSH2 0x5AC JUMP JUMPDEST PUSH1 0x40 MLOAD DUP1 SWAP2 SUB SWAP1 RETURN JUMPDEST PUSH0 SLOAD DUP2 JUMP JUMPDEST PUSH0 PUSH1 0x3 SWAP1 POP POP JUMP JUMPDEST DUP1 PUSH0 DUP2 SWAP1 SSTORE POP POP JUMP JUMPDEST PUSH1 0x60 PUSH0 PUSH1 0x1 PUSH1 0x40 MLOAD PUSH1 0x24 ADD PUSH2 0xF3 SWAP2 SWAP1 PUSH2 0x61A JUMP JUMPDEST PUSH1 0x40 MLOAD PUSH1 0x20 DUP2 DUP4 SUB SUB DUP2 MSTORE SWAP1 PUSH1 0x40 MSTORE PUSH32 0x6466414B00000000000000000000000000000000000000000000000000000000 PUSH28 0xFFFFFFFFFFFFFFFFFFFFFFFFFFFFFFFFFFFFFFFFFFFFFFFFFFFFFFFF NOT AND PUSH1 0x20 DUP3 ADD DUP1 MLOAD PUSH28 0xFFFFFFFFFFFFFFFFFFFFFFFFFFFFFFFFFFFFFFFFFFFFFFFFFFFFFFFF DUP4 DUP2 DUP4 AND OR DUP4 MSTORE POP POP POP POP SWAP1 POP PUSH0 PUSH1 0x40 MLOAD PUSH1 0x24 ADD PUSH1 0x40 MLOAD PUSH1 0x20 DUP2 DUP4 SUB SUB DUP2 MSTORE SWAP1 PUSH1 0x40 MSTORE PUSH32 0x5852520600000000000000000000000000000000000000000000000000000000 PUSH28 0xFFFFFFFFFFFFFFFFFFFFFFFFFFFFFFFFFFFFFFFFFFFFFFFFFFFFFFFF NOT AND PUSH1 0x20 DUP3 ADD DUP1 MLOAD PUSH28 0xFFFFFFFFFFFFFFFFFFFFFFFFFFFFFFFFFFFFFFFFFFFFFFFFFFFFFFFF DUP4 DUP2 DUP4 AND OR DUP4 MSTORE POP POP POP POP SWAP1 POP PUSH0 PUSH1 0x2 PUSH8 0xFFFFFFFFFFFFFFFF DUP2 GT ISZERO PUSH2 0x214 JUMPI PUSH2 0x213 PUSH2 0x633 JUMP JUMPDEST JUMPDEST PUSH1 0x40 MLOAD SWAP1 DUP1 DUP3 MSTORE DUP1 PUSH1 0x20 MUL PUSH1 0x20 ADD DUP3 ADD PUSH1 0x40 MSTORE DUP1 ISZERO PUSH2 0x247 JUMPI DUP2 PUSH1 0x20 ADD JUMPDEST PUSH1 0x60 DUP2 MSTORE PUSH1 0x20 ADD SWAP1 PUSH1 0x1 SWAP1 SUB SWAP1 DUP2 PUSH2 0x232 JUMPI SWAP1 POP JUMPDEST POP SWAP1 POP DUP3 DUP2 PUSH0 DUP2 MLOAD DUP2 LT PUSH2 0x25E JUMPI PUSH2 0x25D PUSH2 0x660 JUMP JUMPDEST JUMPDEST PUSH1 0x20 MUL PUSH1 0x20 ADD ADD DUP2 SWAP1 MSTORE POP DUP2 DUP2 PUSH1 0x1 DUP2 MLOAD DUP2 LT PUSH2 0x27E JUMPI PUSH2 0x27D PUSH2 0x660 JUMP JUMPDEST JUMPDEST PUSH1 0x20 MUL PUSH1 0x20 ADD ADD DUP2 SWAP1 MSTORE POP PUSH1 0x2 PUSH8 0xFFFFFFFFFFFFFFFF DUP2 GT ISZERO PUSH2 0x2A4 JUMPI PUSH2 0x2A3 PUSH2 0x633 JUMP JUMPDEST JUMPDEST PUSH1 0x40 MLOAD SWAP1 DUP1 DUP3 MSTORE DUP1 PUSH1 0x20 MUL PUSH1 0x20 ADD DUP3 ADD PUSH1 0x40 MSTORE DUP1 ISZERO PUSH2 0x2D7 JUMPI DUP2 PUSH1 0x20 ADD JUMPDEST PUSH1 0x60 DUP2 MSTORE PUSH1 0x20 ADD SWAP1 PUSH1 0x1 SWAP1 SUB SWAP1 DUP2 PUSH2 0x2C2 JUMPI SWAP1 POP JUMPDEST POP SWAP4 POP PUSH0 JUMPDEST PUSH1 0x2 DUP2 LT ISZERO PUSH2 0x3D6 JUMPI PUSH0 DUP1 ADDRESS PUSH20 0xFFFFFFFFFFFFFFFFFFFFFFFFFFFFFFFFFFFFFFFF AND DUP5 DUP5 DUP2 MLOAD DUP2 LT PUSH2 0x311 JUMPI PUSH2 0x310 PUSH2 0x660 JUMP JUMPDEST JUMPDEST PUSH1 0x20 MUL PUSH1 0x20 ADD ADD MLOAD PUSH1 0x40 MLOAD PUSH2 0x326 SWAP2 SWAP1 PUSH2 0x6C7 JUMP JUMPDEST PUSH0 PUSH1 0x40 MLOAD DUP1 DUP4 SUB DUP2 DUP6 GAS DELEGATECALL SWAP2 POP POP RETURNDATASIZE DUP1 PUSH0 DUP2 EQ PUSH2 0x35E JUMPI PUSH1 0x40 MLOAD SWAP2 POP PUSH1 0x1F NOT PUSH1 0x3F RETURNDATASIZE ADD AND DUP3 ADD PUSH1 0x40 MSTORE RETURNDATASIZE DUP3 MSTORE RETURNDATASIZE PUSH0 PUSH1 0x20 DUP5 ADD RETURNDATACOPY PUSH2 0x363 JUMP JUMPDEST PUSH1 0x60 SWAP2 POP JUMPDEST POP SWAP2 POP SWAP2 POP DUP2 PUSH2 0x3A8 JUMPI PUSH1 0x40 MLOAD PUSH32 0x8C379A000000000000000000000000000000000000000000000000000000000 DUP2 MSTORE PUSH1 0x4 ADD PUSH2 0x39F SWAP1 PUSH2 0x737 JUMP JUMPDEST PUSH1 0x40 MLOAD DUP1 SWAP2 SUB SWAP1 REVERT JUMPDEST DUP1 DUP8 DUP5 DUP2 MLOAD DUP2 LT PUSH2 0x3BC JUMPI PUSH2 0x3BB PUSH2 0x660 JUMP JUMPDEST JUMPDEST PUSH1 0x20 MUL PUSH1 0x20 ADD ADD DUP2 SWAP1 MSTORE POP POP POP DUP1 DUP1 PUSH1 0x1 ADD SWAP2 POP POP PUSH2 0x2DC JUMP JUMPDEST POP POP POP POP SWAP1 JUMP JUMPDEST PUSH0 DUP2 SWAP1 POP SWAP2 SWAP1 POP JUMP JUMPDEST PUSH2 0x3EF DUP2 PUSH2 0x3DD JUMP JUMPDEST DUP3 MSTORE POP POP JUMP JUMPDEST PUSH0 PUSH1 0x20 DUP3 ADD SWAP1 POP PUSH2 0x408 PUSH0 DUP4 ADD DUP5 PUSH2 0x3E6 JUMP JUMPDEST SWAP3 SWAP2 POP POP JUMP JUMPDEST PUSH0 DUP1 REVERT JUMPDEST PUSH2 0x41B DUP2 PUSH2 0x3DD JUMP JUMPDEST DUP2 EQ PUSH2 0x425 JUMPI PUSH0 DUP1 REVERT JUMPDEST POP JUMP JUMPDEST PUSH0 DUP2 CALLDATALOAD SWAP1 POP PUSH2 0x436 DUP2 PUSH2 0x412 JUMP JUMPDEST SWAP3 SWAP2 POP POP JUMP JUMPDEST PUSH0 PUSH1 0x20 DUP3 DUP5 SUB SLT ISZERO PUSH2 0x451 JUMPI PUSH2 0x450 PUSH2 0x40E JUMP JUMPDEST JUMPDEST PUSH0 PUSH2 0x45E DUP5 DUP3 DUP6 ADD PUSH2 0x428 JUMP JUMPDEST SWAP2 POP POP SWAP3 SWAP2 POP POP JUMP JUMPDEST PUSH0 DUP2 MLOAD SWAP1 POP SWAP2 SWAP1 POP JUMP JUMPDEST PUSH0 DUP3 DUP3 MSTORE PUSH1 0x20 DUP3 ADD SWAP1 POP SWAP3 SWAP2 POP POP JUMP JUMPDEST PUSH0 DUP2 SWAP1 POP PUSH1 0x20 DUP3 ADD SWAP1 POP SWAP2 SWAP1 POP JUMP JUMPDEST PUSH0 DUP2 MLOAD SWAP1 POP SWAP2 SWAP1 POP JUMP JUMPDEST PUSH0 DUP3 DUP3 MSTORE PUSH1 0x20 DUP3 ADD SWAP1 POP SWAP3 SWAP2 POP POP JUMP JUMPDEST PUSH0 JUMPDEST DUP4 DUP2 LT ISZERO PUSH2 0x4C7 JUMPI DUP1 DUP3 ADD MLOAD DUP2 DUP5 ADD MSTORE PUSH1 0x20 DUP2 ADD SWAP1 POP PUSH2 0x4AC JUMP JUMPDEST PUSH0 DUP5 DUP5 ADD MSTORE POP POP POP POP JUMP JUMPDEST PUSH0 PUSH1 0x1F NOT PUSH1 0x1F DUP4 ADD AND SWAP1 POP SWAP2 SWAP1 POP JUMP JUMPDEST PUSH0 PUSH2 0x4EC DUP3 PUSH2 0x490 JUMP JUMPDEST PUSH2 0x4F6 DUP2 DUP6 PUSH2 0x49A JUMP JUMPDEST SWAP4 POP PUSH2 0x506 DUP2 DUP6 PUSH1 0x20 DUP7 ADD PUSH2 0x4AA JUMP JUMPDEST PUSH2 0x50F DUP2 PUSH2 0x4D2 JUMP JUMPDEST DUP5 ADD SWAP2 POP POP SWAP3 SWAP2 POP POP JUMP JUMPDEST PUSH0 PUSH2 0x525 DUP4 DUP4 PUSH2 0x4E2 JUMP JUMPDEST SWAP1 POP SWAP3 SWAP2 POP POP JUMP JUMPDEST PUSH0 PUSH1 0x20 DUP3 ADD SWAP1 POP SWAP2 SWAP1 POP JUMP JUMPDEST PUSH0 PUSH2 0x543 DUP3 PUSH2 0x467 JUMP JUMPDEST PUSH2 0x54D DUP2 DUP6 PUSH2 0x471 JUMP JUMPDEST SWAP4 POP DUP4 PUSH1 0x20 DUP3 MUL DUP6 ADD PUSH2 0x55F DUP6 PUSH2 0x481 JUMP JUMPDEST DUP1 PUSH0 JUMPDEST DUP6 DUP2 LT ISZERO PUSH2 0x59A JUMPI DUP5 DUP5 SUB DUP10 MSTORE DUP2 MLOAD PUSH2 0x57B DUP6 DUP3 PUSH2 0x51A JUMP JUMPDEST SWAP5 POP PUSH2 0x586 DUP4 PUSH2 0x52D JUMP JUMPDEST SWAP3 POP PUSH1 0x20 DUP11 ADD SWAP10 POP POP PUSH1 0x1 DUP2 ADD SWAP1 POP PUSH2 0x562 JUMP JUMPDEST POP DUP3 SWAP8 POP DUP8 SWAP6 POP POP POP POP POP POP SWAP3 SWAP2 POP POP JUMP JUMPDEST PUSH0 PUSH1 0x20 DUP3 ADD SWAP1 POP DUP2 DUP2 SUB PUSH0 DUP4 ADD MSTORE PUSH2 0x5C4 DUP2 DUP5 PUSH2 0x539 JUMP JUMPDEST SWAP1 POP SWAP3 SWAP2 POP POP JUMP JUMPDEST PUSH0 DUP2 SWAP1 POP SWAP2 SWAP1 POP JUMP JUMPDEST PUSH0 PUSH1 0xFF DUP3 AND SWAP1 POP SWAP2 SWAP1 POP JUMP JUMPDEST PUSH0 DUP2 SWAP1 POP SWAP2 SWAP1 POP JUMP JUMPDEST PUSH0 PUSH2 0x604 PUSH2 0x5FF PUSH2 0x5FA DUP5 PUSH2 0x5CC JUMP JUMPDEST PUSH2 0x5E1 JUMP JUMPDEST PUSH2 0x5D5 JUMP JUMPDEST SWAP1 POP SWAP2 SWAP1 POP JUMP JUMPDEST PUSH2 0x614 DUP2 PUSH2 0x5EA JUMP JUMPDEST DUP3 MSTORE POP POP JUMP JUMPDEST PUSH0 PUSH1 0x20 DUP3 ADD SWAP1 POP PUSH2 0x62D PUSH0 DUP4 ADD DUP5 PUSH2 0x60B JUMP JUMPDEST SWAP3 SWAP2 POP POP JUMP JUMPDEST PUSH32 0x4E487B7100000000000000000000000000000000000000000000000000000000 PUSH0 MSTORE PUSH1 0x41 PUSH1 0x4 MSTORE PUSH1 0x24 PUSH0 REVERT JUMPDEST PUSH32 0x4E487B7100000000000000000000000000000000000000000000000000000000 PUSH0 MSTORE PUSH1 0x32 PUSH1 0x4 MSTORE PUSH1 0x24 PUSH0 REVERT JUMPDEST PUSH0 DUP2 SWAP1 POP SWAP3 SWAP2 POP POP JUMP JUMPDEST PUSH0 PUSH2 0x6A1 DUP3 PUSH2 0x490 JUMP JUMPDEST PUSH2 0x6AB DUP2 DUP6 PUSH2 0x68D JUMP JUMPDEST SWAP4 POP PUSH2 0x6BB DUP2 DUP6 PUSH1 0x20 DUP7 ADD PUSH2 0x4AA JUMP JUMPDEST DUP1 DUP5 ADD SWAP2 POP POP SWAP3 SWAP2 POP POP JUMP JUMPDEST PUSH0 PUSH2 0x6D2 DUP3 DUP5 PUSH2 0x697 JUMP JUMPDEST SWAP2 POP DUP2 SWAP1 POP SWAP3 SWAP2 POP POP JUMP JUMPDEST PUSH0 DUP3 DUP3 MSTORE PUSH1 0x20 DUP3 ADD SWAP1 POP SWAP3 SWAP2 POP POP JUMP JUMPDEST PUSH32 0x6661696C00000000000000000000000000000000000000000000000000000000 PUSH0 DUP3 ADD MSTORE POP JUMP JUMPDEST PUSH0 PUSH2 0x721 PUSH1 0x4 DUP4 PUSH2 0x6DD JUMP JUMPDEST SWAP2 POP PUSH2 0x72C DUP3 PUSH2 0x6ED JUMP JUMPDEST PUSH1 0x20 DUP3 ADD SWAP1 POP SWAP2 SWAP1 POP JUMP JUMPDEST PUSH0 PUSH1 0x20 DUP3 ADD SWAP1 POP DUP2 DUP2 SUB PUSH0 DUP4 ADD MSTORE PUSH2 0x74E DUP2 PUSH2 0x715 JUMP JUMPDEST SWAP1 POP SWAP2 SWAP1 POP JUMP INVALID LOG2 PUSH5 0x6970667358 0x22 SLT KECCAK256 CALLDATACOPY DUP8 SDIV CREATE2 CODESIZE SWAP14 SWAP9 LT 0xC5 0xA7 SWAP3 DUP10 0xBD 0xD0 0x1F SWAP6 SWAP1 0xB7 0xCE PUSH17 0x4912EBF1411E3D89F65F9C4664736F6C63 NUMBER STOP ADDMOD AND STOP CALLER "
		},
		"gasEstimates": {
			"creation": {
				"codeDepositCost": "386200",
				"executionCost": "422",
				"totalCost": "386622"
			},
			"external": {
				"batch()": "infinite",
				"num()": "2402",
				"rever()": "155",
				"setVars(uint256)": "22536"
			}
		},
		"methodIdentifiers": {
			"batch()": "af713566",
			"num()": "4e70b1dc",
			"rever()": "58525206",
			"setVars(uint256)": "6466414b"
		}
	},
	"abi": [
		{
			"inputs": [],
			"name": "batch",
			"outputs": [
				{
					"internalType": "bytes[]",
					"name": "results",
					"type": "bytes[]"
				}
			],
			"stateMutability": "payable",
			"type": "function"
		},
		{
			"inputs": [],
			"name": "num",
			"outputs": [
				{
					"internalType": "uint256",
					"name": "",
					"type": "uint256"
				}
			],
			"stateMutability": "view",
			"type": "function"
		},
		{
			"inputs": [],
			"name": "rever",
			"outputs": [],
			"stateMutability": "nonpayable",
			"type": "function"
		},
		{
			"inputs": [
				{
					"internalType": "uint256",
					"name": "_num",
					"type": "uint256"
				}
			],
			"name": "setVars",
			"outputs": [],
			"stateMutability": "nonpayable",
			"type": "function"
		}
	]
}