{
	"data": {
		"bytecode": {
			"linkReferences": {},
			"object": "60806040525f80556201518b600155348015610019575f80fd5b506102ed806100275f395ff3fe608060405234801561000f575f80fd5b506004361061007b575f3560e01c8063266de1e011610059578063266de1e0146100d95780635819e99c146100f7578063b213096214610115578063e5d8832a146101335761007b565b80631a2668871461007f5780631b08d96f1461009d57806325f58251146100bb575b5f80fd5b610087610151565b604051610094919061020e565b60405180910390f35b6100a561015b565b6040516100b2919061020e565b60405180910390f35b6100c361017d565b6040516100d0919061020e565b60405180910390f35b6100e1610183565b6040516100ee9190610241565b60405180910390f35b6100ff6101e5565b60405161010c919061020e565b60405180910390f35b61011d6101eb565b60405161012a919061020e565b60405180910390f35b61013b6101f1565b604051610148919061020e565b60405180910390f35b5f62015180905090565b5f806201518b90505f62015180905080826101769190610287565b9250505090565b60035481565b5f620151806001546101959190610287565b600381905550620151805f546101ab9190610287565b600281905550620151805f546101c19190610287565b620151806001546101d29190610287565b11156101e157600190506101e2565b5b90565b60025481565b60015481565b5f5481565b5f819050919050565b610208816101f6565b82525050565b5f6020820190506102215f8301846101ff565b92915050565b5f8115159050919050565b61023b81610227565b82525050565b5f6020820190506102545f830184610232565b92915050565b7f4e487b71000000000000000000000000000000000000000000000000000000005f52601260045260245ffd5b5f610291826101f6565b915061029c836101f6565b9250826102ac576102ab61025a565b5b82820490509291505056fea26469706673582212205d1890edc405d91db6d3a11424c4723a051ba9dd5051670b459f66f0c6d08cae64736f6c63430008160033",
			"opcodes": "PUSH1 0x80 PUSH1 0x40 MSTORE PUSH0 DUP1 SSTORE PUSH3 0x1518B PUSH1 0x1 SSTORE CALLVALUE DUP1 ISZERO PUSH2 0x19 JUMPI PUSH0 DUP1 REVERT JUMPDEST POP PUSH2 0x2ED DUP1 PUSH2 0x27 PUSH0 CODECOPY PUSH0 RETURN INVALID PUSH1 0x80 PUSH1 0x40 MSTORE CALLVALUE DUP1 ISZERO PUSH2 0xF JUMPI PUSH0 DUP1 REVERT JUMPDEST POP PUSH1 0x4 CALLDATASIZE LT PUSH2 0x7B JUMPI PUSH0 CALLDATALOAD PUSH1 0xE0 SHR DUP1 PUSH4 0x266DE1E0 GT PUSH2 0x59 JUMPI DUP1 PUSH4 0x266DE1E0 EQ PUSH2 0xD9 JUMPI DUP1 PUSH4 0x5819E99C EQ PUSH2 0xF7 JUMPI DUP1 PUSH4 0xB2130962 EQ PUSH2 0x115 JUMPI DUP1 PUSH4 0xE5D8832A EQ PUSH2 0x133 JUMPI PUSH2 0x7B JUMP JUMPDEST DUP1 PUSH4 0x1A266887 EQ PUSH2 0x7F JUMPI DUP1 PUSH4 0x1B08D96F EQ PUSH2 0x9D JUMPI DUP1 PUSH4 0x25F58251 EQ PUSH2 0xBB JUMPI JUMPDEST PUSH0 DUP1 REVERT JUMPDEST PUSH2 0x87 PUSH2 0x151 JUMP JUMPDEST PUSH1 0x40 MLOAD PUSH2 0x94 SWAP2 SWAP1 PUSH2 0x20E JUMP JUMPDEST PUSH1 0x40 MLOAD DUP1 SWAP2 SUB SWAP1 RETURN JUMPDEST PUSH2 0xA5 PUSH2 0x15B JUMP JUMPDEST PUSH1 0x40 MLOAD PUSH2 0xB2 SWAP2 SWAP1 PUSH2 0x20E JUMP JUMPDEST PUSH1 0x40 MLOAD DUP1 SWAP2 SUB SWAP1 RETURN JUMPDEST PUSH2 0xC3 PUSH2 0x17D JUMP JUMPDEST PUSH1 0x40 MLOAD PUSH2 0xD0 SWAP2 SWAP1 PUSH2 0x20E JUMP JUMPDEST PUSH1 0x40 MLOAD DUP1 SWAP2 SUB SWAP1 RETURN JUMPDEST PUSH2 0xE1 PUSH2 0x183 JUMP JUMPDEST PUSH1 0x40 MLOAD PUSH2 0xEE SWAP2 SWAP1 PUSH2 0x241 JUMP JUMPDEST PUSH1 0x40 MLOAD DUP1 SWAP2 SUB SWAP1 RETURN JUMPDEST PUSH2 0xFF PUSH2 0x1E5 JUMP JUMPDEST PUSH1 0x40 MLOAD PUSH2 0x10C SWAP2 SWAP1 PUSH2 0x20E JUMP JUMPDEST PUSH1 0x40 MLOAD DUP1 SWAP2 SUB SWAP1 RETURN JUMPDEST PUSH2 0x11D PUSH2 0x1EB JUMP JUMPDEST PUSH1 0x40 MLOAD PUSH2 0x12A SWAP2 SWAP1 PUSH2 0x20E JUMP JUMPDEST PUSH1 0x40 MLOAD DUP1 SWAP2 SUB SWAP1 RETURN JUMPDEST PUSH2 0x13B PUSH2 0x1F1 JUMP JUMPDEST PUSH1 0x40 MLOAD PUSH2 0x148 SWAP2 SWAP1 PUSH2 0x20E JUMP JUMPDEST PUSH1 0x40 MLOAD DUP1 SWAP2 SUB SWAP1 RETURN JUMPDEST PUSH0 PUSH3 0x15180 SWAP1 POP SWAP1 JUMP JUMPDEST PUSH0 DUP1 PUSH3 0x1518B SWAP1 POP PUSH0 PUSH3 0x15180 SWAP1 POP DUP1 DUP3 PUSH2 0x176 SWAP2 SWAP1 PUSH2 0x287 JUMP JUMPDEST SWAP3 POP POP POP SWAP1 JUMP JUMPDEST PUSH1 0x3 SLOAD DUP2 JUMP JUMPDEST PUSH0 PUSH3 0x15180 PUSH1 0x1 SLOAD PUSH2 0x195 SWAP2 SWAP1 PUSH2 0x287 JUMP JUMPDEST PUSH1 0x3 DUP2 SWAP1 SSTORE POP PUSH3 0x15180 PUSH0 SLOAD PUSH2 0x1AB SWAP2 SWAP1 PUSH2 0x287 JUMP JUMPDEST PUSH1 0x2 DUP2 SWAP1 SSTORE POP PUSH3 0x15180 PUSH0 SLOAD PUSH2 0x1C1 SWAP2 SWAP1 PUSH2 0x287 JUMP JUMPDEST PUSH3 0x15180 PUSH1 0x1 SLOAD PUSH2 0x1D2 SWAP2 SWAP1 PUSH2 0x287 JUMP JUMPDEST GT ISZERO PUSH2 0x1E1 JUMPI PUSH1 0x1 SWAP1 POP PUSH2 0x1E2 JUMP JUMPDEST JUMPDEST SWAP1 JUMP JUMPDEST PUSH1 0x2 SLOAD DUP2 JUMP JUMPDEST PUSH1 0x1 SLOAD DUP2 JUMP JUMPDEST PUSH0 SLOAD DUP2 JUMP JUMPDEST PUSH0 DUP2 SWAP1 POP SWAP2 SWAP1 POP JUMP JUMPDEST PUSH2 0x208 DUP2 PUSH2 0x1F6 JUMP JUMPDEST DUP3 MSTORE POP POP JUMP JUMPDEST PUSH0 PUSH1 0x20 DUP3 ADD SWAP1 POP PUSH2 0x221 PUSH0 DUP4 ADD DUP5 PUSH2 0x1FF JUMP JUMPDEST SWAP3 SWAP2 POP POP JUMP JUMPDEST PUSH0 DUP2 ISZERO ISZERO SWAP1 POP SWAP2 SWAP1 POP JUMP JUMPDEST PUSH2 0x23B DUP2 PUSH2 0x227 JUMP JUMPDEST DUP3 MSTORE POP POP JUMP JUMPDEST PUSH0 PUSH1 0x20 DUP3 ADD SWAP1 POP PUSH2 0x254 PUSH0 DUP4 ADD DUP5 PUSH2 0x232 JUMP JUMPDEST SWAP3 SWAP2 POP POP JUMP JUMPDEST PUSH32 0x4E487B7100000000000000000000000000000000000000000000000000000000 PUSH0 MSTORE PUSH1 0x12 PUSH1 0x4 MSTORE PUSH1 0x24 PUSH0 REVERT JUMPDEST PUSH0 PUSH2 0x291 DUP3 PUSH2 0x1F6 JUMP JUMPDEST SWAP2 POP PUSH2 0x29C DUP4 PUSH2 0x1F6 JUMP JUMPDEST SWAP3 POP DUP3 PUSH2 0x2AC JUMPI PUSH2 0x2AB PUSH2 0x25A JUMP JUMPDEST JUMPDEST DUP3 DUP3 DIV SWAP1 POP SWAP3 SWAP2 POP POP JUMP INVALID LOG2 PUSH5 0x6970667358 0x22 SLT KECCAK256 0x5D XOR SWAP1 0xED 0xC4 SDIV 0xD9 SAR 0xB6 0xD3 LOG1 EQ 0x24 0xC4 PUSH19 0x3A051BA9DD5051670B459F66F0C6D08CAE6473 PUSH16 0x6C634300081600330000000000000000 "
		},
		"gasEstimates": {
			"creation": {
				"codeDepositCost": "149800",
				"executionCost": "27305",
				"totalCost": "177105"
			},
			"external": {
				"_currTimestamp()": "2470",
				"_lastReceivedTimestamp()": "2447",
				"checktime()": "infinite",
				"currTimestamp()": "2469",
				"lastReceivedTimestamp()": "2490",
				"ret()": "infinite",
				"ret1()": "333"
			}
		},
		"methodIdentifiers": {
			"_currTimestamp()": "25f58251",
			"_lastReceivedTimestamp()": "5819e99c",
			"checktime()": "266de1e0",
			"currTimestamp()": "b2130962",
			"lastReceivedTimestamp()": "e5d8832a",
			"ret()": "1b08d96f",
			"ret1()": "1a266887"
		}
	},
	"abi": [
		{
			"inputs": [],
			"name": "_currTimestamp",
			"outputs": [
				{
					"internalType": "uint256",
					"name": "",
					"type": "uint256"
				}
			],
			"stateMutability": "view",
			"type": "function"
		},
		{
			"inputs": [],
			"name": "_lastReceivedTimestamp",
			"outputs": [
				{
					"internalType": "uint256",
					"name": "",
					"type": "uint256"
				}
			],
			"stateMutability": "view",
			"type": "function"
		},
		{
			"inputs": [],
			"name": "checktime",
			"outputs": [
				{
					"internalType": "bool",
					"name": "",
					"type": "bool"
				}
			],
			"stateMutability": "nonpayable",
			"type": "function"
		},
		{
			"inputs": [],
			"name": "currTimestamp",
			"outputs": [
				{
					"internalType": "uint256",
					"name": "",
					"type": "uint256"
				}
			],
			"stateMutability": "view",
			"type": "function"
		},
		{
			"inputs": [],
			"name": "lastReceivedTimestamp",
			"outputs": [
				{
					"internalType": "uint256",
					"name": "",
					"type": "uint256"
				}
			],
			"stateMutability": "view",
			"type": "function"
		},
		{
			"inputs": [],
			"name": "ret",
			"outputs": [
				{
					"internalType": "uint256",
					"name": "",
					"type": "uint256"
				}
			],
			"stateMutability": "pure",
			"type": "function"
		},
		{
			"inputs": [],
			"name": "ret1",
			"outputs": [
				{
					"internalType": "uint256",
					"name": "",
					"type": "uint256"
				}
			],
			"stateMutability": "pure",
			"type": "function"
		}
	]
}